{
	"data": {
		"bytecode": {
			"linkReferences": {},
			"object": "608060405234801561000f575f80fd5b506104bf8061001d5f395ff3fe608060405234801561000f575f80fd5b5060043610610029575f3560e01c80636e02fa3c1461002d575b5f80fd5b61004061003b3660046102b2565b610042565b005b82811461008a576040517f7340e16600000000000000000000000000000000000000000000000000000000815260048101849052602481018290526044015b60405180910390fd5b5f5b838110156101235761011b8585838181106100a9576100a9610319565b90506020020160208101906100be9190610346565b8484848181106100d0576100d0610319565b90506020028101906100e29190610380565b8080601f0160208091040260200160405190810160405280939291908181526020018383808284375f9201919091525061012a92505050565b60010161008c565b5050505050565b73ffffffffffffffffffffffffffffffffffffffff8216610149575050565b61016b8260405180606001604052806028815260200161046260289139610225565b5f808373ffffffffffffffffffffffffffffffffffffffff168360405161019291906103e5565b5f60405180830381855af49150503d805f81146101ca576040519150601f19603f3d011682016040523d82523d5f602084013e6101cf565b606091505b50915091508161021f578051156101e95780518082602001fd5b83836040517f192105d700000000000000000000000000000000000000000000000000000000815260040161008192919061042b565b50505050565b813b5f8190036102655782826040517f919834b900000000000000000000000000000000000000000000000000000000815260040161008192919061042b565b505050565b5f8083601f84011261027a575f80fd5b50813567ffffffffffffffff811115610291575f80fd5b6020830191508360208260051b85010111156102ab575f80fd5b9250929050565b5f805f80604085870312156102c5575f80fd5b843567ffffffffffffffff808211156102dc575f80fd5b6102e88883890161026a565b90965094506020870135915080821115610300575f80fd5b5061030d8782880161026a565b95989497509550505050565b7f4e487b71000000000000000000000000000000000000000000000000000000005f52603260045260245ffd5b5f60208284031215610356575f80fd5b813573ffffffffffffffffffffffffffffffffffffffff81168114610379575f80fd5b9392505050565b5f808335601e19843603018112610395575f80fd5b83018035915067ffffffffffffffff8211156103af575f80fd5b6020019150368190038213156102ab575f80fd5b5f5b838110156103dd5781810151838201526020016103c5565b50505f910152565b5f82516103f68184602087016103c3565b9190910192915050565b5f81518084526104178160208601602086016103c3565b601f01601f19169290920160200192915050565b73ffffffffffffffffffffffffffffffffffffffff83168152604060208201525f6104596040830184610400565b94935050505056fe4c69624469616d6f6e644375743a205f696e6974206164647265737320686173206e6f20636f6465a2646970667358221220a41ddee9313e7f0a9d26fd27615c68a521dfed8543dfbacb9d67b387044c65d164736f6c63430008180033",
			"opcodes": "PUSH1 0x80 PUSH1 0x40 MSTORE CALLVALUE DUP1 ISZERO PUSH2 0xF JUMPI PUSH0 DUP1 REVERT JUMPDEST POP PUSH2 0x4BF DUP1 PUSH2 0x1D PUSH0 CODECOPY PUSH0 RETURN INVALID PUSH1 0x80 PUSH1 0x40 MSTORE CALLVALUE DUP1 ISZERO PUSH2 0xF JUMPI PUSH0 DUP1 REVERT JUMPDEST POP PUSH1 0x4 CALLDATASIZE LT PUSH2 0x29 JUMPI PUSH0 CALLDATALOAD PUSH1 0xE0 SHR DUP1 PUSH4 0x6E02FA3C EQ PUSH2 0x2D JUMPI JUMPDEST PUSH0 DUP1 REVERT JUMPDEST PUSH2 0x40 PUSH2 0x3B CALLDATASIZE PUSH1 0x4 PUSH2 0x2B2 JUMP JUMPDEST PUSH2 0x42 JUMP JUMPDEST STOP JUMPDEST DUP3 DUP2 EQ PUSH2 0x8A JUMPI PUSH1 0x40 MLOAD PUSH32 0x7340E16600000000000000000000000000000000000000000000000000000000 DUP2 MSTORE PUSH1 0x4 DUP2 ADD DUP5 SWAP1 MSTORE PUSH1 0x24 DUP2 ADD DUP3 SWAP1 MSTORE PUSH1 0x44 ADD JUMPDEST PUSH1 0x40 MLOAD DUP1 SWAP2 SUB SWAP1 REVERT JUMPDEST PUSH0 JUMPDEST DUP4 DUP2 LT ISZERO PUSH2 0x123 JUMPI PUSH2 0x11B DUP6 DUP6 DUP4 DUP2 DUP2 LT PUSH2 0xA9 JUMPI PUSH2 0xA9 PUSH2 0x319 JUMP JUMPDEST SWAP1 POP PUSH1 0x20 MUL ADD PUSH1 0x20 DUP2 ADD SWAP1 PUSH2 0xBE SWAP2 SWAP1 PUSH2 0x346 JUMP JUMPDEST DUP5 DUP5 DUP5 DUP2 DUP2 LT PUSH2 0xD0 JUMPI PUSH2 0xD0 PUSH2 0x319 JUMP JUMPDEST SWAP1 POP PUSH1 0x20 MUL DUP2 ADD SWAP1 PUSH2 0xE2 SWAP2 SWAP1 PUSH2 0x380 JUMP JUMPDEST DUP1 DUP1 PUSH1 0x1F ADD PUSH1 0x20 DUP1 SWAP2 DIV MUL PUSH1 0x20 ADD PUSH1 0x40 MLOAD SWAP1 DUP2 ADD PUSH1 0x40 MSTORE DUP1 SWAP4 SWAP3 SWAP2 SWAP1 DUP2 DUP2 MSTORE PUSH1 0x20 ADD DUP4 DUP4 DUP1 DUP3 DUP5 CALLDATACOPY PUSH0 SWAP3 ADD SWAP2 SWAP1 SWAP2 MSTORE POP PUSH2 0x12A SWAP3 POP POP POP JUMP JUMPDEST PUSH1 0x1 ADD PUSH2 0x8C JUMP JUMPDEST POP POP POP POP POP JUMP JUMPDEST PUSH20 0xFFFFFFFFFFFFFFFFFFFFFFFFFFFFFFFFFFFFFFFF DUP3 AND PUSH2 0x149 JUMPI POP POP JUMP JUMPDEST PUSH2 0x16B DUP3 PUSH1 0x40 MLOAD DUP1 PUSH1 0x60 ADD PUSH1 0x40 MSTORE DUP1 PUSH1 0x28 DUP2 MSTORE PUSH1 0x20 ADD PUSH2 0x462 PUSH1 0x28 SWAP2 CODECOPY PUSH2 0x225 JUMP JUMPDEST PUSH0 DUP1 DUP4 PUSH20 0xFFFFFFFFFFFFFFFFFFFFFFFFFFFFFFFFFFFFFFFF AND DUP4 PUSH1 0x40 MLOAD PUSH2 0x192 SWAP2 SWAP1 PUSH2 0x3E5 JUMP JUMPDEST PUSH0 PUSH1 0x40 MLOAD DUP1 DUP4 SUB DUP2 DUP6 GAS DELEGATECALL SWAP2 POP POP RETURNDATASIZE DUP1 PUSH0 DUP2 EQ PUSH2 0x1CA JUMPI PUSH1 0x40 MLOAD SWAP2 POP PUSH1 0x1F NOT PUSH1 0x3F RETURNDATASIZE ADD AND DUP3 ADD PUSH1 0x40 MSTORE RETURNDATASIZE DUP3 MSTORE RETURNDATASIZE PUSH0 PUSH1 0x20 DUP5 ADD RETURNDATACOPY PUSH2 0x1CF JUMP JUMPDEST PUSH1 0x60 SWAP2 POP JUMPDEST POP SWAP2 POP SWAP2 POP DUP2 PUSH2 0x21F JUMPI DUP1 MLOAD ISZERO PUSH2 0x1E9 JUMPI DUP1 MLOAD DUP1 DUP3 PUSH1 0x20 ADD REVERT JUMPDEST DUP4 DUP4 PUSH1 0x40 MLOAD PUSH32 0x192105D700000000000000000000000000000000000000000000000000000000 DUP2 MSTORE PUSH1 0x4 ADD PUSH2 0x81 SWAP3 SWAP2 SWAP1 PUSH2 0x42B JUMP JUMPDEST POP POP POP POP JUMP JUMPDEST DUP2 EXTCODESIZE PUSH0 DUP2 SWAP1 SUB PUSH2 0x265 JUMPI DUP3 DUP3 PUSH1 0x40 MLOAD PUSH32 0x919834B900000000000000000000000000000000000000000000000000000000 DUP2 MSTORE PUSH1 0x4 ADD PUSH2 0x81 SWAP3 SWAP2 SWAP1 PUSH2 0x42B JUMP JUMPDEST POP POP POP JUMP JUMPDEST PUSH0 DUP1 DUP4 PUSH1 0x1F DUP5 ADD SLT PUSH2 0x27A JUMPI PUSH0 DUP1 REVERT JUMPDEST POP DUP2 CALLDATALOAD PUSH8 0xFFFFFFFFFFFFFFFF DUP2 GT ISZERO PUSH2 0x291 JUMPI PUSH0 DUP1 REVERT JUMPDEST PUSH1 0x20 DUP4 ADD SWAP2 POP DUP4 PUSH1 0x20 DUP3 PUSH1 0x5 SHL DUP6 ADD ADD GT ISZERO PUSH2 0x2AB JUMPI PUSH0 DUP1 REVERT JUMPDEST SWAP3 POP SWAP3 SWAP1 POP JUMP JUMPDEST PUSH0 DUP1 PUSH0 DUP1 PUSH1 0x40 DUP6 DUP8 SUB SLT ISZERO PUSH2 0x2C5 JUMPI PUSH0 DUP1 REVERT JUMPDEST DUP5 CALLDATALOAD PUSH8 0xFFFFFFFFFFFFFFFF DUP1 DUP3 GT ISZERO PUSH2 0x2DC JUMPI PUSH0 DUP1 REVERT JUMPDEST PUSH2 0x2E8 DUP9 DUP4 DUP10 ADD PUSH2 0x26A JUMP JUMPDEST SWAP1 SWAP7 POP SWAP5 POP PUSH1 0x20 DUP8 ADD CALLDATALOAD SWAP2 POP DUP1 DUP3 GT ISZERO PUSH2 0x300 JUMPI PUSH0 DUP1 REVERT JUMPDEST POP PUSH2 0x30D DUP8 DUP3 DUP9 ADD PUSH2 0x26A JUMP JUMPDEST SWAP6 SWAP9 SWAP5 SWAP8 POP SWAP6 POP POP POP POP JUMP JUMPDEST PUSH32 0x4E487B7100000000000000000000000000000000000000000000000000000000 PUSH0 MSTORE PUSH1 0x32 PUSH1 0x4 MSTORE PUSH1 0x24 PUSH0 REVERT JUMPDEST PUSH0 PUSH1 0x20 DUP3 DUP5 SUB SLT ISZERO PUSH2 0x356 JUMPI PUSH0 DUP1 REVERT JUMPDEST DUP2 CALLDATALOAD PUSH20 0xFFFFFFFFFFFFFFFFFFFFFFFFFFFFFFFFFFFFFFFF DUP2 AND DUP2 EQ PUSH2 0x379 JUMPI PUSH0 DUP1 REVERT JUMPDEST SWAP4 SWAP3 POP POP POP JUMP JUMPDEST PUSH0 DUP1 DUP4 CALLDATALOAD PUSH1 0x1E NOT DUP5 CALLDATASIZE SUB ADD DUP2 SLT PUSH2 0x395 JUMPI PUSH0 DUP1 REVERT JUMPDEST DUP4 ADD DUP1 CALLDATALOAD SWAP2 POP PUSH8 0xFFFFFFFFFFFFFFFF DUP3 GT ISZERO PUSH2 0x3AF JUMPI PUSH0 DUP1 REVERT JUMPDEST PUSH1 0x20 ADD SWAP2 POP CALLDATASIZE DUP2 SWAP1 SUB DUP3 SGT ISZERO PUSH2 0x2AB JUMPI PUSH0 DUP1 REVERT JUMPDEST PUSH0 JUMPDEST DUP4 DUP2 LT ISZERO PUSH2 0x3DD JUMPI DUP2 DUP2 ADD MLOAD DUP4 DUP3 ADD MSTORE PUSH1 0x20 ADD PUSH2 0x3C5 JUMP JUMPDEST POP POP PUSH0 SWAP2 ADD MSTORE JUMP JUMPDEST PUSH0 DUP3 MLOAD PUSH2 0x3F6 DUP2 DUP5 PUSH1 0x20 DUP8 ADD PUSH2 0x3C3 JUMP JUMPDEST SWAP2 SWAP1 SWAP2 ADD SWAP3 SWAP2 POP POP JUMP JUMPDEST PUSH0 DUP2 MLOAD DUP1 DUP5 MSTORE PUSH2 0x417 DUP2 PUSH1 0x20 DUP7 ADD PUSH1 0x20 DUP7 ADD PUSH2 0x3C3 JUMP JUMPDEST PUSH1 0x1F ADD PUSH1 0x1F NOT AND SWAP3 SWAP1 SWAP3 ADD PUSH1 0x20 ADD SWAP3 SWAP2 POP POP JUMP JUMPDEST PUSH20 0xFFFFFFFFFFFFFFFFFFFFFFFFFFFFFFFFFFFFFFFF DUP4 AND DUP2 MSTORE PUSH1 0x40 PUSH1 0x20 DUP3 ADD MSTORE PUSH0 PUSH2 0x459 PUSH1 0x40 DUP4 ADD DUP5 PUSH2 0x400 JUMP JUMPDEST SWAP5 SWAP4 POP POP POP POP JUMP INVALID 0x4C PUSH10 0x624469616D6F6E644375 PUSH21 0x3A205F696E6974206164647265737320686173206E PUSH16 0x20636F6465A2646970667358221220A4 SAR 0xDE 0xE9 BALANCE RETURNDATACOPY PUSH32 0xA9D26FD27615C68A521DFED8543DFBACB9D67B387044C65D164736F6C634300 ADDMOD XOR STOP CALLER "
		},
		"gasEstimates": {
			"creation": {
				"codeDepositCost": "243000",
				"executionCost": "279",
				"totalCost": "243279"
			},
			"external": {
				"multiInit(address[],bytes[])": "infinite"
			}
		},
		"methodIdentifiers": {
			"multiInit(address[],bytes[])": "6e02fa3c"
		}
	},
	"abi": [
		{
			"inputs": [
				{
					"internalType": "uint256",
					"name": "_addressesLength",
					"type": "uint256"
				},
				{
					"internalType": "uint256",
					"name": "_calldataLength",
					"type": "uint256"
				}
			],
			"name": "AddressAndCalldataLengthDoNotMatch",
			"type": "error"
		},
		{
			"inputs": [
				{
					"internalType": "address",
					"name": "_initializationContractAddress",
					"type": "address"
				},
				{
					"internalType": "bytes",
					"name": "_calldata",
					"type": "bytes"
				}
			],
			"name": "InitializationFunctionReverted",
			"type": "error"
		},
		{
			"inputs": [
				{
					"internalType": "address",
					"name": "_contractAddress",
					"type": "address"
				},
				{
					"internalType": "string",
					"name": "_message",
					"type": "string"
				}
			],
			"name": "NoBytecodeAtAddress",
			"type": "error"
		},
		{
			"inputs": [
				{
					"internalType": "address[]",
					"name": "_addresses",
					"type": "address[]"
				},
				{
					"internalType": "bytes[]",
					"name": "_calldata",
					"type": "bytes[]"
				}
			],
			"name": "multiInit",
			"outputs": [],
			"stateMutability": "nonpayable",
			"type": "function"
		}
	]
}