{
	"data": {
		"bytecode": {
			"linkReferences": {},
			"object": "608060405234801561001057600080fd5b50610458806100206000396000f3fe60806040526004361061002d5760003560e01c8063af640d0f146100f9578063e3fddac41461012157610034565b3661003457005b600080356001600160e01b03191681527fc8fcad8db84d3cc18b4c41d551ea0ee66dd599cde068d998e57d5e09332c131c602052604090205473ffffffffffffffffffffffffffffffffffffffff16806100d55760405162461bcd60e51b815260206004820152601560248201527f4469616d6f6e6420646f65736e2774206578697374000000000000000000000060448201526064015b60405180910390fd5b3660008037600080366000845af43d6000803e8080156100f4573d6000f35b3d6000fd5b34801561010557600080fd5b5061010f60005481565b60405190815260200160405180910390f35b34801561012d57600080fd5b5061014161013c366004610384565b610143565b005b6001600160e01b0319821660009081527fc8fcad8db84d3cc18b4c41d551ea0ee66dd599cde068d998e57d5e09332c131c602052604090205473ffffffffffffffffffffffffffffffffffffffff16156101df5760405162461bcd60e51b815260206004820152601360248201527f666163657420616c72656164792061646465640000000000000000000000000060448201526064016100cc565b6000546101ed9060016103e3565b60008181556040805180820182528281526020808201848152835180850185528581528083018681528551808701875273ffffffffffffffffffffffffffffffffffffffff998a16958690526001600160e01b03199a909a1692839052848252878152828a528984019788529186527fc8fcad8db84d3cc18b4c41d551ea0ee66dd599cde068d998e57d5e09332c131c83528486209051815498167fffffffffffffffffffffffff000000000000000000000000000000000000000098891617815590516001918201558285527fc8fcad8db84d3cc18b4c41d551ea0ee66dd599cde068d998e57d5e09332c131d9091529183209551865460e09190911c63ffffffff199091161786559251948101949094557fc8fcad8db84d3cc18b4c41d551ea0ee66dd599cde068d998e57d5e09332c131e8054948501815590527fb5c239a29faf02594141bbc5e6982a9b85ba2b4d59c3ed3baaf4cb8e5e11cbef909201805482169092179091557fc8fcad8db84d3cc18b4c41d551ea0ee66dd599cde068d998e57d5e09332c131f805490911633179055565b6000806040838503121561039757600080fd5b82356001600160e01b0319811681146103af57600080fd5b9150602083013573ffffffffffffffffffffffffffffffffffffffff811681146103d857600080fd5b809150509250929050565b6000821982111561041d577f4e487b7100000000000000000000000000000000000000000000000000000000600052601160045260246000fd5b50019056fea2646970667358221220b2a55a1f0e57fa1235c2394be18ae68b54dbd681e0968bbff81b6bc62b357c4464736f6c63430008090033",
			"opcodes": "PUSH1 0x80 PUSH1 0x40 MSTORE CALLVALUE DUP1 ISZERO PUSH2 0x10 JUMPI PUSH1 0x0 DUP1 REVERT JUMPDEST POP PUSH2 0x458 DUP1 PUSH2 0x20 PUSH1 0x0 CODECOPY PUSH1 0x0 RETURN INVALID PUSH1 0x80 PUSH1 0x40 MSTORE PUSH1 0x4 CALLDATASIZE LT PUSH2 0x2D JUMPI PUSH1 0x0 CALLDATALOAD PUSH1 0xE0 SHR DUP1 PUSH4 0xAF640D0F EQ PUSH2 0xF9 JUMPI DUP1 PUSH4 0xE3FDDAC4 EQ PUSH2 0x121 JUMPI PUSH2 0x34 JUMP JUMPDEST CALLDATASIZE PUSH2 0x34 JUMPI STOP JUMPDEST PUSH1 0x0 DUP1 CALLDATALOAD PUSH1 0x1 PUSH1 0x1 PUSH1 0xE0 SHL SUB NOT AND DUP2 MSTORE PUSH32 0xC8FCAD8DB84D3CC18B4C41D551EA0EE66DD599CDE068D998E57D5E09332C131C PUSH1 0x20 MSTORE PUSH1 0x40 SWAP1 KECCAK256 SLOAD PUSH20 0xFFFFFFFFFFFFFFFFFFFFFFFFFFFFFFFFFFFFFFFF AND DUP1 PUSH2 0xD5 JUMPI PUSH1 0x40 MLOAD PUSH3 0x461BCD PUSH1 0xE5 SHL DUP2 MSTORE PUSH1 0x20 PUSH1 0x4 DUP3 ADD MSTORE PUSH1 0x15 PUSH1 0x24 DUP3 ADD MSTORE PUSH32 0x4469616D6F6E6420646F65736E27742065786973740000000000000000000000 PUSH1 0x44 DUP3 ADD MSTORE PUSH1 0x64 ADD JUMPDEST PUSH1 0x40 MLOAD DUP1 SWAP2 SUB SWAP1 REVERT JUMPDEST CALLDATASIZE PUSH1 0x0 DUP1 CALLDATACOPY PUSH1 0x0 DUP1 CALLDATASIZE PUSH1 0x0 DUP5 GAS DELEGATECALL RETURNDATASIZE PUSH1 0x0 DUP1 RETURNDATACOPY DUP1 DUP1 ISZERO PUSH2 0xF4 JUMPI RETURNDATASIZE PUSH1 0x0 RETURN JUMPDEST RETURNDATASIZE PUSH1 0x0 REVERT JUMPDEST CALLVALUE DUP1 ISZERO PUSH2 0x105 JUMPI PUSH1 0x0 DUP1 REVERT JUMPDEST POP PUSH2 0x10F PUSH1 0x0 SLOAD DUP2 JUMP JUMPDEST PUSH1 0x40 MLOAD SWAP1 DUP2 MSTORE PUSH1 0x20 ADD PUSH1 0x40 MLOAD DUP1 SWAP2 SUB SWAP1 RETURN JUMPDEST CALLVALUE DUP1 ISZERO PUSH2 0x12D JUMPI PUSH1 0x0 DUP1 REVERT JUMPDEST POP PUSH2 0x141 PUSH2 0x13C CALLDATASIZE PUSH1 0x4 PUSH2 0x384 JUMP JUMPDEST PUSH2 0x143 JUMP JUMPDEST STOP JUMPDEST PUSH1 0x1 PUSH1 0x1 PUSH1 0xE0 SHL SUB NOT DUP3 AND PUSH1 0x0 SWAP1 DUP2 MSTORE PUSH32 0xC8FCAD8DB84D3CC18B4C41D551EA0EE66DD599CDE068D998E57D5E09332C131C PUSH1 0x20 MSTORE PUSH1 0x40 SWAP1 KECCAK256 SLOAD PUSH20 0xFFFFFFFFFFFFFFFFFFFFFFFFFFFFFFFFFFFFFFFF AND ISZERO PUSH2 0x1DF JUMPI PUSH1 0x40 MLOAD PUSH3 0x461BCD PUSH1 0xE5 SHL DUP2 MSTORE PUSH1 0x20 PUSH1 0x4 DUP3 ADD MSTORE PUSH1 0x13 PUSH1 0x24 DUP3 ADD MSTORE PUSH32 0x666163657420616C726561647920616464656400000000000000000000000000 PUSH1 0x44 DUP3 ADD MSTORE PUSH1 0x64 ADD PUSH2 0xCC JUMP JUMPDEST PUSH1 0x0 SLOAD PUSH2 0x1ED SWAP1 PUSH1 0x1 PUSH2 0x3E3 JUMP JUMPDEST PUSH1 0x0 DUP2 DUP2 SSTORE PUSH1 0x40 DUP1 MLOAD DUP1 DUP3 ADD DUP3 MSTORE DUP3 DUP2 MSTORE PUSH1 0x20 DUP1 DUP3 ADD DUP5 DUP2 MSTORE DUP4 MLOAD DUP1 DUP6 ADD DUP6 MSTORE DUP6 DUP2 MSTORE DUP1 DUP4 ADD DUP7 DUP2 MSTORE DUP6 MLOAD DUP1 DUP8 ADD DUP8 MSTORE PUSH20 0xFFFFFFFFFFFFFFFFFFFFFFFFFFFFFFFFFFFFFFFF SWAP10 DUP11 AND SWAP6 DUP7 SWAP1 MSTORE PUSH1 0x1 PUSH1 0x1 PUSH1 0xE0 SHL SUB NOT SWAP11 SWAP1 SWAP11 AND SWAP3 DUP4 SWAP1 MSTORE DUP5 DUP3 MSTORE DUP8 DUP2 MSTORE DUP3 DUP11 MSTORE DUP10 DUP5 ADD SWAP8 DUP9 MSTORE SWAP2 DUP7 MSTORE PUSH32 0xC8FCAD8DB84D3CC18B4C41D551EA0EE66DD599CDE068D998E57D5E09332C131C DUP4 MSTORE DUP5 DUP7 KECCAK256 SWAP1 MLOAD DUP2 SLOAD SWAP9 AND PUSH32 0xFFFFFFFFFFFFFFFFFFFFFFFF0000000000000000000000000000000000000000 SWAP9 DUP10 AND OR DUP2 SSTORE SWAP1 MLOAD PUSH1 0x1 SWAP2 DUP3 ADD SSTORE DUP3 DUP6 MSTORE PUSH32 0xC8FCAD8DB84D3CC18B4C41D551EA0EE66DD599CDE068D998E57D5E09332C131D SWAP1 SWAP2 MSTORE SWAP2 DUP4 KECCAK256 SWAP6 MLOAD DUP7 SLOAD PUSH1 0xE0 SWAP2 SWAP1 SWAP2 SHR PUSH4 0xFFFFFFFF NOT SWAP1 SWAP2 AND OR DUP7 SSTORE SWAP3 MLOAD SWAP5 DUP2 ADD SWAP5 SWAP1 SWAP5 SSTORE PUSH32 0xC8FCAD8DB84D3CC18B4C41D551EA0EE66DD599CDE068D998E57D5E09332C131E DUP1 SLOAD SWAP5 DUP6 ADD DUP2 SSTORE SWAP1 MSTORE PUSH32 0xB5C239A29FAF02594141BBC5E6982A9B85BA2B4D59C3ED3BAAF4CB8E5E11CBEF SWAP1 SWAP3 ADD DUP1 SLOAD DUP3 AND SWAP1 SWAP3 OR SWAP1 SWAP2 SSTORE PUSH32 0xC8FCAD8DB84D3CC18B4C41D551EA0EE66DD599CDE068D998E57D5E09332C131F DUP1 SLOAD SWAP1 SWAP2 AND CALLER OR SWAP1 SSTORE JUMP JUMPDEST PUSH1 0x0 DUP1 PUSH1 0x40 DUP4 DUP6 SUB SLT ISZERO PUSH2 0x397 JUMPI PUSH1 0x0 DUP1 REVERT JUMPDEST DUP3 CALLDATALOAD PUSH1 0x1 PUSH1 0x1 PUSH1 0xE0 SHL SUB NOT DUP2 AND DUP2 EQ PUSH2 0x3AF JUMPI PUSH1 0x0 DUP1 REVERT JUMPDEST SWAP2 POP PUSH1 0x20 DUP4 ADD CALLDATALOAD PUSH20 0xFFFFFFFFFFFFFFFFFFFFFFFFFFFFFFFFFFFFFFFF DUP2 AND DUP2 EQ PUSH2 0x3D8 JUMPI PUSH1 0x0 DUP1 REVERT JUMPDEST DUP1 SWAP2 POP POP SWAP3 POP SWAP3 SWAP1 POP JUMP JUMPDEST PUSH1 0x0 DUP3 NOT DUP3 GT ISZERO PUSH2 0x41D JUMPI PUSH32 0x4E487B7100000000000000000000000000000000000000000000000000000000 PUSH1 0x0 MSTORE PUSH1 0x11 PUSH1 0x4 MSTORE PUSH1 0x24 PUSH1 0x0 REVERT JUMPDEST POP ADD SWAP1 JUMP INVALID LOG2 PUSH5 0x6970667358 0x22 SLT KECCAK256 0xB2 0xA5 GAS 0x1F 0xE JUMPI STATICCALL SLT CALLDATALOAD 0xC2 CODECOPY 0x4B 0xE1 DUP11 0xE6 DUP12 SLOAD 0xDB 0xD6 DUP2 0xE0 SWAP7 DUP12 0xBF 0xF8 SHL PUSH12 0xC62B357C4464736F6C634300 ADDMOD MULMOD STOP CALLER "
		},
		"gasEstimates": {
			"creation": {
				"codeDepositCost": "222400",
				"executionCost": "263",
				"totalCost": "222663"
			},
			"external": {
				"": "infinite",
				"diamondCut(bytes4,address)": "192621",
				"id()": "2261"
			},
			"internal": {
				"diamondStorage()": "infinite"
			}
		},
		"methodIdentifiers": {
			"diamondCut(bytes4,address)": "e3fddac4",
			"id()": "af640d0f"
		}
	},
	"abi": [
		{
			"stateMutability": "payable",
			"type": "fallback"
		},
		{
			"inputs": [
				{
					"internalType": "bytes4",
					"name": "_bytes",
					"type": "bytes4"
				},
				{
					"internalType": "address",
					"name": "_address",
					"type": "address"
				}
			],
			"name": "diamondCut",
			"outputs": [],
			"stateMutability": "nonpayable",
			"type": "function"
		},
		{
			"inputs": [],
			"name": "id",
			"outputs": [
				{
					"internalType": "uint256",
					"name": "",
					"type": "uint256"
				}
			],
			"stateMutability": "view",
			"type": "function"
		},
		{
			"stateMutability": "payable",
			"type": "receive"
		}
	]
}