{
	"contracts/Eip897/DelegateP.sol": {
		"Owner": {
			"abi": [
				{
					"inputs": [
						{
							"internalType": "address",
							"name": "_delegate",
							"type": "address"
						}
					],
					"stateMutability": "nonpayable",
					"type": "constructor"
				},
				{
					"inputs": [],
					"name": "delegate",
					"outputs": [
						{
							"internalType": "address",
							"name": "",
							"type": "address"
						}
					],
					"stateMutability": "view",
					"type": "function"
				},
				{
					"inputs": [],
					"name": "getDelegateValue",
					"outputs": [
						{
							"internalType": "uint256",
							"name": "",
							"type": "uint256"
						}
					],
					"stateMutability": "view",
					"type": "function"
				},
				{
					"inputs": [],
					"name": "ownerValue",
					"outputs": [
						{
							"internalType": "uint256",
							"name": "",
							"type": "uint256"
						}
					],
					"stateMutability": "view",
					"type": "function"
				},
				{
					"inputs": [
						{
							"internalType": "uint256",
							"name": "_value",
							"type": "uint256"
						}
					],
					"name": "setDelegateValue",
					"outputs": [],
					"stateMutability": "nonpayable",
					"type": "function"
				},
				{
					"inputs": [
						{
							"internalType": "uint256",
							"name": "_value",
							"type": "uint256"
						}
					],
					"name": "setOwnerValue",
					"outputs": [],
					"stateMutability": "nonpayable",
					"type": "function"
				}
			],
			"devdoc": {
				"kind": "dev",
				"methods": {},
				"version": 1
			},
			"evm": {
				"assembly": "    /* \"contracts/Eip897/DelegateP.sol\":494:1175  contract Owner {... */\n  mstore(0x40, 0x80)\n    /* \"contracts/Eip897/DelegateP.sol\":573:641  constructor(address _delegate) {... */\n  callvalue\n  dup1\n  iszero\n  tag_1\n  jumpi\n  0x00\n  dup1\n  revert\ntag_1:\n  pop\n  mload(0x40)\n  sub(codesize, bytecodeSize)\n  dup1\n  bytecodeSize\n  dup4\n  codecopy\n  dup2\n  add\n  0x40\n  dup2\n  swap1\n  mstore\n  tag_2\n  swap2\n  tag_3\n  jump\t// in\ntag_2:\n    /* \"contracts/Eip897/DelegateP.sol\":614:622  delegate */\n  0x00\n    /* \"contracts/Eip897/DelegateP.sol\":614:634  delegate = _delegate */\n  dup1\n  sload\n  not(sub(shl(0xa0, 0x01), 0x01))\n  and\n  sub(shl(0xa0, 0x01), 0x01)\n  swap3\n  swap1\n  swap3\n  and\n  swap2\n  swap1\n  swap2\n  or\n  swap1\n  sstore\n    /* \"contracts/Eip897/DelegateP.sol\":494:1175  contract Owner {... */\n  jump(tag_7)\n    /* \"#utility.yul\":14:304   */\ntag_3:\n    /* \"#utility.yul\":84:90   */\n  0x00\n    /* \"#utility.yul\":137:139   */\n  0x20\n    /* \"#utility.yul\":125:134   */\n  dup3\n    /* \"#utility.yul\":116:123   */\n  dup5\n    /* \"#utility.yul\":112:135   */\n  sub\n    /* \"#utility.yul\":108:140   */\n  slt\n    /* \"#utility.yul\":105:157   */\n  iszero\n  tag_9\n  jumpi\n    /* \"#utility.yul\":153:154   */\n  0x00\n    /* \"#utility.yul\":150:151   */\n  dup1\n    /* \"#utility.yul\":143:155   */\n  revert\n    /* \"#utility.yul\":105:157   */\ntag_9:\n    /* \"#utility.yul\":179:195   */\n  dup2\n  mload\n  sub(shl(0xa0, 0x01), 0x01)\n    /* \"#utility.yul\":224:255   */\n  dup2\n  and\n    /* \"#utility.yul\":214:256   */\n  dup2\n  eq\n    /* \"#utility.yul\":204:274   */\n  tag_10\n  jumpi\n    /* \"#utility.yul\":270:271   */\n  0x00\n    /* \"#utility.yul\":267:268   */\n  dup1\n    /* \"#utility.yul\":260:272   */\n  revert\n    /* \"#utility.yul\":204:274   */\ntag_10:\n    /* \"#utility.yul\":293:298   */\n  swap4\n    /* \"#utility.yul\":14:304   */\n  swap3\n  pop\n  pop\n  pop\n  jump\t// out\ntag_7:\n    /* \"contracts/Eip897/DelegateP.sol\":494:1175  contract Owner {... */\n  dataSize(sub_0)\n  dup1\n  dataOffset(sub_0)\n  0x00\n  codecopy\n  0x00\n  return\nstop\n\nsub_0: assembly {\n        /* \"contracts/Eip897/DelegateP.sol\":494:1175  contract Owner {... */\n      mstore(0x40, 0x80)\n      callvalue\n      dup1\n      iszero\n      tag_1\n      jumpi\n      0x00\n      dup1\n      revert\n    tag_1:\n      pop\n      jumpi(tag_2, lt(calldatasize, 0x04))\n      shr(0xe0, calldataload(0x00))\n      dup1\n      0xccb9ac49\n      gt\n      tag_8\n      jumpi\n      dup1\n      0xccb9ac49\n      eq\n      tag_5\n      jumpi\n      dup1\n      0xee5d92b7\n      eq\n      tag_6\n      jumpi\n      dup1\n      0xee839256\n      eq\n      tag_7\n      jumpi\n      0x00\n      dup1\n      revert\n    tag_8:\n      dup1\n      0xa0471d9b\n      eq\n      tag_3\n      jumpi\n      dup1\n      0xc89e4361\n      eq\n      tag_4\n      jumpi\n    tag_2:\n      0x00\n      dup1\n      revert\n        /* \"contracts/Eip897/DelegateP.sol\":544:566  uint public ownerValue */\n    tag_3:\n      tag_9\n      sload(0x01)\n      dup2\n      jump\n    tag_9:\n      mload(0x40)\n        /* \"#utility.yul\":160:185   */\n      swap1\n      dup2\n      mstore\n        /* \"#utility.yul\":148:150   */\n      0x20\n        /* \"#utility.yul\":133:151   */\n      add\n        /* \"contracts/Eip897/DelegateP.sol\":544:566  uint public ownerValue */\n    tag_11:\n      mload(0x40)\n      dup1\n      swap2\n      sub\n      swap1\n      return\n        /* \"contracts/Eip897/DelegateP.sol\":515:538  address public delegate */\n    tag_4:\n      sload(0x00)\n      tag_13\n      swap1\n      0xffffffffffffffffffffffffffffffffffffffff\n      and\n      dup2\n      jump\n    tag_13:\n      mload(0x40)\n        /* \"#utility.yul\":372:414   */\n      0xffffffffffffffffffffffffffffffffffffffff\n        /* \"#utility.yul\":360:415   */\n      swap1\n      swap2\n      and\n        /* \"#utility.yul\":342:416   */\n      dup2\n      mstore\n        /* \"#utility.yul\":330:332   */\n      0x20\n        /* \"#utility.yul\":315:333   */\n      add\n        /* \"contracts/Eip897/DelegateP.sol\":515:538  address public delegate */\n      tag_11\n        /* \"#utility.yul\":196:422   */\n      jump\n        /* \"contracts/Eip897/DelegateP.sol\":1094:1173  function setOwnerValue(uint _value) public {... */\n    tag_5:\n      tag_17\n      tag_18\n      calldatasize\n      0x04\n      tag_19\n      jump\t// in\n    tag_18:\n        /* \"contracts/Eip897/DelegateP.sol\":1147:1157  ownerValue */\n      0x01\n        /* \"contracts/Eip897/DelegateP.sol\":1147:1166  ownerValue = _value */\n      sstore\n        /* \"contracts/Eip897/DelegateP.sol\":1094:1173  function setOwnerValue(uint _value) public {... */\n      jump\n    tag_17:\n      stop\n        /* \"contracts/Eip897/DelegateP.sol\":699:847  function getDelegateValue() public view returns (uint) {... */\n    tag_6:\n      tag_9\n      tag_22\n      jump\t// in\n        /* \"contracts/Eip897/DelegateP.sol\":903:1041  function setDelegateValue(uint _value) public {... */\n    tag_7:\n      tag_17\n      tag_25\n      calldatasize\n      0x04\n      tag_19\n      jump\t// in\n    tag_25:\n      tag_26\n      jump\t// in\n        /* \"contracts/Eip897/DelegateP.sol\":699:847  function getDelegateValue() public view returns (uint) {... */\n    tag_22:\n        /* \"contracts/Eip897/DelegateP.sol\":748:752  uint */\n      0x00\n        /* \"contracts/Eip897/DelegateP.sol\":794:802  delegate */\n      dup1\n      sload\n        /* \"contracts/Eip897/DelegateP.sol\":820:840  _delegate.getValue() */\n      0x40\n      dup1\n      mload\n      0x2096525500000000000000000000000000000000000000000000000000000000\n      dup2\n      mstore\n      swap1\n      mload\n        /* \"contracts/Eip897/DelegateP.sol\":794:802  delegate */\n      0xffffffffffffffffffffffffffffffffffffffff\n      swap1\n      swap3\n      and\n      swap2\n      dup3\n      swap2\n        /* \"contracts/Eip897/DelegateP.sol\":820:838  _delegate.getValue */\n      0x20965255\n      swap2\n        /* \"contracts/Eip897/DelegateP.sol\":820:840  _delegate.getValue() */\n      0x04\n      dup1\n      dup4\n      add\n      swap3\n      0x20\n      swap3\n      swap2\n      swap1\n      dup3\n      swap1\n      sub\n      add\n      dup2\n        /* \"contracts/Eip897/DelegateP.sol\":794:802  delegate */\n      dup7\n        /* \"contracts/Eip897/DelegateP.sol\":820:840  _delegate.getValue() */\n      gas\n      staticcall\n      iszero\n      dup1\n      iszero\n      tag_30\n      jumpi\n      returndatasize\n      0x00\n      dup1\n      returndatacopy\n      revert(0x00, returndatasize)\n    tag_30:\n      pop\n      pop\n      pop\n      pop\n      mload(0x40)\n      returndatasize\n      not(0x1f)\n      0x1f\n      dup3\n      add\n      and\n      dup3\n      add\n      dup1\n      0x40\n      mstore\n      pop\n      dup2\n      add\n      swap1\n      tag_31\n      swap2\n      swap1\n      tag_32\n      jump\t// in\n    tag_31:\n        /* \"contracts/Eip897/DelegateP.sol\":813:840  return _delegate.getValue() */\n      swap2\n      pop\n      pop\n        /* \"contracts/Eip897/DelegateP.sol\":699:847  function getDelegateValue() public view returns (uint) {... */\n      swap1\n      jump\t// out\n        /* \"contracts/Eip897/DelegateP.sol\":903:1041  function setDelegateValue(uint _value) public {... */\n    tag_26:\n        /* \"contracts/Eip897/DelegateP.sol\":959:977  Delegate _delegate */\n      0x00\n        /* \"contracts/Eip897/DelegateP.sol\":989:997  delegate */\n      sload\n        /* \"contracts/Eip897/DelegateP.sol\":1008:1034  _delegate.setValue(_value) */\n      mload(0x40)\n      0x5524107700000000000000000000000000000000000000000000000000000000\n      dup2\n      mstore\n      0x04\n      dup2\n      add\n        /* \"#utility.yul\":160:185   */\n      dup4\n      swap1\n      mstore\n        /* \"contracts/Eip897/DelegateP.sol\":989:997  delegate */\n      0xffffffffffffffffffffffffffffffffffffffff\n      swap1\n      swap2\n      and\n      swap1\n      dup2\n      swap1\n        /* \"contracts/Eip897/DelegateP.sol\":1008:1026  _delegate.setValue */\n      0x55241077\n      swap1\n        /* \"#utility.yul\":133:151   */\n      0x24\n      add\n        /* \"contracts/Eip897/DelegateP.sol\":1008:1034  _delegate.setValue(_value) */\n      0x00\n      mload(0x40)\n      dup1\n      dup4\n      sub\n      dup2\n      0x00\n      dup8\n      dup1\n      extcodesize\n      iszero\n      dup1\n      iszero\n      tag_35\n      jumpi\n      0x00\n      dup1\n      revert\n    tag_35:\n      pop\n      gas\n      call\n      iszero\n      dup1\n      iszero\n      tag_37\n      jumpi\n      returndatasize\n      0x00\n      dup1\n      returndatacopy\n      revert(0x00, returndatasize)\n    tag_37:\n      pop\n      pop\n      pop\n      pop\n        /* \"contracts/Eip897/DelegateP.sol\":949:1041  {... */\n      pop\n        /* \"contracts/Eip897/DelegateP.sol\":903:1041  function setDelegateValue(uint _value) public {... */\n      pop\n      jump\t// out\n        /* \"#utility.yul\":427:607   */\n    tag_19:\n        /* \"#utility.yul\":486:492   */\n      0x00\n        /* \"#utility.yul\":539:541   */\n      0x20\n        /* \"#utility.yul\":527:536   */\n      dup3\n        /* \"#utility.yul\":518:525   */\n      dup5\n        /* \"#utility.yul\":514:537   */\n      sub\n        /* \"#utility.yul\":510:542   */\n      slt\n        /* \"#utility.yul\":507:559   */\n      iszero\n      tag_42\n      jumpi\n        /* \"#utility.yul\":555:556   */\n      0x00\n        /* \"#utility.yul\":552:553   */\n      dup1\n        /* \"#utility.yul\":545:557   */\n      revert\n        /* \"#utility.yul\":507:559   */\n    tag_42:\n      pop\n        /* \"#utility.yul\":578:601   */\n      calldataload\n      swap2\n        /* \"#utility.yul\":427:607   */\n      swap1\n      pop\n      jump\t// out\n        /* \"#utility.yul\":612:796   */\n    tag_32:\n        /* \"#utility.yul\":682:688   */\n      0x00\n        /* \"#utility.yul\":735:737   */\n      0x20\n        /* \"#utility.yul\":723:732   */\n      dup3\n        /* \"#utility.yul\":714:721   */\n      dup5\n        /* \"#utility.yul\":710:733   */\n      sub\n        /* \"#utility.yul\":706:738   */\n      slt\n        /* \"#utility.yul\":703:755   */\n      iszero\n      tag_44\n      jumpi\n        /* \"#utility.yul\":751:752   */\n      0x00\n        /* \"#utility.yul\":748:749   */\n      dup1\n        /* \"#utility.yul\":741:753   */\n      revert\n        /* \"#utility.yul\":703:755   */\n    tag_44:\n      pop\n        /* \"#utility.yul\":774:790   */\n      mload\n      swap2\n        /* \"#utility.yul\":612:796   */\n      swap1\n      pop\n      jump\t// out\n\n    auxdata: 0xa2646970667358221220a5dbc09a89e3df876d0e87b18f2fb45e2e106e6b399aa0be9dd68bcf3ecb54f064736f6c63430008180033\n}\n",
				"bytecode": {
					"linkReferences": {},
					"object": "608060405234801561000f575f80fd5b5060405161030538038061030583398101604081905261002e91610052565b5f80546001600160a01b0319166001600160a01b039290921691909117905561007f565b5f60208284031215610062575f80fd5b81516001600160a01b0381168114610078575f80fd5b9392505050565b6102798061008c5f395ff3fe608060405234801561000f575f80fd5b5060043610610064575f3560e01c8063ccb9ac491161004d578063ccb9ac49146100c8578063ee5d92b7146100dd578063ee839256146100e5575f80fd5b8063a0471d9b14610068578063c89e436114610084575b5f80fd5b61007160015481565b6040519081526020015b60405180910390f35b5f546100a39073ffffffffffffffffffffffffffffffffffffffff1681565b60405173ffffffffffffffffffffffffffffffffffffffff909116815260200161007b565b6100db6100d6366004610215565b600155565b005b6100716100f8565b6100db6100f3366004610215565b610191565b5f8054604080517f20965255000000000000000000000000000000000000000000000000000000008152905173ffffffffffffffffffffffffffffffffffffffff90921691829163209652559160048083019260209291908290030181865afa158015610167573d5f803e3d5ffd5b505050506040513d601f19601f8201168201806040525081019061018b919061022c565b91505090565b5f546040517f552410770000000000000000000000000000000000000000000000000000000081526004810183905273ffffffffffffffffffffffffffffffffffffffff9091169081906355241077906024015f604051808303815f87803b1580156101fb575f80fd5b505af115801561020d573d5f803e3d5ffd5b505050505050565b5f60208284031215610225575f80fd5b5035919050565b5f6020828403121561023c575f80fd5b505191905056fea2646970667358221220a5dbc09a89e3df876d0e87b18f2fb45e2e106e6b399aa0be9dd68bcf3ecb54f064736f6c63430008180033",
					"opcodes": "PUSH1 0x80 PUSH1 0x40 MSTORE CALLVALUE DUP1 ISZERO PUSH2 0xF JUMPI PUSH0 DUP1 REVERT JUMPDEST POP PUSH1 0x40 MLOAD PUSH2 0x305 CODESIZE SUB DUP1 PUSH2 0x305 DUP4 CODECOPY DUP2 ADD PUSH1 0x40 DUP2 SWAP1 MSTORE PUSH2 0x2E SWAP2 PUSH2 0x52 JUMP JUMPDEST PUSH0 DUP1 SLOAD PUSH1 0x1 PUSH1 0x1 PUSH1 0xA0 SHL SUB NOT AND PUSH1 0x1 PUSH1 0x1 PUSH1 0xA0 SHL SUB SWAP3 SWAP1 SWAP3 AND SWAP2 SWAP1 SWAP2 OR SWAP1 SSTORE PUSH2 0x7F JUMP JUMPDEST PUSH0 PUSH1 0x20 DUP3 DUP5 SUB SLT ISZERO PUSH2 0x62 JUMPI PUSH0 DUP1 REVERT JUMPDEST DUP2 MLOAD PUSH1 0x1 PUSH1 0x1 PUSH1 0xA0 SHL SUB DUP2 AND DUP2 EQ PUSH2 0x78 JUMPI PUSH0 DUP1 REVERT JUMPDEST SWAP4 SWAP3 POP POP POP JUMP JUMPDEST PUSH2 0x279 DUP1 PUSH2 0x8C PUSH0 CODECOPY PUSH0 RETURN INVALID PUSH1 0x80 PUSH1 0x40 MSTORE CALLVALUE DUP1 ISZERO PUSH2 0xF JUMPI PUSH0 DUP1 REVERT JUMPDEST POP PUSH1 0x4 CALLDATASIZE LT PUSH2 0x64 JUMPI PUSH0 CALLDATALOAD PUSH1 0xE0 SHR DUP1 PUSH4 0xCCB9AC49 GT PUSH2 0x4D JUMPI DUP1 PUSH4 0xCCB9AC49 EQ PUSH2 0xC8 JUMPI DUP1 PUSH4 0xEE5D92B7 EQ PUSH2 0xDD JUMPI DUP1 PUSH4 0xEE839256 EQ PUSH2 0xE5 JUMPI PUSH0 DUP1 REVERT JUMPDEST DUP1 PUSH4 0xA0471D9B EQ PUSH2 0x68 JUMPI DUP1 PUSH4 0xC89E4361 EQ PUSH2 0x84 JUMPI JUMPDEST PUSH0 DUP1 REVERT JUMPDEST PUSH2 0x71 PUSH1 0x1 SLOAD DUP2 JUMP JUMPDEST PUSH1 0x40 MLOAD SWAP1 DUP2 MSTORE PUSH1 0x20 ADD JUMPDEST PUSH1 0x40 MLOAD DUP1 SWAP2 SUB SWAP1 RETURN JUMPDEST PUSH0 SLOAD PUSH2 0xA3 SWAP1 PUSH20 0xFFFFFFFFFFFFFFFFFFFFFFFFFFFFFFFFFFFFFFFF AND DUP2 JUMP JUMPDEST PUSH1 0x40 MLOAD PUSH20 0xFFFFFFFFFFFFFFFFFFFFFFFFFFFFFFFFFFFFFFFF SWAP1 SWAP2 AND DUP2 MSTORE PUSH1 0x20 ADD PUSH2 0x7B JUMP JUMPDEST PUSH2 0xDB PUSH2 0xD6 CALLDATASIZE PUSH1 0x4 PUSH2 0x215 JUMP JUMPDEST PUSH1 0x1 SSTORE JUMP JUMPDEST STOP JUMPDEST PUSH2 0x71 PUSH2 0xF8 JUMP JUMPDEST PUSH2 0xDB PUSH2 0xF3 CALLDATASIZE PUSH1 0x4 PUSH2 0x215 JUMP JUMPDEST PUSH2 0x191 JUMP JUMPDEST PUSH0 DUP1 SLOAD PUSH1 0x40 DUP1 MLOAD PUSH32 0x2096525500000000000000000000000000000000000000000000000000000000 DUP2 MSTORE SWAP1 MLOAD PUSH20 0xFFFFFFFFFFFFFFFFFFFFFFFFFFFFFFFFFFFFFFFF SWAP1 SWAP3 AND SWAP2 DUP3 SWAP2 PUSH4 0x20965255 SWAP2 PUSH1 0x4 DUP1 DUP4 ADD SWAP3 PUSH1 0x20 SWAP3 SWAP2 SWAP1 DUP3 SWAP1 SUB ADD DUP2 DUP7 GAS STATICCALL ISZERO DUP1 ISZERO PUSH2 0x167 JUMPI RETURNDATASIZE PUSH0 DUP1 RETURNDATACOPY RETURNDATASIZE PUSH0 REVERT JUMPDEST POP POP POP POP PUSH1 0x40 MLOAD RETURNDATASIZE PUSH1 0x1F NOT PUSH1 0x1F DUP3 ADD AND DUP3 ADD DUP1 PUSH1 0x40 MSTORE POP DUP2 ADD SWAP1 PUSH2 0x18B SWAP2 SWAP1 PUSH2 0x22C JUMP JUMPDEST SWAP2 POP POP SWAP1 JUMP JUMPDEST PUSH0 SLOAD PUSH1 0x40 MLOAD PUSH32 0x5524107700000000000000000000000000000000000000000000000000000000 DUP2 MSTORE PUSH1 0x4 DUP2 ADD DUP4 SWAP1 MSTORE PUSH20 0xFFFFFFFFFFFFFFFFFFFFFFFFFFFFFFFFFFFFFFFF SWAP1 SWAP2 AND SWAP1 DUP2 SWAP1 PUSH4 0x55241077 SWAP1 PUSH1 0x24 ADD PUSH0 PUSH1 0x40 MLOAD DUP1 DUP4 SUB DUP2 PUSH0 DUP8 DUP1 EXTCODESIZE ISZERO DUP1 ISZERO PUSH2 0x1FB JUMPI PUSH0 DUP1 REVERT JUMPDEST POP GAS CALL ISZERO DUP1 ISZERO PUSH2 0x20D JUMPI RETURNDATASIZE PUSH0 DUP1 RETURNDATACOPY RETURNDATASIZE PUSH0 REVERT JUMPDEST POP POP POP POP POP POP JUMP JUMPDEST PUSH0 PUSH1 0x20 DUP3 DUP5 SUB SLT ISZERO PUSH2 0x225 JUMPI PUSH0 DUP1 REVERT JUMPDEST POP CALLDATALOAD SWAP2 SWAP1 POP JUMP JUMPDEST PUSH0 PUSH1 0x20 DUP3 DUP5 SUB SLT ISZERO PUSH2 0x23C JUMPI PUSH0 DUP1 REVERT JUMPDEST POP MLOAD SWAP2 SWAP1 POP JUMP INVALID LOG2 PUSH5 0x6970667358 0x22 SLT KECCAK256 0xA5 0xDB 0xC0 SWAP11 DUP10 0xE3 0xDF DUP8 PUSH14 0xE87B18F2FB45E2E106E6B399AA0 0xBE SWAP14 0xD6 DUP12 0xCF RETURNDATACOPY 0xCB SLOAD CREATE PUSH5 0x736F6C6343 STOP ADDMOD XOR STOP CALLER "
				},
				"gasEstimates": {
					"creation": {
						"codeDepositCost": "126600",
						"executionCost": "infinite",
						"totalCost": "infinite"
					},
					"external": {
						"delegate()": "2334",
						"getDelegateValue()": "infinite",
						"ownerValue()": "2284",
						"setDelegateValue(uint256)": "infinite",
						"setOwnerValue(uint256)": "22310"
					}
				},
				"methodIdentifiers": {
					"delegate()": "c89e4361",
					"getDelegateValue()": "ee5d92b7",
					"ownerValue()": "a0471d9b",
					"setDelegateValue(uint256)": "ee839256",
					"setOwnerValue(uint256)": "ccb9ac49"
				}
			},
			"storageLayout": {
				"storage": [
					{
						"astId": 39,
						"contract": "contracts/Eip897/DelegateP.sol:Owner",
						"label": "delegate",
						"offset": 0,
						"slot": "0",
						"type": "t_address"
					},
					{
						"astId": 41,
						"contract": "contracts/Eip897/DelegateP.sol:Owner",
						"label": "ownerValue",
						"offset": 0,
						"slot": "1",
						"type": "t_uint256"
					}
				],
				"types": {
					"t_address": {
						"encoding": "inplace",
						"label": "address",
						"numberOfBytes": "20"
					},
					"t_uint256": {
						"encoding": "inplace",
						"label": "uint256",
						"numberOfBytes": "32"
					}
				}
			},
			"userdoc": {
				"kind": "user",
				"methods": {},
				"version": 1
			}
		}
	}
}