{
	"Eip897/DelegateP.sol": {
		"Owner": {
			"abi": [
				{
					"inputs": [
						{
							"internalType": "address",
							"name": "_delegate",
							"type": "address"
						}
					],
					"stateMutability": "nonpayable",
					"type": "constructor"
				},
				{
					"inputs": [],
					"name": "delegate",
					"outputs": [
						{
							"internalType": "address",
							"name": "",
							"type": "address"
						}
					],
					"stateMutability": "view",
					"type": "function"
				},
				{
					"inputs": [],
					"name": "getDelegateValue",
					"outputs": [
						{
							"internalType": "uint256",
							"name": "",
							"type": "uint256"
						}
					],
					"stateMutability": "view",
					"type": "function"
				},
				{
					"inputs": [],
					"name": "ownerValue",
					"outputs": [
						{
							"internalType": "uint256",
							"name": "",
							"type": "uint256"
						}
					],
					"stateMutability": "view",
					"type": "function"
				},
				{
					"inputs": [
						{
							"internalType": "uint256",
							"name": "_value",
							"type": "uint256"
						}
					],
					"name": "setDelegateValue",
					"outputs": [],
					"stateMutability": "nonpayable",
					"type": "function"
				},
				{
					"inputs": [
						{
							"internalType": "uint256",
							"name": "_value",
							"type": "uint256"
						}
					],
					"name": "setOwnerValue",
					"outputs": [],
					"stateMutability": "nonpayable",
					"type": "function"
				}
			],
			"devdoc": {
				"kind": "dev",
				"methods": {},
				"version": 1
			},
			"evm": {
				"assembly": "    /* \"Eip897/DelegateP.sol\":510:1203  contract Owner {... */\n  mstore(0x40, 0x80)\n    /* \"Eip897/DelegateP.sol\":592:660  constructor(address _delegate) {... */\n  callvalue\n  dup1\n  iszero\n  tag_1\n  jumpi\n  0x00\n  dup1\n  revert\ntag_1:\n  pop\n  mload(0x40)\n  sub(codesize, bytecodeSize)\n  dup1\n  bytecodeSize\n  dup4\n  codecopy\n  dup2\n  add\n  0x40\n  dup2\n  swap1\n  mstore\n  tag_2\n  swap2\n  tag_3\n  jump\t// in\ntag_2:\n    /* \"Eip897/DelegateP.sol\":633:641  delegate */\n  0x00\n    /* \"Eip897/DelegateP.sol\":633:653  delegate = _delegate */\n  dup1\n  sload\n  not(sub(shl(0xa0, 0x01), 0x01))\n  and\n  sub(shl(0xa0, 0x01), 0x01)\n  swap3\n  swap1\n  swap3\n  and\n  swap2\n  swap1\n  swap2\n  or\n  swap1\n  sstore\n    /* \"Eip897/DelegateP.sol\":510:1203  contract Owner {... */\n  jump(tag_7)\n    /* \"#utility.yul\":14:324   */\ntag_3:\n  0x00\n    /* \"#utility.yul\":137:139   */\n  0x20\n    /* \"#utility.yul\":125:134   */\n  dup3\n    /* \"#utility.yul\":116:123   */\n  dup5\n    /* \"#utility.yul\":112:135   */\n  sub\n    /* \"#utility.yul\":108:140   */\n  slt\n    /* \"#utility.yul\":105:107   */\n  iszero\n  tag_9\n  jumpi\n    /* \"#utility.yul\":158:164   */\n  dup1\n    /* \"#utility.yul\":150:156   */\n  dup2\n    /* \"#utility.yul\":143:165   */\n  revert\n    /* \"#utility.yul\":105:107   */\ntag_9:\n    /* \"#utility.yul\":189:205   */\n  dup2\n  mload\n  sub(shl(0xa0, 0x01), 0x01)\n    /* \"#utility.yul\":234:265   */\n  dup2\n  and\n    /* \"#utility.yul\":224:266   */\n  dup2\n  eq\n    /* \"#utility.yul\":214:216   */\n  tag_10\n  jumpi\n    /* \"#utility.yul\":285:291   */\n  dup2\n    /* \"#utility.yul\":277:283   */\n  dup3\n    /* \"#utility.yul\":270:292   */\n  revert\n    /* \"#utility.yul\":214:216   */\ntag_10:\n    /* \"#utility.yul\":313:318   */\n  swap4\n    /* \"#utility.yul\":95:324   */\n  swap3\n  pop\n  pop\n  pop\n  jump\t// out\ntag_7:\n    /* \"Eip897/DelegateP.sol\":510:1203  contract Owner {... */\n  dataSize(sub_0)\n  dup1\n  dataOffset(sub_0)\n  0x00\n  codecopy\n  0x00\n  return\nstop\n\nsub_0: assembly {\n        /* \"Eip897/DelegateP.sol\":510:1203  contract Owner {... */\n      mstore(0x40, 0x80)\n      callvalue\n      dup1\n      iszero\n      tag_1\n      jumpi\n      0x00\n      dup1\n      revert\n    tag_1:\n      pop\n      jumpi(tag_2, lt(calldatasize, 0x04))\n      shr(0xe0, calldataload(0x00))\n      dup1\n      0xccb9ac49\n      gt\n      tag_8\n      jumpi\n      dup1\n      0xccb9ac49\n      eq\n      tag_5\n      jumpi\n      dup1\n      0xee5d92b7\n      eq\n      tag_6\n      jumpi\n      dup1\n      0xee839256\n      eq\n      tag_7\n      jumpi\n      jump(tag_2)\n    tag_8:\n      dup1\n      0xa0471d9b\n      eq\n      tag_3\n      jumpi\n      dup1\n      0xc89e4361\n      eq\n      tag_4\n      jumpi\n    tag_2:\n      0x00\n      dup1\n      revert\n        /* \"Eip897/DelegateP.sol\":560:585  uint256 public ownerValue */\n    tag_3:\n      tag_9\n      tag_10\n      jump\t// in\n    tag_9:\n      mload(0x40)\n      tag_11\n      swap2\n      swap1\n      tag_12\n      jump\t// in\n    tag_11:\n      mload(0x40)\n      dup1\n      swap2\n      sub\n      swap1\n      return\n        /* \"Eip897/DelegateP.sol\":531:554  address public delegate */\n    tag_4:\n      tag_13\n      tag_14\n      jump\t// in\n    tag_13:\n      mload(0x40)\n      tag_11\n      swap2\n      swap1\n      tag_16\n      jump\t// in\n        /* \"Eip897/DelegateP.sol\":1119:1201  function setOwnerValue(uint256 _value) public {... */\n    tag_5:\n      tag_17\n      tag_18\n      calldatasize\n      0x04\n      tag_19\n      jump\t// in\n    tag_18:\n      tag_20\n      jump\t// in\n    tag_17:\n      stop\n        /* \"Eip897/DelegateP.sol\":718:869  function getDelegateValue() public view returns (uint256) {... */\n    tag_6:\n      tag_9\n      tag_22\n      jump\t// in\n        /* \"Eip897/DelegateP.sol\":925:1066  function setDelegateValue(uint256 _value) public {... */\n    tag_7:\n      tag_17\n      tag_25\n      calldatasize\n      0x04\n      tag_19\n      jump\t// in\n    tag_25:\n      tag_26\n      jump\t// in\n        /* \"Eip897/DelegateP.sol\":560:585  uint256 public ownerValue */\n    tag_10:\n      sload(0x01)\n      dup2\n      jump\t// out\n        /* \"Eip897/DelegateP.sol\":531:554  address public delegate */\n    tag_14:\n      and(0xffffffffffffffffffffffffffffffffffffffff, sload(0x00))\n      dup2\n      jump\t// out\n        /* \"Eip897/DelegateP.sol\":1119:1201  function setOwnerValue(uint256 _value) public {... */\n    tag_20:\n        /* \"Eip897/DelegateP.sol\":1175:1185  ownerValue */\n      0x01\n        /* \"Eip897/DelegateP.sol\":1175:1194  ownerValue = _value */\n      sstore\n        /* \"Eip897/DelegateP.sol\":1119:1201  function setOwnerValue(uint256 _value) public {... */\n      jump\t// out\n        /* \"Eip897/DelegateP.sol\":718:869  function getDelegateValue() public view returns (uint256) {... */\n    tag_22:\n        /* \"Eip897/DelegateP.sol\":767:774  uint256 */\n      0x00\n        /* \"Eip897/DelegateP.sol\":816:824  delegate */\n      dup1\n      sload\n        /* \"Eip897/DelegateP.sol\":842:862  _delegate.getValue() */\n      0x40\n      dup1\n      mload\n      0x2096525500000000000000000000000000000000000000000000000000000000\n      dup2\n      mstore\n      swap1\n      mload\n        /* \"Eip897/DelegateP.sol\":816:824  delegate */\n      0xffffffffffffffffffffffffffffffffffffffff\n      swap1\n      swap3\n      and\n      swap2\n      dup3\n      swap2\n        /* \"Eip897/DelegateP.sol\":842:860  _delegate.getValue */\n      0x20965255\n      swap2\n        /* \"Eip897/DelegateP.sol\":842:862  _delegate.getValue() */\n      0x04\n      dup1\n      dup4\n      add\n      swap3\n      0x20\n      swap3\n      swap2\n      swap1\n      dup3\n      swap1\n      sub\n      add\n      dup2\n        /* \"Eip897/DelegateP.sol\":816:824  delegate */\n      dup7\n        /* \"Eip897/DelegateP.sol\":842:862  _delegate.getValue() */\n      dup1\n      extcodesize\n      iszero\n      dup1\n      iszero\n      tag_29\n      jumpi\n      0x00\n      dup1\n      revert\n    tag_29:\n      pop\n      gas\n      staticcall\n      iszero\n      dup1\n      iszero\n      tag_31\n      jumpi\n      returndatasize\n      0x00\n      dup1\n      returndatacopy\n      revert(0x00, returndatasize)\n    tag_31:\n      pop\n      pop\n      pop\n      pop\n      mload(0x40)\n      returndatasize\n      not(0x1f)\n      0x1f\n      dup3\n      add\n      and\n      dup3\n      add\n      dup1\n      0x40\n      mstore\n      pop\n      dup2\n      add\n      swap1\n      tag_32\n      swap2\n      swap1\n      tag_33\n      jump\t// in\n    tag_32:\n        /* \"Eip897/DelegateP.sol\":835:862  return _delegate.getValue() */\n      swap2\n      pop\n      pop\n        /* \"Eip897/DelegateP.sol\":718:869  function getDelegateValue() public view returns (uint256) {... */\n      swap1\n      jump\t// out\n        /* \"Eip897/DelegateP.sol\":925:1066  function setDelegateValue(uint256 _value) public {... */\n    tag_26:\n        /* \"Eip897/DelegateP.sol\":984:1002  Delegate _delegate */\n      0x00\n        /* \"Eip897/DelegateP.sol\":1014:1022  delegate */\n      sload\n        /* \"Eip897/DelegateP.sol\":1033:1059  _delegate.setValue(_value) */\n      mload(0x40)\n      0x5524107700000000000000000000000000000000000000000000000000000000\n      dup2\n      mstore\n        /* \"Eip897/DelegateP.sol\":1014:1022  delegate */\n      0xffffffffffffffffffffffffffffffffffffffff\n      swap1\n      swap2\n      and\n      swap1\n      dup2\n      swap1\n        /* \"Eip897/DelegateP.sol\":1033:1051  _delegate.setValue */\n      0x55241077\n      swap1\n        /* \"Eip897/DelegateP.sol\":1033:1059  _delegate.setValue(_value) */\n      tag_35\n      swap1\n        /* \"Eip897/DelegateP.sol\":1052:1058  _value */\n      dup6\n      swap1\n        /* \"Eip897/DelegateP.sol\":1033:1059  _delegate.setValue(_value) */\n      0x04\n      add\n      tag_12\n      jump\t// in\n    tag_35:\n      0x00\n      mload(0x40)\n      dup1\n      dup4\n      sub\n      dup2\n      0x00\n      dup8\n      dup1\n      extcodesize\n      iszero\n      dup1\n      iszero\n      tag_36\n      jumpi\n      0x00\n      dup1\n      revert\n    tag_36:\n      pop\n      gas\n      call\n      iszero\n      dup1\n      iszero\n      tag_38\n      jumpi\n      returndatasize\n      0x00\n      dup1\n      returndatacopy\n      revert(0x00, returndatasize)\n    tag_38:\n      pop\n      pop\n      pop\n      pop\n        /* \"Eip897/DelegateP.sol\":925:1066  function setDelegateValue(uint256 _value) public {... */\n      pop\n      pop\n      jump\t// out\n        /* \"#utility.yul\":14:204   */\n    tag_19:\n      0x00\n        /* \"#utility.yul\":126:128   */\n      0x20\n        /* \"#utility.yul\":114:123   */\n      dup3\n        /* \"#utility.yul\":105:112   */\n      dup5\n        /* \"#utility.yul\":101:124   */\n      sub\n        /* \"#utility.yul\":97:129   */\n      slt\n        /* \"#utility.yul\":94:96   */\n      iszero\n      tag_41\n      jumpi\n        /* \"#utility.yul\":147:153   */\n      dup1\n        /* \"#utility.yul\":139:145   */\n      dup2\n        /* \"#utility.yul\":132:154   */\n      revert\n        /* \"#utility.yul\":94:96   */\n    tag_41:\n      pop\n        /* \"#utility.yul\":175:198   */\n      calldataload\n      swap2\n        /* \"#utility.yul\":84:204   */\n      swap1\n      pop\n      jump\t// out\n        /* \"#utility.yul\":209:403   */\n    tag_33:\n      0x00\n        /* \"#utility.yul\":332:334   */\n      0x20\n        /* \"#utility.yul\":320:329   */\n      dup3\n        /* \"#utility.yul\":311:318   */\n      dup5\n        /* \"#utility.yul\":307:330   */\n      sub\n        /* \"#utility.yul\":303:335   */\n      slt\n        /* \"#utility.yul\":300:302   */\n      iszero\n      tag_43\n      jumpi\n        /* \"#utility.yul\":353:359   */\n      dup1\n        /* \"#utility.yul\":345:351   */\n      dup2\n        /* \"#utility.yul\":338:360   */\n      revert\n        /* \"#utility.yul\":300:302   */\n    tag_43:\n      pop\n        /* \"#utility.yul\":381:397   */\n      mload\n      swap2\n        /* \"#utility.yul\":290:403   */\n      swap1\n      pop\n      jump\t// out\n        /* \"#utility.yul\":408:634   */\n    tag_16:\n        /* \"#utility.yul\":584:626   */\n      0xffffffffffffffffffffffffffffffffffffffff\n        /* \"#utility.yul\":572:627   */\n      swap2\n      swap1\n      swap2\n      and\n        /* \"#utility.yul\":554:628   */\n      dup2\n      mstore\n        /* \"#utility.yul\":542:544   */\n      0x20\n        /* \"#utility.yul\":527:545   */\n      add\n      swap1\n        /* \"#utility.yul\":509:634   */\n      jump\t// out\n        /* \"#utility.yul\":639:816   */\n    tag_12:\n        /* \"#utility.yul\":785:810   */\n      swap1\n      dup2\n      mstore\n        /* \"#utility.yul\":773:775   */\n      0x20\n        /* \"#utility.yul\":758:776   */\n      add\n      swap1\n        /* \"#utility.yul\":740:816   */\n      jump\t// out\n\n    auxdata: 0xa2646970667358221220921e4671fadf61c51a5069dc143b42e381c95905d394876c7cf690014ec4cf5564736f6c63430008010033\n}\n",
				"bytecode": {
					"linkReferences": {},
					"object": "608060405234801561001057600080fd5b5060405161035038038061035083398101604081905261002f91610054565b600080546001600160a01b0319166001600160a01b0392909216919091179055610082565b600060208284031215610065578081fd5b81516001600160a01b038116811461007b578182fd5b9392505050565b6102bf806100916000396000f3fe608060405234801561001057600080fd5b50600436106100675760003560e01c8063ccb9ac4911610050578063ccb9ac491461009f578063ee5d92b7146100b4578063ee839256146100bc57610067565b8063a0471d9b1461006c578063c89e43611461008a575b600080fd5b6100746100cf565b6040516100819190610280565b60405180910390f35b6100926100d5565b604051610081919061025f565b6100b26100ad36600461022f565b6100f1565b005b6100746100f6565b6100b26100ca36600461022f565b6101a1565b60015481565b60005473ffffffffffffffffffffffffffffffffffffffff1681565b600155565b60008054604080517f20965255000000000000000000000000000000000000000000000000000000008152905173ffffffffffffffffffffffffffffffffffffffff9092169182916320965255916004808301926020929190829003018186803b15801561016357600080fd5b505afa158015610177573d6000803e3d6000fd5b505050506040513d601f19601f8201168201806040525081019061019b9190610247565b91505090565b6000546040517f5524107700000000000000000000000000000000000000000000000000000000815273ffffffffffffffffffffffffffffffffffffffff9091169081906355241077906101f9908590600401610280565b600060405180830381600087803b15801561021357600080fd5b505af1158015610227573d6000803e3d6000fd5b505050505050565b600060208284031215610240578081fd5b5035919050565b600060208284031215610258578081fd5b5051919050565b73ffffffffffffffffffffffffffffffffffffffff91909116815260200190565b9081526020019056fea2646970667358221220921e4671fadf61c51a5069dc143b42e381c95905d394876c7cf690014ec4cf5564736f6c63430008010033",
					"opcodes": "PUSH1 0x80 PUSH1 0x40 MSTORE CALLVALUE DUP1 ISZERO PUSH2 0x10 JUMPI PUSH1 0x0 DUP1 REVERT JUMPDEST POP PUSH1 0x40 MLOAD PUSH2 0x350 CODESIZE SUB DUP1 PUSH2 0x350 DUP4 CODECOPY DUP2 ADD PUSH1 0x40 DUP2 SWAP1 MSTORE PUSH2 0x2F SWAP2 PUSH2 0x54 JUMP JUMPDEST PUSH1 0x0 DUP1 SLOAD PUSH1 0x1 PUSH1 0x1 PUSH1 0xA0 SHL SUB NOT AND PUSH1 0x1 PUSH1 0x1 PUSH1 0xA0 SHL SUB SWAP3 SWAP1 SWAP3 AND SWAP2 SWAP1 SWAP2 OR SWAP1 SSTORE PUSH2 0x82 JUMP JUMPDEST PUSH1 0x0 PUSH1 0x20 DUP3 DUP5 SUB SLT ISZERO PUSH2 0x65 JUMPI DUP1 DUP2 REVERT JUMPDEST DUP2 MLOAD PUSH1 0x1 PUSH1 0x1 PUSH1 0xA0 SHL SUB DUP2 AND DUP2 EQ PUSH2 0x7B JUMPI DUP2 DUP3 REVERT JUMPDEST SWAP4 SWAP3 POP POP POP JUMP JUMPDEST PUSH2 0x2BF DUP1 PUSH2 0x91 PUSH1 0x0 CODECOPY PUSH1 0x0 RETURN INVALID PUSH1 0x80 PUSH1 0x40 MSTORE CALLVALUE DUP1 ISZERO PUSH2 0x10 JUMPI PUSH1 0x0 DUP1 REVERT JUMPDEST POP PUSH1 0x4 CALLDATASIZE LT PUSH2 0x67 JUMPI PUSH1 0x0 CALLDATALOAD PUSH1 0xE0 SHR DUP1 PUSH4 0xCCB9AC49 GT PUSH2 0x50 JUMPI DUP1 PUSH4 0xCCB9AC49 EQ PUSH2 0x9F JUMPI DUP1 PUSH4 0xEE5D92B7 EQ PUSH2 0xB4 JUMPI DUP1 PUSH4 0xEE839256 EQ PUSH2 0xBC JUMPI PUSH2 0x67 JUMP JUMPDEST DUP1 PUSH4 0xA0471D9B EQ PUSH2 0x6C JUMPI DUP1 PUSH4 0xC89E4361 EQ PUSH2 0x8A JUMPI JUMPDEST PUSH1 0x0 DUP1 REVERT JUMPDEST PUSH2 0x74 PUSH2 0xCF JUMP JUMPDEST PUSH1 0x40 MLOAD PUSH2 0x81 SWAP2 SWAP1 PUSH2 0x280 JUMP JUMPDEST PUSH1 0x40 MLOAD DUP1 SWAP2 SUB SWAP1 RETURN JUMPDEST PUSH2 0x92 PUSH2 0xD5 JUMP JUMPDEST PUSH1 0x40 MLOAD PUSH2 0x81 SWAP2 SWAP1 PUSH2 0x25F JUMP JUMPDEST PUSH2 0xB2 PUSH2 0xAD CALLDATASIZE PUSH1 0x4 PUSH2 0x22F JUMP JUMPDEST PUSH2 0xF1 JUMP JUMPDEST STOP JUMPDEST PUSH2 0x74 PUSH2 0xF6 JUMP JUMPDEST PUSH2 0xB2 PUSH2 0xCA CALLDATASIZE PUSH1 0x4 PUSH2 0x22F JUMP JUMPDEST PUSH2 0x1A1 JUMP JUMPDEST PUSH1 0x1 SLOAD DUP2 JUMP JUMPDEST PUSH1 0x0 SLOAD PUSH20 0xFFFFFFFFFFFFFFFFFFFFFFFFFFFFFFFFFFFFFFFF AND DUP2 JUMP JUMPDEST PUSH1 0x1 SSTORE JUMP JUMPDEST PUSH1 0x0 DUP1 SLOAD PUSH1 0x40 DUP1 MLOAD PUSH32 0x2096525500000000000000000000000000000000000000000000000000000000 DUP2 MSTORE SWAP1 MLOAD PUSH20 0xFFFFFFFFFFFFFFFFFFFFFFFFFFFFFFFFFFFFFFFF SWAP1 SWAP3 AND SWAP2 DUP3 SWAP2 PUSH4 0x20965255 SWAP2 PUSH1 0x4 DUP1 DUP4 ADD SWAP3 PUSH1 0x20 SWAP3 SWAP2 SWAP1 DUP3 SWAP1 SUB ADD DUP2 DUP7 DUP1 EXTCODESIZE ISZERO DUP1 ISZERO PUSH2 0x163 JUMPI PUSH1 0x0 DUP1 REVERT JUMPDEST POP GAS STATICCALL ISZERO DUP1 ISZERO PUSH2 0x177 JUMPI RETURNDATASIZE PUSH1 0x0 DUP1 RETURNDATACOPY RETURNDATASIZE PUSH1 0x0 REVERT JUMPDEST POP POP POP POP PUSH1 0x40 MLOAD RETURNDATASIZE PUSH1 0x1F NOT PUSH1 0x1F DUP3 ADD AND DUP3 ADD DUP1 PUSH1 0x40 MSTORE POP DUP2 ADD SWAP1 PUSH2 0x19B SWAP2 SWAP1 PUSH2 0x247 JUMP JUMPDEST SWAP2 POP POP SWAP1 JUMP JUMPDEST PUSH1 0x0 SLOAD PUSH1 0x40 MLOAD PUSH32 0x5524107700000000000000000000000000000000000000000000000000000000 DUP2 MSTORE PUSH20 0xFFFFFFFFFFFFFFFFFFFFFFFFFFFFFFFFFFFFFFFF SWAP1 SWAP2 AND SWAP1 DUP2 SWAP1 PUSH4 0x55241077 SWAP1 PUSH2 0x1F9 SWAP1 DUP6 SWAP1 PUSH1 0x4 ADD PUSH2 0x280 JUMP JUMPDEST PUSH1 0x0 PUSH1 0x40 MLOAD DUP1 DUP4 SUB DUP2 PUSH1 0x0 DUP8 DUP1 EXTCODESIZE ISZERO DUP1 ISZERO PUSH2 0x213 JUMPI PUSH1 0x0 DUP1 REVERT JUMPDEST POP GAS CALL ISZERO DUP1 ISZERO PUSH2 0x227 JUMPI RETURNDATASIZE PUSH1 0x0 DUP1 RETURNDATACOPY RETURNDATASIZE PUSH1 0x0 REVERT JUMPDEST POP POP POP POP POP POP JUMP JUMPDEST PUSH1 0x0 PUSH1 0x20 DUP3 DUP5 SUB SLT ISZERO PUSH2 0x240 JUMPI DUP1 DUP2 REVERT JUMPDEST POP CALLDATALOAD SWAP2 SWAP1 POP JUMP JUMPDEST PUSH1 0x0 PUSH1 0x20 DUP3 DUP5 SUB SLT ISZERO PUSH2 0x258 JUMPI DUP1 DUP2 REVERT JUMPDEST POP MLOAD SWAP2 SWAP1 POP JUMP JUMPDEST PUSH20 0xFFFFFFFFFFFFFFFFFFFFFFFFFFFFFFFFFFFFFFFF SWAP2 SWAP1 SWAP2 AND DUP2 MSTORE PUSH1 0x20 ADD SWAP1 JUMP JUMPDEST SWAP1 DUP2 MSTORE PUSH1 0x20 ADD SWAP1 JUMP INVALID LOG2 PUSH5 0x6970667358 0x22 SLT KECCAK256 SWAP3 0x1E CHAINID PUSH18 0xFADF61C51A5069DC143B42E381C95905D394 DUP8 PUSH13 0x7CF690014EC4CF5564736F6C63 NUMBER STOP ADDMOD ADD STOP CALLER "
				},
				"gasEstimates": {
					"creation": {
						"codeDepositCost": "140600",
						"executionCost": "infinite",
						"totalCost": "infinite"
					},
					"external": {
						"delegate()": "1069",
						"getDelegateValue()": "infinite",
						"ownerValue()": "1029",
						"setDelegateValue(uint256)": "infinite",
						"setOwnerValue(uint256)": "20224"
					}
				},
				"methodIdentifiers": {
					"delegate()": "c89e4361",
					"getDelegateValue()": "ee5d92b7",
					"ownerValue()": "a0471d9b",
					"setDelegateValue(uint256)": "ee839256",
					"setOwnerValue(uint256)": "ccb9ac49"
				}
			},
			"storageLayout": {
				"storage": [
					{
						"astId": 39,
						"contract": "Eip897/DelegateP.sol:Owner",
						"label": "delegate",
						"offset": 0,
						"slot": "0",
						"type": "t_address"
					},
					{
						"astId": 41,
						"contract": "Eip897/DelegateP.sol:Owner",
						"label": "ownerValue",
						"offset": 0,
						"slot": "1",
						"type": "t_uint256"
					}
				],
				"types": {
					"t_address": {
						"encoding": "inplace",
						"label": "address",
						"numberOfBytes": "20"
					},
					"t_uint256": {
						"encoding": "inplace",
						"label": "uint256",
						"numberOfBytes": "32"
					}
				}
			},
			"userdoc": {
				"kind": "user",
				"methods": {},
				"version": 1
			}
		}
	}
}