{
	"Eip897/DelegateP.sol": {
		"MyDelegate": {
			"abi": [
				{
					"inputs": [],
					"name": "getValue",
					"outputs": [
						{
							"internalType": "uint256",
							"name": "",
							"type": "uint256"
						}
					],
					"stateMutability": "view",
					"type": "function"
				},
				{
					"inputs": [
						{
							"internalType": "uint256",
							"name": "_value",
							"type": "uint256"
						}
					],
					"name": "setValue",
					"outputs": [],
					"stateMutability": "nonpayable",
					"type": "function"
				}
			],
			"devdoc": {
				"kind": "dev",
				"methods": {},
				"version": 1
			},
			"evm": {
				"assembly": "    /* \"Eip897/DelegateP.sol\":243:490  contract MyDelegate is Delegate {... */\n  mstore(0x40, 0x80)\n  callvalue\n  dup1\n  iszero\n  tag_1\n  jumpi\n  0x00\n  dup1\n  revert\ntag_1:\n  pop\n  dataSize(sub_0)\n  dup1\n  dataOffset(sub_0)\n  0x00\n  codecopy\n  0x00\n  return\nstop\n\nsub_0: assembly {\n        /* \"Eip897/DelegateP.sol\":243:490  contract MyDelegate is Delegate {... */\n      mstore(0x40, 0x80)\n      callvalue\n      dup1\n      iszero\n      tag_1\n      jumpi\n      0x00\n      dup1\n      revert\n    tag_1:\n      pop\n      jumpi(tag_2, lt(calldatasize, 0x04))\n      shr(0xe0, calldataload(0x00))\n      dup1\n      0x20965255\n      eq\n      tag_3\n      jumpi\n      dup1\n      0x55241077\n      eq\n      tag_4\n      jumpi\n    tag_2:\n      0x00\n      dup1\n      revert\n        /* \"Eip897/DelegateP.sol\":309:399  function getValue() external view override returns (uint256) {... */\n    tag_3:\n      tag_5\n      tag_6\n      jump\t// in\n    tag_5:\n      mload(0x40)\n      tag_7\n      swap2\n      swap1\n      tag_8\n      jump\t// in\n    tag_7:\n      mload(0x40)\n      dup1\n      swap2\n      sub\n      swap1\n      return\n        /* \"Eip897/DelegateP.sol\":405:488  function setValue(uint256 _value) external override {... */\n    tag_4:\n      tag_9\n      tag_10\n      calldatasize\n      0x04\n      tag_11\n      jump\t// in\n    tag_10:\n      tag_12\n      jump\t// in\n    tag_9:\n      stop\n        /* \"Eip897/DelegateP.sol\":309:399  function getValue() external view override returns (uint256) {... */\n    tag_6:\n        /* \"Eip897/DelegateP.sol\":361:368  uint256 */\n      0x00\n        /* \"Eip897/DelegateP.sol\":387:392  value */\n      sload\n        /* \"Eip897/DelegateP.sol\":309:399  function getValue() external view override returns (uint256) {... */\n      swap1\n      jump\t// out\n        /* \"Eip897/DelegateP.sol\":405:488  function setValue(uint256 _value) external override {... */\n    tag_12:\n        /* \"Eip897/DelegateP.sol\":467:472  value */\n      0x00\n        /* \"Eip897/DelegateP.sol\":467:481  value = _value */\n      sstore\n        /* \"Eip897/DelegateP.sol\":405:488  function setValue(uint256 _value) external override {... */\n      jump\t// out\n        /* \"#utility.yul\":14:204   */\n    tag_11:\n      0x00\n        /* \"#utility.yul\":126:128   */\n      0x20\n        /* \"#utility.yul\":114:123   */\n      dup3\n        /* \"#utility.yul\":105:112   */\n      dup5\n        /* \"#utility.yul\":101:124   */\n      sub\n        /* \"#utility.yul\":97:129   */\n      slt\n        /* \"#utility.yul\":94:96   */\n      iszero\n      tag_17\n      jumpi\n        /* \"#utility.yul\":147:153   */\n      dup1\n        /* \"#utility.yul\":139:145   */\n      dup2\n        /* \"#utility.yul\":132:154   */\n      revert\n        /* \"#utility.yul\":94:96   */\n    tag_17:\n      pop\n        /* \"#utility.yul\":175:198   */\n      calldataload\n      swap2\n        /* \"#utility.yul\":84:204   */\n      swap1\n      pop\n      jump\t// out\n        /* \"#utility.yul\":209:386   */\n    tag_8:\n        /* \"#utility.yul\":355:380   */\n      swap1\n      dup2\n      mstore\n        /* \"#utility.yul\":343:345   */\n      0x20\n        /* \"#utility.yul\":328:346   */\n      add\n      swap1\n        /* \"#utility.yul\":310:386   */\n      jump\t// out\n\n    auxdata: 0xa264697066735822122017aae21b0ff61da0df667333627049b94e1b84b81502c24ba6e8d5edf604340c64736f6c63430008010033\n}\n",
				"bytecode": {
					"linkReferences": {},
					"object": "608060405234801561001057600080fd5b5060c38061001f6000396000f3fe6080604052348015600f57600080fd5b506004361060325760003560e01c80632096525514603757806355241077146051575b600080fd5b603d6062565b604051604891906084565b60405180910390f35b6060605c366004606d565b6068565b005b60005490565b600055565b600060208284031215607d578081fd5b5035919050565b9081526020019056fea264697066735822122017aae21b0ff61da0df667333627049b94e1b84b81502c24ba6e8d5edf604340c64736f6c63430008010033",
					"opcodes": "PUSH1 0x80 PUSH1 0x40 MSTORE CALLVALUE DUP1 ISZERO PUSH2 0x10 JUMPI PUSH1 0x0 DUP1 REVERT JUMPDEST POP PUSH1 0xC3 DUP1 PUSH2 0x1F PUSH1 0x0 CODECOPY PUSH1 0x0 RETURN INVALID PUSH1 0x80 PUSH1 0x40 MSTORE CALLVALUE DUP1 ISZERO PUSH1 0xF JUMPI PUSH1 0x0 DUP1 REVERT JUMPDEST POP PUSH1 0x4 CALLDATASIZE LT PUSH1 0x32 JUMPI PUSH1 0x0 CALLDATALOAD PUSH1 0xE0 SHR DUP1 PUSH4 0x20965255 EQ PUSH1 0x37 JUMPI DUP1 PUSH4 0x55241077 EQ PUSH1 0x51 JUMPI JUMPDEST PUSH1 0x0 DUP1 REVERT JUMPDEST PUSH1 0x3D PUSH1 0x62 JUMP JUMPDEST PUSH1 0x40 MLOAD PUSH1 0x48 SWAP2 SWAP1 PUSH1 0x84 JUMP JUMPDEST PUSH1 0x40 MLOAD DUP1 SWAP2 SUB SWAP1 RETURN JUMPDEST PUSH1 0x60 PUSH1 0x5C CALLDATASIZE PUSH1 0x4 PUSH1 0x6D JUMP JUMPDEST PUSH1 0x68 JUMP JUMPDEST STOP JUMPDEST PUSH1 0x0 SLOAD SWAP1 JUMP JUMPDEST PUSH1 0x0 SSTORE JUMP JUMPDEST PUSH1 0x0 PUSH1 0x20 DUP3 DUP5 SUB SLT ISZERO PUSH1 0x7D JUMPI DUP1 DUP2 REVERT JUMPDEST POP CALLDATALOAD SWAP2 SWAP1 POP JUMP JUMPDEST SWAP1 DUP2 MSTORE PUSH1 0x20 ADD SWAP1 JUMP INVALID LOG2 PUSH5 0x6970667358 0x22 SLT KECCAK256 OR 0xAA 0xE2 SHL 0xF 0xF6 SAR LOG0 0xDF PUSH7 0x7333627049B94E SHL DUP5 0xB8 ISZERO MUL 0xC2 0x4B 0xA6 0xE8 0xD5 0xED 0xF6 DIV CALLVALUE 0xC PUSH5 0x736F6C6343 STOP ADDMOD ADD STOP CALLER "
				},
				"gasEstimates": {
					"creation": {
						"codeDepositCost": "39000",
						"executionCost": "93",
						"totalCost": "39093"
					},
					"external": {
						"getValue()": "1006",
						"setValue(uint256)": "20224"
					}
				},
				"methodIdentifiers": {
					"getValue()": "20965255",
					"setValue(uint256)": "55241077"
				}
			},
			"storageLayout": {
				"storage": [
					{
						"astId": 16,
						"contract": "Eip897/DelegateP.sol:MyDelegate",
						"label": "value",
						"offset": 0,
						"slot": "0",
						"type": "t_uint256"
					}
				],
				"types": {
					"t_uint256": {
						"encoding": "inplace",
						"label": "uint256",
						"numberOfBytes": "32"
					}
				}
			},
			"userdoc": {
				"kind": "user",
				"methods": {},
				"version": 1
			}
		}
	}
}