{
	"Eip897/Delegate.sol": {
		"ProxyNoMoreClash": {
			"abi": [
				{
					"inputs": [
						{
							"internalType": "address",
							"name": "_otherContract",
							"type": "address"
						}
					],
					"stateMutability": "nonpayable",
					"type": "constructor"
				},
				{
					"stateMutability": "payable",
					"type": "fallback"
				},
				{
					"inputs": [],
					"name": "otherContractAddress",
					"outputs": [
						{
							"internalType": "address",
							"name": "",
							"type": "address"
						}
					],
					"stateMutability": "view",
					"type": "function"
				},
				{
					"inputs": [
						{
							"internalType": "address",
							"name": "_otherContract",
							"type": "address"
						}
					],
					"name": "setOtherAddress",
					"outputs": [],
					"stateMutability": "nonpayable",
					"type": "function"
				},
				{
					"stateMutability": "payable",
					"type": "receive"
				}
			],
			"devdoc": {
				"kind": "dev",
				"methods": {},
				"version": 1
			},
			"evm": {
				"assembly": "    /* \"Eip897/Delegate.sol\":3884:4760  contract ProxyNoMoreClash is ProxyStorage {... */\n  mstore(0x40, 0x80)\n    /* \"Eip897/Delegate.sol\":3933:4017  constructor(address _otherContract) {... */\n  callvalue\n  dup1\n  iszero\n  tag_1\n  jumpi\n  0x00\n  dup1\n  revert\ntag_1:\n  pop\n  mload(0x40)\n  sub(codesize, bytecodeSize)\n  dup1\n  bytecodeSize\n  dup4\n  codecopy\n  dup2\n  add\n  0x40\n  dup2\n  swap1\n  mstore\n  tag_2\n  swap2\n  tag_3\n  jump\t// in\ntag_2:\n    /* \"Eip897/Delegate.sol\":3979:4010  setOtherAddress(_otherContract) */\n  tag_6\n    /* \"Eip897/Delegate.sol\":3995:4009  _otherContract */\n  dup2\n    /* \"Eip897/Delegate.sol\":3979:3994  setOtherAddress */\n  tag_7\n    /* \"Eip897/Delegate.sol\":3979:4010  setOtherAddress(_otherContract) */\n  jump\t// in\ntag_6:\n    /* \"Eip897/Delegate.sol\":3933:4017  constructor(address _otherContract) {... */\n  pop\n    /* \"Eip897/Delegate.sol\":3884:4760  contract ProxyNoMoreClash is ProxyStorage {... */\n  jump(tag_13)\n    /* \"Eip897/Delegate.sol\":4023:4140  function setOtherAddress(address _otherContract) public {... */\ntag_7:\n    /* \"Eip897/Delegate.sol\":4089:4133  super.setOtherAddressStorage(_otherContract) */\n  tag_10\n    /* \"Eip897/Delegate.sol\":4118:4132  _otherContract */\n  dup2\n    /* \"Eip897/Delegate.sol\":4089:4117  super.setOtherAddressStorage */\n  or(tag_0_21, shl(0x20, tag_11))\n    /* \"Eip897/Delegate.sol\":4089:4133  super.setOtherAddressStorage(_otherContract) */\n  0x20\n  shr\n  jump\t// in\ntag_10:\n    /* \"Eip897/Delegate.sol\":4023:4140  function setOtherAddress(address _otherContract) public {... */\n  pop\n  jump\t// out\n    /* \"Eip897/Delegate.sol\":723:842  function setOtherAddressStorage(address _otherContract) internal {... */\ntag_11:\n    /* \"Eip897/Delegate.sol\":798:818  otherContractAddress */\n  0x00\n    /* \"Eip897/Delegate.sol\":798:835  otherContractAddress = _otherContract */\n  dup1\n  sload\n  not(sub(shl(0xa0, 0x01), 0x01))\n  and\n  sub(shl(0xa0, 0x01), 0x01)\n  swap3\n  swap1\n  swap3\n  and\n  swap2\n  swap1\n  swap2\n  or\n  swap1\n  sstore\n    /* \"Eip897/Delegate.sol\":723:842  function setOtherAddressStorage(address _otherContract) internal {... */\n  jump\t// out\n    /* \"#utility.yul\":14:324   */\ntag_3:\n  0x00\n    /* \"#utility.yul\":137:139   */\n  0x20\n    /* \"#utility.yul\":125:134   */\n  dup3\n    /* \"#utility.yul\":116:123   */\n  dup5\n    /* \"#utility.yul\":112:135   */\n  sub\n    /* \"#utility.yul\":108:140   */\n  slt\n    /* \"#utility.yul\":105:107   */\n  iszero\n  tag_15\n  jumpi\n    /* \"#utility.yul\":158:164   */\n  dup1\n    /* \"#utility.yul\":150:156   */\n  dup2\n    /* \"#utility.yul\":143:165   */\n  revert\n    /* \"#utility.yul\":105:107   */\ntag_15:\n    /* \"#utility.yul\":189:205   */\n  dup2\n  mload\n  sub(shl(0xa0, 0x01), 0x01)\n    /* \"#utility.yul\":234:265   */\n  dup2\n  and\n    /* \"#utility.yul\":224:266   */\n  dup2\n  eq\n    /* \"#utility.yul\":214:216   */\n  tag_16\n  jumpi\n    /* \"#utility.yul\":285:291   */\n  dup2\n    /* \"#utility.yul\":277:283   */\n  dup3\n    /* \"#utility.yul\":270:292   */\n  revert\n    /* \"#utility.yul\":214:216   */\ntag_16:\n    /* \"#utility.yul\":313:318   */\n  swap4\n    /* \"#utility.yul\":95:324   */\n  swap3\n  pop\n  pop\n  pop\n  jump\t// out\ntag_13:\n    /* \"Eip897/Delegate.sol\":3884:4760  contract ProxyNoMoreClash is ProxyStorage {... */\n  dataSize(sub_0)\n  dup1\n  dataOffset(sub_0)\n  0x00\n  codecopy\n  0x00\n  return\nstop\n\nsub_0: assembly {\n        /* \"Eip897/Delegate.sol\":3884:4760  contract ProxyNoMoreClash is ProxyStorage {... */\n      mstore(0x40, 0x80)\n      jumpi(tag_1, lt(calldatasize, 0x04))\n      shr(0xe0, calldataload(0x00))\n      dup1\n      0xc0a15e99\n      eq\n      tag_3\n      jumpi\n      dup1\n      0xf4d36986\n      eq\n      tag_4\n      jumpi\n      jump(tag_2)\n    tag_1:\n      jumpi(tag_2, calldatasize)\n      stop\n    tag_2:\n        /* \"Eip897/Delegate.sol\":4354:4367  address _impl */\n      0x00\n        /* \"Eip897/Delegate.sol\":4370:4390  otherContractAddress */\n      dup1\n      sload\n        /* \"Eip897/Delegate.sol\":4431:4435  0x40 */\n      0x40\n        /* \"Eip897/Delegate.sol\":4425:4436  mload(0x40) */\n      mload\n      sub(shl(0xa0, 0x01), 0x01)\n        /* \"Eip897/Delegate.sol\":4370:4390  otherContractAddress */\n      swap1\n      swap2\n      and\n      swap2\n        /* \"Eip897/Delegate.sol\":4464:4478  calldatasize() */\n      calldatasize\n      swap1\n        /* \"Eip897/Delegate.sol\":4425:4436  mload(0x40) */\n      dup3\n        /* \"Eip897/Delegate.sol\":4443:4479  calldatacopy(ptr, 0, calldatasize()) */\n      calldatacopy\n        /* \"Eip897/Delegate.sol\":4551:4552  0 */\n      0x00\n        /* \"Eip897/Delegate.sol\":4548:4549  0 */\n      dup1\n        /* \"Eip897/Delegate.sol\":4532:4546  calldatasize() */\n      calldatasize\n        /* \"Eip897/Delegate.sol\":4527:4530  ptr */\n      dup4\n        /* \"Eip897/Delegate.sol\":4520:4525  _impl */\n      dup6\n        /* \"Eip897/Delegate.sol\":4513:4518  gas() */\n      gas\n        /* \"Eip897/Delegate.sol\":4500:4553  delegatecall(gas(), _impl, ptr, calldatasize(), 0, 0) */\n      delegatecall\n        /* \"Eip897/Delegate.sol\":4572:4588  returndatasize() */\n      returndatasize\n        /* \"Eip897/Delegate.sol\":4618:4622  size */\n      dup1\n        /* \"Eip897/Delegate.sol\":4615:4616  0 */\n      0x00\n        /* \"Eip897/Delegate.sol\":4610:4613  ptr */\n      dup5\n        /* \"Eip897/Delegate.sol\":4595:4623  returndatacopy(ptr, 0, size) */\n      returndatacopy\n        /* \"Eip897/Delegate.sol\":4638:4644  result */\n      dup2\n        /* \"Eip897/Delegate.sol\":4651:4679  case 0 { revert(ptr, size) } */\n      dup1\n      iszero\n      tag_10\n      jumpi\n        /* \"Eip897/Delegate.sol\":4708:4712  size */\n      dup2\n        /* \"Eip897/Delegate.sol\":4703:4706  ptr */\n      dup5\n        /* \"Eip897/Delegate.sol\":4696:4713  return(ptr, size) */\n      return\n        /* \"Eip897/Delegate.sol\":4651:4679  case 0 { revert(ptr, size) } */\n    tag_10:\n        /* \"Eip897/Delegate.sol\":4672:4676  size */\n      dup2\n        /* \"Eip897/Delegate.sol\":4667:4670  ptr */\n      dup5\n        /* \"Eip897/Delegate.sol\":4660:4677  revert(ptr, size) */\n      revert\n        /* \"Eip897/Delegate.sol\":681:716  address public otherContractAddress */\n    tag_3:\n      callvalue\n      dup1\n      iszero\n      tag_11\n      jumpi\n      0x00\n      dup1\n      revert\n    tag_11:\n      pop\n      tag_12\n      tag_13\n      jump\t// in\n    tag_12:\n      mload(0x40)\n      tag_14\n      swap2\n      swap1\n      tag_15\n      jump\t// in\n    tag_14:\n      mload(0x40)\n      dup1\n      swap2\n      sub\n      swap1\n      return\n        /* \"Eip897/Delegate.sol\":4023:4140  function setOtherAddress(address _otherContract) public {... */\n    tag_4:\n      callvalue\n      dup1\n      iszero\n      tag_16\n      jumpi\n      0x00\n      dup1\n      revert\n    tag_16:\n      pop\n      tag_17\n      tag_18\n      calldatasize\n      0x04\n      tag_19\n      jump\t// in\n    tag_18:\n      tag_20\n      jump\t// in\n    tag_17:\n      stop\n        /* \"Eip897/Delegate.sol\":681:716  address public otherContractAddress */\n    tag_13:\n      and(sub(shl(0xa0, 0x01), 0x01), sload(0x00))\n      dup2\n      jump\t// out\n        /* \"Eip897/Delegate.sol\":4023:4140  function setOtherAddress(address _otherContract) public {... */\n    tag_20:\n        /* \"Eip897/Delegate.sol\":4089:4133  super.setOtherAddressStorage(_otherContract) */\n      tag_23\n        /* \"Eip897/Delegate.sol\":4118:4132  _otherContract */\n      dup2\n        /* \"Eip897/Delegate.sol\":4089:4117  super.setOtherAddressStorage */\n      tag_21\n        /* \"Eip897/Delegate.sol\":4089:4133  super.setOtherAddressStorage(_otherContract) */\n      jump\t// in\n    tag_23:\n        /* \"Eip897/Delegate.sol\":4023:4140  function setOtherAddress(address _otherContract) public {... */\n      pop\n      jump\t// out\n        /* \"Eip897/Delegate.sol\":723:842  function setOtherAddressStorage(address _otherContract) internal {... */\n    tag_21:\n        /* \"Eip897/Delegate.sol\":798:818  otherContractAddress */\n      0x00\n        /* \"Eip897/Delegate.sol\":798:835  otherContractAddress = _otherContract */\n      dup1\n      sload\n      0xffffffffffffffffffffffff0000000000000000000000000000000000000000\n      and\n      sub(shl(0xa0, 0x01), 0x01)\n      swap3\n      swap1\n      swap3\n      and\n      swap2\n      swap1\n      swap2\n      or\n      swap1\n      sstore\n        /* \"Eip897/Delegate.sol\":723:842  function setOtherAddressStorage(address _otherContract) internal {... */\n      jump\t// out\n        /* \"#utility.yul\":14:343   */\n    tag_19:\n      0x00\n        /* \"#utility.yul\":126:128   */\n      0x20\n        /* \"#utility.yul\":114:123   */\n      dup3\n        /* \"#utility.yul\":105:112   */\n      dup5\n        /* \"#utility.yul\":101:124   */\n      sub\n        /* \"#utility.yul\":97:129   */\n      slt\n        /* \"#utility.yul\":94:96   */\n      iszero\n      tag_27\n      jumpi\n        /* \"#utility.yul\":147:153   */\n      dup1\n        /* \"#utility.yul\":139:145   */\n      dup2\n        /* \"#utility.yul\":132:154   */\n      revert\n        /* \"#utility.yul\":94:96   */\n    tag_27:\n        /* \"#utility.yul\":191:200   */\n      dup2\n        /* \"#utility.yul\":178:201   */\n      calldataload\n      sub(shl(0xa0, 0x01), 0x01)\n        /* \"#utility.yul\":234:239   */\n      dup2\n        /* \"#utility.yul\":230:284   */\n      and\n        /* \"#utility.yul\":223:228   */\n      dup2\n        /* \"#utility.yul\":220:285   */\n      eq\n        /* \"#utility.yul\":210:212   */\n      tag_28\n      jumpi\n        /* \"#utility.yul\":304:310   */\n      dup2\n        /* \"#utility.yul\":296:302   */\n      dup3\n        /* \"#utility.yul\":289:311   */\n      revert\n        /* \"#utility.yul\":210:212   */\n    tag_28:\n        /* \"#utility.yul\":332:337   */\n      swap4\n        /* \"#utility.yul\":84:343   */\n      swap3\n      pop\n      pop\n      pop\n      jump\t// out\n        /* \"#utility.yul\":348:574   */\n    tag_15:\n      sub(shl(0xa0, 0x01), 0x01)\n        /* \"#utility.yul\":512:567   */\n      swap2\n      swap1\n      swap2\n      and\n        /* \"#utility.yul\":494:568   */\n      dup2\n      mstore\n        /* \"#utility.yul\":482:484   */\n      0x20\n        /* \"#utility.yul\":467:485   */\n      add\n      swap1\n        /* \"#utility.yul\":449:574   */\n      jump\t// out\n\n    auxdata: 0xa26469706673582212200168f09a6c1897df6107f6a6d189b10646c27be4ad82345b08fb5cadb176c52364736f6c63430008010033\n}\n",
				"bytecode": {
					"linkReferences": {},
					"object": "608060405234801561001057600080fd5b5060405161023538038061023583398101604081905261002f91610076565b6100388161003e565b506100a4565b6100518161005460201b6100d01760201c565b50565b600080546001600160a01b0319166001600160a01b0392909216919091179055565b600060208284031215610087578081fd5b81516001600160a01b038116811461009d578182fd5b9392505050565b610182806100b36000396000f3fe60806040526004361061002d5760003560e01c8063c0a15e9914610068578063f4d369861461009357610034565b3661003457005b600080546040516001600160a01b0390911691369082376000803683855af43d806000843e818015610064578184f35b8184fd5b34801561007457600080fd5b5061007d6100b5565b60405161008a9190610138565b60405180910390f35b34801561009f57600080fd5b506100b36100ae36600461010a565b6100c4565b005b6000546001600160a01b031681565b6100cd816100d0565b50565b600080547fffffffffffffffffffffffff0000000000000000000000000000000000000000166001600160a01b0392909216919091179055565b60006020828403121561011b578081fd5b81356001600160a01b0381168114610131578182fd5b9392505050565b6001600160a01b039190911681526020019056fea26469706673582212200168f09a6c1897df6107f6a6d189b10646c27be4ad82345b08fb5cadb176c52364736f6c63430008010033",
					"opcodes": "PUSH1 0x80 PUSH1 0x40 MSTORE CALLVALUE DUP1 ISZERO PUSH2 0x10 JUMPI PUSH1 0x0 DUP1 REVERT JUMPDEST POP PUSH1 0x40 MLOAD PUSH2 0x235 CODESIZE SUB DUP1 PUSH2 0x235 DUP4 CODECOPY DUP2 ADD PUSH1 0x40 DUP2 SWAP1 MSTORE PUSH2 0x2F SWAP2 PUSH2 0x76 JUMP JUMPDEST PUSH2 0x38 DUP2 PUSH2 0x3E JUMP JUMPDEST POP PUSH2 0xA4 JUMP JUMPDEST PUSH2 0x51 DUP2 PUSH2 0x54 PUSH1 0x20 SHL PUSH2 0xD0 OR PUSH1 0x20 SHR JUMP JUMPDEST POP JUMP JUMPDEST PUSH1 0x0 DUP1 SLOAD PUSH1 0x1 PUSH1 0x1 PUSH1 0xA0 SHL SUB NOT AND PUSH1 0x1 PUSH1 0x1 PUSH1 0xA0 SHL SUB SWAP3 SWAP1 SWAP3 AND SWAP2 SWAP1 SWAP2 OR SWAP1 SSTORE JUMP JUMPDEST PUSH1 0x0 PUSH1 0x20 DUP3 DUP5 SUB SLT ISZERO PUSH2 0x87 JUMPI DUP1 DUP2 REVERT JUMPDEST DUP2 MLOAD PUSH1 0x1 PUSH1 0x1 PUSH1 0xA0 SHL SUB DUP2 AND DUP2 EQ PUSH2 0x9D JUMPI DUP2 DUP3 REVERT JUMPDEST SWAP4 SWAP3 POP POP POP JUMP JUMPDEST PUSH2 0x182 DUP1 PUSH2 0xB3 PUSH1 0x0 CODECOPY PUSH1 0x0 RETURN INVALID PUSH1 0x80 PUSH1 0x40 MSTORE PUSH1 0x4 CALLDATASIZE LT PUSH2 0x2D JUMPI PUSH1 0x0 CALLDATALOAD PUSH1 0xE0 SHR DUP1 PUSH4 0xC0A15E99 EQ PUSH2 0x68 JUMPI DUP1 PUSH4 0xF4D36986 EQ PUSH2 0x93 JUMPI PUSH2 0x34 JUMP JUMPDEST CALLDATASIZE PUSH2 0x34 JUMPI STOP JUMPDEST PUSH1 0x0 DUP1 SLOAD PUSH1 0x40 MLOAD PUSH1 0x1 PUSH1 0x1 PUSH1 0xA0 SHL SUB SWAP1 SWAP2 AND SWAP2 CALLDATASIZE SWAP1 DUP3 CALLDATACOPY PUSH1 0x0 DUP1 CALLDATASIZE DUP4 DUP6 GAS DELEGATECALL RETURNDATASIZE DUP1 PUSH1 0x0 DUP5 RETURNDATACOPY DUP2 DUP1 ISZERO PUSH2 0x64 JUMPI DUP2 DUP5 RETURN JUMPDEST DUP2 DUP5 REVERT JUMPDEST CALLVALUE DUP1 ISZERO PUSH2 0x74 JUMPI PUSH1 0x0 DUP1 REVERT JUMPDEST POP PUSH2 0x7D PUSH2 0xB5 JUMP JUMPDEST PUSH1 0x40 MLOAD PUSH2 0x8A SWAP2 SWAP1 PUSH2 0x138 JUMP JUMPDEST PUSH1 0x40 MLOAD DUP1 SWAP2 SUB SWAP1 RETURN JUMPDEST CALLVALUE DUP1 ISZERO PUSH2 0x9F JUMPI PUSH1 0x0 DUP1 REVERT JUMPDEST POP PUSH2 0xB3 PUSH2 0xAE CALLDATASIZE PUSH1 0x4 PUSH2 0x10A JUMP JUMPDEST PUSH2 0xC4 JUMP JUMPDEST STOP JUMPDEST PUSH1 0x0 SLOAD PUSH1 0x1 PUSH1 0x1 PUSH1 0xA0 SHL SUB AND DUP2 JUMP JUMPDEST PUSH2 0xCD DUP2 PUSH2 0xD0 JUMP JUMPDEST POP JUMP JUMPDEST PUSH1 0x0 DUP1 SLOAD PUSH32 0xFFFFFFFFFFFFFFFFFFFFFFFF0000000000000000000000000000000000000000 AND PUSH1 0x1 PUSH1 0x1 PUSH1 0xA0 SHL SUB SWAP3 SWAP1 SWAP3 AND SWAP2 SWAP1 SWAP2 OR SWAP1 SSTORE JUMP JUMPDEST PUSH1 0x0 PUSH1 0x20 DUP3 DUP5 SUB SLT ISZERO PUSH2 0x11B JUMPI DUP1 DUP2 REVERT JUMPDEST DUP2 CALLDATALOAD PUSH1 0x1 PUSH1 0x1 PUSH1 0xA0 SHL SUB DUP2 AND DUP2 EQ PUSH2 0x131 JUMPI DUP2 DUP3 REVERT JUMPDEST SWAP4 SWAP3 POP POP POP JUMP JUMPDEST PUSH1 0x1 PUSH1 0x1 PUSH1 0xA0 SHL SUB SWAP2 SWAP1 SWAP2 AND DUP2 MSTORE PUSH1 0x20 ADD SWAP1 JUMP INVALID LOG2 PUSH5 0x6970667358 0x22 SLT KECCAK256 ADD PUSH9 0xF09A6C1897DF6107F6 0xA6 0xD1 DUP10 0xB1 MOD CHAINID 0xC2 PUSH28 0xE4AD82345B08FB5CADB176C52364736F6C6343000801003300000000 "
				},
				"gasEstimates": {
					"creation": {
						"codeDepositCost": "77200",
						"executionCost": "infinite",
						"totalCost": "infinite"
					},
					"external": {
						"": "infinite",
						"otherContractAddress()": "1048",
						"setOtherAddress(address)": "21150"
					}
				},
				"methodIdentifiers": {
					"otherContractAddress()": "c0a15e99",
					"setOtherAddress(address)": "f4d36986"
				}
			},
			"storageLayout": {
				"storage": [
					{
						"astId": 41,
						"contract": "Eip897/Delegate.sol:ProxyNoMoreClash",
						"label": "otherContractAddress",
						"offset": 0,
						"slot": "0",
						"type": "t_address"
					}
				],
				"types": {
					"t_address": {
						"encoding": "inplace",
						"label": "address",
						"numberOfBytes": "20"
					}
				}
			},
			"userdoc": {
				"kind": "user",
				"methods": {},
				"version": 1
			}
		}
	}
}