{
	"Eip2535/FuncDiamond.sol": {
		"FuncDiamond1": {
			"abi": [
				{
					"inputs": [],
					"name": "DiamondWritable__InvalidInitializationParameters",
					"type": "error"
				},
				{
					"inputs": [],
					"name": "DiamondWritable__RemoveTargetNotZeroAddress",
					"type": "error"
				},
				{
					"inputs": [],
					"name": "DiamondWritable__ReplaceTargetIsIdentical",
					"type": "error"
				},
				{
					"inputs": [],
					"name": "DiamondWritable__SelectorAlreadyAdded",
					"type": "error"
				},
				{
					"inputs": [],
					"name": "DiamondWritable__SelectorIsImmutable",
					"type": "error"
				},
				{
					"inputs": [],
					"name": "DiamondWritable__SelectorNotFound",
					"type": "error"
				},
				{
					"inputs": [],
					"name": "DiamondWritable__SelectorNotSpecified",
					"type": "error"
				},
				{
					"inputs": [],
					"name": "DiamondWritable__TargetHasNoCode",
					"type": "error"
				},
				{
					"inputs": [],
					"name": "ERC165Base__InvalidInterfaceId",
					"type": "error"
				},
				{
					"inputs": [],
					"name": "Ownable__NotOwner",
					"type": "error"
				},
				{
					"inputs": [],
					"name": "Ownable__NotTransitiveOwner",
					"type": "error"
				},
				{
					"inputs": [],
					"name": "Proxy__ImplementationIsNotContract",
					"type": "error"
				},
				{
					"inputs": [],
					"name": "SafeOwnable__NotNomineeOwner",
					"type": "error"
				},
				{
					"anonymous": false,
					"inputs": [
						{
							"components": [
								{
									"internalType": "address",
									"name": "target",
									"type": "address"
								},
								{
									"internalType": "enum IERC2535DiamondCutInternal.FacetCutAction",
									"name": "action",
									"type": "uint8"
								},
								{
									"internalType": "bytes4[]",
									"name": "selectors",
									"type": "bytes4[]"
								}
							],
							"indexed": false,
							"internalType": "struct IERC2535DiamondCutInternal.FacetCut[]",
							"name": "facetCuts",
							"type": "tuple[]"
						},
						{
							"indexed": false,
							"internalType": "address",
							"name": "target",
							"type": "address"
						},
						{
							"indexed": false,
							"internalType": "bytes",
							"name": "data",
							"type": "bytes"
						}
					],
					"name": "DiamondCut",
					"type": "event"
				},
				{
					"anonymous": false,
					"inputs": [
						{
							"indexed": true,
							"internalType": "address",
							"name": "previousOwner",
							"type": "address"
						},
						{
							"indexed": true,
							"internalType": "address",
							"name": "newOwner",
							"type": "address"
						}
					],
					"name": "OwnershipTransferred",
					"type": "event"
				},
				{
					"stateMutability": "payable",
					"type": "fallback"
				},
				{
					"inputs": [],
					"name": "acceptOwnership",
					"outputs": [],
					"stateMutability": "nonpayable",
					"type": "function"
				},
				{
					"inputs": [
						{
							"components": [
								{
									"internalType": "address",
									"name": "target",
									"type": "address"
								},
								{
									"internalType": "enum IERC2535DiamondCutInternal.FacetCutAction",
									"name": "action",
									"type": "uint8"
								},
								{
									"internalType": "bytes4[]",
									"name": "selectors",
									"type": "bytes4[]"
								}
							],
							"internalType": "struct IERC2535DiamondCutInternal.FacetCut[]",
							"name": "facetCuts",
							"type": "tuple[]"
						},
						{
							"internalType": "address",
							"name": "target",
							"type": "address"
						},
						{
							"internalType": "bytes",
							"name": "data",
							"type": "bytes"
						}
					],
					"name": "diamondCut",
					"outputs": [],
					"stateMutability": "nonpayable",
					"type": "function"
				},
				{
					"inputs": [
						{
							"internalType": "bytes4",
							"name": "selector",
							"type": "bytes4"
						}
					],
					"name": "facetAddress",
					"outputs": [
						{
							"internalType": "address",
							"name": "facet",
							"type": "address"
						}
					],
					"stateMutability": "view",
					"type": "function"
				},
				{
					"inputs": [],
					"name": "facetAddresses",
					"outputs": [
						{
							"internalType": "address[]",
							"name": "addresses",
							"type": "address[]"
						}
					],
					"stateMutability": "view",
					"type": "function"
				},
				{
					"inputs": [
						{
							"internalType": "address",
							"name": "facet",
							"type": "address"
						}
					],
					"name": "facetFunctionSelectors",
					"outputs": [
						{
							"internalType": "bytes4[]",
							"name": "selectors",
							"type": "bytes4[]"
						}
					],
					"stateMutability": "view",
					"type": "function"
				},
				{
					"inputs": [],
					"name": "facets",
					"outputs": [
						{
							"components": [
								{
									"internalType": "address",
									"name": "target",
									"type": "address"
								},
								{
									"internalType": "bytes4[]",
									"name": "selectors",
									"type": "bytes4[]"
								}
							],
							"internalType": "struct IERC2535DiamondLoupeInternal.Facet[]",
							"name": "diamondFacets",
							"type": "tuple[]"
						}
					],
					"stateMutability": "view",
					"type": "function"
				},
				{
					"inputs": [],
					"name": "getFallbackAddress",
					"outputs": [
						{
							"internalType": "address",
							"name": "fallbackAddress",
							"type": "address"
						}
					],
					"stateMutability": "view",
					"type": "function"
				},
				{
					"inputs": [],
					"name": "nomineeOwner",
					"outputs": [
						{
							"internalType": "address",
							"name": "",
							"type": "address"
						}
					],
					"stateMutability": "view",
					"type": "function"
				},
				{
					"inputs": [],
					"name": "owner",
					"outputs": [
						{
							"internalType": "address",
							"name": "",
							"type": "address"
						}
					],
					"stateMutability": "view",
					"type": "function"
				},
				{
					"inputs": [
						{
							"internalType": "address",
							"name": "fallbackAddress",
							"type": "address"
						}
					],
					"name": "setFallbackAddress",
					"outputs": [],
					"stateMutability": "nonpayable",
					"type": "function"
				},
				{
					"inputs": [
						{
							"internalType": "bytes4",
							"name": "interfaceId",
							"type": "bytes4"
						}
					],
					"name": "supportsInterface",
					"outputs": [
						{
							"internalType": "bool",
							"name": "",
							"type": "bool"
						}
					],
					"stateMutability": "view",
					"type": "function"
				},
				{
					"inputs": [
						{
							"internalType": "address",
							"name": "account",
							"type": "address"
						}
					],
					"name": "transferOwnership",
					"outputs": [],
					"stateMutability": "nonpayable",
					"type": "function"
				},
				{
					"stateMutability": "payable",
					"type": "receive"
				}
			],
			"devdoc": {
				"kind": "dev",
				"methods": {
					"diamondCut((address,uint8,bytes4[])[],address,bytes)": {
						"params": {
							"data": "optional initialization function call data",
							"facetCuts": "array of structured Diamond facet update data",
							"target": "optional target of initialization delegatecall"
						}
					},
					"facetAddress(bytes4)": {
						"params": {
							"selector": "function selector to query"
						},
						"returns": {
							"facet": "facet address (zero address if not found)"
						}
					},
					"facetAddresses()": {
						"returns": {
							"addresses": "array of facet addresses"
						}
					},
					"facetFunctionSelectors(address)": {
						"params": {
							"facet": "address of facet to query"
						},
						"returns": {
							"selectors": "array of function selectors"
						}
					},
					"facets()": {
						"returns": {
							"diamondFacets": "array of structured facet data"
						}
					},
					"getFallbackAddress()": {
						"returns": {
							"fallbackAddress": "address of fallback implementation"
						}
					},
					"owner()": {
						"returns": {
							"_0": "contract owner"
						}
					},
					"setFallbackAddress(address)": {
						"params": {
							"fallbackAddress": "address of fallback implementation"
						}
					},
					"supportsInterface(bytes4)": {
						"params": {
							"interfaceId": "interface id"
						},
						"returns": {
							"_0": "bool whether interface is supported"
						}
					},
					"transferOwnership(address)": {
						"params": {
							"account": "address of new owner"
						}
					}
				},
				"version": 1
			},
			"evm": {
				"assembly": "    /* \"Eip2535/FuncDiamond.sol\":123:170  contract FuncDiamond1 is SolidStateDiamond {... */\n  mstore(0x40, 0x80)\n  callvalue\n  dup1\n  iszero\n  tag_1\n  jumpi\n  0x00\n  dup1\n  revert\ntag_1:\n  pop\n    /* \"@solidstate/contracts/proxy/diamond/SolidStateDiamond.sol\":1233:1249  new bytes4[](12) */\n  0x40\n  dup1\n  mload\n    /* \"@solidstate/contracts/proxy/diamond/SolidStateDiamond.sol\":1246:1248  12 */\n  0x0c\n    /* \"@solidstate/contracts/proxy/diamond/SolidStateDiamond.sol\":1233:1249  new bytes4[](12) */\n  dup1\n  dup3\n  mstore\n  0x01a0\n  dup3\n  add\n  swap1\n  swap3\n  mstore\n    /* \"@solidstate/contracts/proxy/diamond/SolidStateDiamond.sol\":1205:1230  bytes4[] memory selectors */\n  0x00\n  swap2\n    /* \"@solidstate/contracts/proxy/diamond/SolidStateDiamond.sol\":1233:1249  new bytes4[](12) */\n  0x20\n  dup3\n  add\n  0x0180\n  dup1\n  calldatasize\n  dup4\n  calldatacopy\n  add\n  swap1\n  pop\n  pop\n    /* \"@solidstate/contracts/proxy/diamond/SolidStateDiamond.sol\":1205:1249  bytes4[] memory selectors = new bytes4[](12) */\n  swap1\n  pop\n    /* \"@solidstate/contracts/proxy/diamond/SolidStateDiamond.sol\":1259:1280  uint256 selectorIndex */\n  0x00\n  shl(0xe0, 0x2c408059)\n    /* \"@solidstate/contracts/proxy/diamond/SolidStateDiamond.sol\":1205:1249  bytes4[] memory selectors = new bytes4[](12) */\n  dup3\n    /* \"@solidstate/contracts/proxy/diamond/SolidStateDiamond.sol\":1259:1280  uint256 selectorIndex */\n  dup3\n    /* \"@solidstate/contracts/proxy/diamond/SolidStateDiamond.sol\":1338:1353  selectorIndex++ */\n  tag_8\n    /* \"@solidstate/contracts/proxy/diamond/SolidStateDiamond.sol\":1259:1280  uint256 selectorIndex */\n  dup2\n    /* \"@solidstate/contracts/proxy/diamond/SolidStateDiamond.sol\":1338:1353  selectorIndex++ */\n  tag_9\n  jump\t// in\ntag_8:\n  swap4\n  pop\n    /* \"@solidstate/contracts/proxy/diamond/SolidStateDiamond.sol\":1328:1354  selectors[selectorIndex++] */\n  dup2\n  mload\n  dup2\n  lt\n  tag_11\n  jumpi\n  tag_11\n  tag_12\n  jump\t// in\ntag_11:\n  not(sub(shl(0xe0, 0x01), 0x01))\n    /* \"@solidstate/contracts/proxy/diamond/SolidStateDiamond.sol\":1328:1427  selectors[selectorIndex++] = IDiamondFallback... */\n  swap1\n  swap3\n  and\n    /* \"@solidstate/contracts/proxy/diamond/SolidStateDiamond.sol\":1328:1354  selectors[selectorIndex++] */\n  0x20\n  swap3\n  dup4\n  mul\n  swap2\n  swap1\n  swap2\n  add\n  swap1\n  swap2\n  add\n    /* \"@solidstate/contracts/proxy/diamond/SolidStateDiamond.sol\":1328:1427  selectors[selectorIndex++] = IDiamondFallback... */\n  mstore\n  shl(0xe0, 0x91423765)\n    /* \"@solidstate/contracts/proxy/diamond/SolidStateDiamond.sol\":1437:1446  selectors */\n  dup3\n    /* \"@solidstate/contracts/proxy/diamond/SolidStateDiamond.sol\":1447:1462  selectorIndex++ */\n  dup3\n  tag_13\n  dup2\n  tag_9\n  jump\t// in\ntag_13:\n  swap4\n  pop\n    /* \"@solidstate/contracts/proxy/diamond/SolidStateDiamond.sol\":1437:1463  selectors[selectorIndex++] */\n  dup2\n  mload\n  dup2\n  lt\n  tag_15\n  jumpi\n  tag_15\n  tag_12\n  jump\t// in\ntag_15:\n  not(sub(shl(0xe0, 0x01), 0x01))\n    /* \"@solidstate/contracts/proxy/diamond/SolidStateDiamond.sol\":1437:1536  selectors[selectorIndex++] = IDiamondFallback... */\n  swap1\n  swap3\n  and\n    /* \"@solidstate/contracts/proxy/diamond/SolidStateDiamond.sol\":1437:1463  selectors[selectorIndex++] */\n  0x20\n  swap3\n  dup4\n  mul\n  swap2\n  swap1\n  swap2\n  add\n  swap1\n  swap2\n  add\n    /* \"@solidstate/contracts/proxy/diamond/SolidStateDiamond.sol\":1437:1536  selectors[selectorIndex++] = IDiamondFallback... */\n  mstore\n    /* \"@solidstate/contracts/proxy/diamond/SolidStateDiamond.sol\":1547:1610  _setSupportsInterface(type(IDiamondFallback).interfaceId, true) */\n  tag_16\n  shl(0xe2, 0x2f40adcf)\n    /* \"@solidstate/contracts/proxy/diamond/SolidStateDiamond.sol\":1605:1609  true */\n  0x01\n    /* \"@solidstate/contracts/proxy/diamond/SolidStateDiamond.sol\":1547:1568  _setSupportsInterface */\n  tag_17\n    /* \"@solidstate/contracts/proxy/diamond/SolidStateDiamond.sol\":1547:1610  _setSupportsInterface(type(IDiamondFallback).interfaceId, true) */\n  jump\t// in\ntag_16:\n  shl(0xe2, 0x07e4c707)\n    /* \"@solidstate/contracts/proxy/diamond/SolidStateDiamond.sol\":1658:1667  selectors */\n  dup3\n    /* \"@solidstate/contracts/proxy/diamond/SolidStateDiamond.sol\":1668:1683  selectorIndex++ */\n  dup3\n  tag_18\n  dup2\n  tag_9\n  jump\t// in\ntag_18:\n  swap4\n  pop\n    /* \"@solidstate/contracts/proxy/diamond/SolidStateDiamond.sol\":1658:1684  selectors[selectorIndex++] */\n  dup2\n  mload\n  dup2\n  lt\n  tag_20\n  jumpi\n  tag_20\n  tag_12\n  jump\t// in\ntag_20:\n  not(sub(shl(0xe0, 0x01), 0x01))\n    /* \"@solidstate/contracts/proxy/diamond/SolidStateDiamond.sol\":1658:1725  selectors[selectorIndex++] = IERC2535DiamondCut.diamondCut.selector */\n  swap1\n  swap3\n  and\n    /* \"@solidstate/contracts/proxy/diamond/SolidStateDiamond.sol\":1658:1684  selectors[selectorIndex++] */\n  0x20\n  swap3\n  dup4\n  mul\n  swap2\n  swap1\n  swap2\n  add\n  swap1\n  swap2\n  add\n    /* \"@solidstate/contracts/proxy/diamond/SolidStateDiamond.sol\":1658:1725  selectors[selectorIndex++] = IERC2535DiamondCut.diamondCut.selector */\n  mstore\n    /* \"@solidstate/contracts/proxy/diamond/SolidStateDiamond.sol\":1736:1801  _setSupportsInterface(type(IERC2535DiamondCut).interfaceId, true) */\n  tag_21\n  shl(0xe2, 0x07e4c707)\n    /* \"@solidstate/contracts/proxy/diamond/SolidStateDiamond.sol\":1796:1800  true */\n  0x01\n    /* \"@solidstate/contracts/proxy/diamond/SolidStateDiamond.sol\":1736:1757  _setSupportsInterface */\n  tag_17\n    /* \"@solidstate/contracts/proxy/diamond/SolidStateDiamond.sol\":1736:1801  _setSupportsInterface(type(IERC2535DiamondCut).interfaceId, true) */\n  jump\t// in\ntag_21:\n  shl(0xe0, 0x7a0ed627)\n    /* \"@solidstate/contracts/proxy/diamond/SolidStateDiamond.sol\":1849:1858  selectors */\n  dup3\n    /* \"@solidstate/contracts/proxy/diamond/SolidStateDiamond.sol\":1859:1874  selectorIndex++ */\n  dup3\n  tag_22\n  dup2\n  tag_9\n  jump\t// in\ntag_22:\n  swap4\n  pop\n    /* \"@solidstate/contracts/proxy/diamond/SolidStateDiamond.sol\":1849:1875  selectors[selectorIndex++] */\n  dup2\n  mload\n  dup2\n  lt\n  tag_24\n  jumpi\n  tag_24\n  tag_12\n  jump\t// in\ntag_24:\n  not(sub(shl(0xe0, 0x01), 0x01))\n    /* \"@solidstate/contracts/proxy/diamond/SolidStateDiamond.sol\":1849:1914  selectors[selectorIndex++] = IERC2535DiamondLoupe.facets.selector */\n  swap1\n  swap3\n  and\n    /* \"@solidstate/contracts/proxy/diamond/SolidStateDiamond.sol\":1849:1875  selectors[selectorIndex++] */\n  0x20\n  swap3\n  dup4\n  mul\n  swap2\n  swap1\n  swap2\n  add\n  swap1\n  swap2\n  add\n    /* \"@solidstate/contracts/proxy/diamond/SolidStateDiamond.sol\":1849:1914  selectors[selectorIndex++] = IERC2535DiamondLoupe.facets.selector */\n  mstore\n  shl(0xe1, 0x56fe50af)\n    /* \"@solidstate/contracts/proxy/diamond/SolidStateDiamond.sol\":1924:1933  selectors */\n  dup3\n    /* \"@solidstate/contracts/proxy/diamond/SolidStateDiamond.sol\":1934:1949  selectorIndex++ */\n  dup3\n  tag_25\n  dup2\n  tag_9\n  jump\t// in\ntag_25:\n  swap4\n  pop\n    /* \"@solidstate/contracts/proxy/diamond/SolidStateDiamond.sol\":1924:1950  selectors[selectorIndex++] */\n  dup2\n  mload\n  dup2\n  lt\n  tag_27\n  jumpi\n  tag_27\n  tag_12\n  jump\t// in\ntag_27:\n  not(sub(shl(0xe0, 0x01), 0x01))\n    /* \"@solidstate/contracts/proxy/diamond/SolidStateDiamond.sol\":1924:2031  selectors[selectorIndex++] = IERC2535DiamondLoupe... */\n  swap1\n  swap3\n  and\n    /* \"@solidstate/contracts/proxy/diamond/SolidStateDiamond.sol\":1924:1950  selectors[selectorIndex++] */\n  0x20\n  swap3\n  dup4\n  mul\n  swap2\n  swap1\n  swap2\n  add\n  swap1\n  swap2\n  add\n    /* \"@solidstate/contracts/proxy/diamond/SolidStateDiamond.sol\":1924:2031  selectors[selectorIndex++] = IERC2535DiamondLoupe... */\n  mstore\n  shl(0xe2, 0x14bbdacb)\n    /* \"@solidstate/contracts/proxy/diamond/SolidStateDiamond.sol\":2041:2050  selectors */\n  dup3\n    /* \"@solidstate/contracts/proxy/diamond/SolidStateDiamond.sol\":2051:2066  selectorIndex++ */\n  dup3\n  tag_28\n  dup2\n  tag_9\n  jump\t// in\ntag_28:\n  swap4\n  pop\n    /* \"@solidstate/contracts/proxy/diamond/SolidStateDiamond.sol\":2041:2067  selectors[selectorIndex++] */\n  dup2\n  mload\n  dup2\n  lt\n  tag_30\n  jumpi\n  tag_30\n  tag_12\n  jump\t// in\ntag_30:\n  not(sub(shl(0xe0, 0x01), 0x01))\n    /* \"@solidstate/contracts/proxy/diamond/SolidStateDiamond.sol\":2041:2140  selectors[selectorIndex++] = IERC2535DiamondLoupe... */\n  swap1\n  swap3\n  and\n    /* \"@solidstate/contracts/proxy/diamond/SolidStateDiamond.sol\":2041:2067  selectors[selectorIndex++] */\n  0x20\n  swap3\n  dup4\n  mul\n  swap2\n  swap1\n  swap2\n  add\n  swap1\n  swap2\n  add\n    /* \"@solidstate/contracts/proxy/diamond/SolidStateDiamond.sol\":2041:2140  selectors[selectorIndex++] = IERC2535DiamondLoupe... */\n  mstore\n  shl(0xe1, 0x66ffd663)\n    /* \"@solidstate/contracts/proxy/diamond/SolidStateDiamond.sol\":2150:2159  selectors */\n  dup3\n    /* \"@solidstate/contracts/proxy/diamond/SolidStateDiamond.sol\":2160:2175  selectorIndex++ */\n  dup3\n  tag_31\n  dup2\n  tag_9\n  jump\t// in\ntag_31:\n  swap4\n  pop\n    /* \"@solidstate/contracts/proxy/diamond/SolidStateDiamond.sol\":2150:2176  selectors[selectorIndex++] */\n  dup2\n  mload\n  dup2\n  lt\n  tag_33\n  jumpi\n  tag_33\n  tag_12\n  jump\t// in\ntag_33:\n  not(sub(shl(0xe0, 0x01), 0x01))\n    /* \"@solidstate/contracts/proxy/diamond/SolidStateDiamond.sol\":2150:2221  selectors[selectorIndex++] = IERC2535DiamondLoupe.facetAddress.selector */\n  swap1\n  swap3\n  and\n    /* \"@solidstate/contracts/proxy/diamond/SolidStateDiamond.sol\":2150:2176  selectors[selectorIndex++] */\n  0x20\n  swap3\n  dup4\n  mul\n  swap2\n  swap1\n  swap2\n  add\n  swap1\n  swap2\n  add\n    /* \"@solidstate/contracts/proxy/diamond/SolidStateDiamond.sol\":2150:2221  selectors[selectorIndex++] = IERC2535DiamondLoupe.facetAddress.selector */\n  mstore\n    /* \"@solidstate/contracts/proxy/diamond/SolidStateDiamond.sol\":2232:2299  _setSupportsInterface(type(IERC2535DiamondLoupe).interfaceId, true) */\n  tag_34\n  shl(0xe0, 0x48e2b093)\n    /* \"@solidstate/contracts/proxy/diamond/SolidStateDiamond.sol\":2294:2298  true */\n  0x01\n    /* \"@solidstate/contracts/proxy/diamond/SolidStateDiamond.sol\":2232:2253  _setSupportsInterface */\n  tag_17\n    /* \"@solidstate/contracts/proxy/diamond/SolidStateDiamond.sol\":2232:2299  _setSupportsInterface(type(IERC2535DiamondLoupe).interfaceId, true) */\n  jump\t// in\ntag_34:\n  shl(0xe0, 0x01ffc9a7)\n    /* \"@solidstate/contracts/proxy/diamond/SolidStateDiamond.sol\":2338:2347  selectors */\n  dup3\n    /* \"@solidstate/contracts/proxy/diamond/SolidStateDiamond.sol\":2348:2363  selectorIndex++ */\n  dup3\n  tag_35\n  dup2\n  tag_9\n  jump\t// in\ntag_35:\n  swap4\n  pop\n    /* \"@solidstate/contracts/proxy/diamond/SolidStateDiamond.sol\":2338:2364  selectors[selectorIndex++] */\n  dup2\n  mload\n  dup2\n  lt\n  tag_37\n  jumpi\n  tag_37\n  tag_12\n  jump\t// in\ntag_37:\n  not(sub(shl(0xe0, 0x01), 0x01))\n    /* \"@solidstate/contracts/proxy/diamond/SolidStateDiamond.sol\":2338:2401  selectors[selectorIndex++] = IERC165.supportsInterface.selector */\n  swap1\n  swap3\n  and\n    /* \"@solidstate/contracts/proxy/diamond/SolidStateDiamond.sol\":2338:2364  selectors[selectorIndex++] */\n  0x20\n  swap3\n  dup4\n  mul\n  swap2\n  swap1\n  swap2\n  add\n  swap1\n  swap2\n  add\n    /* \"@solidstate/contracts/proxy/diamond/SolidStateDiamond.sol\":2338:2401  selectors[selectorIndex++] = IERC165.supportsInterface.selector */\n  mstore\n    /* \"@solidstate/contracts/proxy/diamond/SolidStateDiamond.sol\":2412:2466  _setSupportsInterface(type(IERC165).interfaceId, true) */\n  tag_38\n  shl(0xe0, 0x01ffc9a7)\n    /* \"@solidstate/contracts/proxy/diamond/SolidStateDiamond.sol\":2461:2465  true */\n  0x01\n    /* \"@solidstate/contracts/proxy/diamond/SolidStateDiamond.sol\":2412:2433  _setSupportsInterface */\n  tag_17\n    /* \"@solidstate/contracts/proxy/diamond/SolidStateDiamond.sol\":2412:2466  _setSupportsInterface(type(IERC165).interfaceId, true) */\n  jump\t// in\ntag_38:\n  shl(0xe0, 0x8da5cb5b)\n    /* \"@solidstate/contracts/proxy/diamond/SolidStateDiamond.sol\":2510:2519  selectors */\n  dup3\n    /* \"@solidstate/contracts/proxy/diamond/SolidStateDiamond.sol\":2520:2535  selectorIndex++ */\n  dup3\n  tag_40\n  dup2\n  tag_9\n  jump\t// in\ntag_40:\n  swap4\n  pop\n    /* \"@solidstate/contracts/proxy/diamond/SolidStateDiamond.sol\":2510:2536  selectors[selectorIndex++] */\n  dup2\n  mload\n  dup2\n  lt\n  tag_42\n  jumpi\n  tag_42\n  tag_12\n  jump\t// in\ntag_42:\n  not(sub(shl(0xe0, 0x01), 0x01))\n    /* \"@solidstate/contracts/proxy/diamond/SolidStateDiamond.sol\":2510:2561  selectors[selectorIndex++] = Ownable.owner.selector */\n  swap1\n  swap3\n  and\n    /* \"@solidstate/contracts/proxy/diamond/SolidStateDiamond.sol\":2510:2536  selectors[selectorIndex++] */\n  0x20\n  swap3\n  dup4\n  mul\n  swap2\n  swap1\n  swap2\n  add\n  swap1\n  swap2\n  add\n    /* \"@solidstate/contracts/proxy/diamond/SolidStateDiamond.sol\":2510:2561  selectors[selectorIndex++] = Ownable.owner.selector */\n  mstore\n  shl(0xe1, 0x455a8a85)\n    /* \"@solidstate/contracts/proxy/diamond/SolidStateDiamond.sol\":2571:2580  selectors */\n  dup3\n    /* \"@solidstate/contracts/proxy/diamond/SolidStateDiamond.sol\":2581:2596  selectorIndex++ */\n  dup3\n  tag_44\n  dup2\n  tag_9\n  jump\t// in\ntag_44:\n  swap4\n  pop\n    /* \"@solidstate/contracts/proxy/diamond/SolidStateDiamond.sol\":2571:2597  selectors[selectorIndex++] */\n  dup2\n  mload\n  dup2\n  lt\n  tag_46\n  jumpi\n  tag_46\n  tag_12\n  jump\t// in\ntag_46:\n  not(sub(shl(0xe0, 0x01), 0x01))\n    /* \"@solidstate/contracts/proxy/diamond/SolidStateDiamond.sol\":2571:2633  selectors[selectorIndex++] = SafeOwnable.nomineeOwner.selector */\n  swap1\n  swap3\n  and\n    /* \"@solidstate/contracts/proxy/diamond/SolidStateDiamond.sol\":2571:2597  selectors[selectorIndex++] */\n  0x20\n  swap3\n  dup4\n  mul\n  swap2\n  swap1\n  swap2\n  add\n  swap1\n  swap2\n  add\n    /* \"@solidstate/contracts/proxy/diamond/SolidStateDiamond.sol\":2571:2633  selectors[selectorIndex++] = SafeOwnable.nomineeOwner.selector */\n  mstore\n  shl(0xe0, 0xf2fde38b)\n    /* \"@solidstate/contracts/proxy/diamond/SolidStateDiamond.sol\":2643:2652  selectors */\n  dup3\n    /* \"@solidstate/contracts/proxy/diamond/SolidStateDiamond.sol\":2653:2668  selectorIndex++ */\n  dup3\n  tag_48\n  dup2\n  tag_9\n  jump\t// in\ntag_48:\n  swap4\n  pop\n    /* \"@solidstate/contracts/proxy/diamond/SolidStateDiamond.sol\":2643:2669  selectors[selectorIndex++] */\n  dup2\n  mload\n  dup2\n  lt\n  tag_50\n  jumpi\n  tag_50\n  tag_12\n  jump\t// in\ntag_50:\n  not(sub(shl(0xe0, 0x01), 0x01))\n    /* \"@solidstate/contracts/proxy/diamond/SolidStateDiamond.sol\":2643:2706  selectors[selectorIndex++] = Ownable.transferOwnership.selector */\n  swap1\n  swap3\n  and\n    /* \"@solidstate/contracts/proxy/diamond/SolidStateDiamond.sol\":2643:2669  selectors[selectorIndex++] */\n  0x20\n  swap3\n  dup4\n  mul\n  swap2\n  swap1\n  swap2\n  add\n  swap1\n  swap2\n  add\n    /* \"@solidstate/contracts/proxy/diamond/SolidStateDiamond.sol\":2643:2706  selectors[selectorIndex++] = Ownable.transferOwnership.selector */\n  mstore\n  shl(0xe0, 0x79ba5097)\n    /* \"@solidstate/contracts/proxy/diamond/SolidStateDiamond.sol\":2716:2725  selectors */\n  dup3\n    /* \"@solidstate/contracts/proxy/diamond/SolidStateDiamond.sol\":2726:2741  selectorIndex++ */\n  dup3\n  tag_52\n  dup2\n  tag_9\n  jump\t// in\ntag_52:\n  swap4\n  pop\n    /* \"@solidstate/contracts/proxy/diamond/SolidStateDiamond.sol\":2716:2742  selectors[selectorIndex++] */\n  dup2\n  mload\n  dup2\n  lt\n  tag_54\n  jumpi\n  tag_54\n  tag_12\n  jump\t// in\ntag_54:\n  not(sub(shl(0xe0, 0x01), 0x01))\n    /* \"@solidstate/contracts/proxy/diamond/SolidStateDiamond.sol\":2716:2781  selectors[selectorIndex++] = SafeOwnable.acceptOwnership.selector */\n  swap1\n  swap3\n  and\n    /* \"@solidstate/contracts/proxy/diamond/SolidStateDiamond.sol\":2716:2742  selectors[selectorIndex++] */\n  0x20\n  swap3\n  dup4\n  mul\n  swap2\n  swap1\n  swap2\n  add\n  swap1\n  swap2\n  add\n    /* \"@solidstate/contracts/proxy/diamond/SolidStateDiamond.sol\":2716:2781  selectors[selectorIndex++] = SafeOwnable.acceptOwnership.selector */\n  mstore\n    /* \"@solidstate/contracts/proxy/diamond/SolidStateDiamond.sol\":2792:2846  _setSupportsInterface(type(IERC173).interfaceId, true) */\n  tag_55\n  shl(0xe4, 0x07f5828d)\n    /* \"@solidstate/contracts/proxy/diamond/SolidStateDiamond.sol\":2841:2845  true */\n  0x01\n    /* \"@solidstate/contracts/proxy/diamond/SolidStateDiamond.sol\":2792:2813  _setSupportsInterface */\n  tag_17\n    /* \"@solidstate/contracts/proxy/diamond/SolidStateDiamond.sol\":2792:2846  _setSupportsInterface(type(IERC173).interfaceId, true) */\n  jump\t// in\ntag_55:\n    /* \"@solidstate/contracts/proxy/diamond/SolidStateDiamond.sol\":2911:2928  new FacetCut[](1) */\n  0x40\n  dup1\n  mload\n    /* \"@solidstate/contracts/proxy/diamond/SolidStateDiamond.sol\":2926:2927  1 */\n  0x01\n    /* \"@solidstate/contracts/proxy/diamond/SolidStateDiamond.sol\":2911:2928  new FacetCut[](1) */\n  dup1\n  dup3\n  mstore\n  dup2\n  dup4\n  add\n  swap1\n  swap3\n  mstore\n    /* \"@solidstate/contracts/proxy/diamond/SolidStateDiamond.sol\":2881:2908  FacetCut[] memory facetCuts */\n  0x00\n  swap2\n    /* \"@solidstate/contracts/proxy/diamond/SolidStateDiamond.sol\":2911:2928  new FacetCut[](1) */\n  dup2\n  0x20\n  add\ntag_59:\n    /* \"Eip2535/FuncDiamond.sol\":123:170  contract FuncDiamond1 is SolidStateDiamond {... */\n  0x40\n  dup1\n  mload\n  0x60\n  dup1\n  dup3\n  add\n  dup4\n  mstore\n  0x00\n  dup1\n  dup4\n  mstore\n  0x20\n  dup4\n  add\n  mstore\n  swap2\n  dup2\n  add\n  swap2\n  swap1\n  swap2\n  mstore\n    /* \"@solidstate/contracts/proxy/diamond/SolidStateDiamond.sol\":2911:2928  new FacetCut[](1) */\n  dup2\n  mstore\n  0x20\n  add\n  swap1\n  0x01\n  swap1\n  sub\n  swap1\n  dup2\n  tag_59\n  jumpi\n  swap1\n  pop\n  pop\n    /* \"@solidstate/contracts/proxy/diamond/SolidStateDiamond.sol\":2954:3083  FacetCut({... */\n  0x40\n  dup1\n  mload\n  0x60\n  dup2\n  add\n  swap1\n  swap2\n  mstore\n    /* \"@solidstate/contracts/proxy/diamond/SolidStateDiamond.sol\":2993:2997  this */\n  address\n    /* \"@solidstate/contracts/proxy/diamond/SolidStateDiamond.sol\":2954:3083  FacetCut({... */\n  dup2\n  mstore\n    /* \"@solidstate/contracts/proxy/diamond/SolidStateDiamond.sol\":2881:2928  FacetCut[] memory facetCuts = new FacetCut[](1) */\n  swap1\n  swap2\n  pop\n    /* \"@solidstate/contracts/proxy/diamond/SolidStateDiamond.sol\":2954:3083  FacetCut({... */\n  0x20\n  dup2\n  add\n  0x00\n  dup2\n  mstore\n  0x20\n  add\n    /* \"@solidstate/contracts/proxy/diamond/SolidStateDiamond.sol\":3063:3072  selectors */\n  dup5\n    /* \"@solidstate/contracts/proxy/diamond/SolidStateDiamond.sol\":2954:3083  FacetCut({... */\n  dup2\n  mstore\n  pop\n    /* \"@solidstate/contracts/proxy/diamond/SolidStateDiamond.sol\":2939:2948  facetCuts */\n  dup2\n    /* \"@solidstate/contracts/proxy/diamond/SolidStateDiamond.sol\":2949:2950  0 */\n  0x00\n    /* \"@solidstate/contracts/proxy/diamond/SolidStateDiamond.sol\":2939:2951  facetCuts[0] */\n  dup2\n  mload\n  dup2\n  lt\n  tag_66\n  jumpi\n  tag_66\n  tag_12\n  jump\t// in\ntag_66:\n  0x20\n  mul\n  0x20\n  add\n  add\n    /* \"@solidstate/contracts/proxy/diamond/SolidStateDiamond.sol\":2939:3083  facetCuts[0] = FacetCut({... */\n  dup2\n  swap1\n  mstore\n  pop\n    /* \"@solidstate/contracts/proxy/diamond/SolidStateDiamond.sol\":3094:3132  _diamondCut(facetCuts, address(0), '') */\n  tag_67\n    /* \"@solidstate/contracts/proxy/diamond/SolidStateDiamond.sol\":3106:3115  facetCuts */\n  dup2\n    /* \"@solidstate/contracts/proxy/diamond/SolidStateDiamond.sol\":3125:3126  0 */\n  0x00\n    /* \"@solidstate/contracts/proxy/diamond/SolidStateDiamond.sol\":3094:3132  _diamondCut(facetCuts, address(0), '') */\n  mload(0x40)\n  dup1\n  0x20\n  add\n  0x40\n  mstore\n  dup1\n  0x00\n  dup2\n  mstore\n  pop\n    /* \"@solidstate/contracts/proxy/diamond/SolidStateDiamond.sol\":3094:3105  _diamondCut */\n  shl(0x20, tag_68)\n    /* \"@solidstate/contracts/proxy/diamond/SolidStateDiamond.sol\":3094:3132  _diamondCut(facetCuts, address(0), '') */\n  0x20\n  shr\n  jump\t// in\ntag_67:\n    /* \"@solidstate/contracts/proxy/diamond/SolidStateDiamond.sol\":3165:3186  _setOwner(msg.sender) */\n  tag_69\n    /* \"@solidstate/contracts/proxy/diamond/SolidStateDiamond.sol\":3175:3185  msg.sender */\n  caller\n    /* \"@solidstate/contracts/proxy/diamond/SolidStateDiamond.sol\":3165:3174  _setOwner */\n  tag_70\n    /* \"@solidstate/contracts/proxy/diamond/SolidStateDiamond.sol\":3165:3186  _setOwner(msg.sender) */\n  jump\t// in\ntag_69:\n    /* \"@solidstate/contracts/proxy/diamond/SolidStateDiamond.sol\":1195:3193  {... */\n  pop\n  pop\n  pop\n    /* \"Eip2535/FuncDiamond.sol\":123:170  contract FuncDiamond1 is SolidStateDiamond {... */\n  jump(tag_217)\n    /* \"@solidstate/contracts/introspection/ERC165/base/ERC165BaseInternal.sol\":908:1176  function _setSupportsInterface(... */\ntag_17:\n  not(sub(shl(0xe0, 0x01), 0x01))\n    /* \"@solidstate/contracts/introspection/ERC165/base/ERC165BaseInternal.sol\":1025:1050  interfaceId == 0xffffffff */\n  dup1\n  dup4\n  and\n  swap1\n  sub\n    /* \"@solidstate/contracts/introspection/ERC165/base/ERC165BaseInternal.sol\":1021:1091  if (interfaceId == 0xffffffff) revert ERC165Base__InvalidInterfaceId() */\n  tag_73\n  jumpi\n    /* \"@solidstate/contracts/introspection/ERC165/base/ERC165BaseInternal.sol\":1059:1091  ERC165Base__InvalidInterfaceId() */\n  mload(0x40)\n  shl(0xe0, 0xb0a19dd5)\n  dup2\n  mstore\n  0x04\n  add\n  mload(0x40)\n  dup1\n  swap2\n  sub\n  swap1\n  revert\n    /* \"@solidstate/contracts/introspection/ERC165/base/ERC165BaseInternal.sol\":1021:1091  if (interfaceId == 0xffffffff) revert ERC165Base__InvalidInterfaceId() */\ntag_73:\n  not(sub(shl(0xe0, 0x01), 0x01))\n    /* \"@solidstate/contracts/introspection/ERC165/base/ERC165BaseInternal.sol\":1101:1160  ERC165BaseStorage.layout().supportedInterfaces[interfaceId] */\n  swap2\n  swap1\n  swap2\n  and\n    /* \"@solidstate/contracts/introspection/ERC165/base/ERC165BaseInternal.sol\":1101:1147  ERC165BaseStorage.layout().supportedInterfaces */\n  0x00\n    /* \"@solidstate/contracts/introspection/ERC165/base/ERC165BaseInternal.sol\":1101:1160  ERC165BaseStorage.layout().supportedInterfaces[interfaceId] */\n  swap1\n  dup2\n  mstore\n    /* \"@solidstate/contracts/introspection/ERC165/base/ERC165BaseStorage.sol\":220:272  keccak256('solidstate.contracts.storage.ERC165Base') */\n  0xfc606c433378e3a7e0a6a531deac289b66caa1b4aa8554fd4ab2c6f1570f92d8\n    /* \"@solidstate/contracts/introspection/ERC165/base/ERC165BaseInternal.sol\":1101:1160  ERC165BaseStorage.layout().supportedInterfaces[interfaceId] */\n  0x20\n  mstore\n  0x40\n  swap1\n  keccak256\n    /* \"@solidstate/contracts/introspection/ERC165/base/ERC165BaseInternal.sol\":1101:1169  ERC165BaseStorage.layout().supportedInterfaces[interfaceId] = status */\n  dup1\n  sload\n  not(0xff)\n  and\n  swap2\n  iszero\n  iszero\n  swap2\n  swap1\n  swap2\n  or\n  swap1\n  sstore\n    /* \"@solidstate/contracts/introspection/ERC165/base/ERC165BaseInternal.sol\":908:1176  function _setSupportsInterface(... */\n  jump\t// out\n    /* \"@solidstate/contracts/proxy/diamond/writable/DiamondWritableInternal.sol\":850:2893  function _diamondCut(... */\ntag_68:\n    /* \"@solidstate/contracts/proxy/diamond/writable/DiamondWritableInternal.sol\":1124:1139  l.selectorCount */\n  sload(0x177481ac65e4292921c69f62d1cc7f57541261e5d61c8175cf4e36a01c9bfc94)\n    /* \"@solidstate/contracts/proxy/diamond/base/DiamondBaseStorage.sol\":585:638  keccak256('solidstate.contracts.storage.DiamondBase') */\n  0x177481ac65e4292921c69f62d1cc7f57541261e5d61c8175cf4e36a01c9bfc93\n  swap1\n    /* \"@solidstate/contracts/proxy/diamond/writable/DiamondWritableInternal.sol\":1124:1139  l.selectorCount */\n  0xffff\n  dup2\n  and\n  swap1\n  dup2\n  swap1\n    /* \"@solidstate/contracts/proxy/diamond/writable/DiamondWritableInternal.sol\":992:1027  DiamondBaseStorage.Layout storage l */\n  0x00\n  swap1\n    /* \"@solidstate/contracts/proxy/diamond/writable/DiamondWritableInternal.sol\":1322:1323  7 */\n  0x07\n    /* \"@solidstate/contracts/proxy/diamond/writable/DiamondWritableInternal.sol\":1306:1323  selectorCount & 7 */\n  and\n    /* \"@solidstate/contracts/proxy/diamond/writable/DiamondWritableInternal.sol\":1306:1327  selectorCount & 7 > 0 */\n  iszero\n    /* \"@solidstate/contracts/proxy/diamond/writable/DiamondWritableInternal.sol\":1302:1453  if (selectorCount & 7 > 0) {... */\n  tag_97\n  jumpi\n  pop\n    /* \"@solidstate/contracts/proxy/diamond/writable/DiamondWritableInternal.sol\":1436:1437  3 */\n  0x03\n    /* \"@solidstate/contracts/proxy/diamond/writable/DiamondWritableInternal.sol\":1419:1437  selectorCount >> 3 */\n  dup2\n  swap1\n  shr\n    /* \"@solidstate/contracts/proxy/diamond/writable/DiamondWritableInternal.sol\":1403:1438  l.selectorSlots[selectorCount >> 3] */\n  0x00\n  swap1\n  dup2\n  mstore\n    /* \"@solidstate/contracts/proxy/diamond/writable/DiamondWritableInternal.sol\":1403:1418  l.selectorSlots */\n  0x02\n  dup5\n  add\n    /* \"@solidstate/contracts/proxy/diamond/writable/DiamondWritableInternal.sol\":1403:1438  l.selectorSlots[selectorCount >> 3] */\n  0x20\n  mstore\n  0x40\n  swap1\n  keccak256\n  sload\n    /* \"@solidstate/contracts/proxy/diamond/writable/DiamondWritableInternal.sol\":1302:1453  if (selectorCount & 7 > 0) {... */\ntag_97:\n    /* \"@solidstate/contracts/proxy/diamond/writable/DiamondWritableInternal.sol\":1472:1481  uint256 i */\n  0x00\n    /* \"@solidstate/contracts/proxy/diamond/writable/DiamondWritableInternal.sol\":1467:2480  for (uint256 i; i < facetCuts.length; i++) {... */\ntag_98:\n    /* \"@solidstate/contracts/proxy/diamond/writable/DiamondWritableInternal.sol\":1487:1496  facetCuts */\n  dup8\n    /* \"@solidstate/contracts/proxy/diamond/writable/DiamondWritableInternal.sol\":1487:1503  facetCuts.length */\n  mload\n    /* \"@solidstate/contracts/proxy/diamond/writable/DiamondWritableInternal.sol\":1483:1484  i */\n  dup2\n    /* \"@solidstate/contracts/proxy/diamond/writable/DiamondWritableInternal.sol\":1483:1503  i < facetCuts.length */\n  lt\n    /* \"@solidstate/contracts/proxy/diamond/writable/DiamondWritableInternal.sol\":1467:2480  for (uint256 i; i < facetCuts.length; i++) {... */\n  iszero\n  tag_99\n  jumpi\n    /* \"@solidstate/contracts/proxy/diamond/writable/DiamondWritableInternal.sol\":1528:1552  FacetCut memory facetCut */\n  0x00\n    /* \"@solidstate/contracts/proxy/diamond/writable/DiamondWritableInternal.sol\":1555:1564  facetCuts */\n  dup9\n    /* \"@solidstate/contracts/proxy/diamond/writable/DiamondWritableInternal.sol\":1565:1566  i */\n  dup3\n    /* \"@solidstate/contracts/proxy/diamond/writable/DiamondWritableInternal.sol\":1555:1567  facetCuts[i] */\n  dup2\n  mload\n  dup2\n  lt\n  tag_102\n  jumpi\n  tag_102\n  tag_12\n  jump\t// in\ntag_102:\n  0x20\n  mul\n  0x20\n  add\n  add\n  mload\n    /* \"@solidstate/contracts/proxy/diamond/writable/DiamondWritableInternal.sol\":1528:1567  FacetCut memory facetCut = facetCuts[i] */\n  swap1\n  pop\n    /* \"@solidstate/contracts/proxy/diamond/writable/DiamondWritableInternal.sol\":1585:1606  FacetCutAction action */\n  0x00\n    /* \"@solidstate/contracts/proxy/diamond/writable/DiamondWritableInternal.sol\":1609:1617  facetCut */\n  dup2\n    /* \"@solidstate/contracts/proxy/diamond/writable/DiamondWritableInternal.sol\":1609:1624  facetCut.action */\n  0x20\n  add\n  mload\n    /* \"@solidstate/contracts/proxy/diamond/writable/DiamondWritableInternal.sol\":1585:1624  FacetCutAction action = facetCut.action */\n  swap1\n  pop\n    /* \"@solidstate/contracts/proxy/diamond/writable/DiamondWritableInternal.sol\":1647:1655  facetCut */\n  dup2\n    /* \"@solidstate/contracts/proxy/diamond/writable/DiamondWritableInternal.sol\":1647:1665  facetCut.selectors */\n  0x40\n  add\n  mload\n    /* \"@solidstate/contracts/proxy/diamond/writable/DiamondWritableInternal.sol\":1647:1672  facetCut.selectors.length */\n  mload\n    /* \"@solidstate/contracts/proxy/diamond/writable/DiamondWritableInternal.sol\":1676:1677  0 */\n  0x00\n    /* \"@solidstate/contracts/proxy/diamond/writable/DiamondWritableInternal.sol\":1647:1677  facetCut.selectors.length == 0 */\n  sub\n    /* \"@solidstate/contracts/proxy/diamond/writable/DiamondWritableInternal.sol\":1643:1745  if (facetCut.selectors.length == 0)... */\n  tag_103\n  jumpi\n    /* \"@solidstate/contracts/proxy/diamond/writable/DiamondWritableInternal.sol\":1706:1745  DiamondWritable__SelectorNotSpecified() */\n  mload(0x40)\n  shl(0xe0, 0xeb6c3aeb)\n  dup2\n  mstore\n  0x04\n  add\n  mload(0x40)\n  dup1\n  swap2\n  sub\n  swap1\n  revert\n    /* \"@solidstate/contracts/proxy/diamond/writable/DiamondWritableInternal.sol\":1643:1745  if (facetCut.selectors.length == 0)... */\ntag_103:\n    /* \"@solidstate/contracts/proxy/diamond/writable/DiamondWritableInternal.sol\":1778:1796  FacetCutAction.ADD */\n  0x00\n    /* \"@solidstate/contracts/proxy/diamond/writable/DiamondWritableInternal.sol\":1768:1774  action */\n  dup2\n    /* \"@solidstate/contracts/proxy/diamond/writable/DiamondWritableInternal.sol\":1768:1796  action == FacetCutAction.ADD */\n  0x02\n  dup2\n  gt\n  iszero\n  tag_107\n  jumpi\n  tag_107\n  tag_64\n  jump\t// in\ntag_107:\n  sub\n    /* \"@solidstate/contracts/proxy/diamond/writable/DiamondWritableInternal.sol\":1764:2466  if (action == FacetCutAction.ADD) {... */\n  tag_108\n  jumpi\n    /* \"@solidstate/contracts/proxy/diamond/writable/DiamondWritableInternal.sol\":1852:2030  _addFacetSelectors(... */\n  tag_109\n    /* \"@solidstate/contracts/proxy/diamond/writable/DiamondWritableInternal.sol\":1896:1897  l */\n  dup8\n    /* \"@solidstate/contracts/proxy/diamond/writable/DiamondWritableInternal.sol\":1923:1936  selectorCount */\n  dup7\n    /* \"@solidstate/contracts/proxy/diamond/writable/DiamondWritableInternal.sol\":1962:1974  selectorSlot */\n  dup7\n    /* \"@solidstate/contracts/proxy/diamond/writable/DiamondWritableInternal.sol\":2000:2008  facetCut */\n  dup6\n    /* \"@solidstate/contracts/proxy/diamond/writable/DiamondWritableInternal.sol\":1852:1870  _addFacetSelectors */\n  tag_110\n    /* \"@solidstate/contracts/proxy/diamond/writable/DiamondWritableInternal.sol\":1852:2030  _addFacetSelectors(... */\n  jump\t// in\ntag_109:\n    /* \"@solidstate/contracts/proxy/diamond/writable/DiamondWritableInternal.sol\":1820:2030  (selectorCount, selectorSlot) = _addFacetSelectors(... */\n  swap1\n  swap6\n  pop\n  swap4\n  pop\n    /* \"@solidstate/contracts/proxy/diamond/writable/DiamondWritableInternal.sol\":1764:2466  if (action == FacetCutAction.ADD) {... */\n  jump(tag_124)\ntag_108:\n    /* \"@solidstate/contracts/proxy/diamond/writable/DiamondWritableInternal.sol\":2069:2091  FacetCutAction.REPLACE */\n  0x01\n    /* \"@solidstate/contracts/proxy/diamond/writable/DiamondWritableInternal.sol\":2059:2065  action */\n  dup2\n    /* \"@solidstate/contracts/proxy/diamond/writable/DiamondWritableInternal.sol\":2059:2091  action == FacetCutAction.REPLACE */\n  0x02\n  dup2\n  gt\n  iszero\n  tag_115\n  jumpi\n  tag_115\n  tag_64\n  jump\t// in\ntag_115:\n  sub\n    /* \"@solidstate/contracts/proxy/diamond/writable/DiamondWritableInternal.sol\":2055:2466  if (action == FacetCutAction.REPLACE) {... */\n  tag_116\n  jumpi\n    /* \"@solidstate/contracts/proxy/diamond/writable/DiamondWritableInternal.sol\":2115:2150  _replaceFacetSelectors(l, facetCut) */\n  tag_117\n    /* \"@solidstate/contracts/proxy/diamond/writable/DiamondWritableInternal.sol\":2138:2139  l */\n  dup8\n    /* \"@solidstate/contracts/proxy/diamond/writable/DiamondWritableInternal.sol\":2141:2149  facetCut */\n  dup4\n    /* \"@solidstate/contracts/proxy/diamond/writable/DiamondWritableInternal.sol\":2115:2137  _replaceFacetSelectors */\n  tag_118\n    /* \"@solidstate/contracts/proxy/diamond/writable/DiamondWritableInternal.sol\":2115:2150  _replaceFacetSelectors(l, facetCut) */\n  jump\t// in\ntag_117:\n    /* \"@solidstate/contracts/proxy/diamond/writable/DiamondWritableInternal.sol\":2055:2466  if (action == FacetCutAction.REPLACE) {... */\n  jump(tag_124)\ntag_116:\n    /* \"@solidstate/contracts/proxy/diamond/writable/DiamondWritableInternal.sol\":2189:2210  FacetCutAction.REMOVE */\n  0x02\n    /* \"@solidstate/contracts/proxy/diamond/writable/DiamondWritableInternal.sol\":2179:2185  action */\n  dup2\n    /* \"@solidstate/contracts/proxy/diamond/writable/DiamondWritableInternal.sol\":2179:2210  action == FacetCutAction.REMOVE */\n  0x02\n  dup2\n  gt\n  iszero\n  tag_123\n  jumpi\n  tag_123\n  tag_64\n  jump\t// in\ntag_123:\n  sub\n    /* \"@solidstate/contracts/proxy/diamond/writable/DiamondWritableInternal.sol\":2175:2466  if (action == FacetCutAction.REMOVE) {... */\n  tag_124\n  jumpi\n    /* \"@solidstate/contracts/proxy/diamond/writable/DiamondWritableInternal.sol\":2266:2447  _removeFacetSelectors(... */\n  tag_125\n    /* \"@solidstate/contracts/proxy/diamond/writable/DiamondWritableInternal.sol\":2313:2314  l */\n  dup8\n    /* \"@solidstate/contracts/proxy/diamond/writable/DiamondWritableInternal.sol\":2340:2353  selectorCount */\n  dup7\n    /* \"@solidstate/contracts/proxy/diamond/writable/DiamondWritableInternal.sol\":2379:2391  selectorSlot */\n  dup7\n    /* \"@solidstate/contracts/proxy/diamond/writable/DiamondWritableInternal.sol\":2417:2425  facetCut */\n  dup6\n    /* \"@solidstate/contracts/proxy/diamond/writable/DiamondWritableInternal.sol\":2266:2287  _removeFacetSelectors */\n  tag_126\n    /* \"@solidstate/contracts/proxy/diamond/writable/DiamondWritableInternal.sol\":2266:2447  _removeFacetSelectors(... */\n  jump\t// in\ntag_125:\n    /* \"@solidstate/contracts/proxy/diamond/writable/DiamondWritableInternal.sol\":2234:2447  (selectorCount, selectorSlot) = _removeFacetSelectors(... */\n  swap1\n  swap6\n  pop\n  swap4\n  pop\n    /* \"@solidstate/contracts/proxy/diamond/writable/DiamondWritableInternal.sol\":2175:2466  if (action == FacetCutAction.REMOVE) {... */\ntag_124:\n  pop\n  pop\n    /* \"@solidstate/contracts/proxy/diamond/writable/DiamondWritableInternal.sol\":1505:1508  i++ */\n  0x01\n  add\n    /* \"@solidstate/contracts/proxy/diamond/writable/DiamondWritableInternal.sol\":1467:2480  for (uint256 i; i < facetCuts.length; i++) {... */\n  jump(tag_98)\ntag_99:\n  pop\n    /* \"@solidstate/contracts/proxy/diamond/writable/DiamondWritableInternal.sol\":2515:2536  originalSelectorCount */\n  dup3\n    /* \"@solidstate/contracts/proxy/diamond/writable/DiamondWritableInternal.sol\":2498:2511  selectorCount */\n  dup3\n    /* \"@solidstate/contracts/proxy/diamond/writable/DiamondWritableInternal.sol\":2498:2536  selectorCount != originalSelectorCount */\n  eq\n    /* \"@solidstate/contracts/proxy/diamond/writable/DiamondWritableInternal.sol\":2494:2610  if (selectorCount != originalSelectorCount) {... */\n  tag_127\n  jumpi\n    /* \"@solidstate/contracts/proxy/diamond/writable/DiamondWritableInternal.sol\":2556:2571  l.selectorCount */\n  0x01\n  dup5\n  add\n    /* \"@solidstate/contracts/proxy/diamond/writable/DiamondWritableInternal.sol\":2556:2595  l.selectorCount = uint16(selectorCount) */\n  dup1\n  sload\n  not(0xffff)\n  and\n  0xffff\n  dup5\n  and\n  or\n  swap1\n  sstore\n    /* \"@solidstate/contracts/proxy/diamond/writable/DiamondWritableInternal.sol\":2494:2610  if (selectorCount != originalSelectorCount) {... */\ntag_127:\n    /* \"@solidstate/contracts/proxy/diamond/writable/DiamondWritableInternal.sol\":2693:2694  7 */\n  0x07\n    /* \"@solidstate/contracts/proxy/diamond/writable/DiamondWritableInternal.sol\":2677:2694  selectorCount & 7 */\n  dup3\n  and\n    /* \"@solidstate/contracts/proxy/diamond/writable/DiamondWritableInternal.sol\":2677:2698  selectorCount & 7 > 0 */\n  iszero\n    /* \"@solidstate/contracts/proxy/diamond/writable/DiamondWritableInternal.sol\":2673:2783  if (selectorCount & 7 > 0) {... */\n  tag_128\n  jumpi\n    /* \"@solidstate/contracts/proxy/diamond/writable/DiamondWritableInternal.sol\":2751:2752  3 */\n  0x03\n    /* \"@solidstate/contracts/proxy/diamond/writable/DiamondWritableInternal.sol\":2734:2752  selectorCount >> 3 */\n  dup3\n  swap1\n  shr\n    /* \"@solidstate/contracts/proxy/diamond/writable/DiamondWritableInternal.sol\":2718:2753  l.selectorSlots[selectorCount >> 3] */\n  0x00\n  swap1\n  dup2\n  mstore\n    /* \"@solidstate/contracts/proxy/diamond/writable/DiamondWritableInternal.sol\":2718:2733  l.selectorSlots */\n  0x02\n  dup6\n  add\n    /* \"@solidstate/contracts/proxy/diamond/writable/DiamondWritableInternal.sol\":2718:2753  l.selectorSlots[selectorCount >> 3] */\n  0x20\n  mstore\n  0x40\n  swap1\n  keccak256\n    /* \"@solidstate/contracts/proxy/diamond/writable/DiamondWritableInternal.sol\":2718:2768  l.selectorSlots[selectorCount >> 3] = selectorSlot */\n  dup2\n  swap1\n  sstore\n    /* \"@solidstate/contracts/proxy/diamond/writable/DiamondWritableInternal.sol\":2673:2783  if (selectorCount & 7 > 0) {... */\ntag_128:\n    /* \"@solidstate/contracts/proxy/diamond/writable/DiamondWritableInternal.sol\":2802:2837  DiamondCut(facetCuts, target, data) */\n  0x8faa70878671ccd212d20771b795c50af8fd3ff6cf27f4bde57e5d4de0aeb673\n    /* \"@solidstate/contracts/proxy/diamond/writable/DiamondWritableInternal.sol\":2813:2822  facetCuts */\n  dup8\n    /* \"@solidstate/contracts/proxy/diamond/writable/DiamondWritableInternal.sol\":2824:2830  target */\n  dup8\n    /* \"@solidstate/contracts/proxy/diamond/writable/DiamondWritableInternal.sol\":2832:2836  data */\n  dup8\n    /* \"@solidstate/contracts/proxy/diamond/writable/DiamondWritableInternal.sol\":2802:2837  DiamondCut(facetCuts, target, data) */\n  mload(0x40)\n  tag_129\n  swap4\n  swap3\n  swap2\n  swap1\n  tag_130\n  jump\t// in\ntag_129:\n  mload(0x40)\n  dup1\n  swap2\n  sub\n  swap1\n  log1\n    /* \"@solidstate/contracts/proxy/diamond/writable/DiamondWritableInternal.sol\":2851:2876  _initialize(target, data) */\n  tag_131\n    /* \"@solidstate/contracts/proxy/diamond/writable/DiamondWritableInternal.sol\":2863:2869  target */\n  dup7\n    /* \"@solidstate/contracts/proxy/diamond/writable/DiamondWritableInternal.sol\":2871:2875  data */\n  dup7\n    /* \"@solidstate/contracts/proxy/diamond/writable/DiamondWritableInternal.sol\":2851:2862  _initialize */\n  tag_132\n    /* \"@solidstate/contracts/proxy/diamond/writable/DiamondWritableInternal.sol\":2851:2876  _initialize(target, data) */\n  jump\t// in\ntag_131:\n    /* \"@solidstate/contracts/proxy/diamond/writable/DiamondWritableInternal.sol\":1068:2887  unchecked {... */\n  pop\n  pop\n  pop\n    /* \"@solidstate/contracts/proxy/diamond/writable/DiamondWritableInternal.sol\":982:2893  {... */\n  pop\n    /* \"@solidstate/contracts/proxy/diamond/writable/DiamondWritableInternal.sol\":850:2893  function _diamondCut(... */\n  pop\n  pop\n  pop\n  jump\t// out\n    /* \"@solidstate/contracts/access/ownable/OwnableInternal.sol\":1204:1411  function _setOwner(address account) internal virtual {... */\ntag_70:\n    /* \"@solidstate/contracts/access/ownable/OwnableStorage.sol\":187:236  keccak256('solidstate.contracts.storage.Ownable') */\n  0x8a22373512790c48b83a1fe2efdd2888d4a917bcdc24d0adf63e60f671680460\n    /* \"@solidstate/contracts/access/ownable/OwnableInternal.sol\":1360:1367  l.owner */\n  dup1\n  sload\n    /* \"@solidstate/contracts/access/ownable/OwnableInternal.sol\":1339:1377  OwnershipTransferred(l.owner, account) */\n  mload(0x40)\n  sub(shl(0xa0, 0x01), 0x01)\n  dup5\n  dup2\n  and\n  swap3\n    /* \"@solidstate/contracts/access/ownable/OwnableInternal.sol\":1360:1367  l.owner */\n  and\n  swap1\n    /* \"@solidstate/contracts/access/ownable/OwnableInternal.sol\":1339:1377  OwnershipTransferred(l.owner, account) */\n  0x8be0079c531659141344cd1fd0a4f28419497f9722a3daafe3b4186f6b6457e0\n  swap1\n    /* \"@solidstate/contracts/access/ownable/OwnableInternal.sol\":1267:1298  OwnableStorage.Layout storage l */\n  0x00\n  swap1\n    /* \"@solidstate/contracts/access/ownable/OwnableInternal.sol\":1339:1377  OwnershipTransferred(l.owner, account) */\n  log3\n    /* \"@solidstate/contracts/access/ownable/OwnableInternal.sol\":1387:1404  l.owner = account */\n  dup1\n  sload\n  not(sub(shl(0xa0, 0x01), 0x01))\n  and\n  sub(shl(0xa0, 0x01), 0x01)\n  swap3\n  swap1\n  swap3\n  and\n  swap2\n  swap1\n  swap2\n  or\n  swap1\n  sstore\n    /* \"@solidstate/contracts/access/ownable/OwnableInternal.sol\":1204:1411  function _setOwner(address account) internal virtual {... */\n  jump\t// out\n    /* \"@solidstate/contracts/proxy/diamond/writable/DiamondWritableInternal.sol\":2899:4643  function _addFacetSelectors(... */\ntag_110:\n    /* \"@solidstate/contracts/proxy/diamond/writable/DiamondWritableInternal.sol\":3147:3162  facetCut.target */\n  dup1\n  mload\n    /* \"@solidstate/contracts/proxy/diamond/writable/DiamondWritableInternal.sol\":3091:3098  uint256 */\n  0x00\n  swap1\n  dup2\n  swap1\n  sub(shl(0xa0, 0x01), 0x01)\n    /* \"@solidstate/contracts/proxy/diamond/writable/DiamondWritableInternal.sol\":3147:3173  facetCut.target.isContract */\n  and\n    /* \"@solidstate/contracts/utils/AddressUtils.sol\":569:589  extcodesize(account) */\n  extcodesize\n    /* \"@solidstate/contracts/utils/AddressUtils.sol\":615:623  size > 0 */\n  iszero\n    /* \"@solidstate/contracts/proxy/diamond/writable/DiamondWritableInternal.sol\":3143:3451  if (facetCut.target.isContract()) {... */\n  tag_152\n  jumpi\n    /* \"@solidstate/contracts/proxy/diamond/writable/DiamondWritableInternal.sol\":3199:3214  facetCut.target */\n  dup3\n  mload\n    /* \"@solidstate/contracts/proxy/diamond/writable/DiamondWritableInternal.sol\":3226:3230  this */\n  address\n  sub(shl(0xa0, 0x01), 0x01)\n    /* \"@solidstate/contracts/proxy/diamond/writable/DiamondWritableInternal.sol\":3199:3231  facetCut.target == address(this) */\n  swap1\n  swap2\n  and\n  sub\n    /* \"@solidstate/contracts/proxy/diamond/writable/DiamondWritableInternal.sol\":3195:3319  if (facetCut.target == address(this)) {... */\n  tag_153\n  jumpi\n    /* \"@solidstate/contracts/proxy/diamond/writable/DiamondWritableInternal.sol\":3262:3300  DiamondWritable__SelectorIsImmutable() */\n  mload(0x40)\n  shl(0xe0, 0xe9835731)\n  dup2\n  mstore\n  0x04\n  add\n  mload(0x40)\n  dup1\n  swap2\n  sub\n  swap1\n  revert\n    /* \"@solidstate/contracts/proxy/diamond/writable/DiamondWritableInternal.sol\":3195:3319  if (facetCut.target == address(this)) {... */\ntag_153:\n    /* \"@solidstate/contracts/proxy/diamond/writable/DiamondWritableInternal.sol\":3143:3451  if (facetCut.target.isContract()) {... */\n  jump(tag_155)\ntag_152:\n    /* \"@solidstate/contracts/proxy/diamond/writable/DiamondWritableInternal.sol\":3343:3358  facetCut.target */\n  dup3\n  mload\n  sub(shl(0xa0, 0x01), 0x01)\n    /* \"@solidstate/contracts/proxy/diamond/writable/DiamondWritableInternal.sol\":3343:3375  facetCut.target != address(this) */\n  and\n    /* \"@solidstate/contracts/proxy/diamond/writable/DiamondWritableInternal.sol\":3370:3374  this */\n  address\n    /* \"@solidstate/contracts/proxy/diamond/writable/DiamondWritableInternal.sol\":3343:3375  facetCut.target != address(this) */\n  eq\n    /* \"@solidstate/contracts/proxy/diamond/writable/DiamondWritableInternal.sol\":3339:3451  if (facetCut.target != address(this)) {... */\n  tag_155\n  jumpi\n    /* \"@solidstate/contracts/proxy/diamond/writable/DiamondWritableInternal.sol\":3402:3436  DiamondWritable__TargetHasNoCode() */\n  mload(0x40)\n  shl(0xe2, 0x3ddc5cab)\n  dup2\n  mstore\n  0x04\n  add\n  mload(0x40)\n  dup1\n  swap2\n  sub\n  swap1\n  revert\n    /* \"@solidstate/contracts/proxy/diamond/writable/DiamondWritableInternal.sol\":3339:3451  if (facetCut.target != address(this)) {... */\ntag_155:\n    /* \"@solidstate/contracts/proxy/diamond/writable/DiamondWritableInternal.sol\":3470:3479  uint256 i */\n  0x00\n    /* \"@solidstate/contracts/proxy/diamond/writable/DiamondWritableInternal.sol\":3465:4576  for (uint256 i; i < facetCut.selectors.length; i++) {... */\ntag_156:\n    /* \"@solidstate/contracts/proxy/diamond/writable/DiamondWritableInternal.sol\":3485:3493  facetCut */\n  dup4\n    /* \"@solidstate/contracts/proxy/diamond/writable/DiamondWritableInternal.sol\":3485:3503  facetCut.selectors */\n  0x40\n  add\n  mload\n    /* \"@solidstate/contracts/proxy/diamond/writable/DiamondWritableInternal.sol\":3485:3510  facetCut.selectors.length */\n  mload\n    /* \"@solidstate/contracts/proxy/diamond/writable/DiamondWritableInternal.sol\":3481:3482  i */\n  dup2\n    /* \"@solidstate/contracts/proxy/diamond/writable/DiamondWritableInternal.sol\":3481:3510  i < facetCut.selectors.length */\n  lt\n    /* \"@solidstate/contracts/proxy/diamond/writable/DiamondWritableInternal.sol\":3465:4576  for (uint256 i; i < facetCut.selectors.length; i++) {... */\n  iszero\n  tag_157\n  jumpi\n    /* \"@solidstate/contracts/proxy/diamond/writable/DiamondWritableInternal.sol\":3535:3550  bytes4 selector */\n  0x00\n    /* \"@solidstate/contracts/proxy/diamond/writable/DiamondWritableInternal.sol\":3553:3561  facetCut */\n  dup5\n    /* \"@solidstate/contracts/proxy/diamond/writable/DiamondWritableInternal.sol\":3553:3571  facetCut.selectors */\n  0x40\n  add\n  mload\n    /* \"@solidstate/contracts/proxy/diamond/writable/DiamondWritableInternal.sol\":3572:3573  i */\n  dup3\n    /* \"@solidstate/contracts/proxy/diamond/writable/DiamondWritableInternal.sol\":3553:3574  facetCut.selectors[i] */\n  dup2\n  mload\n  dup2\n  lt\n  tag_160\n  jumpi\n  tag_160\n  tag_12\n  jump\t// in\ntag_160:\n  0x20\n  swap1\n  dup2\n  mul\n  swap2\n  swap1\n  swap2\n  add\n  dup2\n  add\n  mload\n  not(sub(shl(0xe0, 0x01), 0x01))\n    /* \"@solidstate/contracts/proxy/diamond/writable/DiamondWritableInternal.sol\":3611:3629  l.facets[selector] */\n  dup2\n  and\n    /* \"@solidstate/contracts/proxy/diamond/writable/DiamondWritableInternal.sol\":3592:3608  bytes32 oldFacet */\n  0x00\n    /* \"@solidstate/contracts/proxy/diamond/writable/DiamondWritableInternal.sol\":3611:3629  l.facets[selector] */\n  swap1\n  dup2\n  mstore\n  swap2\n  dup11\n  swap1\n  mstore\n  0x40\n  swap1\n  swap2\n  keccak256\n  sload\n    /* \"@solidstate/contracts/proxy/diamond/writable/DiamondWritableInternal.sol\":3553:3574  facetCut.selectors[i] */\n  swap1\n  swap2\n  pop\n    /* \"@solidstate/contracts/proxy/diamond/writable/DiamondWritableInternal.sol\":3652:3678  address(bytes20(oldFacet)) */\n  0x60\n  dup2\n  swap1\n  shr\n    /* \"@solidstate/contracts/proxy/diamond/writable/DiamondWritableInternal.sol\":3652:3692  address(bytes20(oldFacet)) != address(0) */\n  iszero\n    /* \"@solidstate/contracts/proxy/diamond/writable/DiamondWritableInternal.sol\":3648:3760  if (address(bytes20(oldFacet)) != address(0))... */\n  tag_161\n  jumpi\n    /* \"@solidstate/contracts/proxy/diamond/writable/DiamondWritableInternal.sol\":3721:3760  DiamondWritable__SelectorAlreadyAdded() */\n  mload(0x40)\n  shl(0xe1, 0x4923a771)\n  dup2\n  mstore\n  0x04\n  add\n  mload(0x40)\n  dup1\n  swap2\n  sub\n  swap1\n  revert\n    /* \"@solidstate/contracts/proxy/diamond/writable/DiamondWritableInternal.sol\":3648:3760  if (address(bytes20(oldFacet)) != address(0))... */\ntag_161:\n    /* \"@solidstate/contracts/proxy/diamond/writable/DiamondWritableInternal.sol\":3870:3885  facetCut.target */\n  dup6\n  mload\n  not(sub(shl(0xe0, 0x01), 0x01))\n    /* \"@solidstate/contracts/proxy/diamond/writable/DiamondWritableInternal.sol\":3821:3839  l.facets[selector] */\n  dup4\n  dup2\n  and\n    /* \"@solidstate/contracts/proxy/diamond/writable/DiamondWritableInternal.sol\":3909:3931  bytes32(selectorCount) */\n  0x00\n    /* \"@solidstate/contracts/proxy/diamond/writable/DiamondWritableInternal.sol\":3821:3839  l.facets[selector] */\n  dup2\n  dup2\n  mstore\n  0x20\n  dup14\n  swap1\n  mstore\n  0x40\n  swap1\n  keccak256\n    /* \"@solidstate/contracts/proxy/diamond/writable/DiamondWritableInternal.sol\":3862:3886  bytes20(facetCut.target) */\n  0x60\n  swap4\n  swap1\n  swap4\n  shl\n  not(sub(shl(0x60, 0x01), 0x01))\n    /* \"@solidstate/contracts/proxy/diamond/writable/DiamondWritableInternal.sol\":3862:3931  bytes20(facetCut.target) |... */\n  and\n  dup12\n  or\n    /* \"@solidstate/contracts/proxy/diamond/writable/DiamondWritableInternal.sol\":3821:3931  l.facets[selector] =... */\n  swap1\n  swap3\n  sstore\n    /* \"@solidstate/contracts/proxy/diamond/writable/DiamondWritableInternal.sol\":4005:4006  5 */\n  0x05\n    /* \"@solidstate/contracts/proxy/diamond/writable/DiamondWritableInternal.sol\":3982:4006  (selectorCount & 7) << 5 */\n  dup11\n  swap1\n  shl\n  0xe0\n  swap1\n  dup2\n  and\n    /* \"@solidstate/contracts/proxy/diamond/writable/DiamondWritableInternal.sol\":4241:4284  bytes32(selector) >> selectorInSlotPosition */\n  swap3\n  dup4\n  shr\n    /* \"@solidstate/contracts/proxy/diamond/writable/DiamondWritableInternal.sol\":4170:4215  CLEAR_SELECTOR_MASK >> selectorInSlotPosition */\n  swap2\n  dup4\n  shr\n    /* \"@solidstate/contracts/proxy/diamond/writable/DiamondWritableInternal.sol\":4168:4216  ~(CLEAR_SELECTOR_MASK >> selectorInSlotPosition) */\n  not\n    /* \"@solidstate/contracts/proxy/diamond/writable/DiamondWritableInternal.sol\":4129:4216  selectorSlot &... */\n  swap10\n  swap1\n  swap10\n  and\n    /* \"@solidstate/contracts/proxy/diamond/writable/DiamondWritableInternal.sol\":4128:4285  (selectorSlot &... */\n  or\n  swap8\n    /* \"@solidstate/contracts/proxy/diamond/writable/DiamondWritableInternal.sol\":4368:4397  selectorInSlotPosition == 224 */\n  dup2\n  swap1\n  sub\n    /* \"@solidstate/contracts/proxy/diamond/writable/DiamondWritableInternal.sol\":4364:4528  if (selectorInSlotPosition == 224) {... */\n  tag_162\n  jumpi\n    /* \"@solidstate/contracts/proxy/diamond/writable/DiamondWritableInternal.sol\":4454:4455  3 */\n  0x03\n    /* \"@solidstate/contracts/proxy/diamond/writable/DiamondWritableInternal.sol\":4437:4455  selectorCount >> 3 */\n  dup10\n  swap1\n  shr\n    /* \"@solidstate/contracts/proxy/diamond/writable/DiamondWritableInternal.sol\":4421:4456  l.selectorSlots[selectorCount >> 3] */\n  0x00\n  swap1\n  dup2\n  mstore\n    /* \"@solidstate/contracts/proxy/diamond/writable/DiamondWritableInternal.sol\":4421:4436  l.selectorSlots */\n  0x02\n  dup12\n  add\n    /* \"@solidstate/contracts/proxy/diamond/writable/DiamondWritableInternal.sol\":4421:4456  l.selectorSlots[selectorCount >> 3] */\n  0x20\n  mstore\n  0x40\n  dup2\n  keccak256\n    /* \"@solidstate/contracts/proxy/diamond/writable/DiamondWritableInternal.sol\":4421:4471  l.selectorSlots[selectorCount >> 3] = selectorSlot */\n  swap9\n  swap1\n  swap9\n  sstore\n    /* \"@solidstate/contracts/proxy/diamond/writable/DiamondWritableInternal.sol\":4364:4528  if (selectorInSlotPosition == 224) {... */\ntag_162:\n  pop\n  pop\n  pop\n    /* \"@solidstate/contracts/proxy/diamond/writable/DiamondWritableInternal.sol\":4546:4561  selectorCount++ */\n  0x01\n  swap6\n  dup7\n  add\n  swap6\n    /* \"@solidstate/contracts/proxy/diamond/writable/DiamondWritableInternal.sol\":3512:3515  i++ */\n  add\n    /* \"@solidstate/contracts/proxy/diamond/writable/DiamondWritableInternal.sol\":3465:4576  for (uint256 i; i < facetCut.selectors.length; i++) {... */\n  jump(tag_156)\ntag_157:\n  pop\n    /* \"@solidstate/contracts/proxy/diamond/writable/DiamondWritableInternal.sol\":4598:4611  selectorCount */\n  swap4\n  swap6\n    /* \"@solidstate/contracts/proxy/diamond/writable/DiamondWritableInternal.sol\":4613:4625  selectorSlot */\n  swap3\n  swap5\n  pop\n    /* \"@solidstate/contracts/proxy/diamond/writable/DiamondWritableInternal.sol\":2899:4643  function _addFacetSelectors(... */\n  swap2\n  swap3\n  pop\n  pop\n  pop\n  jump\t// out\n    /* \"@solidstate/contracts/proxy/diamond/writable/DiamondWritableInternal.sol\":8329:9409  function _replaceFacetSelectors(... */\ntag_118:\n    /* \"@solidstate/contracts/proxy/diamond/writable/DiamondWritableInternal.sol\":8494:8509  facetCut.target */\n  dup1\n  mload\n  sub(shl(0xa0, 0x01), 0x01)\n    /* \"@solidstate/contracts/proxy/diamond/writable/DiamondWritableInternal.sol\":8494:8520  facetCut.target.isContract */\n  and\n    /* \"@solidstate/contracts/utils/AddressUtils.sol\":569:589  extcodesize(account) */\n  extcodesize\n    /* \"@solidstate/contracts/proxy/diamond/writable/DiamondWritableInternal.sol\":8489:8581  if (!facetCut.target.isContract())... */\n  tag_165\n  jumpi\n    /* \"@solidstate/contracts/proxy/diamond/writable/DiamondWritableInternal.sol\":8547:8581  DiamondWritable__TargetHasNoCode() */\n  mload(0x40)\n  shl(0xe2, 0x3ddc5cab)\n  dup2\n  mstore\n  0x04\n  add\n  mload(0x40)\n  dup1\n  swap2\n  sub\n  swap1\n  revert\n    /* \"@solidstate/contracts/proxy/diamond/writable/DiamondWritableInternal.sol\":8489:8581  if (!facetCut.target.isContract())... */\ntag_165:\n    /* \"@solidstate/contracts/proxy/diamond/writable/DiamondWritableInternal.sol\":8601:8610  uint256 i */\n  0x00\n    /* \"@solidstate/contracts/proxy/diamond/writable/DiamondWritableInternal.sol\":8596:9393  for (uint256 i; i < facetCut.selectors.length; i++) {... */\ntag_166:\n    /* \"@solidstate/contracts/proxy/diamond/writable/DiamondWritableInternal.sol\":8616:8624  facetCut */\n  dup2\n    /* \"@solidstate/contracts/proxy/diamond/writable/DiamondWritableInternal.sol\":8616:8634  facetCut.selectors */\n  0x40\n  add\n  mload\n    /* \"@solidstate/contracts/proxy/diamond/writable/DiamondWritableInternal.sol\":8616:8641  facetCut.selectors.length */\n  mload\n    /* \"@solidstate/contracts/proxy/diamond/writable/DiamondWritableInternal.sol\":8612:8613  i */\n  dup2\n    /* \"@solidstate/contracts/proxy/diamond/writable/DiamondWritableInternal.sol\":8612:8641  i < facetCut.selectors.length */\n  lt\n    /* \"@solidstate/contracts/proxy/diamond/writable/DiamondWritableInternal.sol\":8596:9393  for (uint256 i; i < facetCut.selectors.length; i++) {... */\n  iszero\n  tag_167\n  jumpi\n    /* \"@solidstate/contracts/proxy/diamond/writable/DiamondWritableInternal.sol\":8666:8681  bytes4 selector */\n  0x00\n    /* \"@solidstate/contracts/proxy/diamond/writable/DiamondWritableInternal.sol\":8684:8692  facetCut */\n  dup3\n    /* \"@solidstate/contracts/proxy/diamond/writable/DiamondWritableInternal.sol\":8684:8702  facetCut.selectors */\n  0x40\n  add\n  mload\n    /* \"@solidstate/contracts/proxy/diamond/writable/DiamondWritableInternal.sol\":8703:8704  i */\n  dup3\n    /* \"@solidstate/contracts/proxy/diamond/writable/DiamondWritableInternal.sol\":8684:8705  facetCut.selectors[i] */\n  dup2\n  mload\n  dup2\n  lt\n  tag_170\n  jumpi\n  tag_170\n  tag_12\n  jump\t// in\ntag_170:\n  0x20\n  swap1\n  dup2\n  mul\n  swap2\n  swap1\n  swap2\n  add\n  dup2\n  add\n  mload\n  not(sub(shl(0xe0, 0x01), 0x01))\n    /* \"@solidstate/contracts/proxy/diamond/writable/DiamondWritableInternal.sol\":8742:8760  l.facets[selector] */\n  dup2\n  and\n    /* \"@solidstate/contracts/proxy/diamond/writable/DiamondWritableInternal.sol\":8723:8739  bytes32 oldFacet */\n  0x00\n    /* \"@solidstate/contracts/proxy/diamond/writable/DiamondWritableInternal.sol\":8742:8760  l.facets[selector] */\n  swap1\n  dup2\n  mstore\n  swap2\n  dup7\n  swap1\n  mstore\n  0x40\n  swap1\n  swap2\n  keccak256\n  sload\n    /* \"@solidstate/contracts/proxy/diamond/writable/DiamondWritableInternal.sol\":8684:8705  facetCut.selectors[i] */\n  swap1\n  swap2\n  pop\n    /* \"@solidstate/contracts/proxy/diamond/writable/DiamondWritableInternal.sol\":8804:8830  address(bytes20(oldFacet)) */\n  0x60\n  dup2\n  swap1\n  shr\n  dup1\n    /* \"@solidstate/contracts/proxy/diamond/writable/DiamondWritableInternal.sol\":8849:8946  if (oldFacetAddress == address(0))... */\n  tag_171\n  jumpi\n    /* \"@solidstate/contracts/proxy/diamond/writable/DiamondWritableInternal.sol\":8911:8946  DiamondWritable__SelectorNotFound() */\n  mload(0x40)\n  shl(0xe1, 0x37e25a97)\n  dup2\n  mstore\n  0x04\n  add\n  mload(0x40)\n  dup1\n  swap2\n  sub\n  swap1\n  revert\n    /* \"@solidstate/contracts/proxy/diamond/writable/DiamondWritableInternal.sol\":8849:8946  if (oldFacetAddress == address(0))... */\ntag_171:\n    /* \"@solidstate/contracts/proxy/diamond/writable/DiamondWritableInternal.sol\":8995:8999  this */\n  address\n  sub(shl(0xa0, 0x01), 0x01)\n    /* \"@solidstate/contracts/proxy/diamond/writable/DiamondWritableInternal.sol\":8968:9000  oldFacetAddress == address(this) */\n  dup3\n  and\n  sub\n    /* \"@solidstate/contracts/proxy/diamond/writable/DiamondWritableInternal.sol\":8964:9067  if (oldFacetAddress == address(this))... */\n  tag_172\n  jumpi\n    /* \"@solidstate/contracts/proxy/diamond/writable/DiamondWritableInternal.sol\":9029:9067  DiamondWritable__SelectorIsImmutable() */\n  mload(0x40)\n  shl(0xe0, 0xe9835731)\n  dup2\n  mstore\n  0x04\n  add\n  mload(0x40)\n  dup1\n  swap2\n  sub\n  swap1\n  revert\n    /* \"@solidstate/contracts/proxy/diamond/writable/DiamondWritableInternal.sol\":8964:9067  if (oldFacetAddress == address(this))... */\ntag_172:\n    /* \"@solidstate/contracts/proxy/diamond/writable/DiamondWritableInternal.sol\":9108:9116  facetCut */\n  dup5\n    /* \"@solidstate/contracts/proxy/diamond/writable/DiamondWritableInternal.sol\":9108:9123  facetCut.target */\n  0x00\n  add\n  mload\n  sub(shl(0xa0, 0x01), 0x01)\n    /* \"@solidstate/contracts/proxy/diamond/writable/DiamondWritableInternal.sol\":9089:9123  oldFacetAddress == facetCut.target */\n  and\n    /* \"@solidstate/contracts/proxy/diamond/writable/DiamondWritableInternal.sol\":9089:9104  oldFacetAddress */\n  dup2\n  sub(shl(0xa0, 0x01), 0x01)\n    /* \"@solidstate/contracts/proxy/diamond/writable/DiamondWritableInternal.sol\":9089:9123  oldFacetAddress == facetCut.target */\n  and\n  sub\n    /* \"@solidstate/contracts/proxy/diamond/writable/DiamondWritableInternal.sol\":9085:9195  if (oldFacetAddress == facetCut.target)... */\n  tag_173\n  jumpi\n    /* \"@solidstate/contracts/proxy/diamond/writable/DiamondWritableInternal.sol\":9152:9195  DiamondWritable__ReplaceTargetIsIdentical() */\n  mload(0x40)\n  shl(0xe1, 0x30baabf3)\n  dup2\n  mstore\n  0x04\n  add\n  mload(0x40)\n  dup1\n  swap2\n  sub\n  swap1\n  revert\n    /* \"@solidstate/contracts/proxy/diamond/writable/DiamondWritableInternal.sol\":9085:9195  if (oldFacetAddress == facetCut.target)... */\ntag_173:\n  pop\n    /* \"@solidstate/contracts/proxy/diamond/writable/DiamondWritableInternal.sol\":9362:9377  facetCut.target */\n  dup4\n  mload\n  not(sub(shl(0xe0, 0x01), 0x01))\n    /* \"@solidstate/contracts/proxy/diamond/writable/DiamondWritableInternal.sol\":9259:9277  l.facets[selector] */\n  swap3\n  swap1\n  swap3\n  and\n    /* \"@solidstate/contracts/proxy/diamond/writable/DiamondWritableInternal.sol\":9362:9377  facetCut.target */\n  0x00\n    /* \"@solidstate/contracts/proxy/diamond/writable/DiamondWritableInternal.sol\":9259:9277  l.facets[selector] */\n  swap1\n  dup2\n  mstore\n  0x20\n  dup7\n  swap1\n  mstore\n  0x40\n  swap1\n  keccak256\n    /* \"@solidstate/contracts/proxy/diamond/writable/DiamondWritableInternal.sol\":9354:9378  bytes20(facetCut.target) */\n  0x60\n  swap3\n  swap1\n  swap3\n  shl\n  not(sub(shl(0x60, 0x01), 0x01))\n    /* \"@solidstate/contracts/proxy/diamond/writable/DiamondWritableInternal.sol\":9300:9378  (oldFacet & CLEAR_ADDRESS_MASK) |... */\n  and\n  sub(shl(0x60, 0x01), 0x01)\n    /* \"@solidstate/contracts/proxy/diamond/writable/DiamondWritableInternal.sol\":9301:9330  oldFacet & CLEAR_ADDRESS_MASK */\n  swap2\n  swap1\n  swap2\n  and\n    /* \"@solidstate/contracts/proxy/diamond/writable/DiamondWritableInternal.sol\":9300:9378  (oldFacet & CLEAR_ADDRESS_MASK) |... */\n  or\n    /* \"@solidstate/contracts/proxy/diamond/writable/DiamondWritableInternal.sol\":9259:9378  l.facets[selector] =... */\n  swap1\n  sstore\n    /* \"@solidstate/contracts/proxy/diamond/writable/DiamondWritableInternal.sol\":8643:8646  i++ */\n  0x01\n  add\n    /* \"@solidstate/contracts/proxy/diamond/writable/DiamondWritableInternal.sol\":8596:9393  for (uint256 i; i < facetCut.selectors.length; i++) {... */\n  jump(tag_166)\ntag_167:\n  pop\n    /* \"@solidstate/contracts/proxy/diamond/writable/DiamondWritableInternal.sol\":8329:9409  function _replaceFacetSelectors(... */\n  pop\n  pop\n  jump\t// out\n    /* \"@solidstate/contracts/proxy/diamond/writable/DiamondWritableInternal.sol\":4649:8323  function _removeFacetSelectors(... */\ntag_126:\n    /* \"@solidstate/contracts/proxy/diamond/writable/DiamondWritableInternal.sol\":4900:4915  facetCut.target */\n  dup1\n  mload\n    /* \"@solidstate/contracts/proxy/diamond/writable/DiamondWritableInternal.sol\":4844:4851  uint256 */\n  0x00\n  swap1\n  dup2\n  swap1\n  sub(shl(0xa0, 0x01), 0x01)\n    /* \"@solidstate/contracts/proxy/diamond/writable/DiamondWritableInternal.sol\":4900:4929  facetCut.target != address(0) */\n  and\n  iszero\n    /* \"@solidstate/contracts/proxy/diamond/writable/DiamondWritableInternal.sol\":4896:4999  if (facetCut.target != address(0))... */\n  tag_175\n  jumpi\n    /* \"@solidstate/contracts/proxy/diamond/writable/DiamondWritableInternal.sol\":4954:4999  DiamondWritable__RemoveTargetNotZeroAddress() */\n  mload(0x40)\n  shl(0xe2, 0x3ab34909)\n  dup2\n  mstore\n  0x04\n  add\n  mload(0x40)\n  dup1\n  swap2\n  sub\n  swap1\n  revert\n    /* \"@solidstate/contracts/proxy/diamond/writable/DiamondWritableInternal.sol\":4896:4999  if (facetCut.target != address(0))... */\ntag_175:\n    /* \"@solidstate/contracts/proxy/diamond/writable/DiamondWritableInternal.sol\":5059:5060  3 */\n  0x03\n    /* \"@solidstate/contracts/proxy/diamond/writable/DiamondWritableInternal.sol\":5042:5060  selectorCount >> 3 */\n  dup6\n  swap1\n  shr\n    /* \"@solidstate/contracts/proxy/diamond/writable/DiamondWritableInternal.sol\":5120:5121  7 */\n  0x07\n    /* \"@solidstate/contracts/proxy/diamond/writable/DiamondWritableInternal.sol\":5104:5121  selectorCount & 7 */\n  dup7\n  and\n    /* \"@solidstate/contracts/proxy/diamond/writable/DiamondWritableInternal.sol\":5014:5039  uint256 selectorSlotCount */\n  0x00\n    /* \"@solidstate/contracts/proxy/diamond/writable/DiamondWritableInternal.sol\":5136:8179  for (uint256 i; i < facetCut.selectors.length; i++) {... */\ntag_176:\n    /* \"@solidstate/contracts/proxy/diamond/writable/DiamondWritableInternal.sol\":5156:5164  facetCut */\n  dup6\n    /* \"@solidstate/contracts/proxy/diamond/writable/DiamondWritableInternal.sol\":5156:5174  facetCut.selectors */\n  0x40\n  add\n  mload\n    /* \"@solidstate/contracts/proxy/diamond/writable/DiamondWritableInternal.sol\":5156:5181  facetCut.selectors.length */\n  mload\n    /* \"@solidstate/contracts/proxy/diamond/writable/DiamondWritableInternal.sol\":5152:5153  i */\n  dup2\n    /* \"@solidstate/contracts/proxy/diamond/writable/DiamondWritableInternal.sol\":5152:5181  i < facetCut.selectors.length */\n  lt\n    /* \"@solidstate/contracts/proxy/diamond/writable/DiamondWritableInternal.sol\":5136:8179  for (uint256 i; i < facetCut.selectors.length; i++) {... */\n  iszero\n  tag_177\n  jumpi\n    /* \"@solidstate/contracts/proxy/diamond/writable/DiamondWritableInternal.sol\":5206:5221  bytes4 selector */\n  0x00\n    /* \"@solidstate/contracts/proxy/diamond/writable/DiamondWritableInternal.sol\":5224:5232  facetCut */\n  dup7\n    /* \"@solidstate/contracts/proxy/diamond/writable/DiamondWritableInternal.sol\":5224:5242  facetCut.selectors */\n  0x40\n  add\n  mload\n    /* \"@solidstate/contracts/proxy/diamond/writable/DiamondWritableInternal.sol\":5243:5244  i */\n  dup3\n    /* \"@solidstate/contracts/proxy/diamond/writable/DiamondWritableInternal.sol\":5224:5245  facetCut.selectors[i] */\n  dup2\n  mload\n  dup2\n  lt\n  tag_180\n  jumpi\n  tag_180\n  tag_12\n  jump\t// in\ntag_180:\n  0x20\n  swap1\n  dup2\n  mul\n  swap2\n  swap1\n  swap2\n  add\n  dup2\n  add\n  mload\n  not(sub(shl(0xe0, 0x01), 0x01))\n    /* \"@solidstate/contracts/proxy/diamond/writable/DiamondWritableInternal.sol\":5282:5300  l.facets[selector] */\n  dup2\n  and\n    /* \"@solidstate/contracts/proxy/diamond/writable/DiamondWritableInternal.sol\":5263:5279  bytes32 oldFacet */\n  0x00\n    /* \"@solidstate/contracts/proxy/diamond/writable/DiamondWritableInternal.sol\":5282:5300  l.facets[selector] */\n  swap1\n  dup2\n  mstore\n  swap2\n  dup13\n  swap1\n  mstore\n  0x40\n  swap1\n  swap2\n  keccak256\n  sload\n    /* \"@solidstate/contracts/proxy/diamond/writable/DiamondWritableInternal.sol\":5224:5245  facetCut.selectors[i] */\n  swap1\n  swap2\n  pop\n    /* \"@solidstate/contracts/proxy/diamond/writable/DiamondWritableInternal.sol\":5323:5349  address(bytes20(oldFacet)) */\n  0x60\n  dup2\n  swap1\n  shr\n    /* \"@solidstate/contracts/proxy/diamond/writable/DiamondWritableInternal.sol\":5319:5427  if (address(bytes20(oldFacet)) == address(0))... */\n  tag_181\n  jumpi\n    /* \"@solidstate/contracts/proxy/diamond/writable/DiamondWritableInternal.sol\":5392:5427  DiamondWritable__SelectorNotFound() */\n  mload(0x40)\n  shl(0xe1, 0x37e25a97)\n  dup2\n  mstore\n  0x04\n  add\n  mload(0x40)\n  dup1\n  swap2\n  sub\n  swap1\n  revert\n    /* \"@solidstate/contracts/proxy/diamond/writable/DiamondWritableInternal.sol\":5319:5427  if (address(bytes20(oldFacet)) == address(0))... */\ntag_181:\n    /* \"@solidstate/contracts/proxy/diamond/writable/DiamondWritableInternal.sol\":5488:5492  this */\n  address\n    /* \"@solidstate/contracts/proxy/diamond/writable/DiamondWritableInternal.sol\":5450:5476  address(bytes20(oldFacet)) */\n  0x60\n  dup3\n  swap1\n  shr\n    /* \"@solidstate/contracts/proxy/diamond/writable/DiamondWritableInternal.sol\":5450:5493  address(bytes20(oldFacet)) == address(this) */\n  sub\n    /* \"@solidstate/contracts/proxy/diamond/writable/DiamondWritableInternal.sol\":5446:5560  if (address(bytes20(oldFacet)) == address(this))... */\n  tag_182\n  jumpi\n    /* \"@solidstate/contracts/proxy/diamond/writable/DiamondWritableInternal.sol\":5522:5560  DiamondWritable__SelectorIsImmutable() */\n  mload(0x40)\n  shl(0xe0, 0xe9835731)\n  dup2\n  mstore\n  0x04\n  add\n  mload(0x40)\n  dup1\n  swap2\n  sub\n  swap1\n  revert\n    /* \"@solidstate/contracts/proxy/diamond/writable/DiamondWritableInternal.sol\":5446:5560  if (address(bytes20(oldFacet)) == address(this))... */\ntag_182:\n    /* \"@solidstate/contracts/proxy/diamond/writable/DiamondWritableInternal.sol\":5599:5600  0 */\n  0x00\n    /* \"@solidstate/contracts/proxy/diamond/writable/DiamondWritableInternal.sol\":5583:5600  selectorSlot == 0 */\n  dup10\n  swap1\n  sub\n    /* \"@solidstate/contracts/proxy/diamond/writable/DiamondWritableInternal.sol\":5579:5846  if (selectorSlot == 0) {... */\n  tag_183\n  jumpi\n  not(0x00)\n    /* \"@solidstate/contracts/proxy/diamond/writable/DiamondWritableInternal.sol\":5624:5643  selectorSlotCount-- */\n  swap1\n  swap5\n  add\n    /* \"@solidstate/contracts/proxy/diamond/writable/DiamondWritableInternal.sol\":5680:5714  l.selectorSlots[selectorSlotCount] */\n  0x00\n  dup2\n  dup2\n  mstore\n    /* \"@solidstate/contracts/proxy/diamond/writable/DiamondWritableInternal.sol\":5680:5695  l.selectorSlots */\n  0x02\n  dup13\n  add\n    /* \"@solidstate/contracts/proxy/diamond/writable/DiamondWritableInternal.sol\":5680:5714  l.selectorSlots[selectorSlotCount] */\n  0x20\n  mstore\n  0x40\n  swap1\n  keccak256\n  sload\n  swap9\n  pop\n    /* \"@solidstate/contracts/proxy/diamond/writable/DiamondWritableInternal.sol\":5624:5643  selectorSlotCount-- */\n  swap4\n    /* \"@solidstate/contracts/proxy/diamond/writable/DiamondWritableInternal.sol\":5758:5759  7 */\n  0x07\n  swap4\n  pop\n    /* \"@solidstate/contracts/proxy/diamond/writable/DiamondWritableInternal.sol\":5579:5846  if (selectorSlot == 0) {... */\n  jump(tag_184)\ntag_183:\n  not(0x00)\n    /* \"@solidstate/contracts/proxy/diamond/writable/DiamondWritableInternal.sol\":5806:5827  selectorInSlotIndex-- */\n  swap1\n  swap4\n  add\n  swap3\n    /* \"@solidstate/contracts/proxy/diamond/writable/DiamondWritableInternal.sol\":5579:5846  if (selectorSlot == 0) {... */\ntag_184:\n    /* \"@solidstate/contracts/proxy/diamond/writable/DiamondWritableInternal.sol\":6249:6250  5 */\n  0x05\n    /* \"@solidstate/contracts/proxy/diamond/writable/DiamondWritableInternal.sol\":6226:6250  selectorInSlotIndex << 5 */\n  dup5\n  swap1\n  shl\n    /* \"@solidstate/contracts/proxy/diamond/writable/DiamondWritableInternal.sol\":6209:6251  selectorSlot << (selectorInSlotIndex << 5) */\n  dup10\n  swap1\n  shl\n    /* \"@solidstate/contracts/proxy/diamond/writable/DiamondWritableInternal.sol\":5864:5883  bytes4 lastSelector */\n  0x00\n  dup1\n  not(sub(shl(0xe0, 0x01), 0x01))\n    /* \"@solidstate/contracts/proxy/diamond/writable/DiamondWritableInternal.sol\":6300:6324  lastSelector != selector */\n  dup1\n  dup5\n  and\n  swap1\n  dup7\n  and\n  eq\n    /* \"@solidstate/contracts/proxy/diamond/writable/DiamondWritableInternal.sol\":6296:6588  if (lastSelector != selector) {... */\n  tag_185\n  jumpi\n  not(sub(shl(0xe0, 0x01), 0x01))\n    /* \"@solidstate/contracts/proxy/diamond/writable/DiamondWritableInternal.sol\":6542:6564  l.facets[lastSelector] */\n  dup4\n  and\n    /* \"@solidstate/contracts/proxy/diamond/writable/DiamondWritableInternal.sol\":6542:6550  l.facets */\n  0x00\n    /* \"@solidstate/contracts/proxy/diamond/writable/DiamondWritableInternal.sol\":6542:6564  l.facets[lastSelector] */\n  swap1\n  dup2\n  mstore\n  0x20\n  dup16\n  swap1\n  mstore\n  0x40\n  swap1\n  keccak256\n  dup1\n  sload\n  not(sub(shl(0x60, 0x01), 0x01))\n    /* \"@solidstate/contracts/proxy/diamond/writable/DiamondWritableInternal.sol\":6472:6565  (oldFacet & CLEAR_ADDRESS_MASK) |... */\n  and\n  sub(shl(0x60, 0x01), 0x01)\n    /* \"@solidstate/contracts/proxy/diamond/writable/DiamondWritableInternal.sol\":6473:6502  oldFacet & CLEAR_ADDRESS_MASK */\n  dup7\n  and\n    /* \"@solidstate/contracts/proxy/diamond/writable/DiamondWritableInternal.sol\":6472:6565  (oldFacet & CLEAR_ADDRESS_MASK) |... */\n  or\n    /* \"@solidstate/contracts/proxy/diamond/writable/DiamondWritableInternal.sol\":6419:6565  l.facets[lastSelector] =... */\n  swap1\n  sstore\n    /* \"@solidstate/contracts/proxy/diamond/writable/DiamondWritableInternal.sol\":6296:6588  if (lastSelector != selector) {... */\ntag_185:\n  pop\n  pop\n  not(sub(shl(0xe0, 0x01), 0x01))\n    /* \"@solidstate/contracts/proxy/diamond/writable/DiamondWritableInternal.sol\":6617:6635  l.facets[selector] */\n  dup4\n  and\n    /* \"@solidstate/contracts/proxy/diamond/writable/DiamondWritableInternal.sol\":6617:6625  l.facets */\n  0x00\n    /* \"@solidstate/contracts/proxy/diamond/writable/DiamondWritableInternal.sol\":6617:6635  l.facets[selector] */\n  swap1\n  dup2\n  mstore\n  0x20\n  dup14\n  swap1\n  mstore\n  0x40\n  dup2\n  keccak256\n    /* \"@solidstate/contracts/proxy/diamond/writable/DiamondWritableInternal.sol\":6610:6635  delete l.facets[selector] */\n  sstore\n    /* \"@solidstate/contracts/proxy/diamond/writable/DiamondWritableInternal.sol\":6755:6776  oldSelectorCount >> 3 */\n  0x1fff\n    /* \"@solidstate/contracts/proxy/diamond/writable/DiamondWritableInternal.sol\":6775:6776  3 */\n  0x03\n    /* \"@solidstate/contracts/proxy/diamond/writable/DiamondWritableInternal.sol\":6755:6776  oldSelectorCount >> 3 */\n  dup4\n  swap1\n  shr\n  and\n    /* \"@solidstate/contracts/proxy/diamond/writable/DiamondWritableInternal.sol\":6826:6853  (oldSelectorCount & 7) << 5 */\n  0xe0\n    /* \"@solidstate/contracts/proxy/diamond/writable/DiamondWritableInternal.sol\":6852:6853  5 */\n  0x05\n    /* \"@solidstate/contracts/proxy/diamond/writable/DiamondWritableInternal.sol\":6826:6853  (oldSelectorCount & 7) << 5 */\n  dup5\n  swap1\n  shl\n  and\n    /* \"@solidstate/contracts/proxy/diamond/writable/DiamondWritableInternal.sol\":6894:6936  oldSelectorsSlotCount != selectorSlotCount */\n  dup8\n  dup3\n  eq\n    /* \"@solidstate/contracts/proxy/diamond/writable/DiamondWritableInternal.sol\":6890:7997  if (oldSelectorsSlotCount != selectorSlotCount) {... */\n  tag_186\n  jumpi\n    /* \"@solidstate/contracts/proxy/diamond/writable/DiamondWritableInternal.sol\":6960:6983  bytes32 oldSelectorSlot */\n  0x00\n    /* \"@solidstate/contracts/proxy/diamond/writable/DiamondWritableInternal.sol\":6986:7070  l.selectorSlots[... */\n  dup3\n  dup2\n  mstore\n    /* \"@solidstate/contracts/proxy/diamond/writable/DiamondWritableInternal.sol\":6986:7001  l.selectorSlots */\n  0x02\n  dup16\n  add\n    /* \"@solidstate/contracts/proxy/diamond/writable/DiamondWritableInternal.sol\":6986:7070  l.selectorSlots[... */\n  0x20\n  mstore\n  0x40\n  swap1\n  keccak256\n  dup1\n  sload\n  not(sub(shl(0xe0, 0x01), 0x01))\n    /* \"@solidstate/contracts/proxy/diamond/writable/DiamondWritableInternal.sol\":7284:7364  CLEAR_SELECTOR_MASK >>... */\n  dup1\n  dup5\n  shr\n    /* \"@solidstate/contracts/proxy/diamond/writable/DiamondWritableInternal.sol\":7282:7365  ~(CLEAR_SELECTOR_MASK >>... */\n  not\n    /* \"@solidstate/contracts/proxy/diamond/writable/DiamondWritableInternal.sol\":7236:7365  oldSelectorSlot &... */\n  swap1\n  swap2\n  and\n    /* \"@solidstate/contracts/proxy/diamond/writable/DiamondWritableInternal.sol\":7394:7415  bytes32(lastSelector) */\n  swap1\n  dup6\n  and\n    /* \"@solidstate/contracts/proxy/diamond/writable/DiamondWritableInternal.sol\":7394:7444  bytes32(lastSelector) >> oldSelectorInSlotPosition */\n  dup4\n  shr\n    /* \"@solidstate/contracts/proxy/diamond/writable/DiamondWritableInternal.sol\":7235:7445  (oldSelectorSlot &... */\n  or\n    /* \"@solidstate/contracts/proxy/diamond/writable/DiamondWritableInternal.sol\":7529:7585  l.selectorSlots[oldSelectorsSlotCount] = oldSelectorSlot */\n  swap1\n  sstore\n    /* \"@solidstate/contracts/proxy/diamond/writable/DiamondWritableInternal.sol\":6890:7997  if (oldSelectorsSlotCount != selectorSlotCount) {... */\n  jump(tag_187)\ntag_186:\n    /* \"@solidstate/contracts/proxy/diamond/writable/DiamondWritableInternal.sol\":7952:7977  oldSelectorInSlotPosition */\n  dup1\n    /* \"@solidstate/contracts/proxy/diamond/writable/DiamondWritableInternal.sol\":7935:7947  lastSelector */\n  dup4\n  sub(shl(0xe0, 0x01), 0x01)\n    /* \"@solidstate/contracts/proxy/diamond/writable/DiamondWritableInternal.sol\":7927:7948  bytes32(lastSelector) */\n  not\n  and\n    /* \"@solidstate/contracts/proxy/diamond/writable/DiamondWritableInternal.sol\":7927:7977  bytes32(lastSelector) >> oldSelectorInSlotPosition */\n  swap1\n  shr\n    /* \"@solidstate/contracts/proxy/diamond/writable/DiamondWritableInternal.sol\":7872:7897  oldSelectorInSlotPosition */\n  dup2\n  not(sub(shl(0xe0, 0x01), 0x01))\n    /* \"@solidstate/contracts/proxy/diamond/writable/DiamondWritableInternal.sol\":540:575  bytes32(uint256(0xffffffff << 224)) */\n  0x00\n  shl\n    /* \"@solidstate/contracts/proxy/diamond/writable/DiamondWritableInternal.sol\":7817:7897  CLEAR_SELECTOR_MASK >>... */\n  swap1\n  shr\n    /* \"@solidstate/contracts/proxy/diamond/writable/DiamondWritableInternal.sol\":7815:7898  ~(CLEAR_SELECTOR_MASK >>... */\n  not\n    /* \"@solidstate/contracts/proxy/diamond/writable/DiamondWritableInternal.sol\":7772:7784  selectorSlot */\n  dup14\n    /* \"@solidstate/contracts/proxy/diamond/writable/DiamondWritableInternal.sol\":7772:7898  selectorSlot &... */\n  and\n    /* \"@solidstate/contracts/proxy/diamond/writable/DiamondWritableInternal.sol\":7771:7978  (selectorSlot &... */\n  or\n    /* \"@solidstate/contracts/proxy/diamond/writable/DiamondWritableInternal.sol\":7732:7978  selectorSlot =... */\n  swap12\n  pop\n    /* \"@solidstate/contracts/proxy/diamond/writable/DiamondWritableInternal.sol\":6890:7997  if (oldSelectorsSlotCount != selectorSlotCount) {... */\ntag_187:\n    /* \"@solidstate/contracts/proxy/diamond/writable/DiamondWritableInternal.sol\":8019:8038  selectorInSlotIndex */\n  dup7\n    /* \"@solidstate/contracts/proxy/diamond/writable/DiamondWritableInternal.sol\":8042:8043  0 */\n  0x00\n    /* \"@solidstate/contracts/proxy/diamond/writable/DiamondWritableInternal.sol\":8019:8043  selectorInSlotIndex == 0 */\n  sub\n    /* \"@solidstate/contracts/proxy/diamond/writable/DiamondWritableInternal.sol\":8015:8165  if (selectorInSlotIndex == 0) {... */\n  tag_188\n  jumpi\n    /* \"@solidstate/contracts/proxy/diamond/writable/DiamondWritableInternal.sol\":8074:8108  l.selectorSlots[selectorSlotCount] */\n  0x00\n  dup9\n  dup2\n  mstore\n    /* \"@solidstate/contracts/proxy/diamond/writable/DiamondWritableInternal.sol\":8074:8089  l.selectorSlots */\n  0x02\n  dup16\n  add\n    /* \"@solidstate/contracts/proxy/diamond/writable/DiamondWritableInternal.sol\":8074:8108  l.selectorSlots[selectorSlotCount] */\n  0x20\n  mstore\n  0x40\n  dup2\n  keccak256\n    /* \"@solidstate/contracts/proxy/diamond/writable/DiamondWritableInternal.sol\":8067:8108  delete l.selectorSlots[selectorSlotCount] */\n  dup2\n  swap1\n  sstore\n    /* \"@solidstate/contracts/proxy/diamond/writable/DiamondWritableInternal.sol\":8074:8108  l.selectorSlots[selectorSlotCount] */\n  swap12\n  pop\n    /* \"@solidstate/contracts/proxy/diamond/writable/DiamondWritableInternal.sol\":8015:8165  if (selectorInSlotIndex == 0) {... */\ntag_188:\n  pop\n  pop\n    /* \"@solidstate/contracts/proxy/diamond/writable/DiamondWritableInternal.sol\":5183:5186  i++ */\n  0x01\n  swap1\n  swap4\n  add\n  swap3\n  pop\n    /* \"@solidstate/contracts/proxy/diamond/writable/DiamondWritableInternal.sol\":5136:8179  for (uint256 i; i < facetCut.selectors.length; i++) {... */\n  tag_176\n  swap2\n  pop\n  pop\n  jump\ntag_177:\n  pop\n    /* \"@solidstate/contracts/proxy/diamond/writable/DiamondWritableInternal.sol\":8231:8232  3 */\n  0x03\n    /* \"@solidstate/contracts/proxy/diamond/writable/DiamondWritableInternal.sol\":8210:8232  selectorSlotCount << 3 */\n  swap2\n  swap1\n  swap2\n  shl\n    /* \"@solidstate/contracts/proxy/diamond/writable/DiamondWritableInternal.sol\":8209:8255  (selectorSlotCount << 3) | selectorInSlotIndex */\n  or\n  swap7\n    /* \"@solidstate/contracts/proxy/diamond/writable/DiamondWritableInternal.sol\":8293:8305  selectorSlot */\n  swap4\n  swap6\n  pop\n    /* \"@solidstate/contracts/proxy/diamond/writable/DiamondWritableInternal.sol\":4649:8323  function _removeFacetSelectors(... */\n  swap3\n  swap4\n  pop\n  pop\n  pop\n  pop\n  jump\t// out\n    /* \"@solidstate/contracts/proxy/diamond/writable/DiamondWritableInternal.sol\":9415:10078  function _initialize(address target, bytes memory data) private {... */\ntag_132:\n    /* \"@solidstate/contracts/proxy/diamond/writable/DiamondWritableInternal.sol\":9520:9531  data.length */\n  dup1\n  mload\n    /* \"@solidstate/contracts/proxy/diamond/writable/DiamondWritableInternal.sol\":9520:9536  data.length == 0 */\n  iszero\n  sub(shl(0xa0, 0x01), 0x01)\n    /* \"@solidstate/contracts/proxy/diamond/writable/DiamondWritableInternal.sol\":9494:9514  target == address(0) */\n  dup4\n  and\n  iszero\n    /* \"@solidstate/contracts/proxy/diamond/writable/DiamondWritableInternal.sol\":9493:9537  (target == address(0)) != (data.length == 0) */\n  eq\n    /* \"@solidstate/contracts/proxy/diamond/writable/DiamondWritableInternal.sol\":9489:9608  if ((target == address(0)) != (data.length == 0))... */\n  tag_190\n  jumpi\n    /* \"@solidstate/contracts/proxy/diamond/writable/DiamondWritableInternal.sol\":9558:9608  DiamondWritable__InvalidInitializationParameters() */\n  mload(0x40)\n  shl(0xe0, 0x26df4ccd)\n  dup2\n  mstore\n  0x04\n  add\n  mload(0x40)\n  dup1\n  swap2\n  sub\n  swap1\n  revert\n    /* \"@solidstate/contracts/proxy/diamond/writable/DiamondWritableInternal.sol\":9489:9608  if ((target == address(0)) != (data.length == 0))... */\ntag_190:\n  sub(shl(0xa0, 0x01), 0x01)\n    /* \"@solidstate/contracts/proxy/diamond/writable/DiamondWritableInternal.sol\":9623:9643  target != address(0) */\n  dup3\n  and\n  iszero\n    /* \"@solidstate/contracts/proxy/diamond/writable/DiamondWritableInternal.sol\":9619:10072  if (target != address(0)) {... */\n  tag_191\n  jumpi\n  sub(shl(0xa0, 0x01), 0x01)\n    /* \"@solidstate/contracts/proxy/diamond/writable/DiamondWritableInternal.sol\":9663:9686  target != address(this) */\n  dup3\n  and\n    /* \"@solidstate/contracts/proxy/diamond/writable/DiamondWritableInternal.sol\":9681:9685  this */\n  address\n    /* \"@solidstate/contracts/proxy/diamond/writable/DiamondWritableInternal.sol\":9663:9686  target != address(this) */\n  eq\n    /* \"@solidstate/contracts/proxy/diamond/writable/DiamondWritableInternal.sol\":9659:9808  if (target != address(this)) {... */\n  tag_194\n  jumpi\n  sub(shl(0xa0, 0x01), 0x01)\n    /* \"@solidstate/contracts/proxy/diamond/writable/DiamondWritableInternal.sol\":9711:9728  target.isContract */\n  dup3\n  and\n    /* \"@solidstate/contracts/utils/AddressUtils.sol\":569:589  extcodesize(account) */\n  extcodesize\n    /* \"@solidstate/contracts/proxy/diamond/writable/DiamondWritableInternal.sol\":9706:9793  if (!target.isContract())... */\n  tag_194\n  jumpi\n    /* \"@solidstate/contracts/proxy/diamond/writable/DiamondWritableInternal.sol\":9759:9793  DiamondWritable__TargetHasNoCode() */\n  mload(0x40)\n  shl(0xe2, 0x3ddc5cab)\n  dup2\n  mstore\n  0x04\n  add\n  mload(0x40)\n  dup1\n  swap2\n  sub\n  swap1\n  revert\n    /* \"@solidstate/contracts/proxy/diamond/writable/DiamondWritableInternal.sol\":9706:9793  if (!target.isContract())... */\ntag_194:\n    /* \"@solidstate/contracts/proxy/diamond/writable/DiamondWritableInternal.sol\":9823:9835  bool success */\n  0x00\n    /* \"@solidstate/contracts/proxy/diamond/writable/DiamondWritableInternal.sol\":9841:9847  target */\n  dup3\n  sub(shl(0xa0, 0x01), 0x01)\n    /* \"@solidstate/contracts/proxy/diamond/writable/DiamondWritableInternal.sol\":9841:9860  target.delegatecall */\n  and\n    /* \"@solidstate/contracts/proxy/diamond/writable/DiamondWritableInternal.sol\":9861:9865  data */\n  dup3\n    /* \"@solidstate/contracts/proxy/diamond/writable/DiamondWritableInternal.sol\":9841:9866  target.delegatecall(data) */\n  mload(0x40)\n  tag_195\n  swap2\n  swap1\n  tag_196\n  jump\t// in\ntag_195:\n  0x00\n  mload(0x40)\n  dup1\n  dup4\n  sub\n  dup2\n  dup6\n  gas\n  delegatecall\n  swap2\n  pop\n  pop\n  returndatasize\n  dup1\n  0x00\n  dup2\n  eq\n  tag_199\n  jumpi\n  mload(0x40)\n  swap2\n  pop\n  and(add(returndatasize, 0x3f), not(0x1f))\n  dup3\n  add\n  0x40\n  mstore\n  returndatasize\n  dup3\n  mstore\n  returndatasize\n  0x00\n  0x20\n  dup5\n  add\n  returndatacopy\n  jump(tag_198)\ntag_199:\n  0x60\n  swap2\n  pop\ntag_198:\n  pop\n    /* \"@solidstate/contracts/proxy/diamond/writable/DiamondWritableInternal.sol\":9822:9866  (bool success, ) = target.delegatecall(data) */\n  pop\n  swap1\n  pop\n    /* \"@solidstate/contracts/proxy/diamond/writable/DiamondWritableInternal.sol\":9886:9893  success */\n  dup1\n    /* \"@solidstate/contracts/proxy/diamond/writable/DiamondWritableInternal.sol\":9881:10062  if (!success) {... */\n  tag_167\n  jumpi\n    /* \"@solidstate/contracts/proxy/diamond/writable/DiamondWritableInternal.sol\":9965:9981  returndatasize() */\n  returndatasize\n    /* \"@solidstate/contracts/proxy/diamond/writable/DiamondWritableInternal.sol\":9962:9963  0 */\n  0x00\n  dup1\n    /* \"@solidstate/contracts/proxy/diamond/writable/DiamondWritableInternal.sol\":9944:9982  returndatacopy(0, 0, returndatasize()) */\n  returndatacopy\n    /* \"@solidstate/contracts/proxy/diamond/writable/DiamondWritableInternal.sol\":10013:10029  returndatasize() */\n  returndatasize\n    /* \"@solidstate/contracts/proxy/diamond/writable/DiamondWritableInternal.sol\":9962:9963  0 */\n  0x00\n    /* \"@solidstate/contracts/proxy/diamond/writable/DiamondWritableInternal.sol\":10003:10030  revert(0, returndatasize()) */\n  revert\n    /* \"@solidstate/contracts/proxy/diamond/writable/DiamondWritableInternal.sol\":9619:10072  if (target != address(0)) {... */\ntag_191:\n    /* \"@solidstate/contracts/proxy/diamond/writable/DiamondWritableInternal.sol\":9415:10078  function _initialize(address target, bytes memory data) private {... */\n  pop\n  pop\n  jump\t// out\n    /* \"#utility.yul\":146:378   */\ntag_9:\n    /* \"#utility.yul\":185:188   */\n  0x00\n    /* \"#utility.yul\":206:223   */\n  0x01\n  dup3\n  add\n    /* \"#utility.yul\":203:343   */\n  tag_220\n  jumpi\n    /* \"#utility.yul\":265:275   */\n  0x4e487b71\n    /* \"#utility.yul\":260:263   */\n  0xe0\n    /* \"#utility.yul\":256:276   */\n  shl\n    /* \"#utility.yul\":253:254   */\n  0x00\n    /* \"#utility.yul\":246:277   */\n  mstore\n    /* \"#utility.yul\":300:304   */\n  0x11\n    /* \"#utility.yul\":297:298   */\n  0x04\n    /* \"#utility.yul\":290:305   */\n  mstore\n    /* \"#utility.yul\":328:332   */\n  0x24\n    /* \"#utility.yul\":325:326   */\n  0x00\n    /* \"#utility.yul\":318:333   */\n  revert\n    /* \"#utility.yul\":203:343   */\ntag_220:\n  pop\n    /* \"#utility.yul\":370:371   */\n  0x01\n    /* \"#utility.yul\":359:372   */\n  add\n  swap1\n    /* \"#utility.yul\":146:378   */\n  jump\t// out\n    /* \"#utility.yul\":383:510   */\ntag_12:\n    /* \"#utility.yul\":444:454   */\n  0x4e487b71\n    /* \"#utility.yul\":439:442   */\n  0xe0\n    /* \"#utility.yul\":435:455   */\n  shl\n    /* \"#utility.yul\":432:433   */\n  0x00\n    /* \"#utility.yul\":425:456   */\n  mstore\n    /* \"#utility.yul\":475:479   */\n  0x32\n    /* \"#utility.yul\":472:473   */\n  0x04\n    /* \"#utility.yul\":465:480   */\n  mstore\n    /* \"#utility.yul\":499:503   */\n  0x24\n    /* \"#utility.yul\":496:497   */\n  0x00\n    /* \"#utility.yul\":489:504   */\n  revert\n    /* \"#utility.yul\":515:642   */\ntag_64:\n    /* \"#utility.yul\":576:586   */\n  0x4e487b71\n    /* \"#utility.yul\":571:574   */\n  0xe0\n    /* \"#utility.yul\":567:587   */\n  shl\n    /* \"#utility.yul\":564:565   */\n  0x00\n    /* \"#utility.yul\":557:588   */\n  mstore\n    /* \"#utility.yul\":607:611   */\n  0x21\n    /* \"#utility.yul\":604:605   */\n  0x04\n    /* \"#utility.yul\":597:612   */\n  mstore\n    /* \"#utility.yul\":631:635   */\n  0x24\n    /* \"#utility.yul\":628:629   */\n  0x00\n    /* \"#utility.yul\":621:636   */\n  revert\n    /* \"#utility.yul\":756:1006   */\ntag_215:\n    /* \"#utility.yul\":841:842   */\n  0x00\n    /* \"#utility.yul\":851:964   */\ntag_225:\n    /* \"#utility.yul\":865:871   */\n  dup4\n    /* \"#utility.yul\":862:863   */\n  dup2\n    /* \"#utility.yul\":859:872   */\n  lt\n    /* \"#utility.yul\":851:964   */\n  iszero\n  tag_227\n  jumpi\n    /* \"#utility.yul\":941:952   */\n  dup2\n  dup2\n  add\n    /* \"#utility.yul\":935:953   */\n  mload\n    /* \"#utility.yul\":922:933   */\n  dup4\n  dup3\n  add\n    /* \"#utility.yul\":915:954   */\n  mstore\n    /* \"#utility.yul\":887:889   */\n  0x20\n    /* \"#utility.yul\":880:890   */\n  add\n    /* \"#utility.yul\":851:964   */\n  jump(tag_225)\ntag_227:\n  pop\n  pop\n    /* \"#utility.yul\":998:999   */\n  0x00\n    /* \"#utility.yul\":980:996   */\n  swap2\n  add\n    /* \"#utility.yul\":973:1000   */\n  mstore\n    /* \"#utility.yul\":756:1006   */\n  jump\t// out\n    /* \"#utility.yul\":1011:1281   */\ntag_216:\n    /* \"#utility.yul\":1052:1055   */\n  0x00\n    /* \"#utility.yul\":1090:1095   */\n  dup2\n    /* \"#utility.yul\":1084:1096   */\n  mload\n    /* \"#utility.yul\":1117:1123   */\n  dup1\n    /* \"#utility.yul\":1112:1115   */\n  dup5\n    /* \"#utility.yul\":1105:1124   */\n  mstore\n    /* \"#utility.yul\":1133:1209   */\n  tag_229\n    /* \"#utility.yul\":1202:1208   */\n  dup2\n    /* \"#utility.yul\":1195:1199   */\n  0x20\n    /* \"#utility.yul\":1190:1193   */\n  dup7\n    /* \"#utility.yul\":1186:1200   */\n  add\n    /* \"#utility.yul\":1179:1183   */\n  0x20\n    /* \"#utility.yul\":1172:1177   */\n  dup7\n    /* \"#utility.yul\":1168:1184   */\n  add\n    /* \"#utility.yul\":1133:1209   */\n  tag_215\n  jump\t// in\ntag_229:\n    /* \"#utility.yul\":1263:1265   */\n  0x1f\n    /* \"#utility.yul\":1242:1257   */\n  add\n  not(0x1f)\n    /* \"#utility.yul\":1238:1267   */\n  and\n    /* \"#utility.yul\":1229:1268   */\n  swap3\n  swap1\n  swap3\n  add\n    /* \"#utility.yul\":1270:1274   */\n  0x20\n    /* \"#utility.yul\":1225:1275   */\n  add\n  swap3\n    /* \"#utility.yul\":1011:1281   */\n  swap2\n  pop\n  pop\n  jump\t// out\n    /* \"#utility.yul\":1286:3376   */\ntag_130:\n    /* \"#utility.yul\":1552:1556   */\n  0x00\n    /* \"#utility.yul\":1581:1583   */\n  0x60\n    /* \"#utility.yul\":1621:1623   */\n  dup1\n    /* \"#utility.yul\":1610:1619   */\n  dup4\n    /* \"#utility.yul\":1606:1624   */\n  add\n    /* \"#utility.yul\":1651:1653   */\n  0x60\n    /* \"#utility.yul\":1640:1649   */\n  dup5\n    /* \"#utility.yul\":1633:1654   */\n  mstore\n    /* \"#utility.yul\":1674:1680   */\n  dup1\n    /* \"#utility.yul\":1709:1715   */\n  dup8\n    /* \"#utility.yul\":1703:1716   */\n  mload\n    /* \"#utility.yul\":1740:1746   */\n  dup1\n    /* \"#utility.yul\":1732:1738   */\n  dup4\n    /* \"#utility.yul\":1725:1747   */\n  mstore\n    /* \"#utility.yul\":1766:1769   */\n  0x80\n    /* \"#utility.yul\":1756:1769   */\n  swap3\n  pop\n    /* \"#utility.yul\":1800:1803   */\n  0x80\n    /* \"#utility.yul\":1789:1798   */\n  dup7\n    /* \"#utility.yul\":1785:1804   */\n  add\n    /* \"#utility.yul\":1778:1804   */\n  swap2\n  pop\n    /* \"#utility.yul\":1863:1866   */\n  0x80\n    /* \"#utility.yul\":1853:1859   */\n  dup2\n    /* \"#utility.yul\":1850:1851   */\n  0x05\n    /* \"#utility.yul\":1846:1860   */\n  shl\n    /* \"#utility.yul\":1835:1844   */\n  dup8\n    /* \"#utility.yul\":1831:1861   */\n  add\n    /* \"#utility.yul\":1827:1867   */\n  add\n    /* \"#utility.yul\":1886:1890   */\n  0x20\n    /* \"#utility.yul\":1925:1927   */\n  dup1\n    /* \"#utility.yul\":1917:1923   */\n  dup12\n    /* \"#utility.yul\":1913:1928   */\n  add\n    /* \"#utility.yul\":1946:1947   */\n  0x00\n    /* \"#utility.yul\":1956:3205   */\ntag_231:\n    /* \"#utility.yul\":1970:1976   */\n  dup5\n    /* \"#utility.yul\":1967:1968   */\n  dup2\n    /* \"#utility.yul\":1964:1977   */\n  lt\n    /* \"#utility.yul\":1956:3205   */\n  iszero\n  tag_233\n  jumpi\n    /* \"#utility.yul\":2035:2057   */\n  dup10\n  dup5\n  sub\n  not(0x7f)\n    /* \"#utility.yul\":2031:2068   */\n  add\n    /* \"#utility.yul\":2019:2069   */\n  dup7\n  mstore\n    /* \"#utility.yul\":2092:2105   */\n  dup2\n  mload\n    /* \"#utility.yul\":2179:2188   */\n  dup1\n  mload\n  sub(shl(0xa0, 0x01), 0x01)\n    /* \"#utility.yul\":2175:2210   */\n  and\n    /* \"#utility.yul\":2160:2211   */\n  dup6\n  mstore\n    /* \"#utility.yul\":2250:2261   */\n  dup4\n  dup2\n  add\n    /* \"#utility.yul\":2244:2262   */\n  mload\n    /* \"#utility.yul\":2132:2147   */\n  dup10\n  dup7\n  add\n  swap1\n    /* \"#utility.yul\":2302:2303   */\n  0x03\n    /* \"#utility.yul\":2285:2304   */\n  dup2\n  lt\n    /* \"#utility.yul\":2275:2445   */\n  tag_234\n  jumpi\n    /* \"#utility.yul\":2355:2365   */\n  0x4e487b71\n    /* \"#utility.yul\":2350:2353   */\n  0xe0\n    /* \"#utility.yul\":2346:2366   */\n  shl\n    /* \"#utility.yul\":2343:2344   */\n  0x00\n    /* \"#utility.yul\":2336:2367   */\n  mstore\n    /* \"#utility.yul\":2394:2398   */\n  0x21\n    /* \"#utility.yul\":2391:2392   */\n  0x04\n    /* \"#utility.yul\":2384:2399   */\n  mstore\n    /* \"#utility.yul\":2426:2430   */\n  0x24\n    /* \"#utility.yul\":2423:2424   */\n  0x00\n    /* \"#utility.yul\":2416:2431   */\n  revert\n    /* \"#utility.yul\":2275:2445   */\ntag_234:\n    /* \"#utility.yul\":2465:2480   */\n  dup7\n  dup7\n  add\n    /* \"#utility.yul\":2458:2495   */\n  mstore\n    /* \"#utility.yul\":2518:2522   */\n  0x40\n    /* \"#utility.yul\":2563:2574   */\n  swap2\n  dup3\n  add\n    /* \"#utility.yul\":2557:2575   */\n  mload\n    /* \"#utility.yul\":2595:2610   */\n  swap2\n  dup7\n  add\n    /* \"#utility.yul\":2588:2615   */\n  dup11\n  swap1\n  mstore\n    /* \"#utility.yul\":2676:2697   */\n  dup2\n  mload\n    /* \"#utility.yul\":2710:2734   */\n  swap1\n  dup2\n  swap1\n  mstore\n    /* \"#utility.yul\":2800:2823   */\n  swap1\n  dup5\n  add\n  swap1\n  0x00\n  swap1\n    /* \"#utility.yul\":2756:2771   */\n  dup10\n  dup8\n  add\n  swap1\n    /* \"#utility.yul\":2861:3097   */\ntag_235:\n    /* \"#utility.yul\":2877:2885   */\n  dup1\n    /* \"#utility.yul\":2872:2875   */\n  dup4\n    /* \"#utility.yul\":2869:2886   */\n  lt\n    /* \"#utility.yul\":2861:3097   */\n  iszero\n  tag_237\n  jumpi\n    /* \"#utility.yul\":2958:2973   */\n  dup4\n  mload\n  not(sub(shl(0xe0, 0x01), 0x01))\n    /* \"#utility.yul\":2954:2996   */\n  and\n    /* \"#utility.yul\":2940:2997   */\n  dup3\n  mstore\n    /* \"#utility.yul\":3066:3083   */\n  swap3\n  dup7\n  add\n  swap3\n    /* \"#utility.yul\":2905:2906   */\n  0x01\n    /* \"#utility.yul\":2896:2907   */\n  swap3\n  swap1\n  swap3\n  add\n  swap2\n    /* \"#utility.yul\":3023:3037   */\n  swap1\n  dup7\n  add\n  swap1\n    /* \"#utility.yul\":2861:3097   */\n  jump(tag_235)\ntag_237:\n  pop\n    /* \"#utility.yul\":3183:3195   */\n  swap8\n  dup6\n  add\n  swap8\n    /* \"#utility.yul\":3120:3125   */\n  swap6\n  pop\n  pop\n  pop\n    /* \"#utility.yul\":3148:3163   */\n  swap1\n  dup3\n  add\n  swap1\n    /* \"#utility.yul\":1992:1993   */\n  0x01\n    /* \"#utility.yul\":1985:1994   */\n  add\n    /* \"#utility.yul\":1956:3205   */\n  jump(tag_231)\ntag_233:\n  pop\n  pop\n  sub(shl(0xa0, 0x01), 0x01)\n    /* \"#utility.yul\":713:744   */\n  dup11\n  and\n    /* \"#utility.yul\":3241:3259   */\n  swap1\n  dup9\n  add\n    /* \"#utility.yul\":701:745   */\n  mstore\n    /* \"#utility.yul\":3298:3320   */\n  dup7\n  dup2\n  sub\n    /* \"#utility.yul\":3291:3295   */\n  0x40\n    /* \"#utility.yul\":3276:3296   */\n  dup9\n  add\n    /* \"#utility.yul\":3269:3321   */\n  mstore\n    /* \"#utility.yul\":3338:3370   */\n  tag_239\n    /* \"#utility.yul\":3302:3308   */\n  dup2\n    /* \"#utility.yul\":3355:3361   */\n  dup10\n    /* \"#utility.yul\":3338:3370   */\n  tag_216\n  jump\t// in\ntag_239:\n    /* \"#utility.yul\":3330:3370   */\n  swap11\n    /* \"#utility.yul\":1286:3376   */\n  swap10\n  pop\n  pop\n  pop\n  pop\n  pop\n  pop\n  pop\n  pop\n  pop\n  pop\n  jump\t// out\n    /* \"#utility.yul\":3381:3668   */\ntag_196:\n    /* \"#utility.yul\":3510:3513   */\n  0x00\n    /* \"#utility.yul\":3548:3554   */\n  dup3\n    /* \"#utility.yul\":3542:3555   */\n  mload\n    /* \"#utility.yul\":3564:3630   */\n  tag_241\n    /* \"#utility.yul\":3623:3629   */\n  dup2\n    /* \"#utility.yul\":3618:3621   */\n  dup5\n    /* \"#utility.yul\":3611:3615   */\n  0x20\n    /* \"#utility.yul\":3603:3609   */\n  dup8\n    /* \"#utility.yul\":3599:3616   */\n  add\n    /* \"#utility.yul\":3564:3630   */\n  tag_215\n  jump\t// in\ntag_241:\n    /* \"#utility.yul\":3646:3662   */\n  swap2\n  swap1\n  swap2\n  add\n  swap3\n    /* \"#utility.yul\":3381:3668   */\n  swap2\n  pop\n  pop\n  jump\t// out\ntag_217:\n    /* \"Eip2535/FuncDiamond.sol\":123:170  contract FuncDiamond1 is SolidStateDiamond {... */\n  dataSize(sub_0)\n  dup1\n  dataOffset(sub_0)\n  0x00\n  codecopy\n  0x00\n  return\nstop\n\nsub_0: assembly {\n        /* \"Eip2535/FuncDiamond.sol\":123:170  contract FuncDiamond1 is SolidStateDiamond {... */\n      mstore(0x40, 0x80)\n      jumpi(tag_1, lt(calldatasize, 0x04))\n      shr(0xe0, calldataload(0x00))\n      dup1\n      0x8ab5150a\n      gt\n      tag_15\n      jumpi\n      dup1\n      0xadfca15e\n      gt\n      tag_16\n      jumpi\n      dup1\n      0xadfca15e\n      eq\n      tag_12\n      jumpi\n      dup1\n      0xcdffacc6\n      eq\n      tag_13\n      jumpi\n      dup1\n      0xf2fde38b\n      eq\n      tag_14\n      jumpi\n      jump(tag_2)\n    tag_16:\n      dup1\n      0x8ab5150a\n      eq\n      tag_9\n      jumpi\n      dup1\n      0x8da5cb5b\n      eq\n      tag_10\n      jumpi\n      dup1\n      0x91423765\n      eq\n      tag_11\n      jumpi\n      jump(tag_2)\n    tag_15:\n      dup1\n      0x52ef6b2c\n      gt\n      tag_17\n      jumpi\n      dup1\n      0x52ef6b2c\n      eq\n      tag_6\n      jumpi\n      dup1\n      0x79ba5097\n      eq\n      tag_7\n      jumpi\n      dup1\n      0x7a0ed627\n      eq\n      tag_8\n      jumpi\n      jump(tag_2)\n    tag_17:\n      dup1\n      0x01ffc9a7\n      eq\n      tag_3\n      jumpi\n      dup1\n      0x1f931c1c\n      eq\n      tag_4\n      jumpi\n      dup1\n      0x2c408059\n      eq\n      tag_5\n      jumpi\n      jump(tag_2)\n    tag_1:\n      jumpi(tag_2, calldatasize)\n      stop\n    tag_2:\n        /* \"@solidstate/contracts/proxy/Proxy.sol\":583:605  address implementation */\n      0x00\n        /* \"@solidstate/contracts/proxy/Proxy.sol\":608:628  _getImplementation() */\n      tag_22\n        /* \"@solidstate/contracts/proxy/Proxy.sol\":608:626  _getImplementation */\n      tag_23\n        /* \"@solidstate/contracts/proxy/Proxy.sol\":608:628  _getImplementation() */\n      jump\t// in\n    tag_22:\n        /* \"@solidstate/contracts/proxy/Proxy.sol\":583:628  address implementation = _getImplementation() */\n      swap1\n      pop\n      sub(shl(0xa0, 0x01), 0x01)\n        /* \"@solidstate/contracts/proxy/Proxy.sol\":644:669  implementation.isContract */\n      dup2\n      and\n        /* \"@solidstate/contracts/utils/AddressUtils.sol\":569:589  extcodesize(account) */\n      extcodesize\n        /* \"@solidstate/contracts/proxy/Proxy.sol\":639:728  if (!implementation.isContract())... */\n      tag_26\n      jumpi\n        /* \"@solidstate/contracts/proxy/Proxy.sol\":692:728  Proxy__ImplementationIsNotContract() */\n      mload(0x40)\n      0x87c9fc3400000000000000000000000000000000000000000000000000000000\n      dup2\n      mstore\n      0x04\n      add\n      mload(0x40)\n      dup1\n      swap2\n      sub\n      swap1\n      revert\n        /* \"@solidstate/contracts/proxy/Proxy.sol\":639:728  if (!implementation.isContract())... */\n    tag_26:\n        /* \"@solidstate/contracts/proxy/Proxy.sol\":781:795  calldatasize() */\n      calldatasize\n        /* \"@solidstate/contracts/proxy/Proxy.sol\":778:779  0 */\n      0x00\n        /* \"@solidstate/contracts/proxy/Proxy.sol\":775:776  0 */\n      dup1\n        /* \"@solidstate/contracts/proxy/Proxy.sol\":762:796  calldatacopy(0, 0, calldatasize()) */\n      calldatacopy\n        /* \"@solidstate/contracts/proxy/Proxy.sol\":978:979  0 */\n      0x00\n        /* \"@solidstate/contracts/proxy/Proxy.sol\":959:960  0 */\n      dup1\n        /* \"@solidstate/contracts/proxy/Proxy.sol\":927:941  calldatasize() */\n      calldatasize\n        /* \"@solidstate/contracts/proxy/Proxy.sol\":908:909  0 */\n      0x00\n        /* \"@solidstate/contracts/proxy/Proxy.sol\":876:890  implementation */\n      dup5\n        /* \"@solidstate/contracts/proxy/Proxy.sol\":853:858  gas() */\n      gas\n        /* \"@solidstate/contracts/proxy/Proxy.sol\":823:993  delegatecall(... */\n      delegatecall\n        /* \"@solidstate/contracts/proxy/Proxy.sol\":1027:1043  returndatasize() */\n      returndatasize\n        /* \"@solidstate/contracts/proxy/Proxy.sol\":1024:1025  0 */\n      0x00\n        /* \"@solidstate/contracts/proxy/Proxy.sol\":1021:1022  0 */\n      dup1\n        /* \"@solidstate/contracts/proxy/Proxy.sol\":1006:1044  returndatacopy(0, 0, returndatasize()) */\n      returndatacopy\n        /* \"@solidstate/contracts/proxy/Proxy.sol\":1065:1071  result */\n      dup1\n        /* \"@solidstate/contracts/proxy/Proxy.sol\":1084:1150  case 0 {... */\n      dup1\n      iszero\n      tag_28\n      jumpi\n        /* \"@solidstate/contracts/proxy/Proxy.sol\":1199:1215  returndatasize() */\n      returndatasize\n        /* \"@solidstate/contracts/proxy/Proxy.sol\":1196:1197  0 */\n      0x00\n        /* \"@solidstate/contracts/proxy/Proxy.sol\":1189:1216  return(0, returndatasize()) */\n      return\n        /* \"@solidstate/contracts/proxy/Proxy.sol\":1084:1150  case 0 {... */\n    tag_28:\n        /* \"@solidstate/contracts/proxy/Proxy.sol\":1119:1135  returndatasize() */\n      returndatasize\n        /* \"@solidstate/contracts/proxy/Proxy.sol\":1116:1117  0 */\n      0x00\n        /* \"@solidstate/contracts/proxy/Proxy.sol\":1109:1136  revert(0, returndatasize()) */\n      revert\n        /* \"@solidstate/contracts/proxy/Proxy.sol\":1058:1230  switch result... */\n    tag_27:\n      stop\n        /* \"@solidstate/contracts/introspection/ERC165/base/ERC165Base.sol\":445:574  function supportsInterface(bytes4 interfaceId) public view returns (bool) {... */\n    tag_3:\n      callvalue\n      dup1\n      iszero\n      tag_29\n      jumpi\n      0x00\n      dup1\n      revert\n    tag_29:\n      pop\n      tag_30\n      tag_31\n      calldatasize\n      0x04\n      tag_32\n      jump\t// in\n    tag_31:\n      tag_33\n      jump\t// in\n    tag_30:\n      mload(0x40)\n        /* \"#utility.yul\":592:606   */\n      swap1\n      iszero\n        /* \"#utility.yul\":585:607   */\n      iszero\n        /* \"#utility.yul\":567:608   */\n      dup2\n      mstore\n        /* \"#utility.yul\":555:557   */\n      0x20\n        /* \"#utility.yul\":540:558   */\n      add\n        /* \"@solidstate/contracts/introspection/ERC165/base/ERC165Base.sol\":445:574  function supportsInterface(bytes4 interfaceId) public view returns (bool) {... */\n    tag_34:\n      mload(0x40)\n      dup1\n      swap2\n      sub\n      swap1\n      return\n        /* \"@solidstate/contracts/proxy/diamond/writable/DiamondWritable.sol\":579:769  function diamondCut(... */\n    tag_4:\n      callvalue\n      dup1\n      iszero\n      tag_36\n      jumpi\n      0x00\n      dup1\n      revert\n    tag_36:\n      pop\n      tag_27\n      tag_38\n      calldatasize\n      0x04\n      tag_39\n      jump\t// in\n    tag_38:\n      tag_40\n      jump\t// in\n        /* \"@solidstate/contracts/proxy/diamond/fallback/DiamondFallback.sol\":540:702  function getFallbackAddress()... */\n    tag_5:\n      callvalue\n      dup1\n      iszero\n      tag_41\n      jumpi\n      0x00\n      dup1\n      revert\n    tag_41:\n      pop\n      tag_42\n      tag_43\n      jump\t// in\n    tag_42:\n      mload(0x40)\n      sub(shl(0xa0, 0x01), 0x01)\n        /* \"#utility.yul\":2482:2537   */\n      swap1\n      swap2\n      and\n        /* \"#utility.yul\":2464:2538   */\n      dup2\n      mstore\n        /* \"#utility.yul\":2452:2454   */\n      0x20\n        /* \"#utility.yul\":2437:2455   */\n      add\n        /* \"@solidstate/contracts/proxy/diamond/fallback/DiamondFallback.sol\":540:702  function getFallbackAddress()... */\n      tag_34\n        /* \"#utility.yul\":2318:2544   */\n      jump\n        /* \"@solidstate/contracts/proxy/diamond/readable/DiamondReadable.sol\":1031:1182  function facetAddresses()... */\n    tag_6:\n      callvalue\n      dup1\n      iszero\n      tag_46\n      jumpi\n      0x00\n      dup1\n      revert\n    tag_46:\n      pop\n      tag_47\n      tag_48\n      jump\t// in\n    tag_47:\n      mload(0x40)\n      tag_34\n      swap2\n      swap1\n      tag_50\n      jump\t// in\n        /* \"@solidstate/contracts/access/ownable/SafeOwnable.sol\":655:749  function acceptOwnership() public virtual onlyNomineeOwner {... */\n    tag_7:\n      callvalue\n      dup1\n      iszero\n      tag_51\n      jumpi\n      0x00\n      dup1\n      revert\n    tag_51:\n      pop\n      tag_27\n      tag_53\n      jump\t// in\n        /* \"@solidstate/contracts/proxy/diamond/readable/DiamondReadable.sol\":624:737  function facets() external view returns (Facet[] memory diamondFacets) {... */\n    tag_8:\n      callvalue\n      dup1\n      iszero\n      tag_54\n      jumpi\n      0x00\n      dup1\n      revert\n    tag_54:\n      pop\n      tag_55\n      tag_56\n      jump\t// in\n    tag_55:\n      mload(0x40)\n      tag_34\n      swap2\n      swap1\n      tag_58\n      jump\t// in\n        /* \"@solidstate/contracts/access/ownable/SafeOwnable.sol\":500:601  function nomineeOwner() public view virtual returns (address) {... */\n    tag_9:\n      callvalue\n      dup1\n      iszero\n      tag_59\n      jumpi\n      0x00\n      dup1\n      revert\n    tag_59:\n      pop\n      tag_42\n      tag_61\n      jump\t// in\n        /* \"@solidstate/contracts/access/ownable/Ownable.sol\":379:466  function owner() public view virtual returns (address) {... */\n    tag_10:\n      callvalue\n      dup1\n      iszero\n      tag_63\n      jumpi\n      0x00\n      dup1\n      revert\n    tag_63:\n      pop\n      tag_42\n      tag_65\n      jump\t// in\n        /* \"@solidstate/contracts/proxy/diamond/fallback/DiamondFallback.sol\":760:885  function setFallbackAddress(address fallbackAddress) external onlyOwner {... */\n    tag_11:\n      callvalue\n      dup1\n      iszero\n      tag_67\n      jumpi\n      0x00\n      dup1\n      revert\n    tag_67:\n      pop\n      tag_27\n      tag_69\n      calldatasize\n      0x04\n      tag_70\n      jump\t// in\n    tag_69:\n      tag_71\n      jump\t// in\n        /* \"@solidstate/contracts/proxy/diamond/readable/DiamondReadable.sol\":799:969  function facetFunctionSelectors(... */\n    tag_12:\n      callvalue\n      dup1\n      iszero\n      tag_72\n      jumpi\n      0x00\n      dup1\n      revert\n    tag_72:\n      pop\n      tag_73\n      tag_74\n      calldatasize\n      0x04\n      tag_70\n      jump\t// in\n    tag_74:\n      tag_75\n      jump\t// in\n    tag_73:\n      mload(0x40)\n      tag_34\n      swap2\n      swap1\n      tag_77\n      jump\t// in\n        /* \"@solidstate/contracts/proxy/diamond/readable/DiamondReadable.sol\":1244:1383  function facetAddress(... */\n    tag_13:\n      callvalue\n      dup1\n      iszero\n      tag_78\n      jumpi\n      0x00\n      dup1\n      revert\n    tag_78:\n      pop\n      tag_42\n      tag_80\n      calldatasize\n      0x04\n      tag_32\n      jump\t// in\n    tag_80:\n      tag_81\n      jump\t// in\n        /* \"@solidstate/contracts/access/ownable/Ownable.sol\":515:628  function transferOwnership(address account) public virtual onlyOwner {... */\n    tag_14:\n      callvalue\n      dup1\n      iszero\n      tag_83\n      jumpi\n      0x00\n      dup1\n      revert\n    tag_83:\n      pop\n      tag_27\n      tag_85\n      calldatasize\n      0x04\n      tag_70\n      jump\t// in\n    tag_85:\n      tag_86\n      jump\t// in\n        /* \"@solidstate/contracts/proxy/diamond/SolidStateDiamond.sol\":3456:3668  function _getImplementation()... */\n    tag_23:\n        /* \"@solidstate/contracts/proxy/diamond/SolidStateDiamond.sol\":3580:3602  address implementation */\n      0x00\n        /* \"@solidstate/contracts/proxy/diamond/SolidStateDiamond.sol\":3635:3661  super._getImplementation() */\n      tag_88\n        /* \"@solidstate/contracts/proxy/diamond/SolidStateDiamond.sol\":3635:3659  super._getImplementation */\n      tag_89\n        /* \"@solidstate/contracts/proxy/diamond/SolidStateDiamond.sol\":3635:3661  super._getImplementation() */\n      jump\t// in\n    tag_88:\n        /* \"@solidstate/contracts/proxy/diamond/SolidStateDiamond.sol\":3618:3661  implementation = super._getImplementation() */\n      swap1\n      pop\n        /* \"@solidstate/contracts/proxy/diamond/SolidStateDiamond.sol\":3456:3668  function _getImplementation()... */\n      swap1\n      jump\t// out\n        /* \"@solidstate/contracts/introspection/ERC165/base/ERC165Base.sol\":445:574  function supportsInterface(bytes4 interfaceId) public view returns (bool) {... */\n    tag_33:\n      not(sub(shl(0xe0, 0x01), 0x01))\n        /* \"@solidstate/contracts/introspection/ERC165/base/ERC165BaseInternal.sol\":629:688  ERC165BaseStorage.layout().supportedInterfaces[interfaceId] */\n      dup2\n      and\n        /* \"@solidstate/contracts/introspection/ERC165/base/ERC165Base.sol\":513:517  bool */\n      0x00\n        /* \"@solidstate/contracts/introspection/ERC165/base/ERC165BaseInternal.sol\":629:688  ERC165BaseStorage.layout().supportedInterfaces[interfaceId] */\n      swap1\n      dup2\n      mstore\n        /* \"@solidstate/contracts/introspection/ERC165/base/ERC165BaseStorage.sol\":220:272  keccak256('solidstate.contracts.storage.ERC165Base') */\n      0xfc606c433378e3a7e0a6a531deac289b66caa1b4aa8554fd4ab2c6f1570f92d8\n        /* \"@solidstate/contracts/introspection/ERC165/base/ERC165BaseInternal.sol\":629:688  ERC165BaseStorage.layout().supportedInterfaces[interfaceId] */\n      0x20\n      mstore\n      0x40\n      dup2\n      keccak256\n      sload\n      0xff\n      and\n        /* \"@solidstate/contracts/introspection/ERC165/base/ERC165Base.sol\":536:567  _supportsInterface(interfaceId) */\n    tag_92:\n        /* \"@solidstate/contracts/introspection/ERC165/base/ERC165Base.sol\":529:567  return _supportsInterface(interfaceId) */\n      swap3\n        /* \"@solidstate/contracts/introspection/ERC165/base/ERC165Base.sol\":445:574  function supportsInterface(bytes4 interfaceId) public view returns (bool) {... */\n      swap2\n      pop\n      pop\n      jump\t// out\n        /* \"@solidstate/contracts/proxy/diamond/writable/DiamondWritable.sol\":579:769  function diamondCut(... */\n    tag_40:\n        /* \"@solidstate/contracts/access/ownable/OwnableInternal.sol\":437:445  _owner() */\n      tag_95\n        /* \"@solidstate/contracts/access/ownable/OwnableInternal.sol\":437:443  _owner */\n      tag_96\n        /* \"@solidstate/contracts/access/ownable/OwnableInternal.sol\":437:445  _owner() */\n      jump\t// in\n    tag_95:\n      sub(shl(0xa0, 0x01), 0x01)\n        /* \"@solidstate/contracts/access/ownable/OwnableInternal.sol\":423:445  msg.sender != _owner() */\n      and\n        /* \"@solidstate/contracts/access/ownable/OwnableInternal.sol\":423:433  msg.sender */\n      caller\n      sub(shl(0xa0, 0x01), 0x01)\n        /* \"@solidstate/contracts/access/ownable/OwnableInternal.sol\":423:445  msg.sender != _owner() */\n      and\n      eq\n        /* \"@solidstate/contracts/access/ownable/OwnableInternal.sol\":419:473  if (msg.sender != _owner()) revert Ownable__NotOwner() */\n      tag_97\n      jumpi\n        /* \"@solidstate/contracts/access/ownable/OwnableInternal.sol\":454:473  Ownable__NotOwner() */\n      mload(0x40)\n      shl(0xe0, 0x2f7a8ee1)\n      dup2\n      mstore\n      0x04\n      add\n      mload(0x40)\n      dup1\n      swap2\n      sub\n      swap1\n      revert\n        /* \"@solidstate/contracts/access/ownable/OwnableInternal.sol\":419:473  if (msg.sender != _owner()) revert Ownable__NotOwner() */\n    tag_97:\n        /* \"@solidstate/contracts/proxy/diamond/writable/DiamondWritable.sol\":726:762  _diamondCut(facetCuts, target, data) */\n      tag_99\n      tag_100\n        /* \"@solidstate/contracts/proxy/diamond/writable/DiamondWritable.sol\":738:747  facetCuts */\n      dup6\n      dup8\n        /* \"@solidstate/contracts/proxy/diamond/writable/DiamondWritable.sol\":726:762  _diamondCut(facetCuts, target, data) */\n      tag_101\n      jump\t// in\n    tag_100:\n        /* \"@solidstate/contracts/proxy/diamond/writable/DiamondWritable.sol\":749:755  target */\n      dup5\n        /* \"@solidstate/contracts/proxy/diamond/writable/DiamondWritable.sol\":757:761  data */\n      dup5\n      dup5\n        /* \"@solidstate/contracts/proxy/diamond/writable/DiamondWritable.sol\":726:762  _diamondCut(facetCuts, target, data) */\n      dup1\n      dup1\n      0x1f\n      add\n      0x20\n      dup1\n      swap2\n      div\n      mul\n      0x20\n      add\n      mload(0x40)\n      swap1\n      dup2\n      add\n      0x40\n      mstore\n      dup1\n      swap4\n      swap3\n      swap2\n      swap1\n      dup2\n      dup2\n      mstore\n      0x20\n      add\n      dup4\n      dup4\n      dup1\n      dup3\n      dup5\n      calldatacopy\n      0x00\n      swap3\n      add\n      swap2\n      swap1\n      swap2\n      mstore\n      pop\n        /* \"@solidstate/contracts/proxy/diamond/writable/DiamondWritable.sol\":726:737  _diamondCut */\n      tag_102\n      swap3\n      pop\n      pop\n      pop\n        /* \"@solidstate/contracts/proxy/diamond/writable/DiamondWritable.sol\":726:762  _diamondCut(facetCuts, target, data) */\n      jump\t// in\n    tag_99:\n        /* \"@solidstate/contracts/proxy/diamond/writable/DiamondWritable.sol\":579:769  function diamondCut(... */\n      pop\n      pop\n      pop\n      pop\n      pop\n      jump\t// out\n        /* \"@solidstate/contracts/proxy/diamond/fallback/DiamondFallback.sol\":540:702  function getFallbackAddress()... */\n    tag_43:\n        /* \"@solidstate/contracts/proxy/diamond/fallback/DiamondFallback.sol\":617:640  address fallbackAddress */\n      0x00\n        /* \"@solidstate/contracts/proxy/diamond/fallback/DiamondFallback.sol\":674:695  _getFallbackAddress() */\n      tag_88\n        /* \"@solidstate/contracts/proxy/diamond/fallback/DiamondFallback.sol\":1621:1664  DiamondBaseStorage.layout().fallbackAddress */\n      and(sub(shl(0xa0, 0x01), 0x01), sload(0x177481ac65e4292921c69f62d1cc7f57541261e5d61c8175cf4e36a01c9bfc96))\n      swap1\n        /* \"@solidstate/contracts/proxy/diamond/fallback/DiamondFallback.sol\":1470:1671  function _getFallbackAddress()... */\n      jump\n        /* \"@solidstate/contracts/proxy/diamond/readable/DiamondReadable.sol\":1031:1182  function facetAddresses()... */\n    tag_48:\n        /* \"@solidstate/contracts/proxy/diamond/readable/DiamondReadable.sol\":1104:1130  address[] memory addresses */\n      0x60\n        /* \"@solidstate/contracts/proxy/diamond/readable/DiamondReadable.sol\":1158:1175  _facetAddresses() */\n      tag_88\n        /* \"@solidstate/contracts/proxy/diamond/readable/DiamondReadable.sol\":1158:1173  _facetAddresses */\n      tag_108\n        /* \"@solidstate/contracts/proxy/diamond/readable/DiamondReadable.sol\":1158:1175  _facetAddresses() */\n      jump\t// in\n        /* \"@solidstate/contracts/access/ownable/SafeOwnable.sol\":655:749  function acceptOwnership() public virtual onlyNomineeOwner {... */\n    tag_53:\n        /* \"@solidstate/contracts/access/ownable/SafeOwnableInternal.sol\":388:403  _nomineeOwner() */\n      tag_110\n        /* \"@solidstate/contracts/access/ownable/SafeOwnableInternal.sol\":388:401  _nomineeOwner */\n      tag_111\n        /* \"@solidstate/contracts/access/ownable/SafeOwnableInternal.sol\":388:403  _nomineeOwner() */\n      jump\t// in\n    tag_110:\n      sub(shl(0xa0, 0x01), 0x01)\n        /* \"@solidstate/contracts/access/ownable/SafeOwnableInternal.sol\":374:403  msg.sender != _nomineeOwner() */\n      and\n        /* \"@solidstate/contracts/access/ownable/SafeOwnableInternal.sol\":374:384  msg.sender */\n      caller\n      sub(shl(0xa0, 0x01), 0x01)\n        /* \"@solidstate/contracts/access/ownable/SafeOwnableInternal.sol\":374:403  msg.sender != _nomineeOwner() */\n      and\n      eq\n        /* \"@solidstate/contracts/access/ownable/SafeOwnableInternal.sol\":370:454  if (msg.sender != _nomineeOwner())... */\n      tag_112\n      jumpi\n        /* \"@solidstate/contracts/access/ownable/SafeOwnableInternal.sol\":424:454  SafeOwnable__NotNomineeOwner() */\n      mload(0x40)\n      0xefd1052d00000000000000000000000000000000000000000000000000000000\n      dup2\n      mstore\n      0x04\n      add\n      mload(0x40)\n      dup1\n      swap2\n      sub\n      swap1\n      revert\n        /* \"@solidstate/contracts/access/ownable/SafeOwnableInternal.sol\":370:454  if (msg.sender != _nomineeOwner())... */\n    tag_112:\n        /* \"@solidstate/contracts/access/ownable/SafeOwnable.sol\":724:742  _acceptOwnership() */\n      tag_114\n        /* \"@solidstate/contracts/access/ownable/SafeOwnable.sol\":724:740  _acceptOwnership */\n      tag_115\n        /* \"@solidstate/contracts/access/ownable/SafeOwnable.sol\":724:742  _acceptOwnership() */\n      jump\t// in\n    tag_114:\n        /* \"@solidstate/contracts/access/ownable/SafeOwnable.sol\":655:749  function acceptOwnership() public virtual onlyNomineeOwner {... */\n      jump\t// out\n        /* \"@solidstate/contracts/proxy/diamond/readable/DiamondReadable.sol\":624:737  function facets() external view returns (Facet[] memory diamondFacets) {... */\n    tag_56:\n        /* \"@solidstate/contracts/proxy/diamond/readable/DiamondReadable.sol\":665:693  Facet[] memory diamondFacets */\n      0x60\n        /* \"@solidstate/contracts/proxy/diamond/readable/DiamondReadable.sol\":721:730  _facets() */\n      tag_88\n        /* \"@solidstate/contracts/proxy/diamond/readable/DiamondReadable.sol\":721:728  _facets */\n      tag_118\n        /* \"@solidstate/contracts/proxy/diamond/readable/DiamondReadable.sol\":721:730  _facets() */\n      jump\t// in\n        /* \"@solidstate/contracts/access/ownable/SafeOwnable.sol\":500:601  function nomineeOwner() public view virtual returns (address) {... */\n    tag_61:\n        /* \"@solidstate/contracts/access/ownable/SafeOwnable.sol\":553:560  address */\n      0x00\n        /* \"@solidstate/contracts/access/ownable/SafeOwnable.sol\":579:594  _nomineeOwner() */\n      tag_88\n        /* \"@solidstate/contracts/access/ownable/SafeOwnable.sol\":579:592  _nomineeOwner */\n      tag_111\n        /* \"@solidstate/contracts/access/ownable/SafeOwnable.sol\":579:594  _nomineeOwner() */\n      jump\t// in\n        /* \"@solidstate/contracts/access/ownable/Ownable.sol\":379:466  function owner() public view virtual returns (address) {... */\n    tag_65:\n        /* \"@solidstate/contracts/access/ownable/Ownable.sol\":425:432  address */\n      0x00\n        /* \"@solidstate/contracts/access/ownable/Ownable.sol\":451:459  _owner() */\n      tag_88\n        /* \"@solidstate/contracts/access/ownable/Ownable.sol\":451:457  _owner */\n      tag_96\n        /* \"@solidstate/contracts/access/ownable/Ownable.sol\":451:459  _owner() */\n      jump\t// in\n        /* \"@solidstate/contracts/proxy/diamond/fallback/DiamondFallback.sol\":760:885  function setFallbackAddress(address fallbackAddress) external onlyOwner {... */\n    tag_71:\n        /* \"@solidstate/contracts/access/ownable/OwnableInternal.sol\":437:445  _owner() */\n      tag_124\n        /* \"@solidstate/contracts/access/ownable/OwnableInternal.sol\":437:443  _owner */\n      tag_96\n        /* \"@solidstate/contracts/access/ownable/OwnableInternal.sol\":437:445  _owner() */\n      jump\t// in\n    tag_124:\n      sub(shl(0xa0, 0x01), 0x01)\n        /* \"@solidstate/contracts/access/ownable/OwnableInternal.sol\":423:445  msg.sender != _owner() */\n      and\n        /* \"@solidstate/contracts/access/ownable/OwnableInternal.sol\":423:433  msg.sender */\n      caller\n      sub(shl(0xa0, 0x01), 0x01)\n        /* \"@solidstate/contracts/access/ownable/OwnableInternal.sol\":423:445  msg.sender != _owner() */\n      and\n      eq\n        /* \"@solidstate/contracts/access/ownable/OwnableInternal.sol\":419:473  if (msg.sender != _owner()) revert Ownable__NotOwner() */\n      tag_125\n      jumpi\n        /* \"@solidstate/contracts/access/ownable/OwnableInternal.sol\":454:473  Ownable__NotOwner() */\n      mload(0x40)\n      shl(0xe0, 0x2f7a8ee1)\n      dup2\n      mstore\n      0x04\n      add\n      mload(0x40)\n      dup1\n      swap2\n      sub\n      swap1\n      revert\n        /* \"@solidstate/contracts/access/ownable/OwnableInternal.sol\":419:473  if (msg.sender != _owner()) revert Ownable__NotOwner() */\n    tag_125:\n        /* \"@solidstate/contracts/proxy/diamond/fallback/DiamondFallback.sol\":1901:1944  DiamondBaseStorage.layout().fallbackAddress */\n      0x177481ac65e4292921c69f62d1cc7f57541261e5d61c8175cf4e36a01c9bfc96\n        /* \"@solidstate/contracts/proxy/diamond/fallback/DiamondFallback.sol\":1901:1962  DiamondBaseStorage.layout().fallbackAddress = fallbackAddress */\n      dup1\n      sload\n      not(0xffffffffffffffffffffffffffffffffffffffff)\n      and\n      sub(shl(0xa0, 0x01), 0x01)\n      dup4\n      and\n      or\n      swap1\n      sstore\n        /* \"@solidstate/contracts/proxy/diamond/fallback/DiamondFallback.sol\":760:885  function setFallbackAddress(address fallbackAddress) external onlyOwner {... */\n      pop\n      jump\t// out\n        /* \"@solidstate/contracts/proxy/diamond/fallback/DiamondFallback.sol\":842:878  _setFallbackAddress(fallbackAddress) */\n    tag_127:\n        /* \"@solidstate/contracts/proxy/diamond/fallback/DiamondFallback.sol\":760:885  function setFallbackAddress(address fallbackAddress) external onlyOwner {... */\n      pop\n      jump\t// out\n        /* \"@solidstate/contracts/proxy/diamond/readable/DiamondReadable.sol\":799:969  function facetFunctionSelectors(... */\n    tag_75:\n        /* \"@solidstate/contracts/proxy/diamond/readable/DiamondReadable.sol\":883:908  bytes4[] memory selectors */\n      0x60\n        /* \"@solidstate/contracts/proxy/diamond/readable/DiamondReadable.sol\":932:962  _facetFunctionSelectors(facet) */\n      tag_92\n        /* \"@solidstate/contracts/proxy/diamond/readable/DiamondReadable.sol\":956:961  facet */\n      dup3\n        /* \"@solidstate/contracts/proxy/diamond/readable/DiamondReadable.sol\":932:955  _facetFunctionSelectors */\n      tag_131\n        /* \"@solidstate/contracts/proxy/diamond/readable/DiamondReadable.sol\":932:962  _facetFunctionSelectors(facet) */\n      jump\t// in\n        /* \"@solidstate/contracts/proxy/diamond/readable/DiamondReadable.sol\":1244:1383  function facetAddress(... */\n    tag_81:\n      not(sub(shl(0xe0, 0x01), 0x01))\n        /* \"@solidstate/contracts/proxy/diamond/readable/DiamondReadableInternal.sol\":6413:6457  DiamondBaseStorage.layout().facets[selector] */\n      dup2\n      and\n        /* \"@solidstate/contracts/proxy/diamond/readable/DiamondReadable.sol\":1320:1333  address facet */\n      0x00\n        /* \"@solidstate/contracts/proxy/diamond/readable/DiamondReadableInternal.sol\":6413:6457  DiamondBaseStorage.layout().facets[selector] */\n      swap1\n      dup2\n      mstore\n        /* \"@solidstate/contracts/proxy/diamond/base/DiamondBaseStorage.sol\":585:638  keccak256('solidstate.contracts.storage.DiamondBase') */\n      0x177481ac65e4292921c69f62d1cc7f57541261e5d61c8175cf4e36a01c9bfc93\n        /* \"@solidstate/contracts/proxy/diamond/readable/DiamondReadableInternal.sol\":6413:6457  DiamondBaseStorage.layout().facets[selector] */\n      0x20\n      mstore\n      0x40\n      dup2\n      keccak256\n      sload\n        /* \"@solidstate/contracts/proxy/diamond/readable/DiamondReadableInternal.sol\":6397:6459  address(bytes20(DiamondBaseStorage.layout().facets[selector])) */\n      0x60\n      shr\n        /* \"@solidstate/contracts/proxy/diamond/readable/DiamondReadable.sol\":1353:1376  _facetAddress(selector) */\n      tag_92\n        /* \"@solidstate/contracts/proxy/diamond/readable/DiamondReadableInternal.sol\":6287:6466  function _facetAddress(... */\n      jump\n        /* \"@solidstate/contracts/access/ownable/Ownable.sol\":515:628  function transferOwnership(address account) public virtual onlyOwner {... */\n    tag_86:\n        /* \"@solidstate/contracts/access/ownable/OwnableInternal.sol\":437:445  _owner() */\n      tag_136\n        /* \"@solidstate/contracts/access/ownable/OwnableInternal.sol\":437:443  _owner */\n      tag_96\n        /* \"@solidstate/contracts/access/ownable/OwnableInternal.sol\":437:445  _owner() */\n      jump\t// in\n    tag_136:\n      sub(shl(0xa0, 0x01), 0x01)\n        /* \"@solidstate/contracts/access/ownable/OwnableInternal.sol\":423:445  msg.sender != _owner() */\n      and\n        /* \"@solidstate/contracts/access/ownable/OwnableInternal.sol\":423:433  msg.sender */\n      caller\n      sub(shl(0xa0, 0x01), 0x01)\n        /* \"@solidstate/contracts/access/ownable/OwnableInternal.sol\":423:445  msg.sender != _owner() */\n      and\n      eq\n        /* \"@solidstate/contracts/access/ownable/OwnableInternal.sol\":419:473  if (msg.sender != _owner()) revert Ownable__NotOwner() */\n      tag_137\n      jumpi\n        /* \"@solidstate/contracts/access/ownable/OwnableInternal.sol\":454:473  Ownable__NotOwner() */\n      mload(0x40)\n      shl(0xe0, 0x2f7a8ee1)\n      dup2\n      mstore\n      0x04\n      add\n      mload(0x40)\n      dup1\n      swap2\n      sub\n      swap1\n      revert\n        /* \"@solidstate/contracts/access/ownable/OwnableInternal.sol\":419:473  if (msg.sender != _owner()) revert Ownable__NotOwner() */\n    tag_137:\n        /* \"@solidstate/contracts/access/ownable/Ownable.sol\":594:621  _transferOwnership(account) */\n      tag_127\n        /* \"@solidstate/contracts/access/ownable/Ownable.sol\":613:620  account */\n      dup2\n        /* \"@solidstate/contracts/access/ownable/Ownable.sol\":594:612  _transferOwnership */\n      tag_140\n        /* \"@solidstate/contracts/access/ownable/Ownable.sol\":594:621  _transferOwnership(account) */\n      jump\t// in\n        /* \"@solidstate/contracts/proxy/diamond/fallback/DiamondFallback.sol\":1013:1318  function _getImplementation()... */\n    tag_89:\n        /* \"@solidstate/contracts/proxy/diamond/fallback/DiamondFallback.sol\":1123:1145  address implementation */\n      0x00\n        /* \"@solidstate/contracts/proxy/diamond/base/DiamondBase.sol\":986:993  msg.sig */\n      dup1\n      calldataload\n      not(sub(shl(0xe0, 0x01), 0x01))\n      and\n        /* \"@solidstate/contracts/proxy/diamond/base/DiamondBase.sol\":977:994  l.facets[msg.sig] */\n      dup2\n      mstore\n        /* \"@solidstate/contracts/proxy/diamond/base/DiamondBaseStorage.sol\":585:638  keccak256('solidstate.contracts.storage.DiamondBase') */\n      0x177481ac65e4292921c69f62d1cc7f57541261e5d61c8175cf4e36a01c9bfc93\n        /* \"@solidstate/contracts/proxy/diamond/base/DiamondBase.sol\":977:994  l.facets[msg.sig] */\n      0x20\n      mstore\n      0x40\n      swap1\n      keccak256\n      sload\n        /* \"@solidstate/contracts/proxy/diamond/base/DiamondBase.sol\":961:996  address(bytes20(l.facets[msg.sig])) */\n      0x60\n      shr\n      dup1\n        /* \"@solidstate/contracts/proxy/diamond/fallback/DiamondFallback.sol\":1215:1312  if (implementation == address(0)) {... */\n      tag_144\n      jumpi\n      pop\n        /* \"@solidstate/contracts/proxy/diamond/fallback/DiamondFallback.sol\":1621:1664  DiamondBaseStorage.layout().fallbackAddress */\n      and(sub(shl(0xa0, 0x01), 0x01), sload(0x177481ac65e4292921c69f62d1cc7f57541261e5d61c8175cf4e36a01c9bfc96))\n      swap1\n        /* \"@solidstate/contracts/proxy/diamond/SolidStateDiamond.sol\":3456:3668  function _getImplementation()... */\n      jump\t// out\n        /* \"@solidstate/contracts/proxy/diamond/fallback/DiamondFallback.sol\":1215:1312  if (implementation == address(0)) {... */\n    tag_144:\n        /* \"@solidstate/contracts/proxy/diamond/fallback/DiamondFallback.sol\":1013:1318  function _getImplementation()... */\n      swap1\n      jump\t// out\n        /* \"@solidstate/contracts/access/ownable/OwnableInternal.sol\":648:759  function _owner() internal view virtual returns (address) {... */\n    tag_96:\n        /* \"@solidstate/contracts/access/ownable/OwnableInternal.sol\":697:704  address */\n      0x00\n        /* \"@solidstate/contracts/access/ownable/OwnableStorage.sol\":187:236  keccak256('solidstate.contracts.storage.Ownable') */\n      0x8a22373512790c48b83a1fe2efdd2888d4a917bcdc24d0adf63e60f671680460\n        /* \"@solidstate/contracts/access/ownable/OwnableInternal.sol\":723:746  OwnableStorage.layout() */\n    tag_150:\n        /* \"@solidstate/contracts/access/ownable/OwnableInternal.sol\":723:752  OwnableStorage.layout().owner */\n      sload\n      sub(shl(0xa0, 0x01), 0x01)\n      and\n      swap2\n        /* \"@solidstate/contracts/access/ownable/OwnableInternal.sol\":648:759  function _owner() internal view virtual returns (address) {... */\n      swap1\n      pop\n      jump\t// out\n        /* \"@solidstate/contracts/proxy/diamond/writable/DiamondWritableInternal.sol\":850:2893  function _diamondCut(... */\n    tag_102:\n        /* \"@solidstate/contracts/proxy/diamond/writable/DiamondWritableInternal.sol\":1124:1139  l.selectorCount */\n      sload(0x177481ac65e4292921c69f62d1cc7f57541261e5d61c8175cf4e36a01c9bfc94)\n        /* \"@solidstate/contracts/proxy/diamond/base/DiamondBaseStorage.sol\":585:638  keccak256('solidstate.contracts.storage.DiamondBase') */\n      0x177481ac65e4292921c69f62d1cc7f57541261e5d61c8175cf4e36a01c9bfc93\n      swap1\n        /* \"@solidstate/contracts/proxy/diamond/writable/DiamondWritableInternal.sol\":1124:1139  l.selectorCount */\n      0xffff\n      dup2\n      and\n      swap1\n      dup2\n      swap1\n        /* \"@solidstate/contracts/proxy/diamond/writable/DiamondWritableInternal.sol\":992:1027  DiamondBaseStorage.Layout storage l */\n      0x00\n      swap1\n        /* \"@solidstate/contracts/proxy/diamond/writable/DiamondWritableInternal.sol\":1322:1323  7 */\n      0x07\n        /* \"@solidstate/contracts/proxy/diamond/writable/DiamondWritableInternal.sol\":1306:1323  selectorCount & 7 */\n      and\n        /* \"@solidstate/contracts/proxy/diamond/writable/DiamondWritableInternal.sol\":1306:1327  selectorCount & 7 > 0 */\n      iszero\n        /* \"@solidstate/contracts/proxy/diamond/writable/DiamondWritableInternal.sol\":1302:1453  if (selectorCount & 7 > 0) {... */\n      tag_155\n      jumpi\n      pop\n        /* \"@solidstate/contracts/proxy/diamond/writable/DiamondWritableInternal.sol\":1436:1437  3 */\n      0x03\n        /* \"@solidstate/contracts/proxy/diamond/writable/DiamondWritableInternal.sol\":1419:1437  selectorCount >> 3 */\n      dup2\n      swap1\n      shr\n        /* \"@solidstate/contracts/proxy/diamond/writable/DiamondWritableInternal.sol\":1403:1438  l.selectorSlots[selectorCount >> 3] */\n      0x00\n      swap1\n      dup2\n      mstore\n        /* \"@solidstate/contracts/proxy/diamond/writable/DiamondWritableInternal.sol\":1403:1418  l.selectorSlots */\n      0x02\n      dup5\n      add\n        /* \"@solidstate/contracts/proxy/diamond/writable/DiamondWritableInternal.sol\":1403:1438  l.selectorSlots[selectorCount >> 3] */\n      0x20\n      mstore\n      0x40\n      swap1\n      keccak256\n      sload\n        /* \"@solidstate/contracts/proxy/diamond/writable/DiamondWritableInternal.sol\":1302:1453  if (selectorCount & 7 > 0) {... */\n    tag_155:\n        /* \"@solidstate/contracts/proxy/diamond/writable/DiamondWritableInternal.sol\":1472:1481  uint256 i */\n      0x00\n        /* \"@solidstate/contracts/proxy/diamond/writable/DiamondWritableInternal.sol\":1467:2480  for (uint256 i; i < facetCuts.length; i++) {... */\n    tag_156:\n        /* \"@solidstate/contracts/proxy/diamond/writable/DiamondWritableInternal.sol\":1487:1496  facetCuts */\n      dup8\n        /* \"@solidstate/contracts/proxy/diamond/writable/DiamondWritableInternal.sol\":1487:1503  facetCuts.length */\n      mload\n        /* \"@solidstate/contracts/proxy/diamond/writable/DiamondWritableInternal.sol\":1483:1484  i */\n      dup2\n        /* \"@solidstate/contracts/proxy/diamond/writable/DiamondWritableInternal.sol\":1483:1503  i < facetCuts.length */\n      lt\n        /* \"@solidstate/contracts/proxy/diamond/writable/DiamondWritableInternal.sol\":1467:2480  for (uint256 i; i < facetCuts.length; i++) {... */\n      iszero\n      tag_157\n      jumpi\n        /* \"@solidstate/contracts/proxy/diamond/writable/DiamondWritableInternal.sol\":1528:1552  FacetCut memory facetCut */\n      0x00\n        /* \"@solidstate/contracts/proxy/diamond/writable/DiamondWritableInternal.sol\":1555:1564  facetCuts */\n      dup9\n        /* \"@solidstate/contracts/proxy/diamond/writable/DiamondWritableInternal.sol\":1565:1566  i */\n      dup3\n        /* \"@solidstate/contracts/proxy/diamond/writable/DiamondWritableInternal.sol\":1555:1567  facetCuts[i] */\n      dup2\n      mload\n      dup2\n      lt\n      tag_160\n      jumpi\n      tag_160\n      tag_161\n      jump\t// in\n    tag_160:\n      0x20\n      mul\n      0x20\n      add\n      add\n      mload\n        /* \"@solidstate/contracts/proxy/diamond/writable/DiamondWritableInternal.sol\":1528:1567  FacetCut memory facetCut = facetCuts[i] */\n      swap1\n      pop\n        /* \"@solidstate/contracts/proxy/diamond/writable/DiamondWritableInternal.sol\":1585:1606  FacetCutAction action */\n      0x00\n        /* \"@solidstate/contracts/proxy/diamond/writable/DiamondWritableInternal.sol\":1609:1617  facetCut */\n      dup2\n        /* \"@solidstate/contracts/proxy/diamond/writable/DiamondWritableInternal.sol\":1609:1624  facetCut.action */\n      0x20\n      add\n      mload\n        /* \"@solidstate/contracts/proxy/diamond/writable/DiamondWritableInternal.sol\":1585:1624  FacetCutAction action = facetCut.action */\n      swap1\n      pop\n        /* \"@solidstate/contracts/proxy/diamond/writable/DiamondWritableInternal.sol\":1647:1655  facetCut */\n      dup2\n        /* \"@solidstate/contracts/proxy/diamond/writable/DiamondWritableInternal.sol\":1647:1665  facetCut.selectors */\n      0x40\n      add\n      mload\n        /* \"@solidstate/contracts/proxy/diamond/writable/DiamondWritableInternal.sol\":1647:1672  facetCut.selectors.length */\n      mload\n        /* \"@solidstate/contracts/proxy/diamond/writable/DiamondWritableInternal.sol\":1676:1677  0 */\n      0x00\n        /* \"@solidstate/contracts/proxy/diamond/writable/DiamondWritableInternal.sol\":1647:1677  facetCut.selectors.length == 0 */\n      sub\n        /* \"@solidstate/contracts/proxy/diamond/writable/DiamondWritableInternal.sol\":1643:1745  if (facetCut.selectors.length == 0)... */\n      tag_162\n      jumpi\n        /* \"@solidstate/contracts/proxy/diamond/writable/DiamondWritableInternal.sol\":1706:1745  DiamondWritable__SelectorNotSpecified() */\n      mload(0x40)\n      0xeb6c3aeb00000000000000000000000000000000000000000000000000000000\n      dup2\n      mstore\n      0x04\n      add\n      mload(0x40)\n      dup1\n      swap2\n      sub\n      swap1\n      revert\n        /* \"@solidstate/contracts/proxy/diamond/writable/DiamondWritableInternal.sol\":1643:1745  if (facetCut.selectors.length == 0)... */\n    tag_162:\n        /* \"@solidstate/contracts/proxy/diamond/writable/DiamondWritableInternal.sol\":1778:1796  FacetCutAction.ADD */\n      0x00\n        /* \"@solidstate/contracts/proxy/diamond/writable/DiamondWritableInternal.sol\":1768:1774  action */\n      dup2\n        /* \"@solidstate/contracts/proxy/diamond/writable/DiamondWritableInternal.sol\":1768:1796  action == FacetCutAction.ADD */\n      0x02\n      dup2\n      gt\n      iszero\n      tag_167\n      jumpi\n      tag_167\n      tag_165\n      jump\t// in\n    tag_167:\n      sub\n        /* \"@solidstate/contracts/proxy/diamond/writable/DiamondWritableInternal.sol\":1764:2466  if (action == FacetCutAction.ADD) {... */\n      tag_168\n      jumpi\n        /* \"@solidstate/contracts/proxy/diamond/writable/DiamondWritableInternal.sol\":1852:2030  _addFacetSelectors(... */\n      tag_169\n        /* \"@solidstate/contracts/proxy/diamond/writable/DiamondWritableInternal.sol\":1896:1897  l */\n      dup8\n        /* \"@solidstate/contracts/proxy/diamond/writable/DiamondWritableInternal.sol\":1923:1936  selectorCount */\n      dup7\n        /* \"@solidstate/contracts/proxy/diamond/writable/DiamondWritableInternal.sol\":1962:1974  selectorSlot */\n      dup7\n        /* \"@solidstate/contracts/proxy/diamond/writable/DiamondWritableInternal.sol\":2000:2008  facetCut */\n      dup6\n        /* \"@solidstate/contracts/proxy/diamond/writable/DiamondWritableInternal.sol\":1852:1870  _addFacetSelectors */\n      tag_170\n        /* \"@solidstate/contracts/proxy/diamond/writable/DiamondWritableInternal.sol\":1852:2030  _addFacetSelectors(... */\n      jump\t// in\n    tag_169:\n        /* \"@solidstate/contracts/proxy/diamond/writable/DiamondWritableInternal.sol\":1820:2030  (selectorCount, selectorSlot) = _addFacetSelectors(... */\n      swap1\n      swap6\n      pop\n      swap4\n      pop\n        /* \"@solidstate/contracts/proxy/diamond/writable/DiamondWritableInternal.sol\":1764:2466  if (action == FacetCutAction.ADD) {... */\n      jump(tag_184)\n    tag_168:\n        /* \"@solidstate/contracts/proxy/diamond/writable/DiamondWritableInternal.sol\":2069:2091  FacetCutAction.REPLACE */\n      0x01\n        /* \"@solidstate/contracts/proxy/diamond/writable/DiamondWritableInternal.sol\":2059:2065  action */\n      dup2\n        /* \"@solidstate/contracts/proxy/diamond/writable/DiamondWritableInternal.sol\":2059:2091  action == FacetCutAction.REPLACE */\n      0x02\n      dup2\n      gt\n      iszero\n      tag_175\n      jumpi\n      tag_175\n      tag_165\n      jump\t// in\n    tag_175:\n      sub\n        /* \"@solidstate/contracts/proxy/diamond/writable/DiamondWritableInternal.sol\":2055:2466  if (action == FacetCutAction.REPLACE) {... */\n      tag_176\n      jumpi\n        /* \"@solidstate/contracts/proxy/diamond/writable/DiamondWritableInternal.sol\":2115:2150  _replaceFacetSelectors(l, facetCut) */\n      tag_177\n        /* \"@solidstate/contracts/proxy/diamond/writable/DiamondWritableInternal.sol\":2138:2139  l */\n      dup8\n        /* \"@solidstate/contracts/proxy/diamond/writable/DiamondWritableInternal.sol\":2141:2149  facetCut */\n      dup4\n        /* \"@solidstate/contracts/proxy/diamond/writable/DiamondWritableInternal.sol\":2115:2137  _replaceFacetSelectors */\n      tag_178\n        /* \"@solidstate/contracts/proxy/diamond/writable/DiamondWritableInternal.sol\":2115:2150  _replaceFacetSelectors(l, facetCut) */\n      jump\t// in\n    tag_177:\n        /* \"@solidstate/contracts/proxy/diamond/writable/DiamondWritableInternal.sol\":2055:2466  if (action == FacetCutAction.REPLACE) {... */\n      jump(tag_184)\n    tag_176:\n        /* \"@solidstate/contracts/proxy/diamond/writable/DiamondWritableInternal.sol\":2189:2210  FacetCutAction.REMOVE */\n      0x02\n        /* \"@solidstate/contracts/proxy/diamond/writable/DiamondWritableInternal.sol\":2179:2185  action */\n      dup2\n        /* \"@solidstate/contracts/proxy/diamond/writable/DiamondWritableInternal.sol\":2179:2210  action == FacetCutAction.REMOVE */\n      0x02\n      dup2\n      gt\n      iszero\n      tag_183\n      jumpi\n      tag_183\n      tag_165\n      jump\t// in\n    tag_183:\n      sub\n        /* \"@solidstate/contracts/proxy/diamond/writable/DiamondWritableInternal.sol\":2175:2466  if (action == FacetCutAction.REMOVE) {... */\n      tag_184\n      jumpi\n        /* \"@solidstate/contracts/proxy/diamond/writable/DiamondWritableInternal.sol\":2266:2447  _removeFacetSelectors(... */\n      tag_185\n        /* \"@solidstate/contracts/proxy/diamond/writable/DiamondWritableInternal.sol\":2313:2314  l */\n      dup8\n        /* \"@solidstate/contracts/proxy/diamond/writable/DiamondWritableInternal.sol\":2340:2353  selectorCount */\n      dup7\n        /* \"@solidstate/contracts/proxy/diamond/writable/DiamondWritableInternal.sol\":2379:2391  selectorSlot */\n      dup7\n        /* \"@solidstate/contracts/proxy/diamond/writable/DiamondWritableInternal.sol\":2417:2425  facetCut */\n      dup6\n        /* \"@solidstate/contracts/proxy/diamond/writable/DiamondWritableInternal.sol\":2266:2287  _removeFacetSelectors */\n      tag_186\n        /* \"@solidstate/contracts/proxy/diamond/writable/DiamondWritableInternal.sol\":2266:2447  _removeFacetSelectors(... */\n      jump\t// in\n    tag_185:\n        /* \"@solidstate/contracts/proxy/diamond/writable/DiamondWritableInternal.sol\":2234:2447  (selectorCount, selectorSlot) = _removeFacetSelectors(... */\n      swap1\n      swap6\n      pop\n      swap4\n      pop\n        /* \"@solidstate/contracts/proxy/diamond/writable/DiamondWritableInternal.sol\":2175:2466  if (action == FacetCutAction.REMOVE) {... */\n    tag_184:\n      pop\n      pop\n        /* \"@solidstate/contracts/proxy/diamond/writable/DiamondWritableInternal.sol\":1505:1508  i++ */\n      0x01\n      add\n        /* \"@solidstate/contracts/proxy/diamond/writable/DiamondWritableInternal.sol\":1467:2480  for (uint256 i; i < facetCuts.length; i++) {... */\n      jump(tag_156)\n    tag_157:\n      pop\n        /* \"@solidstate/contracts/proxy/diamond/writable/DiamondWritableInternal.sol\":2515:2536  originalSelectorCount */\n      dup3\n        /* \"@solidstate/contracts/proxy/diamond/writable/DiamondWritableInternal.sol\":2498:2511  selectorCount */\n      dup3\n        /* \"@solidstate/contracts/proxy/diamond/writable/DiamondWritableInternal.sol\":2498:2536  selectorCount != originalSelectorCount */\n      eq\n        /* \"@solidstate/contracts/proxy/diamond/writable/DiamondWritableInternal.sol\":2494:2610  if (selectorCount != originalSelectorCount) {... */\n      tag_187\n      jumpi\n        /* \"@solidstate/contracts/proxy/diamond/writable/DiamondWritableInternal.sol\":2556:2571  l.selectorCount */\n      0x01\n      dup5\n      add\n        /* \"@solidstate/contracts/proxy/diamond/writable/DiamondWritableInternal.sol\":2556:2595  l.selectorCount = uint16(selectorCount) */\n      dup1\n      sload\n      not(0xffff)\n      and\n      0xffff\n      dup5\n      and\n      or\n      swap1\n      sstore\n        /* \"@solidstate/contracts/proxy/diamond/writable/DiamondWritableInternal.sol\":2494:2610  if (selectorCount != originalSelectorCount) {... */\n    tag_187:\n        /* \"@solidstate/contracts/proxy/diamond/writable/DiamondWritableInternal.sol\":2693:2694  7 */\n      0x07\n        /* \"@solidstate/contracts/proxy/diamond/writable/DiamondWritableInternal.sol\":2677:2694  selectorCount & 7 */\n      dup3\n      and\n        /* \"@solidstate/contracts/proxy/diamond/writable/DiamondWritableInternal.sol\":2677:2698  selectorCount & 7 > 0 */\n      iszero\n        /* \"@solidstate/contracts/proxy/diamond/writable/DiamondWritableInternal.sol\":2673:2783  if (selectorCount & 7 > 0) {... */\n      tag_188\n      jumpi\n        /* \"@solidstate/contracts/proxy/diamond/writable/DiamondWritableInternal.sol\":2751:2752  3 */\n      0x03\n        /* \"@solidstate/contracts/proxy/diamond/writable/DiamondWritableInternal.sol\":2734:2752  selectorCount >> 3 */\n      dup3\n      swap1\n      shr\n        /* \"@solidstate/contracts/proxy/diamond/writable/DiamondWritableInternal.sol\":2718:2753  l.selectorSlots[selectorCount >> 3] */\n      0x00\n      swap1\n      dup2\n      mstore\n        /* \"@solidstate/contracts/proxy/diamond/writable/DiamondWritableInternal.sol\":2718:2733  l.selectorSlots */\n      0x02\n      dup6\n      add\n        /* \"@solidstate/contracts/proxy/diamond/writable/DiamondWritableInternal.sol\":2718:2753  l.selectorSlots[selectorCount >> 3] */\n      0x20\n      mstore\n      0x40\n      swap1\n      keccak256\n        /* \"@solidstate/contracts/proxy/diamond/writable/DiamondWritableInternal.sol\":2718:2768  l.selectorSlots[selectorCount >> 3] = selectorSlot */\n      dup2\n      swap1\n      sstore\n        /* \"@solidstate/contracts/proxy/diamond/writable/DiamondWritableInternal.sol\":2673:2783  if (selectorCount & 7 > 0) {... */\n    tag_188:\n        /* \"@solidstate/contracts/proxy/diamond/writable/DiamondWritableInternal.sol\":2802:2837  DiamondCut(facetCuts, target, data) */\n      0x8faa70878671ccd212d20771b795c50af8fd3ff6cf27f4bde57e5d4de0aeb673\n        /* \"@solidstate/contracts/proxy/diamond/writable/DiamondWritableInternal.sol\":2813:2822  facetCuts */\n      dup8\n        /* \"@solidstate/contracts/proxy/diamond/writable/DiamondWritableInternal.sol\":2824:2830  target */\n      dup8\n        /* \"@solidstate/contracts/proxy/diamond/writable/DiamondWritableInternal.sol\":2832:2836  data */\n      dup8\n        /* \"@solidstate/contracts/proxy/diamond/writable/DiamondWritableInternal.sol\":2802:2837  DiamondCut(facetCuts, target, data) */\n      mload(0x40)\n      tag_189\n      swap4\n      swap3\n      swap2\n      swap1\n      tag_190\n      jump\t// in\n    tag_189:\n      mload(0x40)\n      dup1\n      swap2\n      sub\n      swap1\n      log1\n        /* \"@solidstate/contracts/proxy/diamond/writable/DiamondWritableInternal.sol\":2851:2876  _initialize(target, data) */\n      tag_191\n        /* \"@solidstate/contracts/proxy/diamond/writable/DiamondWritableInternal.sol\":2863:2869  target */\n      dup7\n        /* \"@solidstate/contracts/proxy/diamond/writable/DiamondWritableInternal.sol\":2871:2875  data */\n      dup7\n        /* \"@solidstate/contracts/proxy/diamond/writable/DiamondWritableInternal.sol\":2851:2862  _initialize */\n      tag_192\n        /* \"@solidstate/contracts/proxy/diamond/writable/DiamondWritableInternal.sol\":2851:2876  _initialize(target, data) */\n      jump\t// in\n    tag_191:\n        /* \"@solidstate/contracts/proxy/diamond/writable/DiamondWritableInternal.sol\":1068:2887  unchecked {... */\n      pop\n      pop\n      pop\n        /* \"@solidstate/contracts/proxy/diamond/writable/DiamondWritableInternal.sol\":982:2893  {... */\n      pop\n        /* \"@solidstate/contracts/proxy/diamond/writable/DiamondWritableInternal.sol\":850:2893  function _diamondCut(... */\n      pop\n      pop\n      pop\n      jump\t// out\n        /* \"@solidstate/contracts/proxy/diamond/readable/DiamondReadableInternal.sol\":4602:6077  function _facetAddresses()... */\n    tag_108:\n        /* \"@solidstate/contracts/proxy/diamond/readable/DiamondReadableInternal.sol\":4820:4835  l.selectorCount */\n      sload(0x177481ac65e4292921c69f62d1cc7f57541261e5d61c8175cf4e36a01c9bfc94)\n        /* \"@solidstate/contracts/proxy/diamond/readable/DiamondReadableInternal.sol\":4676:4702  address[] memory addresses */\n      0x60\n      swap1\n        /* \"@solidstate/contracts/proxy/diamond/base/DiamondBaseStorage.sol\":585:638  keccak256('solidstate.contracts.storage.DiamondBase') */\n      0x177481ac65e4292921c69f62d1cc7f57541261e5d61c8175cf4e36a01c9bfc93\n      swap1\n        /* \"@solidstate/contracts/proxy/diamond/readable/DiamondReadableInternal.sol\":4820:4835  l.selectorCount */\n      0xffff\n      and\n        /* \"@solidstate/contracts/proxy/diamond/readable/DiamondReadableInternal.sol\":4806:4836  new address[](l.selectorCount) */\n      0xffffffffffffffff\n      dup2\n      gt\n      iszero\n      tag_198\n      jumpi\n      tag_198\n      tag_199\n      jump\t// in\n    tag_198:\n      mload(0x40)\n      swap1\n      dup1\n      dup3\n      mstore\n      dup1\n      0x20\n      mul\n      0x20\n      add\n      dup3\n      add\n      0x40\n      mstore\n      dup1\n      iszero\n      tag_200\n      jumpi\n      dup2\n      0x20\n      add\n      0x20\n      dup3\n      mul\n      dup1\n      calldatasize\n      dup4\n      calldatacopy\n      add\n      swap1\n      pop\n    tag_200:\n      pop\n        /* \"@solidstate/contracts/proxy/diamond/readable/DiamondReadableInternal.sol\":4794:4836  addresses = new address[](l.selectorCount) */\n      swap2\n      pop\n        /* \"@solidstate/contracts/proxy/diamond/readable/DiamondReadableInternal.sol\":4846:4863  uint256 numFacets */\n      0x00\n        /* \"@solidstate/contracts/proxy/diamond/readable/DiamondReadableInternal.sol\":4873:4894  uint256 selectorIndex */\n      dup1\n        /* \"@solidstate/contracts/proxy/diamond/readable/DiamondReadableInternal.sol\":4910:4927  uint256 slotIndex */\n      0x00\n        /* \"@solidstate/contracts/proxy/diamond/readable/DiamondReadableInternal.sol\":4905:5942  for (uint256 slotIndex; selectorIndex < l.selectorCount; slotIndex++) {... */\n    tag_201:\n        /* \"@solidstate/contracts/proxy/diamond/readable/DiamondReadableInternal.sol\":4945:4960  l.selectorCount */\n      0x01\n      dup5\n      add\n      sload\n      0xffff\n      and\n        /* \"@solidstate/contracts/proxy/diamond/readable/DiamondReadableInternal.sol\":4929:4960  selectorIndex < l.selectorCount */\n      dup3\n      lt\n        /* \"@solidstate/contracts/proxy/diamond/readable/DiamondReadableInternal.sol\":4905:5942  for (uint256 slotIndex; selectorIndex < l.selectorCount; slotIndex++) {... */\n      iszero\n      tag_202\n      jumpi\n        /* \"@solidstate/contracts/proxy/diamond/readable/DiamondReadableInternal.sol\":4989:5001  bytes32 slot */\n      0x00\n        /* \"@solidstate/contracts/proxy/diamond/readable/DiamondReadableInternal.sol\":5004:5030  l.selectorSlots[slotIndex] */\n      dup2\n      dup2\n      mstore\n        /* \"@solidstate/contracts/proxy/diamond/readable/DiamondReadableInternal.sol\":5004:5019  l.selectorSlots */\n      0x02\n      dup6\n      add\n        /* \"@solidstate/contracts/proxy/diamond/readable/DiamondReadableInternal.sol\":5004:5030  l.selectorSlots[slotIndex] */\n      0x20\n      mstore\n      0x40\n      dup2\n      keccak256\n      sload\n      swap1\n        /* \"@solidstate/contracts/proxy/diamond/readable/DiamondReadableInternal.sol\":5045:5932  for (... */\n    tag_204:\n        /* \"@solidstate/contracts/proxy/diamond/readable/DiamondReadableInternal.sol\":5130:5131  8 */\n      0x08\n        /* \"@solidstate/contracts/proxy/diamond/readable/DiamondReadableInternal.sol\":5110:5127  selectorSlotIndex */\n      dup2\n        /* \"@solidstate/contracts/proxy/diamond/readable/DiamondReadableInternal.sol\":5110:5131  selectorSlotIndex < 8 */\n      lt\n        /* \"@solidstate/contracts/proxy/diamond/readable/DiamondReadableInternal.sol\":5045:5932  for (... */\n      iszero\n      tag_205\n      jumpi\n        /* \"@solidstate/contracts/proxy/diamond/readable/DiamondReadableInternal.sol\":5201:5216  selectorIndex++ */\n      dup4\n      tag_207\n      dup2\n      tag_208\n      jump\t// in\n    tag_207:\n        /* \"@solidstate/contracts/proxy/diamond/readable/DiamondReadableInternal.sol\":5255:5270  l.selectorCount */\n      0x01\n      dup9\n      add\n      sload\n        /* \"@solidstate/contracts/proxy/diamond/readable/DiamondReadableInternal.sol\":5201:5216  selectorIndex++ */\n      swap1\n      swap6\n      pop\n        /* \"@solidstate/contracts/proxy/diamond/readable/DiamondReadableInternal.sol\":5255:5270  l.selectorCount */\n      0xffff\n      and\n        /* \"@solidstate/contracts/proxy/diamond/readable/DiamondReadableInternal.sol\":5239:5270  selectorIndex > l.selectorCount */\n      dup6\n      gt\n      swap1\n      pop\n        /* \"@solidstate/contracts/proxy/diamond/readable/DiamondReadableInternal.sol\":5294:5299  break */\n      tag_205\n        /* \"@solidstate/contracts/proxy/diamond/readable/DiamondReadableInternal.sol\":5235:5318  if (selectorIndex > l.selectorCount) {... */\n      jumpi\n        /* \"@solidstate/contracts/proxy/diamond/readable/DiamondReadableInternal.sol\":5391:5392  5 */\n      0x05\n        /* \"@solidstate/contracts/proxy/diamond/readable/DiamondReadableInternal.sol\":5370:5392  selectorSlotIndex << 5 */\n      dup2\n      swap1\n      shl\n        /* \"@solidstate/contracts/proxy/diamond/readable/DiamondReadableInternal.sol\":5361:5393  slot << (selectorSlotIndex << 5) */\n      dup3\n      swap1\n      shl\n      not(sub(shl(0xe0, 0x01), 0x01))\n        /* \"@solidstate/contracts/proxy/diamond/readable/DiamondReadableInternal.sol\":5444:5462  l.facets[selector] */\n      dup2\n      and\n        /* \"@solidstate/contracts/proxy/diamond/readable/DiamondReadableInternal.sol\":5336:5351  bytes4 selector */\n      0x00\n        /* \"@solidstate/contracts/proxy/diamond/readable/DiamondReadableInternal.sol\":5444:5462  l.facets[selector] */\n      swap1\n      dup2\n      mstore\n      0x20\n      dup9\n      swap1\n      mstore\n      0x40\n      dup2\n      keccak256\n      sload\n        /* \"@solidstate/contracts/proxy/diamond/readable/DiamondReadableInternal.sol\":5428:5464  address(bytes20(l.facets[selector])) */\n      0x60\n      shr\n      swap1\n        /* \"@solidstate/contracts/proxy/diamond/readable/DiamondReadableInternal.sol\":5336:5351  bytes4 selector */\n      dup1\n        /* \"@solidstate/contracts/proxy/diamond/readable/DiamondReadableInternal.sol\":5519:5757  for (uint256 facetIndex; facetIndex < numFacets; facetIndex++) {... */\n    tag_210:\n        /* \"@solidstate/contracts/proxy/diamond/readable/DiamondReadableInternal.sol\":5557:5566  numFacets */\n      dup9\n        /* \"@solidstate/contracts/proxy/diamond/readable/DiamondReadableInternal.sol\":5544:5554  facetIndex */\n      dup2\n        /* \"@solidstate/contracts/proxy/diamond/readable/DiamondReadableInternal.sol\":5544:5566  facetIndex < numFacets */\n      lt\n        /* \"@solidstate/contracts/proxy/diamond/readable/DiamondReadableInternal.sol\":5519:5757  for (uint256 facetIndex; facetIndex < numFacets; facetIndex++) {... */\n      iszero\n      tag_211\n      jumpi\n        /* \"@solidstate/contracts/proxy/diamond/readable/DiamondReadableInternal.sol\":5617:5626  addresses */\n      dup11\n        /* \"@solidstate/contracts/proxy/diamond/readable/DiamondReadableInternal.sol\":5627:5637  facetIndex */\n      dup2\n        /* \"@solidstate/contracts/proxy/diamond/readable/DiamondReadableInternal.sol\":5617:5638  addresses[facetIndex] */\n      dup2\n      mload\n      dup2\n      lt\n      tag_214\n      jumpi\n      tag_214\n      tag_161\n      jump\t// in\n    tag_214:\n      0x20\n      mul\n      0x20\n      add\n      add\n      mload\n      sub(shl(0xa0, 0x01), 0x01)\n        /* \"@solidstate/contracts/proxy/diamond/readable/DiamondReadableInternal.sol\":5608:5638  facet == addresses[facetIndex] */\n      and\n        /* \"@solidstate/contracts/proxy/diamond/readable/DiamondReadableInternal.sol\":5608:5613  facet */\n      dup4\n      sub(shl(0xa0, 0x01), 0x01)\n        /* \"@solidstate/contracts/proxy/diamond/readable/DiamondReadableInternal.sol\":5608:5638  facet == addresses[facetIndex] */\n      and\n      sub\n        /* \"@solidstate/contracts/proxy/diamond/readable/DiamondReadableInternal.sol\":5604:5739  if (facet == addresses[facetIndex]) {... */\n      tag_215\n      jumpi\n        /* \"@solidstate/contracts/proxy/diamond/readable/DiamondReadableInternal.sol\":5681:5685  true */\n      0x01\n        /* \"@solidstate/contracts/proxy/diamond/readable/DiamondReadableInternal.sol\":5666:5685  continueLoop = true */\n      swap2\n      pop\n        /* \"@solidstate/contracts/proxy/diamond/readable/DiamondReadableInternal.sol\":5711:5716  break */\n      jump(tag_211)\n        /* \"@solidstate/contracts/proxy/diamond/readable/DiamondReadableInternal.sol\":5604:5739  if (facet == addresses[facetIndex]) {... */\n    tag_215:\n        /* \"@solidstate/contracts/proxy/diamond/readable/DiamondReadableInternal.sol\":5568:5580  facetIndex++ */\n      0x01\n      add\n        /* \"@solidstate/contracts/proxy/diamond/readable/DiamondReadableInternal.sol\":5519:5757  for (uint256 facetIndex; facetIndex < numFacets; facetIndex++) {... */\n      jump(tag_210)\n    tag_211:\n      pop\n        /* \"@solidstate/contracts/proxy/diamond/readable/DiamondReadableInternal.sol\":5779:5791  continueLoop */\n      dup1\n        /* \"@solidstate/contracts/proxy/diamond/readable/DiamondReadableInternal.sol\":5775:5842  if (continueLoop) {... */\n      iszero\n      tag_216\n      jumpi\n        /* \"@solidstate/contracts/proxy/diamond/readable/DiamondReadableInternal.sol\":5815:5823  continue */\n      pop\n      pop\n      pop\n      jump(tag_206)\n        /* \"@solidstate/contracts/proxy/diamond/readable/DiamondReadableInternal.sol\":5775:5842  if (continueLoop) {... */\n    tag_216:\n        /* \"@solidstate/contracts/proxy/diamond/readable/DiamondReadableInternal.sol\":5883:5888  facet */\n      dup2\n        /* \"@solidstate/contracts/proxy/diamond/readable/DiamondReadableInternal.sol\":5860:5869  addresses */\n      dup11\n        /* \"@solidstate/contracts/proxy/diamond/readable/DiamondReadableInternal.sol\":5870:5879  numFacets */\n      dup10\n        /* \"@solidstate/contracts/proxy/diamond/readable/DiamondReadableInternal.sol\":5860:5880  addresses[numFacets] */\n      dup2\n      mload\n      dup2\n      lt\n      tag_218\n      jumpi\n      tag_218\n      tag_161\n      jump\t// in\n    tag_218:\n      sub(shl(0xa0, 0x01), 0x01)\n        /* \"@solidstate/contracts/proxy/diamond/readable/DiamondReadableInternal.sol\":5860:5888  addresses[numFacets] = facet */\n      swap1\n      swap3\n      and\n        /* \"@solidstate/contracts/proxy/diamond/readable/DiamondReadableInternal.sol\":5860:5880  addresses[numFacets] */\n      0x20\n      swap3\n      dup4\n      mul\n      swap2\n      swap1\n      swap2\n      add\n      swap1\n      swap2\n      add\n        /* \"@solidstate/contracts/proxy/diamond/readable/DiamondReadableInternal.sol\":5860:5888  addresses[numFacets] = facet */\n      mstore\n        /* \"@solidstate/contracts/proxy/diamond/readable/DiamondReadableInternal.sol\":5906:5917  numFacets++ */\n      dup8\n      tag_219\n      dup2\n      tag_208\n      jump\t// in\n    tag_219:\n      swap9\n      pop\n      pop\n        /* \"@solidstate/contracts/proxy/diamond/readable/DiamondReadableInternal.sol\":5183:5932  {... */\n      pop\n      pop\n      pop\n        /* \"@solidstate/contracts/proxy/diamond/readable/DiamondReadableInternal.sol\":5045:5932  for (... */\n    tag_206:\n        /* \"@solidstate/contracts/proxy/diamond/readable/DiamondReadableInternal.sol\":5149:5168  selectorSlotIndex++ */\n      0x01\n      add\n        /* \"@solidstate/contracts/proxy/diamond/readable/DiamondReadableInternal.sol\":5045:5932  for (... */\n      jump(tag_204)\n    tag_205:\n      pop\n        /* \"@solidstate/contracts/proxy/diamond/readable/DiamondReadableInternal.sol\":4975:5942  {... */\n      pop\n        /* \"@solidstate/contracts/proxy/diamond/readable/DiamondReadableInternal.sol\":4962:4973  slotIndex++ */\n      dup1\n      dup1\n      tag_220\n      swap1\n      tag_208\n      jump\t// in\n    tag_220:\n      swap2\n      pop\n      pop\n        /* \"@solidstate/contracts/proxy/diamond/readable/DiamondReadableInternal.sol\":4905:5942  for (uint256 slotIndex; selectorIndex < l.selectorCount; slotIndex++) {... */\n      jump(tag_201)\n    tag_202:\n      pop\n      pop\n        /* \"@solidstate/contracts/proxy/diamond/readable/DiamondReadableInternal.sol\":6033:6061  mstore(addresses, numFacets) */\n      dup3\n      mstore\n      pop\n        /* \"@solidstate/contracts/proxy/diamond/readable/DiamondReadableInternal.sol\":6040:6049  addresses */\n      swap1\n        /* \"@solidstate/contracts/proxy/diamond/readable/DiamondReadableInternal.sol\":4602:6077  function _facetAddresses()... */\n      jump\t// out\n        /* \"@solidstate/contracts/access/ownable/SafeOwnableInternal.sol\":576:705  function _nomineeOwner() internal view virtual returns (address) {... */\n    tag_111:\n        /* \"@solidstate/contracts/access/ownable/SafeOwnableInternal.sol\":632:639  address */\n      0x00\n        /* \"@solidstate/contracts/access/ownable/SafeOwnableStorage.sol\":198:251  keccak256('solidstate.contracts.storage.SafeOwnable') */\n      0x24aa1f7b31fd188a8d3ecfb06bc55c806040e59b03bd4396283442fce6617890\n        /* \"@solidstate/contracts/access/ownable/SafeOwnableInternal.sol\":658:685  SafeOwnableStorage.layout() */\n      tag_150\n        /* \"@solidstate/contracts/access/ownable/SafeOwnableStorage.sol\":258:417  function layout() internal pure returns (Layout storage l) {... */\n      jump\n        /* \"@solidstate/contracts/access/ownable/SafeOwnableInternal.sol\":780:920  function _acceptOwnership() internal virtual {... */\n    tag_115:\n        /* \"@solidstate/contracts/access/ownable/SafeOwnableInternal.sol\":835:856  _setOwner(msg.sender) */\n      tag_225\n        /* \"@solidstate/contracts/access/ownable/SafeOwnableInternal.sol\":845:855  msg.sender */\n      caller\n        /* \"@solidstate/contracts/access/ownable/SafeOwnableInternal.sol\":835:844  _setOwner */\n      tag_226\n        /* \"@solidstate/contracts/access/ownable/SafeOwnableInternal.sol\":835:856  _setOwner(msg.sender) */\n      jump\t// in\n    tag_225:\n        /* \"@solidstate/contracts/access/ownable/SafeOwnableStorage.sol\":198:251  keccak256('solidstate.contracts.storage.SafeOwnable') */\n      0x24aa1f7b31fd188a8d3ecfb06bc55c806040e59b03bd4396283442fce6617890\n        /* \"@solidstate/contracts/access/ownable/SafeOwnableInternal.sol\":866:913  delete SafeOwnableStorage.layout().nomineeOwner */\n      dup1\n      sload\n      not(0xffffffffffffffffffffffffffffffffffffffff)\n      and\n      swap1\n      sstore\n        /* \"@solidstate/contracts/access/ownable/SafeOwnableInternal.sol\":780:920  function _acceptOwnership() internal virtual {... */\n      jump\t// out\n        /* \"@solidstate/contracts/proxy/diamond/readable/DiamondReadableInternal.sol\":562:3112  function _facets() internal view returns (Facet[] memory diamondFacets) {... */\n    tag_118:\n        /* \"@solidstate/contracts/proxy/diamond/readable/DiamondReadableInternal.sol\":748:763  l.selectorCount */\n      sload(0x177481ac65e4292921c69f62d1cc7f57541261e5d61c8175cf4e36a01c9bfc94)\n        /* \"@solidstate/contracts/proxy/diamond/readable/DiamondReadableInternal.sol\":604:632  Facet[] memory diamondFacets */\n      0x60\n      swap1\n        /* \"@solidstate/contracts/proxy/diamond/base/DiamondBaseStorage.sol\":585:638  keccak256('solidstate.contracts.storage.DiamondBase') */\n      0x177481ac65e4292921c69f62d1cc7f57541261e5d61c8175cf4e36a01c9bfc93\n      swap1\n        /* \"@solidstate/contracts/proxy/diamond/readable/DiamondReadableInternal.sol\":748:763  l.selectorCount */\n      0xffff\n      and\n        /* \"@solidstate/contracts/proxy/diamond/readable/DiamondReadableInternal.sol\":736:764  new Facet[](l.selectorCount) */\n      0xffffffffffffffff\n      dup2\n      gt\n      iszero\n      tag_231\n      jumpi\n      tag_231\n      tag_199\n      jump\t// in\n    tag_231:\n      mload(0x40)\n      swap1\n      dup1\n      dup3\n      mstore\n      dup1\n      0x20\n      mul\n      0x20\n      add\n      dup3\n      add\n      0x40\n      mstore\n      dup1\n      iszero\n      tag_232\n      jumpi\n      dup2\n      0x20\n      add\n    tag_233:\n      0x40\n      dup1\n      mload\n      dup1\n      dup3\n      add\n      swap1\n      swap2\n      mstore\n      0x00\n      dup2\n      mstore\n      0x60\n      0x20\n      dup3\n      add\n      mstore\n      dup2\n      mstore\n      0x20\n      add\n      swap1\n      0x01\n      swap1\n      sub\n      swap1\n      dup2\n      tag_233\n      jumpi\n      swap1\n      pop\n    tag_232:\n      pop\n        /* \"@solidstate/contracts/proxy/diamond/readable/DiamondReadableInternal.sol\":822:837  l.selectorCount */\n      0x01\n      dup3\n      add\n      sload\n        /* \"@solidstate/contracts/proxy/diamond/readable/DiamondReadableInternal.sol\":720:764  diamondFacets = new Facet[](l.selectorCount) */\n      swap1\n      swap3\n      pop\n        /* \"@solidstate/contracts/proxy/diamond/readable/DiamondReadableInternal.sol\":775:807  uint8[] memory numFacetSelectors */\n      0x00\n      swap1\n        /* \"@solidstate/contracts/proxy/diamond/readable/DiamondReadableInternal.sol\":822:837  l.selectorCount */\n      0xffff\n      and\n        /* \"@solidstate/contracts/proxy/diamond/readable/DiamondReadableInternal.sol\":810:838  new uint8[](l.selectorCount) */\n      0xffffffffffffffff\n      dup2\n      gt\n      iszero\n      tag_237\n      jumpi\n      tag_237\n      tag_199\n      jump\t// in\n    tag_237:\n      mload(0x40)\n      swap1\n      dup1\n      dup3\n      mstore\n      dup1\n      0x20\n      mul\n      0x20\n      add\n      dup3\n      add\n      0x40\n      mstore\n      dup1\n      iszero\n      tag_238\n      jumpi\n      dup2\n      0x20\n      add\n      0x20\n      dup3\n      mul\n      dup1\n      calldatasize\n      dup4\n      calldatacopy\n      add\n      swap1\n      pop\n    tag_238:\n      pop\n        /* \"@solidstate/contracts/proxy/diamond/readable/DiamondReadableInternal.sol\":775:838  uint8[] memory numFacetSelectors = new uint8[](l.selectorCount) */\n      swap1\n      pop\n        /* \"@solidstate/contracts/proxy/diamond/readable/DiamondReadableInternal.sol\":848:865  uint256 numFacets */\n      0x00\n        /* \"@solidstate/contracts/proxy/diamond/readable/DiamondReadableInternal.sol\":875:896  uint256 selectorIndex */\n      dup1\n        /* \"@solidstate/contracts/proxy/diamond/readable/DiamondReadableInternal.sol\":955:972  uint256 slotIndex */\n      0x00\n        /* \"@solidstate/contracts/proxy/diamond/readable/DiamondReadableInternal.sol\":950:2631  for (uint256 slotIndex; selectorIndex < l.selectorCount; slotIndex++) {... */\n    tag_239:\n        /* \"@solidstate/contracts/proxy/diamond/readable/DiamondReadableInternal.sol\":990:1005  l.selectorCount */\n      0x01\n      dup6\n      add\n      sload\n      0xffff\n      and\n        /* \"@solidstate/contracts/proxy/diamond/readable/DiamondReadableInternal.sol\":974:1005  selectorIndex < l.selectorCount */\n      dup3\n      lt\n        /* \"@solidstate/contracts/proxy/diamond/readable/DiamondReadableInternal.sol\":950:2631  for (uint256 slotIndex; selectorIndex < l.selectorCount; slotIndex++) {... */\n      iszero\n      tag_240\n      jumpi\n        /* \"@solidstate/contracts/proxy/diamond/readable/DiamondReadableInternal.sol\":1034:1046  bytes32 slot */\n      0x00\n        /* \"@solidstate/contracts/proxy/diamond/readable/DiamondReadableInternal.sol\":1049:1075  l.selectorSlots[slotIndex] */\n      dup2\n      dup2\n      mstore\n        /* \"@solidstate/contracts/proxy/diamond/readable/DiamondReadableInternal.sol\":1049:1064  l.selectorSlots */\n      0x02\n      dup7\n      add\n        /* \"@solidstate/contracts/proxy/diamond/readable/DiamondReadableInternal.sol\":1049:1075  l.selectorSlots[slotIndex] */\n      0x20\n      mstore\n      0x40\n      dup2\n      keccak256\n      sload\n      swap1\n        /* \"@solidstate/contracts/proxy/diamond/readable/DiamondReadableInternal.sol\":1090:2621  for (... */\n    tag_242:\n        /* \"@solidstate/contracts/proxy/diamond/readable/DiamondReadableInternal.sol\":1175:1176  8 */\n      0x08\n        /* \"@solidstate/contracts/proxy/diamond/readable/DiamondReadableInternal.sol\":1155:1172  selectorSlotIndex */\n      dup2\n        /* \"@solidstate/contracts/proxy/diamond/readable/DiamondReadableInternal.sol\":1155:1176  selectorSlotIndex < 8 */\n      lt\n        /* \"@solidstate/contracts/proxy/diamond/readable/DiamondReadableInternal.sol\":1090:2621  for (... */\n      iszero\n      tag_243\n      jumpi\n        /* \"@solidstate/contracts/proxy/diamond/readable/DiamondReadableInternal.sol\":1246:1261  selectorIndex++ */\n      dup4\n      tag_245\n      dup2\n      tag_208\n      jump\t// in\n    tag_245:\n        /* \"@solidstate/contracts/proxy/diamond/readable/DiamondReadableInternal.sol\":1300:1315  l.selectorCount */\n      0x01\n      dup10\n      add\n      sload\n        /* \"@solidstate/contracts/proxy/diamond/readable/DiamondReadableInternal.sol\":1246:1261  selectorIndex++ */\n      swap1\n      swap6\n      pop\n        /* \"@solidstate/contracts/proxy/diamond/readable/DiamondReadableInternal.sol\":1300:1315  l.selectorCount */\n      0xffff\n      and\n        /* \"@solidstate/contracts/proxy/diamond/readable/DiamondReadableInternal.sol\":1284:1315  selectorIndex > l.selectorCount */\n      dup6\n      gt\n      swap1\n      pop\n        /* \"@solidstate/contracts/proxy/diamond/readable/DiamondReadableInternal.sol\":1339:1344  break */\n      tag_243\n        /* \"@solidstate/contracts/proxy/diamond/readable/DiamondReadableInternal.sol\":1280:1363  if (selectorIndex > l.selectorCount) {... */\n      jumpi\n        /* \"@solidstate/contracts/proxy/diamond/readable/DiamondReadableInternal.sol\":1436:1437  5 */\n      0x05\n        /* \"@solidstate/contracts/proxy/diamond/readable/DiamondReadableInternal.sol\":1415:1437  selectorSlotIndex << 5 */\n      dup2\n      swap1\n      shl\n        /* \"@solidstate/contracts/proxy/diamond/readable/DiamondReadableInternal.sol\":1406:1438  slot << (selectorSlotIndex << 5) */\n      dup3\n      swap1\n      shl\n      not(sub(shl(0xe0, 0x01), 0x01))\n        /* \"@solidstate/contracts/proxy/diamond/readable/DiamondReadableInternal.sol\":1489:1507  l.facets[selector] */\n      dup2\n      and\n        /* \"@solidstate/contracts/proxy/diamond/readable/DiamondReadableInternal.sol\":1381:1396  bytes4 selector */\n      0x00\n        /* \"@solidstate/contracts/proxy/diamond/readable/DiamondReadableInternal.sol\":1489:1507  l.facets[selector] */\n      swap1\n      dup2\n      mstore\n      0x20\n      dup10\n      swap1\n      mstore\n      0x40\n      dup2\n      keccak256\n      sload\n        /* \"@solidstate/contracts/proxy/diamond/readable/DiamondReadableInternal.sol\":1473:1509  address(bytes20(l.facets[selector])) */\n      0x60\n      shr\n      swap1\n        /* \"@solidstate/contracts/proxy/diamond/readable/DiamondReadableInternal.sol\":1381:1396  bytes4 selector */\n      dup1\n        /* \"@solidstate/contracts/proxy/diamond/readable/DiamondReadableInternal.sol\":1564:2197  for (uint256 facetIndex; facetIndex < numFacets; facetIndex++) {... */\n    tag_247:\n        /* \"@solidstate/contracts/proxy/diamond/readable/DiamondReadableInternal.sol\":1602:1611  numFacets */\n      dup9\n        /* \"@solidstate/contracts/proxy/diamond/readable/DiamondReadableInternal.sol\":1589:1599  facetIndex */\n      dup2\n        /* \"@solidstate/contracts/proxy/diamond/readable/DiamondReadableInternal.sol\":1589:1611  facetIndex < numFacets */\n      lt\n        /* \"@solidstate/contracts/proxy/diamond/readable/DiamondReadableInternal.sol\":1564:2197  for (uint256 facetIndex; facetIndex < numFacets; facetIndex++) {... */\n      iszero\n      tag_248\n      jumpi\n        /* \"@solidstate/contracts/proxy/diamond/readable/DiamondReadableInternal.sol\":1689:1694  facet */\n      dup3\n      sub(shl(0xa0, 0x01), 0x01)\n        /* \"@solidstate/contracts/proxy/diamond/readable/DiamondReadableInternal.sol\":1653:1694  diamondFacets[facetIndex].target == facet */\n      and\n        /* \"@solidstate/contracts/proxy/diamond/readable/DiamondReadableInternal.sol\":1653:1666  diamondFacets */\n      dup13\n        /* \"@solidstate/contracts/proxy/diamond/readable/DiamondReadableInternal.sol\":1667:1677  facetIndex */\n      dup3\n        /* \"@solidstate/contracts/proxy/diamond/readable/DiamondReadableInternal.sol\":1653:1678  diamondFacets[facetIndex] */\n      dup2\n      mload\n      dup2\n      lt\n      tag_251\n      jumpi\n      tag_251\n      tag_161\n      jump\t// in\n    tag_251:\n      0x20\n      mul\n      0x20\n      add\n      add\n      mload\n        /* \"@solidstate/contracts/proxy/diamond/readable/DiamondReadableInternal.sol\":1653:1685  diamondFacets[facetIndex].target */\n      0x00\n      add\n      mload\n      sub(shl(0xa0, 0x01), 0x01)\n        /* \"@solidstate/contracts/proxy/diamond/readable/DiamondReadableInternal.sol\":1653:1694  diamondFacets[facetIndex].target == facet */\n      and\n      sub\n        /* \"@solidstate/contracts/proxy/diamond/readable/DiamondReadableInternal.sol\":1649:2179  if (diamondFacets[facetIndex].target == facet) {... */\n      tag_252\n      jumpi\n        /* \"@solidstate/contracts/proxy/diamond/readable/DiamondReadableInternal.sol\":1845:1853  selector */\n      dup4\n        /* \"@solidstate/contracts/proxy/diamond/readable/DiamondReadableInternal.sol\":1722:1735  diamondFacets */\n      dup13\n        /* \"@solidstate/contracts/proxy/diamond/readable/DiamondReadableInternal.sol\":1736:1746  facetIndex */\n      dup3\n        /* \"@solidstate/contracts/proxy/diamond/readable/DiamondReadableInternal.sol\":1722:1747  diamondFacets[facetIndex] */\n      dup2\n      mload\n      dup2\n      lt\n      tag_254\n      jumpi\n      tag_254\n      tag_161\n      jump\t// in\n    tag_254:\n      0x20\n      mul\n      0x20\n      add\n      add\n      mload\n        /* \"@solidstate/contracts/proxy/diamond/readable/DiamondReadableInternal.sol\":1722:1757  diamondFacets[facetIndex].selectors */\n      0x20\n      add\n      mload\n        /* \"@solidstate/contracts/proxy/diamond/readable/DiamondReadableInternal.sol\":1787:1804  numFacetSelectors */\n      dup12\n        /* \"@solidstate/contracts/proxy/diamond/readable/DiamondReadableInternal.sol\":1805:1815  facetIndex */\n      dup4\n        /* \"@solidstate/contracts/proxy/diamond/readable/DiamondReadableInternal.sol\":1787:1816  numFacetSelectors[facetIndex] */\n      dup2\n      mload\n      dup2\n      lt\n      tag_256\n      jumpi\n      tag_256\n      tag_161\n      jump\t// in\n    tag_256:\n      0x20\n      mul\n      0x20\n      add\n      add\n      mload\n        /* \"@solidstate/contracts/proxy/diamond/readable/DiamondReadableInternal.sol\":1722:1842  diamondFacets[facetIndex].selectors[... */\n      0xff\n      and\n      dup2\n      mload\n      dup2\n      lt\n      tag_258\n      jumpi\n      tag_258\n      tag_161\n      jump\t// in\n    tag_258:\n      0x20\n      mul\n      0x20\n      add\n      add\n        /* \"@solidstate/contracts/proxy/diamond/readable/DiamondReadableInternal.sol\":1722:1853  diamondFacets[facetIndex].selectors[... */\n      swap1\n      not(sub(shl(0xe0, 0x01), 0x01))\n      and\n      swap1\n      dup2\n      not(sub(shl(0xe0, 0x01), 0x01))\n      and\n      dup2\n      mstore\n      pop\n      pop\n        /* \"@solidstate/contracts/proxy/diamond/readable/DiamondReadableInternal.sol\":2019:2022  255 */\n      0xff\n        /* \"@solidstate/contracts/proxy/diamond/readable/DiamondReadableInternal.sol\":1987:2004  numFacetSelectors */\n      dup11\n        /* \"@solidstate/contracts/proxy/diamond/readable/DiamondReadableInternal.sol\":2005:2015  facetIndex */\n      dup3\n        /* \"@solidstate/contracts/proxy/diamond/readable/DiamondReadableInternal.sol\":1987:2016  numFacetSelectors[facetIndex] */\n      dup2\n      mload\n      dup2\n      lt\n      tag_260\n      jumpi\n      tag_260\n      tag_161\n      jump\t// in\n    tag_260:\n      0x20\n      mul\n      0x20\n      add\n      add\n      mload\n        /* \"@solidstate/contracts/proxy/diamond/readable/DiamondReadableInternal.sol\":1987:2022  numFacetSelectors[facetIndex] < 255 */\n      0xff\n      and\n      lt\n        /* \"@solidstate/contracts/proxy/diamond/readable/DiamondReadableInternal.sol\":1979:2023  require(numFacetSelectors[facetIndex] < 255) */\n      tag_261\n      jumpi\n      0x00\n      dup1\n      revert\n    tag_261:\n        /* \"@solidstate/contracts/proxy/diamond/readable/DiamondReadableInternal.sol\":2049:2066  numFacetSelectors */\n      dup10\n        /* \"@solidstate/contracts/proxy/diamond/readable/DiamondReadableInternal.sol\":2067:2077  facetIndex */\n      dup2\n        /* \"@solidstate/contracts/proxy/diamond/readable/DiamondReadableInternal.sol\":2049:2078  numFacetSelectors[facetIndex] */\n      dup2\n      mload\n      dup2\n      lt\n      tag_263\n      jumpi\n      tag_263\n      tag_161\n      jump\t// in\n    tag_263:\n      0x20\n      mul\n      0x20\n      add\n      add\n        /* \"@solidstate/contracts/proxy/diamond/readable/DiamondReadableInternal.sol\":2049:2080  numFacetSelectors[facetIndex]++ */\n      dup1\n      mload\n      dup1\n      swap2\n      swap1\n      tag_264\n      swap1\n      tag_265\n      jump\t// in\n    tag_264:\n      0xff\n      and\n      swap1\n      mstore\n      pop\n        /* \"@solidstate/contracts/proxy/diamond/readable/DiamondReadableInternal.sol\":2121:2125  true */\n      0x01\n      swap2\n      pop\n        /* \"@solidstate/contracts/proxy/diamond/readable/DiamondReadableInternal.sol\":2151:2156  break */\n      jump(tag_248)\n        /* \"@solidstate/contracts/proxy/diamond/readable/DiamondReadableInternal.sol\":1649:2179  if (diamondFacets[facetIndex].target == facet) {... */\n    tag_252:\n        /* \"@solidstate/contracts/proxy/diamond/readable/DiamondReadableInternal.sol\":1613:1625  facetIndex++ */\n      0x01\n      add\n        /* \"@solidstate/contracts/proxy/diamond/readable/DiamondReadableInternal.sol\":1564:2197  for (uint256 facetIndex; facetIndex < numFacets; facetIndex++) {... */\n      jump(tag_247)\n    tag_248:\n      pop\n        /* \"@solidstate/contracts/proxy/diamond/readable/DiamondReadableInternal.sol\":2219:2231  continueLoop */\n      dup1\n        /* \"@solidstate/contracts/proxy/diamond/readable/DiamondReadableInternal.sol\":2215:2282  if (continueLoop) {... */\n      iszero\n      tag_266\n      jumpi\n        /* \"@solidstate/contracts/proxy/diamond/readable/DiamondReadableInternal.sol\":2255:2263  continue */\n      pop\n      pop\n      pop\n      jump(tag_244)\n        /* \"@solidstate/contracts/proxy/diamond/readable/DiamondReadableInternal.sol\":2215:2282  if (continueLoop) {... */\n    tag_266:\n        /* \"@solidstate/contracts/proxy/diamond/readable/DiamondReadableInternal.sol\":2334:2339  facet */\n      dup2\n        /* \"@solidstate/contracts/proxy/diamond/readable/DiamondReadableInternal.sol\":2300:2313  diamondFacets */\n      dup12\n        /* \"@solidstate/contracts/proxy/diamond/readable/DiamondReadableInternal.sol\":2314:2323  numFacets */\n      dup10\n        /* \"@solidstate/contracts/proxy/diamond/readable/DiamondReadableInternal.sol\":2300:2324  diamondFacets[numFacets] */\n      dup2\n      mload\n      dup2\n      lt\n      tag_268\n      jumpi\n      tag_268\n      tag_161\n      jump\t// in\n    tag_268:\n      0x20\n      swap1\n      dup2\n      mul\n      swap2\n      swap1\n      swap2\n      add\n      add\n      mload\n      sub(shl(0xa0, 0x01), 0x01)\n        /* \"@solidstate/contracts/proxy/diamond/readable/DiamondReadableInternal.sol\":2300:2339  diamondFacets[numFacets].target = facet */\n      swap1\n      swap2\n      and\n      swap1\n      mstore\n        /* \"@solidstate/contracts/proxy/diamond/readable/DiamondReadableInternal.sol\":2428:2443  l.selectorCount */\n      0x01\n      dup11\n      add\n      sload\n      0xffff\n      and\n        /* \"@solidstate/contracts/proxy/diamond/readable/DiamondReadableInternal.sol\":2394:2461  new bytes4[](... */\n      0xffffffffffffffff\n      dup2\n      gt\n      iszero\n      tag_270\n      jumpi\n      tag_270\n      tag_199\n      jump\t// in\n    tag_270:\n      mload(0x40)\n      swap1\n      dup1\n      dup3\n      mstore\n      dup1\n      0x20\n      mul\n      0x20\n      add\n      dup3\n      add\n      0x40\n      mstore\n      dup1\n      iszero\n      tag_271\n      jumpi\n      dup2\n      0x20\n      add\n      0x20\n      dup3\n      mul\n      dup1\n      calldatasize\n      dup4\n      calldatacopy\n      add\n      swap1\n      pop\n    tag_271:\n      pop\n        /* \"@solidstate/contracts/proxy/diamond/readable/DiamondReadableInternal.sol\":2357:2370  diamondFacets */\n      dup12\n        /* \"@solidstate/contracts/proxy/diamond/readable/DiamondReadableInternal.sol\":2371:2380  numFacets */\n      dup10\n        /* \"@solidstate/contracts/proxy/diamond/readable/DiamondReadableInternal.sol\":2357:2381  diamondFacets[numFacets] */\n      dup2\n      mload\n      dup2\n      lt\n      tag_273\n      jumpi\n      tag_273\n      tag_161\n      jump\t// in\n    tag_273:\n      0x20\n      mul\n      0x20\n      add\n      add\n      mload\n        /* \"@solidstate/contracts/proxy/diamond/readable/DiamondReadableInternal.sol\":2357:2391  diamondFacets[numFacets].selectors */\n      0x20\n      add\n        /* \"@solidstate/contracts/proxy/diamond/readable/DiamondReadableInternal.sol\":2357:2461  diamondFacets[numFacets].selectors = new bytes4[](... */\n      dup2\n      swap1\n      mstore\n      pop\n        /* \"@solidstate/contracts/proxy/diamond/readable/DiamondReadableInternal.sol\":2519:2527  selector */\n      dup3\n        /* \"@solidstate/contracts/proxy/diamond/readable/DiamondReadableInternal.sol\":2479:2492  diamondFacets */\n      dup12\n        /* \"@solidstate/contracts/proxy/diamond/readable/DiamondReadableInternal.sol\":2493:2502  numFacets */\n      dup10\n        /* \"@solidstate/contracts/proxy/diamond/readable/DiamondReadableInternal.sol\":2479:2503  diamondFacets[numFacets] */\n      dup2\n      mload\n      dup2\n      lt\n      tag_275\n      jumpi\n      tag_275\n      tag_161\n      jump\t// in\n    tag_275:\n      0x20\n      mul\n      0x20\n      add\n      add\n      mload\n        /* \"@solidstate/contracts/proxy/diamond/readable/DiamondReadableInternal.sol\":2479:2513  diamondFacets[numFacets].selectors */\n      0x20\n      add\n      mload\n        /* \"@solidstate/contracts/proxy/diamond/readable/DiamondReadableInternal.sol\":2514:2515  0 */\n      0x00\n        /* \"@solidstate/contracts/proxy/diamond/readable/DiamondReadableInternal.sol\":2479:2516  diamondFacets[numFacets].selectors[0] */\n      dup2\n      mload\n      dup2\n      lt\n      tag_277\n      jumpi\n      tag_277\n      tag_161\n      jump\t// in\n    tag_277:\n      0x20\n      mul\n      0x20\n      add\n      add\n        /* \"@solidstate/contracts/proxy/diamond/readable/DiamondReadableInternal.sol\":2479:2527  diamondFacets[numFacets].selectors[0] = selector */\n      swap1\n      not(sub(shl(0xe0, 0x01), 0x01))\n      and\n      swap1\n      dup2\n      not(sub(shl(0xe0, 0x01), 0x01))\n      and\n      dup2\n      mstore\n      pop\n      pop\n        /* \"@solidstate/contracts/proxy/diamond/readable/DiamondReadableInternal.sol\":2576:2577  1 */\n      0x01\n        /* \"@solidstate/contracts/proxy/diamond/readable/DiamondReadableInternal.sol\":2545:2562  numFacetSelectors */\n      dup10\n        /* \"@solidstate/contracts/proxy/diamond/readable/DiamondReadableInternal.sol\":2563:2572  numFacets */\n      dup10\n        /* \"@solidstate/contracts/proxy/diamond/readable/DiamondReadableInternal.sol\":2545:2573  numFacetSelectors[numFacets] */\n      dup2\n      mload\n      dup2\n      lt\n      tag_279\n      jumpi\n      tag_279\n      tag_161\n      jump\t// in\n    tag_279:\n        /* \"@solidstate/contracts/proxy/diamond/readable/DiamondReadableInternal.sol\":2545:2577  numFacetSelectors[numFacets] = 1 */\n      0xff\n      swap1\n      swap3\n      and\n        /* \"@solidstate/contracts/proxy/diamond/readable/DiamondReadableInternal.sol\":2545:2573  numFacetSelectors[numFacets] */\n      0x20\n      swap3\n      dup4\n      mul\n      swap2\n      swap1\n      swap2\n      add\n      swap1\n      swap2\n      add\n        /* \"@solidstate/contracts/proxy/diamond/readable/DiamondReadableInternal.sol\":2545:2577  numFacetSelectors[numFacets] = 1 */\n      mstore\n        /* \"@solidstate/contracts/proxy/diamond/readable/DiamondReadableInternal.sol\":2595:2606  numFacets++ */\n      dup8\n      tag_280\n      dup2\n      tag_208\n      jump\t// in\n    tag_280:\n      swap9\n      pop\n      pop\n        /* \"@solidstate/contracts/proxy/diamond/readable/DiamondReadableInternal.sol\":1228:2621  {... */\n      pop\n      pop\n      pop\n        /* \"@solidstate/contracts/proxy/diamond/readable/DiamondReadableInternal.sol\":1090:2621  for (... */\n    tag_244:\n        /* \"@solidstate/contracts/proxy/diamond/readable/DiamondReadableInternal.sol\":1194:1213  selectorSlotIndex++ */\n      0x01\n      add\n        /* \"@solidstate/contracts/proxy/diamond/readable/DiamondReadableInternal.sol\":1090:2621  for (... */\n      jump(tag_242)\n    tag_243:\n      pop\n        /* \"@solidstate/contracts/proxy/diamond/readable/DiamondReadableInternal.sol\":1020:2631  {... */\n      pop\n        /* \"@solidstate/contracts/proxy/diamond/readable/DiamondReadableInternal.sol\":1007:1018  slotIndex++ */\n      dup1\n      dup1\n      tag_281\n      swap1\n      tag_208\n      jump\t// in\n    tag_281:\n      swap2\n      pop\n      pop\n        /* \"@solidstate/contracts/proxy/diamond/readable/DiamondReadableInternal.sol\":950:2631  for (uint256 slotIndex; selectorIndex < l.selectorCount; slotIndex++) {... */\n      jump(tag_239)\n    tag_240:\n      pop\n        /* \"@solidstate/contracts/proxy/diamond/readable/DiamondReadableInternal.sol\":2646:2664  uint256 facetIndex */\n      0x00\n        /* \"@solidstate/contracts/proxy/diamond/readable/DiamondReadableInternal.sol\":2641:2991  for (uint256 facetIndex; facetIndex < numFacets; facetIndex++) {... */\n    tag_282:\n        /* \"@solidstate/contracts/proxy/diamond/readable/DiamondReadableInternal.sol\":2679:2688  numFacets */\n      dup3\n        /* \"@solidstate/contracts/proxy/diamond/readable/DiamondReadableInternal.sol\":2666:2676  facetIndex */\n      dup2\n        /* \"@solidstate/contracts/proxy/diamond/readable/DiamondReadableInternal.sol\":2666:2688  facetIndex < numFacets */\n      lt\n        /* \"@solidstate/contracts/proxy/diamond/readable/DiamondReadableInternal.sol\":2641:2991  for (uint256 facetIndex; facetIndex < numFacets; facetIndex++) {... */\n      iszero\n      tag_283\n      jumpi\n        /* \"@solidstate/contracts/proxy/diamond/readable/DiamondReadableInternal.sol\":2718:2738  uint256 numSelectors */\n      0x00\n        /* \"@solidstate/contracts/proxy/diamond/readable/DiamondReadableInternal.sol\":2741:2758  numFacetSelectors */\n      dup5\n        /* \"@solidstate/contracts/proxy/diamond/readable/DiamondReadableInternal.sol\":2759:2769  facetIndex */\n      dup3\n        /* \"@solidstate/contracts/proxy/diamond/readable/DiamondReadableInternal.sol\":2741:2770  numFacetSelectors[facetIndex] */\n      dup2\n      mload\n      dup2\n      lt\n      tag_286\n      jumpi\n      tag_286\n      tag_161\n      jump\t// in\n    tag_286:\n      0x20\n      mul\n      0x20\n      add\n      add\n      mload\n        /* \"@solidstate/contracts/proxy/diamond/readable/DiamondReadableInternal.sol\":2718:2770  uint256 numSelectors = numFacetSelectors[facetIndex] */\n      0xff\n      and\n      swap1\n      pop\n        /* \"@solidstate/contracts/proxy/diamond/readable/DiamondReadableInternal.sol\":2784:2809  bytes4[] memory selectors */\n      0x00\n        /* \"@solidstate/contracts/proxy/diamond/readable/DiamondReadableInternal.sol\":2812:2825  diamondFacets */\n      dup8\n        /* \"@solidstate/contracts/proxy/diamond/readable/DiamondReadableInternal.sol\":2826:2836  facetIndex */\n      dup4\n        /* \"@solidstate/contracts/proxy/diamond/readable/DiamondReadableInternal.sol\":2812:2837  diamondFacets[facetIndex] */\n      dup2\n      mload\n      dup2\n      lt\n      tag_288\n      jumpi\n      tag_288\n      tag_161\n      jump\t// in\n    tag_288:\n      0x20\n      swap1\n      dup2\n      mul\n      swap2\n      swap1\n      swap2\n      add\n      dup2\n      add\n      mload\n        /* \"@solidstate/contracts/proxy/diamond/readable/DiamondReadableInternal.sol\":2812:2847  diamondFacets[facetIndex].selectors */\n      add\n      mload\n        /* \"@solidstate/contracts/proxy/diamond/readable/DiamondReadableInternal.sol\":2936:2967  mstore(selectors, numSelectors) */\n      swap2\n      swap1\n      swap2\n      mstore\n      pop\n        /* \"@solidstate/contracts/proxy/diamond/readable/DiamondReadableInternal.sol\":2690:2702  facetIndex++ */\n      0x01\n      add\n        /* \"@solidstate/contracts/proxy/diamond/readable/DiamondReadableInternal.sol\":2641:2991  for (uint256 facetIndex; facetIndex < numFacets; facetIndex++) {... */\n      jump(tag_282)\n    tag_283:\n      pop\n        /* \"@solidstate/contracts/proxy/diamond/readable/DiamondReadableInternal.sol\":3086:3095  numFacets */\n      dup2\n        /* \"@solidstate/contracts/proxy/diamond/readable/DiamondReadableInternal.sol\":3071:3084  diamondFacets */\n      dup6\n        /* \"@solidstate/contracts/proxy/diamond/readable/DiamondReadableInternal.sol\":3064:3096  mstore(diamondFacets, numFacets) */\n      mstore\n        /* \"@solidstate/contracts/proxy/diamond/readable/DiamondReadableInternal.sol\":3050:3106  {... */\n      pop\n      pop\n      pop\n      pop\n        /* \"@solidstate/contracts/proxy/diamond/readable/DiamondReadableInternal.sol\":562:3112  function _facets() internal view returns (Facet[] memory diamondFacets) {... */\n      swap1\n      jump\t// out\n        /* \"@solidstate/contracts/proxy/diamond/readable/DiamondReadableInternal.sol\":3290:4471  function _facetFunctionSelectors(... */\n    tag_131:\n        /* \"@solidstate/contracts/proxy/diamond/readable/DiamondReadableInternal.sol\":3513:3528  l.selectorCount */\n      sload(0x177481ac65e4292921c69f62d1cc7f57541261e5d61c8175cf4e36a01c9bfc94)\n        /* \"@solidstate/contracts/proxy/diamond/readable/DiamondReadableInternal.sol\":3375:3400  bytes4[] memory selectors */\n      0x60\n      swap1\n        /* \"@solidstate/contracts/proxy/diamond/base/DiamondBaseStorage.sol\":585:638  keccak256('solidstate.contracts.storage.DiamondBase') */\n      0x177481ac65e4292921c69f62d1cc7f57541261e5d61c8175cf4e36a01c9bfc93\n      swap1\n        /* \"@solidstate/contracts/proxy/diamond/readable/DiamondReadableInternal.sol\":3513:3528  l.selectorCount */\n      0xffff\n      and\n        /* \"@solidstate/contracts/proxy/diamond/readable/DiamondReadableInternal.sol\":3500:3529  new bytes4[](l.selectorCount) */\n      0xffffffffffffffff\n      dup2\n      gt\n      iszero\n      tag_294\n      jumpi\n      tag_294\n      tag_199\n      jump\t// in\n    tag_294:\n      mload(0x40)\n      swap1\n      dup1\n      dup3\n      mstore\n      dup1\n      0x20\n      mul\n      0x20\n      add\n      dup3\n      add\n      0x40\n      mstore\n      dup1\n      iszero\n      tag_295\n      jumpi\n      dup2\n      0x20\n      add\n      0x20\n      dup3\n      mul\n      dup1\n      calldatasize\n      dup4\n      calldatacopy\n      add\n      swap1\n      pop\n    tag_295:\n      pop\n        /* \"@solidstate/contracts/proxy/diamond/readable/DiamondReadableInternal.sol\":3488:3529  selectors = new bytes4[](l.selectorCount) */\n      swap2\n      pop\n        /* \"@solidstate/contracts/proxy/diamond/readable/DiamondReadableInternal.sol\":3540:3560  uint256 numSelectors */\n      0x00\n        /* \"@solidstate/contracts/proxy/diamond/readable/DiamondReadableInternal.sol\":3570:3591  uint256 selectorIndex */\n      dup1\n        /* \"@solidstate/contracts/proxy/diamond/readable/DiamondReadableInternal.sol\":3650:3667  uint256 slotIndex */\n      0x00\n        /* \"@solidstate/contracts/proxy/diamond/readable/DiamondReadableInternal.sol\":3645:4339  for (uint256 slotIndex; selectorIndex < l.selectorCount; slotIndex++) {... */\n    tag_296:\n        /* \"@solidstate/contracts/proxy/diamond/readable/DiamondReadableInternal.sol\":3685:3700  l.selectorCount */\n      0x01\n      dup5\n      add\n      sload\n      0xffff\n      and\n        /* \"@solidstate/contracts/proxy/diamond/readable/DiamondReadableInternal.sol\":3669:3700  selectorIndex < l.selectorCount */\n      dup3\n      lt\n        /* \"@solidstate/contracts/proxy/diamond/readable/DiamondReadableInternal.sol\":3645:4339  for (uint256 slotIndex; selectorIndex < l.selectorCount; slotIndex++) {... */\n      iszero\n      tag_297\n      jumpi\n        /* \"@solidstate/contracts/proxy/diamond/readable/DiamondReadableInternal.sol\":3729:3741  bytes32 slot */\n      0x00\n        /* \"@solidstate/contracts/proxy/diamond/readable/DiamondReadableInternal.sol\":3744:3770  l.selectorSlots[slotIndex] */\n      dup2\n      dup2\n      mstore\n        /* \"@solidstate/contracts/proxy/diamond/readable/DiamondReadableInternal.sol\":3744:3759  l.selectorSlots */\n      0x02\n      dup6\n      add\n        /* \"@solidstate/contracts/proxy/diamond/readable/DiamondReadableInternal.sol\":3744:3770  l.selectorSlots[slotIndex] */\n      0x20\n      mstore\n      0x40\n      dup2\n      keccak256\n      sload\n      swap1\n        /* \"@solidstate/contracts/proxy/diamond/readable/DiamondReadableInternal.sol\":3785:4329  for (... */\n    tag_299:\n        /* \"@solidstate/contracts/proxy/diamond/readable/DiamondReadableInternal.sol\":3870:3871  8 */\n      0x08\n        /* \"@solidstate/contracts/proxy/diamond/readable/DiamondReadableInternal.sol\":3850:3867  selectorSlotIndex */\n      dup2\n        /* \"@solidstate/contracts/proxy/diamond/readable/DiamondReadableInternal.sol\":3850:3871  selectorSlotIndex < 8 */\n      lt\n        /* \"@solidstate/contracts/proxy/diamond/readable/DiamondReadableInternal.sol\":3785:4329  for (... */\n      iszero\n      tag_300\n      jumpi\n        /* \"@solidstate/contracts/proxy/diamond/readable/DiamondReadableInternal.sol\":3941:3956  selectorIndex++ */\n      dup4\n      tag_302\n      dup2\n      tag_208\n      jump\t// in\n    tag_302:\n        /* \"@solidstate/contracts/proxy/diamond/readable/DiamondReadableInternal.sol\":3995:4010  l.selectorCount */\n      0x01\n      dup9\n      add\n      sload\n        /* \"@solidstate/contracts/proxy/diamond/readable/DiamondReadableInternal.sol\":3941:3956  selectorIndex++ */\n      swap1\n      swap6\n      pop\n        /* \"@solidstate/contracts/proxy/diamond/readable/DiamondReadableInternal.sol\":3995:4010  l.selectorCount */\n      0xffff\n      and\n        /* \"@solidstate/contracts/proxy/diamond/readable/DiamondReadableInternal.sol\":3979:4010  selectorIndex > l.selectorCount */\n      dup6\n      gt\n      swap1\n      pop\n        /* \"@solidstate/contracts/proxy/diamond/readable/DiamondReadableInternal.sol\":4034:4039  break */\n      tag_300\n        /* \"@solidstate/contracts/proxy/diamond/readable/DiamondReadableInternal.sol\":3975:4058  if (selectorIndex > l.selectorCount) {... */\n      jumpi\n        /* \"@solidstate/contracts/proxy/diamond/readable/DiamondReadableInternal.sol\":4131:4132  5 */\n      0x05\n        /* \"@solidstate/contracts/proxy/diamond/readable/DiamondReadableInternal.sol\":4110:4132  selectorSlotIndex << 5 */\n      dup2\n      swap1\n      shl\n        /* \"@solidstate/contracts/proxy/diamond/readable/DiamondReadableInternal.sol\":4101:4133  slot << (selectorSlotIndex << 5) */\n      dup3\n      swap1\n      shl\n      not(sub(shl(0xe0, 0x01), 0x01))\n        /* \"@solidstate/contracts/proxy/diamond/readable/DiamondReadableInternal.sol\":4182:4200  l.facets[selector] */\n      dup2\n      and\n        /* \"@solidstate/contracts/proxy/diamond/readable/DiamondReadableInternal.sol\":4076:4091  bytes4 selector */\n      0x00\n        /* \"@solidstate/contracts/proxy/diamond/readable/DiamondReadableInternal.sol\":4182:4200  l.facets[selector] */\n      swap1\n      dup2\n      mstore\n      0x20\n      dup9\n      swap1\n      mstore\n      0x40\n      swap1\n      keccak256\n      sload\n        /* \"@solidstate/contracts/proxy/diamond/readable/DiamondReadableInternal.sol\":4166:4202  address(bytes20(l.facets[selector])) */\n      0x60\n      shr\n      sub(shl(0xa0, 0x01), 0x01)\n        /* \"@solidstate/contracts/proxy/diamond/readable/DiamondReadableInternal.sol\":4157:4202  facet == address(bytes20(l.facets[selector])) */\n      dup11\n      and\n      sub\n        /* \"@solidstate/contracts/proxy/diamond/readable/DiamondReadableInternal.sol\":4153:4315  if (facet == address(bytes20(l.facets[selector]))) {... */\n      tag_304\n      jumpi\n        /* \"@solidstate/contracts/proxy/diamond/readable/DiamondReadableInternal.sol\":4252:4260  selector */\n      dup1\n        /* \"@solidstate/contracts/proxy/diamond/readable/DiamondReadableInternal.sol\":4226:4235  selectors */\n      dup9\n        /* \"@solidstate/contracts/proxy/diamond/readable/DiamondReadableInternal.sol\":4236:4248  numSelectors */\n      dup8\n        /* \"@solidstate/contracts/proxy/diamond/readable/DiamondReadableInternal.sol\":4226:4249  selectors[numSelectors] */\n      dup2\n      mload\n      dup2\n      lt\n      tag_306\n      jumpi\n      tag_306\n      tag_161\n      jump\t// in\n    tag_306:\n      not(sub(shl(0xe0, 0x01), 0x01))\n        /* \"@solidstate/contracts/proxy/diamond/readable/DiamondReadableInternal.sol\":4226:4260  selectors[numSelectors] = selector */\n      swap1\n      swap3\n      and\n        /* \"@solidstate/contracts/proxy/diamond/readable/DiamondReadableInternal.sol\":4226:4249  selectors[numSelectors] */\n      0x20\n      swap3\n      dup4\n      mul\n      swap2\n      swap1\n      swap2\n      add\n      swap1\n      swap2\n      add\n        /* \"@solidstate/contracts/proxy/diamond/readable/DiamondReadableInternal.sol\":4226:4260  selectors[numSelectors] = selector */\n      mstore\n        /* \"@solidstate/contracts/proxy/diamond/readable/DiamondReadableInternal.sol\":4282:4296  numSelectors++ */\n      dup6\n      tag_307\n      dup2\n      tag_208\n      jump\t// in\n    tag_307:\n      swap7\n      pop\n      pop\n        /* \"@solidstate/contracts/proxy/diamond/readable/DiamondReadableInternal.sol\":4153:4315  if (facet == address(bytes20(l.facets[selector]))) {... */\n    tag_304:\n      pop\n        /* \"@solidstate/contracts/proxy/diamond/readable/DiamondReadableInternal.sol\":3889:3908  selectorSlotIndex++ */\n      0x01\n      add\n        /* \"@solidstate/contracts/proxy/diamond/readable/DiamondReadableInternal.sol\":3785:4329  for (... */\n      jump(tag_299)\n    tag_300:\n      pop\n        /* \"@solidstate/contracts/proxy/diamond/readable/DiamondReadableInternal.sol\":3715:4339  {... */\n      pop\n        /* \"@solidstate/contracts/proxy/diamond/readable/DiamondReadableInternal.sol\":3702:3713  slotIndex++ */\n      dup1\n      dup1\n      tag_308\n      swap1\n      tag_208\n      jump\t// in\n    tag_308:\n      swap2\n      pop\n      pop\n        /* \"@solidstate/contracts/proxy/diamond/readable/DiamondReadableInternal.sol\":3645:4339  for (uint256 slotIndex; selectorIndex < l.selectorCount; slotIndex++) {... */\n      jump(tag_296)\n    tag_297:\n      pop\n      pop\n        /* \"@solidstate/contracts/proxy/diamond/readable/DiamondReadableInternal.sol\":4424:4455  mstore(selectors, numSelectors) */\n      dup3\n      mstore\n      pop\n        /* \"@solidstate/contracts/proxy/diamond/readable/DiamondReadableInternal.sol\":4431:4440  selectors */\n      swap2\n        /* \"@solidstate/contracts/proxy/diamond/readable/DiamondReadableInternal.sol\":3290:4471  function _facetFunctionSelectors(... */\n      swap1\n      pop\n      jump\t// out\n        /* \"@solidstate/contracts/proxy/diamond/SolidStateDiamond.sol\":3234:3399  function _transferOwnership(... */\n    tag_140:\n        /* \"@solidstate/contracts/access/ownable/SafeOwnableStorage.sol\":198:251  keccak256('solidstate.contracts.storage.SafeOwnable') */\n      0x24aa1f7b31fd188a8d3ecfb06bc55c806040e59b03bd4396283442fce6617890\n        /* \"@solidstate/contracts/access/ownable/SafeOwnableInternal.sol\":1257:1307  SafeOwnableStorage.layout().nomineeOwner = account */\n      dup1\n      sload\n      not(0xffffffffffffffffffffffffffffffffffffffff)\n      and\n      sub(shl(0xa0, 0x01), 0x01)\n      dup4\n      and\n      or\n      swap1\n      sstore\n        /* \"@solidstate/contracts/proxy/diamond/SolidStateDiamond.sol\":3359:3392  super._transferOwnership(account) */\n      tag_127\n        /* \"@solidstate/contracts/proxy/diamond/SolidStateDiamond.sol\":3384:3391  account */\n      dup2\n        /* \"@solidstate/contracts/proxy/diamond/SolidStateDiamond.sol\":3359:3392  super._transferOwnership(account) */\n      dup2\n        /* \"@solidstate/contracts/proxy/diamond/SolidStateDiamond.sol\":3384:3391  account */\n      dup2\n        /* \"@solidstate/contracts/proxy/diamond/SolidStateDiamond.sol\":3359:3392  super._transferOwnership(account) */\n      dup2\n        /* \"@solidstate/contracts/access/ownable/SafeOwnableInternal.sol\":1187:1314  function _setNomineeOwner(address account) internal virtual {... */\n      jump\n        /* \"@solidstate/contracts/proxy/diamond/writable/DiamondWritableInternal.sol\":2899:4643  function _addFacetSelectors(... */\n    tag_170:\n        /* \"@solidstate/contracts/proxy/diamond/writable/DiamondWritableInternal.sol\":3147:3162  facetCut.target */\n      dup1\n      mload\n        /* \"@solidstate/contracts/proxy/diamond/writable/DiamondWritableInternal.sol\":3091:3098  uint256 */\n      0x00\n      swap1\n      dup2\n      swap1\n      sub(shl(0xa0, 0x01), 0x01)\n        /* \"@solidstate/contracts/proxy/diamond/writable/DiamondWritableInternal.sol\":3147:3173  facetCut.target.isContract */\n      and\n        /* \"@solidstate/contracts/utils/AddressUtils.sol\":569:589  extcodesize(account) */\n      extcodesize\n        /* \"@solidstate/contracts/utils/AddressUtils.sol\":615:623  size > 0 */\n      iszero\n        /* \"@solidstate/contracts/proxy/diamond/writable/DiamondWritableInternal.sol\":3143:3451  if (facetCut.target.isContract()) {... */\n      tag_320\n      jumpi\n        /* \"@solidstate/contracts/proxy/diamond/writable/DiamondWritableInternal.sol\":3199:3214  facetCut.target */\n      dup3\n      mload\n        /* \"@solidstate/contracts/proxy/diamond/writable/DiamondWritableInternal.sol\":3226:3230  this */\n      address\n      sub(shl(0xa0, 0x01), 0x01)\n        /* \"@solidstate/contracts/proxy/diamond/writable/DiamondWritableInternal.sol\":3199:3231  facetCut.target == address(this) */\n      swap1\n      swap2\n      and\n      sub\n        /* \"@solidstate/contracts/proxy/diamond/writable/DiamondWritableInternal.sol\":3195:3319  if (facetCut.target == address(this)) {... */\n      tag_321\n      jumpi\n        /* \"@solidstate/contracts/proxy/diamond/writable/DiamondWritableInternal.sol\":3262:3300  DiamondWritable__SelectorIsImmutable() */\n      mload(0x40)\n      shl(0xe0, 0xe9835731)\n      dup2\n      mstore\n      0x04\n      add\n      mload(0x40)\n      dup1\n      swap2\n      sub\n      swap1\n      revert\n        /* \"@solidstate/contracts/proxy/diamond/writable/DiamondWritableInternal.sol\":3195:3319  if (facetCut.target == address(this)) {... */\n    tag_321:\n        /* \"@solidstate/contracts/proxy/diamond/writable/DiamondWritableInternal.sol\":3143:3451  if (facetCut.target.isContract()) {... */\n      jump(tag_323)\n    tag_320:\n        /* \"@solidstate/contracts/proxy/diamond/writable/DiamondWritableInternal.sol\":3343:3358  facetCut.target */\n      dup3\n      mload\n      sub(shl(0xa0, 0x01), 0x01)\n        /* \"@solidstate/contracts/proxy/diamond/writable/DiamondWritableInternal.sol\":3343:3375  facetCut.target != address(this) */\n      and\n        /* \"@solidstate/contracts/proxy/diamond/writable/DiamondWritableInternal.sol\":3370:3374  this */\n      address\n        /* \"@solidstate/contracts/proxy/diamond/writable/DiamondWritableInternal.sol\":3343:3375  facetCut.target != address(this) */\n      eq\n        /* \"@solidstate/contracts/proxy/diamond/writable/DiamondWritableInternal.sol\":3339:3451  if (facetCut.target != address(this)) {... */\n      tag_323\n      jumpi\n        /* \"@solidstate/contracts/proxy/diamond/writable/DiamondWritableInternal.sol\":3402:3436  DiamondWritable__TargetHasNoCode() */\n      mload(0x40)\n      shl(0xe2, 0x3ddc5cab)\n      dup2\n      mstore\n      0x04\n      add\n      mload(0x40)\n      dup1\n      swap2\n      sub\n      swap1\n      revert\n        /* \"@solidstate/contracts/proxy/diamond/writable/DiamondWritableInternal.sol\":3339:3451  if (facetCut.target != address(this)) {... */\n    tag_323:\n        /* \"@solidstate/contracts/proxy/diamond/writable/DiamondWritableInternal.sol\":3470:3479  uint256 i */\n      0x00\n        /* \"@solidstate/contracts/proxy/diamond/writable/DiamondWritableInternal.sol\":3465:4576  for (uint256 i; i < facetCut.selectors.length; i++) {... */\n    tag_324:\n        /* \"@solidstate/contracts/proxy/diamond/writable/DiamondWritableInternal.sol\":3485:3493  facetCut */\n      dup4\n        /* \"@solidstate/contracts/proxy/diamond/writable/DiamondWritableInternal.sol\":3485:3503  facetCut.selectors */\n      0x40\n      add\n      mload\n        /* \"@solidstate/contracts/proxy/diamond/writable/DiamondWritableInternal.sol\":3485:3510  facetCut.selectors.length */\n      mload\n        /* \"@solidstate/contracts/proxy/diamond/writable/DiamondWritableInternal.sol\":3481:3482  i */\n      dup2\n        /* \"@solidstate/contracts/proxy/diamond/writable/DiamondWritableInternal.sol\":3481:3510  i < facetCut.selectors.length */\n      lt\n        /* \"@solidstate/contracts/proxy/diamond/writable/DiamondWritableInternal.sol\":3465:4576  for (uint256 i; i < facetCut.selectors.length; i++) {... */\n      iszero\n      tag_325\n      jumpi\n        /* \"@solidstate/contracts/proxy/diamond/writable/DiamondWritableInternal.sol\":3535:3550  bytes4 selector */\n      0x00\n        /* \"@solidstate/contracts/proxy/diamond/writable/DiamondWritableInternal.sol\":3553:3561  facetCut */\n      dup5\n        /* \"@solidstate/contracts/proxy/diamond/writable/DiamondWritableInternal.sol\":3553:3571  facetCut.selectors */\n      0x40\n      add\n      mload\n        /* \"@solidstate/contracts/proxy/diamond/writable/DiamondWritableInternal.sol\":3572:3573  i */\n      dup3\n        /* \"@solidstate/contracts/proxy/diamond/writable/DiamondWritableInternal.sol\":3553:3574  facetCut.selectors[i] */\n      dup2\n      mload\n      dup2\n      lt\n      tag_328\n      jumpi\n      tag_328\n      tag_161\n      jump\t// in\n    tag_328:\n      0x20\n      swap1\n      dup2\n      mul\n      swap2\n      swap1\n      swap2\n      add\n      dup2\n      add\n      mload\n      not(sub(shl(0xe0, 0x01), 0x01))\n        /* \"@solidstate/contracts/proxy/diamond/writable/DiamondWritableInternal.sol\":3611:3629  l.facets[selector] */\n      dup2\n      and\n        /* \"@solidstate/contracts/proxy/diamond/writable/DiamondWritableInternal.sol\":3592:3608  bytes32 oldFacet */\n      0x00\n        /* \"@solidstate/contracts/proxy/diamond/writable/DiamondWritableInternal.sol\":3611:3629  l.facets[selector] */\n      swap1\n      dup2\n      mstore\n      swap2\n      dup11\n      swap1\n      mstore\n      0x40\n      swap1\n      swap2\n      keccak256\n      sload\n        /* \"@solidstate/contracts/proxy/diamond/writable/DiamondWritableInternal.sol\":3553:3574  facetCut.selectors[i] */\n      swap1\n      swap2\n      pop\n        /* \"@solidstate/contracts/proxy/diamond/writable/DiamondWritableInternal.sol\":3652:3678  address(bytes20(oldFacet)) */\n      0x60\n      dup2\n      swap1\n      shr\n        /* \"@solidstate/contracts/proxy/diamond/writable/DiamondWritableInternal.sol\":3652:3692  address(bytes20(oldFacet)) != address(0) */\n      iszero\n        /* \"@solidstate/contracts/proxy/diamond/writable/DiamondWritableInternal.sol\":3648:3760  if (address(bytes20(oldFacet)) != address(0))... */\n      tag_329\n      jumpi\n        /* \"@solidstate/contracts/proxy/diamond/writable/DiamondWritableInternal.sol\":3721:3760  DiamondWritable__SelectorAlreadyAdded() */\n      mload(0x40)\n      0x92474ee200000000000000000000000000000000000000000000000000000000\n      dup2\n      mstore\n      0x04\n      add\n      mload(0x40)\n      dup1\n      swap2\n      sub\n      swap1\n      revert\n        /* \"@solidstate/contracts/proxy/diamond/writable/DiamondWritableInternal.sol\":3648:3760  if (address(bytes20(oldFacet)) != address(0))... */\n    tag_329:\n        /* \"@solidstate/contracts/proxy/diamond/writable/DiamondWritableInternal.sol\":3870:3885  facetCut.target */\n      dup6\n      mload\n      not(sub(shl(0xe0, 0x01), 0x01))\n        /* \"@solidstate/contracts/proxy/diamond/writable/DiamondWritableInternal.sol\":3821:3839  l.facets[selector] */\n      dup4\n      dup2\n      and\n        /* \"@solidstate/contracts/proxy/diamond/writable/DiamondWritableInternal.sol\":3909:3931  bytes32(selectorCount) */\n      0x00\n        /* \"@solidstate/contracts/proxy/diamond/writable/DiamondWritableInternal.sol\":3821:3839  l.facets[selector] */\n      dup2\n      dup2\n      mstore\n      0x20\n      dup14\n      swap1\n      mstore\n      0x40\n      swap1\n      keccak256\n        /* \"@solidstate/contracts/proxy/diamond/writable/DiamondWritableInternal.sol\":3862:3886  bytes20(facetCut.target) */\n      0x60\n      swap4\n      swap1\n      swap4\n      shl\n      not(0xffffffffffffffffffffffff)\n        /* \"@solidstate/contracts/proxy/diamond/writable/DiamondWritableInternal.sol\":3862:3931  bytes20(facetCut.target) |... */\n      and\n      dup12\n      or\n        /* \"@solidstate/contracts/proxy/diamond/writable/DiamondWritableInternal.sol\":3821:3931  l.facets[selector] =... */\n      swap1\n      swap3\n      sstore\n        /* \"@solidstate/contracts/proxy/diamond/writable/DiamondWritableInternal.sol\":4005:4006  5 */\n      0x05\n        /* \"@solidstate/contracts/proxy/diamond/writable/DiamondWritableInternal.sol\":3982:4006  (selectorCount & 7) << 5 */\n      dup11\n      swap1\n      shl\n      0xe0\n      swap1\n      dup2\n      and\n        /* \"@solidstate/contracts/proxy/diamond/writable/DiamondWritableInternal.sol\":4241:4284  bytes32(selector) >> selectorInSlotPosition */\n      swap3\n      dup4\n      shr\n        /* \"@solidstate/contracts/proxy/diamond/writable/DiamondWritableInternal.sol\":4170:4215  CLEAR_SELECTOR_MASK >> selectorInSlotPosition */\n      swap2\n      dup4\n      shr\n        /* \"@solidstate/contracts/proxy/diamond/writable/DiamondWritableInternal.sol\":4168:4216  ~(CLEAR_SELECTOR_MASK >> selectorInSlotPosition) */\n      not\n        /* \"@solidstate/contracts/proxy/diamond/writable/DiamondWritableInternal.sol\":4129:4216  selectorSlot &... */\n      swap10\n      swap1\n      swap10\n      and\n        /* \"@solidstate/contracts/proxy/diamond/writable/DiamondWritableInternal.sol\":4128:4285  (selectorSlot &... */\n      or\n      swap8\n        /* \"@solidstate/contracts/proxy/diamond/writable/DiamondWritableInternal.sol\":4368:4397  selectorInSlotPosition == 224 */\n      dup2\n      swap1\n      sub\n        /* \"@solidstate/contracts/proxy/diamond/writable/DiamondWritableInternal.sol\":4364:4528  if (selectorInSlotPosition == 224) {... */\n      tag_330\n      jumpi\n        /* \"@solidstate/contracts/proxy/diamond/writable/DiamondWritableInternal.sol\":4454:4455  3 */\n      0x03\n        /* \"@solidstate/contracts/proxy/diamond/writable/DiamondWritableInternal.sol\":4437:4455  selectorCount >> 3 */\n      dup10\n      swap1\n      shr\n        /* \"@solidstate/contracts/proxy/diamond/writable/DiamondWritableInternal.sol\":4421:4456  l.selectorSlots[selectorCount >> 3] */\n      0x00\n      swap1\n      dup2\n      mstore\n        /* \"@solidstate/contracts/proxy/diamond/writable/DiamondWritableInternal.sol\":4421:4436  l.selectorSlots */\n      0x02\n      dup12\n      add\n        /* \"@solidstate/contracts/proxy/diamond/writable/DiamondWritableInternal.sol\":4421:4456  l.selectorSlots[selectorCount >> 3] */\n      0x20\n      mstore\n      0x40\n      dup2\n      keccak256\n        /* \"@solidstate/contracts/proxy/diamond/writable/DiamondWritableInternal.sol\":4421:4471  l.selectorSlots[selectorCount >> 3] = selectorSlot */\n      swap9\n      swap1\n      swap9\n      sstore\n        /* \"@solidstate/contracts/proxy/diamond/writable/DiamondWritableInternal.sol\":4364:4528  if (selectorInSlotPosition == 224) {... */\n    tag_330:\n      pop\n      pop\n      pop\n        /* \"@solidstate/contracts/proxy/diamond/writable/DiamondWritableInternal.sol\":4546:4561  selectorCount++ */\n      0x01\n      swap6\n      dup7\n      add\n      swap6\n        /* \"@solidstate/contracts/proxy/diamond/writable/DiamondWritableInternal.sol\":3512:3515  i++ */\n      add\n        /* \"@solidstate/contracts/proxy/diamond/writable/DiamondWritableInternal.sol\":3465:4576  for (uint256 i; i < facetCut.selectors.length; i++) {... */\n      jump(tag_324)\n    tag_325:\n      pop\n        /* \"@solidstate/contracts/proxy/diamond/writable/DiamondWritableInternal.sol\":4598:4611  selectorCount */\n      swap4\n      swap6\n        /* \"@solidstate/contracts/proxy/diamond/writable/DiamondWritableInternal.sol\":4613:4625  selectorSlot */\n      swap3\n      swap5\n      pop\n        /* \"@solidstate/contracts/proxy/diamond/writable/DiamondWritableInternal.sol\":2899:4643  function _addFacetSelectors(... */\n      swap2\n      swap3\n      pop\n      pop\n      pop\n      jump\t// out\n        /* \"@solidstate/contracts/proxy/diamond/writable/DiamondWritableInternal.sol\":8329:9409  function _replaceFacetSelectors(... */\n    tag_178:\n        /* \"@solidstate/contracts/proxy/diamond/writable/DiamondWritableInternal.sol\":8494:8509  facetCut.target */\n      dup1\n      mload\n      sub(shl(0xa0, 0x01), 0x01)\n        /* \"@solidstate/contracts/proxy/diamond/writable/DiamondWritableInternal.sol\":8494:8520  facetCut.target.isContract */\n      and\n        /* \"@solidstate/contracts/utils/AddressUtils.sol\":569:589  extcodesize(account) */\n      extcodesize\n        /* \"@solidstate/contracts/proxy/diamond/writable/DiamondWritableInternal.sol\":8489:8581  if (!facetCut.target.isContract())... */\n      tag_333\n      jumpi\n        /* \"@solidstate/contracts/proxy/diamond/writable/DiamondWritableInternal.sol\":8547:8581  DiamondWritable__TargetHasNoCode() */\n      mload(0x40)\n      shl(0xe2, 0x3ddc5cab)\n      dup2\n      mstore\n      0x04\n      add\n      mload(0x40)\n      dup1\n      swap2\n      sub\n      swap1\n      revert\n        /* \"@solidstate/contracts/proxy/diamond/writable/DiamondWritableInternal.sol\":8489:8581  if (!facetCut.target.isContract())... */\n    tag_333:\n        /* \"@solidstate/contracts/proxy/diamond/writable/DiamondWritableInternal.sol\":8601:8610  uint256 i */\n      0x00\n        /* \"@solidstate/contracts/proxy/diamond/writable/DiamondWritableInternal.sol\":8596:9393  for (uint256 i; i < facetCut.selectors.length; i++) {... */\n    tag_334:\n        /* \"@solidstate/contracts/proxy/diamond/writable/DiamondWritableInternal.sol\":8616:8624  facetCut */\n      dup2\n        /* \"@solidstate/contracts/proxy/diamond/writable/DiamondWritableInternal.sol\":8616:8634  facetCut.selectors */\n      0x40\n      add\n      mload\n        /* \"@solidstate/contracts/proxy/diamond/writable/DiamondWritableInternal.sol\":8616:8641  facetCut.selectors.length */\n      mload\n        /* \"@solidstate/contracts/proxy/diamond/writable/DiamondWritableInternal.sol\":8612:8613  i */\n      dup2\n        /* \"@solidstate/contracts/proxy/diamond/writable/DiamondWritableInternal.sol\":8612:8641  i < facetCut.selectors.length */\n      lt\n        /* \"@solidstate/contracts/proxy/diamond/writable/DiamondWritableInternal.sol\":8596:9393  for (uint256 i; i < facetCut.selectors.length; i++) {... */\n      iszero\n      tag_335\n      jumpi\n        /* \"@solidstate/contracts/proxy/diamond/writable/DiamondWritableInternal.sol\":8666:8681  bytes4 selector */\n      0x00\n        /* \"@solidstate/contracts/proxy/diamond/writable/DiamondWritableInternal.sol\":8684:8692  facetCut */\n      dup3\n        /* \"@solidstate/contracts/proxy/diamond/writable/DiamondWritableInternal.sol\":8684:8702  facetCut.selectors */\n      0x40\n      add\n      mload\n        /* \"@solidstate/contracts/proxy/diamond/writable/DiamondWritableInternal.sol\":8703:8704  i */\n      dup3\n        /* \"@solidstate/contracts/proxy/diamond/writable/DiamondWritableInternal.sol\":8684:8705  facetCut.selectors[i] */\n      dup2\n      mload\n      dup2\n      lt\n      tag_338\n      jumpi\n      tag_338\n      tag_161\n      jump\t// in\n    tag_338:\n      0x20\n      swap1\n      dup2\n      mul\n      swap2\n      swap1\n      swap2\n      add\n      dup2\n      add\n      mload\n      not(sub(shl(0xe0, 0x01), 0x01))\n        /* \"@solidstate/contracts/proxy/diamond/writable/DiamondWritableInternal.sol\":8742:8760  l.facets[selector] */\n      dup2\n      and\n        /* \"@solidstate/contracts/proxy/diamond/writable/DiamondWritableInternal.sol\":8723:8739  bytes32 oldFacet */\n      0x00\n        /* \"@solidstate/contracts/proxy/diamond/writable/DiamondWritableInternal.sol\":8742:8760  l.facets[selector] */\n      swap1\n      dup2\n      mstore\n      swap2\n      dup7\n      swap1\n      mstore\n      0x40\n      swap1\n      swap2\n      keccak256\n      sload\n        /* \"@solidstate/contracts/proxy/diamond/writable/DiamondWritableInternal.sol\":8684:8705  facetCut.selectors[i] */\n      swap1\n      swap2\n      pop\n        /* \"@solidstate/contracts/proxy/diamond/writable/DiamondWritableInternal.sol\":8804:8830  address(bytes20(oldFacet)) */\n      0x60\n      dup2\n      swap1\n      shr\n      dup1\n        /* \"@solidstate/contracts/proxy/diamond/writable/DiamondWritableInternal.sol\":8849:8946  if (oldFacetAddress == address(0))... */\n      tag_339\n      jumpi\n        /* \"@solidstate/contracts/proxy/diamond/writable/DiamondWritableInternal.sol\":8911:8946  DiamondWritable__SelectorNotFound() */\n      mload(0x40)\n      shl(0xe1, 0x37e25a97)\n      dup2\n      mstore\n      0x04\n      add\n      mload(0x40)\n      dup1\n      swap2\n      sub\n      swap1\n      revert\n        /* \"@solidstate/contracts/proxy/diamond/writable/DiamondWritableInternal.sol\":8849:8946  if (oldFacetAddress == address(0))... */\n    tag_339:\n        /* \"@solidstate/contracts/proxy/diamond/writable/DiamondWritableInternal.sol\":8995:8999  this */\n      address\n      sub(shl(0xa0, 0x01), 0x01)\n        /* \"@solidstate/contracts/proxy/diamond/writable/DiamondWritableInternal.sol\":8968:9000  oldFacetAddress == address(this) */\n      dup3\n      and\n      sub\n        /* \"@solidstate/contracts/proxy/diamond/writable/DiamondWritableInternal.sol\":8964:9067  if (oldFacetAddress == address(this))... */\n      tag_340\n      jumpi\n        /* \"@solidstate/contracts/proxy/diamond/writable/DiamondWritableInternal.sol\":9029:9067  DiamondWritable__SelectorIsImmutable() */\n      mload(0x40)\n      shl(0xe0, 0xe9835731)\n      dup2\n      mstore\n      0x04\n      add\n      mload(0x40)\n      dup1\n      swap2\n      sub\n      swap1\n      revert\n        /* \"@solidstate/contracts/proxy/diamond/writable/DiamondWritableInternal.sol\":8964:9067  if (oldFacetAddress == address(this))... */\n    tag_340:\n        /* \"@solidstate/contracts/proxy/diamond/writable/DiamondWritableInternal.sol\":9108:9116  facetCut */\n      dup5\n        /* \"@solidstate/contracts/proxy/diamond/writable/DiamondWritableInternal.sol\":9108:9123  facetCut.target */\n      0x00\n      add\n      mload\n      sub(shl(0xa0, 0x01), 0x01)\n        /* \"@solidstate/contracts/proxy/diamond/writable/DiamondWritableInternal.sol\":9089:9123  oldFacetAddress == facetCut.target */\n      and\n        /* \"@solidstate/contracts/proxy/diamond/writable/DiamondWritableInternal.sol\":9089:9104  oldFacetAddress */\n      dup2\n      sub(shl(0xa0, 0x01), 0x01)\n        /* \"@solidstate/contracts/proxy/diamond/writable/DiamondWritableInternal.sol\":9089:9123  oldFacetAddress == facetCut.target */\n      and\n      sub\n        /* \"@solidstate/contracts/proxy/diamond/writable/DiamondWritableInternal.sol\":9085:9195  if (oldFacetAddress == facetCut.target)... */\n      tag_341\n      jumpi\n        /* \"@solidstate/contracts/proxy/diamond/writable/DiamondWritableInternal.sol\":9152:9195  DiamondWritable__ReplaceTargetIsIdentical() */\n      mload(0x40)\n      0x617557e600000000000000000000000000000000000000000000000000000000\n      dup2\n      mstore\n      0x04\n      add\n      mload(0x40)\n      dup1\n      swap2\n      sub\n      swap1\n      revert\n        /* \"@solidstate/contracts/proxy/diamond/writable/DiamondWritableInternal.sol\":9085:9195  if (oldFacetAddress == facetCut.target)... */\n    tag_341:\n      pop\n        /* \"@solidstate/contracts/proxy/diamond/writable/DiamondWritableInternal.sol\":9362:9377  facetCut.target */\n      dup4\n      mload\n      not(sub(shl(0xe0, 0x01), 0x01))\n        /* \"@solidstate/contracts/proxy/diamond/writable/DiamondWritableInternal.sol\":9259:9277  l.facets[selector] */\n      swap3\n      swap1\n      swap3\n      and\n        /* \"@solidstate/contracts/proxy/diamond/writable/DiamondWritableInternal.sol\":9362:9377  facetCut.target */\n      0x00\n        /* \"@solidstate/contracts/proxy/diamond/writable/DiamondWritableInternal.sol\":9259:9277  l.facets[selector] */\n      swap1\n      dup2\n      mstore\n      0x20\n      dup7\n      swap1\n      mstore\n      0x40\n      swap1\n      keccak256\n        /* \"@solidstate/contracts/proxy/diamond/writable/DiamondWritableInternal.sol\":9354:9378  bytes20(facetCut.target) */\n      0x60\n      swap3\n      swap1\n      swap3\n      shl\n      not(0xffffffffffffffffffffffff)\n        /* \"@solidstate/contracts/proxy/diamond/writable/DiamondWritableInternal.sol\":9300:9378  (oldFacet & CLEAR_ADDRESS_MASK) |... */\n      and\n      0xffffffffffffffffffffffff\n        /* \"@solidstate/contracts/proxy/diamond/writable/DiamondWritableInternal.sol\":9301:9330  oldFacet & CLEAR_ADDRESS_MASK */\n      swap2\n      swap1\n      swap2\n      and\n        /* \"@solidstate/contracts/proxy/diamond/writable/DiamondWritableInternal.sol\":9300:9378  (oldFacet & CLEAR_ADDRESS_MASK) |... */\n      or\n        /* \"@solidstate/contracts/proxy/diamond/writable/DiamondWritableInternal.sol\":9259:9378  l.facets[selector] =... */\n      swap1\n      sstore\n        /* \"@solidstate/contracts/proxy/diamond/writable/DiamondWritableInternal.sol\":8643:8646  i++ */\n      0x01\n      add\n        /* \"@solidstate/contracts/proxy/diamond/writable/DiamondWritableInternal.sol\":8596:9393  for (uint256 i; i < facetCut.selectors.length; i++) {... */\n      jump(tag_334)\n    tag_335:\n      pop\n        /* \"@solidstate/contracts/proxy/diamond/writable/DiamondWritableInternal.sol\":8329:9409  function _replaceFacetSelectors(... */\n      pop\n      pop\n      jump\t// out\n        /* \"@solidstate/contracts/proxy/diamond/writable/DiamondWritableInternal.sol\":4649:8323  function _removeFacetSelectors(... */\n    tag_186:\n        /* \"@solidstate/contracts/proxy/diamond/writable/DiamondWritableInternal.sol\":4900:4915  facetCut.target */\n      dup1\n      mload\n        /* \"@solidstate/contracts/proxy/diamond/writable/DiamondWritableInternal.sol\":4844:4851  uint256 */\n      0x00\n      swap1\n      dup2\n      swap1\n      sub(shl(0xa0, 0x01), 0x01)\n        /* \"@solidstate/contracts/proxy/diamond/writable/DiamondWritableInternal.sol\":4900:4929  facetCut.target != address(0) */\n      and\n      iszero\n        /* \"@solidstate/contracts/proxy/diamond/writable/DiamondWritableInternal.sol\":4896:4999  if (facetCut.target != address(0))... */\n      tag_343\n      jumpi\n        /* \"@solidstate/contracts/proxy/diamond/writable/DiamondWritableInternal.sol\":4954:4999  DiamondWritable__RemoveTargetNotZeroAddress() */\n      mload(0x40)\n      0xeacd242400000000000000000000000000000000000000000000000000000000\n      dup2\n      mstore\n      0x04\n      add\n      mload(0x40)\n      dup1\n      swap2\n      sub\n      swap1\n      revert\n        /* \"@solidstate/contracts/proxy/diamond/writable/DiamondWritableInternal.sol\":4896:4999  if (facetCut.target != address(0))... */\n    tag_343:\n        /* \"@solidstate/contracts/proxy/diamond/writable/DiamondWritableInternal.sol\":5059:5060  3 */\n      0x03\n        /* \"@solidstate/contracts/proxy/diamond/writable/DiamondWritableInternal.sol\":5042:5060  selectorCount >> 3 */\n      dup6\n      swap1\n      shr\n        /* \"@solidstate/contracts/proxy/diamond/writable/DiamondWritableInternal.sol\":5120:5121  7 */\n      0x07\n        /* \"@solidstate/contracts/proxy/diamond/writable/DiamondWritableInternal.sol\":5104:5121  selectorCount & 7 */\n      dup7\n      and\n        /* \"@solidstate/contracts/proxy/diamond/writable/DiamondWritableInternal.sol\":5014:5039  uint256 selectorSlotCount */\n      0x00\n        /* \"@solidstate/contracts/proxy/diamond/writable/DiamondWritableInternal.sol\":5136:8179  for (uint256 i; i < facetCut.selectors.length; i++) {... */\n    tag_344:\n        /* \"@solidstate/contracts/proxy/diamond/writable/DiamondWritableInternal.sol\":5156:5164  facetCut */\n      dup6\n        /* \"@solidstate/contracts/proxy/diamond/writable/DiamondWritableInternal.sol\":5156:5174  facetCut.selectors */\n      0x40\n      add\n      mload\n        /* \"@solidstate/contracts/proxy/diamond/writable/DiamondWritableInternal.sol\":5156:5181  facetCut.selectors.length */\n      mload\n        /* \"@solidstate/contracts/proxy/diamond/writable/DiamondWritableInternal.sol\":5152:5153  i */\n      dup2\n        /* \"@solidstate/contracts/proxy/diamond/writable/DiamondWritableInternal.sol\":5152:5181  i < facetCut.selectors.length */\n      lt\n        /* \"@solidstate/contracts/proxy/diamond/writable/DiamondWritableInternal.sol\":5136:8179  for (uint256 i; i < facetCut.selectors.length; i++) {... */\n      iszero\n      tag_345\n      jumpi\n        /* \"@solidstate/contracts/proxy/diamond/writable/DiamondWritableInternal.sol\":5206:5221  bytes4 selector */\n      0x00\n        /* \"@solidstate/contracts/proxy/diamond/writable/DiamondWritableInternal.sol\":5224:5232  facetCut */\n      dup7\n        /* \"@solidstate/contracts/proxy/diamond/writable/DiamondWritableInternal.sol\":5224:5242  facetCut.selectors */\n      0x40\n      add\n      mload\n        /* \"@solidstate/contracts/proxy/diamond/writable/DiamondWritableInternal.sol\":5243:5244  i */\n      dup3\n        /* \"@solidstate/contracts/proxy/diamond/writable/DiamondWritableInternal.sol\":5224:5245  facetCut.selectors[i] */\n      dup2\n      mload\n      dup2\n      lt\n      tag_348\n      jumpi\n      tag_348\n      tag_161\n      jump\t// in\n    tag_348:\n      0x20\n      swap1\n      dup2\n      mul\n      swap2\n      swap1\n      swap2\n      add\n      dup2\n      add\n      mload\n      not(sub(shl(0xe0, 0x01), 0x01))\n        /* \"@solidstate/contracts/proxy/diamond/writable/DiamondWritableInternal.sol\":5282:5300  l.facets[selector] */\n      dup2\n      and\n        /* \"@solidstate/contracts/proxy/diamond/writable/DiamondWritableInternal.sol\":5263:5279  bytes32 oldFacet */\n      0x00\n        /* \"@solidstate/contracts/proxy/diamond/writable/DiamondWritableInternal.sol\":5282:5300  l.facets[selector] */\n      swap1\n      dup2\n      mstore\n      swap2\n      dup13\n      swap1\n      mstore\n      0x40\n      swap1\n      swap2\n      keccak256\n      sload\n        /* \"@solidstate/contracts/proxy/diamond/writable/DiamondWritableInternal.sol\":5224:5245  facetCut.selectors[i] */\n      swap1\n      swap2\n      pop\n        /* \"@solidstate/contracts/proxy/diamond/writable/DiamondWritableInternal.sol\":5323:5349  address(bytes20(oldFacet)) */\n      0x60\n      dup2\n      swap1\n      shr\n        /* \"@solidstate/contracts/proxy/diamond/writable/DiamondWritableInternal.sol\":5319:5427  if (address(bytes20(oldFacet)) == address(0))... */\n      tag_349\n      jumpi\n        /* \"@solidstate/contracts/proxy/diamond/writable/DiamondWritableInternal.sol\":5392:5427  DiamondWritable__SelectorNotFound() */\n      mload(0x40)\n      shl(0xe1, 0x37e25a97)\n      dup2\n      mstore\n      0x04\n      add\n      mload(0x40)\n      dup1\n      swap2\n      sub\n      swap1\n      revert\n        /* \"@solidstate/contracts/proxy/diamond/writable/DiamondWritableInternal.sol\":5319:5427  if (address(bytes20(oldFacet)) == address(0))... */\n    tag_349:\n        /* \"@solidstate/contracts/proxy/diamond/writable/DiamondWritableInternal.sol\":5488:5492  this */\n      address\n        /* \"@solidstate/contracts/proxy/diamond/writable/DiamondWritableInternal.sol\":5450:5476  address(bytes20(oldFacet)) */\n      0x60\n      dup3\n      swap1\n      shr\n        /* \"@solidstate/contracts/proxy/diamond/writable/DiamondWritableInternal.sol\":5450:5493  address(bytes20(oldFacet)) == address(this) */\n      sub\n        /* \"@solidstate/contracts/proxy/diamond/writable/DiamondWritableInternal.sol\":5446:5560  if (address(bytes20(oldFacet)) == address(this))... */\n      tag_350\n      jumpi\n        /* \"@solidstate/contracts/proxy/diamond/writable/DiamondWritableInternal.sol\":5522:5560  DiamondWritable__SelectorIsImmutable() */\n      mload(0x40)\n      shl(0xe0, 0xe9835731)\n      dup2\n      mstore\n      0x04\n      add\n      mload(0x40)\n      dup1\n      swap2\n      sub\n      swap1\n      revert\n        /* \"@solidstate/contracts/proxy/diamond/writable/DiamondWritableInternal.sol\":5446:5560  if (address(bytes20(oldFacet)) == address(this))... */\n    tag_350:\n        /* \"@solidstate/contracts/proxy/diamond/writable/DiamondWritableInternal.sol\":5599:5600  0 */\n      0x00\n        /* \"@solidstate/contracts/proxy/diamond/writable/DiamondWritableInternal.sol\":5583:5600  selectorSlot == 0 */\n      dup10\n      swap1\n      sub\n        /* \"@solidstate/contracts/proxy/diamond/writable/DiamondWritableInternal.sol\":5579:5846  if (selectorSlot == 0) {... */\n      tag_351\n      jumpi\n      not(0x00)\n        /* \"@solidstate/contracts/proxy/diamond/writable/DiamondWritableInternal.sol\":5624:5643  selectorSlotCount-- */\n      swap1\n      swap5\n      add\n        /* \"@solidstate/contracts/proxy/diamond/writable/DiamondWritableInternal.sol\":5680:5714  l.selectorSlots[selectorSlotCount] */\n      0x00\n      dup2\n      dup2\n      mstore\n        /* \"@solidstate/contracts/proxy/diamond/writable/DiamondWritableInternal.sol\":5680:5695  l.selectorSlots */\n      0x02\n      dup13\n      add\n        /* \"@solidstate/contracts/proxy/diamond/writable/DiamondWritableInternal.sol\":5680:5714  l.selectorSlots[selectorSlotCount] */\n      0x20\n      mstore\n      0x40\n      swap1\n      keccak256\n      sload\n      swap9\n      pop\n        /* \"@solidstate/contracts/proxy/diamond/writable/DiamondWritableInternal.sol\":5624:5643  selectorSlotCount-- */\n      swap4\n        /* \"@solidstate/contracts/proxy/diamond/writable/DiamondWritableInternal.sol\":5758:5759  7 */\n      0x07\n      swap4\n      pop\n        /* \"@solidstate/contracts/proxy/diamond/writable/DiamondWritableInternal.sol\":5579:5846  if (selectorSlot == 0) {... */\n      jump(tag_352)\n    tag_351:\n      not(0x00)\n        /* \"@solidstate/contracts/proxy/diamond/writable/DiamondWritableInternal.sol\":5806:5827  selectorInSlotIndex-- */\n      swap1\n      swap4\n      add\n      swap3\n        /* \"@solidstate/contracts/proxy/diamond/writable/DiamondWritableInternal.sol\":5579:5846  if (selectorSlot == 0) {... */\n    tag_352:\n        /* \"@solidstate/contracts/proxy/diamond/writable/DiamondWritableInternal.sol\":6249:6250  5 */\n      0x05\n        /* \"@solidstate/contracts/proxy/diamond/writable/DiamondWritableInternal.sol\":6226:6250  selectorInSlotIndex << 5 */\n      dup5\n      swap1\n      shl\n        /* \"@solidstate/contracts/proxy/diamond/writable/DiamondWritableInternal.sol\":6209:6251  selectorSlot << (selectorInSlotIndex << 5) */\n      dup10\n      swap1\n      shl\n        /* \"@solidstate/contracts/proxy/diamond/writable/DiamondWritableInternal.sol\":5864:5883  bytes4 lastSelector */\n      0x00\n      dup1\n      not(sub(shl(0xe0, 0x01), 0x01))\n        /* \"@solidstate/contracts/proxy/diamond/writable/DiamondWritableInternal.sol\":6300:6324  lastSelector != selector */\n      dup1\n      dup5\n      and\n      swap1\n      dup7\n      and\n      eq\n        /* \"@solidstate/contracts/proxy/diamond/writable/DiamondWritableInternal.sol\":6296:6588  if (lastSelector != selector) {... */\n      tag_353\n      jumpi\n      not(sub(shl(0xe0, 0x01), 0x01))\n        /* \"@solidstate/contracts/proxy/diamond/writable/DiamondWritableInternal.sol\":6542:6564  l.facets[lastSelector] */\n      dup4\n      and\n        /* \"@solidstate/contracts/proxy/diamond/writable/DiamondWritableInternal.sol\":6542:6550  l.facets */\n      0x00\n        /* \"@solidstate/contracts/proxy/diamond/writable/DiamondWritableInternal.sol\":6542:6564  l.facets[lastSelector] */\n      swap1\n      dup2\n      mstore\n      0x20\n      dup16\n      swap1\n      mstore\n      0x40\n      swap1\n      keccak256\n      dup1\n      sload\n      not(0xffffffffffffffffffffffff)\n        /* \"@solidstate/contracts/proxy/diamond/writable/DiamondWritableInternal.sol\":6472:6565  (oldFacet & CLEAR_ADDRESS_MASK) |... */\n      and\n      0xffffffffffffffffffffffff\n        /* \"@solidstate/contracts/proxy/diamond/writable/DiamondWritableInternal.sol\":6473:6502  oldFacet & CLEAR_ADDRESS_MASK */\n      dup7\n      and\n        /* \"@solidstate/contracts/proxy/diamond/writable/DiamondWritableInternal.sol\":6472:6565  (oldFacet & CLEAR_ADDRESS_MASK) |... */\n      or\n        /* \"@solidstate/contracts/proxy/diamond/writable/DiamondWritableInternal.sol\":6419:6565  l.facets[lastSelector] =... */\n      swap1\n      sstore\n        /* \"@solidstate/contracts/proxy/diamond/writable/DiamondWritableInternal.sol\":6296:6588  if (lastSelector != selector) {... */\n    tag_353:\n      pop\n      pop\n      not(sub(shl(0xe0, 0x01), 0x01))\n        /* \"@solidstate/contracts/proxy/diamond/writable/DiamondWritableInternal.sol\":6617:6635  l.facets[selector] */\n      dup4\n      and\n        /* \"@solidstate/contracts/proxy/diamond/writable/DiamondWritableInternal.sol\":6617:6625  l.facets */\n      0x00\n        /* \"@solidstate/contracts/proxy/diamond/writable/DiamondWritableInternal.sol\":6617:6635  l.facets[selector] */\n      swap1\n      dup2\n      mstore\n      0x20\n      dup14\n      swap1\n      mstore\n      0x40\n      dup2\n      keccak256\n        /* \"@solidstate/contracts/proxy/diamond/writable/DiamondWritableInternal.sol\":6610:6635  delete l.facets[selector] */\n      sstore\n        /* \"@solidstate/contracts/proxy/diamond/writable/DiamondWritableInternal.sol\":6755:6776  oldSelectorCount >> 3 */\n      0x1fff\n        /* \"@solidstate/contracts/proxy/diamond/writable/DiamondWritableInternal.sol\":6775:6776  3 */\n      0x03\n        /* \"@solidstate/contracts/proxy/diamond/writable/DiamondWritableInternal.sol\":6755:6776  oldSelectorCount >> 3 */\n      dup4\n      swap1\n      shr\n      and\n        /* \"@solidstate/contracts/proxy/diamond/writable/DiamondWritableInternal.sol\":6826:6853  (oldSelectorCount & 7) << 5 */\n      0xe0\n        /* \"@solidstate/contracts/proxy/diamond/writable/DiamondWritableInternal.sol\":6852:6853  5 */\n      0x05\n        /* \"@solidstate/contracts/proxy/diamond/writable/DiamondWritableInternal.sol\":6826:6853  (oldSelectorCount & 7) << 5 */\n      dup5\n      swap1\n      shl\n      and\n        /* \"@solidstate/contracts/proxy/diamond/writable/DiamondWritableInternal.sol\":6894:6936  oldSelectorsSlotCount != selectorSlotCount */\n      dup8\n      dup3\n      eq\n        /* \"@solidstate/contracts/proxy/diamond/writable/DiamondWritableInternal.sol\":6890:7997  if (oldSelectorsSlotCount != selectorSlotCount) {... */\n      tag_354\n      jumpi\n        /* \"@solidstate/contracts/proxy/diamond/writable/DiamondWritableInternal.sol\":6960:6983  bytes32 oldSelectorSlot */\n      0x00\n        /* \"@solidstate/contracts/proxy/diamond/writable/DiamondWritableInternal.sol\":6986:7070  l.selectorSlots[... */\n      dup3\n      dup2\n      mstore\n        /* \"@solidstate/contracts/proxy/diamond/writable/DiamondWritableInternal.sol\":6986:7001  l.selectorSlots */\n      0x02\n      dup16\n      add\n        /* \"@solidstate/contracts/proxy/diamond/writable/DiamondWritableInternal.sol\":6986:7070  l.selectorSlots[... */\n      0x20\n      mstore\n      0x40\n      swap1\n      keccak256\n      dup1\n      sload\n      not(sub(shl(0xe0, 0x01), 0x01))\n        /* \"@solidstate/contracts/proxy/diamond/writable/DiamondWritableInternal.sol\":7284:7364  CLEAR_SELECTOR_MASK >>... */\n      dup1\n      dup5\n      shr\n        /* \"@solidstate/contracts/proxy/diamond/writable/DiamondWritableInternal.sol\":7282:7365  ~(CLEAR_SELECTOR_MASK >>... */\n      not\n        /* \"@solidstate/contracts/proxy/diamond/writable/DiamondWritableInternal.sol\":7236:7365  oldSelectorSlot &... */\n      swap1\n      swap2\n      and\n        /* \"@solidstate/contracts/proxy/diamond/writable/DiamondWritableInternal.sol\":7394:7415  bytes32(lastSelector) */\n      swap1\n      dup6\n      and\n        /* \"@solidstate/contracts/proxy/diamond/writable/DiamondWritableInternal.sol\":7394:7444  bytes32(lastSelector) >> oldSelectorInSlotPosition */\n      dup4\n      shr\n        /* \"@solidstate/contracts/proxy/diamond/writable/DiamondWritableInternal.sol\":7235:7445  (oldSelectorSlot &... */\n      or\n        /* \"@solidstate/contracts/proxy/diamond/writable/DiamondWritableInternal.sol\":7529:7585  l.selectorSlots[oldSelectorsSlotCount] = oldSelectorSlot */\n      swap1\n      sstore\n        /* \"@solidstate/contracts/proxy/diamond/writable/DiamondWritableInternal.sol\":6890:7997  if (oldSelectorsSlotCount != selectorSlotCount) {... */\n      jump(tag_355)\n    tag_354:\n        /* \"@solidstate/contracts/proxy/diamond/writable/DiamondWritableInternal.sol\":7952:7977  oldSelectorInSlotPosition */\n      dup1\n        /* \"@solidstate/contracts/proxy/diamond/writable/DiamondWritableInternal.sol\":7935:7947  lastSelector */\n      dup4\n      sub(shl(0xe0, 0x01), 0x01)\n        /* \"@solidstate/contracts/proxy/diamond/writable/DiamondWritableInternal.sol\":7927:7948  bytes32(lastSelector) */\n      not\n      and\n        /* \"@solidstate/contracts/proxy/diamond/writable/DiamondWritableInternal.sol\":7927:7977  bytes32(lastSelector) >> oldSelectorInSlotPosition */\n      swap1\n      shr\n        /* \"@solidstate/contracts/proxy/diamond/writable/DiamondWritableInternal.sol\":7872:7897  oldSelectorInSlotPosition */\n      dup2\n      not(sub(shl(0xe0, 0x01), 0x01))\n        /* \"@solidstate/contracts/proxy/diamond/writable/DiamondWritableInternal.sol\":540:575  bytes32(uint256(0xffffffff << 224)) */\n      0x00\n      shl\n        /* \"@solidstate/contracts/proxy/diamond/writable/DiamondWritableInternal.sol\":7817:7897  CLEAR_SELECTOR_MASK >>... */\n      swap1\n      shr\n        /* \"@solidstate/contracts/proxy/diamond/writable/DiamondWritableInternal.sol\":7815:7898  ~(CLEAR_SELECTOR_MASK >>... */\n      not\n        /* \"@solidstate/contracts/proxy/diamond/writable/DiamondWritableInternal.sol\":7772:7784  selectorSlot */\n      dup14\n        /* \"@solidstate/contracts/proxy/diamond/writable/DiamondWritableInternal.sol\":7772:7898  selectorSlot &... */\n      and\n        /* \"@solidstate/contracts/proxy/diamond/writable/DiamondWritableInternal.sol\":7771:7978  (selectorSlot &... */\n      or\n        /* \"@solidstate/contracts/proxy/diamond/writable/DiamondWritableInternal.sol\":7732:7978  selectorSlot =... */\n      swap12\n      pop\n        /* \"@solidstate/contracts/proxy/diamond/writable/DiamondWritableInternal.sol\":6890:7997  if (oldSelectorsSlotCount != selectorSlotCount) {... */\n    tag_355:\n        /* \"@solidstate/contracts/proxy/diamond/writable/DiamondWritableInternal.sol\":8019:8038  selectorInSlotIndex */\n      dup7\n        /* \"@solidstate/contracts/proxy/diamond/writable/DiamondWritableInternal.sol\":8042:8043  0 */\n      0x00\n        /* \"@solidstate/contracts/proxy/diamond/writable/DiamondWritableInternal.sol\":8019:8043  selectorInSlotIndex == 0 */\n      sub\n        /* \"@solidstate/contracts/proxy/diamond/writable/DiamondWritableInternal.sol\":8015:8165  if (selectorInSlotIndex == 0) {... */\n      tag_356\n      jumpi\n        /* \"@solidstate/contracts/proxy/diamond/writable/DiamondWritableInternal.sol\":8074:8108  l.selectorSlots[selectorSlotCount] */\n      0x00\n      dup9\n      dup2\n      mstore\n        /* \"@solidstate/contracts/proxy/diamond/writable/DiamondWritableInternal.sol\":8074:8089  l.selectorSlots */\n      0x02\n      dup16\n      add\n        /* \"@solidstate/contracts/proxy/diamond/writable/DiamondWritableInternal.sol\":8074:8108  l.selectorSlots[selectorSlotCount] */\n      0x20\n      mstore\n      0x40\n      dup2\n      keccak256\n        /* \"@solidstate/contracts/proxy/diamond/writable/DiamondWritableInternal.sol\":8067:8108  delete l.selectorSlots[selectorSlotCount] */\n      dup2\n      swap1\n      sstore\n        /* \"@solidstate/contracts/proxy/diamond/writable/DiamondWritableInternal.sol\":8074:8108  l.selectorSlots[selectorSlotCount] */\n      swap12\n      pop\n        /* \"@solidstate/contracts/proxy/diamond/writable/DiamondWritableInternal.sol\":8015:8165  if (selectorInSlotIndex == 0) {... */\n    tag_356:\n      pop\n      pop\n        /* \"@solidstate/contracts/proxy/diamond/writable/DiamondWritableInternal.sol\":5183:5186  i++ */\n      0x01\n      swap1\n      swap4\n      add\n      swap3\n      pop\n        /* \"@solidstate/contracts/proxy/diamond/writable/DiamondWritableInternal.sol\":5136:8179  for (uint256 i; i < facetCut.selectors.length; i++) {... */\n      tag_344\n      swap2\n      pop\n      pop\n      jump\n    tag_345:\n      pop\n        /* \"@solidstate/contracts/proxy/diamond/writable/DiamondWritableInternal.sol\":8231:8232  3 */\n      0x03\n        /* \"@solidstate/contracts/proxy/diamond/writable/DiamondWritableInternal.sol\":8210:8232  selectorSlotCount << 3 */\n      swap2\n      swap1\n      swap2\n      shl\n        /* \"@solidstate/contracts/proxy/diamond/writable/DiamondWritableInternal.sol\":8209:8255  (selectorSlotCount << 3) | selectorInSlotIndex */\n      or\n      swap7\n        /* \"@solidstate/contracts/proxy/diamond/writable/DiamondWritableInternal.sol\":8293:8305  selectorSlot */\n      swap4\n      swap6\n      pop\n        /* \"@solidstate/contracts/proxy/diamond/writable/DiamondWritableInternal.sol\":4649:8323  function _removeFacetSelectors(... */\n      swap3\n      swap4\n      pop\n      pop\n      pop\n      pop\n      jump\t// out\n        /* \"@solidstate/contracts/proxy/diamond/writable/DiamondWritableInternal.sol\":9415:10078  function _initialize(address target, bytes memory data) private {... */\n    tag_192:\n        /* \"@solidstate/contracts/proxy/diamond/writable/DiamondWritableInternal.sol\":9520:9531  data.length */\n      dup1\n      mload\n        /* \"@solidstate/contracts/proxy/diamond/writable/DiamondWritableInternal.sol\":9520:9536  data.length == 0 */\n      iszero\n      sub(shl(0xa0, 0x01), 0x01)\n        /* \"@solidstate/contracts/proxy/diamond/writable/DiamondWritableInternal.sol\":9494:9514  target == address(0) */\n      dup4\n      and\n      iszero\n        /* \"@solidstate/contracts/proxy/diamond/writable/DiamondWritableInternal.sol\":9493:9537  (target == address(0)) != (data.length == 0) */\n      eq\n        /* \"@solidstate/contracts/proxy/diamond/writable/DiamondWritableInternal.sol\":9489:9608  if ((target == address(0)) != (data.length == 0))... */\n      tag_358\n      jumpi\n        /* \"@solidstate/contracts/proxy/diamond/writable/DiamondWritableInternal.sol\":9558:9608  DiamondWritable__InvalidInitializationParameters() */\n      mload(0x40)\n      0x26df4ccd00000000000000000000000000000000000000000000000000000000\n      dup2\n      mstore\n      0x04\n      add\n      mload(0x40)\n      dup1\n      swap2\n      sub\n      swap1\n      revert\n        /* \"@solidstate/contracts/proxy/diamond/writable/DiamondWritableInternal.sol\":9489:9608  if ((target == address(0)) != (data.length == 0))... */\n    tag_358:\n      sub(shl(0xa0, 0x01), 0x01)\n        /* \"@solidstate/contracts/proxy/diamond/writable/DiamondWritableInternal.sol\":9623:9643  target != address(0) */\n      dup3\n      and\n      iszero\n        /* \"@solidstate/contracts/proxy/diamond/writable/DiamondWritableInternal.sol\":9619:10072  if (target != address(0)) {... */\n      tag_359\n      jumpi\n      sub(shl(0xa0, 0x01), 0x01)\n        /* \"@solidstate/contracts/proxy/diamond/writable/DiamondWritableInternal.sol\":9663:9686  target != address(this) */\n      dup3\n      and\n        /* \"@solidstate/contracts/proxy/diamond/writable/DiamondWritableInternal.sol\":9681:9685  this */\n      address\n        /* \"@solidstate/contracts/proxy/diamond/writable/DiamondWritableInternal.sol\":9663:9686  target != address(this) */\n      eq\n        /* \"@solidstate/contracts/proxy/diamond/writable/DiamondWritableInternal.sol\":9659:9808  if (target != address(this)) {... */\n      tag_362\n      jumpi\n      sub(shl(0xa0, 0x01), 0x01)\n        /* \"@solidstate/contracts/proxy/diamond/writable/DiamondWritableInternal.sol\":9711:9728  target.isContract */\n      dup3\n      and\n        /* \"@solidstate/contracts/utils/AddressUtils.sol\":569:589  extcodesize(account) */\n      extcodesize\n        /* \"@solidstate/contracts/proxy/diamond/writable/DiamondWritableInternal.sol\":9706:9793  if (!target.isContract())... */\n      tag_362\n      jumpi\n        /* \"@solidstate/contracts/proxy/diamond/writable/DiamondWritableInternal.sol\":9759:9793  DiamondWritable__TargetHasNoCode() */\n      mload(0x40)\n      shl(0xe2, 0x3ddc5cab)\n      dup2\n      mstore\n      0x04\n      add\n      mload(0x40)\n      dup1\n      swap2\n      sub\n      swap1\n      revert\n        /* \"@solidstate/contracts/proxy/diamond/writable/DiamondWritableInternal.sol\":9706:9793  if (!target.isContract())... */\n    tag_362:\n        /* \"@solidstate/contracts/proxy/diamond/writable/DiamondWritableInternal.sol\":9823:9835  bool success */\n      0x00\n        /* \"@solidstate/contracts/proxy/diamond/writable/DiamondWritableInternal.sol\":9841:9847  target */\n      dup3\n      sub(shl(0xa0, 0x01), 0x01)\n        /* \"@solidstate/contracts/proxy/diamond/writable/DiamondWritableInternal.sol\":9841:9860  target.delegatecall */\n      and\n        /* \"@solidstate/contracts/proxy/diamond/writable/DiamondWritableInternal.sol\":9861:9865  data */\n      dup3\n        /* \"@solidstate/contracts/proxy/diamond/writable/DiamondWritableInternal.sol\":9841:9866  target.delegatecall(data) */\n      mload(0x40)\n      tag_363\n      swap2\n      swap1\n      tag_364\n      jump\t// in\n    tag_363:\n      0x00\n      mload(0x40)\n      dup1\n      dup4\n      sub\n      dup2\n      dup6\n      gas\n      delegatecall\n      swap2\n      pop\n      pop\n      returndatasize\n      dup1\n      0x00\n      dup2\n      eq\n      tag_367\n      jumpi\n      mload(0x40)\n      swap2\n      pop\n      and(add(returndatasize, 0x3f), not(0x1f))\n      dup3\n      add\n      0x40\n      mstore\n      returndatasize\n      dup3\n      mstore\n      returndatasize\n      0x00\n      0x20\n      dup5\n      add\n      returndatacopy\n      jump(tag_366)\n    tag_367:\n      0x60\n      swap2\n      pop\n    tag_366:\n      pop\n        /* \"@solidstate/contracts/proxy/diamond/writable/DiamondWritableInternal.sol\":9822:9866  (bool success, ) = target.delegatecall(data) */\n      pop\n      swap1\n      pop\n        /* \"@solidstate/contracts/proxy/diamond/writable/DiamondWritableInternal.sol\":9886:9893  success */\n      dup1\n        /* \"@solidstate/contracts/proxy/diamond/writable/DiamondWritableInternal.sol\":9881:10062  if (!success) {... */\n      tag_335\n      jumpi\n        /* \"@solidstate/contracts/proxy/diamond/writable/DiamondWritableInternal.sol\":9965:9981  returndatasize() */\n      returndatasize\n        /* \"@solidstate/contracts/proxy/diamond/writable/DiamondWritableInternal.sol\":9962:9963  0 */\n      0x00\n      dup1\n        /* \"@solidstate/contracts/proxy/diamond/writable/DiamondWritableInternal.sol\":9944:9982  returndatacopy(0, 0, returndatasize()) */\n      returndatacopy\n        /* \"@solidstate/contracts/proxy/diamond/writable/DiamondWritableInternal.sol\":10013:10029  returndatasize() */\n      returndatasize\n        /* \"@solidstate/contracts/proxy/diamond/writable/DiamondWritableInternal.sol\":9962:9963  0 */\n      0x00\n        /* \"@solidstate/contracts/proxy/diamond/writable/DiamondWritableInternal.sol\":10003:10030  revert(0, returndatasize()) */\n      revert\n        /* \"@solidstate/contracts/proxy/diamond/writable/DiamondWritableInternal.sol\":9619:10072  if (target != address(0)) {... */\n    tag_359:\n        /* \"@solidstate/contracts/proxy/diamond/writable/DiamondWritableInternal.sol\":9415:10078  function _initialize(address target, bytes memory data) private {... */\n      pop\n      pop\n      jump\t// out\n        /* \"@solidstate/contracts/access/ownable/OwnableInternal.sol\":1204:1411  function _setOwner(address account) internal virtual {... */\n    tag_226:\n        /* \"@solidstate/contracts/access/ownable/OwnableStorage.sol\":187:236  keccak256('solidstate.contracts.storage.Ownable') */\n      0x8a22373512790c48b83a1fe2efdd2888d4a917bcdc24d0adf63e60f671680460\n        /* \"@solidstate/contracts/access/ownable/OwnableInternal.sol\":1360:1367  l.owner */\n      dup1\n      sload\n        /* \"@solidstate/contracts/access/ownable/OwnableInternal.sol\":1339:1377  OwnershipTransferred(l.owner, account) */\n      mload(0x40)\n      sub(shl(0xa0, 0x01), 0x01)\n      dup5\n      dup2\n      and\n      swap3\n        /* \"@solidstate/contracts/access/ownable/OwnableInternal.sol\":1360:1367  l.owner */\n      and\n      swap1\n        /* \"@solidstate/contracts/access/ownable/OwnableInternal.sol\":1339:1377  OwnershipTransferred(l.owner, account) */\n      0x8be0079c531659141344cd1fd0a4f28419497f9722a3daafe3b4186f6b6457e0\n      swap1\n        /* \"@solidstate/contracts/access/ownable/OwnableInternal.sol\":1267:1298  OwnableStorage.Layout storage l */\n      0x00\n      swap1\n        /* \"@solidstate/contracts/access/ownable/OwnableInternal.sol\":1339:1377  OwnershipTransferred(l.owner, account) */\n      log3\n        /* \"@solidstate/contracts/access/ownable/OwnableInternal.sol\":1387:1404  l.owner = account */\n      dup1\n      sload\n      not(0xffffffffffffffffffffffffffffffffffffffff)\n      and\n      sub(shl(0xa0, 0x01), 0x01)\n      swap3\n      swap1\n      swap3\n      and\n      swap2\n      swap1\n      swap2\n      or\n      swap1\n      sstore\n        /* \"@solidstate/contracts/access/ownable/OwnableInternal.sol\":1204:1411  function _setOwner(address account) internal virtual {... */\n      jump\t// out\n        /* \"#utility.yul\":14:233   */\n    tag_380:\n        /* \"#utility.yul\":81:101   */\n      dup1\n      calldataload\n      not(sub(shl(0xe0, 0x01), 0x01))\n        /* \"#utility.yul\":130:208   */\n      dup2\n      and\n        /* \"#utility.yul\":120:209   */\n      dup2\n      eq\n        /* \"#utility.yul\":110:227   */\n      tag_393\n      jumpi\n        /* \"#utility.yul\":223:224   */\n      0x00\n        /* \"#utility.yul\":220:221   */\n      dup1\n        /* \"#utility.yul\":213:225   */\n      revert\n        /* \"#utility.yul\":110:227   */\n    tag_393:\n        /* \"#utility.yul\":14:233   */\n      swap2\n      swap1\n      pop\n      jump\t// out\n        /* \"#utility.yul\":238:422   */\n    tag_32:\n        /* \"#utility.yul\":296:302   */\n      0x00\n        /* \"#utility.yul\":349:351   */\n      0x20\n        /* \"#utility.yul\":337:346   */\n      dup3\n        /* \"#utility.yul\":328:335   */\n      dup5\n        /* \"#utility.yul\":324:347   */\n      sub\n        /* \"#utility.yul\":320:352   */\n      slt\n        /* \"#utility.yul\":317:369   */\n      iszero\n      tag_395\n      jumpi\n        /* \"#utility.yul\":365:366   */\n      0x00\n        /* \"#utility.yul\":362:363   */\n      dup1\n        /* \"#utility.yul\":355:367   */\n      revert\n        /* \"#utility.yul\":317:369   */\n    tag_395:\n        /* \"#utility.yul\":388:416   */\n      tag_396\n        /* \"#utility.yul\":406:415   */\n      dup3\n        /* \"#utility.yul\":388:416   */\n      tag_380\n      jump\t// in\n    tag_396:\n        /* \"#utility.yul\":378:416   */\n      swap4\n        /* \"#utility.yul\":238:422   */\n      swap3\n      pop\n      pop\n      pop\n      jump\t// out\n        /* \"#utility.yul\":619:815   */\n    tag_381:\n        /* \"#utility.yul\":687:707   */\n      dup1\n      calldataload\n      sub(shl(0xa0, 0x01), 0x01)\n        /* \"#utility.yul\":736:790   */\n      dup2\n      and\n        /* \"#utility.yul\":726:791   */\n      dup2\n      eq\n        /* \"#utility.yul\":716:809   */\n      tag_393\n      jumpi\n        /* \"#utility.yul\":805:806   */\n      0x00\n        /* \"#utility.yul\":802:803   */\n      dup1\n        /* \"#utility.yul\":795:807   */\n      revert\n        /* \"#utility.yul\":820:1167   */\n    tag_382:\n        /* \"#utility.yul\":871:879   */\n      0x00\n        /* \"#utility.yul\":881:887   */\n      dup1\n        /* \"#utility.yul\":935:938   */\n      dup4\n        /* \"#utility.yul\":928:932   */\n      0x1f\n        /* \"#utility.yul\":920:926   */\n      dup5\n        /* \"#utility.yul\":916:933   */\n      add\n        /* \"#utility.yul\":912:939   */\n      slt\n        /* \"#utility.yul\":902:957   */\n      tag_401\n      jumpi\n        /* \"#utility.yul\":953:954   */\n      0x00\n        /* \"#utility.yul\":950:951   */\n      dup1\n        /* \"#utility.yul\":943:955   */\n      revert\n        /* \"#utility.yul\":902:957   */\n    tag_401:\n      pop\n        /* \"#utility.yul\":976:996   */\n      dup2\n      calldataload\n        /* \"#utility.yul\":1019:1037   */\n      0xffffffffffffffff\n        /* \"#utility.yul\":1008:1038   */\n      dup2\n      gt\n        /* \"#utility.yul\":1005:1055   */\n      iszero\n      tag_402\n      jumpi\n        /* \"#utility.yul\":1051:1052   */\n      0x00\n        /* \"#utility.yul\":1048:1049   */\n      dup1\n        /* \"#utility.yul\":1041:1053   */\n      revert\n        /* \"#utility.yul\":1005:1055   */\n    tag_402:\n        /* \"#utility.yul\":1088:1092   */\n      0x20\n        /* \"#utility.yul\":1080:1086   */\n      dup4\n        /* \"#utility.yul\":1076:1093   */\n      add\n        /* \"#utility.yul\":1064:1093   */\n      swap2\n      pop\n        /* \"#utility.yul\":1140:1143   */\n      dup4\n        /* \"#utility.yul\":1133:1137   */\n      0x20\n        /* \"#utility.yul\":1124:1130   */\n      dup3\n        /* \"#utility.yul\":1116:1122   */\n      dup6\n        /* \"#utility.yul\":1112:1131   */\n      add\n        /* \"#utility.yul\":1108:1138   */\n      add\n        /* \"#utility.yul\":1105:1144   */\n      gt\n        /* \"#utility.yul\":1102:1161   */\n      iszero\n      tag_403\n      jumpi\n        /* \"#utility.yul\":1157:1158   */\n      0x00\n        /* \"#utility.yul\":1154:1155   */\n      dup1\n        /* \"#utility.yul\":1147:1159   */\n      revert\n        /* \"#utility.yul\":1102:1161   */\n    tag_403:\n        /* \"#utility.yul\":820:1167   */\n      swap3\n      pop\n      swap3\n      swap1\n      pop\n      jump\t// out\n        /* \"#utility.yul\":1172:2181   */\n    tag_39:\n        /* \"#utility.yul\":1314:1320   */\n      0x00\n        /* \"#utility.yul\":1322:1328   */\n      dup1\n        /* \"#utility.yul\":1330:1336   */\n      0x00\n        /* \"#utility.yul\":1338:1344   */\n      dup1\n        /* \"#utility.yul\":1346:1352   */\n      0x00\n        /* \"#utility.yul\":1399:1401   */\n      0x60\n        /* \"#utility.yul\":1387:1396   */\n      dup7\n        /* \"#utility.yul\":1378:1385   */\n      dup9\n        /* \"#utility.yul\":1374:1397   */\n      sub\n        /* \"#utility.yul\":1370:1402   */\n      slt\n        /* \"#utility.yul\":1367:1419   */\n      iszero\n      tag_405\n      jumpi\n        /* \"#utility.yul\":1415:1416   */\n      0x00\n        /* \"#utility.yul\":1412:1413   */\n      dup1\n        /* \"#utility.yul\":1405:1417   */\n      revert\n        /* \"#utility.yul\":1367:1419   */\n    tag_405:\n        /* \"#utility.yul\":1455:1464   */\n      dup6\n        /* \"#utility.yul\":1442:1465   */\n      calldataload\n        /* \"#utility.yul\":1484:1502   */\n      0xffffffffffffffff\n        /* \"#utility.yul\":1525:1527   */\n      dup1\n        /* \"#utility.yul\":1517:1523   */\n      dup3\n        /* \"#utility.yul\":1514:1528   */\n      gt\n        /* \"#utility.yul\":1511:1545   */\n      iszero\n      tag_406\n      jumpi\n        /* \"#utility.yul\":1541:1542   */\n      0x00\n        /* \"#utility.yul\":1538:1539   */\n      dup1\n        /* \"#utility.yul\":1531:1543   */\n      revert\n        /* \"#utility.yul\":1511:1545   */\n    tag_406:\n        /* \"#utility.yul\":1579:1585   */\n      dup2\n        /* \"#utility.yul\":1568:1577   */\n      dup9\n        /* \"#utility.yul\":1564:1586   */\n      add\n        /* \"#utility.yul\":1554:1586   */\n      swap2\n      pop\n        /* \"#utility.yul\":1624:1631   */\n      dup9\n        /* \"#utility.yul\":1617:1621   */\n      0x1f\n        /* \"#utility.yul\":1613:1615   */\n      dup4\n        /* \"#utility.yul\":1609:1622   */\n      add\n        /* \"#utility.yul\":1605:1632   */\n      slt\n        /* \"#utility.yul\":1595:1650   */\n      tag_407\n      jumpi\n        /* \"#utility.yul\":1646:1647   */\n      0x00\n        /* \"#utility.yul\":1643:1644   */\n      dup1\n        /* \"#utility.yul\":1636:1648   */\n      revert\n        /* \"#utility.yul\":1595:1650   */\n    tag_407:\n        /* \"#utility.yul\":1686:1688   */\n      dup2\n        /* \"#utility.yul\":1673:1689   */\n      calldataload\n        /* \"#utility.yul\":1712:1714   */\n      dup2\n        /* \"#utility.yul\":1704:1710   */\n      dup2\n        /* \"#utility.yul\":1701:1715   */\n      gt\n        /* \"#utility.yul\":1698:1732   */\n      iszero\n      tag_408\n      jumpi\n        /* \"#utility.yul\":1728:1729   */\n      0x00\n        /* \"#utility.yul\":1725:1726   */\n      dup1\n        /* \"#utility.yul\":1718:1730   */\n      revert\n        /* \"#utility.yul\":1698:1732   */\n    tag_408:\n        /* \"#utility.yul\":1783:1790   */\n      dup10\n        /* \"#utility.yul\":1776:1780   */\n      0x20\n        /* \"#utility.yul\":1766:1772   */\n      dup3\n        /* \"#utility.yul\":1763:1764   */\n      0x05\n        /* \"#utility.yul\":1759:1773   */\n      shl\n        /* \"#utility.yul\":1755:1757   */\n      dup6\n        /* \"#utility.yul\":1751:1774   */\n      add\n        /* \"#utility.yul\":1747:1781   */\n      add\n        /* \"#utility.yul\":1744:1791   */\n      gt\n        /* \"#utility.yul\":1741:1808   */\n      iszero\n      tag_409\n      jumpi\n        /* \"#utility.yul\":1804:1805   */\n      0x00\n        /* \"#utility.yul\":1801:1802   */\n      dup1\n        /* \"#utility.yul\":1794:1806   */\n      revert\n        /* \"#utility.yul\":1741:1808   */\n    tag_409:\n        /* \"#utility.yul\":1835:1839   */\n      0x20\n        /* \"#utility.yul\":1831:1833   */\n      dup4\n        /* \"#utility.yul\":1827:1840   */\n      add\n        /* \"#utility.yul\":1817:1840   */\n      swap8\n      pop\n        /* \"#utility.yul\":1859:1865   */\n      dup1\n        /* \"#utility.yul\":1849:1865   */\n      swap7\n      pop\n      pop\n        /* \"#utility.yul\":1884:1924   */\n      tag_410\n        /* \"#utility.yul\":1918:1922   */\n      0x20\n        /* \"#utility.yul\":1907:1916   */\n      dup10\n        /* \"#utility.yul\":1903:1923   */\n      add\n        /* \"#utility.yul\":1884:1924   */\n      tag_381\n      jump\t// in\n    tag_410:\n        /* \"#utility.yul\":1874:1924   */\n      swap5\n      pop\n        /* \"#utility.yul\":1977:1979   */\n      0x40\n        /* \"#utility.yul\":1966:1975   */\n      dup9\n        /* \"#utility.yul\":1962:1980   */\n      add\n        /* \"#utility.yul\":1949:1981   */\n      calldataload\n        /* \"#utility.yul\":1933:1981   */\n      swap2\n      pop\n        /* \"#utility.yul\":2006:2008   */\n      dup1\n        /* \"#utility.yul\":1996:2004   */\n      dup3\n        /* \"#utility.yul\":1993:2009   */\n      gt\n        /* \"#utility.yul\":1990:2026   */\n      iszero\n      tag_411\n      jumpi\n        /* \"#utility.yul\":2022:2023   */\n      0x00\n        /* \"#utility.yul\":2019:2020   */\n      dup1\n        /* \"#utility.yul\":2012:2024   */\n      revert\n        /* \"#utility.yul\":1990:2026   */\n    tag_411:\n      pop\n        /* \"#utility.yul\":2061:2121   */\n      tag_412\n        /* \"#utility.yul\":2113:2120   */\n      dup9\n        /* \"#utility.yul\":2102:2110   */\n      dup3\n        /* \"#utility.yul\":2091:2100   */\n      dup10\n        /* \"#utility.yul\":2087:2111   */\n      add\n        /* \"#utility.yul\":2061:2121   */\n      tag_382\n      jump\t// in\n    tag_412:\n        /* \"#utility.yul\":1172:2181   */\n      swap7\n      swap10\n      swap6\n      swap9\n      pop\n      swap4\n      swap7\n      pop\n        /* \"#utility.yul\":2140:2148   */\n      swap3\n      swap5\n        /* \"#utility.yul\":2035:2121   */\n      swap4\n        /* \"#utility.yul\":1172:2181   */\n      swap3\n      pop\n      pop\n      pop\n      jump\t// out\n        /* \"#utility.yul\":2549:3230   */\n    tag_50:\n        /* \"#utility.yul\":2720:2722   */\n      0x20\n        /* \"#utility.yul\":2772:2793   */\n      dup1\n      dup3\n      mstore\n        /* \"#utility.yul\":2842:2855   */\n      dup3\n      mload\n        /* \"#utility.yul\":2745:2763   */\n      dup3\n      dup3\n      add\n        /* \"#utility.yul\":2864:2886   */\n      dup2\n      swap1\n      mstore\n        /* \"#utility.yul\":2691:2695   */\n      0x00\n      swap2\n        /* \"#utility.yul\":2720:2722   */\n      swap1\n        /* \"#utility.yul\":2943:2958   */\n      dup5\n      dup3\n      add\n      swap1\n        /* \"#utility.yul\":2917:2919   */\n      0x40\n        /* \"#utility.yul\":2902:2920   */\n      dup6\n      add\n      swap1\n        /* \"#utility.yul\":2691:2695   */\n      dup5\n        /* \"#utility.yul\":2986:3204   */\n    tag_416:\n        /* \"#utility.yul\":3000:3006   */\n      dup2\n        /* \"#utility.yul\":2997:2998   */\n      dup2\n        /* \"#utility.yul\":2994:3007   */\n      lt\n        /* \"#utility.yul\":2986:3204   */\n      iszero\n      tag_418\n      jumpi\n        /* \"#utility.yul\":3065:3078   */\n      dup4\n      mload\n      sub(shl(0xa0, 0x01), 0x01)\n        /* \"#utility.yul\":3061:3123   */\n      and\n        /* \"#utility.yul\":3049:3124   */\n      dup4\n      mstore\n        /* \"#utility.yul\":3179:3194   */\n      swap3\n      dup5\n      add\n      swap3\n        /* \"#utility.yul\":3144:3156   */\n      swap2\n      dup5\n      add\n      swap2\n        /* \"#utility.yul\":3022:3023   */\n      0x01\n        /* \"#utility.yul\":3015:3024   */\n      add\n        /* \"#utility.yul\":2986:3204   */\n      jump(tag_416)\n    tag_418:\n      pop\n        /* \"#utility.yul\":3221:3224   */\n      swap1\n      swap7\n        /* \"#utility.yul\":2549:3230   */\n      swap6\n      pop\n      pop\n      pop\n      pop\n      pop\n      pop\n      jump\t// out\n        /* \"#utility.yul\":3235:3746   */\n    tag_384:\n        /* \"#utility.yul\":3287:3290   */\n      0x00\n        /* \"#utility.yul\":3325:3330   */\n      dup2\n        /* \"#utility.yul\":3319:3331   */\n      mload\n        /* \"#utility.yul\":3352:3358   */\n      dup1\n        /* \"#utility.yul\":3347:3350   */\n      dup5\n        /* \"#utility.yul\":3340:3359   */\n      mstore\n        /* \"#utility.yul\":3378:3382   */\n      0x20\n        /* \"#utility.yul\":3407:3411   */\n      dup1\n        /* \"#utility.yul\":3402:3405   */\n      dup6\n        /* \"#utility.yul\":3398:3412   */\n      add\n        /* \"#utility.yul\":3391:3412   */\n      swap5\n      pop\n        /* \"#utility.yul\":3446:3450   */\n      0x20\n        /* \"#utility.yul\":3439:3444   */\n      dup5\n        /* \"#utility.yul\":3435:3451   */\n      add\n        /* \"#utility.yul\":3469:3470   */\n      0x00\n        /* \"#utility.yul\":3479:3721   */\n    tag_420:\n        /* \"#utility.yul\":3493:3499   */\n      dup4\n        /* \"#utility.yul\":3490:3491   */\n      dup2\n        /* \"#utility.yul\":3487:3500   */\n      lt\n        /* \"#utility.yul\":3479:3721   */\n      iszero\n      tag_422\n      jumpi\n        /* \"#utility.yul\":3558:3571   */\n      dup2\n      mload\n      not(sub(shl(0xe0, 0x01), 0x01))\n        /* \"#utility.yul\":3554:3640   */\n      and\n        /* \"#utility.yul\":3542:3641   */\n      dup8\n      mstore\n        /* \"#utility.yul\":3661:3673   */\n      swap6\n      dup3\n      add\n      swap6\n        /* \"#utility.yul\":3696:3711   */\n      swap1\n      dup3\n      add\n      swap1\n        /* \"#utility.yul\":3515:3516   */\n      0x01\n        /* \"#utility.yul\":3508:3517   */\n      add\n        /* \"#utility.yul\":3479:3721   */\n      jump(tag_420)\n    tag_422:\n      pop\n        /* \"#utility.yul\":3737:3740   */\n      swap5\n      swap6\n        /* \"#utility.yul\":3235:3746   */\n      swap5\n      pop\n      pop\n      pop\n      pop\n      pop\n      jump\t// out\n        /* \"#utility.yul\":3751:4831   */\n    tag_58:\n        /* \"#utility.yul\":3937:3941   */\n      0x00\n        /* \"#utility.yul\":3966:3968   */\n      0x20\n        /* \"#utility.yul\":4006:4008   */\n      dup1\n        /* \"#utility.yul\":3995:4004   */\n      dup4\n        /* \"#utility.yul\":3991:4009   */\n      add\n        /* \"#utility.yul\":4036:4038   */\n      dup2\n        /* \"#utility.yul\":4025:4034   */\n      dup5\n        /* \"#utility.yul\":4018:4039   */\n      mstore\n        /* \"#utility.yul\":4059:4065   */\n      dup1\n        /* \"#utility.yul\":4094:4100   */\n      dup6\n        /* \"#utility.yul\":4088:4101   */\n      mload\n        /* \"#utility.yul\":4125:4131   */\n      dup1\n        /* \"#utility.yul\":4117:4123   */\n      dup4\n        /* \"#utility.yul\":4110:4132   */\n      mstore\n        /* \"#utility.yul\":4151:4153   */\n      0x40\n        /* \"#utility.yul\":4141:4153   */\n      swap3\n      pop\n        /* \"#utility.yul\":4184:4186   */\n      0x40\n        /* \"#utility.yul\":4173:4182   */\n      dup7\n        /* \"#utility.yul\":4169:4187   */\n      add\n        /* \"#utility.yul\":4162:4187   */\n      swap2\n      pop\n        /* \"#utility.yul\":4246:4248   */\n      0x40\n        /* \"#utility.yul\":4236:4242   */\n      dup2\n        /* \"#utility.yul\":4233:4234   */\n      0x05\n        /* \"#utility.yul\":4229:4243   */\n      shl\n        /* \"#utility.yul\":4218:4227   */\n      dup8\n        /* \"#utility.yul\":4214:4244   */\n      add\n        /* \"#utility.yul\":4210:4249   */\n      add\n        /* \"#utility.yul\":4284:4286   */\n      dup5\n        /* \"#utility.yul\":4276:4282   */\n      dup9\n        /* \"#utility.yul\":4272:4287   */\n      add\n        /* \"#utility.yul\":4305:4306   */\n      0x00\n        /* \"#utility.yul\":4315:4802   */\n    tag_424:\n        /* \"#utility.yul\":4329:4335   */\n      dup4\n        /* \"#utility.yul\":4326:4327   */\n      dup2\n        /* \"#utility.yul\":4323:4336   */\n      lt\n        /* \"#utility.yul\":4315:4802   */\n      iszero\n      tag_426\n      jumpi\n        /* \"#utility.yul\":4394:4416   */\n      dup9\n      dup4\n      sub\n      not(0x3f)\n        /* \"#utility.yul\":4390:4426   */\n      add\n        /* \"#utility.yul\":4378:4427   */\n      dup6\n      mstore\n        /* \"#utility.yul\":4450:4463   */\n      dup2\n      mload\n        /* \"#utility.yul\":4495:4504   */\n      dup1\n      mload\n      sub(shl(0xa0, 0x01), 0x01)\n        /* \"#utility.yul\":4491:4549   */\n      and\n        /* \"#utility.yul\":4476:4550   */\n      dup5\n      mstore\n        /* \"#utility.yul\":4589:4600   */\n      dup8\n      add\n        /* \"#utility.yul\":4583:4601   */\n      mload\n        /* \"#utility.yul\":4621:4636   */\n      dup8\n      dup5\n      add\n        /* \"#utility.yul\":4614:4641   */\n      dup8\n      swap1\n      mstore\n        /* \"#utility.yul\":4664:4722   */\n      tag_427\n        /* \"#utility.yul\":4706:4721   */\n      dup8\n      dup6\n      add\n        /* \"#utility.yul\":4583:4601   */\n      dup3\n        /* \"#utility.yul\":4664:4722   */\n      tag_384\n      jump\t// in\n    tag_427:\n        /* \"#utility.yul\":4780:4792   */\n      swap6\n      dup9\n      add\n      swap6\n        /* \"#utility.yul\":4654:4722   */\n      swap4\n      pop\n      pop\n        /* \"#utility.yul\":4745:4760   */\n      swap1\n      dup7\n      add\n      swap1\n        /* \"#utility.yul\":4351:4352   */\n      0x01\n        /* \"#utility.yul\":4344:4353   */\n      add\n        /* \"#utility.yul\":4315:4802   */\n      jump(tag_424)\n    tag_426:\n      pop\n        /* \"#utility.yul\":4819:4825   */\n      swap1\n      swap9\n        /* \"#utility.yul\":3751:4831   */\n      swap8\n      pop\n      pop\n      pop\n      pop\n      pop\n      pop\n      pop\n      pop\n      jump\t// out\n        /* \"#utility.yul\":4836:5022   */\n    tag_70:\n        /* \"#utility.yul\":4895:4901   */\n      0x00\n        /* \"#utility.yul\":4948:4950   */\n      0x20\n        /* \"#utility.yul\":4936:4945   */\n      dup3\n        /* \"#utility.yul\":4927:4934   */\n      dup5\n        /* \"#utility.yul\":4923:4946   */\n      sub\n        /* \"#utility.yul\":4919:4951   */\n      slt\n        /* \"#utility.yul\":4916:4968   */\n      iszero\n      tag_429\n      jumpi\n        /* \"#utility.yul\":4964:4965   */\n      0x00\n        /* \"#utility.yul\":4961:4962   */\n      dup1\n        /* \"#utility.yul\":4954:4966   */\n      revert\n        /* \"#utility.yul\":4916:4968   */\n    tag_429:\n        /* \"#utility.yul\":4987:5016   */\n      tag_396\n        /* \"#utility.yul\":5006:5015   */\n      dup3\n        /* \"#utility.yul\":4987:5016   */\n      tag_381\n      jump\t// in\n        /* \"#utility.yul\":5027:5730   */\n    tag_77:\n        /* \"#utility.yul\":5196:5198   */\n      0x20\n        /* \"#utility.yul\":5248:5269   */\n      dup1\n      dup3\n      mstore\n        /* \"#utility.yul\":5318:5331   */\n      dup3\n      mload\n        /* \"#utility.yul\":5221:5239   */\n      dup3\n      dup3\n      add\n        /* \"#utility.yul\":5340:5362   */\n      dup2\n      swap1\n      mstore\n        /* \"#utility.yul\":5167:5171   */\n      0x00\n      swap2\n        /* \"#utility.yul\":5196:5198   */\n      swap1\n        /* \"#utility.yul\":5419:5434   */\n      dup5\n      dup3\n      add\n      swap1\n        /* \"#utility.yul\":5393:5395   */\n      0x40\n        /* \"#utility.yul\":5378:5396   */\n      dup6\n      add\n      swap1\n        /* \"#utility.yul\":5167:5171   */\n      dup5\n        /* \"#utility.yul\":5462:5704   */\n    tag_432:\n        /* \"#utility.yul\":5476:5482   */\n      dup2\n        /* \"#utility.yul\":5473:5474   */\n      dup2\n        /* \"#utility.yul\":5470:5483   */\n      lt\n        /* \"#utility.yul\":5462:5704   */\n      iszero\n      tag_418\n      jumpi\n        /* \"#utility.yul\":5541:5554   */\n      dup4\n      mload\n      not(sub(shl(0xe0, 0x01), 0x01))\n        /* \"#utility.yul\":5537:5623   */\n      and\n        /* \"#utility.yul\":5525:5624   */\n      dup4\n      mstore\n        /* \"#utility.yul\":5679:5694   */\n      swap3\n      dup5\n      add\n      swap3\n        /* \"#utility.yul\":5644:5656   */\n      swap2\n      dup5\n      add\n      swap2\n        /* \"#utility.yul\":5498:5499   */\n      0x01\n        /* \"#utility.yul\":5491:5500   */\n      add\n        /* \"#utility.yul\":5462:5704   */\n      jump(tag_432)\n        /* \"#utility.yul\":5735:5919   */\n    tag_199:\n      shl(0xe0, 0x4e487b71)\n        /* \"#utility.yul\":5784:5785   */\n      0x00\n        /* \"#utility.yul\":5777:5865   */\n      mstore\n        /* \"#utility.yul\":5884:5888   */\n      0x41\n        /* \"#utility.yul\":5881:5882   */\n      0x04\n        /* \"#utility.yul\":5874:5889   */\n      mstore\n        /* \"#utility.yul\":5908:5912   */\n      0x24\n        /* \"#utility.yul\":5905:5906   */\n      0x00\n        /* \"#utility.yul\":5898:5913   */\n      revert\n        /* \"#utility.yul\":5924:6177   */\n    tag_385:\n        /* \"#utility.yul\":5996:5998   */\n      0x40\n        /* \"#utility.yul\":5990:5999   */\n      mload\n        /* \"#utility.yul\":6038:6042   */\n      0x60\n        /* \"#utility.yul\":6026:6043   */\n      dup2\n      add\n        /* \"#utility.yul\":6073:6091   */\n      0xffffffffffffffff\n        /* \"#utility.yul\":6058:6092   */\n      dup2\n      gt\n        /* \"#utility.yul\":6094:6116   */\n      dup3\n      dup3\n      lt\n        /* \"#utility.yul\":6055:6117   */\n      or\n        /* \"#utility.yul\":6052:6140   */\n      iszero\n      tag_438\n      jumpi\n        /* \"#utility.yul\":6120:6138   */\n      tag_438\n      tag_199\n      jump\t// in\n    tag_438:\n        /* \"#utility.yul\":6156:6158   */\n      0x40\n        /* \"#utility.yul\":6149:6171   */\n      mstore\n        /* \"#utility.yul\":5924:6177   */\n      swap1\n      jump\t// out\n        /* \"#utility.yul\":6182:6457   */\n    tag_386:\n        /* \"#utility.yul\":6253:6255   */\n      0x40\n        /* \"#utility.yul\":6247:6256   */\n      mload\n        /* \"#utility.yul\":6318:6320   */\n      0x1f\n        /* \"#utility.yul\":6299:6312   */\n      dup3\n      add\n      not(0x1f)\n        /* \"#utility.yul\":6295:6322   */\n      and\n        /* \"#utility.yul\":6283:6323   */\n      dup2\n      add\n        /* \"#utility.yul\":6353:6371   */\n      0xffffffffffffffff\n        /* \"#utility.yul\":6338:6372   */\n      dup2\n      gt\n        /* \"#utility.yul\":6374:6396   */\n      dup3\n      dup3\n      lt\n        /* \"#utility.yul\":6335:6397   */\n      or\n        /* \"#utility.yul\":6332:6420   */\n      iszero\n      tag_441\n      jumpi\n        /* \"#utility.yul\":6400:6418   */\n      tag_441\n      tag_199\n      jump\t// in\n    tag_441:\n        /* \"#utility.yul\":6436:6438   */\n      0x40\n        /* \"#utility.yul\":6429:6451   */\n      mstore\n        /* \"#utility.yul\":6182:6457   */\n      swap2\n      swap1\n      pop\n      jump\t// out\n        /* \"#utility.yul\":6462:6653   */\n    tag_387:\n        /* \"#utility.yul\":6530:6534   */\n      0x00\n        /* \"#utility.yul\":6563:6581   */\n      0xffffffffffffffff\n        /* \"#utility.yul\":6555:6561   */\n      dup3\n        /* \"#utility.yul\":6552:6582   */\n      gt\n        /* \"#utility.yul\":6549:6605   */\n      iszero\n      tag_444\n      jumpi\n        /* \"#utility.yul\":6585:6603   */\n      tag_444\n      tag_199\n      jump\t// in\n    tag_444:\n      pop\n        /* \"#utility.yul\":6630:6631   */\n      0x05\n        /* \"#utility.yul\":6626:6640   */\n      shl\n        /* \"#utility.yul\":6642:6646   */\n      0x20\n        /* \"#utility.yul\":6622:6647   */\n      add\n      swap1\n        /* \"#utility.yul\":6462:6653   */\n      jump\t// out\n        /* \"#utility.yul\":6658:8730   */\n    tag_101:\n        /* \"#utility.yul\":6826:6835   */\n      0x00\n        /* \"#utility.yul\":6861:6933   */\n      tag_446\n        /* \"#utility.yul\":6877:6932   */\n      tag_447\n        /* \"#utility.yul\":6925:6931   */\n      dup5\n        /* \"#utility.yul\":6877:6932   */\n      tag_387\n      jump\t// in\n    tag_447:\n        /* \"#utility.yul\":6861:6933   */\n      tag_386\n      jump\t// in\n    tag_446:\n        /* \"#utility.yul\":6967:6986   */\n      dup4\n      dup2\n      mstore\n        /* \"#utility.yul\":7005:7009   */\n      0x20\n        /* \"#utility.yul\":7025:7037   */\n      dup1\n      dup3\n      add\n      swap2\n        /* \"#utility.yul\":6955:6958   */\n      swap1\n        /* \"#utility.yul\":7056:7057   */\n      0x05\n        /* \"#utility.yul\":7091:7105   */\n      dup7\n      dup2\n      shl\n        /* \"#utility.yul\":7080:7106   */\n      dup7\n      add\n        /* \"#utility.yul\":7129:7143   */\n      calldatasize\n        /* \"#utility.yul\":7118:7144   */\n      dup2\n      gt\n        /* \"#utility.yul\":7115:7161   */\n      iszero\n      tag_448\n      jumpi\n        /* \"#utility.yul\":7157:7158   */\n      0x00\n        /* \"#utility.yul\":7154:7155   */\n      dup1\n        /* \"#utility.yul\":7147:7159   */\n      revert\n        /* \"#utility.yul\":7115:7161   */\n    tag_448:\n        /* \"#utility.yul\":7181:7186   */\n      dup7\n        /* \"#utility.yul\":7195:8697   */\n    tag_449:\n        /* \"#utility.yul\":7211:7217   */\n      dup2\n        /* \"#utility.yul\":7206:7209   */\n      dup2\n        /* \"#utility.yul\":7203:7218   */\n      lt\n        /* \"#utility.yul\":7195:8697   */\n      iszero\n      tag_451\n      jumpi\n        /* \"#utility.yul\":7297:7300   */\n      dup1\n        /* \"#utility.yul\":7284:7301   */\n      calldataload\n        /* \"#utility.yul\":7324:7342   */\n      0xffffffffffffffff\n        /* \"#utility.yul\":7374:7376   */\n      dup1\n        /* \"#utility.yul\":7361:7372   */\n      dup3\n        /* \"#utility.yul\":7358:7377   */\n      gt\n        /* \"#utility.yul\":7355:7394   */\n      iszero\n      tag_452\n      jumpi\n        /* \"#utility.yul\":7390:7391   */\n      0x00\n        /* \"#utility.yul\":7387:7388   */\n      dup1\n        /* \"#utility.yul\":7380:7392   */\n      revert\n        /* \"#utility.yul\":7355:7394   */\n    tag_452:\n        /* \"#utility.yul\":7428:7439   */\n      dup2\n        /* \"#utility.yul\":7421:7426   */\n      dup11\n        /* \"#utility.yul\":7417:7440   */\n      add\n        /* \"#utility.yul\":7407:7440   */\n      swap2\n      pop\n        /* \"#utility.yul\":7485:7489   */\n      0x60\n        /* \"#utility.yul\":7480:7482   */\n      dup3\n        /* \"#utility.yul\":7464:7478   */\n      calldatasize\n        /* \"#utility.yul\":7460:7483   */\n      sub\n        /* \"#utility.yul\":7456:7490   */\n      slt\n        /* \"#utility.yul\":7453:7507   */\n      iszero\n      tag_453\n      jumpi\n        /* \"#utility.yul\":7503:7504   */\n      0x00\n        /* \"#utility.yul\":7500:7501   */\n      dup1\n        /* \"#utility.yul\":7493:7505   */\n      revert\n        /* \"#utility.yul\":7453:7507   */\n    tag_453:\n        /* \"#utility.yul\":7535:7557   */\n      tag_454\n      tag_385\n      jump\t// in\n    tag_454:\n        /* \"#utility.yul\":7586:7608   */\n      tag_455\n        /* \"#utility.yul\":7605:7607   */\n      dup4\n        /* \"#utility.yul\":7586:7608   */\n      tag_381\n      jump\t// in\n    tag_455:\n        /* \"#utility.yul\":7577:7584   */\n      dup2\n        /* \"#utility.yul\":7570:7609   */\n      mstore\n        /* \"#utility.yul\":7658:7660   */\n      dup7\n        /* \"#utility.yul\":7654:7656   */\n      dup4\n        /* \"#utility.yul\":7650:7661   */\n      add\n        /* \"#utility.yul\":7637:7662   */\n      calldataload\n        /* \"#utility.yul\":7697:7698   */\n      0x03\n        /* \"#utility.yul\":7688:7695   */\n      dup2\n        /* \"#utility.yul\":7685:7699   */\n      lt\n        /* \"#utility.yul\":7675:7717   */\n      tag_456\n      jumpi\n        /* \"#utility.yul\":7713:7714   */\n      0x00\n        /* \"#utility.yul\":7710:7711   */\n      dup1\n        /* \"#utility.yul\":7703:7715   */\n      revert\n        /* \"#utility.yul\":7675:7717   */\n    tag_456:\n        /* \"#utility.yul\":7737:7753   */\n      dup2\n      dup9\n      add\n        /* \"#utility.yul\":7730:7763   */\n      mstore\n        /* \"#utility.yul\":7786:7788   */\n      0x40\n        /* \"#utility.yul\":7828:7839   */\n      dup4\n      dup2\n      add\n        /* \"#utility.yul\":7815:7840   */\n      calldataload\n        /* \"#utility.yul\":7856:7870   */\n      dup4\n      dup2\n      gt\n        /* \"#utility.yul\":7853:7887   */\n      iszero\n      tag_457\n      jumpi\n        /* \"#utility.yul\":7883:7884   */\n      0x00\n        /* \"#utility.yul\":7880:7881   */\n      dup1\n        /* \"#utility.yul\":7873:7885   */\n      revert\n        /* \"#utility.yul\":7853:7887   */\n    tag_457:\n        /* \"#utility.yul\":7910:7925   */\n      swap4\n      swap1\n      swap4\n      add\n      swap3\n        /* \"#utility.yul\":7967:7981   */\n      calldatasize\n        /* \"#utility.yul\":7960:7964   */\n      0x1f\n        /* \"#utility.yul\":7952:7965   */\n      dup6\n      add\n        /* \"#utility.yul\":7948:7982   */\n      slt\n        /* \"#utility.yul\":7938:8000   */\n      tag_458\n      jumpi\n        /* \"#utility.yul\":7996:7997   */\n      0x00\n        /* \"#utility.yul\":7993:7994   */\n      dup1\n        /* \"#utility.yul\":7986:7998   */\n      revert\n        /* \"#utility.yul\":7938:8000   */\n    tag_458:\n        /* \"#utility.yul\":8036:8038   */\n      dup4\n        /* \"#utility.yul\":8023:8039   */\n      calldataload\n        /* \"#utility.yul\":8013:8039   */\n      swap3\n      pop\n        /* \"#utility.yul\":8065:8133   */\n      tag_459\n        /* \"#utility.yul\":8081:8132   */\n      tag_447\n        /* \"#utility.yul\":8129:8131   */\n      dup5\n        /* \"#utility.yul\":8081:8132   */\n      tag_387\n      jump\t// in\n        /* \"#utility.yul\":8065:8133   */\n    tag_459:\n        /* \"#utility.yul\":8177:8194   */\n      dup4\n      dup2\n      mstore\n        /* \"#utility.yul\":8271:8282   */\n      swap3\n      dup8\n      shl\n        /* \"#utility.yul\":8263:8283   */\n      dup5\n      add\n        /* \"#utility.yul\":8259:8288   */\n      dup9\n      add\n      swap3\n        /* \"#utility.yul\":8216:8230   */\n      dup9\n      dup2\n      add\n      swap1\n        /* \"#utility.yul\":8317:8331   */\n      calldatasize\n        /* \"#utility.yul\":8304:8332   */\n      dup6\n      gt\n        /* \"#utility.yul\":8301:8349   */\n      iszero\n      tag_461\n      jumpi\n        /* \"#utility.yul\":8345:8346   */\n      0x00\n        /* \"#utility.yul\":8342:8343   */\n      dup1\n        /* \"#utility.yul\":8335:8347   */\n      revert\n        /* \"#utility.yul\":8301:8349   */\n    tag_461:\n        /* \"#utility.yul\":8375:8386   */\n      swap5\n      dup10\n      add\n      swap5\n        /* \"#utility.yul\":8399:8578   */\n    tag_462:\n        /* \"#utility.yul\":8417:8425   */\n      dup5\n        /* \"#utility.yul\":8410:8415   */\n      dup7\n        /* \"#utility.yul\":8407:8426   */\n      lt\n        /* \"#utility.yul\":8399:8578   */\n      iszero\n      tag_464\n      jumpi\n        /* \"#utility.yul\":8499:8523   */\n      tag_465\n        /* \"#utility.yul\":8517:8522   */\n      dup7\n        /* \"#utility.yul\":8499:8523   */\n      tag_380\n      jump\t// in\n    tag_465:\n        /* \"#utility.yul\":8485:8524   */\n      dup3\n      mstore\n        /* \"#utility.yul\":8438:8452   */\n      swap5\n      dup10\n      add\n      swap5\n        /* \"#utility.yul\":8550:8564   */\n      swap1\n      dup10\n      add\n      swap1\n        /* \"#utility.yul\":8399:8578   */\n      jump(tag_462)\n    tag_464:\n        /* \"#utility.yul\":8598:8614   */\n      swap2\n      dup4\n      add\n        /* \"#utility.yul\":8591:8622   */\n      swap2\n      swap1\n      swap2\n      mstore\n      pop\n        /* \"#utility.yul\":8635:8655   */\n      dup9\n      mstore\n      pop\n      pop\n        /* \"#utility.yul\":8675:8687   */\n      swap5\n      dup4\n      add\n      swap5\n        /* \"#utility.yul\":7228:7240   */\n      dup4\n      add\n        /* \"#utility.yul\":7195:8697   */\n      jump(tag_449)\n    tag_451:\n      pop\n        /* \"#utility.yul\":8719:8724   */\n      swap3\n      swap8\n        /* \"#utility.yul\":6658:8730   */\n      swap7\n      pop\n      pop\n      pop\n      pop\n      pop\n      pop\n      pop\n      jump\t// out\n        /* \"#utility.yul\":8735:8919   */\n    tag_161:\n      shl(0xe0, 0x4e487b71)\n        /* \"#utility.yul\":8784:8785   */\n      0x00\n        /* \"#utility.yul\":8777:8865   */\n      mstore\n        /* \"#utility.yul\":8884:8888   */\n      0x32\n        /* \"#utility.yul\":8881:8882   */\n      0x04\n        /* \"#utility.yul\":8874:8889   */\n      mstore\n        /* \"#utility.yul\":8908:8912   */\n      0x24\n        /* \"#utility.yul\":8905:8906   */\n      0x00\n        /* \"#utility.yul\":8898:8913   */\n      revert\n        /* \"#utility.yul\":8924:9108   */\n    tag_165:\n      shl(0xe0, 0x4e487b71)\n        /* \"#utility.yul\":8973:8974   */\n      0x00\n        /* \"#utility.yul\":8966:9054   */\n      mstore\n        /* \"#utility.yul\":9073:9077   */\n      0x21\n        /* \"#utility.yul\":9070:9071   */\n      0x04\n        /* \"#utility.yul\":9063:9078   */\n      mstore\n        /* \"#utility.yul\":9097:9101   */\n      0x24\n        /* \"#utility.yul\":9094:9095   */\n      0x00\n        /* \"#utility.yul\":9087:9102   */\n      revert\n        /* \"#utility.yul\":9113:9363   */\n    tag_388:\n        /* \"#utility.yul\":9198:9199   */\n      0x00\n        /* \"#utility.yul\":9208:9321   */\n    tag_469:\n        /* \"#utility.yul\":9222:9228   */\n      dup4\n        /* \"#utility.yul\":9219:9220   */\n      dup2\n        /* \"#utility.yul\":9216:9229   */\n      lt\n        /* \"#utility.yul\":9208:9321   */\n      iszero\n      tag_471\n      jumpi\n        /* \"#utility.yul\":9298:9309   */\n      dup2\n      dup2\n      add\n        /* \"#utility.yul\":9292:9310   */\n      mload\n        /* \"#utility.yul\":9279:9290   */\n      dup4\n      dup3\n      add\n        /* \"#utility.yul\":9272:9311   */\n      mstore\n        /* \"#utility.yul\":9244:9246   */\n      0x20\n        /* \"#utility.yul\":9237:9247   */\n      add\n        /* \"#utility.yul\":9208:9321   */\n      jump(tag_469)\n    tag_471:\n      pop\n      pop\n        /* \"#utility.yul\":9355:9356   */\n      0x00\n        /* \"#utility.yul\":9337:9353   */\n      swap2\n      add\n        /* \"#utility.yul\":9330:9357   */\n      mstore\n        /* \"#utility.yul\":9113:9363   */\n      jump\t// out\n        /* \"#utility.yul\":9368:9638   */\n    tag_389:\n        /* \"#utility.yul\":9409:9412   */\n      0x00\n        /* \"#utility.yul\":9447:9452   */\n      dup2\n        /* \"#utility.yul\":9441:9453   */\n      mload\n        /* \"#utility.yul\":9474:9480   */\n      dup1\n        /* \"#utility.yul\":9469:9472   */\n      dup5\n        /* \"#utility.yul\":9462:9481   */\n      mstore\n        /* \"#utility.yul\":9490:9566   */\n      tag_473\n        /* \"#utility.yul\":9559:9565   */\n      dup2\n        /* \"#utility.yul\":9552:9556   */\n      0x20\n        /* \"#utility.yul\":9547:9550   */\n      dup7\n        /* \"#utility.yul\":9543:9557   */\n      add\n        /* \"#utility.yul\":9536:9540   */\n      0x20\n        /* \"#utility.yul\":9529:9534   */\n      dup7\n        /* \"#utility.yul\":9525:9541   */\n      add\n        /* \"#utility.yul\":9490:9566   */\n      tag_388\n      jump\t// in\n    tag_473:\n        /* \"#utility.yul\":9620:9622   */\n      0x1f\n        /* \"#utility.yul\":9599:9614   */\n      add\n      not(0x1f)\n        /* \"#utility.yul\":9595:9624   */\n      and\n        /* \"#utility.yul\":9586:9625   */\n      swap3\n      swap1\n      swap3\n      add\n        /* \"#utility.yul\":9627:9631   */\n      0x20\n        /* \"#utility.yul\":9582:9632   */\n      add\n      swap3\n        /* \"#utility.yul\":9368:9638   */\n      swap2\n      pop\n      pop\n      jump\t// out\n        /* \"#utility.yul\":9643:11322   */\n    tag_190:\n        /* \"#utility.yul\":9909:9913   */\n      0x00\n        /* \"#utility.yul\":9938:9940   */\n      0x60\n        /* \"#utility.yul\":9978:9980   */\n      dup1\n        /* \"#utility.yul\":9967:9976   */\n      dup4\n        /* \"#utility.yul\":9963:9981   */\n      add\n        /* \"#utility.yul\":10008:10010   */\n      0x60\n        /* \"#utility.yul\":9997:10006   */\n      dup5\n        /* \"#utility.yul\":9990:10011   */\n      mstore\n        /* \"#utility.yul\":10031:10037   */\n      dup1\n        /* \"#utility.yul\":10066:10072   */\n      dup8\n        /* \"#utility.yul\":10060:10073   */\n      mload\n        /* \"#utility.yul\":10097:10103   */\n      dup1\n        /* \"#utility.yul\":10089:10095   */\n      dup4\n        /* \"#utility.yul\":10082:10104   */\n      mstore\n        /* \"#utility.yul\":10135:10138   */\n      0x80\n        /* \"#utility.yul\":10124:10133   */\n      dup7\n        /* \"#utility.yul\":10120:10139   */\n      add\n        /* \"#utility.yul\":10113:10139   */\n      swap2\n      pop\n        /* \"#utility.yul\":10198:10201   */\n      0x80\n        /* \"#utility.yul\":10188:10194   */\n      dup2\n        /* \"#utility.yul\":10185:10186   */\n      0x05\n        /* \"#utility.yul\":10181:10195   */\n      shl\n        /* \"#utility.yul\":10170:10179   */\n      dup8\n        /* \"#utility.yul\":10166:10196   */\n      add\n        /* \"#utility.yul\":10162:10202   */\n      add\n        /* \"#utility.yul\":10148:10202   */\n      swap3\n      pop\n        /* \"#utility.yul\":10221:10225   */\n      0x20\n        /* \"#utility.yul\":10260:10262   */\n      dup1\n        /* \"#utility.yul\":10252:10258   */\n      dup11\n        /* \"#utility.yul\":10248:10263   */\n      add\n        /* \"#utility.yul\":10281:10282   */\n      0x00\n        /* \"#utility.yul\":10291:11151   */\n    tag_475:\n        /* \"#utility.yul\":10305:10311   */\n      dup4\n        /* \"#utility.yul\":10302:10303   */\n      dup2\n        /* \"#utility.yul\":10299:10312   */\n      lt\n        /* \"#utility.yul\":10291:11151   */\n      iszero\n      tag_477\n      jumpi\n        /* \"#utility.yul\":10370:10392   */\n      dup9\n      dup7\n      sub\n      not(0x7f)\n        /* \"#utility.yul\":10366:10403   */\n      add\n        /* \"#utility.yul\":10354:10404   */\n      dup6\n      mstore\n        /* \"#utility.yul\":10427:10440   */\n      dup2\n      mload\n        /* \"#utility.yul\":10472:10481   */\n      dup1\n      mload\n      sub(shl(0xa0, 0x01), 0x01)\n        /* \"#utility.yul\":10468:10526   */\n      and\n        /* \"#utility.yul\":10453:10527   */\n      dup8\n      mstore\n        /* \"#utility.yul\":10566:10577   */\n      dup4\n      dup2\n      add\n        /* \"#utility.yul\":10560:10578   */\n      mload\n        /* \"#utility.yul\":10618:10619   */\n      0x03\n        /* \"#utility.yul\":10601:10620   */\n      dup2\n      lt\n        /* \"#utility.yul\":10591:10818   */\n      tag_478\n      jumpi\n      shl(0xe0, 0x4e487b71)\n        /* \"#utility.yul\":10659:10660   */\n      0x00\n        /* \"#utility.yul\":10652:10740   */\n      mstore\n        /* \"#utility.yul\":10767:10771   */\n      0x21\n        /* \"#utility.yul\":10764:10765   */\n      0x04\n        /* \"#utility.yul\":10757:10772   */\n      mstore\n        /* \"#utility.yul\":10799:10803   */\n      0x24\n        /* \"#utility.yul\":10796:10797   */\n      0x00\n        /* \"#utility.yul\":10789:10804   */\n      revert\n        /* \"#utility.yul\":10591:10818   */\n    tag_478:\n        /* \"#utility.yul\":10838:10853   */\n      dup8\n      dup6\n      add\n        /* \"#utility.yul\":10831:10868   */\n      mstore\n        /* \"#utility.yul\":10891:10895   */\n      0x40\n        /* \"#utility.yul\":10936:10947   */\n      swap1\n      dup2\n      add\n        /* \"#utility.yul\":10930:10948   */\n      mload\n        /* \"#utility.yul\":10968:10983   */\n      swap1\n      dup8\n      add\n        /* \"#utility.yul\":10961:10988   */\n      dup9\n      swap1\n      mstore\n        /* \"#utility.yul\":11011:11071   */\n      tag_479\n        /* \"#utility.yul\":11055:11070   */\n      dup9\n      dup9\n      add\n        /* \"#utility.yul\":10930:10948   */\n      dup3\n        /* \"#utility.yul\":11011:11071   */\n      tag_384\n      jump\t// in\n    tag_479:\n        /* \"#utility.yul\":11001:11071   */\n      swap7\n      pop\n      pop\n        /* \"#utility.yul\":11129:11141   */\n      swap4\n      dup3\n      add\n      swap4\n        /* \"#utility.yul\":11094:11109   */\n      swap1\n      dup3\n      add\n      swap1\n        /* \"#utility.yul\":10327:10328   */\n      0x01\n        /* \"#utility.yul\":10320:10329   */\n      add\n        /* \"#utility.yul\":10291:11151   */\n      jump(tag_475)\n    tag_477:\n      pop\n      pop\n      sub(shl(0xa0, 0x01), 0x01)\n        /* \"#utility.yul\":2252:2306   */\n      dup10\n      and\n        /* \"#utility.yul\":11187:11205   */\n      swap1\n      dup8\n      add\n        /* \"#utility.yul\":2240:2307   */\n      mstore\n      pop\n      pop\n        /* \"#utility.yul\":11244:11266   */\n      dup4\n      dup2\n      sub\n        /* \"#utility.yul\":11237:11241   */\n      0x40\n        /* \"#utility.yul\":11222:11242   */\n      dup6\n      add\n        /* \"#utility.yul\":11215:11267   */\n      mstore\n        /* \"#utility.yul\":11284:11316   */\n      tag_481\n        /* \"#utility.yul\":11248:11254   */\n      dup2\n        /* \"#utility.yul\":11301:11307   */\n      dup7\n        /* \"#utility.yul\":11284:11316   */\n      tag_389\n      jump\t// in\n    tag_481:\n        /* \"#utility.yul\":11276:11316   */\n      swap8\n        /* \"#utility.yul\":9643:11322   */\n      swap7\n      pop\n      pop\n      pop\n      pop\n      pop\n      pop\n      pop\n      jump\t// out\n        /* \"#utility.yul\":11327:11511   */\n    tag_390:\n      shl(0xe0, 0x4e487b71)\n        /* \"#utility.yul\":11376:11377   */\n      0x00\n        /* \"#utility.yul\":11369:11457   */\n      mstore\n        /* \"#utility.yul\":11476:11480   */\n      0x11\n        /* \"#utility.yul\":11473:11474   */\n      0x04\n        /* \"#utility.yul\":11466:11481   */\n      mstore\n        /* \"#utility.yul\":11500:11504   */\n      0x24\n        /* \"#utility.yul\":11497:11498   */\n      0x00\n        /* \"#utility.yul\":11490:11505   */\n      revert\n        /* \"#utility.yul\":11516:11651   */\n    tag_208:\n        /* \"#utility.yul\":11555:11558   */\n      0x00\n        /* \"#utility.yul\":11576:11593   */\n      0x01\n      dup3\n      add\n        /* \"#utility.yul\":11573:11616   */\n      tag_485\n      jumpi\n        /* \"#utility.yul\":11596:11614   */\n      tag_485\n      tag_390\n      jump\t// in\n    tag_485:\n      pop\n        /* \"#utility.yul\":11643:11644   */\n      0x01\n        /* \"#utility.yul\":11632:11645   */\n      add\n      swap1\n        /* \"#utility.yul\":11516:11651   */\n      jump\t// out\n        /* \"#utility.yul\":11656:11831   */\n    tag_265:\n        /* \"#utility.yul\":11693:11696   */\n      0x00\n        /* \"#utility.yul\":11737:11741   */\n      0xff\n        /* \"#utility.yul\":11730:11735   */\n      dup3\n        /* \"#utility.yul\":11726:11742   */\n      and\n        /* \"#utility.yul\":11766:11770   */\n      0xff\n        /* \"#utility.yul\":11757:11764   */\n      dup2\n        /* \"#utility.yul\":11754:11771   */\n      sub\n        /* \"#utility.yul\":11751:11794   */\n      tag_488\n      jumpi\n        /* \"#utility.yul\":11774:11792   */\n      tag_488\n      tag_390\n      jump\t// in\n    tag_488:\n        /* \"#utility.yul\":11823:11824   */\n      0x01\n        /* \"#utility.yul\":11810:11825   */\n      add\n      swap3\n        /* \"#utility.yul\":11656:11831   */\n      swap2\n      pop\n      pop\n      jump\t// out\n        /* \"#utility.yul\":11836:12123   */\n    tag_364:\n        /* \"#utility.yul\":11965:11968   */\n      0x00\n        /* \"#utility.yul\":12003:12009   */\n      dup3\n        /* \"#utility.yul\":11997:12010   */\n      mload\n        /* \"#utility.yul\":12019:12085   */\n      tag_490\n        /* \"#utility.yul\":12078:12084   */\n      dup2\n        /* \"#utility.yul\":12073:12076   */\n      dup5\n        /* \"#utility.yul\":12066:12070   */\n      0x20\n        /* \"#utility.yul\":12058:12064   */\n      dup8\n        /* \"#utility.yul\":12054:12071   */\n      add\n        /* \"#utility.yul\":12019:12085   */\n      tag_388\n      jump\t// in\n    tag_490:\n        /* \"#utility.yul\":12101:12117   */\n      swap2\n      swap1\n      swap2\n      add\n      swap3\n        /* \"#utility.yul\":11836:12123   */\n      swap2\n      pop\n      pop\n      jump\t// out\n\n    auxdata: 0xa2646970667358221220737e3298da18b6b9d3ae38e47c58d45fe6ad6e9c368348ddb00ee0a465df341a64736f6c63430008180033\n}\n",
				"bytecode": {
					"linkReferences": {},
					"object": "608060405234801562000010575f80fd5b5060408051600c8082526101a082019092525f9160208201610180803683370190505090505f632c40805960e01b82826200004b8162000d1c565b93508151811062000060576200006062000d41565b6001600160e01b031990921660209283029190910190910152639142376560e01b82826200008e8162000d1c565b935081518110620000a357620000a362000d41565b6001600160e01b031990921660209283029190910190910152620000d0632f40adcf60e21b600162000477565b6307e4c70760e21b8282620000e58162000d1c565b935081518110620000fa57620000fa62000d41565b6001600160e01b031990921660209283029190910190910152620001276307e4c70760e21b600162000477565b637a0ed62760e01b82826200013c8162000d1c565b93508151811062000151576200015162000d41565b6001600160e01b0319909216602092830291909101909101526356fe50af60e11b82826200017f8162000d1c565b93508151811062000194576200019462000d41565b6001600160e01b0319909216602092830291909101909101526314bbdacb60e21b8282620001c28162000d1c565b935081518110620001d757620001d762000d41565b6001600160e01b0319909216602092830291909101909101526366ffd66360e11b8282620002058162000d1c565b9350815181106200021a576200021a62000d41565b6001600160e01b031990921660209283029190910190910152620002476348e2b09360e01b600162000477565b6301ffc9a760e01b82826200025c8162000d1c565b93508151811062000271576200027162000d41565b6001600160e01b0319909216602092830291909101909101526200029e6301ffc9a760e01b600162000477565b638da5cb5b60e01b8282620002b38162000d1c565b935081518110620002c857620002c862000d41565b6001600160e01b03199092166020928302919091019091015263455a8a8560e11b8282620002f68162000d1c565b9350815181106200030b576200030b62000d41565b6001600160e01b03199092166020928302919091019091015263f2fde38b60e01b8282620003398162000d1c565b9350815181106200034e576200034e62000d41565b6001600160e01b0319909216602092830291909101909101526379ba509760e01b82826200037c8162000d1c565b93508151811062000391576200039162000d41565b6001600160e01b031990921660209283029190910190910152620003be6307f5828d60e41b600162000477565b6040805160018082528183019092525f91816020015b60408051606080820183525f808352602083015291810191909152815260200190600190039081620003d4579050506040805160608101909152308152909150602081015f815260200184815250815f8151811062000437576200043762000d41565b602002602001018190525062000463815f60405180602001604052805f815250620004ed60201b60201c565b6200046e33620006e6565b50505062000edc565b6001600160e01b03198083169003620004a35760405163b0a19dd560e01b815260040160405180910390fd5b6001600160e01b0319919091165f9081527ffc606c433378e3a7e0a6a531deac289b66caa1b4aa8554fd4ab2c6f1570f92d860205260409020805460ff1916911515919091179055565b7f177481ac65e4292921c69f62d1cc7f57541261e5d61c8175cf4e36a01c9bfc94547f177481ac65e4292921c69f62d1cc7f57541261e5d61c8175cf4e36a01c9bfc939061ffff81169081905f90600716156200055b5750600381901c5f9081526002840160205260409020545b5f5b875181101562000655575f8882815181106200057d576200057d62000d41565b602002602001015190505f816020015190508160400151515f03620005b55760405163eb6c3aeb60e01b815260040160405180910390fd5b5f816002811115620005cb57620005cb62000d55565b03620005ea57620005df878686856200075f565b90955093506200064a565b600181600281111562000601576200060162000d55565b036200061957620006138783620008ce565b6200064a565b600281600281111562000630576200063062000d55565b036200064a57620006448786868562000a18565b90955093505b50506001016200055d565b50828214620006725760018401805461ffff191661ffff84161790555b60078216156200069457600382901c5f90815260028501602052604090208190555b7f8faa70878671ccd212d20771b795c50af8fd3ff6cf27f4bde57e5d4de0aeb673878787604051620006c99392919062000dba565b60405180910390a1620006dd868662000c35565b50505050505050565b7f8a22373512790c48b83a1fe2efdd2888d4a917bcdc24d0adf63e60f67168046080546040516001600160a01b038481169216907f8be0079c531659141344cd1fd0a4f28419497f9722a3daafe3b4186f6b6457e0905f90a380546001600160a01b0319166001600160a01b0392909216919091179055565b80515f9081906001600160a01b03163b15620007a8578251306001600160a01b0390911603620007a25760405163e983573160e01b815260040160405180910390fd5b620007d3565b82516001600160a01b03163014620007d357604051633ddc5cab60e21b815260040160405180910390fd5b5f5b836040015151811015620008c1575f84604001518281518110620007fd57620007fd62000d41565b6020908102919091018101516001600160e01b031981165f908152918a9052604090912054909150606081901c156200084957604051634923a77160e11b815260040160405180910390fd5b85516001600160e01b03198381165f81815260208d90526040902060609390931b6001600160601b0319168b1790925560058a901b60e090811692831c91831c19999099161797819003620008b157600389901c5f90815260028b0160205260408120989098555b50505060019586019501620007d5565b5093959294509192505050565b80516001600160a01b03163b620008f857604051633ddc5cab60e21b815260040160405180910390fd5b5f5b81604001515181101562000a13575f8260400151828151811062000922576200092262000d41565b6020908102919091018101516001600160e01b031981165f90815291869052604090912054909150606081901c806200096e576040516337e25a9760e11b815260040160405180910390fd5b306001600160a01b03821603620009985760405163e983573160e01b815260040160405180910390fd5b845f01516001600160a01b0316816001600160a01b031603620009ce576040516330baabf360e11b815260040160405180910390fd5b5083516001600160e01b0319929092165f90815260208690526040902060609290921b6001600160601b0319166001600160601b0391909116179055600101620008fa565b505050565b80515f9081906001600160a01b03161562000a4657604051633ab3490960e21b815260040160405180910390fd5b600385901c600786165f5b85604001515181101562000c21575f8660400151828151811062000a795762000a7962000d41565b6020908102919091018101516001600160e01b031981165f908152918c9052604090912054909150606081901c62000ac4576040516337e25a9760e11b815260040160405180910390fd5b30606082901c0362000ae95760405163e983573160e01b815260040160405180910390fd5b5f89900362000b14575f199094015f81815260028c0160205260409020549850936007935062000b1b565b5f19909301925b600584901b89901b5f806001600160e01b03198084169086161462000b6c576001600160e01b031983165f90815260208f90526040902080546001600160601b0319166001600160601b0386161790555b50506001600160e01b031983165f90815260208d90526040812055611fff600383901c1660e0600584901b1687821462000bcf575f82815260028f016020526040902080546001600160e01b031980841c19909116908516831c17905562000bf2565b80836001600160e01b031916901c816001600160e01b03195f1b901c198d16179b505b865f0362000c0f575f88815260028f01602052604081208190559b505b50506001909301925062000a51915050565b5060039190911b1796939550929350505050565b8051156001600160a01b038316151462000c62576040516326df4ccd60e01b815260040160405180910390fd5b6001600160a01b0382161562000d18576001600160a01b038216301462000cac576001600160a01b0382163b62000cac57604051633ddc5cab60e21b815260040160405180910390fd5b5f826001600160a01b03168260405162000cc7919062000ebf565b5f60405180830381855af49150503d805f811462000d01576040519150601f19603f3d011682016040523d82523d5f602084013e62000d06565b606091505b505090508062000a13573d5f803e3d5ffd5b5050565b5f6001820162000d3a57634e487b7160e01b5f52601160045260245ffd5b5060010190565b634e487b7160e01b5f52603260045260245ffd5b634e487b7160e01b5f52602160045260245ffd5b5f5b8381101562000d8557818101518382015260200162000d6b565b50505f910152565b5f815180845262000da681602086016020860162000d69565b601f01601f19169290920160200192915050565b5f6060808301606084528087518083526080925060808601915060808160051b8701016020808b015f5b8481101562000e8d57898403607f19018652815180516001600160a01b0316855283810151898601906003811062000e2a57634e487b7160e01b5f52602160045260245ffd5b868601526040918201519186018a9052815190819052908401905f90898701905b8083101562000e775783516001600160e01b031916825292860192600192909201919086019062000e4b565b5097850197955050509082019060010162000de4565b50506001600160a01b038a1690880152868103604088015262000eb1818962000d8d565b9a9950505050505050505050565b5f825162000ed281846020870162000d69565b9190910192915050565b611cdc8062000eea5f395ff3fe6080604052600436106100ca575f3560e01c80638ab5150a11610073578063adfca15e1161004d578063adfca15e14610259578063cdffacc614610285578063f2fde38b146102a4576100d1565b80638ab5150a146102125780638da5cb5b14610226578063914237651461023a576100d1565b806352ef6b2c116100a457806352ef6b2c146101bc57806379ba5097146101dd5780637a0ed627146101f1576100d1565b806301ffc9a71461013d5780631f931c1c146101715780632c40805914610190576100d1565b366100d157005b5f6100da6102c3565b90506001600160a01b0381163b61011d576040517f87c9fc3400000000000000000000000000000000000000000000000000000000815260040160405180910390fd5b365f80375f80365f845af43d5f803e808015610137573d5ff35b3d5ffd5b005b348015610148575f80fd5b5061015c6101573660046116c6565b6102d1565b60405190151581526020015b60405180910390f35b34801561017c575f80fd5b5061013b61018b366004611741565b610313565b34801561019b575f80fd5b506101a461039c565b6040516001600160a01b039091168152602001610168565b3480156101c7575f80fd5b506101d06103ce565b60405161016891906117ea565b3480156101e8575f80fd5b5061013b6103d8565b3480156101fc575f80fd5b50610205610434565b604051610168919061187a565b34801561021d575f80fd5b506101a461043e565b348015610231575f80fd5b506101a4610447565b348015610245575f80fd5b5061013b6102543660046118f7565b610450565b348015610264575f80fd5b506102786102733660046118f7565b6104d6565b6040516101689190611910565b348015610290575f80fd5b506101a461029f3660046116c6565b6104e1565b3480156102af575f80fd5b5061013b6102be3660046118f7565b610521565b5f6102cc610563565b905090565b6001600160e01b031981165f9081527ffc606c433378e3a7e0a6a531deac289b66caa1b4aa8554fd4ab2c6f1570f92d8602052604081205460ff165b92915050565b61031b6105d5565b6001600160a01b0316336001600160a01b03161461034c57604051632f7a8ee160e01b815260040160405180910390fd5b61039561035985876119e2565b8484848080601f0160208091040260200160405190810160405280939291908181526020018383808284375f9201919091525061060792505050565b5050505050565b5f6102cc7f177481ac65e4292921c69f62d1cc7f57541261e5d61c8175cf4e36a01c9bfc96546001600160a01b031690565b60606102cc6107f8565b6103e06109b6565b6001600160a01b0316336001600160a01b03161461042a576040517fefd1052d00000000000000000000000000000000000000000000000000000000815260040160405180910390fd5b6104326109dd565b565b60606102cc610a24565b5f6102cc6109b6565b5f6102cc6105d5565b6104586105d5565b6001600160a01b0316336001600160a01b03161461048957604051632f7a8ee160e01b815260040160405180910390fd5b7f177481ac65e4292921c69f62d1cc7f57541261e5d61c8175cf4e36a01c9bfc96805473ffffffffffffffffffffffffffffffffffffffff19166001600160a01b03831617905550565b50565b606061030d82610e54565b6001600160e01b031981165f9081527f177481ac65e4292921c69f62d1cc7f57541261e5d61c8175cf4e36a01c9bfc93602052604081205460601c61030d565b6105296105d5565b6001600160a01b0316336001600160a01b03161461055a57604051632f7a8ee160e01b815260040160405180910390fd5b6104d381610fc5565b5f80356001600160e01b03191681527f177481ac65e4292921c69f62d1cc7f57541261e5d61c8175cf4e36a01c9bfc93602052604090205460601c806105d257507f177481ac65e4292921c69f62d1cc7f57541261e5d61c8175cf4e36a01c9bfc96546001600160a01b031690565b90565b5f7f8a22373512790c48b83a1fe2efdd2888d4a917bcdc24d0adf63e60f6716804605b546001600160a01b0316919050565b7f177481ac65e4292921c69f62d1cc7f57541261e5d61c8175cf4e36a01c9bfc94547f177481ac65e4292921c69f62d1cc7f57541261e5d61c8175cf4e36a01c9bfc939061ffff81169081905f90600716156106745750600381901c5f9081526002840160205260409020545b5f5b875181101561076d575f88828151811061069257610692611b06565b602002602001015190505f816020015190508160400151515f036106e2576040517feb6c3aeb00000000000000000000000000000000000000000000000000000000815260040160405180910390fd5b5f8160028111156106f5576106f5611b1a565b036107105761070687868685611015565b9095509350610763565b600181600281111561072457610724611b1a565b03610738576107338783611197565b610763565b600281600281111561074c5761074c611b1a565b036107635761075d878686856112fb565b90955093505b5050600101610676565b508282146107895760018401805461ffff191661ffff84161790555b60078216156107aa57600382901c5f90815260028501602052604090208190555b7f8faa70878671ccd212d20771b795c50af8fd3ff6cf27f4bde57e5d4de0aeb6738787876040516107dd93929190611b7b565b60405180910390a16107ef868661152d565b50505050505050565b7f177481ac65e4292921c69f62d1cc7f57541261e5d61c8175cf4e36a01c9bfc94546060907f177481ac65e4292921c69f62d1cc7f57541261e5d61c8175cf4e36a01c9bfc939061ffff1667ffffffffffffffff81111561085b5761085b611951565b604051908082528060200260200182016040528015610884578160200160208202803683370190505b5091505f805f5b600184015461ffff168210156109ae575f818152600285016020526040812054905b600881101561099957836108c081611c55565b600188015490955061ffff168511905061099957600581901b82901b6001600160e01b031981165f9081526020889052604081205460601c90805b88811015610946578a818151811061091557610915611b06565b60200260200101516001600160a01b0316836001600160a01b03160361093e5760019150610946565b6001016108fb565b50801561095557505050610991565b818a898151811061096857610968611b06565b6001600160a01b03909216602092830291909101909101528761098a81611c55565b9850505050505b6001016108ad565b505080806109a690611c55565b91505061088b565b505082525090565b5f7f24aa1f7b31fd188a8d3ecfb06bc55c806040e59b03bd4396283442fce66178906105f8565b6109e633611624565b7f24aa1f7b31fd188a8d3ecfb06bc55c806040e59b03bd4396283442fce6617890805473ffffffffffffffffffffffffffffffffffffffff19169055565b7f177481ac65e4292921c69f62d1cc7f57541261e5d61c8175cf4e36a01c9bfc94546060907f177481ac65e4292921c69f62d1cc7f57541261e5d61c8175cf4e36a01c9bfc939061ffff1667ffffffffffffffff811115610a8757610a87611951565b604051908082528060200260200182016040528015610acc57816020015b604080518082019091525f815260606020820152815260200190600190039081610aa55790505b5060018201549092505f9061ffff1667ffffffffffffffff811115610af357610af3611951565b604051908082528060200260200182016040528015610b1c578160200160208202803683370190505b5090505f805f5b600185015461ffff16821015610df0575f818152600286016020526040812054905b6008811015610ddb5783610b5881611c55565b600189015490955061ffff1685119050610ddb57600581901b82901b6001600160e01b031981165f9081526020899052604081205460601c90805b88811015610ca457826001600160a01b03168c8281518110610bb757610bb7611b06565b60200260200101515f01516001600160a01b031603610c9c57838c8281518110610be357610be3611b06565b6020026020010151602001518b8381518110610c0157610c01611b06565b602002602001015160ff1681518110610c1c57610c1c611b06565b60200260200101906001600160e01b03191690816001600160e01b0319168152505060ff8a8281518110610c5257610c52611b06565b602002602001015160ff1610610c66575f80fd5b898181518110610c7857610c78611b06565b602002602001018051809190610c8d90611c6d565b60ff1690525060019150610ca4565b600101610b93565b508015610cb357505050610dd3565b818b8981518110610cc657610cc6611b06565b60209081029190910101516001600160a01b03909116905260018a015461ffff1667ffffffffffffffff811115610cff57610cff611951565b604051908082528060200260200182016040528015610d28578160200160208202803683370190505b508b8981518110610d3b57610d3b611b06565b602002602001015160200181905250828b8981518110610d5d57610d5d611b06565b6020026020010151602001515f81518110610d7a57610d7a611b06565b60200260200101906001600160e01b03191690816001600160e01b031916815250506001898981518110610db057610db0611b06565b60ff9092166020928302919091019091015287610dcc81611c55565b9850505050505b600101610b45565b50508080610de890611c55565b915050610b23565b505f5b82811015610e49575f848281518110610e0e57610e0e611b06565b602002602001015160ff1690505f878381518110610e2e57610e2e611b06565b60209081029190910181015101519190915250600101610df3565b508185525050505090565b7f177481ac65e4292921c69f62d1cc7f57541261e5d61c8175cf4e36a01c9bfc94546060907f177481ac65e4292921c69f62d1cc7f57541261e5d61c8175cf4e36a01c9bfc939061ffff1667ffffffffffffffff811115610eb757610eb7611951565b604051908082528060200260200182016040528015610ee0578160200160208202803683370190505b5091505f805f5b600184015461ffff16821015610fbb575f818152600285016020526040812054905b6008811015610fa65783610f1c81611c55565b600188015490955061ffff1685119050610fa657600581901b82901b6001600160e01b031981165f9081526020889052604090205460601c6001600160a01b038a1603610f9d5780888781518110610f7657610f76611b06565b6001600160e01b03199092166020928302919091019091015285610f9981611c55565b9650505b50600101610f09565b50508080610fb390611c55565b915050610ee7565b5050825250919050565b7f24aa1f7b31fd188a8d3ecfb06bc55c806040e59b03bd4396283442fce6617890805473ffffffffffffffffffffffffffffffffffffffff19166001600160a01b0383161790556104d381818181565b80515f9081906001600160a01b03163b1561105b578251306001600160a01b03909116036110565760405163e983573160e01b815260040160405180910390fd5b611085565b82516001600160a01b0316301461108557604051633ddc5cab60e21b815260040160405180910390fd5b5f5b83604001515181101561118a575f846040015182815181106110ab576110ab611b06565b6020908102919091018101516001600160e01b031981165f908152918a9052604090912054909150606081901c1561110f576040517f92474ee200000000000000000000000000000000000000000000000000000000815260040160405180910390fd5b85516001600160e01b03198381165f81815260208d90526040902060609390931b6bffffffffffffffffffffffff19168b1790925560058a901b60e090811692831c91831c1999909916179781900361117b57600389901c5f90815260028b0160205260408120989098555b50505060019586019501611087565b5093959294509192505050565b80516001600160a01b03163b6111c057604051633ddc5cab60e21b815260040160405180910390fd5b5f5b8160400151518110156112f6575f826040015182815181106111e6576111e6611b06565b6020908102919091018101516001600160e01b031981165f90815291869052604090912054909150606081901c80611231576040516337e25a9760e11b815260040160405180910390fd5b306001600160a01b0382160361125a5760405163e983573160e01b815260040160405180910390fd5b845f01516001600160a01b0316816001600160a01b0316036112a8576040517f617557e600000000000000000000000000000000000000000000000000000000815260040160405180910390fd5b5083516001600160e01b0319929092165f90815260208690526040902060609290921b6bffffffffffffffffffffffff19166bffffffffffffffffffffffff919091161790556001016111c2565b505050565b80515f9081906001600160a01b031615611341576040517feacd242400000000000000000000000000000000000000000000000000000000815260040160405180910390fd5b600385901c600786165f5b856040015151811015611519575f8660400151828151811061137057611370611b06565b6020908102919091018101516001600160e01b031981165f908152918c9052604090912054909150606081901c6113ba576040516337e25a9760e11b815260040160405180910390fd5b30606082901c036113de5760405163e983573160e01b815260040160405180910390fd5b5f899003611407575f199094015f81815260028c0160205260409020549850936007935061140e565b5f19909301925b600584901b89901b5f806001600160e01b031980841690861614611468576001600160e01b031983165f90815260208f90526040902080546bffffffffffffffffffffffff19166bffffffffffffffffffffffff86161790555b50506001600160e01b031983165f90815260208d90526040812055611fff600383901c1660e0600584901b168782146114c9575f82815260028f016020526040902080546001600160e01b031980841c19909116908516831c1790556114ec565b80836001600160e01b031916901c816001600160e01b03195f1b901c198d16179b505b865f03611508575f88815260028f01602052604081208190559b505b50506001909301925061134c915050565b5060039190911b1796939550929350505050565b8051156001600160a01b0383161514611572576040517f26df4ccd00000000000000000000000000000000000000000000000000000000815260040160405180910390fd5b6001600160a01b03821615611620576001600160a01b03821630146115b9576001600160a01b0382163b6115b957604051633ddc5cab60e21b815260040160405180910390fd5b5f826001600160a01b0316826040516115d29190611c8b565b5f60405180830381855af49150503d805f811461160a576040519150601f19603f3d011682016040523d82523d5f602084013e61160f565b606091505b50509050806112f6573d5f803e3d5ffd5b5050565b7f8a22373512790c48b83a1fe2efdd2888d4a917bcdc24d0adf63e60f67168046080546040516001600160a01b038481169216907f8be0079c531659141344cd1fd0a4f28419497f9722a3daafe3b4186f6b6457e0905f90a3805473ffffffffffffffffffffffffffffffffffffffff19166001600160a01b0392909216919091179055565b80356001600160e01b0319811681146116c1575f80fd5b919050565b5f602082840312156116d6575f80fd5b6116df826116aa565b9392505050565b80356001600160a01b03811681146116c1575f80fd5b5f8083601f84011261170c575f80fd5b50813567ffffffffffffffff811115611723575f80fd5b60208301915083602082850101111561173a575f80fd5b9250929050565b5f805f805f60608688031215611755575f80fd5b853567ffffffffffffffff8082111561176c575f80fd5b818801915088601f83011261177f575f80fd5b81358181111561178d575f80fd5b8960208260051b85010111156117a1575f80fd5b602083019750809650506117b7602089016116e6565b945060408801359150808211156117cc575f80fd5b506117d9888289016116fc565b969995985093965092949392505050565b602080825282518282018190525f9190848201906040850190845b8181101561182a5783516001600160a01b031683529284019291840191600101611805565b50909695505050505050565b5f815180845260208085019450602084015f5b8381101561186f5781516001600160e01b03191687529582019590820190600101611849565b509495945050505050565b5f60208083018184528085518083526040925060408601915060408160051b8701018488015f5b838110156118e957888303603f19018552815180516001600160a01b031684528701518784018790526118d687850182611836565b95880195935050908601906001016118a1565b509098975050505050505050565b5f60208284031215611907575f80fd5b6116df826116e6565b602080825282518282018190525f9190848201906040850190845b8181101561182a5783516001600160e01b0319168352928401929184019160010161192b565b634e487b7160e01b5f52604160045260245ffd5b6040516060810167ffffffffffffffff8111828210171561198857611988611951565b60405290565b604051601f8201601f1916810167ffffffffffffffff811182821017156119b7576119b7611951565b604052919050565b5f67ffffffffffffffff8211156119d8576119d8611951565b5060051b60200190565b5f6119f46119ef846119bf565b61198e565b83815260208082019190600586811b860136811115611a11575f80fd5b865b81811015611af957803567ffffffffffffffff80821115611a32575f80fd5b818a01915060608236031215611a46575f80fd5b611a4e611965565b611a57836116e6565b81528683013560038110611a69575f80fd5b8188015260408381013583811115611a7f575f80fd5b939093019236601f850112611a92575f80fd5b83359250611aa26119ef846119bf565b83815292871b84018801928881019036851115611abd575f80fd5b948901945b84861015611ae257611ad3866116aa565b82529489019490890190611ac2565b918301919091525088525050948301948301611a13565b5092979650505050505050565b634e487b7160e01b5f52603260045260245ffd5b634e487b7160e01b5f52602160045260245ffd5b5f5b83811015611b48578181015183820152602001611b30565b50505f910152565b5f8151808452611b67816020860160208601611b2e565b601f01601f19169290920160200192915050565b5f60608083016060845280875180835260808601915060808160051b87010192506020808a015f5b83811015611c1257888603607f19018552815180516001600160a01b031687528381015160038110611be357634e487b7160e01b5f52602160045260245ffd5b87850152604090810151908701889052611bff88880182611836565b9650509382019390820190600101611ba3565b50506001600160a01b0389169087015250508381036040850152611c368186611b50565b979650505050505050565b634e487b7160e01b5f52601160045260245ffd5b5f60018201611c6657611c66611c41565b5060010190565b5f60ff821660ff8103611c8257611c82611c41565b60010192915050565b5f8251611c9c818460208701611b2e565b919091019291505056fea2646970667358221220737e3298da18b6b9d3ae38e47c58d45fe6ad6e9c368348ddb00ee0a465df341a64736f6c63430008180033",
					"opcodes": "PUSH1 0x80 PUSH1 0x40 MSTORE CALLVALUE DUP1 ISZERO PUSH3 0x10 JUMPI PUSH0 DUP1 REVERT JUMPDEST POP PUSH1 0x40 DUP1 MLOAD PUSH1 0xC DUP1 DUP3 MSTORE PUSH2 0x1A0 DUP3 ADD SWAP1 SWAP3 MSTORE PUSH0 SWAP2 PUSH1 0x20 DUP3 ADD PUSH2 0x180 DUP1 CALLDATASIZE DUP4 CALLDATACOPY ADD SWAP1 POP POP SWAP1 POP PUSH0 PUSH4 0x2C408059 PUSH1 0xE0 SHL DUP3 DUP3 PUSH3 0x4B DUP2 PUSH3 0xD1C JUMP JUMPDEST SWAP4 POP DUP2 MLOAD DUP2 LT PUSH3 0x60 JUMPI PUSH3 0x60 PUSH3 0xD41 JUMP JUMPDEST PUSH1 0x1 PUSH1 0x1 PUSH1 0xE0 SHL SUB NOT SWAP1 SWAP3 AND PUSH1 0x20 SWAP3 DUP4 MUL SWAP2 SWAP1 SWAP2 ADD SWAP1 SWAP2 ADD MSTORE PUSH4 0x91423765 PUSH1 0xE0 SHL DUP3 DUP3 PUSH3 0x8E DUP2 PUSH3 0xD1C JUMP JUMPDEST SWAP4 POP DUP2 MLOAD DUP2 LT PUSH3 0xA3 JUMPI PUSH3 0xA3 PUSH3 0xD41 JUMP JUMPDEST PUSH1 0x1 PUSH1 0x1 PUSH1 0xE0 SHL SUB NOT SWAP1 SWAP3 AND PUSH1 0x20 SWAP3 DUP4 MUL SWAP2 SWAP1 SWAP2 ADD SWAP1 SWAP2 ADD MSTORE PUSH3 0xD0 PUSH4 0x2F40ADCF PUSH1 0xE2 SHL PUSH1 0x1 PUSH3 0x477 JUMP JUMPDEST PUSH4 0x7E4C707 PUSH1 0xE2 SHL DUP3 DUP3 PUSH3 0xE5 DUP2 PUSH3 0xD1C JUMP JUMPDEST SWAP4 POP DUP2 MLOAD DUP2 LT PUSH3 0xFA JUMPI PUSH3 0xFA PUSH3 0xD41 JUMP JUMPDEST PUSH1 0x1 PUSH1 0x1 PUSH1 0xE0 SHL SUB NOT SWAP1 SWAP3 AND PUSH1 0x20 SWAP3 DUP4 MUL SWAP2 SWAP1 SWAP2 ADD SWAP1 SWAP2 ADD MSTORE PUSH3 0x127 PUSH4 0x7E4C707 PUSH1 0xE2 SHL PUSH1 0x1 PUSH3 0x477 JUMP JUMPDEST PUSH4 0x7A0ED627 PUSH1 0xE0 SHL DUP3 DUP3 PUSH3 0x13C DUP2 PUSH3 0xD1C JUMP JUMPDEST SWAP4 POP DUP2 MLOAD DUP2 LT PUSH3 0x151 JUMPI PUSH3 0x151 PUSH3 0xD41 JUMP JUMPDEST PUSH1 0x1 PUSH1 0x1 PUSH1 0xE0 SHL SUB NOT SWAP1 SWAP3 AND PUSH1 0x20 SWAP3 DUP4 MUL SWAP2 SWAP1 SWAP2 ADD SWAP1 SWAP2 ADD MSTORE PUSH4 0x56FE50AF PUSH1 0xE1 SHL DUP3 DUP3 PUSH3 0x17F DUP2 PUSH3 0xD1C JUMP JUMPDEST SWAP4 POP DUP2 MLOAD DUP2 LT PUSH3 0x194 JUMPI PUSH3 0x194 PUSH3 0xD41 JUMP JUMPDEST PUSH1 0x1 PUSH1 0x1 PUSH1 0xE0 SHL SUB NOT SWAP1 SWAP3 AND PUSH1 0x20 SWAP3 DUP4 MUL SWAP2 SWAP1 SWAP2 ADD SWAP1 SWAP2 ADD MSTORE PUSH4 0x14BBDACB PUSH1 0xE2 SHL DUP3 DUP3 PUSH3 0x1C2 DUP2 PUSH3 0xD1C JUMP JUMPDEST SWAP4 POP DUP2 MLOAD DUP2 LT PUSH3 0x1D7 JUMPI PUSH3 0x1D7 PUSH3 0xD41 JUMP JUMPDEST PUSH1 0x1 PUSH1 0x1 PUSH1 0xE0 SHL SUB NOT SWAP1 SWAP3 AND PUSH1 0x20 SWAP3 DUP4 MUL SWAP2 SWAP1 SWAP2 ADD SWAP1 SWAP2 ADD MSTORE PUSH4 0x66FFD663 PUSH1 0xE1 SHL DUP3 DUP3 PUSH3 0x205 DUP2 PUSH3 0xD1C JUMP JUMPDEST SWAP4 POP DUP2 MLOAD DUP2 LT PUSH3 0x21A JUMPI PUSH3 0x21A PUSH3 0xD41 JUMP JUMPDEST PUSH1 0x1 PUSH1 0x1 PUSH1 0xE0 SHL SUB NOT SWAP1 SWAP3 AND PUSH1 0x20 SWAP3 DUP4 MUL SWAP2 SWAP1 SWAP2 ADD SWAP1 SWAP2 ADD MSTORE PUSH3 0x247 PUSH4 0x48E2B093 PUSH1 0xE0 SHL PUSH1 0x1 PUSH3 0x477 JUMP JUMPDEST PUSH4 0x1FFC9A7 PUSH1 0xE0 SHL DUP3 DUP3 PUSH3 0x25C DUP2 PUSH3 0xD1C JUMP JUMPDEST SWAP4 POP DUP2 MLOAD DUP2 LT PUSH3 0x271 JUMPI PUSH3 0x271 PUSH3 0xD41 JUMP JUMPDEST PUSH1 0x1 PUSH1 0x1 PUSH1 0xE0 SHL SUB NOT SWAP1 SWAP3 AND PUSH1 0x20 SWAP3 DUP4 MUL SWAP2 SWAP1 SWAP2 ADD SWAP1 SWAP2 ADD MSTORE PUSH3 0x29E PUSH4 0x1FFC9A7 PUSH1 0xE0 SHL PUSH1 0x1 PUSH3 0x477 JUMP JUMPDEST PUSH4 0x8DA5CB5B PUSH1 0xE0 SHL DUP3 DUP3 PUSH3 0x2B3 DUP2 PUSH3 0xD1C JUMP JUMPDEST SWAP4 POP DUP2 MLOAD DUP2 LT PUSH3 0x2C8 JUMPI PUSH3 0x2C8 PUSH3 0xD41 JUMP JUMPDEST PUSH1 0x1 PUSH1 0x1 PUSH1 0xE0 SHL SUB NOT SWAP1 SWAP3 AND PUSH1 0x20 SWAP3 DUP4 MUL SWAP2 SWAP1 SWAP2 ADD SWAP1 SWAP2 ADD MSTORE PUSH4 0x455A8A85 PUSH1 0xE1 SHL DUP3 DUP3 PUSH3 0x2F6 DUP2 PUSH3 0xD1C JUMP JUMPDEST SWAP4 POP DUP2 MLOAD DUP2 LT PUSH3 0x30B JUMPI PUSH3 0x30B PUSH3 0xD41 JUMP JUMPDEST PUSH1 0x1 PUSH1 0x1 PUSH1 0xE0 SHL SUB NOT SWAP1 SWAP3 AND PUSH1 0x20 SWAP3 DUP4 MUL SWAP2 SWAP1 SWAP2 ADD SWAP1 SWAP2 ADD MSTORE PUSH4 0xF2FDE38B PUSH1 0xE0 SHL DUP3 DUP3 PUSH3 0x339 DUP2 PUSH3 0xD1C JUMP JUMPDEST SWAP4 POP DUP2 MLOAD DUP2 LT PUSH3 0x34E JUMPI PUSH3 0x34E PUSH3 0xD41 JUMP JUMPDEST PUSH1 0x1 PUSH1 0x1 PUSH1 0xE0 SHL SUB NOT SWAP1 SWAP3 AND PUSH1 0x20 SWAP3 DUP4 MUL SWAP2 SWAP1 SWAP2 ADD SWAP1 SWAP2 ADD MSTORE PUSH4 0x79BA5097 PUSH1 0xE0 SHL DUP3 DUP3 PUSH3 0x37C DUP2 PUSH3 0xD1C JUMP JUMPDEST SWAP4 POP DUP2 MLOAD DUP2 LT PUSH3 0x391 JUMPI PUSH3 0x391 PUSH3 0xD41 JUMP JUMPDEST PUSH1 0x1 PUSH1 0x1 PUSH1 0xE0 SHL SUB NOT SWAP1 SWAP3 AND PUSH1 0x20 SWAP3 DUP4 MUL SWAP2 SWAP1 SWAP2 ADD SWAP1 SWAP2 ADD MSTORE PUSH3 0x3BE PUSH4 0x7F5828D PUSH1 0xE4 SHL PUSH1 0x1 PUSH3 0x477 JUMP JUMPDEST PUSH1 0x40 DUP1 MLOAD PUSH1 0x1 DUP1 DUP3 MSTORE DUP2 DUP4 ADD SWAP1 SWAP3 MSTORE PUSH0 SWAP2 DUP2 PUSH1 0x20 ADD JUMPDEST PUSH1 0x40 DUP1 MLOAD PUSH1 0x60 DUP1 DUP3 ADD DUP4 MSTORE PUSH0 DUP1 DUP4 MSTORE PUSH1 0x20 DUP4 ADD MSTORE SWAP2 DUP2 ADD SWAP2 SWAP1 SWAP2 MSTORE DUP2 MSTORE PUSH1 0x20 ADD SWAP1 PUSH1 0x1 SWAP1 SUB SWAP1 DUP2 PUSH3 0x3D4 JUMPI SWAP1 POP POP PUSH1 0x40 DUP1 MLOAD PUSH1 0x60 DUP2 ADD SWAP1 SWAP2 MSTORE ADDRESS DUP2 MSTORE SWAP1 SWAP2 POP PUSH1 0x20 DUP2 ADD PUSH0 DUP2 MSTORE PUSH1 0x20 ADD DUP5 DUP2 MSTORE POP DUP2 PUSH0 DUP2 MLOAD DUP2 LT PUSH3 0x437 JUMPI PUSH3 0x437 PUSH3 0xD41 JUMP JUMPDEST PUSH1 0x20 MUL PUSH1 0x20 ADD ADD DUP2 SWAP1 MSTORE POP PUSH3 0x463 DUP2 PUSH0 PUSH1 0x40 MLOAD DUP1 PUSH1 0x20 ADD PUSH1 0x40 MSTORE DUP1 PUSH0 DUP2 MSTORE POP PUSH3 0x4ED PUSH1 0x20 SHL PUSH1 0x20 SHR JUMP JUMPDEST PUSH3 0x46E CALLER PUSH3 0x6E6 JUMP JUMPDEST POP POP POP PUSH3 0xEDC JUMP JUMPDEST PUSH1 0x1 PUSH1 0x1 PUSH1 0xE0 SHL SUB NOT DUP1 DUP4 AND SWAP1 SUB PUSH3 0x4A3 JUMPI PUSH1 0x40 MLOAD PUSH4 0xB0A19DD5 PUSH1 0xE0 SHL DUP2 MSTORE PUSH1 0x4 ADD PUSH1 0x40 MLOAD DUP1 SWAP2 SUB SWAP1 REVERT JUMPDEST PUSH1 0x1 PUSH1 0x1 PUSH1 0xE0 SHL SUB NOT SWAP2 SWAP1 SWAP2 AND PUSH0 SWAP1 DUP2 MSTORE PUSH32 0xFC606C433378E3A7E0A6A531DEAC289B66CAA1B4AA8554FD4AB2C6F1570F92D8 PUSH1 0x20 MSTORE PUSH1 0x40 SWAP1 KECCAK256 DUP1 SLOAD PUSH1 0xFF NOT AND SWAP2 ISZERO ISZERO SWAP2 SWAP1 SWAP2 OR SWAP1 SSTORE JUMP JUMPDEST PUSH32 0x177481AC65E4292921C69F62D1CC7F57541261E5D61C8175CF4E36A01C9BFC94 SLOAD PUSH32 0x177481AC65E4292921C69F62D1CC7F57541261E5D61C8175CF4E36A01C9BFC93 SWAP1 PUSH2 0xFFFF DUP2 AND SWAP1 DUP2 SWAP1 PUSH0 SWAP1 PUSH1 0x7 AND ISZERO PUSH3 0x55B JUMPI POP PUSH1 0x3 DUP2 SWAP1 SHR PUSH0 SWAP1 DUP2 MSTORE PUSH1 0x2 DUP5 ADD PUSH1 0x20 MSTORE PUSH1 0x40 SWAP1 KECCAK256 SLOAD JUMPDEST PUSH0 JUMPDEST DUP8 MLOAD DUP2 LT ISZERO PUSH3 0x655 JUMPI PUSH0 DUP9 DUP3 DUP2 MLOAD DUP2 LT PUSH3 0x57D JUMPI PUSH3 0x57D PUSH3 0xD41 JUMP JUMPDEST PUSH1 0x20 MUL PUSH1 0x20 ADD ADD MLOAD SWAP1 POP PUSH0 DUP2 PUSH1 0x20 ADD MLOAD SWAP1 POP DUP2 PUSH1 0x40 ADD MLOAD MLOAD PUSH0 SUB PUSH3 0x5B5 JUMPI PUSH1 0x40 MLOAD PUSH4 0xEB6C3AEB PUSH1 0xE0 SHL DUP2 MSTORE PUSH1 0x4 ADD PUSH1 0x40 MLOAD DUP1 SWAP2 SUB SWAP1 REVERT JUMPDEST PUSH0 DUP2 PUSH1 0x2 DUP2 GT ISZERO PUSH3 0x5CB JUMPI PUSH3 0x5CB PUSH3 0xD55 JUMP JUMPDEST SUB PUSH3 0x5EA JUMPI PUSH3 0x5DF DUP8 DUP7 DUP7 DUP6 PUSH3 0x75F JUMP JUMPDEST SWAP1 SWAP6 POP SWAP4 POP PUSH3 0x64A JUMP JUMPDEST PUSH1 0x1 DUP2 PUSH1 0x2 DUP2 GT ISZERO PUSH3 0x601 JUMPI PUSH3 0x601 PUSH3 0xD55 JUMP JUMPDEST SUB PUSH3 0x619 JUMPI PUSH3 0x613 DUP8 DUP4 PUSH3 0x8CE JUMP JUMPDEST PUSH3 0x64A JUMP JUMPDEST PUSH1 0x2 DUP2 PUSH1 0x2 DUP2 GT ISZERO PUSH3 0x630 JUMPI PUSH3 0x630 PUSH3 0xD55 JUMP JUMPDEST SUB PUSH3 0x64A JUMPI PUSH3 0x644 DUP8 DUP7 DUP7 DUP6 PUSH3 0xA18 JUMP JUMPDEST SWAP1 SWAP6 POP SWAP4 POP JUMPDEST POP POP PUSH1 0x1 ADD PUSH3 0x55D JUMP JUMPDEST POP DUP3 DUP3 EQ PUSH3 0x672 JUMPI PUSH1 0x1 DUP5 ADD DUP1 SLOAD PUSH2 0xFFFF NOT AND PUSH2 0xFFFF DUP5 AND OR SWAP1 SSTORE JUMPDEST PUSH1 0x7 DUP3 AND ISZERO PUSH3 0x694 JUMPI PUSH1 0x3 DUP3 SWAP1 SHR PUSH0 SWAP1 DUP2 MSTORE PUSH1 0x2 DUP6 ADD PUSH1 0x20 MSTORE PUSH1 0x40 SWAP1 KECCAK256 DUP2 SWAP1 SSTORE JUMPDEST PUSH32 0x8FAA70878671CCD212D20771B795C50AF8FD3FF6CF27F4BDE57E5D4DE0AEB673 DUP8 DUP8 DUP8 PUSH1 0x40 MLOAD PUSH3 0x6C9 SWAP4 SWAP3 SWAP2 SWAP1 PUSH3 0xDBA JUMP JUMPDEST PUSH1 0x40 MLOAD DUP1 SWAP2 SUB SWAP1 LOG1 PUSH3 0x6DD DUP7 DUP7 PUSH3 0xC35 JUMP JUMPDEST POP POP POP POP POP POP POP JUMP JUMPDEST PUSH32 0x8A22373512790C48B83A1FE2EFDD2888D4A917BCDC24D0ADF63E60F671680460 DUP1 SLOAD PUSH1 0x40 MLOAD PUSH1 0x1 PUSH1 0x1 PUSH1 0xA0 SHL SUB DUP5 DUP2 AND SWAP3 AND SWAP1 PUSH32 0x8BE0079C531659141344CD1FD0A4F28419497F9722A3DAAFE3B4186F6B6457E0 SWAP1 PUSH0 SWAP1 LOG3 DUP1 SLOAD PUSH1 0x1 PUSH1 0x1 PUSH1 0xA0 SHL SUB NOT AND PUSH1 0x1 PUSH1 0x1 PUSH1 0xA0 SHL SUB SWAP3 SWAP1 SWAP3 AND SWAP2 SWAP1 SWAP2 OR SWAP1 SSTORE JUMP JUMPDEST DUP1 MLOAD PUSH0 SWAP1 DUP2 SWAP1 PUSH1 0x1 PUSH1 0x1 PUSH1 0xA0 SHL SUB AND EXTCODESIZE ISZERO PUSH3 0x7A8 JUMPI DUP3 MLOAD ADDRESS PUSH1 0x1 PUSH1 0x1 PUSH1 0xA0 SHL SUB SWAP1 SWAP2 AND SUB PUSH3 0x7A2 JUMPI PUSH1 0x40 MLOAD PUSH4 0xE9835731 PUSH1 0xE0 SHL DUP2 MSTORE PUSH1 0x4 ADD PUSH1 0x40 MLOAD DUP1 SWAP2 SUB SWAP1 REVERT JUMPDEST PUSH3 0x7D3 JUMP JUMPDEST DUP3 MLOAD PUSH1 0x1 PUSH1 0x1 PUSH1 0xA0 SHL SUB AND ADDRESS EQ PUSH3 0x7D3 JUMPI PUSH1 0x40 MLOAD PUSH4 0x3DDC5CAB PUSH1 0xE2 SHL DUP2 MSTORE PUSH1 0x4 ADD PUSH1 0x40 MLOAD DUP1 SWAP2 SUB SWAP1 REVERT JUMPDEST PUSH0 JUMPDEST DUP4 PUSH1 0x40 ADD MLOAD MLOAD DUP2 LT ISZERO PUSH3 0x8C1 JUMPI PUSH0 DUP5 PUSH1 0x40 ADD MLOAD DUP3 DUP2 MLOAD DUP2 LT PUSH3 0x7FD JUMPI PUSH3 0x7FD PUSH3 0xD41 JUMP JUMPDEST PUSH1 0x20 SWAP1 DUP2 MUL SWAP2 SWAP1 SWAP2 ADD DUP2 ADD MLOAD PUSH1 0x1 PUSH1 0x1 PUSH1 0xE0 SHL SUB NOT DUP2 AND PUSH0 SWAP1 DUP2 MSTORE SWAP2 DUP11 SWAP1 MSTORE PUSH1 0x40 SWAP1 SWAP2 KECCAK256 SLOAD SWAP1 SWAP2 POP PUSH1 0x60 DUP2 SWAP1 SHR ISZERO PUSH3 0x849 JUMPI PUSH1 0x40 MLOAD PUSH4 0x4923A771 PUSH1 0xE1 SHL DUP2 MSTORE PUSH1 0x4 ADD PUSH1 0x40 MLOAD DUP1 SWAP2 SUB SWAP1 REVERT JUMPDEST DUP6 MLOAD PUSH1 0x1 PUSH1 0x1 PUSH1 0xE0 SHL SUB NOT DUP4 DUP2 AND PUSH0 DUP2 DUP2 MSTORE PUSH1 0x20 DUP14 SWAP1 MSTORE PUSH1 0x40 SWAP1 KECCAK256 PUSH1 0x60 SWAP4 SWAP1 SWAP4 SHL PUSH1 0x1 PUSH1 0x1 PUSH1 0x60 SHL SUB NOT AND DUP12 OR SWAP1 SWAP3 SSTORE PUSH1 0x5 DUP11 SWAP1 SHL PUSH1 0xE0 SWAP1 DUP2 AND SWAP3 DUP4 SHR SWAP2 DUP4 SHR NOT SWAP10 SWAP1 SWAP10 AND OR SWAP8 DUP2 SWAP1 SUB PUSH3 0x8B1 JUMPI PUSH1 0x3 DUP10 SWAP1 SHR PUSH0 SWAP1 DUP2 MSTORE PUSH1 0x2 DUP12 ADD PUSH1 0x20 MSTORE PUSH1 0x40 DUP2 KECCAK256 SWAP9 SWAP1 SWAP9 SSTORE JUMPDEST POP POP POP PUSH1 0x1 SWAP6 DUP7 ADD SWAP6 ADD PUSH3 0x7D5 JUMP JUMPDEST POP SWAP4 SWAP6 SWAP3 SWAP5 POP SWAP2 SWAP3 POP POP POP JUMP JUMPDEST DUP1 MLOAD PUSH1 0x1 PUSH1 0x1 PUSH1 0xA0 SHL SUB AND EXTCODESIZE PUSH3 0x8F8 JUMPI PUSH1 0x40 MLOAD PUSH4 0x3DDC5CAB PUSH1 0xE2 SHL DUP2 MSTORE PUSH1 0x4 ADD PUSH1 0x40 MLOAD DUP1 SWAP2 SUB SWAP1 REVERT JUMPDEST PUSH0 JUMPDEST DUP2 PUSH1 0x40 ADD MLOAD MLOAD DUP2 LT ISZERO PUSH3 0xA13 JUMPI PUSH0 DUP3 PUSH1 0x40 ADD MLOAD DUP3 DUP2 MLOAD DUP2 LT PUSH3 0x922 JUMPI PUSH3 0x922 PUSH3 0xD41 JUMP JUMPDEST PUSH1 0x20 SWAP1 DUP2 MUL SWAP2 SWAP1 SWAP2 ADD DUP2 ADD MLOAD PUSH1 0x1 PUSH1 0x1 PUSH1 0xE0 SHL SUB NOT DUP2 AND PUSH0 SWAP1 DUP2 MSTORE SWAP2 DUP7 SWAP1 MSTORE PUSH1 0x40 SWAP1 SWAP2 KECCAK256 SLOAD SWAP1 SWAP2 POP PUSH1 0x60 DUP2 SWAP1 SHR DUP1 PUSH3 0x96E JUMPI PUSH1 0x40 MLOAD PUSH4 0x37E25A97 PUSH1 0xE1 SHL DUP2 MSTORE PUSH1 0x4 ADD PUSH1 0x40 MLOAD DUP1 SWAP2 SUB SWAP1 REVERT JUMPDEST ADDRESS PUSH1 0x1 PUSH1 0x1 PUSH1 0xA0 SHL SUB DUP3 AND SUB PUSH3 0x998 JUMPI PUSH1 0x40 MLOAD PUSH4 0xE9835731 PUSH1 0xE0 SHL DUP2 MSTORE PUSH1 0x4 ADD PUSH1 0x40 MLOAD DUP1 SWAP2 SUB SWAP1 REVERT JUMPDEST DUP5 PUSH0 ADD MLOAD PUSH1 0x1 PUSH1 0x1 PUSH1 0xA0 SHL SUB AND DUP2 PUSH1 0x1 PUSH1 0x1 PUSH1 0xA0 SHL SUB AND SUB PUSH3 0x9CE JUMPI PUSH1 0x40 MLOAD PUSH4 0x30BAABF3 PUSH1 0xE1 SHL DUP2 MSTORE PUSH1 0x4 ADD PUSH1 0x40 MLOAD DUP1 SWAP2 SUB SWAP1 REVERT JUMPDEST POP DUP4 MLOAD PUSH1 0x1 PUSH1 0x1 PUSH1 0xE0 SHL SUB NOT SWAP3 SWAP1 SWAP3 AND PUSH0 SWAP1 DUP2 MSTORE PUSH1 0x20 DUP7 SWAP1 MSTORE PUSH1 0x40 SWAP1 KECCAK256 PUSH1 0x60 SWAP3 SWAP1 SWAP3 SHL PUSH1 0x1 PUSH1 0x1 PUSH1 0x60 SHL SUB NOT AND PUSH1 0x1 PUSH1 0x1 PUSH1 0x60 SHL SUB SWAP2 SWAP1 SWAP2 AND OR SWAP1 SSTORE PUSH1 0x1 ADD PUSH3 0x8FA JUMP JUMPDEST POP POP POP JUMP JUMPDEST DUP1 MLOAD PUSH0 SWAP1 DUP2 SWAP1 PUSH1 0x1 PUSH1 0x1 PUSH1 0xA0 SHL SUB AND ISZERO PUSH3 0xA46 JUMPI PUSH1 0x40 MLOAD PUSH4 0x3AB34909 PUSH1 0xE2 SHL DUP2 MSTORE PUSH1 0x4 ADD PUSH1 0x40 MLOAD DUP1 SWAP2 SUB SWAP1 REVERT JUMPDEST PUSH1 0x3 DUP6 SWAP1 SHR PUSH1 0x7 DUP7 AND PUSH0 JUMPDEST DUP6 PUSH1 0x40 ADD MLOAD MLOAD DUP2 LT ISZERO PUSH3 0xC21 JUMPI PUSH0 DUP7 PUSH1 0x40 ADD MLOAD DUP3 DUP2 MLOAD DUP2 LT PUSH3 0xA79 JUMPI PUSH3 0xA79 PUSH3 0xD41 JUMP JUMPDEST PUSH1 0x20 SWAP1 DUP2 MUL SWAP2 SWAP1 SWAP2 ADD DUP2 ADD MLOAD PUSH1 0x1 PUSH1 0x1 PUSH1 0xE0 SHL SUB NOT DUP2 AND PUSH0 SWAP1 DUP2 MSTORE SWAP2 DUP13 SWAP1 MSTORE PUSH1 0x40 SWAP1 SWAP2 KECCAK256 SLOAD SWAP1 SWAP2 POP PUSH1 0x60 DUP2 SWAP1 SHR PUSH3 0xAC4 JUMPI PUSH1 0x40 MLOAD PUSH4 0x37E25A97 PUSH1 0xE1 SHL DUP2 MSTORE PUSH1 0x4 ADD PUSH1 0x40 MLOAD DUP1 SWAP2 SUB SWAP1 REVERT JUMPDEST ADDRESS PUSH1 0x60 DUP3 SWAP1 SHR SUB PUSH3 0xAE9 JUMPI PUSH1 0x40 MLOAD PUSH4 0xE9835731 PUSH1 0xE0 SHL DUP2 MSTORE PUSH1 0x4 ADD PUSH1 0x40 MLOAD DUP1 SWAP2 SUB SWAP1 REVERT JUMPDEST PUSH0 DUP10 SWAP1 SUB PUSH3 0xB14 JUMPI PUSH0 NOT SWAP1 SWAP5 ADD PUSH0 DUP2 DUP2 MSTORE PUSH1 0x2 DUP13 ADD PUSH1 0x20 MSTORE PUSH1 0x40 SWAP1 KECCAK256 SLOAD SWAP9 POP SWAP4 PUSH1 0x7 SWAP4 POP PUSH3 0xB1B JUMP JUMPDEST PUSH0 NOT SWAP1 SWAP4 ADD SWAP3 JUMPDEST PUSH1 0x5 DUP5 SWAP1 SHL DUP10 SWAP1 SHL PUSH0 DUP1 PUSH1 0x1 PUSH1 0x1 PUSH1 0xE0 SHL SUB NOT DUP1 DUP5 AND SWAP1 DUP7 AND EQ PUSH3 0xB6C JUMPI PUSH1 0x1 PUSH1 0x1 PUSH1 0xE0 SHL SUB NOT DUP4 AND PUSH0 SWAP1 DUP2 MSTORE PUSH1 0x20 DUP16 SWAP1 MSTORE PUSH1 0x40 SWAP1 KECCAK256 DUP1 SLOAD PUSH1 0x1 PUSH1 0x1 PUSH1 0x60 SHL SUB NOT AND PUSH1 0x1 PUSH1 0x1 PUSH1 0x60 SHL SUB DUP7 AND OR SWAP1 SSTORE JUMPDEST POP POP PUSH1 0x1 PUSH1 0x1 PUSH1 0xE0 SHL SUB NOT DUP4 AND PUSH0 SWAP1 DUP2 MSTORE PUSH1 0x20 DUP14 SWAP1 MSTORE PUSH1 0x40 DUP2 KECCAK256 SSTORE PUSH2 0x1FFF PUSH1 0x3 DUP4 SWAP1 SHR AND PUSH1 0xE0 PUSH1 0x5 DUP5 SWAP1 SHL AND DUP8 DUP3 EQ PUSH3 0xBCF JUMPI PUSH0 DUP3 DUP2 MSTORE PUSH1 0x2 DUP16 ADD PUSH1 0x20 MSTORE PUSH1 0x40 SWAP1 KECCAK256 DUP1 SLOAD PUSH1 0x1 PUSH1 0x1 PUSH1 0xE0 SHL SUB NOT DUP1 DUP5 SHR NOT SWAP1 SWAP2 AND SWAP1 DUP6 AND DUP4 SHR OR SWAP1 SSTORE PUSH3 0xBF2 JUMP JUMPDEST DUP1 DUP4 PUSH1 0x1 PUSH1 0x1 PUSH1 0xE0 SHL SUB NOT AND SWAP1 SHR DUP2 PUSH1 0x1 PUSH1 0x1 PUSH1 0xE0 SHL SUB NOT PUSH0 SHL SWAP1 SHR NOT DUP14 AND OR SWAP12 POP JUMPDEST DUP7 PUSH0 SUB PUSH3 0xC0F JUMPI PUSH0 DUP9 DUP2 MSTORE PUSH1 0x2 DUP16 ADD PUSH1 0x20 MSTORE PUSH1 0x40 DUP2 KECCAK256 DUP2 SWAP1 SSTORE SWAP12 POP JUMPDEST POP POP PUSH1 0x1 SWAP1 SWAP4 ADD SWAP3 POP PUSH3 0xA51 SWAP2 POP POP JUMP JUMPDEST POP PUSH1 0x3 SWAP2 SWAP1 SWAP2 SHL OR SWAP7 SWAP4 SWAP6 POP SWAP3 SWAP4 POP POP POP POP JUMP JUMPDEST DUP1 MLOAD ISZERO PUSH1 0x1 PUSH1 0x1 PUSH1 0xA0 SHL SUB DUP4 AND ISZERO EQ PUSH3 0xC62 JUMPI PUSH1 0x40 MLOAD PUSH4 0x26DF4CCD PUSH1 0xE0 SHL DUP2 MSTORE PUSH1 0x4 ADD PUSH1 0x40 MLOAD DUP1 SWAP2 SUB SWAP1 REVERT JUMPDEST PUSH1 0x1 PUSH1 0x1 PUSH1 0xA0 SHL SUB DUP3 AND ISZERO PUSH3 0xD18 JUMPI PUSH1 0x1 PUSH1 0x1 PUSH1 0xA0 SHL SUB DUP3 AND ADDRESS EQ PUSH3 0xCAC JUMPI PUSH1 0x1 PUSH1 0x1 PUSH1 0xA0 SHL SUB DUP3 AND EXTCODESIZE PUSH3 0xCAC JUMPI PUSH1 0x40 MLOAD PUSH4 0x3DDC5CAB PUSH1 0xE2 SHL DUP2 MSTORE PUSH1 0x4 ADD PUSH1 0x40 MLOAD DUP1 SWAP2 SUB SWAP1 REVERT JUMPDEST PUSH0 DUP3 PUSH1 0x1 PUSH1 0x1 PUSH1 0xA0 SHL SUB AND DUP3 PUSH1 0x40 MLOAD PUSH3 0xCC7 SWAP2 SWAP1 PUSH3 0xEBF JUMP JUMPDEST PUSH0 PUSH1 0x40 MLOAD DUP1 DUP4 SUB DUP2 DUP6 GAS DELEGATECALL SWAP2 POP POP RETURNDATASIZE DUP1 PUSH0 DUP2 EQ PUSH3 0xD01 JUMPI PUSH1 0x40 MLOAD SWAP2 POP PUSH1 0x1F NOT PUSH1 0x3F RETURNDATASIZE ADD AND DUP3 ADD PUSH1 0x40 MSTORE RETURNDATASIZE DUP3 MSTORE RETURNDATASIZE PUSH0 PUSH1 0x20 DUP5 ADD RETURNDATACOPY PUSH3 0xD06 JUMP JUMPDEST PUSH1 0x60 SWAP2 POP JUMPDEST POP POP SWAP1 POP DUP1 PUSH3 0xA13 JUMPI RETURNDATASIZE PUSH0 DUP1 RETURNDATACOPY RETURNDATASIZE PUSH0 REVERT JUMPDEST POP POP JUMP JUMPDEST PUSH0 PUSH1 0x1 DUP3 ADD PUSH3 0xD3A JUMPI PUSH4 0x4E487B71 PUSH1 0xE0 SHL PUSH0 MSTORE PUSH1 0x11 PUSH1 0x4 MSTORE PUSH1 0x24 PUSH0 REVERT JUMPDEST POP PUSH1 0x1 ADD SWAP1 JUMP JUMPDEST PUSH4 0x4E487B71 PUSH1 0xE0 SHL PUSH0 MSTORE PUSH1 0x32 PUSH1 0x4 MSTORE PUSH1 0x24 PUSH0 REVERT JUMPDEST PUSH4 0x4E487B71 PUSH1 0xE0 SHL PUSH0 MSTORE PUSH1 0x21 PUSH1 0x4 MSTORE PUSH1 0x24 PUSH0 REVERT JUMPDEST PUSH0 JUMPDEST DUP4 DUP2 LT ISZERO PUSH3 0xD85 JUMPI DUP2 DUP2 ADD MLOAD DUP4 DUP3 ADD MSTORE PUSH1 0x20 ADD PUSH3 0xD6B JUMP JUMPDEST POP POP PUSH0 SWAP2 ADD MSTORE JUMP JUMPDEST PUSH0 DUP2 MLOAD DUP1 DUP5 MSTORE PUSH3 0xDA6 DUP2 PUSH1 0x20 DUP7 ADD PUSH1 0x20 DUP7 ADD PUSH3 0xD69 JUMP JUMPDEST PUSH1 0x1F ADD PUSH1 0x1F NOT AND SWAP3 SWAP1 SWAP3 ADD PUSH1 0x20 ADD SWAP3 SWAP2 POP POP JUMP JUMPDEST PUSH0 PUSH1 0x60 DUP1 DUP4 ADD PUSH1 0x60 DUP5 MSTORE DUP1 DUP8 MLOAD DUP1 DUP4 MSTORE PUSH1 0x80 SWAP3 POP PUSH1 0x80 DUP7 ADD SWAP2 POP PUSH1 0x80 DUP2 PUSH1 0x5 SHL DUP8 ADD ADD PUSH1 0x20 DUP1 DUP12 ADD PUSH0 JUMPDEST DUP5 DUP2 LT ISZERO PUSH3 0xE8D JUMPI DUP10 DUP5 SUB PUSH1 0x7F NOT ADD DUP7 MSTORE DUP2 MLOAD DUP1 MLOAD PUSH1 0x1 PUSH1 0x1 PUSH1 0xA0 SHL SUB AND DUP6 MSTORE DUP4 DUP2 ADD MLOAD DUP10 DUP7 ADD SWAP1 PUSH1 0x3 DUP2 LT PUSH3 0xE2A JUMPI PUSH4 0x4E487B71 PUSH1 0xE0 SHL PUSH0 MSTORE PUSH1 0x21 PUSH1 0x4 MSTORE PUSH1 0x24 PUSH0 REVERT JUMPDEST DUP7 DUP7 ADD MSTORE PUSH1 0x40 SWAP2 DUP3 ADD MLOAD SWAP2 DUP7 ADD DUP11 SWAP1 MSTORE DUP2 MLOAD SWAP1 DUP2 SWAP1 MSTORE SWAP1 DUP5 ADD SWAP1 PUSH0 SWAP1 DUP10 DUP8 ADD SWAP1 JUMPDEST DUP1 DUP4 LT ISZERO PUSH3 0xE77 JUMPI DUP4 MLOAD PUSH1 0x1 PUSH1 0x1 PUSH1 0xE0 SHL SUB NOT AND DUP3 MSTORE SWAP3 DUP7 ADD SWAP3 PUSH1 0x1 SWAP3 SWAP1 SWAP3 ADD SWAP2 SWAP1 DUP7 ADD SWAP1 PUSH3 0xE4B JUMP JUMPDEST POP SWAP8 DUP6 ADD SWAP8 SWAP6 POP POP POP SWAP1 DUP3 ADD SWAP1 PUSH1 0x1 ADD PUSH3 0xDE4 JUMP JUMPDEST POP POP PUSH1 0x1 PUSH1 0x1 PUSH1 0xA0 SHL SUB DUP11 AND SWAP1 DUP9 ADD MSTORE DUP7 DUP2 SUB PUSH1 0x40 DUP9 ADD MSTORE PUSH3 0xEB1 DUP2 DUP10 PUSH3 0xD8D JUMP JUMPDEST SWAP11 SWAP10 POP POP POP POP POP POP POP POP POP POP JUMP JUMPDEST PUSH0 DUP3 MLOAD PUSH3 0xED2 DUP2 DUP5 PUSH1 0x20 DUP8 ADD PUSH3 0xD69 JUMP JUMPDEST SWAP2 SWAP1 SWAP2 ADD SWAP3 SWAP2 POP POP JUMP JUMPDEST PUSH2 0x1CDC DUP1 PUSH3 0xEEA PUSH0 CODECOPY PUSH0 RETURN INVALID PUSH1 0x80 PUSH1 0x40 MSTORE PUSH1 0x4 CALLDATASIZE LT PUSH2 0xCA JUMPI PUSH0 CALLDATALOAD PUSH1 0xE0 SHR DUP1 PUSH4 0x8AB5150A GT PUSH2 0x73 JUMPI DUP1 PUSH4 0xADFCA15E GT PUSH2 0x4D JUMPI DUP1 PUSH4 0xADFCA15E EQ PUSH2 0x259 JUMPI DUP1 PUSH4 0xCDFFACC6 EQ PUSH2 0x285 JUMPI DUP1 PUSH4 0xF2FDE38B EQ PUSH2 0x2A4 JUMPI PUSH2 0xD1 JUMP JUMPDEST DUP1 PUSH4 0x8AB5150A EQ PUSH2 0x212 JUMPI DUP1 PUSH4 0x8DA5CB5B EQ PUSH2 0x226 JUMPI DUP1 PUSH4 0x91423765 EQ PUSH2 0x23A JUMPI PUSH2 0xD1 JUMP JUMPDEST DUP1 PUSH4 0x52EF6B2C GT PUSH2 0xA4 JUMPI DUP1 PUSH4 0x52EF6B2C EQ PUSH2 0x1BC JUMPI DUP1 PUSH4 0x79BA5097 EQ PUSH2 0x1DD JUMPI DUP1 PUSH4 0x7A0ED627 EQ PUSH2 0x1F1 JUMPI PUSH2 0xD1 JUMP JUMPDEST DUP1 PUSH4 0x1FFC9A7 EQ PUSH2 0x13D JUMPI DUP1 PUSH4 0x1F931C1C EQ PUSH2 0x171 JUMPI DUP1 PUSH4 0x2C408059 EQ PUSH2 0x190 JUMPI PUSH2 0xD1 JUMP JUMPDEST CALLDATASIZE PUSH2 0xD1 JUMPI STOP JUMPDEST PUSH0 PUSH2 0xDA PUSH2 0x2C3 JUMP JUMPDEST SWAP1 POP PUSH1 0x1 PUSH1 0x1 PUSH1 0xA0 SHL SUB DUP2 AND EXTCODESIZE PUSH2 0x11D JUMPI PUSH1 0x40 MLOAD PUSH32 0x87C9FC3400000000000000000000000000000000000000000000000000000000 DUP2 MSTORE PUSH1 0x4 ADD PUSH1 0x40 MLOAD DUP1 SWAP2 SUB SWAP1 REVERT JUMPDEST CALLDATASIZE PUSH0 DUP1 CALLDATACOPY PUSH0 DUP1 CALLDATASIZE PUSH0 DUP5 GAS DELEGATECALL RETURNDATASIZE PUSH0 DUP1 RETURNDATACOPY DUP1 DUP1 ISZERO PUSH2 0x137 JUMPI RETURNDATASIZE PUSH0 RETURN JUMPDEST RETURNDATASIZE PUSH0 REVERT JUMPDEST STOP JUMPDEST CALLVALUE DUP1 ISZERO PUSH2 0x148 JUMPI PUSH0 DUP1 REVERT JUMPDEST POP PUSH2 0x15C PUSH2 0x157 CALLDATASIZE PUSH1 0x4 PUSH2 0x16C6 JUMP JUMPDEST PUSH2 0x2D1 JUMP JUMPDEST PUSH1 0x40 MLOAD SWAP1 ISZERO ISZERO DUP2 MSTORE PUSH1 0x20 ADD JUMPDEST PUSH1 0x40 MLOAD DUP1 SWAP2 SUB SWAP1 RETURN JUMPDEST CALLVALUE DUP1 ISZERO PUSH2 0x17C JUMPI PUSH0 DUP1 REVERT JUMPDEST POP PUSH2 0x13B PUSH2 0x18B CALLDATASIZE PUSH1 0x4 PUSH2 0x1741 JUMP JUMPDEST PUSH2 0x313 JUMP JUMPDEST CALLVALUE DUP1 ISZERO PUSH2 0x19B JUMPI PUSH0 DUP1 REVERT JUMPDEST POP PUSH2 0x1A4 PUSH2 0x39C JUMP JUMPDEST PUSH1 0x40 MLOAD PUSH1 0x1 PUSH1 0x1 PUSH1 0xA0 SHL SUB SWAP1 SWAP2 AND DUP2 MSTORE PUSH1 0x20 ADD PUSH2 0x168 JUMP JUMPDEST CALLVALUE DUP1 ISZERO PUSH2 0x1C7 JUMPI PUSH0 DUP1 REVERT JUMPDEST POP PUSH2 0x1D0 PUSH2 0x3CE JUMP JUMPDEST PUSH1 0x40 MLOAD PUSH2 0x168 SWAP2 SWAP1 PUSH2 0x17EA JUMP JUMPDEST CALLVALUE DUP1 ISZERO PUSH2 0x1E8 JUMPI PUSH0 DUP1 REVERT JUMPDEST POP PUSH2 0x13B PUSH2 0x3D8 JUMP JUMPDEST CALLVALUE DUP1 ISZERO PUSH2 0x1FC JUMPI PUSH0 DUP1 REVERT JUMPDEST POP PUSH2 0x205 PUSH2 0x434 JUMP JUMPDEST PUSH1 0x40 MLOAD PUSH2 0x168 SWAP2 SWAP1 PUSH2 0x187A JUMP JUMPDEST CALLVALUE DUP1 ISZERO PUSH2 0x21D JUMPI PUSH0 DUP1 REVERT JUMPDEST POP PUSH2 0x1A4 PUSH2 0x43E JUMP JUMPDEST CALLVALUE DUP1 ISZERO PUSH2 0x231 JUMPI PUSH0 DUP1 REVERT JUMPDEST POP PUSH2 0x1A4 PUSH2 0x447 JUMP JUMPDEST CALLVALUE DUP1 ISZERO PUSH2 0x245 JUMPI PUSH0 DUP1 REVERT JUMPDEST POP PUSH2 0x13B PUSH2 0x254 CALLDATASIZE PUSH1 0x4 PUSH2 0x18F7 JUMP JUMPDEST PUSH2 0x450 JUMP JUMPDEST CALLVALUE DUP1 ISZERO PUSH2 0x264 JUMPI PUSH0 DUP1 REVERT JUMPDEST POP PUSH2 0x278 PUSH2 0x273 CALLDATASIZE PUSH1 0x4 PUSH2 0x18F7 JUMP JUMPDEST PUSH2 0x4D6 JUMP JUMPDEST PUSH1 0x40 MLOAD PUSH2 0x168 SWAP2 SWAP1 PUSH2 0x1910 JUMP JUMPDEST CALLVALUE DUP1 ISZERO PUSH2 0x290 JUMPI PUSH0 DUP1 REVERT JUMPDEST POP PUSH2 0x1A4 PUSH2 0x29F CALLDATASIZE PUSH1 0x4 PUSH2 0x16C6 JUMP JUMPDEST PUSH2 0x4E1 JUMP JUMPDEST CALLVALUE DUP1 ISZERO PUSH2 0x2AF JUMPI PUSH0 DUP1 REVERT JUMPDEST POP PUSH2 0x13B PUSH2 0x2BE CALLDATASIZE PUSH1 0x4 PUSH2 0x18F7 JUMP JUMPDEST PUSH2 0x521 JUMP JUMPDEST PUSH0 PUSH2 0x2CC PUSH2 0x563 JUMP JUMPDEST SWAP1 POP SWAP1 JUMP JUMPDEST PUSH1 0x1 PUSH1 0x1 PUSH1 0xE0 SHL SUB NOT DUP2 AND PUSH0 SWAP1 DUP2 MSTORE PUSH32 0xFC606C433378E3A7E0A6A531DEAC289B66CAA1B4AA8554FD4AB2C6F1570F92D8 PUSH1 0x20 MSTORE PUSH1 0x40 DUP2 KECCAK256 SLOAD PUSH1 0xFF AND JUMPDEST SWAP3 SWAP2 POP POP JUMP JUMPDEST PUSH2 0x31B PUSH2 0x5D5 JUMP JUMPDEST PUSH1 0x1 PUSH1 0x1 PUSH1 0xA0 SHL SUB AND CALLER PUSH1 0x1 PUSH1 0x1 PUSH1 0xA0 SHL SUB AND EQ PUSH2 0x34C JUMPI PUSH1 0x40 MLOAD PUSH4 0x2F7A8EE1 PUSH1 0xE0 SHL DUP2 MSTORE PUSH1 0x4 ADD PUSH1 0x40 MLOAD DUP1 SWAP2 SUB SWAP1 REVERT JUMPDEST PUSH2 0x395 PUSH2 0x359 DUP6 DUP8 PUSH2 0x19E2 JUMP JUMPDEST DUP5 DUP5 DUP5 DUP1 DUP1 PUSH1 0x1F ADD PUSH1 0x20 DUP1 SWAP2 DIV MUL PUSH1 0x20 ADD PUSH1 0x40 MLOAD SWAP1 DUP2 ADD PUSH1 0x40 MSTORE DUP1 SWAP4 SWAP3 SWAP2 SWAP1 DUP2 DUP2 MSTORE PUSH1 0x20 ADD DUP4 DUP4 DUP1 DUP3 DUP5 CALLDATACOPY PUSH0 SWAP3 ADD SWAP2 SWAP1 SWAP2 MSTORE POP PUSH2 0x607 SWAP3 POP POP POP JUMP JUMPDEST POP POP POP POP POP JUMP JUMPDEST PUSH0 PUSH2 0x2CC PUSH32 0x177481AC65E4292921C69F62D1CC7F57541261E5D61C8175CF4E36A01C9BFC96 SLOAD PUSH1 0x1 PUSH1 0x1 PUSH1 0xA0 SHL SUB AND SWAP1 JUMP JUMPDEST PUSH1 0x60 PUSH2 0x2CC PUSH2 0x7F8 JUMP JUMPDEST PUSH2 0x3E0 PUSH2 0x9B6 JUMP JUMPDEST PUSH1 0x1 PUSH1 0x1 PUSH1 0xA0 SHL SUB AND CALLER PUSH1 0x1 PUSH1 0x1 PUSH1 0xA0 SHL SUB AND EQ PUSH2 0x42A JUMPI PUSH1 0x40 MLOAD PUSH32 0xEFD1052D00000000000000000000000000000000000000000000000000000000 DUP2 MSTORE PUSH1 0x4 ADD PUSH1 0x40 MLOAD DUP1 SWAP2 SUB SWAP1 REVERT JUMPDEST PUSH2 0x432 PUSH2 0x9DD JUMP JUMPDEST JUMP JUMPDEST PUSH1 0x60 PUSH2 0x2CC PUSH2 0xA24 JUMP JUMPDEST PUSH0 PUSH2 0x2CC PUSH2 0x9B6 JUMP JUMPDEST PUSH0 PUSH2 0x2CC PUSH2 0x5D5 JUMP JUMPDEST PUSH2 0x458 PUSH2 0x5D5 JUMP JUMPDEST PUSH1 0x1 PUSH1 0x1 PUSH1 0xA0 SHL SUB AND CALLER PUSH1 0x1 PUSH1 0x1 PUSH1 0xA0 SHL SUB AND EQ PUSH2 0x489 JUMPI PUSH1 0x40 MLOAD PUSH4 0x2F7A8EE1 PUSH1 0xE0 SHL DUP2 MSTORE PUSH1 0x4 ADD PUSH1 0x40 MLOAD DUP1 SWAP2 SUB SWAP1 REVERT JUMPDEST PUSH32 0x177481AC65E4292921C69F62D1CC7F57541261E5D61C8175CF4E36A01C9BFC96 DUP1 SLOAD PUSH20 0xFFFFFFFFFFFFFFFFFFFFFFFFFFFFFFFFFFFFFFFF NOT AND PUSH1 0x1 PUSH1 0x1 PUSH1 0xA0 SHL SUB DUP4 AND OR SWAP1 SSTORE POP JUMP JUMPDEST POP JUMP JUMPDEST PUSH1 0x60 PUSH2 0x30D DUP3 PUSH2 0xE54 JUMP JUMPDEST PUSH1 0x1 PUSH1 0x1 PUSH1 0xE0 SHL SUB NOT DUP2 AND PUSH0 SWAP1 DUP2 MSTORE PUSH32 0x177481AC65E4292921C69F62D1CC7F57541261E5D61C8175CF4E36A01C9BFC93 PUSH1 0x20 MSTORE PUSH1 0x40 DUP2 KECCAK256 SLOAD PUSH1 0x60 SHR PUSH2 0x30D JUMP JUMPDEST PUSH2 0x529 PUSH2 0x5D5 JUMP JUMPDEST PUSH1 0x1 PUSH1 0x1 PUSH1 0xA0 SHL SUB AND CALLER PUSH1 0x1 PUSH1 0x1 PUSH1 0xA0 SHL SUB AND EQ PUSH2 0x55A JUMPI PUSH1 0x40 MLOAD PUSH4 0x2F7A8EE1 PUSH1 0xE0 SHL DUP2 MSTORE PUSH1 0x4 ADD PUSH1 0x40 MLOAD DUP1 SWAP2 SUB SWAP1 REVERT JUMPDEST PUSH2 0x4D3 DUP2 PUSH2 0xFC5 JUMP JUMPDEST PUSH0 DUP1 CALLDATALOAD PUSH1 0x1 PUSH1 0x1 PUSH1 0xE0 SHL SUB NOT AND DUP2 MSTORE PUSH32 0x177481AC65E4292921C69F62D1CC7F57541261E5D61C8175CF4E36A01C9BFC93 PUSH1 0x20 MSTORE PUSH1 0x40 SWAP1 KECCAK256 SLOAD PUSH1 0x60 SHR DUP1 PUSH2 0x5D2 JUMPI POP PUSH32 0x177481AC65E4292921C69F62D1CC7F57541261E5D61C8175CF4E36A01C9BFC96 SLOAD PUSH1 0x1 PUSH1 0x1 PUSH1 0xA0 SHL SUB AND SWAP1 JUMP JUMPDEST SWAP1 JUMP JUMPDEST PUSH0 PUSH32 0x8A22373512790C48B83A1FE2EFDD2888D4A917BCDC24D0ADF63E60F671680460 JUMPDEST SLOAD PUSH1 0x1 PUSH1 0x1 PUSH1 0xA0 SHL SUB AND SWAP2 SWAP1 POP JUMP JUMPDEST PUSH32 0x177481AC65E4292921C69F62D1CC7F57541261E5D61C8175CF4E36A01C9BFC94 SLOAD PUSH32 0x177481AC65E4292921C69F62D1CC7F57541261E5D61C8175CF4E36A01C9BFC93 SWAP1 PUSH2 0xFFFF DUP2 AND SWAP1 DUP2 SWAP1 PUSH0 SWAP1 PUSH1 0x7 AND ISZERO PUSH2 0x674 JUMPI POP PUSH1 0x3 DUP2 SWAP1 SHR PUSH0 SWAP1 DUP2 MSTORE PUSH1 0x2 DUP5 ADD PUSH1 0x20 MSTORE PUSH1 0x40 SWAP1 KECCAK256 SLOAD JUMPDEST PUSH0 JUMPDEST DUP8 MLOAD DUP2 LT ISZERO PUSH2 0x76D JUMPI PUSH0 DUP9 DUP3 DUP2 MLOAD DUP2 LT PUSH2 0x692 JUMPI PUSH2 0x692 PUSH2 0x1B06 JUMP JUMPDEST PUSH1 0x20 MUL PUSH1 0x20 ADD ADD MLOAD SWAP1 POP PUSH0 DUP2 PUSH1 0x20 ADD MLOAD SWAP1 POP DUP2 PUSH1 0x40 ADD MLOAD MLOAD PUSH0 SUB PUSH2 0x6E2 JUMPI PUSH1 0x40 MLOAD PUSH32 0xEB6C3AEB00000000000000000000000000000000000000000000000000000000 DUP2 MSTORE PUSH1 0x4 ADD PUSH1 0x40 MLOAD DUP1 SWAP2 SUB SWAP1 REVERT JUMPDEST PUSH0 DUP2 PUSH1 0x2 DUP2 GT ISZERO PUSH2 0x6F5 JUMPI PUSH2 0x6F5 PUSH2 0x1B1A JUMP JUMPDEST SUB PUSH2 0x710 JUMPI PUSH2 0x706 DUP8 DUP7 DUP7 DUP6 PUSH2 0x1015 JUMP JUMPDEST SWAP1 SWAP6 POP SWAP4 POP PUSH2 0x763 JUMP JUMPDEST PUSH1 0x1 DUP2 PUSH1 0x2 DUP2 GT ISZERO PUSH2 0x724 JUMPI PUSH2 0x724 PUSH2 0x1B1A JUMP JUMPDEST SUB PUSH2 0x738 JUMPI PUSH2 0x733 DUP8 DUP4 PUSH2 0x1197 JUMP JUMPDEST PUSH2 0x763 JUMP JUMPDEST PUSH1 0x2 DUP2 PUSH1 0x2 DUP2 GT ISZERO PUSH2 0x74C JUMPI PUSH2 0x74C PUSH2 0x1B1A JUMP JUMPDEST SUB PUSH2 0x763 JUMPI PUSH2 0x75D DUP8 DUP7 DUP7 DUP6 PUSH2 0x12FB JUMP JUMPDEST SWAP1 SWAP6 POP SWAP4 POP JUMPDEST POP POP PUSH1 0x1 ADD PUSH2 0x676 JUMP JUMPDEST POP DUP3 DUP3 EQ PUSH2 0x789 JUMPI PUSH1 0x1 DUP5 ADD DUP1 SLOAD PUSH2 0xFFFF NOT AND PUSH2 0xFFFF DUP5 AND OR SWAP1 SSTORE JUMPDEST PUSH1 0x7 DUP3 AND ISZERO PUSH2 0x7AA JUMPI PUSH1 0x3 DUP3 SWAP1 SHR PUSH0 SWAP1 DUP2 MSTORE PUSH1 0x2 DUP6 ADD PUSH1 0x20 MSTORE PUSH1 0x40 SWAP1 KECCAK256 DUP2 SWAP1 SSTORE JUMPDEST PUSH32 0x8FAA70878671CCD212D20771B795C50AF8FD3FF6CF27F4BDE57E5D4DE0AEB673 DUP8 DUP8 DUP8 PUSH1 0x40 MLOAD PUSH2 0x7DD SWAP4 SWAP3 SWAP2 SWAP1 PUSH2 0x1B7B JUMP JUMPDEST PUSH1 0x40 MLOAD DUP1 SWAP2 SUB SWAP1 LOG1 PUSH2 0x7EF DUP7 DUP7 PUSH2 0x152D JUMP JUMPDEST POP POP POP POP POP POP POP JUMP JUMPDEST PUSH32 0x177481AC65E4292921C69F62D1CC7F57541261E5D61C8175CF4E36A01C9BFC94 SLOAD PUSH1 0x60 SWAP1 PUSH32 0x177481AC65E4292921C69F62D1CC7F57541261E5D61C8175CF4E36A01C9BFC93 SWAP1 PUSH2 0xFFFF AND PUSH8 0xFFFFFFFFFFFFFFFF DUP2 GT ISZERO PUSH2 0x85B JUMPI PUSH2 0x85B PUSH2 0x1951 JUMP JUMPDEST PUSH1 0x40 MLOAD SWAP1 DUP1 DUP3 MSTORE DUP1 PUSH1 0x20 MUL PUSH1 0x20 ADD DUP3 ADD PUSH1 0x40 MSTORE DUP1 ISZERO PUSH2 0x884 JUMPI DUP2 PUSH1 0x20 ADD PUSH1 0x20 DUP3 MUL DUP1 CALLDATASIZE DUP4 CALLDATACOPY ADD SWAP1 POP JUMPDEST POP SWAP2 POP PUSH0 DUP1 PUSH0 JUMPDEST PUSH1 0x1 DUP5 ADD SLOAD PUSH2 0xFFFF AND DUP3 LT ISZERO PUSH2 0x9AE JUMPI PUSH0 DUP2 DUP2 MSTORE PUSH1 0x2 DUP6 ADD PUSH1 0x20 MSTORE PUSH1 0x40 DUP2 KECCAK256 SLOAD SWAP1 JUMPDEST PUSH1 0x8 DUP2 LT ISZERO PUSH2 0x999 JUMPI DUP4 PUSH2 0x8C0 DUP2 PUSH2 0x1C55 JUMP JUMPDEST PUSH1 0x1 DUP9 ADD SLOAD SWAP1 SWAP6 POP PUSH2 0xFFFF AND DUP6 GT SWAP1 POP PUSH2 0x999 JUMPI PUSH1 0x5 DUP2 SWAP1 SHL DUP3 SWAP1 SHL PUSH1 0x1 PUSH1 0x1 PUSH1 0xE0 SHL SUB NOT DUP2 AND PUSH0 SWAP1 DUP2 MSTORE PUSH1 0x20 DUP9 SWAP1 MSTORE PUSH1 0x40 DUP2 KECCAK256 SLOAD PUSH1 0x60 SHR SWAP1 DUP1 JUMPDEST DUP9 DUP2 LT ISZERO PUSH2 0x946 JUMPI DUP11 DUP2 DUP2 MLOAD DUP2 LT PUSH2 0x915 JUMPI PUSH2 0x915 PUSH2 0x1B06 JUMP JUMPDEST PUSH1 0x20 MUL PUSH1 0x20 ADD ADD MLOAD PUSH1 0x1 PUSH1 0x1 PUSH1 0xA0 SHL SUB AND DUP4 PUSH1 0x1 PUSH1 0x1 PUSH1 0xA0 SHL SUB AND SUB PUSH2 0x93E JUMPI PUSH1 0x1 SWAP2 POP PUSH2 0x946 JUMP JUMPDEST PUSH1 0x1 ADD PUSH2 0x8FB JUMP JUMPDEST POP DUP1 ISZERO PUSH2 0x955 JUMPI POP POP POP PUSH2 0x991 JUMP JUMPDEST DUP2 DUP11 DUP10 DUP2 MLOAD DUP2 LT PUSH2 0x968 JUMPI PUSH2 0x968 PUSH2 0x1B06 JUMP JUMPDEST PUSH1 0x1 PUSH1 0x1 PUSH1 0xA0 SHL SUB SWAP1 SWAP3 AND PUSH1 0x20 SWAP3 DUP4 MUL SWAP2 SWAP1 SWAP2 ADD SWAP1 SWAP2 ADD MSTORE DUP8 PUSH2 0x98A DUP2 PUSH2 0x1C55 JUMP JUMPDEST SWAP9 POP POP POP POP POP JUMPDEST PUSH1 0x1 ADD PUSH2 0x8AD JUMP JUMPDEST POP POP DUP1 DUP1 PUSH2 0x9A6 SWAP1 PUSH2 0x1C55 JUMP JUMPDEST SWAP2 POP POP PUSH2 0x88B JUMP JUMPDEST POP POP DUP3 MSTORE POP SWAP1 JUMP JUMPDEST PUSH0 PUSH32 0x24AA1F7B31FD188A8D3ECFB06BC55C806040E59B03BD4396283442FCE6617890 PUSH2 0x5F8 JUMP JUMPDEST PUSH2 0x9E6 CALLER PUSH2 0x1624 JUMP JUMPDEST PUSH32 0x24AA1F7B31FD188A8D3ECFB06BC55C806040E59B03BD4396283442FCE6617890 DUP1 SLOAD PUSH20 0xFFFFFFFFFFFFFFFFFFFFFFFFFFFFFFFFFFFFFFFF NOT AND SWAP1 SSTORE JUMP JUMPDEST PUSH32 0x177481AC65E4292921C69F62D1CC7F57541261E5D61C8175CF4E36A01C9BFC94 SLOAD PUSH1 0x60 SWAP1 PUSH32 0x177481AC65E4292921C69F62D1CC7F57541261E5D61C8175CF4E36A01C9BFC93 SWAP1 PUSH2 0xFFFF AND PUSH8 0xFFFFFFFFFFFFFFFF DUP2 GT ISZERO PUSH2 0xA87 JUMPI PUSH2 0xA87 PUSH2 0x1951 JUMP JUMPDEST PUSH1 0x40 MLOAD SWAP1 DUP1 DUP3 MSTORE DUP1 PUSH1 0x20 MUL PUSH1 0x20 ADD DUP3 ADD PUSH1 0x40 MSTORE DUP1 ISZERO PUSH2 0xACC JUMPI DUP2 PUSH1 0x20 ADD JUMPDEST PUSH1 0x40 DUP1 MLOAD DUP1 DUP3 ADD SWAP1 SWAP2 MSTORE PUSH0 DUP2 MSTORE PUSH1 0x60 PUSH1 0x20 DUP3 ADD MSTORE DUP2 MSTORE PUSH1 0x20 ADD SWAP1 PUSH1 0x1 SWAP1 SUB SWAP1 DUP2 PUSH2 0xAA5 JUMPI SWAP1 POP JUMPDEST POP PUSH1 0x1 DUP3 ADD SLOAD SWAP1 SWAP3 POP PUSH0 SWAP1 PUSH2 0xFFFF AND PUSH8 0xFFFFFFFFFFFFFFFF DUP2 GT ISZERO PUSH2 0xAF3 JUMPI PUSH2 0xAF3 PUSH2 0x1951 JUMP JUMPDEST PUSH1 0x40 MLOAD SWAP1 DUP1 DUP3 MSTORE DUP1 PUSH1 0x20 MUL PUSH1 0x20 ADD DUP3 ADD PUSH1 0x40 MSTORE DUP1 ISZERO PUSH2 0xB1C JUMPI DUP2 PUSH1 0x20 ADD PUSH1 0x20 DUP3 MUL DUP1 CALLDATASIZE DUP4 CALLDATACOPY ADD SWAP1 POP JUMPDEST POP SWAP1 POP PUSH0 DUP1 PUSH0 JUMPDEST PUSH1 0x1 DUP6 ADD SLOAD PUSH2 0xFFFF AND DUP3 LT ISZERO PUSH2 0xDF0 JUMPI PUSH0 DUP2 DUP2 MSTORE PUSH1 0x2 DUP7 ADD PUSH1 0x20 MSTORE PUSH1 0x40 DUP2 KECCAK256 SLOAD SWAP1 JUMPDEST PUSH1 0x8 DUP2 LT ISZERO PUSH2 0xDDB JUMPI DUP4 PUSH2 0xB58 DUP2 PUSH2 0x1C55 JUMP JUMPDEST PUSH1 0x1 DUP10 ADD SLOAD SWAP1 SWAP6 POP PUSH2 0xFFFF AND DUP6 GT SWAP1 POP PUSH2 0xDDB JUMPI PUSH1 0x5 DUP2 SWAP1 SHL DUP3 SWAP1 SHL PUSH1 0x1 PUSH1 0x1 PUSH1 0xE0 SHL SUB NOT DUP2 AND PUSH0 SWAP1 DUP2 MSTORE PUSH1 0x20 DUP10 SWAP1 MSTORE PUSH1 0x40 DUP2 KECCAK256 SLOAD PUSH1 0x60 SHR SWAP1 DUP1 JUMPDEST DUP9 DUP2 LT ISZERO PUSH2 0xCA4 JUMPI DUP3 PUSH1 0x1 PUSH1 0x1 PUSH1 0xA0 SHL SUB AND DUP13 DUP3 DUP2 MLOAD DUP2 LT PUSH2 0xBB7 JUMPI PUSH2 0xBB7 PUSH2 0x1B06 JUMP JUMPDEST PUSH1 0x20 MUL PUSH1 0x20 ADD ADD MLOAD PUSH0 ADD MLOAD PUSH1 0x1 PUSH1 0x1 PUSH1 0xA0 SHL SUB AND SUB PUSH2 0xC9C JUMPI DUP4 DUP13 DUP3 DUP2 MLOAD DUP2 LT PUSH2 0xBE3 JUMPI PUSH2 0xBE3 PUSH2 0x1B06 JUMP JUMPDEST PUSH1 0x20 MUL PUSH1 0x20 ADD ADD MLOAD PUSH1 0x20 ADD MLOAD DUP12 DUP4 DUP2 MLOAD DUP2 LT PUSH2 0xC01 JUMPI PUSH2 0xC01 PUSH2 0x1B06 JUMP JUMPDEST PUSH1 0x20 MUL PUSH1 0x20 ADD ADD MLOAD PUSH1 0xFF AND DUP2 MLOAD DUP2 LT PUSH2 0xC1C JUMPI PUSH2 0xC1C PUSH2 0x1B06 JUMP JUMPDEST PUSH1 0x20 MUL PUSH1 0x20 ADD ADD SWAP1 PUSH1 0x1 PUSH1 0x1 PUSH1 0xE0 SHL SUB NOT AND SWAP1 DUP2 PUSH1 0x1 PUSH1 0x1 PUSH1 0xE0 SHL SUB NOT AND DUP2 MSTORE POP POP PUSH1 0xFF DUP11 DUP3 DUP2 MLOAD DUP2 LT PUSH2 0xC52 JUMPI PUSH2 0xC52 PUSH2 0x1B06 JUMP JUMPDEST PUSH1 0x20 MUL PUSH1 0x20 ADD ADD MLOAD PUSH1 0xFF AND LT PUSH2 0xC66 JUMPI PUSH0 DUP1 REVERT JUMPDEST DUP10 DUP2 DUP2 MLOAD DUP2 LT PUSH2 0xC78 JUMPI PUSH2 0xC78 PUSH2 0x1B06 JUMP JUMPDEST PUSH1 0x20 MUL PUSH1 0x20 ADD ADD DUP1 MLOAD DUP1 SWAP2 SWAP1 PUSH2 0xC8D SWAP1 PUSH2 0x1C6D JUMP JUMPDEST PUSH1 0xFF AND SWAP1 MSTORE POP PUSH1 0x1 SWAP2 POP PUSH2 0xCA4 JUMP JUMPDEST PUSH1 0x1 ADD PUSH2 0xB93 JUMP JUMPDEST POP DUP1 ISZERO PUSH2 0xCB3 JUMPI POP POP POP PUSH2 0xDD3 JUMP JUMPDEST DUP2 DUP12 DUP10 DUP2 MLOAD DUP2 LT PUSH2 0xCC6 JUMPI PUSH2 0xCC6 PUSH2 0x1B06 JUMP JUMPDEST PUSH1 0x20 SWAP1 DUP2 MUL SWAP2 SWAP1 SWAP2 ADD ADD MLOAD PUSH1 0x1 PUSH1 0x1 PUSH1 0xA0 SHL SUB SWAP1 SWAP2 AND SWAP1 MSTORE PUSH1 0x1 DUP11 ADD SLOAD PUSH2 0xFFFF AND PUSH8 0xFFFFFFFFFFFFFFFF DUP2 GT ISZERO PUSH2 0xCFF JUMPI PUSH2 0xCFF PUSH2 0x1951 JUMP JUMPDEST PUSH1 0x40 MLOAD SWAP1 DUP1 DUP3 MSTORE DUP1 PUSH1 0x20 MUL PUSH1 0x20 ADD DUP3 ADD PUSH1 0x40 MSTORE DUP1 ISZERO PUSH2 0xD28 JUMPI DUP2 PUSH1 0x20 ADD PUSH1 0x20 DUP3 MUL DUP1 CALLDATASIZE DUP4 CALLDATACOPY ADD SWAP1 POP JUMPDEST POP DUP12 DUP10 DUP2 MLOAD DUP2 LT PUSH2 0xD3B JUMPI PUSH2 0xD3B PUSH2 0x1B06 JUMP JUMPDEST PUSH1 0x20 MUL PUSH1 0x20 ADD ADD MLOAD PUSH1 0x20 ADD DUP2 SWAP1 MSTORE POP DUP3 DUP12 DUP10 DUP2 MLOAD DUP2 LT PUSH2 0xD5D JUMPI PUSH2 0xD5D PUSH2 0x1B06 JUMP JUMPDEST PUSH1 0x20 MUL PUSH1 0x20 ADD ADD MLOAD PUSH1 0x20 ADD MLOAD PUSH0 DUP2 MLOAD DUP2 LT PUSH2 0xD7A JUMPI PUSH2 0xD7A PUSH2 0x1B06 JUMP JUMPDEST PUSH1 0x20 MUL PUSH1 0x20 ADD ADD SWAP1 PUSH1 0x1 PUSH1 0x1 PUSH1 0xE0 SHL SUB NOT AND SWAP1 DUP2 PUSH1 0x1 PUSH1 0x1 PUSH1 0xE0 SHL SUB NOT AND DUP2 MSTORE POP POP PUSH1 0x1 DUP10 DUP10 DUP2 MLOAD DUP2 LT PUSH2 0xDB0 JUMPI PUSH2 0xDB0 PUSH2 0x1B06 JUMP JUMPDEST PUSH1 0xFF SWAP1 SWAP3 AND PUSH1 0x20 SWAP3 DUP4 MUL SWAP2 SWAP1 SWAP2 ADD SWAP1 SWAP2 ADD MSTORE DUP8 PUSH2 0xDCC DUP2 PUSH2 0x1C55 JUMP JUMPDEST SWAP9 POP POP POP POP POP JUMPDEST PUSH1 0x1 ADD PUSH2 0xB45 JUMP JUMPDEST POP POP DUP1 DUP1 PUSH2 0xDE8 SWAP1 PUSH2 0x1C55 JUMP JUMPDEST SWAP2 POP POP PUSH2 0xB23 JUMP JUMPDEST POP PUSH0 JUMPDEST DUP3 DUP2 LT ISZERO PUSH2 0xE49 JUMPI PUSH0 DUP5 DUP3 DUP2 MLOAD DUP2 LT PUSH2 0xE0E JUMPI PUSH2 0xE0E PUSH2 0x1B06 JUMP JUMPDEST PUSH1 0x20 MUL PUSH1 0x20 ADD ADD MLOAD PUSH1 0xFF AND SWAP1 POP PUSH0 DUP8 DUP4 DUP2 MLOAD DUP2 LT PUSH2 0xE2E JUMPI PUSH2 0xE2E PUSH2 0x1B06 JUMP JUMPDEST PUSH1 0x20 SWAP1 DUP2 MUL SWAP2 SWAP1 SWAP2 ADD DUP2 ADD MLOAD ADD MLOAD SWAP2 SWAP1 SWAP2 MSTORE POP PUSH1 0x1 ADD PUSH2 0xDF3 JUMP JUMPDEST POP DUP2 DUP6 MSTORE POP POP POP POP SWAP1 JUMP JUMPDEST PUSH32 0x177481AC65E4292921C69F62D1CC7F57541261E5D61C8175CF4E36A01C9BFC94 SLOAD PUSH1 0x60 SWAP1 PUSH32 0x177481AC65E4292921C69F62D1CC7F57541261E5D61C8175CF4E36A01C9BFC93 SWAP1 PUSH2 0xFFFF AND PUSH8 0xFFFFFFFFFFFFFFFF DUP2 GT ISZERO PUSH2 0xEB7 JUMPI PUSH2 0xEB7 PUSH2 0x1951 JUMP JUMPDEST PUSH1 0x40 MLOAD SWAP1 DUP1 DUP3 MSTORE DUP1 PUSH1 0x20 MUL PUSH1 0x20 ADD DUP3 ADD PUSH1 0x40 MSTORE DUP1 ISZERO PUSH2 0xEE0 JUMPI DUP2 PUSH1 0x20 ADD PUSH1 0x20 DUP3 MUL DUP1 CALLDATASIZE DUP4 CALLDATACOPY ADD SWAP1 POP JUMPDEST POP SWAP2 POP PUSH0 DUP1 PUSH0 JUMPDEST PUSH1 0x1 DUP5 ADD SLOAD PUSH2 0xFFFF AND DUP3 LT ISZERO PUSH2 0xFBB JUMPI PUSH0 DUP2 DUP2 MSTORE PUSH1 0x2 DUP6 ADD PUSH1 0x20 MSTORE PUSH1 0x40 DUP2 KECCAK256 SLOAD SWAP1 JUMPDEST PUSH1 0x8 DUP2 LT ISZERO PUSH2 0xFA6 JUMPI DUP4 PUSH2 0xF1C DUP2 PUSH2 0x1C55 JUMP JUMPDEST PUSH1 0x1 DUP9 ADD SLOAD SWAP1 SWAP6 POP PUSH2 0xFFFF AND DUP6 GT SWAP1 POP PUSH2 0xFA6 JUMPI PUSH1 0x5 DUP2 SWAP1 SHL DUP3 SWAP1 SHL PUSH1 0x1 PUSH1 0x1 PUSH1 0xE0 SHL SUB NOT DUP2 AND PUSH0 SWAP1 DUP2 MSTORE PUSH1 0x20 DUP9 SWAP1 MSTORE PUSH1 0x40 SWAP1 KECCAK256 SLOAD PUSH1 0x60 SHR PUSH1 0x1 PUSH1 0x1 PUSH1 0xA0 SHL SUB DUP11 AND SUB PUSH2 0xF9D JUMPI DUP1 DUP9 DUP8 DUP2 MLOAD DUP2 LT PUSH2 0xF76 JUMPI PUSH2 0xF76 PUSH2 0x1B06 JUMP JUMPDEST PUSH1 0x1 PUSH1 0x1 PUSH1 0xE0 SHL SUB NOT SWAP1 SWAP3 AND PUSH1 0x20 SWAP3 DUP4 MUL SWAP2 SWAP1 SWAP2 ADD SWAP1 SWAP2 ADD MSTORE DUP6 PUSH2 0xF99 DUP2 PUSH2 0x1C55 JUMP JUMPDEST SWAP7 POP POP JUMPDEST POP PUSH1 0x1 ADD PUSH2 0xF09 JUMP JUMPDEST POP POP DUP1 DUP1 PUSH2 0xFB3 SWAP1 PUSH2 0x1C55 JUMP JUMPDEST SWAP2 POP POP PUSH2 0xEE7 JUMP JUMPDEST POP POP DUP3 MSTORE POP SWAP2 SWAP1 POP JUMP JUMPDEST PUSH32 0x24AA1F7B31FD188A8D3ECFB06BC55C806040E59B03BD4396283442FCE6617890 DUP1 SLOAD PUSH20 0xFFFFFFFFFFFFFFFFFFFFFFFFFFFFFFFFFFFFFFFF NOT AND PUSH1 0x1 PUSH1 0x1 PUSH1 0xA0 SHL SUB DUP4 AND OR SWAP1 SSTORE PUSH2 0x4D3 DUP2 DUP2 DUP2 DUP2 JUMP JUMPDEST DUP1 MLOAD PUSH0 SWAP1 DUP2 SWAP1 PUSH1 0x1 PUSH1 0x1 PUSH1 0xA0 SHL SUB AND EXTCODESIZE ISZERO PUSH2 0x105B JUMPI DUP3 MLOAD ADDRESS PUSH1 0x1 PUSH1 0x1 PUSH1 0xA0 SHL SUB SWAP1 SWAP2 AND SUB PUSH2 0x1056 JUMPI PUSH1 0x40 MLOAD PUSH4 0xE9835731 PUSH1 0xE0 SHL DUP2 MSTORE PUSH1 0x4 ADD PUSH1 0x40 MLOAD DUP1 SWAP2 SUB SWAP1 REVERT JUMPDEST PUSH2 0x1085 JUMP JUMPDEST DUP3 MLOAD PUSH1 0x1 PUSH1 0x1 PUSH1 0xA0 SHL SUB AND ADDRESS EQ PUSH2 0x1085 JUMPI PUSH1 0x40 MLOAD PUSH4 0x3DDC5CAB PUSH1 0xE2 SHL DUP2 MSTORE PUSH1 0x4 ADD PUSH1 0x40 MLOAD DUP1 SWAP2 SUB SWAP1 REVERT JUMPDEST PUSH0 JUMPDEST DUP4 PUSH1 0x40 ADD MLOAD MLOAD DUP2 LT ISZERO PUSH2 0x118A JUMPI PUSH0 DUP5 PUSH1 0x40 ADD MLOAD DUP3 DUP2 MLOAD DUP2 LT PUSH2 0x10AB JUMPI PUSH2 0x10AB PUSH2 0x1B06 JUMP JUMPDEST PUSH1 0x20 SWAP1 DUP2 MUL SWAP2 SWAP1 SWAP2 ADD DUP2 ADD MLOAD PUSH1 0x1 PUSH1 0x1 PUSH1 0xE0 SHL SUB NOT DUP2 AND PUSH0 SWAP1 DUP2 MSTORE SWAP2 DUP11 SWAP1 MSTORE PUSH1 0x40 SWAP1 SWAP2 KECCAK256 SLOAD SWAP1 SWAP2 POP PUSH1 0x60 DUP2 SWAP1 SHR ISZERO PUSH2 0x110F JUMPI PUSH1 0x40 MLOAD PUSH32 0x92474EE200000000000000000000000000000000000000000000000000000000 DUP2 MSTORE PUSH1 0x4 ADD PUSH1 0x40 MLOAD DUP1 SWAP2 SUB SWAP1 REVERT JUMPDEST DUP6 MLOAD PUSH1 0x1 PUSH1 0x1 PUSH1 0xE0 SHL SUB NOT DUP4 DUP2 AND PUSH0 DUP2 DUP2 MSTORE PUSH1 0x20 DUP14 SWAP1 MSTORE PUSH1 0x40 SWAP1 KECCAK256 PUSH1 0x60 SWAP4 SWAP1 SWAP4 SHL PUSH12 0xFFFFFFFFFFFFFFFFFFFFFFFF NOT AND DUP12 OR SWAP1 SWAP3 SSTORE PUSH1 0x5 DUP11 SWAP1 SHL PUSH1 0xE0 SWAP1 DUP2 AND SWAP3 DUP4 SHR SWAP2 DUP4 SHR NOT SWAP10 SWAP1 SWAP10 AND OR SWAP8 DUP2 SWAP1 SUB PUSH2 0x117B JUMPI PUSH1 0x3 DUP10 SWAP1 SHR PUSH0 SWAP1 DUP2 MSTORE PUSH1 0x2 DUP12 ADD PUSH1 0x20 MSTORE PUSH1 0x40 DUP2 KECCAK256 SWAP9 SWAP1 SWAP9 SSTORE JUMPDEST POP POP POP PUSH1 0x1 SWAP6 DUP7 ADD SWAP6 ADD PUSH2 0x1087 JUMP JUMPDEST POP SWAP4 SWAP6 SWAP3 SWAP5 POP SWAP2 SWAP3 POP POP POP JUMP JUMPDEST DUP1 MLOAD PUSH1 0x1 PUSH1 0x1 PUSH1 0xA0 SHL SUB AND EXTCODESIZE PUSH2 0x11C0 JUMPI PUSH1 0x40 MLOAD PUSH4 0x3DDC5CAB PUSH1 0xE2 SHL DUP2 MSTORE PUSH1 0x4 ADD PUSH1 0x40 MLOAD DUP1 SWAP2 SUB SWAP1 REVERT JUMPDEST PUSH0 JUMPDEST DUP2 PUSH1 0x40 ADD MLOAD MLOAD DUP2 LT ISZERO PUSH2 0x12F6 JUMPI PUSH0 DUP3 PUSH1 0x40 ADD MLOAD DUP3 DUP2 MLOAD DUP2 LT PUSH2 0x11E6 JUMPI PUSH2 0x11E6 PUSH2 0x1B06 JUMP JUMPDEST PUSH1 0x20 SWAP1 DUP2 MUL SWAP2 SWAP1 SWAP2 ADD DUP2 ADD MLOAD PUSH1 0x1 PUSH1 0x1 PUSH1 0xE0 SHL SUB NOT DUP2 AND PUSH0 SWAP1 DUP2 MSTORE SWAP2 DUP7 SWAP1 MSTORE PUSH1 0x40 SWAP1 SWAP2 KECCAK256 SLOAD SWAP1 SWAP2 POP PUSH1 0x60 DUP2 SWAP1 SHR DUP1 PUSH2 0x1231 JUMPI PUSH1 0x40 MLOAD PUSH4 0x37E25A97 PUSH1 0xE1 SHL DUP2 MSTORE PUSH1 0x4 ADD PUSH1 0x40 MLOAD DUP1 SWAP2 SUB SWAP1 REVERT JUMPDEST ADDRESS PUSH1 0x1 PUSH1 0x1 PUSH1 0xA0 SHL SUB DUP3 AND SUB PUSH2 0x125A JUMPI PUSH1 0x40 MLOAD PUSH4 0xE9835731 PUSH1 0xE0 SHL DUP2 MSTORE PUSH1 0x4 ADD PUSH1 0x40 MLOAD DUP1 SWAP2 SUB SWAP1 REVERT JUMPDEST DUP5 PUSH0 ADD MLOAD PUSH1 0x1 PUSH1 0x1 PUSH1 0xA0 SHL SUB AND DUP2 PUSH1 0x1 PUSH1 0x1 PUSH1 0xA0 SHL SUB AND SUB PUSH2 0x12A8 JUMPI PUSH1 0x40 MLOAD PUSH32 0x617557E600000000000000000000000000000000000000000000000000000000 DUP2 MSTORE PUSH1 0x4 ADD PUSH1 0x40 MLOAD DUP1 SWAP2 SUB SWAP1 REVERT JUMPDEST POP DUP4 MLOAD PUSH1 0x1 PUSH1 0x1 PUSH1 0xE0 SHL SUB NOT SWAP3 SWAP1 SWAP3 AND PUSH0 SWAP1 DUP2 MSTORE PUSH1 0x20 DUP7 SWAP1 MSTORE PUSH1 0x40 SWAP1 KECCAK256 PUSH1 0x60 SWAP3 SWAP1 SWAP3 SHL PUSH12 0xFFFFFFFFFFFFFFFFFFFFFFFF NOT AND PUSH12 0xFFFFFFFFFFFFFFFFFFFFFFFF SWAP2 SWAP1 SWAP2 AND OR SWAP1 SSTORE PUSH1 0x1 ADD PUSH2 0x11C2 JUMP JUMPDEST POP POP POP JUMP JUMPDEST DUP1 MLOAD PUSH0 SWAP1 DUP2 SWAP1 PUSH1 0x1 PUSH1 0x1 PUSH1 0xA0 SHL SUB AND ISZERO PUSH2 0x1341 JUMPI PUSH1 0x40 MLOAD PUSH32 0xEACD242400000000000000000000000000000000000000000000000000000000 DUP2 MSTORE PUSH1 0x4 ADD PUSH1 0x40 MLOAD DUP1 SWAP2 SUB SWAP1 REVERT JUMPDEST PUSH1 0x3 DUP6 SWAP1 SHR PUSH1 0x7 DUP7 AND PUSH0 JUMPDEST DUP6 PUSH1 0x40 ADD MLOAD MLOAD DUP2 LT ISZERO PUSH2 0x1519 JUMPI PUSH0 DUP7 PUSH1 0x40 ADD MLOAD DUP3 DUP2 MLOAD DUP2 LT PUSH2 0x1370 JUMPI PUSH2 0x1370 PUSH2 0x1B06 JUMP JUMPDEST PUSH1 0x20 SWAP1 DUP2 MUL SWAP2 SWAP1 SWAP2 ADD DUP2 ADD MLOAD PUSH1 0x1 PUSH1 0x1 PUSH1 0xE0 SHL SUB NOT DUP2 AND PUSH0 SWAP1 DUP2 MSTORE SWAP2 DUP13 SWAP1 MSTORE PUSH1 0x40 SWAP1 SWAP2 KECCAK256 SLOAD SWAP1 SWAP2 POP PUSH1 0x60 DUP2 SWAP1 SHR PUSH2 0x13BA JUMPI PUSH1 0x40 MLOAD PUSH4 0x37E25A97 PUSH1 0xE1 SHL DUP2 MSTORE PUSH1 0x4 ADD PUSH1 0x40 MLOAD DUP1 SWAP2 SUB SWAP1 REVERT JUMPDEST ADDRESS PUSH1 0x60 DUP3 SWAP1 SHR SUB PUSH2 0x13DE JUMPI PUSH1 0x40 MLOAD PUSH4 0xE9835731 PUSH1 0xE0 SHL DUP2 MSTORE PUSH1 0x4 ADD PUSH1 0x40 MLOAD DUP1 SWAP2 SUB SWAP1 REVERT JUMPDEST PUSH0 DUP10 SWAP1 SUB PUSH2 0x1407 JUMPI PUSH0 NOT SWAP1 SWAP5 ADD PUSH0 DUP2 DUP2 MSTORE PUSH1 0x2 DUP13 ADD PUSH1 0x20 MSTORE PUSH1 0x40 SWAP1 KECCAK256 SLOAD SWAP9 POP SWAP4 PUSH1 0x7 SWAP4 POP PUSH2 0x140E JUMP JUMPDEST PUSH0 NOT SWAP1 SWAP4 ADD SWAP3 JUMPDEST PUSH1 0x5 DUP5 SWAP1 SHL DUP10 SWAP1 SHL PUSH0 DUP1 PUSH1 0x1 PUSH1 0x1 PUSH1 0xE0 SHL SUB NOT DUP1 DUP5 AND SWAP1 DUP7 AND EQ PUSH2 0x1468 JUMPI PUSH1 0x1 PUSH1 0x1 PUSH1 0xE0 SHL SUB NOT DUP4 AND PUSH0 SWAP1 DUP2 MSTORE PUSH1 0x20 DUP16 SWAP1 MSTORE PUSH1 0x40 SWAP1 KECCAK256 DUP1 SLOAD PUSH12 0xFFFFFFFFFFFFFFFFFFFFFFFF NOT AND PUSH12 0xFFFFFFFFFFFFFFFFFFFFFFFF DUP7 AND OR SWAP1 SSTORE JUMPDEST POP POP PUSH1 0x1 PUSH1 0x1 PUSH1 0xE0 SHL SUB NOT DUP4 AND PUSH0 SWAP1 DUP2 MSTORE PUSH1 0x20 DUP14 SWAP1 MSTORE PUSH1 0x40 DUP2 KECCAK256 SSTORE PUSH2 0x1FFF PUSH1 0x3 DUP4 SWAP1 SHR AND PUSH1 0xE0 PUSH1 0x5 DUP5 SWAP1 SHL AND DUP8 DUP3 EQ PUSH2 0x14C9 JUMPI PUSH0 DUP3 DUP2 MSTORE PUSH1 0x2 DUP16 ADD PUSH1 0x20 MSTORE PUSH1 0x40 SWAP1 KECCAK256 DUP1 SLOAD PUSH1 0x1 PUSH1 0x1 PUSH1 0xE0 SHL SUB NOT DUP1 DUP5 SHR NOT SWAP1 SWAP2 AND SWAP1 DUP6 AND DUP4 SHR OR SWAP1 SSTORE PUSH2 0x14EC JUMP JUMPDEST DUP1 DUP4 PUSH1 0x1 PUSH1 0x1 PUSH1 0xE0 SHL SUB NOT AND SWAP1 SHR DUP2 PUSH1 0x1 PUSH1 0x1 PUSH1 0xE0 SHL SUB NOT PUSH0 SHL SWAP1 SHR NOT DUP14 AND OR SWAP12 POP JUMPDEST DUP7 PUSH0 SUB PUSH2 0x1508 JUMPI PUSH0 DUP9 DUP2 MSTORE PUSH1 0x2 DUP16 ADD PUSH1 0x20 MSTORE PUSH1 0x40 DUP2 KECCAK256 DUP2 SWAP1 SSTORE SWAP12 POP JUMPDEST POP POP PUSH1 0x1 SWAP1 SWAP4 ADD SWAP3 POP PUSH2 0x134C SWAP2 POP POP JUMP JUMPDEST POP PUSH1 0x3 SWAP2 SWAP1 SWAP2 SHL OR SWAP7 SWAP4 SWAP6 POP SWAP3 SWAP4 POP POP POP POP JUMP JUMPDEST DUP1 MLOAD ISZERO PUSH1 0x1 PUSH1 0x1 PUSH1 0xA0 SHL SUB DUP4 AND ISZERO EQ PUSH2 0x1572 JUMPI PUSH1 0x40 MLOAD PUSH32 0x26DF4CCD00000000000000000000000000000000000000000000000000000000 DUP2 MSTORE PUSH1 0x4 ADD PUSH1 0x40 MLOAD DUP1 SWAP2 SUB SWAP1 REVERT JUMPDEST PUSH1 0x1 PUSH1 0x1 PUSH1 0xA0 SHL SUB DUP3 AND ISZERO PUSH2 0x1620 JUMPI PUSH1 0x1 PUSH1 0x1 PUSH1 0xA0 SHL SUB DUP3 AND ADDRESS EQ PUSH2 0x15B9 JUMPI PUSH1 0x1 PUSH1 0x1 PUSH1 0xA0 SHL SUB DUP3 AND EXTCODESIZE PUSH2 0x15B9 JUMPI PUSH1 0x40 MLOAD PUSH4 0x3DDC5CAB PUSH1 0xE2 SHL DUP2 MSTORE PUSH1 0x4 ADD PUSH1 0x40 MLOAD DUP1 SWAP2 SUB SWAP1 REVERT JUMPDEST PUSH0 DUP3 PUSH1 0x1 PUSH1 0x1 PUSH1 0xA0 SHL SUB AND DUP3 PUSH1 0x40 MLOAD PUSH2 0x15D2 SWAP2 SWAP1 PUSH2 0x1C8B JUMP JUMPDEST PUSH0 PUSH1 0x40 MLOAD DUP1 DUP4 SUB DUP2 DUP6 GAS DELEGATECALL SWAP2 POP POP RETURNDATASIZE DUP1 PUSH0 DUP2 EQ PUSH2 0x160A JUMPI PUSH1 0x40 MLOAD SWAP2 POP PUSH1 0x1F NOT PUSH1 0x3F RETURNDATASIZE ADD AND DUP3 ADD PUSH1 0x40 MSTORE RETURNDATASIZE DUP3 MSTORE RETURNDATASIZE PUSH0 PUSH1 0x20 DUP5 ADD RETURNDATACOPY PUSH2 0x160F JUMP JUMPDEST PUSH1 0x60 SWAP2 POP JUMPDEST POP POP SWAP1 POP DUP1 PUSH2 0x12F6 JUMPI RETURNDATASIZE PUSH0 DUP1 RETURNDATACOPY RETURNDATASIZE PUSH0 REVERT JUMPDEST POP POP JUMP JUMPDEST PUSH32 0x8A22373512790C48B83A1FE2EFDD2888D4A917BCDC24D0ADF63E60F671680460 DUP1 SLOAD PUSH1 0x40 MLOAD PUSH1 0x1 PUSH1 0x1 PUSH1 0xA0 SHL SUB DUP5 DUP2 AND SWAP3 AND SWAP1 PUSH32 0x8BE0079C531659141344CD1FD0A4F28419497F9722A3DAAFE3B4186F6B6457E0 SWAP1 PUSH0 SWAP1 LOG3 DUP1 SLOAD PUSH20 0xFFFFFFFFFFFFFFFFFFFFFFFFFFFFFFFFFFFFFFFF NOT AND PUSH1 0x1 PUSH1 0x1 PUSH1 0xA0 SHL SUB SWAP3 SWAP1 SWAP3 AND SWAP2 SWAP1 SWAP2 OR SWAP1 SSTORE JUMP JUMPDEST DUP1 CALLDATALOAD PUSH1 0x1 PUSH1 0x1 PUSH1 0xE0 SHL SUB NOT DUP2 AND DUP2 EQ PUSH2 0x16C1 JUMPI PUSH0 DUP1 REVERT JUMPDEST SWAP2 SWAP1 POP JUMP JUMPDEST PUSH0 PUSH1 0x20 DUP3 DUP5 SUB SLT ISZERO PUSH2 0x16D6 JUMPI PUSH0 DUP1 REVERT JUMPDEST PUSH2 0x16DF DUP3 PUSH2 0x16AA JUMP JUMPDEST SWAP4 SWAP3 POP POP POP JUMP JUMPDEST DUP1 CALLDATALOAD PUSH1 0x1 PUSH1 0x1 PUSH1 0xA0 SHL SUB DUP2 AND DUP2 EQ PUSH2 0x16C1 JUMPI PUSH0 DUP1 REVERT JUMPDEST PUSH0 DUP1 DUP4 PUSH1 0x1F DUP5 ADD SLT PUSH2 0x170C JUMPI PUSH0 DUP1 REVERT JUMPDEST POP DUP2 CALLDATALOAD PUSH8 0xFFFFFFFFFFFFFFFF DUP2 GT ISZERO PUSH2 0x1723 JUMPI PUSH0 DUP1 REVERT JUMPDEST PUSH1 0x20 DUP4 ADD SWAP2 POP DUP4 PUSH1 0x20 DUP3 DUP6 ADD ADD GT ISZERO PUSH2 0x173A JUMPI PUSH0 DUP1 REVERT JUMPDEST SWAP3 POP SWAP3 SWAP1 POP JUMP JUMPDEST PUSH0 DUP1 PUSH0 DUP1 PUSH0 PUSH1 0x60 DUP7 DUP9 SUB SLT ISZERO PUSH2 0x1755 JUMPI PUSH0 DUP1 REVERT JUMPDEST DUP6 CALLDATALOAD PUSH8 0xFFFFFFFFFFFFFFFF DUP1 DUP3 GT ISZERO PUSH2 0x176C JUMPI PUSH0 DUP1 REVERT JUMPDEST DUP2 DUP9 ADD SWAP2 POP DUP9 PUSH1 0x1F DUP4 ADD SLT PUSH2 0x177F JUMPI PUSH0 DUP1 REVERT JUMPDEST DUP2 CALLDATALOAD DUP2 DUP2 GT ISZERO PUSH2 0x178D JUMPI PUSH0 DUP1 REVERT JUMPDEST DUP10 PUSH1 0x20 DUP3 PUSH1 0x5 SHL DUP6 ADD ADD GT ISZERO PUSH2 0x17A1 JUMPI PUSH0 DUP1 REVERT JUMPDEST PUSH1 0x20 DUP4 ADD SWAP8 POP DUP1 SWAP7 POP POP PUSH2 0x17B7 PUSH1 0x20 DUP10 ADD PUSH2 0x16E6 JUMP JUMPDEST SWAP5 POP PUSH1 0x40 DUP9 ADD CALLDATALOAD SWAP2 POP DUP1 DUP3 GT ISZERO PUSH2 0x17CC JUMPI PUSH0 DUP1 REVERT JUMPDEST POP PUSH2 0x17D9 DUP9 DUP3 DUP10 ADD PUSH2 0x16FC JUMP JUMPDEST SWAP7 SWAP10 SWAP6 SWAP9 POP SWAP4 SWAP7 POP SWAP3 SWAP5 SWAP4 SWAP3 POP POP POP JUMP JUMPDEST PUSH1 0x20 DUP1 DUP3 MSTORE DUP3 MLOAD DUP3 DUP3 ADD DUP2 SWAP1 MSTORE PUSH0 SWAP2 SWAP1 DUP5 DUP3 ADD SWAP1 PUSH1 0x40 DUP6 ADD SWAP1 DUP5 JUMPDEST DUP2 DUP2 LT ISZERO PUSH2 0x182A JUMPI DUP4 MLOAD PUSH1 0x1 PUSH1 0x1 PUSH1 0xA0 SHL SUB AND DUP4 MSTORE SWAP3 DUP5 ADD SWAP3 SWAP2 DUP5 ADD SWAP2 PUSH1 0x1 ADD PUSH2 0x1805 JUMP JUMPDEST POP SWAP1 SWAP7 SWAP6 POP POP POP POP POP POP JUMP JUMPDEST PUSH0 DUP2 MLOAD DUP1 DUP5 MSTORE PUSH1 0x20 DUP1 DUP6 ADD SWAP5 POP PUSH1 0x20 DUP5 ADD PUSH0 JUMPDEST DUP4 DUP2 LT ISZERO PUSH2 0x186F JUMPI DUP2 MLOAD PUSH1 0x1 PUSH1 0x1 PUSH1 0xE0 SHL SUB NOT AND DUP8 MSTORE SWAP6 DUP3 ADD SWAP6 SWAP1 DUP3 ADD SWAP1 PUSH1 0x1 ADD PUSH2 0x1849 JUMP JUMPDEST POP SWAP5 SWAP6 SWAP5 POP POP POP POP POP JUMP JUMPDEST PUSH0 PUSH1 0x20 DUP1 DUP4 ADD DUP2 DUP5 MSTORE DUP1 DUP6 MLOAD DUP1 DUP4 MSTORE PUSH1 0x40 SWAP3 POP PUSH1 0x40 DUP7 ADD SWAP2 POP PUSH1 0x40 DUP2 PUSH1 0x5 SHL DUP8 ADD ADD DUP5 DUP9 ADD PUSH0 JUMPDEST DUP4 DUP2 LT ISZERO PUSH2 0x18E9 JUMPI DUP9 DUP4 SUB PUSH1 0x3F NOT ADD DUP6 MSTORE DUP2 MLOAD DUP1 MLOAD PUSH1 0x1 PUSH1 0x1 PUSH1 0xA0 SHL SUB AND DUP5 MSTORE DUP8 ADD MLOAD DUP8 DUP5 ADD DUP8 SWAP1 MSTORE PUSH2 0x18D6 DUP8 DUP6 ADD DUP3 PUSH2 0x1836 JUMP JUMPDEST SWAP6 DUP9 ADD SWAP6 SWAP4 POP POP SWAP1 DUP7 ADD SWAP1 PUSH1 0x1 ADD PUSH2 0x18A1 JUMP JUMPDEST POP SWAP1 SWAP9 SWAP8 POP POP POP POP POP POP POP POP JUMP JUMPDEST PUSH0 PUSH1 0x20 DUP3 DUP5 SUB SLT ISZERO PUSH2 0x1907 JUMPI PUSH0 DUP1 REVERT JUMPDEST PUSH2 0x16DF DUP3 PUSH2 0x16E6 JUMP JUMPDEST PUSH1 0x20 DUP1 DUP3 MSTORE DUP3 MLOAD DUP3 DUP3 ADD DUP2 SWAP1 MSTORE PUSH0 SWAP2 SWAP1 DUP5 DUP3 ADD SWAP1 PUSH1 0x40 DUP6 ADD SWAP1 DUP5 JUMPDEST DUP2 DUP2 LT ISZERO PUSH2 0x182A JUMPI DUP4 MLOAD PUSH1 0x1 PUSH1 0x1 PUSH1 0xE0 SHL SUB NOT AND DUP4 MSTORE SWAP3 DUP5 ADD SWAP3 SWAP2 DUP5 ADD SWAP2 PUSH1 0x1 ADD PUSH2 0x192B JUMP JUMPDEST PUSH4 0x4E487B71 PUSH1 0xE0 SHL PUSH0 MSTORE PUSH1 0x41 PUSH1 0x4 MSTORE PUSH1 0x24 PUSH0 REVERT JUMPDEST PUSH1 0x40 MLOAD PUSH1 0x60 DUP2 ADD PUSH8 0xFFFFFFFFFFFFFFFF DUP2 GT DUP3 DUP3 LT OR ISZERO PUSH2 0x1988 JUMPI PUSH2 0x1988 PUSH2 0x1951 JUMP JUMPDEST PUSH1 0x40 MSTORE SWAP1 JUMP JUMPDEST PUSH1 0x40 MLOAD PUSH1 0x1F DUP3 ADD PUSH1 0x1F NOT AND DUP2 ADD PUSH8 0xFFFFFFFFFFFFFFFF DUP2 GT DUP3 DUP3 LT OR ISZERO PUSH2 0x19B7 JUMPI PUSH2 0x19B7 PUSH2 0x1951 JUMP JUMPDEST PUSH1 0x40 MSTORE SWAP2 SWAP1 POP JUMP JUMPDEST PUSH0 PUSH8 0xFFFFFFFFFFFFFFFF DUP3 GT ISZERO PUSH2 0x19D8 JUMPI PUSH2 0x19D8 PUSH2 0x1951 JUMP JUMPDEST POP PUSH1 0x5 SHL PUSH1 0x20 ADD SWAP1 JUMP JUMPDEST PUSH0 PUSH2 0x19F4 PUSH2 0x19EF DUP5 PUSH2 0x19BF JUMP JUMPDEST PUSH2 0x198E JUMP JUMPDEST DUP4 DUP2 MSTORE PUSH1 0x20 DUP1 DUP3 ADD SWAP2 SWAP1 PUSH1 0x5 DUP7 DUP2 SHL DUP7 ADD CALLDATASIZE DUP2 GT ISZERO PUSH2 0x1A11 JUMPI PUSH0 DUP1 REVERT JUMPDEST DUP7 JUMPDEST DUP2 DUP2 LT ISZERO PUSH2 0x1AF9 JUMPI DUP1 CALLDATALOAD PUSH8 0xFFFFFFFFFFFFFFFF DUP1 DUP3 GT ISZERO PUSH2 0x1A32 JUMPI PUSH0 DUP1 REVERT JUMPDEST DUP2 DUP11 ADD SWAP2 POP PUSH1 0x60 DUP3 CALLDATASIZE SUB SLT ISZERO PUSH2 0x1A46 JUMPI PUSH0 DUP1 REVERT JUMPDEST PUSH2 0x1A4E PUSH2 0x1965 JUMP JUMPDEST PUSH2 0x1A57 DUP4 PUSH2 0x16E6 JUMP JUMPDEST DUP2 MSTORE DUP7 DUP4 ADD CALLDATALOAD PUSH1 0x3 DUP2 LT PUSH2 0x1A69 JUMPI PUSH0 DUP1 REVERT JUMPDEST DUP2 DUP9 ADD MSTORE PUSH1 0x40 DUP4 DUP2 ADD CALLDATALOAD DUP4 DUP2 GT ISZERO PUSH2 0x1A7F JUMPI PUSH0 DUP1 REVERT JUMPDEST SWAP4 SWAP1 SWAP4 ADD SWAP3 CALLDATASIZE PUSH1 0x1F DUP6 ADD SLT PUSH2 0x1A92 JUMPI PUSH0 DUP1 REVERT JUMPDEST DUP4 CALLDATALOAD SWAP3 POP PUSH2 0x1AA2 PUSH2 0x19EF DUP5 PUSH2 0x19BF JUMP JUMPDEST DUP4 DUP2 MSTORE SWAP3 DUP8 SHL DUP5 ADD DUP9 ADD SWAP3 DUP9 DUP2 ADD SWAP1 CALLDATASIZE DUP6 GT ISZERO PUSH2 0x1ABD JUMPI PUSH0 DUP1 REVERT JUMPDEST SWAP5 DUP10 ADD SWAP5 JUMPDEST DUP5 DUP7 LT ISZERO PUSH2 0x1AE2 JUMPI PUSH2 0x1AD3 DUP7 PUSH2 0x16AA JUMP JUMPDEST DUP3 MSTORE SWAP5 DUP10 ADD SWAP5 SWAP1 DUP10 ADD SWAP1 PUSH2 0x1AC2 JUMP JUMPDEST SWAP2 DUP4 ADD SWAP2 SWAP1 SWAP2 MSTORE POP DUP9 MSTORE POP POP SWAP5 DUP4 ADD SWAP5 DUP4 ADD PUSH2 0x1A13 JUMP JUMPDEST POP SWAP3 SWAP8 SWAP7 POP POP POP POP POP POP POP JUMP JUMPDEST PUSH4 0x4E487B71 PUSH1 0xE0 SHL PUSH0 MSTORE PUSH1 0x32 PUSH1 0x4 MSTORE PUSH1 0x24 PUSH0 REVERT JUMPDEST PUSH4 0x4E487B71 PUSH1 0xE0 SHL PUSH0 MSTORE PUSH1 0x21 PUSH1 0x4 MSTORE PUSH1 0x24 PUSH0 REVERT JUMPDEST PUSH0 JUMPDEST DUP4 DUP2 LT ISZERO PUSH2 0x1B48 JUMPI DUP2 DUP2 ADD MLOAD DUP4 DUP3 ADD MSTORE PUSH1 0x20 ADD PUSH2 0x1B30 JUMP JUMPDEST POP POP PUSH0 SWAP2 ADD MSTORE JUMP JUMPDEST PUSH0 DUP2 MLOAD DUP1 DUP5 MSTORE PUSH2 0x1B67 DUP2 PUSH1 0x20 DUP7 ADD PUSH1 0x20 DUP7 ADD PUSH2 0x1B2E JUMP JUMPDEST PUSH1 0x1F ADD PUSH1 0x1F NOT AND SWAP3 SWAP1 SWAP3 ADD PUSH1 0x20 ADD SWAP3 SWAP2 POP POP JUMP JUMPDEST PUSH0 PUSH1 0x60 DUP1 DUP4 ADD PUSH1 0x60 DUP5 MSTORE DUP1 DUP8 MLOAD DUP1 DUP4 MSTORE PUSH1 0x80 DUP7 ADD SWAP2 POP PUSH1 0x80 DUP2 PUSH1 0x5 SHL DUP8 ADD ADD SWAP3 POP PUSH1 0x20 DUP1 DUP11 ADD PUSH0 JUMPDEST DUP4 DUP2 LT ISZERO PUSH2 0x1C12 JUMPI DUP9 DUP7 SUB PUSH1 0x7F NOT ADD DUP6 MSTORE DUP2 MLOAD DUP1 MLOAD PUSH1 0x1 PUSH1 0x1 PUSH1 0xA0 SHL SUB AND DUP8 MSTORE DUP4 DUP2 ADD MLOAD PUSH1 0x3 DUP2 LT PUSH2 0x1BE3 JUMPI PUSH4 0x4E487B71 PUSH1 0xE0 SHL PUSH0 MSTORE PUSH1 0x21 PUSH1 0x4 MSTORE PUSH1 0x24 PUSH0 REVERT JUMPDEST DUP8 DUP6 ADD MSTORE PUSH1 0x40 SWAP1 DUP2 ADD MLOAD SWAP1 DUP8 ADD DUP9 SWAP1 MSTORE PUSH2 0x1BFF DUP9 DUP9 ADD DUP3 PUSH2 0x1836 JUMP JUMPDEST SWAP7 POP POP SWAP4 DUP3 ADD SWAP4 SWAP1 DUP3 ADD SWAP1 PUSH1 0x1 ADD PUSH2 0x1BA3 JUMP JUMPDEST POP POP PUSH1 0x1 PUSH1 0x1 PUSH1 0xA0 SHL SUB DUP10 AND SWAP1 DUP8 ADD MSTORE POP POP DUP4 DUP2 SUB PUSH1 0x40 DUP6 ADD MSTORE PUSH2 0x1C36 DUP2 DUP7 PUSH2 0x1B50 JUMP JUMPDEST SWAP8 SWAP7 POP POP POP POP POP POP POP JUMP JUMPDEST PUSH4 0x4E487B71 PUSH1 0xE0 SHL PUSH0 MSTORE PUSH1 0x11 PUSH1 0x4 MSTORE PUSH1 0x24 PUSH0 REVERT JUMPDEST PUSH0 PUSH1 0x1 DUP3 ADD PUSH2 0x1C66 JUMPI PUSH2 0x1C66 PUSH2 0x1C41 JUMP JUMPDEST POP PUSH1 0x1 ADD SWAP1 JUMP JUMPDEST PUSH0 PUSH1 0xFF DUP3 AND PUSH1 0xFF DUP2 SUB PUSH2 0x1C82 JUMPI PUSH2 0x1C82 PUSH2 0x1C41 JUMP JUMPDEST PUSH1 0x1 ADD SWAP3 SWAP2 POP POP JUMP JUMPDEST PUSH0 DUP3 MLOAD PUSH2 0x1C9C DUP2 DUP5 PUSH1 0x20 DUP8 ADD PUSH2 0x1B2E JUMP JUMPDEST SWAP2 SWAP1 SWAP2 ADD SWAP3 SWAP2 POP POP JUMP INVALID LOG2 PUSH5 0x6970667358 0x22 SLT KECCAK256 PUSH20 0x7E3298DA18B6B9D3AE38E47C58D45FE6AD6E9C36 DUP4 BASEFEE 0xDD 0xB0 0xE 0xE0 LOG4 PUSH6 0xDF341A64736F PUSH13 0x63430008180033000000000000 "
				},
				"gasEstimates": {
					"creation": {
						"codeDepositCost": "1477600",
						"executionCost": "infinite",
						"totalCost": "infinite"
					},
					"external": {
						"": "infinite",
						"acceptOwnership()": "54588",
						"diamondCut((address,uint8,bytes4[])[],address,bytes)": "infinite",
						"facetAddress(bytes4)": "2645",
						"facetAddresses()": "infinite",
						"facetFunctionSelectors(address)": "infinite",
						"facets()": "infinite",
						"getFallbackAddress()": "2435",
						"nomineeOwner()": "2421",
						"owner()": "2432",
						"setFallbackAddress(address)": "26822",
						"supportsInterface(bytes4)": "2588",
						"transferOwnership(address)": "infinite"
					}
				},
				"methodIdentifiers": {
					"acceptOwnership()": "79ba5097",
					"diamondCut((address,uint8,bytes4[])[],address,bytes)": "1f931c1c",
					"facetAddress(bytes4)": "cdffacc6",
					"facetAddresses()": "52ef6b2c",
					"facetFunctionSelectors(address)": "adfca15e",
					"facets()": "7a0ed627",
					"getFallbackAddress()": "2c408059",
					"nomineeOwner()": "8ab5150a",
					"owner()": "8da5cb5b",
					"setFallbackAddress(address)": "91423765",
					"supportsInterface(bytes4)": "01ffc9a7",
					"transferOwnership(address)": "f2fde38b"
				}
			},
			"storageLayout": {
				"storage": [],
				"types": null
			},
			"userdoc": {
				"kind": "user",
				"methods": {
					"acceptOwnership()": {
						"notice": "accept transfer of contract ownership"
					},
					"diamondCut((address,uint8,bytes4[])[],address,bytes)": {
						"notice": "update diamond facets and optionally execute arbitrary initialization function"
					},
					"facetAddress(bytes4)": {
						"notice": "get the address of the facet associated with given selector"
					},
					"facetAddresses()": {
						"notice": "get addresses of all facets used by diamond"
					},
					"facetFunctionSelectors(address)": {
						"notice": "get all selectors for given facet address"
					},
					"facets()": {
						"notice": "get all facets and their selectors"
					},
					"getFallbackAddress()": {
						"notice": "query the address of the fallback implementation"
					},
					"nomineeOwner()": {
						"notice": "get the nominated owner who has permission to call acceptOwnership"
					},
					"owner()": {
						"notice": "get the ERC173 contract owner"
					},
					"setFallbackAddress(address)": {
						"notice": "set the address of the fallback implementation"
					},
					"supportsInterface(bytes4)": {
						"notice": "query whether contract has registered support for given interface"
					},
					"transferOwnership(address)": {
						"notice": "transfer contract ownership to new account"
					}
				},
				"version": 1
			}
		}
	}
}