{
	"Eip1822/Eip1822LogicContract.sol": {
		"Eip1822LogicContract": {
			"abi": [
				{
					"inputs": [
						{
							"internalType": "string",
							"name": "_nameOfCandidate",
							"type": "string"
						},
						{
							"internalType": "uint256",
							"name": "_voterCardNo",
							"type": "uint256"
						},
						{
							"internalType": "string",
							"name": "_partyName",
							"type": "string"
						}
					],
					"name": "addCandidateDetails",
					"outputs": [],
					"stateMutability": "nonpayable",
					"type": "function"
				},
				{
					"inputs": [
						{
							"internalType": "address",
							"name": "_voterAddress",
							"type": "address"
						},
						{
							"internalType": "uint256",
							"name": "_voterCardNo",
							"type": "uint256"
						},
						{
							"internalType": "uint256",
							"name": "_partyNumber",
							"type": "uint256"
						}
					],
					"name": "addVoterDetails",
					"outputs": [],
					"stateMutability": "nonpayable",
					"type": "function"
				},
				{
					"inputs": [
						{
							"internalType": "uint256",
							"name": "",
							"type": "uint256"
						}
					],
					"name": "candidateDetails",
					"outputs": [
						{
							"internalType": "string",
							"name": "nameOfCandidate",
							"type": "string"
						},
						{
							"internalType": "bytes32",
							"name": "voterCardNo",
							"type": "bytes32"
						},
						{
							"internalType": "string",
							"name": "partyName",
							"type": "string"
						},
						{
							"internalType": "uint256",
							"name": "totalVotes",
							"type": "uint256"
						}
					],
					"stateMutability": "view",
					"type": "function"
				},
				{
					"inputs": [
						{
							"internalType": "uint256",
							"name": "_voterCardNo",
							"type": "uint256"
						}
					],
					"name": "checkCandidateStatus",
					"outputs": [
						{
							"internalType": "bool",
							"name": "",
							"type": "bool"
						}
					],
					"stateMutability": "view",
					"type": "function"
				},
				{
					"inputs": [
						{
							"internalType": "uint256",
							"name": "_voterCardNo",
							"type": "uint256"
						}
					],
					"name": "checkVoterStatus",
					"outputs": [
						{
							"internalType": "bool",
							"name": "",
							"type": "bool"
						}
					],
					"stateMutability": "view",
					"type": "function"
				},
				{
					"inputs": [
						{
							"internalType": "bytes32",
							"name": "",
							"type": "bytes32"
						}
					],
					"name": "hasRegistered",
					"outputs": [
						{
							"internalType": "bool",
							"name": "",
							"type": "bool"
						}
					],
					"stateMutability": "view",
					"type": "function"
				},
				{
					"inputs": [
						{
							"internalType": "bytes32",
							"name": "",
							"type": "bytes32"
						}
					],
					"name": "hasVoted",
					"outputs": [
						{
							"internalType": "bool",
							"name": "",
							"type": "bool"
						}
					],
					"stateMutability": "view",
					"type": "function"
				},
				{
					"inputs": [
						{
							"internalType": "uint256",
							"name": "",
							"type": "uint256"
						}
					],
					"name": "listOfParties",
					"outputs": [
						{
							"internalType": "string",
							"name": "",
							"type": "string"
						}
					],
					"stateMutability": "view",
					"type": "function"
				},
				{
					"inputs": [],
					"name": "partyCounter",
					"outputs": [
						{
							"internalType": "uint256",
							"name": "",
							"type": "uint256"
						}
					],
					"stateMutability": "view",
					"type": "function"
				},
				{
					"inputs": [],
					"name": "result",
					"outputs": [
						{
							"internalType": "string",
							"name": "",
							"type": "string"
						}
					],
					"stateMutability": "nonpayable",
					"type": "function"
				},
				{
					"inputs": [],
					"name": "voterCounter",
					"outputs": [
						{
							"internalType": "uint256",
							"name": "",
							"type": "uint256"
						}
					],
					"stateMutability": "view",
					"type": "function"
				},
				{
					"inputs": [
						{
							"internalType": "bytes32",
							"name": "",
							"type": "bytes32"
						}
					],
					"name": "voterDetails",
					"outputs": [
						{
							"internalType": "address",
							"name": "voterAddress",
							"type": "address"
						},
						{
							"internalType": "uint256",
							"name": "partyNumber",
							"type": "uint256"
						}
					],
					"stateMutability": "view",
					"type": "function"
				},
				{
					"inputs": [],
					"name": "winner",
					"outputs": [
						{
							"internalType": "string",
							"name": "",
							"type": "string"
						}
					],
					"stateMutability": "view",
					"type": "function"
				}
			],
			"devdoc": {
				"kind": "dev",
				"methods": {},
				"version": 1
			},
			"evm": {
				"assembly": "    /* \"Eip1822/Eip1822LogicContract.sol\":724:3704  contract Eip1822LogicContract is Eip1822ProxiableContract {... */\n  mstore(0x40, 0x80)\n  callvalue\n  dup1\n  iszero\n  tag_1\n  jumpi\n  0x00\n  dup1\n  revert\ntag_1:\n  pop\n  dataSize(sub_0)\n  dup1\n  dataOffset(sub_0)\n  0x00\n  codecopy\n  0x00\n  return\nstop\n\nsub_0: assembly {\n        /* \"Eip1822/Eip1822LogicContract.sol\":724:3704  contract Eip1822LogicContract is Eip1822ProxiableContract {... */\n      mstore(0x40, 0x80)\n      callvalue\n      dup1\n      iszero\n      tag_1\n      jumpi\n      0x00\n      dup1\n      revert\n    tag_1:\n      pop\n      jumpi(tag_2, lt(calldatasize, 0x04))\n      shr(0xe0, calldataload(0x00))\n      dup1\n      0x65372147\n      gt\n      tag_16\n      jumpi\n      dup1\n      0xb2fb8e37\n      gt\n      tag_17\n      jumpi\n      dup1\n      0xb2fb8e37\n      eq\n      tag_12\n      jumpi\n      dup1\n      0xc93346ab\n      eq\n      tag_13\n      jumpi\n      dup1\n      0xdfbf53ae\n      eq\n      tag_14\n      jumpi\n      dup1\n      0xe9d729ae\n      eq\n      tag_15\n      jumpi\n      0x00\n      dup1\n      revert\n    tag_17:\n      dup1\n      0x65372147\n      eq\n      tag_9\n      jumpi\n      dup1\n      0x6b0eec1c\n      eq\n      tag_10\n      jumpi\n      dup1\n      0x7a26dd31\n      eq\n      tag_11\n      jumpi\n      0x00\n      dup1\n      revert\n    tag_16:\n      dup1\n      0x1e51c9ea\n      gt\n      tag_18\n      jumpi\n      dup1\n      0x1e51c9ea\n      eq\n      tag_6\n      jumpi\n      dup1\n      0x4d50ba3a\n      eq\n      tag_7\n      jumpi\n      dup1\n      0x6247e532\n      eq\n      tag_8\n      jumpi\n      0x00\n      dup1\n      revert\n    tag_18:\n      dup1\n      0x0500894d\n      eq\n      tag_3\n      jumpi\n      dup1\n      0x13732d79\n      eq\n      tag_4\n      jumpi\n      dup1\n      0x1b4613cb\n      eq\n      tag_5\n      jumpi\n    tag_2:\n      0x00\n      dup1\n      revert\n        /* \"Eip1822/Eip1822LogicContract.sol\":1254:1281  uint256 public partyCounter */\n    tag_3:\n      tag_19\n      sload(0x04)\n      dup2\n      jump\n    tag_19:\n      mload(0x40)\n        /* \"#utility.yul\":160:185   */\n      swap1\n      dup2\n      mstore\n        /* \"#utility.yul\":148:150   */\n      0x20\n        /* \"#utility.yul\":133:151   */\n      add\n        /* \"Eip1822/Eip1822LogicContract.sol\":1254:1281  uint256 public partyCounter */\n    tag_21:\n      mload(0x40)\n      dup1\n      swap2\n      sub\n      swap1\n      return\n        /* \"Eip1822/Eip1822LogicContract.sol\":1382:2111  function addCandidateDetails(... */\n    tag_4:\n      tag_23\n      tag_24\n      calldatasize\n      0x04\n      tag_25\n      jump\t// in\n    tag_24:\n      tag_26\n      jump\t// in\n    tag_23:\n      stop\n        /* \"Eip1822/Eip1822LogicContract.sol\":1156:1196  mapping(bytes32 => bool) public hasVoted */\n    tag_5:\n      tag_27\n      tag_28\n      calldatasize\n      0x04\n      tag_29\n      jump\t// in\n    tag_28:\n      mstore(0x20, 0x02)\n      0x00\n      swap1\n      dup2\n      mstore\n      0x40\n      swap1\n      keccak256\n      sload\n      0xff\n      and\n      dup2\n      jump\n    tag_27:\n      mload(0x40)\n        /* \"#utility.yul\":2075:2089   */\n      swap1\n      iszero\n        /* \"#utility.yul\":2068:2090   */\n      iszero\n        /* \"#utility.yul\":2050:2091   */\n      dup2\n      mstore\n        /* \"#utility.yul\":2038:2040   */\n      0x20\n        /* \"#utility.yul\":2023:2041   */\n      add\n        /* \"Eip1822/Eip1822LogicContract.sol\":1156:1196  mapping(bytes32 => bool) public hasVoted */\n      tag_21\n        /* \"#utility.yul\":1910:2097   */\n      jump\n        /* \"Eip1822/Eip1822LogicContract.sol\":1032:1084  mapping(bytes32 => VoterDetails) public voterDetails */\n    tag_6:\n      tag_33\n      tag_34\n      calldatasize\n      0x04\n      tag_29\n      jump\t// in\n    tag_34:\n      0x00\n      0x20\n      dup2\n      swap1\n      mstore\n      swap1\n      dup2\n      mstore\n      0x40\n      swap1\n      keccak256\n      dup1\n      sload\n      0x01\n      swap1\n      swap2\n      add\n      sload\n      0xffffffffffffffffffffffffffffffffffffffff\n      swap1\n      swap2\n      and\n      swap1\n      dup3\n      jump\n    tag_33:\n      0x40\n      dup1\n      mload\n        /* \"#utility.yul\":2306:2348   */\n      0xffffffffffffffffffffffffffffffffffffffff\n        /* \"#utility.yul\":2294:2349   */\n      swap1\n      swap4\n      and\n        /* \"#utility.yul\":2276:2350   */\n      dup4\n      mstore\n        /* \"#utility.yul\":2381:2383   */\n      0x20\n        /* \"#utility.yul\":2366:2384   */\n      dup4\n      add\n        /* \"#utility.yul\":2359:2393   */\n      swap2\n      swap1\n      swap2\n      mstore\n        /* \"#utility.yul\":2249:2267   */\n      add\n        /* \"Eip1822/Eip1822LogicContract.sol\":1032:1084  mapping(bytes32 => VoterDetails) public voterDetails */\n      tag_21\n        /* \"#utility.yul\":2102:2399   */\n      jump\n        /* \"Eip1822/Eip1822LogicContract.sol\":1287:1314  uint256 public voterCounter */\n    tag_7:\n      tag_19\n      sload(0x05)\n      dup2\n      jump\n        /* \"Eip1822/Eip1822LogicContract.sol\":1090:1150  mapping(uint256 => CandidateDetails) public candidateDetails */\n    tag_8:\n      tag_41\n      tag_42\n      calldatasize\n      0x04\n      tag_29\n      jump\t// in\n    tag_42:\n      tag_44\n      jump\t// in\n    tag_41:\n      mload(0x40)\n      tag_21\n      swap5\n      swap4\n      swap3\n      swap2\n      swap1\n      tag_46\n      jump\t// in\n        /* \"Eip1822/Eip1822LogicContract.sol\":3286:3702  function result() public override returns (string memory) {... */\n    tag_9:\n      tag_47\n      tag_48\n      jump\t// in\n    tag_47:\n      mload(0x40)\n      tag_21\n      swap2\n      swap1\n      tag_50\n      jump\t// in\n        /* \"Eip1822/Eip1822LogicContract.sol\":1202:1247  mapping(bytes32 => bool) public hasRegistered */\n    tag_10:\n      tag_27\n      tag_52\n      calldatasize\n      0x04\n      tag_29\n      jump\t// in\n    tag_52:\n      mstore(0x20, 0x03)\n      0x00\n      swap1\n      dup2\n      mstore\n      0x40\n      swap1\n      keccak256\n      sload\n      0xff\n      and\n      dup2\n      jump\n        /* \"Eip1822/Eip1822LogicContract.sol\":2366:3040  function addVoterDetails(... */\n    tag_11:\n      tag_23\n      tag_56\n      calldatasize\n      0x04\n      tag_57\n      jump\t// in\n    tag_56:\n      tag_58\n      jump\t// in\n        /* \"Eip1822/Eip1822LogicContract.sol\":2117:2360  function checkCandidateStatus(uint256 _voterCardNo)... */\n    tag_12:\n      tag_27\n      tag_60\n      calldatasize\n      0x04\n      tag_29\n      jump\t// in\n    tag_60:\n      tag_61\n      jump\t// in\n        /* \"Eip1822/Eip1822LogicContract.sol\":3046:3280  function checkVoterStatus(uint256 _voterCardNo)... */\n    tag_13:\n      tag_27\n      tag_64\n      calldatasize\n      0x04\n      tag_29\n      jump\t// in\n    tag_64:\n      tag_65\n      jump\t// in\n        /* \"Eip1822/Eip1822LogicContract.sol\":1355:1375  string public winner */\n    tag_14:\n      tag_47\n      tag_68\n      jump\t// in\n        /* \"Eip1822/Eip1822LogicContract.sol\":1320:1349  string[] public listOfParties */\n    tag_15:\n      tag_47\n      tag_71\n      calldatasize\n      0x04\n      tag_29\n      jump\t// in\n    tag_71:\n      tag_72\n      jump\t// in\n        /* \"Eip1822/Eip1822LogicContract.sol\":1382:2111  function addCandidateDetails(... */\n    tag_26:\n        /* \"Eip1822/Eip1822LogicContract.sol\":1547:1564  bytes32 voterCard */\n      0x00\n        /* \"Eip1822/Eip1822LogicContract.sol\":1594:1606  _voterCardNo */\n      dup3\n        /* \"Eip1822/Eip1822LogicContract.sol\":1577:1607  abi.encodePacked(_voterCardNo) */\n      add(0x20, mload(0x40))\n      tag_75\n      swap2\n        /* \"#utility.yul\":4402:4421   */\n      dup2\n      mstore\n        /* \"#utility.yul\":4446:4448   */\n      0x20\n        /* \"#utility.yul\":4437:4449   */\n      add\n      swap1\n        /* \"#utility.yul\":4273:4455   */\n      jump\n        /* \"Eip1822/Eip1822LogicContract.sol\":1577:1607  abi.encodePacked(_voterCardNo) */\n    tag_75:\n      0x40\n      dup1\n      mload\n      not(0x1f)\n      dup2\n      dup5\n      sub\n      add\n      dup2\n      mstore\n      swap2\n      dup2\n      mstore\n        /* \"Eip1822/Eip1822LogicContract.sol\":1567:1608  keccak256(abi.encodePacked(_voterCardNo)) */\n      dup2\n      mload\n        /* \"Eip1822/Eip1822LogicContract.sol\":1577:1607  abi.encodePacked(_voterCardNo) */\n      0x20\n        /* \"Eip1822/Eip1822LogicContract.sol\":1567:1608  keccak256(abi.encodePacked(_voterCardNo)) */\n      swap3\n      dup4\n      add\n      keccak256\n        /* \"Eip1822/Eip1822LogicContract.sol\":1639:1663  hasRegistered[voterCard] */\n      0x00\n      dup2\n      dup2\n      mstore\n        /* \"Eip1822/Eip1822LogicContract.sol\":1639:1652  hasRegistered */\n      0x03\n        /* \"Eip1822/Eip1822LogicContract.sol\":1639:1663  hasRegistered[voterCard] */\n      swap1\n      swap4\n      mstore\n      swap2\n      keccak256\n      sload\n        /* \"Eip1822/Eip1822LogicContract.sol\":1567:1608  keccak256(abi.encodePacked(_voterCardNo)) */\n      swap1\n      swap2\n      pop\n        /* \"Eip1822/Eip1822LogicContract.sol\":1639:1663  hasRegistered[voterCard] */\n      0xff\n      and\n        /* \"Eip1822/Eip1822LogicContract.sol\":1639:1672  hasRegistered[voterCard] == false */\n      iszero\n        /* \"Eip1822/Eip1822LogicContract.sol\":1618:1735  require(... */\n      tag_77\n      jumpi\n      mload(0x40)\n      shl(0xe5, 0x461bcd)\n      dup2\n      mstore\n        /* \"#utility.yul\":4662:4664   */\n      0x20\n        /* \"Eip1822/Eip1822LogicContract.sol\":1618:1735  require(... */\n      0x04\n      dup3\n      add\n        /* \"#utility.yul\":4644:4665   */\n      mstore\n        /* \"#utility.yul\":4701:4703   */\n      0x25\n        /* \"#utility.yul\":4681:4699   */\n      0x24\n      dup3\n      add\n        /* \"#utility.yul\":4674:4704   */\n      mstore\n        /* \"#utility.yul\":4740:4774   */\n      0x43616e6469646174652068617320616c7265616479206265656e207265676973\n        /* \"#utility.yul\":4720:4738   */\n      0x44\n      dup3\n      add\n        /* \"#utility.yul\":4713:4775   */\n      mstore\n        /* \"#utility.yul\":4811:4818   */\n      0x7465726564000000000000000000000000000000000000000000000000000000\n        /* \"#utility.yul\":4791:4809   */\n      0x64\n      dup3\n      add\n        /* \"#utility.yul\":4784:4819   */\n      mstore\n        /* \"#utility.yul\":4836:4855   */\n      0x84\n      add\n        /* \"Eip1822/Eip1822LogicContract.sol\":1618:1735  require(... */\n    tag_78:\n      mload(0x40)\n      dup1\n      swap2\n      sub\n      swap1\n      revert\n    tag_77:\n        /* \"Eip1822/Eip1822LogicContract.sol\":1768:1780  partyCounter */\n      sload(0x04)\n        /* \"Eip1822/Eip1822LogicContract.sol\":1745:1765  uint256 _partyNumber */\n      0x00\n        /* \"Eip1822/Eip1822LogicContract.sol\":1790:1820  candidateDetails[_partyNumber] */\n      dup2\n      dup2\n      mstore\n        /* \"Eip1822/Eip1822LogicContract.sol\":1790:1806  candidateDetails */\n      0x01\n        /* \"Eip1822/Eip1822LogicContract.sol\":1790:1820  candidateDetails[_partyNumber] */\n      0x20\n      swap1\n      dup2\n      mstore\n      0x40\n      swap1\n      swap2\n      keccak256\n        /* \"Eip1822/Eip1822LogicContract.sol\":1790:1855  candidateDetails[_partyNumber].nameOfCandidate = _nameOfCandidate */\n      dup7\n      mload\n      tag_80\n      swap3\n      dup9\n      add\n      swap1\n      tag_81\n      jump\t// in\n    tag_80:\n      pop\n        /* \"Eip1822/Eip1822LogicContract.sol\":1865:1895  candidateDetails[_partyNumber] */\n      0x00\n      dup2\n      dup2\n      mstore\n        /* \"Eip1822/Eip1822LogicContract.sol\":1865:1881  candidateDetails */\n      0x01\n        /* \"Eip1822/Eip1822LogicContract.sol\":1865:1895  candidateDetails[_partyNumber] */\n      0x20\n      dup2\n      dup2\n      mstore\n      0x40\n      swap1\n      swap3\n      keccak256\n        /* \"Eip1822/Eip1822LogicContract.sol\":1865:1907  candidateDetails[_partyNumber].voterCardNo */\n      swap1\n      dup2\n      add\n        /* \"Eip1822/Eip1822LogicContract.sol\":1865:1919  candidateDetails[_partyNumber].voterCardNo = voterCard */\n      dup5\n      swap1\n      sstore\n        /* \"Eip1822/Eip1822LogicContract.sol\":1929:1982  candidateDetails[_partyNumber].partyName = _partyName */\n      dup5\n      mload\n      tag_82\n      swap3\n        /* \"Eip1822/Eip1822LogicContract.sol\":1929:1969  candidateDetails[_partyNumber].partyName */\n      0x02\n      swap1\n      swap3\n      add\n      swap2\n        /* \"Eip1822/Eip1822LogicContract.sol\":1929:1982  candidateDetails[_partyNumber].partyName = _partyName */\n      dup7\n      add\n      swap1\n      tag_81\n      jump\t// in\n    tag_82:\n      pop\n        /* \"Eip1822/Eip1822LogicContract.sol\":1992:2016  hasRegistered[voterCard] */\n      0x00\n      dup3\n      dup2\n      mstore\n        /* \"Eip1822/Eip1822LogicContract.sol\":1992:2005  hasRegistered */\n      0x03\n        /* \"Eip1822/Eip1822LogicContract.sol\":1992:2016  hasRegistered[voterCard] */\n      0x20\n      swap1\n      dup2\n      mstore\n      0x40\n      dup3\n      keccak256\n        /* \"Eip1822/Eip1822LogicContract.sol\":1992:2023  hasRegistered[voterCard] = true */\n      dup1\n      sload\n      not(0xff)\n      and\n        /* \"Eip1822/Eip1822LogicContract.sol\":2019:2023  true */\n      0x01\n        /* \"Eip1822/Eip1822LogicContract.sol\":1992:2023  hasRegistered[voterCard] = true */\n      swap1\n      dup2\n      or\n      swap1\n      swap2\n      sstore\n        /* \"Eip1822/Eip1822LogicContract.sol\":2033:2046  listOfParties */\n      0x06\n        /* \"Eip1822/Eip1822LogicContract.sol\":2033:2063  listOfParties.push(_partyName) */\n      dup1\n      sload\n      swap2\n      dup3\n      add\n      dup2\n      sstore\n      swap1\n      swap3\n      mstore\n      dup5\n      mload\n      tag_84\n      swap3\n      0xf652222313e28459528d920b65115c16c04f3efc82aaedc97be59f3f377c0d3f\n      add\n      swap2\n      dup7\n      add\n      swap1\n      tag_81\n      jump\t// in\n    tag_84:\n      pop\n        /* \"Eip1822/Eip1822LogicContract.sol\":2088:2100  partyCounter */\n      sload(0x04)\n        /* \"Eip1822/Eip1822LogicContract.sol\":2088:2104  partyCounter + 1 */\n      tag_85\n      swap1\n        /* \"Eip1822/Eip1822LogicContract.sol\":2103:2104  1 */\n      0x01\n        /* \"Eip1822/Eip1822LogicContract.sol\":2088:2104  partyCounter + 1 */\n      tag_86\n      jump\t// in\n    tag_85:\n        /* \"Eip1822/Eip1822LogicContract.sol\":2073:2085  partyCounter */\n      0x04\n        /* \"Eip1822/Eip1822LogicContract.sol\":2073:2104  partyCounter = partyCounter + 1 */\n      sstore\n      pop\n      pop\n      pop\n      pop\n      pop\n        /* \"Eip1822/Eip1822LogicContract.sol\":1382:2111  function addCandidateDetails(... */\n      jump\t// out\n        /* \"Eip1822/Eip1822LogicContract.sol\":1090:1150  mapping(uint256 => CandidateDetails) public candidateDetails */\n    tag_44:\n      mstore(0x20, 0x01)\n      0x00\n      swap1\n      dup2\n      mstore\n      0x40\n      swap1\n      keccak256\n      dup1\n      sload\n      dup2\n      swap1\n      tag_87\n      swap1\n      tag_88\n      jump\t// in\n    tag_87:\n      dup1\n      0x1f\n      add\n      0x20\n      dup1\n      swap2\n      div\n      mul\n      0x20\n      add\n      mload(0x40)\n      swap1\n      dup2\n      add\n      0x40\n      mstore\n      dup1\n      swap3\n      swap2\n      swap1\n      dup2\n      dup2\n      mstore\n      0x20\n      add\n      dup3\n      dup1\n      sload\n      tag_89\n      swap1\n      tag_88\n      jump\t// in\n    tag_89:\n      dup1\n      iszero\n      tag_90\n      jumpi\n      dup1\n      0x1f\n      lt\n      tag_91\n      jumpi\n      0x0100\n      dup1\n      dup4\n      sload\n      div\n      mul\n      dup4\n      mstore\n      swap2\n      0x20\n      add\n      swap2\n      jump(tag_90)\n    tag_91:\n      dup3\n      add\n      swap2\n      swap1\n      0x00\n      mstore\n      keccak256(0x00, 0x20)\n      swap1\n    tag_92:\n      dup2\n      sload\n      dup2\n      mstore\n      swap1\n      0x01\n      add\n      swap1\n      0x20\n      add\n      dup1\n      dup4\n      gt\n      tag_92\n      jumpi\n      dup3\n      swap1\n      sub\n      0x1f\n      and\n      dup3\n      add\n      swap2\n    tag_90:\n      pop\n      pop\n      pop\n      pop\n      pop\n      swap1\n      dup1\n      0x01\n      add\n      sload\n      swap1\n      dup1\n      0x02\n      add\n      dup1\n      sload\n      tag_93\n      swap1\n      tag_88\n      jump\t// in\n    tag_93:\n      dup1\n      0x1f\n      add\n      0x20\n      dup1\n      swap2\n      div\n      mul\n      0x20\n      add\n      mload(0x40)\n      swap1\n      dup2\n      add\n      0x40\n      mstore\n      dup1\n      swap3\n      swap2\n      swap1\n      dup2\n      dup2\n      mstore\n      0x20\n      add\n      dup3\n      dup1\n      sload\n      tag_94\n      swap1\n      tag_88\n      jump\t// in\n    tag_94:\n      dup1\n      iszero\n      tag_95\n      jumpi\n      dup1\n      0x1f\n      lt\n      tag_96\n      jumpi\n      0x0100\n      dup1\n      dup4\n      sload\n      div\n      mul\n      dup4\n      mstore\n      swap2\n      0x20\n      add\n      swap2\n      jump(tag_95)\n    tag_96:\n      dup3\n      add\n      swap2\n      swap1\n      0x00\n      mstore\n      keccak256(0x00, 0x20)\n      swap1\n    tag_97:\n      dup2\n      sload\n      dup2\n      mstore\n      swap1\n      0x01\n      add\n      swap1\n      0x20\n      add\n      dup1\n      dup4\n      gt\n      tag_97\n      jumpi\n      dup3\n      swap1\n      sub\n      0x1f\n      and\n      dup3\n      add\n      swap2\n    tag_95:\n      pop\n      pop\n      pop\n      pop\n      pop\n      swap1\n      dup1\n      0x03\n      add\n      sload\n      swap1\n      pop\n      dup5\n      jump\t// out\n        /* \"Eip1822/Eip1822LogicContract.sol\":3286:3702  function result() public override returns (string memory) {... */\n    tag_48:\n        /* \"Eip1822/Eip1822LogicContract.sol\":3329:3342  string memory */\n      0x60\n        /* \"Eip1822/Eip1822LogicContract.sol\":3354:3366  uint256 temp */\n      0x00\n        /* \"Eip1822/Eip1822LogicContract.sol\":3376:3389  uint256 count */\n      dup1\n        /* \"Eip1822/Eip1822LogicContract.sol\":3404:3413  uint256 i */\n      0x00\n        /* \"Eip1822/Eip1822LogicContract.sol\":3399:3614  for (uint256 i = 0; i < listOfParties.length; i++) {... */\n    tag_99:\n        /* \"Eip1822/Eip1822LogicContract.sol\":3423:3436  listOfParties */\n      0x06\n        /* \"Eip1822/Eip1822LogicContract.sol\":3423:3443  listOfParties.length */\n      sload\n        /* \"Eip1822/Eip1822LogicContract.sol\":3419:3443  i < listOfParties.length */\n      dup2\n      lt\n        /* \"Eip1822/Eip1822LogicContract.sol\":3399:3614  for (uint256 i = 0; i < listOfParties.length; i++) {... */\n      iszero\n      tag_100\n      jumpi\n        /* \"Eip1822/Eip1822LogicContract.sol\":3475:3494  candidateDetails[i] */\n      0x00\n      dup2\n      dup2\n      mstore\n        /* \"Eip1822/Eip1822LogicContract.sol\":3475:3491  candidateDetails */\n      0x01\n        /* \"Eip1822/Eip1822LogicContract.sol\":3475:3494  candidateDetails[i] */\n      0x20\n      mstore\n      0x40\n      swap1\n      keccak256\n        /* \"Eip1822/Eip1822LogicContract.sol\":3475:3505  candidateDetails[i].totalVotes */\n      0x03\n      add\n      sload\n        /* \"Eip1822/Eip1822LogicContract.sol\":3468:3505  temp < candidateDetails[i].totalVotes */\n      dup4\n      lt\n        /* \"Eip1822/Eip1822LogicContract.sol\":3464:3604  if (temp < candidateDetails[i].totalVotes) {... */\n      iszero\n      tag_102\n      jumpi\n        /* \"Eip1822/Eip1822LogicContract.sol\":3532:3551  candidateDetails[i] */\n      0x00\n      dup2\n      dup2\n      mstore\n        /* \"Eip1822/Eip1822LogicContract.sol\":3532:3548  candidateDetails */\n      0x01\n        /* \"Eip1822/Eip1822LogicContract.sol\":3532:3551  candidateDetails[i] */\n      0x20\n      mstore\n      0x40\n      swap1\n      keccak256\n        /* \"Eip1822/Eip1822LogicContract.sol\":3532:3562  candidateDetails[i].totalVotes */\n      0x03\n      add\n      sload\n      swap3\n      pop\n        /* \"Eip1822/Eip1822LogicContract.sol\":3549:3550  i */\n      swap1\n      pop\n      dup1\n        /* \"Eip1822/Eip1822LogicContract.sol\":3464:3604  if (temp < candidateDetails[i].totalVotes) {... */\n    tag_102:\n        /* \"Eip1822/Eip1822LogicContract.sol\":3445:3448  i++ */\n      dup1\n      tag_103\n      dup2\n      tag_104\n      jump\t// in\n    tag_103:\n      swap2\n      pop\n      pop\n        /* \"Eip1822/Eip1822LogicContract.sol\":3399:3614  for (uint256 i = 0; i < listOfParties.length; i++) {... */\n      jump(tag_99)\n    tag_100:\n      pop\n        /* \"Eip1822/Eip1822LogicContract.sol\":3633:3656  candidateDetails[count] */\n      0x00\n      dup2\n      dup2\n      mstore\n        /* \"Eip1822/Eip1822LogicContract.sol\":3633:3649  candidateDetails */\n      0x01\n        /* \"Eip1822/Eip1822LogicContract.sol\":3633:3656  candidateDetails[count] */\n      0x20\n      mstore\n      0x40\n      swap1\n      keccak256\n        /* \"Eip1822/Eip1822LogicContract.sol\":3624:3672  winner = candidateDetails[count].nameOfCandidate */\n      dup1\n      sload\n        /* \"Eip1822/Eip1822LogicContract.sol\":3624:3630  winner */\n      0x07\n      swap2\n        /* \"Eip1822/Eip1822LogicContract.sol\":3633:3656  candidateDetails[count] */\n      swap1\n        /* \"Eip1822/Eip1822LogicContract.sol\":3624:3672  winner = candidateDetails[count].nameOfCandidate */\n      tag_105\n      swap1\n      tag_88\n      jump\t// in\n    tag_105:\n      tag_106\n      swap3\n      swap2\n      swap1\n      tag_107\n      jump\t// in\n    tag_106:\n      pop\n        /* \"Eip1822/Eip1822LogicContract.sol\":3689:3695  winner */\n      0x07\n        /* \"Eip1822/Eip1822LogicContract.sol\":3682:3695  return winner */\n      dup1\n      sload\n      tag_108\n      swap1\n      tag_88\n      jump\t// in\n    tag_108:\n      dup1\n      0x1f\n      add\n      0x20\n      dup1\n      swap2\n      div\n      mul\n      0x20\n      add\n      mload(0x40)\n      swap1\n      dup2\n      add\n      0x40\n      mstore\n      dup1\n      swap3\n      swap2\n      swap1\n      dup2\n      dup2\n      mstore\n      0x20\n      add\n      dup3\n      dup1\n      sload\n      tag_109\n      swap1\n      tag_88\n      jump\t// in\n    tag_109:\n      dup1\n      iszero\n      tag_110\n      jumpi\n      dup1\n      0x1f\n      lt\n      tag_111\n      jumpi\n      0x0100\n      dup1\n      dup4\n      sload\n      div\n      mul\n      dup4\n      mstore\n      swap2\n      0x20\n      add\n      swap2\n      jump(tag_110)\n    tag_111:\n      dup3\n      add\n      swap2\n      swap1\n      0x00\n      mstore\n      keccak256(0x00, 0x20)\n      swap1\n    tag_112:\n      dup2\n      sload\n      dup2\n      mstore\n      swap1\n      0x01\n      add\n      swap1\n      0x20\n      add\n      dup1\n      dup4\n      gt\n      tag_112\n      jumpi\n      dup3\n      swap1\n      sub\n      0x1f\n      and\n      dup3\n      add\n      swap2\n    tag_110:\n      pop\n      pop\n      pop\n      pop\n      pop\n      swap3\n      pop\n      pop\n      pop\n        /* \"Eip1822/Eip1822LogicContract.sol\":3286:3702  function result() public override returns (string memory) {... */\n      swap1\n      jump\t// out\n        /* \"Eip1822/Eip1822LogicContract.sol\":2366:3040  function addVoterDetails(... */\n    tag_58:\n        /* \"Eip1822/Eip1822LogicContract.sol\":2529:2541  voterCounter */\n      sload(0x05)\n        /* \"Eip1822/Eip1822LogicContract.sol\":2529:2545  voterCounter + 1 */\n      tag_114\n      swap1\n        /* \"Eip1822/Eip1822LogicContract.sol\":2544:2545  1 */\n      0x01\n        /* \"Eip1822/Eip1822LogicContract.sol\":2529:2545  voterCounter + 1 */\n      tag_86\n      jump\t// in\n    tag_114:\n        /* \"Eip1822/Eip1822LogicContract.sol\":2514:2526  voterCounter */\n      0x05\n        /* \"Eip1822/Eip1822LogicContract.sol\":2514:2545  voterCounter = voterCounter + 1 */\n      sstore\n        /* \"Eip1822/Eip1822LogicContract.sol\":2585:2615  abi.encodePacked(_voterCardNo) */\n      0x40\n      dup1\n      mload\n      0x20\n      dup1\n      dup3\n      add\n        /* \"#utility.yul\":4402:4421   */\n      dup6\n      swap1\n      mstore\n        /* \"Eip1822/Eip1822LogicContract.sol\":2585:2615  abi.encodePacked(_voterCardNo) */\n      dup3\n      mload\n      dup1\n      dup4\n      sub\n      dup3\n      add\n      dup2\n      mstore\n        /* \"#utility.yul\":4437:4449   */\n      swap2\n      dup4\n      add\n        /* \"Eip1822/Eip1822LogicContract.sol\":2585:2615  abi.encodePacked(_voterCardNo) */\n      dup4\n      mstore\n        /* \"Eip1822/Eip1822LogicContract.sol\":2575:2616  keccak256(abi.encodePacked(_voterCardNo)) */\n      dup2\n      mload\n      swap2\n      dup2\n      add\n      swap2\n      swap1\n      swap2\n      keccak256\n        /* \"Eip1822/Eip1822LogicContract.sol\":2555:2572  bytes32 voterCard */\n      0x00\n        /* \"Eip1822/Eip1822LogicContract.sol\":2634:2653  hasVoted[voterCard] */\n      dup2\n      dup2\n      mstore\n        /* \"Eip1822/Eip1822LogicContract.sol\":2634:2642  hasVoted */\n      0x02\n        /* \"Eip1822/Eip1822LogicContract.sol\":2634:2653  hasVoted[voterCard] */\n      swap1\n      swap3\n      mstore\n      swap2\n      swap1\n      keccak256\n      sload\n      0xff\n      and\n        /* \"Eip1822/Eip1822LogicContract.sol\":2634:2662  hasVoted[voterCard] == false */\n      iszero\n        /* \"Eip1822/Eip1822LogicContract.sol\":2626:2694  require(hasVoted[voterCard] == false, \"Candidate has already voted\") */\n      tag_116\n      jumpi\n      mload(0x40)\n      shl(0xe5, 0x461bcd)\n      dup2\n      mstore\n        /* \"#utility.yul\":5972:5974   */\n      0x20\n        /* \"Eip1822/Eip1822LogicContract.sol\":2626:2694  require(hasVoted[voterCard] == false, \"Candidate has already voted\") */\n      0x04\n      dup3\n      add\n        /* \"#utility.yul\":5954:5975   */\n      mstore\n        /* \"#utility.yul\":6011:6013   */\n      0x1b\n        /* \"#utility.yul\":5991:6009   */\n      0x24\n      dup3\n      add\n        /* \"#utility.yul\":5984:6014   */\n      mstore\n        /* \"#utility.yul\":6050:6079   */\n      0x43616e6469646174652068617320616c726561647920766f7465640000000000\n        /* \"#utility.yul\":6030:6048   */\n      0x44\n      dup3\n      add\n        /* \"#utility.yul\":6023:6080   */\n      mstore\n        /* \"#utility.yul\":6097:6115   */\n      0x64\n      add\n        /* \"Eip1822/Eip1822LogicContract.sol\":2626:2694  require(hasVoted[voterCard] == false, \"Candidate has already voted\") */\n      tag_78\n        /* \"#utility.yul\":5770:6121   */\n      jump\n        /* \"Eip1822/Eip1822LogicContract.sol\":2626:2694  require(hasVoted[voterCard] == false, \"Candidate has already voted\") */\n    tag_116:\n        /* \"Eip1822/Eip1822LogicContract.sol\":2725:2738  listOfParties */\n      0x06\n        /* \"Eip1822/Eip1822LogicContract.sol\":2725:2745  listOfParties.length */\n      sload\n        /* \"Eip1822/Eip1822LogicContract.sol\":2749:2750  2 */\n      0x02\n      gt\n        /* \"Eip1822/Eip1822LogicContract.sol\":2725:2750  listOfParties.length >= 2 */\n      iszero\n        /* \"Eip1822/Eip1822LogicContract.sol\":2704:2819  require(... */\n      tag_119\n      jumpi\n      mload(0x40)\n      shl(0xe5, 0x461bcd)\n      dup2\n      mstore\n        /* \"#utility.yul\":6328:6330   */\n      0x20\n        /* \"Eip1822/Eip1822LogicContract.sol\":2704:2819  require(... */\n      0x04\n      dup3\n      add\n        /* \"#utility.yul\":6310:6331   */\n      mstore\n        /* \"#utility.yul\":6367:6369   */\n      0x2b\n        /* \"#utility.yul\":6347:6365   */\n      0x24\n      dup3\n      add\n        /* \"#utility.yul\":6340:6370   */\n      mstore\n        /* \"#utility.yul\":6406:6440   */\n      0x54686572652063616e277420626520656c656374696f6e207769746820612073\n        /* \"#utility.yul\":6386:6404   */\n      0x44\n      dup3\n      add\n        /* \"#utility.yul\":6379:6441   */\n      mstore\n        /* \"#utility.yul\":6477:6490   */\n      0x696e676c65207061727479000000000000000000000000000000000000000000\n        /* \"#utility.yul\":6457:6475   */\n      0x64\n      dup3\n      add\n        /* \"#utility.yul\":6450:6491   */\n      mstore\n        /* \"#utility.yul\":6508:6527   */\n      0x84\n      add\n        /* \"Eip1822/Eip1822LogicContract.sol\":2704:2819  require(... */\n      tag_78\n        /* \"#utility.yul\":6126:6533   */\n      jump\n        /* \"Eip1822/Eip1822LogicContract.sol\":2704:2819  require(... */\n    tag_119:\n        /* \"Eip1822/Eip1822LogicContract.sol\":2829:2841  voterDetails */\n      0x00\n        /* \"Eip1822/Eip1822LogicContract.sol\":2829:2852  voterDetails[voterCard] */\n      dup2\n      dup2\n      mstore\n      0x20\n      dup2\n      dup2\n      mstore\n      0x40\n      dup1\n      dup4\n      keccak256\n        /* \"Eip1822/Eip1822LogicContract.sol\":2829:2881  voterDetails[voterCard].voterAddress = _voterAddress */\n      dup1\n      sload\n      0xffffffffffffffffffffffff0000000000000000000000000000000000000000\n      and\n      0xffffffffffffffffffffffffffffffffffffffff\n      dup10\n      and\n      or\n      dup2\n      sstore\n      0x01\n        /* \"Eip1822/Eip1822LogicContract.sol\":2891:2926  voterDetails[voterCard].partyNumber */\n      swap1\n      dup2\n      add\n        /* \"Eip1822/Eip1822LogicContract.sol\":2891:2941  voterDetails[voterCard].partyNumber = _partyNumber */\n      dup7\n      swap1\n      sstore\n        /* \"Eip1822/Eip1822LogicContract.sol\":2951:2981  candidateDetails[_partyNumber] */\n      dup6\n      dup5\n      mstore\n      swap2\n      dup3\n      swap1\n      mstore\n      dup3\n      keccak256\n        /* \"Eip1822/Eip1822LogicContract.sol\":2951:2992  candidateDetails[_partyNumber].totalVotes */\n      0x03\n      add\n        /* \"Eip1822/Eip1822LogicContract.sol\":2951:2997  candidateDetails[_partyNumber].totalVotes += 1 */\n      dup1\n      sload\n      swap2\n      swap3\n        /* \"Eip1822/Eip1822LogicContract.sol\":2951:2992  candidateDetails[_partyNumber].totalVotes */\n      swap1\n      swap2\n        /* \"Eip1822/Eip1822LogicContract.sol\":2951:2997  candidateDetails[_partyNumber].totalVotes += 1 */\n      tag_122\n      swap1\n      dup5\n      swap1\n      tag_86\n      jump\t// in\n    tag_122:\n      swap1\n      swap2\n      sstore\n      pop\n      pop\n        /* \"Eip1822/Eip1822LogicContract.sol\":3007:3026  hasVoted[voterCard] */\n      0x00\n      swap1\n      dup2\n      mstore\n        /* \"Eip1822/Eip1822LogicContract.sol\":3007:3015  hasVoted */\n      0x02\n        /* \"Eip1822/Eip1822LogicContract.sol\":3007:3026  hasVoted[voterCard] */\n      0x20\n      mstore\n      0x40\n      swap1\n      keccak256\n        /* \"Eip1822/Eip1822LogicContract.sol\":3007:3033  hasVoted[voterCard] = true */\n      dup1\n      sload\n      not(0xff)\n      and\n        /* \"Eip1822/Eip1822LogicContract.sol\":3029:3033  true */\n      0x01\n        /* \"Eip1822/Eip1822LogicContract.sol\":3007:3033  hasVoted[voterCard] = true */\n      or\n      swap1\n      sstore\n      pop\n      pop\n      pop\n        /* \"Eip1822/Eip1822LogicContract.sol\":2366:3040  function addVoterDetails(... */\n      jump\t// out\n        /* \"Eip1822/Eip1822LogicContract.sol\":2117:2360  function checkCandidateStatus(uint256 _voterCardNo)... */\n    tag_61:\n        /* \"Eip1822/Eip1822LogicContract.sol\":2231:2235  bool */\n      0x00\n        /* \"Eip1822/Eip1822LogicContract.sol\":2251:2268  bytes32 voterCard */\n      dup1\n        /* \"Eip1822/Eip1822LogicContract.sol\":2298:2310  _voterCardNo */\n      dup3\n        /* \"Eip1822/Eip1822LogicContract.sol\":2281:2311  abi.encodePacked(_voterCardNo) */\n      add(0x20, mload(0x40))\n      tag_124\n      swap2\n        /* \"#utility.yul\":4402:4421   */\n      dup2\n      mstore\n        /* \"#utility.yul\":4446:4448   */\n      0x20\n        /* \"#utility.yul\":4437:4449   */\n      add\n      swap1\n        /* \"#utility.yul\":4273:4455   */\n      jump\n        /* \"Eip1822/Eip1822LogicContract.sol\":2281:2311  abi.encodePacked(_voterCardNo) */\n    tag_124:\n      0x40\n      dup1\n      mload\n      not(0x1f)\n      dup2\n      dup5\n      sub\n      add\n      dup2\n      mstore\n      swap2\n      dup2\n      mstore\n        /* \"Eip1822/Eip1822LogicContract.sol\":2271:2312  keccak256(abi.encodePacked(_voterCardNo)) */\n      dup2\n      mload\n        /* \"Eip1822/Eip1822LogicContract.sol\":2281:2311  abi.encodePacked(_voterCardNo) */\n      0x20\n        /* \"Eip1822/Eip1822LogicContract.sol\":2271:2312  keccak256(abi.encodePacked(_voterCardNo)) */\n      swap3\n      dup4\n      add\n      keccak256\n        /* \"Eip1822/Eip1822LogicContract.sol\":2329:2353  hasRegistered[voterCard] */\n      0x00\n      swap1\n      dup2\n      mstore\n        /* \"Eip1822/Eip1822LogicContract.sol\":2329:2342  hasRegistered */\n      0x03\n        /* \"Eip1822/Eip1822LogicContract.sol\":2329:2353  hasRegistered[voterCard] */\n      swap1\n      swap3\n      mstore\n      swap1\n      keccak256\n      sload\n      0xff\n      and\n      swap4\n        /* \"Eip1822/Eip1822LogicContract.sol\":2117:2360  function checkCandidateStatus(uint256 _voterCardNo)... */\n      swap3\n      pop\n      pop\n      pop\n      jump\t// out\n        /* \"Eip1822/Eip1822LogicContract.sol\":3046:3280  function checkVoterStatus(uint256 _voterCardNo)... */\n    tag_65:\n        /* \"Eip1822/Eip1822LogicContract.sol\":3156:3160  bool */\n      0x00\n        /* \"Eip1822/Eip1822LogicContract.sol\":3176:3193  bytes32 voterCard */\n      dup1\n        /* \"Eip1822/Eip1822LogicContract.sol\":3223:3235  _voterCardNo */\n      dup3\n        /* \"Eip1822/Eip1822LogicContract.sol\":3206:3236  abi.encodePacked(_voterCardNo) */\n      add(0x20, mload(0x40))\n      tag_126\n      swap2\n        /* \"#utility.yul\":4402:4421   */\n      dup2\n      mstore\n        /* \"#utility.yul\":4446:4448   */\n      0x20\n        /* \"#utility.yul\":4437:4449   */\n      add\n      swap1\n        /* \"#utility.yul\":4273:4455   */\n      jump\n        /* \"Eip1822/Eip1822LogicContract.sol\":3206:3236  abi.encodePacked(_voterCardNo) */\n    tag_126:\n      0x40\n      dup1\n      mload\n      not(0x1f)\n      dup2\n      dup5\n      sub\n      add\n      dup2\n      mstore\n      swap2\n      dup2\n      mstore\n        /* \"Eip1822/Eip1822LogicContract.sol\":3196:3237  keccak256(abi.encodePacked(_voterCardNo)) */\n      dup2\n      mload\n        /* \"Eip1822/Eip1822LogicContract.sol\":3206:3236  abi.encodePacked(_voterCardNo) */\n      0x20\n        /* \"Eip1822/Eip1822LogicContract.sol\":3196:3237  keccak256(abi.encodePacked(_voterCardNo)) */\n      swap3\n      dup4\n      add\n      keccak256\n        /* \"Eip1822/Eip1822LogicContract.sol\":3254:3273  hasVoted[voterCard] */\n      0x00\n      swap1\n      dup2\n      mstore\n        /* \"Eip1822/Eip1822LogicContract.sol\":3254:3262  hasVoted */\n      0x02\n        /* \"Eip1822/Eip1822LogicContract.sol\":3254:3273  hasVoted[voterCard] */\n      swap1\n      swap3\n      mstore\n      swap1\n      keccak256\n      sload\n      0xff\n      and\n      swap4\n        /* \"Eip1822/Eip1822LogicContract.sol\":3046:3280  function checkVoterStatus(uint256 _voterCardNo)... */\n      swap3\n      pop\n      pop\n      pop\n      jump\t// out\n        /* \"Eip1822/Eip1822LogicContract.sol\":1355:1375  string public winner */\n    tag_68:\n      0x07\n      dup1\n      sload\n      tag_127\n      swap1\n      tag_88\n      jump\t// in\n    tag_127:\n      dup1\n      0x1f\n      add\n      0x20\n      dup1\n      swap2\n      div\n      mul\n      0x20\n      add\n      mload(0x40)\n      swap1\n      dup2\n      add\n      0x40\n      mstore\n      dup1\n      swap3\n      swap2\n      swap1\n      dup2\n      dup2\n      mstore\n      0x20\n      add\n      dup3\n      dup1\n      sload\n      tag_128\n      swap1\n      tag_88\n      jump\t// in\n    tag_128:\n      dup1\n      iszero\n      tag_129\n      jumpi\n      dup1\n      0x1f\n      lt\n      tag_130\n      jumpi\n      0x0100\n      dup1\n      dup4\n      sload\n      div\n      mul\n      dup4\n      mstore\n      swap2\n      0x20\n      add\n      swap2\n      jump(tag_129)\n    tag_130:\n      dup3\n      add\n      swap2\n      swap1\n      0x00\n      mstore\n      keccak256(0x00, 0x20)\n      swap1\n    tag_131:\n      dup2\n      sload\n      dup2\n      mstore\n      swap1\n      0x01\n      add\n      swap1\n      0x20\n      add\n      dup1\n      dup4\n      gt\n      tag_131\n      jumpi\n      dup3\n      swap1\n      sub\n      0x1f\n      and\n      dup3\n      add\n      swap2\n    tag_129:\n      pop\n      pop\n      pop\n      pop\n      pop\n      dup2\n      jump\t// out\n        /* \"Eip1822/Eip1822LogicContract.sol\":1320:1349  string[] public listOfParties */\n    tag_72:\n      0x06\n      dup2\n      dup2\n      sload\n      dup2\n      lt\n      tag_132\n      jumpi\n      0x00\n      dup1\n      revert\n    tag_132:\n      swap1\n      0x00\n      mstore\n      keccak256(0x00, 0x20)\n      add\n      0x00\n      swap2\n      pop\n      swap1\n      pop\n      dup1\n      sload\n      tag_127\n      swap1\n      tag_88\n      jump\t// in\n    tag_81:\n      dup3\n      dup1\n      sload\n      tag_139\n      swap1\n      tag_88\n      jump\t// in\n    tag_139:\n      swap1\n      0x00\n      mstore\n      keccak256(0x00, 0x20)\n      swap1\n      0x1f\n      add\n      0x20\n      swap1\n      div\n      dup2\n      add\n      swap3\n      dup3\n      tag_141\n      jumpi\n      0x00\n      dup6\n      sstore\n      jump(tag_144)\n    tag_141:\n      dup3\n      0x1f\n      lt\n      tag_142\n      jumpi\n      dup1\n      mload\n      not(0xff)\n      and\n      dup4\n      dup1\n      add\n      or\n      dup6\n      sstore\n      jump(tag_144)\n    tag_142:\n      dup3\n      dup1\n      add\n      0x01\n      add\n      dup6\n      sstore\n      dup3\n      iszero\n      tag_144\n      jumpi\n      swap2\n      dup3\n      add\n    tag_143:\n      dup3\n      dup2\n      gt\n      iszero\n      tag_144\n      jumpi\n      dup3\n      mload\n      dup3\n      sstore\n      swap2\n      0x20\n      add\n      swap2\n      swap1\n      0x01\n      add\n      swap1\n      jump(tag_143)\n    tag_144:\n      pop\n      tag_145\n      swap3\n      swap2\n      pop\n      tag_146\n      jump\t// in\n    tag_145:\n      pop\n      swap1\n      jump\t// out\n    tag_107:\n      dup3\n      dup1\n      sload\n      tag_147\n      swap1\n      tag_88\n      jump\t// in\n    tag_147:\n      swap1\n      0x00\n      mstore\n      keccak256(0x00, 0x20)\n      swap1\n      0x1f\n      add\n      0x20\n      swap1\n      div\n      dup2\n      add\n      swap3\n      dup3\n      tag_149\n      jumpi\n      0x00\n      dup6\n      sstore\n      jump(tag_144)\n    tag_149:\n      dup3\n      0x1f\n      lt\n      tag_150\n      jumpi\n      dup1\n      sload\n      dup6\n      sstore\n      jump(tag_144)\n    tag_150:\n      dup3\n      dup1\n      add\n      0x01\n      add\n      dup6\n      sstore\n      dup3\n      iszero\n      tag_144\n      jumpi\n      0x00\n      mstore\n      keccak256(0x00, 0x20)\n      swap2\n      0x1f\n      add\n      0x20\n      swap1\n      div\n      dup3\n      add\n    tag_151:\n      dup3\n      dup2\n      gt\n      iszero\n      tag_144\n      jumpi\n      dup3\n      sload\n      dup3\n      sstore\n      swap2\n      0x01\n      add\n      swap2\n      swap1\n      0x01\n      add\n      swap1\n      jump(tag_151)\n    tag_146:\n    tag_154:\n      dup1\n      dup3\n      gt\n      iszero\n      tag_145\n      jumpi\n      0x00\n      dup2\n      sstore\n      0x01\n      add\n      jump(tag_154)\n        /* \"#utility.yul\":196:380   */\n    tag_156:\n      shl(0xe0, 0x4e487b71)\n        /* \"#utility.yul\":245:246   */\n      0x00\n        /* \"#utility.yul\":238:326   */\n      mstore\n        /* \"#utility.yul\":345:349   */\n      0x41\n        /* \"#utility.yul\":342:343   */\n      0x04\n        /* \"#utility.yul\":335:350   */\n      mstore\n        /* \"#utility.yul\":369:373   */\n      0x24\n        /* \"#utility.yul\":366:367   */\n      0x00\n        /* \"#utility.yul\":359:374   */\n      revert\n        /* \"#utility.yul\":385:1104   */\n    tag_157:\n        /* \"#utility.yul\":428:433   */\n      0x00\n        /* \"#utility.yul\":481:484   */\n      dup3\n        /* \"#utility.yul\":474:478   */\n      0x1f\n        /* \"#utility.yul\":466:472   */\n      dup4\n        /* \"#utility.yul\":462:479   */\n      add\n        /* \"#utility.yul\":458:485   */\n      slt\n        /* \"#utility.yul\":448:503   */\n      tag_164\n      jumpi\n        /* \"#utility.yul\":499:500   */\n      0x00\n        /* \"#utility.yul\":496:497   */\n      dup1\n        /* \"#utility.yul\":489:501   */\n      revert\n        /* \"#utility.yul\":448:503   */\n    tag_164:\n        /* \"#utility.yul\":535:541   */\n      dup2\n        /* \"#utility.yul\":522:542   */\n      calldataload\n        /* \"#utility.yul\":561:579   */\n      0xffffffffffffffff\n        /* \"#utility.yul\":598:600   */\n      dup1\n        /* \"#utility.yul\":594:596   */\n      dup3\n        /* \"#utility.yul\":591:601   */\n      gt\n        /* \"#utility.yul\":588:624   */\n      iszero\n      tag_166\n      jumpi\n        /* \"#utility.yul\":604:622   */\n      tag_166\n      tag_156\n      jump\t// in\n    tag_166:\n        /* \"#utility.yul\":679:681   */\n      0x40\n        /* \"#utility.yul\":673:682   */\n      mload\n        /* \"#utility.yul\":647:649   */\n      0x1f\n        /* \"#utility.yul\":733:746   */\n      dup4\n      add\n      not(0x1f)\n        /* \"#utility.yul\":729:751   */\n      swap1\n      dup2\n      and\n        /* \"#utility.yul\":753:755   */\n      0x3f\n        /* \"#utility.yul\":725:756   */\n      add\n        /* \"#utility.yul\":721:761   */\n      and\n        /* \"#utility.yul\":709:762   */\n      dup2\n      add\n      swap1\n        /* \"#utility.yul\":777:795   */\n      dup3\n      dup3\n      gt\n        /* \"#utility.yul\":797:819   */\n      dup2\n      dup4\n      lt\n        /* \"#utility.yul\":774:820   */\n      or\n        /* \"#utility.yul\":771:843   */\n      iszero\n      tag_168\n      jumpi\n        /* \"#utility.yul\":823:841   */\n      tag_168\n      tag_156\n      jump\t// in\n    tag_168:\n        /* \"#utility.yul\":863:873   */\n      dup2\n        /* \"#utility.yul\":859:861   */\n      0x40\n        /* \"#utility.yul\":852:874   */\n      mstore\n        /* \"#utility.yul\":898:900   */\n      dup4\n        /* \"#utility.yul\":890:896   */\n      dup2\n        /* \"#utility.yul\":883:901   */\n      mstore\n        /* \"#utility.yul\":944:947   */\n      dup7\n        /* \"#utility.yul\":937:941   */\n      0x20\n        /* \"#utility.yul\":932:934   */\n      dup6\n        /* \"#utility.yul\":924:930   */\n      dup9\n        /* \"#utility.yul\":920:935   */\n      add\n        /* \"#utility.yul\":916:942   */\n      add\n        /* \"#utility.yul\":913:948   */\n      gt\n        /* \"#utility.yul\":910:965   */\n      iszero\n      tag_169\n      jumpi\n        /* \"#utility.yul\":961:962   */\n      0x00\n        /* \"#utility.yul\":958:959   */\n      dup1\n        /* \"#utility.yul\":951:963   */\n      revert\n        /* \"#utility.yul\":910:965   */\n    tag_169:\n        /* \"#utility.yul\":1025:1027   */\n      dup4\n        /* \"#utility.yul\":1018:1022   */\n      0x20\n        /* \"#utility.yul\":1010:1016   */\n      dup8\n        /* \"#utility.yul\":1006:1023   */\n      add\n        /* \"#utility.yul\":999:1003   */\n      0x20\n        /* \"#utility.yul\":991:997   */\n      dup4\n        /* \"#utility.yul\":987:1004   */\n      add\n        /* \"#utility.yul\":974:1028   */\n      calldatacopy\n        /* \"#utility.yul\":1072:1073   */\n      0x00\n        /* \"#utility.yul\":1065:1069   */\n      0x20\n        /* \"#utility.yul\":1060:1062   */\n      dup6\n        /* \"#utility.yul\":1052:1058   */\n      dup4\n        /* \"#utility.yul\":1048:1063   */\n      add\n        /* \"#utility.yul\":1044:1070   */\n      add\n        /* \"#utility.yul\":1037:1074   */\n      mstore\n        /* \"#utility.yul\":1092:1098   */\n      dup1\n        /* \"#utility.yul\":1083:1098   */\n      swap5\n      pop\n      pop\n      pop\n      pop\n      pop\n        /* \"#utility.yul\":385:1104   */\n      swap3\n      swap2\n      pop\n      pop\n      jump\t// out\n        /* \"#utility.yul\":1109:1720   */\n    tag_25:\n        /* \"#utility.yul\":1206:1212   */\n      0x00\n        /* \"#utility.yul\":1214:1220   */\n      dup1\n        /* \"#utility.yul\":1222:1228   */\n      0x00\n        /* \"#utility.yul\":1275:1277   */\n      0x60\n        /* \"#utility.yul\":1263:1272   */\n      dup5\n        /* \"#utility.yul\":1254:1261   */\n      dup7\n        /* \"#utility.yul\":1250:1273   */\n      sub\n        /* \"#utility.yul\":1246:1278   */\n      slt\n        /* \"#utility.yul\":1243:1295   */\n      iszero\n      tag_171\n      jumpi\n        /* \"#utility.yul\":1291:1292   */\n      0x00\n        /* \"#utility.yul\":1288:1289   */\n      dup1\n        /* \"#utility.yul\":1281:1293   */\n      revert\n        /* \"#utility.yul\":1243:1295   */\n    tag_171:\n        /* \"#utility.yul\":1331:1340   */\n      dup4\n        /* \"#utility.yul\":1318:1341   */\n      calldataload\n        /* \"#utility.yul\":1360:1378   */\n      0xffffffffffffffff\n        /* \"#utility.yul\":1401:1403   */\n      dup1\n        /* \"#utility.yul\":1393:1399   */\n      dup3\n        /* \"#utility.yul\":1390:1404   */\n      gt\n        /* \"#utility.yul\":1387:1421   */\n      iszero\n      tag_172\n      jumpi\n        /* \"#utility.yul\":1417:1418   */\n      0x00\n        /* \"#utility.yul\":1414:1415   */\n      dup1\n        /* \"#utility.yul\":1407:1419   */\n      revert\n        /* \"#utility.yul\":1387:1421   */\n    tag_172:\n        /* \"#utility.yul\":1440:1490   */\n      tag_173\n        /* \"#utility.yul\":1482:1489   */\n      dup8\n        /* \"#utility.yul\":1473:1479   */\n      dup4\n        /* \"#utility.yul\":1462:1471   */\n      dup9\n        /* \"#utility.yul\":1458:1480   */\n      add\n        /* \"#utility.yul\":1440:1490   */\n      tag_157\n      jump\t// in\n    tag_173:\n        /* \"#utility.yul\":1430:1490   */\n      swap5\n      pop\n        /* \"#utility.yul\":1537:1539   */\n      0x20\n        /* \"#utility.yul\":1526:1535   */\n      dup7\n        /* \"#utility.yul\":1522:1540   */\n      add\n        /* \"#utility.yul\":1509:1541   */\n      calldataload\n        /* \"#utility.yul\":1499:1541   */\n      swap4\n      pop\n        /* \"#utility.yul\":1594:1596   */\n      0x40\n        /* \"#utility.yul\":1583:1592   */\n      dup7\n        /* \"#utility.yul\":1579:1597   */\n      add\n        /* \"#utility.yul\":1566:1598   */\n      calldataload\n        /* \"#utility.yul\":1550:1598   */\n      swap2\n      pop\n        /* \"#utility.yul\":1623:1625   */\n      dup1\n        /* \"#utility.yul\":1613:1621   */\n      dup3\n        /* \"#utility.yul\":1610:1626   */\n      gt\n        /* \"#utility.yul\":1607:1643   */\n      iszero\n      tag_174\n      jumpi\n        /* \"#utility.yul\":1639:1640   */\n      0x00\n        /* \"#utility.yul\":1636:1637   */\n      dup1\n        /* \"#utility.yul\":1629:1641   */\n      revert\n        /* \"#utility.yul\":1607:1643   */\n    tag_174:\n      pop\n        /* \"#utility.yul\":1662:1714   */\n      tag_175\n        /* \"#utility.yul\":1706:1713   */\n      dup7\n        /* \"#utility.yul\":1695:1703   */\n      dup3\n        /* \"#utility.yul\":1684:1693   */\n      dup8\n        /* \"#utility.yul\":1680:1704   */\n      add\n        /* \"#utility.yul\":1662:1714   */\n      tag_157\n      jump\t// in\n    tag_175:\n        /* \"#utility.yul\":1652:1714   */\n      swap2\n      pop\n      pop\n        /* \"#utility.yul\":1109:1720   */\n      swap3\n      pop\n      swap3\n      pop\n      swap3\n      jump\t// out\n        /* \"#utility.yul\":1725:1905   */\n    tag_29:\n        /* \"#utility.yul\":1784:1790   */\n      0x00\n        /* \"#utility.yul\":1837:1839   */\n      0x20\n        /* \"#utility.yul\":1825:1834   */\n      dup3\n        /* \"#utility.yul\":1816:1823   */\n      dup5\n        /* \"#utility.yul\":1812:1835   */\n      sub\n        /* \"#utility.yul\":1808:1840   */\n      slt\n        /* \"#utility.yul\":1805:1857   */\n      iszero\n      tag_177\n      jumpi\n        /* \"#utility.yul\":1853:1854   */\n      0x00\n        /* \"#utility.yul\":1850:1851   */\n      dup1\n        /* \"#utility.yul\":1843:1855   */\n      revert\n        /* \"#utility.yul\":1805:1857   */\n    tag_177:\n      pop\n        /* \"#utility.yul\":1876:1899   */\n      calldataload\n      swap2\n        /* \"#utility.yul\":1725:1905   */\n      swap1\n      pop\n      jump\t// out\n        /* \"#utility.yul\":2589:3061   */\n    tag_158:\n        /* \"#utility.yul\":2631:2634   */\n      0x00\n        /* \"#utility.yul\":2669:2674   */\n      dup2\n        /* \"#utility.yul\":2663:2675   */\n      mload\n        /* \"#utility.yul\":2696:2702   */\n      dup1\n        /* \"#utility.yul\":2691:2694   */\n      dup5\n        /* \"#utility.yul\":2684:2703   */\n      mstore\n        /* \"#utility.yul\":2721:2722   */\n      0x00\n        /* \"#utility.yul\":2731:2893   */\n    tag_183:\n        /* \"#utility.yul\":2745:2751   */\n      dup2\n        /* \"#utility.yul\":2742:2743   */\n      dup2\n        /* \"#utility.yul\":2739:2752   */\n      lt\n        /* \"#utility.yul\":2731:2893   */\n      iszero\n      tag_185\n      jumpi\n        /* \"#utility.yul\":2807:2811   */\n      0x20\n        /* \"#utility.yul\":2863:2876   */\n      dup2\n      dup6\n      add\n        /* \"#utility.yul\":2859:2881   */\n      dup2\n      add\n        /* \"#utility.yul\":2853:2882   */\n      mload\n        /* \"#utility.yul\":2835:2846   */\n      dup7\n      dup4\n      add\n        /* \"#utility.yul\":2831:2851   */\n      dup3\n      add\n        /* \"#utility.yul\":2824:2883   */\n      mstore\n        /* \"#utility.yul\":2760:2772   */\n      add\n        /* \"#utility.yul\":2731:2893   */\n      jump(tag_183)\n    tag_185:\n        /* \"#utility.yul\":2911:2917   */\n      dup2\n        /* \"#utility.yul\":2908:2909   */\n      dup2\n        /* \"#utility.yul\":2905:2918   */\n      gt\n        /* \"#utility.yul\":2902:2989   */\n      iszero\n      tag_186\n      jumpi\n        /* \"#utility.yul\":2977:2978   */\n      0x00\n        /* \"#utility.yul\":2970:2974   */\n      0x20\n        /* \"#utility.yul\":2961:2967   */\n      dup4\n        /* \"#utility.yul\":2956:2959   */\n      dup8\n        /* \"#utility.yul\":2952:2968   */\n      add\n        /* \"#utility.yul\":2948:2975   */\n      add\n        /* \"#utility.yul\":2941:2979   */\n      mstore\n        /* \"#utility.yul\":2902:2989   */\n    tag_186:\n      pop\n        /* \"#utility.yul\":3043:3045   */\n      0x1f\n        /* \"#utility.yul\":3022:3037   */\n      add\n      not(0x1f)\n        /* \"#utility.yul\":3018:3047   */\n      and\n        /* \"#utility.yul\":3009:3048   */\n      swap3\n      swap1\n      swap3\n      add\n        /* \"#utility.yul\":3050:3054   */\n      0x20\n        /* \"#utility.yul\":3005:3055   */\n      add\n      swap3\n        /* \"#utility.yul\":2589:3061   */\n      swap2\n      pop\n      pop\n      jump\t// out\n        /* \"#utility.yul\":3066:3593   */\n    tag_46:\n        /* \"#utility.yul\":3319:3322   */\n      0x80\n        /* \"#utility.yul\":3308:3317   */\n      dup2\n        /* \"#utility.yul\":3301:3323   */\n      mstore\n        /* \"#utility.yul\":3282:3286   */\n      0x00\n        /* \"#utility.yul\":3346:3392   */\n      tag_188\n        /* \"#utility.yul\":3387:3390   */\n      0x80\n        /* \"#utility.yul\":3376:3385   */\n      dup4\n        /* \"#utility.yul\":3372:3391   */\n      add\n        /* \"#utility.yul\":3364:3370   */\n      dup8\n        /* \"#utility.yul\":3346:3392   */\n      tag_158\n      jump\t// in\n    tag_188:\n        /* \"#utility.yul\":3428:3434   */\n      dup6\n        /* \"#utility.yul\":3423:3425   */\n      0x20\n        /* \"#utility.yul\":3412:3421   */\n      dup5\n        /* \"#utility.yul\":3408:3426   */\n      add\n        /* \"#utility.yul\":3401:3435   */\n      mstore\n        /* \"#utility.yul\":3483:3492   */\n      dup3\n        /* \"#utility.yul\":3475:3481   */\n      dup2\n        /* \"#utility.yul\":3471:3493   */\n      sub\n        /* \"#utility.yul\":3466:3468   */\n      0x40\n        /* \"#utility.yul\":3455:3464   */\n      dup5\n        /* \"#utility.yul\":3451:3469   */\n      add\n        /* \"#utility.yul\":3444:3494   */\n      mstore\n        /* \"#utility.yul\":3511:3544   */\n      tag_189\n        /* \"#utility.yul\":3537:3543   */\n      dup2\n        /* \"#utility.yul\":3529:3535   */\n      dup7\n        /* \"#utility.yul\":3511:3544   */\n      tag_158\n      jump\t// in\n    tag_189:\n        /* \"#utility.yul\":3503:3544   */\n      swap2\n      pop\n      pop\n        /* \"#utility.yul\":3580:3586   */\n      dup3\n        /* \"#utility.yul\":3575:3577   */\n      0x60\n        /* \"#utility.yul\":3564:3573   */\n      dup4\n        /* \"#utility.yul\":3560:3578   */\n      add\n        /* \"#utility.yul\":3553:3587   */\n      mstore\n        /* \"#utility.yul\":3066:3593   */\n      swap6\n      swap5\n      pop\n      pop\n      pop\n      pop\n      pop\n      jump\t// out\n        /* \"#utility.yul\":3598:3818   */\n    tag_50:\n        /* \"#utility.yul\":3747:3749   */\n      0x20\n        /* \"#utility.yul\":3736:3745   */\n      dup2\n        /* \"#utility.yul\":3729:3750   */\n      mstore\n        /* \"#utility.yul\":3710:3714   */\n      0x00\n        /* \"#utility.yul\":3767:3812   */\n      tag_191\n        /* \"#utility.yul\":3808:3810   */\n      0x20\n        /* \"#utility.yul\":3797:3806   */\n      dup4\n        /* \"#utility.yul\":3793:3811   */\n      add\n        /* \"#utility.yul\":3785:3791   */\n      dup5\n        /* \"#utility.yul\":3767:3812   */\n      tag_158\n      jump\t// in\n    tag_191:\n        /* \"#utility.yul\":3759:3812   */\n      swap4\n        /* \"#utility.yul\":3598:3818   */\n      swap3\n      pop\n      pop\n      pop\n      jump\t// out\n        /* \"#utility.yul\":3823:4268   */\n    tag_57:\n        /* \"#utility.yul\":3900:3906   */\n      0x00\n        /* \"#utility.yul\":3908:3914   */\n      dup1\n        /* \"#utility.yul\":3916:3922   */\n      0x00\n        /* \"#utility.yul\":3969:3971   */\n      0x60\n        /* \"#utility.yul\":3957:3966   */\n      dup5\n        /* \"#utility.yul\":3948:3955   */\n      dup7\n        /* \"#utility.yul\":3944:3967   */\n      sub\n        /* \"#utility.yul\":3940:3972   */\n      slt\n        /* \"#utility.yul\":3937:3989   */\n      iszero\n      tag_193\n      jumpi\n        /* \"#utility.yul\":3985:3986   */\n      0x00\n        /* \"#utility.yul\":3982:3983   */\n      dup1\n        /* \"#utility.yul\":3975:3987   */\n      revert\n        /* \"#utility.yul\":3937:3989   */\n    tag_193:\n        /* \"#utility.yul\":4024:4033   */\n      dup4\n        /* \"#utility.yul\":4011:4034   */\n      calldataload\n        /* \"#utility.yul\":4074:4116   */\n      0xffffffffffffffffffffffffffffffffffffffff\n        /* \"#utility.yul\":4067:4072   */\n      dup2\n        /* \"#utility.yul\":4063:4117   */\n      and\n        /* \"#utility.yul\":4056:4061   */\n      dup2\n        /* \"#utility.yul\":4053:4118   */\n      eq\n        /* \"#utility.yul\":4043:4136   */\n      tag_194\n      jumpi\n        /* \"#utility.yul\":4132:4133   */\n      0x00\n        /* \"#utility.yul\":4129:4130   */\n      dup1\n        /* \"#utility.yul\":4122:4134   */\n      revert\n        /* \"#utility.yul\":4043:4136   */\n    tag_194:\n        /* \"#utility.yul\":4155:4160   */\n      swap6\n        /* \"#utility.yul\":4207:4209   */\n      0x20\n        /* \"#utility.yul\":4192:4210   */\n      dup6\n      add\n        /* \"#utility.yul\":4179:4211   */\n      calldataload\n      swap6\n      pop\n        /* \"#utility.yul\":4258:4260   */\n      0x40\n        /* \"#utility.yul\":4243:4261   */\n      swap1\n      swap5\n      add\n        /* \"#utility.yul\":4230:4262   */\n      calldataload\n      swap4\n        /* \"#utility.yul\":3823:4268   */\n      swap3\n      pop\n      pop\n      pop\n      jump\t// out\n        /* \"#utility.yul\":4866:5050   */\n    tag_159:\n      shl(0xe0, 0x4e487b71)\n        /* \"#utility.yul\":4915:4916   */\n      0x00\n        /* \"#utility.yul\":4908:4996   */\n      mstore\n        /* \"#utility.yul\":5015:5019   */\n      0x11\n        /* \"#utility.yul\":5012:5013   */\n      0x04\n        /* \"#utility.yul\":5005:5020   */\n      mstore\n        /* \"#utility.yul\":5039:5043   */\n      0x24\n        /* \"#utility.yul\":5036:5037   */\n      0x00\n        /* \"#utility.yul\":5029:5044   */\n      revert\n        /* \"#utility.yul\":5055:5183   */\n    tag_86:\n        /* \"#utility.yul\":5095:5098   */\n      0x00\n        /* \"#utility.yul\":5126:5127   */\n      dup3\n        /* \"#utility.yul\":5122:5128   */\n      not\n        /* \"#utility.yul\":5119:5120   */\n      dup3\n        /* \"#utility.yul\":5116:5129   */\n      gt\n        /* \"#utility.yul\":5113:5152   */\n      iszero\n      tag_200\n      jumpi\n        /* \"#utility.yul\":5132:5150   */\n      tag_200\n      tag_159\n      jump\t// in\n    tag_200:\n      pop\n        /* \"#utility.yul\":5168:5177   */\n      add\n      swap1\n        /* \"#utility.yul\":5055:5183   */\n      jump\t// out\n        /* \"#utility.yul\":5188:5625   */\n    tag_88:\n        /* \"#utility.yul\":5267:5268   */\n      0x01\n        /* \"#utility.yul\":5263:5275   */\n      dup2\n      dup2\n      shr\n      swap1\n        /* \"#utility.yul\":5310:5322   */\n      dup3\n      and\n      dup1\n        /* \"#utility.yul\":5331:5392   */\n      tag_202\n      jumpi\n        /* \"#utility.yul\":5385:5389   */\n      0x7f\n        /* \"#utility.yul\":5377:5383   */\n      dup3\n        /* \"#utility.yul\":5373:5390   */\n      and\n        /* \"#utility.yul\":5363:5390   */\n      swap2\n      pop\n        /* \"#utility.yul\":5331:5392   */\n    tag_202:\n        /* \"#utility.yul\":5438:5440   */\n      0x20\n        /* \"#utility.yul\":5430:5436   */\n      dup3\n        /* \"#utility.yul\":5427:5441   */\n      lt\n        /* \"#utility.yul\":5407:5425   */\n      dup2\n        /* \"#utility.yul\":5404:5442   */\n      eq\n        /* \"#utility.yul\":5401:5619   */\n      iszero\n      tag_203\n      jumpi\n      shl(0xe0, 0x4e487b71)\n        /* \"#utility.yul\":5472:5473   */\n      0x00\n        /* \"#utility.yul\":5465:5553   */\n      mstore\n        /* \"#utility.yul\":5576:5580   */\n      0x22\n        /* \"#utility.yul\":5573:5574   */\n      0x04\n        /* \"#utility.yul\":5566:5581   */\n      mstore\n        /* \"#utility.yul\":5604:5608   */\n      0x24\n        /* \"#utility.yul\":5601:5602   */\n      0x00\n        /* \"#utility.yul\":5594:5609   */\n      revert\n        /* \"#utility.yul\":5401:5619   */\n    tag_203:\n      pop\n        /* \"#utility.yul\":5188:5625   */\n      swap2\n      swap1\n      pop\n      jump\t// out\n        /* \"#utility.yul\":5630:5765   */\n    tag_104:\n        /* \"#utility.yul\":5669:5672   */\n      0x00\n      not(0x00)\n        /* \"#utility.yul\":5690:5707   */\n      dup3\n      eq\n        /* \"#utility.yul\":5687:5730   */\n      iszero\n      tag_206\n      jumpi\n        /* \"#utility.yul\":5710:5728   */\n      tag_206\n      tag_159\n      jump\t// in\n    tag_206:\n      pop\n        /* \"#utility.yul\":5757:5758   */\n      0x01\n        /* \"#utility.yul\":5746:5759   */\n      add\n      swap1\n        /* \"#utility.yul\":5630:5765   */\n      jump\t// out\n\n    auxdata: 0xa2646970667358221220cecb70efe1035ef56b3cb3eff23d5252cc1f361c1d9bfcdc318ee3b5c8a2ced764736f6c63430008090033\n}\n",
				"bytecode": {
					"linkReferences": {},
					"object": "608060405234801561001057600080fd5b50610cfc806100206000396000f3fe608060405234801561001057600080fd5b50600436106100df5760003560e01c8063653721471161008c578063b2fb8e3711610066578063b2fb8e371461022b578063c93346ab1461023e578063dfbf53ae14610251578063e9d729ae1461025957600080fd5b806365372147146101e05780636b0eec1c146101f55780637a26dd311461021857600080fd5b80631e51c9ea116100bd5780631e51c9ea146101485780634d50ba3a146101b45780636247e532146101bd57600080fd5b80630500894d146100e457806313732d79146101005780631b4613cb14610115575b600080fd5b6100ed60045481565b6040519081526020015b60405180910390f35b61011361010e366004610aca565b61026c565b005b610138610123366004610b37565b60026020526000908152604090205460ff1681565b60405190151581526020016100f7565b610188610156366004610b37565b6000602081905290815260409020805460019091015473ffffffffffffffffffffffffffffffffffffffff9091169082565b6040805173ffffffffffffffffffffffffffffffffffffffff90931683526020830191909152016100f7565b6100ed60055481565b6101d06101cb366004610b37565b6103e7565b6040516100f79493929190610b9d565b6101e861051f565b6040516100f79190610bda565b610138610203366004610b37565b60036020526000908152604090205460ff1681565b610113610226366004610bf4565b610630565b610138610239366004610b37565b6107d0565b61013861024c366004610b37565b610815565b6101e861085a565b6101e8610267366004610b37565b6108e8565b60008260405160200161028191815260200190565b60408051601f1981840301815291815281516020928301206000818152600390935291205490915060ff16156103245760405162461bcd60e51b815260206004820152602560248201527f43616e6469646174652068617320616c7265616479206265656e20726567697360448201527f746572656400000000000000000000000000000000000000000000000000000060648201526084015b60405180910390fd5b6004546000818152600160209081526040909120865161034692880190610913565b506000818152600160208181526040909220908101849055845161037292600290920191860190610913565b5060008281526003602090815260408220805460ff1916600190811790915560068054918201815590925284516103ce927ff652222313e28459528d920b65115c16c04f3efc82aaedc97be59f3f377c0d3f0191860190610913565b506004546103dd906001610c58565b6004555050505050565b60016020526000908152604090208054819061040290610c70565b80601f016020809104026020016040519081016040528092919081815260200182805461042e90610c70565b801561047b5780601f106104505761010080835404028352916020019161047b565b820191906000526020600020905b81548152906001019060200180831161045e57829003601f168201915b50505050509080600101549080600201805461049690610c70565b80601f01602080910402602001604051908101604052809291908181526020018280546104c290610c70565b801561050f5780601f106104e45761010080835404028352916020019161050f565b820191906000526020600020905b8154815290600101906020018083116104f257829003601f168201915b5050505050908060030154905084565b606060008060005b600654811015610574576000818152600160205260409020600301548310156105625760008181526001602052604090206003015492509050805b8061056c81610cab565b915050610527565b50600081815260016020526040902080546007919061059290610c70565b61059d929190610997565b50600780546105ab90610c70565b80601f01602080910402602001604051908101604052809291908181526020018280546105d790610c70565b80156106245780601f106105f957610100808354040283529160200191610624565b820191906000526020600020905b81548152906001019060200180831161060757829003601f168201915b50505050509250505090565b60055461063e906001610c58565b6005556040805160208082018590528251808303820181529183018352815191810191909120600081815260029092529190205460ff16156106c25760405162461bcd60e51b815260206004820152601b60248201527f43616e6469646174652068617320616c726561647920766f7465640000000000604482015260640161031b565b6006546002111561073b5760405162461bcd60e51b815260206004820152602b60248201527f54686572652063616e277420626520656c656374696f6e20776974682061207360448201527f696e676c65207061727479000000000000000000000000000000000000000000606482015260840161031b565b60008181526020818152604080832080547fffffffffffffffffffffffff00000000000000000000000000000000000000001673ffffffffffffffffffffffffffffffffffffffff891617815560019081018690558584529182905282206003018054919290916107ad908490610c58565b90915550506000908152600260205260409020805460ff19166001179055505050565b600080826040516020016107e691815260200190565b60408051601f1981840301815291815281516020928301206000908152600390925290205460ff169392505050565b6000808260405160200161082b91815260200190565b60408051601f1981840301815291815281516020928301206000908152600290925290205460ff169392505050565b6007805461086790610c70565b80601f016020809104026020016040519081016040528092919081815260200182805461089390610c70565b80156108e05780601f106108b5576101008083540402835291602001916108e0565b820191906000526020600020905b8154815290600101906020018083116108c357829003601f168201915b505050505081565b600681815481106108f857600080fd5b90600052602060002001600091509050805461086790610c70565b82805461091f90610c70565b90600052602060002090601f0160209004810192826109415760008555610987565b82601f1061095a57805160ff1916838001178555610987565b82800160010185558215610987579182015b8281111561098757825182559160200191906001019061096c565b50610993929150610a12565b5090565b8280546109a390610c70565b90600052602060002090601f0160209004810192826109c55760008555610987565b82601f106109d65780548555610987565b8280016001018555821561098757600052602060002091601f016020900482015b828111156109875782548255916001019190600101906109f7565b5b808211156109935760008155600101610a13565b634e487b7160e01b600052604160045260246000fd5b600082601f830112610a4e57600080fd5b813567ffffffffffffffff80821115610a6957610a69610a27565b604051601f8301601f19908116603f01168101908282118183101715610a9157610a91610a27565b81604052838152866020858801011115610aaa57600080fd5b836020870160208301376000602085830101528094505050505092915050565b600080600060608486031215610adf57600080fd5b833567ffffffffffffffff80821115610af757600080fd5b610b0387838801610a3d565b9450602086013593506040860135915080821115610b2057600080fd5b50610b2d86828701610a3d565b9150509250925092565b600060208284031215610b4957600080fd5b5035919050565b6000815180845260005b81811015610b7657602081850181015186830182015201610b5a565b81811115610b88576000602083870101525b50601f01601f19169290920160200192915050565b608081526000610bb06080830187610b50565b8560208401528281036040840152610bc88186610b50565b91505082606083015295945050505050565b602081526000610bed6020830184610b50565b9392505050565b600080600060608486031215610c0957600080fd5b833573ffffffffffffffffffffffffffffffffffffffff81168114610c2d57600080fd5b95602085013595506040909401359392505050565b634e487b7160e01b600052601160045260246000fd5b60008219821115610c6b57610c6b610c42565b500190565b600181811c90821680610c8457607f821691505b60208210811415610ca557634e487b7160e01b600052602260045260246000fd5b50919050565b6000600019821415610cbf57610cbf610c42565b506001019056fea2646970667358221220cecb70efe1035ef56b3cb3eff23d5252cc1f361c1d9bfcdc318ee3b5c8a2ced764736f6c63430008090033",
					"opcodes": "PUSH1 0x80 PUSH1 0x40 MSTORE CALLVALUE DUP1 ISZERO PUSH2 0x10 JUMPI PUSH1 0x0 DUP1 REVERT JUMPDEST POP PUSH2 0xCFC DUP1 PUSH2 0x20 PUSH1 0x0 CODECOPY PUSH1 0x0 RETURN INVALID PUSH1 0x80 PUSH1 0x40 MSTORE CALLVALUE DUP1 ISZERO PUSH2 0x10 JUMPI PUSH1 0x0 DUP1 REVERT JUMPDEST POP PUSH1 0x4 CALLDATASIZE LT PUSH2 0xDF JUMPI PUSH1 0x0 CALLDATALOAD PUSH1 0xE0 SHR DUP1 PUSH4 0x65372147 GT PUSH2 0x8C JUMPI DUP1 PUSH4 0xB2FB8E37 GT PUSH2 0x66 JUMPI DUP1 PUSH4 0xB2FB8E37 EQ PUSH2 0x22B JUMPI DUP1 PUSH4 0xC93346AB EQ PUSH2 0x23E JUMPI DUP1 PUSH4 0xDFBF53AE EQ PUSH2 0x251 JUMPI DUP1 PUSH4 0xE9D729AE EQ PUSH2 0x259 JUMPI PUSH1 0x0 DUP1 REVERT JUMPDEST DUP1 PUSH4 0x65372147 EQ PUSH2 0x1E0 JUMPI DUP1 PUSH4 0x6B0EEC1C EQ PUSH2 0x1F5 JUMPI DUP1 PUSH4 0x7A26DD31 EQ PUSH2 0x218 JUMPI PUSH1 0x0 DUP1 REVERT JUMPDEST DUP1 PUSH4 0x1E51C9EA GT PUSH2 0xBD JUMPI DUP1 PUSH4 0x1E51C9EA EQ PUSH2 0x148 JUMPI DUP1 PUSH4 0x4D50BA3A EQ PUSH2 0x1B4 JUMPI DUP1 PUSH4 0x6247E532 EQ PUSH2 0x1BD JUMPI PUSH1 0x0 DUP1 REVERT JUMPDEST DUP1 PUSH4 0x500894D EQ PUSH2 0xE4 JUMPI DUP1 PUSH4 0x13732D79 EQ PUSH2 0x100 JUMPI DUP1 PUSH4 0x1B4613CB EQ PUSH2 0x115 JUMPI JUMPDEST PUSH1 0x0 DUP1 REVERT JUMPDEST PUSH2 0xED PUSH1 0x4 SLOAD DUP2 JUMP JUMPDEST PUSH1 0x40 MLOAD SWAP1 DUP2 MSTORE PUSH1 0x20 ADD JUMPDEST PUSH1 0x40 MLOAD DUP1 SWAP2 SUB SWAP1 RETURN JUMPDEST PUSH2 0x113 PUSH2 0x10E CALLDATASIZE PUSH1 0x4 PUSH2 0xACA JUMP JUMPDEST PUSH2 0x26C JUMP JUMPDEST STOP JUMPDEST PUSH2 0x138 PUSH2 0x123 CALLDATASIZE PUSH1 0x4 PUSH2 0xB37 JUMP JUMPDEST PUSH1 0x2 PUSH1 0x20 MSTORE PUSH1 0x0 SWAP1 DUP2 MSTORE PUSH1 0x40 SWAP1 KECCAK256 SLOAD PUSH1 0xFF AND DUP2 JUMP JUMPDEST PUSH1 0x40 MLOAD SWAP1 ISZERO ISZERO DUP2 MSTORE PUSH1 0x20 ADD PUSH2 0xF7 JUMP JUMPDEST PUSH2 0x188 PUSH2 0x156 CALLDATASIZE PUSH1 0x4 PUSH2 0xB37 JUMP JUMPDEST PUSH1 0x0 PUSH1 0x20 DUP2 SWAP1 MSTORE SWAP1 DUP2 MSTORE PUSH1 0x40 SWAP1 KECCAK256 DUP1 SLOAD PUSH1 0x1 SWAP1 SWAP2 ADD SLOAD PUSH20 0xFFFFFFFFFFFFFFFFFFFFFFFFFFFFFFFFFFFFFFFF SWAP1 SWAP2 AND SWAP1 DUP3 JUMP JUMPDEST PUSH1 0x40 DUP1 MLOAD PUSH20 0xFFFFFFFFFFFFFFFFFFFFFFFFFFFFFFFFFFFFFFFF SWAP1 SWAP4 AND DUP4 MSTORE PUSH1 0x20 DUP4 ADD SWAP2 SWAP1 SWAP2 MSTORE ADD PUSH2 0xF7 JUMP JUMPDEST PUSH2 0xED PUSH1 0x5 SLOAD DUP2 JUMP JUMPDEST PUSH2 0x1D0 PUSH2 0x1CB CALLDATASIZE PUSH1 0x4 PUSH2 0xB37 JUMP JUMPDEST PUSH2 0x3E7 JUMP JUMPDEST PUSH1 0x40 MLOAD PUSH2 0xF7 SWAP5 SWAP4 SWAP3 SWAP2 SWAP1 PUSH2 0xB9D JUMP JUMPDEST PUSH2 0x1E8 PUSH2 0x51F JUMP JUMPDEST PUSH1 0x40 MLOAD PUSH2 0xF7 SWAP2 SWAP1 PUSH2 0xBDA JUMP JUMPDEST PUSH2 0x138 PUSH2 0x203 CALLDATASIZE PUSH1 0x4 PUSH2 0xB37 JUMP JUMPDEST PUSH1 0x3 PUSH1 0x20 MSTORE PUSH1 0x0 SWAP1 DUP2 MSTORE PUSH1 0x40 SWAP1 KECCAK256 SLOAD PUSH1 0xFF AND DUP2 JUMP JUMPDEST PUSH2 0x113 PUSH2 0x226 CALLDATASIZE PUSH1 0x4 PUSH2 0xBF4 JUMP JUMPDEST PUSH2 0x630 JUMP JUMPDEST PUSH2 0x138 PUSH2 0x239 CALLDATASIZE PUSH1 0x4 PUSH2 0xB37 JUMP JUMPDEST PUSH2 0x7D0 JUMP JUMPDEST PUSH2 0x138 PUSH2 0x24C CALLDATASIZE PUSH1 0x4 PUSH2 0xB37 JUMP JUMPDEST PUSH2 0x815 JUMP JUMPDEST PUSH2 0x1E8 PUSH2 0x85A JUMP JUMPDEST PUSH2 0x1E8 PUSH2 0x267 CALLDATASIZE PUSH1 0x4 PUSH2 0xB37 JUMP JUMPDEST PUSH2 0x8E8 JUMP JUMPDEST PUSH1 0x0 DUP3 PUSH1 0x40 MLOAD PUSH1 0x20 ADD PUSH2 0x281 SWAP2 DUP2 MSTORE PUSH1 0x20 ADD SWAP1 JUMP JUMPDEST PUSH1 0x40 DUP1 MLOAD PUSH1 0x1F NOT DUP2 DUP5 SUB ADD DUP2 MSTORE SWAP2 DUP2 MSTORE DUP2 MLOAD PUSH1 0x20 SWAP3 DUP4 ADD KECCAK256 PUSH1 0x0 DUP2 DUP2 MSTORE PUSH1 0x3 SWAP1 SWAP4 MSTORE SWAP2 KECCAK256 SLOAD SWAP1 SWAP2 POP PUSH1 0xFF AND ISZERO PUSH2 0x324 JUMPI PUSH1 0x40 MLOAD PUSH3 0x461BCD PUSH1 0xE5 SHL DUP2 MSTORE PUSH1 0x20 PUSH1 0x4 DUP3 ADD MSTORE PUSH1 0x25 PUSH1 0x24 DUP3 ADD MSTORE PUSH32 0x43616E6469646174652068617320616C7265616479206265656E207265676973 PUSH1 0x44 DUP3 ADD MSTORE PUSH32 0x7465726564000000000000000000000000000000000000000000000000000000 PUSH1 0x64 DUP3 ADD MSTORE PUSH1 0x84 ADD JUMPDEST PUSH1 0x40 MLOAD DUP1 SWAP2 SUB SWAP1 REVERT JUMPDEST PUSH1 0x4 SLOAD PUSH1 0x0 DUP2 DUP2 MSTORE PUSH1 0x1 PUSH1 0x20 SWAP1 DUP2 MSTORE PUSH1 0x40 SWAP1 SWAP2 KECCAK256 DUP7 MLOAD PUSH2 0x346 SWAP3 DUP9 ADD SWAP1 PUSH2 0x913 JUMP JUMPDEST POP PUSH1 0x0 DUP2 DUP2 MSTORE PUSH1 0x1 PUSH1 0x20 DUP2 DUP2 MSTORE PUSH1 0x40 SWAP1 SWAP3 KECCAK256 SWAP1 DUP2 ADD DUP5 SWAP1 SSTORE DUP5 MLOAD PUSH2 0x372 SWAP3 PUSH1 0x2 SWAP1 SWAP3 ADD SWAP2 DUP7 ADD SWAP1 PUSH2 0x913 JUMP JUMPDEST POP PUSH1 0x0 DUP3 DUP2 MSTORE PUSH1 0x3 PUSH1 0x20 SWAP1 DUP2 MSTORE PUSH1 0x40 DUP3 KECCAK256 DUP1 SLOAD PUSH1 0xFF NOT AND PUSH1 0x1 SWAP1 DUP2 OR SWAP1 SWAP2 SSTORE PUSH1 0x6 DUP1 SLOAD SWAP2 DUP3 ADD DUP2 SSTORE SWAP1 SWAP3 MSTORE DUP5 MLOAD PUSH2 0x3CE SWAP3 PUSH32 0xF652222313E28459528D920B65115C16C04F3EFC82AAEDC97BE59F3F377C0D3F ADD SWAP2 DUP7 ADD SWAP1 PUSH2 0x913 JUMP JUMPDEST POP PUSH1 0x4 SLOAD PUSH2 0x3DD SWAP1 PUSH1 0x1 PUSH2 0xC58 JUMP JUMPDEST PUSH1 0x4 SSTORE POP POP POP POP POP JUMP JUMPDEST PUSH1 0x1 PUSH1 0x20 MSTORE PUSH1 0x0 SWAP1 DUP2 MSTORE PUSH1 0x40 SWAP1 KECCAK256 DUP1 SLOAD DUP2 SWAP1 PUSH2 0x402 SWAP1 PUSH2 0xC70 JUMP JUMPDEST DUP1 PUSH1 0x1F ADD PUSH1 0x20 DUP1 SWAP2 DIV MUL PUSH1 0x20 ADD PUSH1 0x40 MLOAD SWAP1 DUP2 ADD PUSH1 0x40 MSTORE DUP1 SWAP3 SWAP2 SWAP1 DUP2 DUP2 MSTORE PUSH1 0x20 ADD DUP3 DUP1 SLOAD PUSH2 0x42E SWAP1 PUSH2 0xC70 JUMP JUMPDEST DUP1 ISZERO PUSH2 0x47B JUMPI DUP1 PUSH1 0x1F LT PUSH2 0x450 JUMPI PUSH2 0x100 DUP1 DUP4 SLOAD DIV MUL DUP4 MSTORE SWAP2 PUSH1 0x20 ADD SWAP2 PUSH2 0x47B JUMP JUMPDEST DUP3 ADD SWAP2 SWAP1 PUSH1 0x0 MSTORE PUSH1 0x20 PUSH1 0x0 KECCAK256 SWAP1 JUMPDEST DUP2 SLOAD DUP2 MSTORE SWAP1 PUSH1 0x1 ADD SWAP1 PUSH1 0x20 ADD DUP1 DUP4 GT PUSH2 0x45E JUMPI DUP3 SWAP1 SUB PUSH1 0x1F AND DUP3 ADD SWAP2 JUMPDEST POP POP POP POP POP SWAP1 DUP1 PUSH1 0x1 ADD SLOAD SWAP1 DUP1 PUSH1 0x2 ADD DUP1 SLOAD PUSH2 0x496 SWAP1 PUSH2 0xC70 JUMP JUMPDEST DUP1 PUSH1 0x1F ADD PUSH1 0x20 DUP1 SWAP2 DIV MUL PUSH1 0x20 ADD PUSH1 0x40 MLOAD SWAP1 DUP2 ADD PUSH1 0x40 MSTORE DUP1 SWAP3 SWAP2 SWAP1 DUP2 DUP2 MSTORE PUSH1 0x20 ADD DUP3 DUP1 SLOAD PUSH2 0x4C2 SWAP1 PUSH2 0xC70 JUMP JUMPDEST DUP1 ISZERO PUSH2 0x50F JUMPI DUP1 PUSH1 0x1F LT PUSH2 0x4E4 JUMPI PUSH2 0x100 DUP1 DUP4 SLOAD DIV MUL DUP4 MSTORE SWAP2 PUSH1 0x20 ADD SWAP2 PUSH2 0x50F JUMP JUMPDEST DUP3 ADD SWAP2 SWAP1 PUSH1 0x0 MSTORE PUSH1 0x20 PUSH1 0x0 KECCAK256 SWAP1 JUMPDEST DUP2 SLOAD DUP2 MSTORE SWAP1 PUSH1 0x1 ADD SWAP1 PUSH1 0x20 ADD DUP1 DUP4 GT PUSH2 0x4F2 JUMPI DUP3 SWAP1 SUB PUSH1 0x1F AND DUP3 ADD SWAP2 JUMPDEST POP POP POP POP POP SWAP1 DUP1 PUSH1 0x3 ADD SLOAD SWAP1 POP DUP5 JUMP JUMPDEST PUSH1 0x60 PUSH1 0x0 DUP1 PUSH1 0x0 JUMPDEST PUSH1 0x6 SLOAD DUP2 LT ISZERO PUSH2 0x574 JUMPI PUSH1 0x0 DUP2 DUP2 MSTORE PUSH1 0x1 PUSH1 0x20 MSTORE PUSH1 0x40 SWAP1 KECCAK256 PUSH1 0x3 ADD SLOAD DUP4 LT ISZERO PUSH2 0x562 JUMPI PUSH1 0x0 DUP2 DUP2 MSTORE PUSH1 0x1 PUSH1 0x20 MSTORE PUSH1 0x40 SWAP1 KECCAK256 PUSH1 0x3 ADD SLOAD SWAP3 POP SWAP1 POP DUP1 JUMPDEST DUP1 PUSH2 0x56C DUP2 PUSH2 0xCAB JUMP JUMPDEST SWAP2 POP POP PUSH2 0x527 JUMP JUMPDEST POP PUSH1 0x0 DUP2 DUP2 MSTORE PUSH1 0x1 PUSH1 0x20 MSTORE PUSH1 0x40 SWAP1 KECCAK256 DUP1 SLOAD PUSH1 0x7 SWAP2 SWAP1 PUSH2 0x592 SWAP1 PUSH2 0xC70 JUMP JUMPDEST PUSH2 0x59D SWAP3 SWAP2 SWAP1 PUSH2 0x997 JUMP JUMPDEST POP PUSH1 0x7 DUP1 SLOAD PUSH2 0x5AB SWAP1 PUSH2 0xC70 JUMP JUMPDEST DUP1 PUSH1 0x1F ADD PUSH1 0x20 DUP1 SWAP2 DIV MUL PUSH1 0x20 ADD PUSH1 0x40 MLOAD SWAP1 DUP2 ADD PUSH1 0x40 MSTORE DUP1 SWAP3 SWAP2 SWAP1 DUP2 DUP2 MSTORE PUSH1 0x20 ADD DUP3 DUP1 SLOAD PUSH2 0x5D7 SWAP1 PUSH2 0xC70 JUMP JUMPDEST DUP1 ISZERO PUSH2 0x624 JUMPI DUP1 PUSH1 0x1F LT PUSH2 0x5F9 JUMPI PUSH2 0x100 DUP1 DUP4 SLOAD DIV MUL DUP4 MSTORE SWAP2 PUSH1 0x20 ADD SWAP2 PUSH2 0x624 JUMP JUMPDEST DUP3 ADD SWAP2 SWAP1 PUSH1 0x0 MSTORE PUSH1 0x20 PUSH1 0x0 KECCAK256 SWAP1 JUMPDEST DUP2 SLOAD DUP2 MSTORE SWAP1 PUSH1 0x1 ADD SWAP1 PUSH1 0x20 ADD DUP1 DUP4 GT PUSH2 0x607 JUMPI DUP3 SWAP1 SUB PUSH1 0x1F AND DUP3 ADD SWAP2 JUMPDEST POP POP POP POP POP SWAP3 POP POP POP SWAP1 JUMP JUMPDEST PUSH1 0x5 SLOAD PUSH2 0x63E SWAP1 PUSH1 0x1 PUSH2 0xC58 JUMP JUMPDEST PUSH1 0x5 SSTORE PUSH1 0x40 DUP1 MLOAD PUSH1 0x20 DUP1 DUP3 ADD DUP6 SWAP1 MSTORE DUP3 MLOAD DUP1 DUP4 SUB DUP3 ADD DUP2 MSTORE SWAP2 DUP4 ADD DUP4 MSTORE DUP2 MLOAD SWAP2 DUP2 ADD SWAP2 SWAP1 SWAP2 KECCAK256 PUSH1 0x0 DUP2 DUP2 MSTORE PUSH1 0x2 SWAP1 SWAP3 MSTORE SWAP2 SWAP1 KECCAK256 SLOAD PUSH1 0xFF AND ISZERO PUSH2 0x6C2 JUMPI PUSH1 0x40 MLOAD PUSH3 0x461BCD PUSH1 0xE5 SHL DUP2 MSTORE PUSH1 0x20 PUSH1 0x4 DUP3 ADD MSTORE PUSH1 0x1B PUSH1 0x24 DUP3 ADD MSTORE PUSH32 0x43616E6469646174652068617320616C726561647920766F7465640000000000 PUSH1 0x44 DUP3 ADD MSTORE PUSH1 0x64 ADD PUSH2 0x31B JUMP JUMPDEST PUSH1 0x6 SLOAD PUSH1 0x2 GT ISZERO PUSH2 0x73B JUMPI PUSH1 0x40 MLOAD PUSH3 0x461BCD PUSH1 0xE5 SHL DUP2 MSTORE PUSH1 0x20 PUSH1 0x4 DUP3 ADD MSTORE PUSH1 0x2B PUSH1 0x24 DUP3 ADD MSTORE PUSH32 0x54686572652063616E277420626520656C656374696F6E207769746820612073 PUSH1 0x44 DUP3 ADD MSTORE PUSH32 0x696E676C65207061727479000000000000000000000000000000000000000000 PUSH1 0x64 DUP3 ADD MSTORE PUSH1 0x84 ADD PUSH2 0x31B JUMP JUMPDEST PUSH1 0x0 DUP2 DUP2 MSTORE PUSH1 0x20 DUP2 DUP2 MSTORE PUSH1 0x40 DUP1 DUP4 KECCAK256 DUP1 SLOAD PUSH32 0xFFFFFFFFFFFFFFFFFFFFFFFF0000000000000000000000000000000000000000 AND PUSH20 0xFFFFFFFFFFFFFFFFFFFFFFFFFFFFFFFFFFFFFFFF DUP10 AND OR DUP2 SSTORE PUSH1 0x1 SWAP1 DUP2 ADD DUP7 SWAP1 SSTORE DUP6 DUP5 MSTORE SWAP2 DUP3 SWAP1 MSTORE DUP3 KECCAK256 PUSH1 0x3 ADD DUP1 SLOAD SWAP2 SWAP3 SWAP1 SWAP2 PUSH2 0x7AD SWAP1 DUP5 SWAP1 PUSH2 0xC58 JUMP JUMPDEST SWAP1 SWAP2 SSTORE POP POP PUSH1 0x0 SWAP1 DUP2 MSTORE PUSH1 0x2 PUSH1 0x20 MSTORE PUSH1 0x40 SWAP1 KECCAK256 DUP1 SLOAD PUSH1 0xFF NOT AND PUSH1 0x1 OR SWAP1 SSTORE POP POP POP JUMP JUMPDEST PUSH1 0x0 DUP1 DUP3 PUSH1 0x40 MLOAD PUSH1 0x20 ADD PUSH2 0x7E6 SWAP2 DUP2 MSTORE PUSH1 0x20 ADD SWAP1 JUMP JUMPDEST PUSH1 0x40 DUP1 MLOAD PUSH1 0x1F NOT DUP2 DUP5 SUB ADD DUP2 MSTORE SWAP2 DUP2 MSTORE DUP2 MLOAD PUSH1 0x20 SWAP3 DUP4 ADD KECCAK256 PUSH1 0x0 SWAP1 DUP2 MSTORE PUSH1 0x3 SWAP1 SWAP3 MSTORE SWAP1 KECCAK256 SLOAD PUSH1 0xFF AND SWAP4 SWAP3 POP POP POP JUMP JUMPDEST PUSH1 0x0 DUP1 DUP3 PUSH1 0x40 MLOAD PUSH1 0x20 ADD PUSH2 0x82B SWAP2 DUP2 MSTORE PUSH1 0x20 ADD SWAP1 JUMP JUMPDEST PUSH1 0x40 DUP1 MLOAD PUSH1 0x1F NOT DUP2 DUP5 SUB ADD DUP2 MSTORE SWAP2 DUP2 MSTORE DUP2 MLOAD PUSH1 0x20 SWAP3 DUP4 ADD KECCAK256 PUSH1 0x0 SWAP1 DUP2 MSTORE PUSH1 0x2 SWAP1 SWAP3 MSTORE SWAP1 KECCAK256 SLOAD PUSH1 0xFF AND SWAP4 SWAP3 POP POP POP JUMP JUMPDEST PUSH1 0x7 DUP1 SLOAD PUSH2 0x867 SWAP1 PUSH2 0xC70 JUMP JUMPDEST DUP1 PUSH1 0x1F ADD PUSH1 0x20 DUP1 SWAP2 DIV MUL PUSH1 0x20 ADD PUSH1 0x40 MLOAD SWAP1 DUP2 ADD PUSH1 0x40 MSTORE DUP1 SWAP3 SWAP2 SWAP1 DUP2 DUP2 MSTORE PUSH1 0x20 ADD DUP3 DUP1 SLOAD PUSH2 0x893 SWAP1 PUSH2 0xC70 JUMP JUMPDEST DUP1 ISZERO PUSH2 0x8E0 JUMPI DUP1 PUSH1 0x1F LT PUSH2 0x8B5 JUMPI PUSH2 0x100 DUP1 DUP4 SLOAD DIV MUL DUP4 MSTORE SWAP2 PUSH1 0x20 ADD SWAP2 PUSH2 0x8E0 JUMP JUMPDEST DUP3 ADD SWAP2 SWAP1 PUSH1 0x0 MSTORE PUSH1 0x20 PUSH1 0x0 KECCAK256 SWAP1 JUMPDEST DUP2 SLOAD DUP2 MSTORE SWAP1 PUSH1 0x1 ADD SWAP1 PUSH1 0x20 ADD DUP1 DUP4 GT PUSH2 0x8C3 JUMPI DUP3 SWAP1 SUB PUSH1 0x1F AND DUP3 ADD SWAP2 JUMPDEST POP POP POP POP POP DUP2 JUMP JUMPDEST PUSH1 0x6 DUP2 DUP2 SLOAD DUP2 LT PUSH2 0x8F8 JUMPI PUSH1 0x0 DUP1 REVERT JUMPDEST SWAP1 PUSH1 0x0 MSTORE PUSH1 0x20 PUSH1 0x0 KECCAK256 ADD PUSH1 0x0 SWAP2 POP SWAP1 POP DUP1 SLOAD PUSH2 0x867 SWAP1 PUSH2 0xC70 JUMP JUMPDEST DUP3 DUP1 SLOAD PUSH2 0x91F SWAP1 PUSH2 0xC70 JUMP JUMPDEST SWAP1 PUSH1 0x0 MSTORE PUSH1 0x20 PUSH1 0x0 KECCAK256 SWAP1 PUSH1 0x1F ADD PUSH1 0x20 SWAP1 DIV DUP2 ADD SWAP3 DUP3 PUSH2 0x941 JUMPI PUSH1 0x0 DUP6 SSTORE PUSH2 0x987 JUMP JUMPDEST DUP3 PUSH1 0x1F LT PUSH2 0x95A JUMPI DUP1 MLOAD PUSH1 0xFF NOT AND DUP4 DUP1 ADD OR DUP6 SSTORE PUSH2 0x987 JUMP JUMPDEST DUP3 DUP1 ADD PUSH1 0x1 ADD DUP6 SSTORE DUP3 ISZERO PUSH2 0x987 JUMPI SWAP2 DUP3 ADD JUMPDEST DUP3 DUP2 GT ISZERO PUSH2 0x987 JUMPI DUP3 MLOAD DUP3 SSTORE SWAP2 PUSH1 0x20 ADD SWAP2 SWAP1 PUSH1 0x1 ADD SWAP1 PUSH2 0x96C JUMP JUMPDEST POP PUSH2 0x993 SWAP3 SWAP2 POP PUSH2 0xA12 JUMP JUMPDEST POP SWAP1 JUMP JUMPDEST DUP3 DUP1 SLOAD PUSH2 0x9A3 SWAP1 PUSH2 0xC70 JUMP JUMPDEST SWAP1 PUSH1 0x0 MSTORE PUSH1 0x20 PUSH1 0x0 KECCAK256 SWAP1 PUSH1 0x1F ADD PUSH1 0x20 SWAP1 DIV DUP2 ADD SWAP3 DUP3 PUSH2 0x9C5 JUMPI PUSH1 0x0 DUP6 SSTORE PUSH2 0x987 JUMP JUMPDEST DUP3 PUSH1 0x1F LT PUSH2 0x9D6 JUMPI DUP1 SLOAD DUP6 SSTORE PUSH2 0x987 JUMP JUMPDEST DUP3 DUP1 ADD PUSH1 0x1 ADD DUP6 SSTORE DUP3 ISZERO PUSH2 0x987 JUMPI PUSH1 0x0 MSTORE PUSH1 0x20 PUSH1 0x0 KECCAK256 SWAP2 PUSH1 0x1F ADD PUSH1 0x20 SWAP1 DIV DUP3 ADD JUMPDEST DUP3 DUP2 GT ISZERO PUSH2 0x987 JUMPI DUP3 SLOAD DUP3 SSTORE SWAP2 PUSH1 0x1 ADD SWAP2 SWAP1 PUSH1 0x1 ADD SWAP1 PUSH2 0x9F7 JUMP JUMPDEST JUMPDEST DUP1 DUP3 GT ISZERO PUSH2 0x993 JUMPI PUSH1 0x0 DUP2 SSTORE PUSH1 0x1 ADD PUSH2 0xA13 JUMP JUMPDEST PUSH4 0x4E487B71 PUSH1 0xE0 SHL PUSH1 0x0 MSTORE PUSH1 0x41 PUSH1 0x4 MSTORE PUSH1 0x24 PUSH1 0x0 REVERT JUMPDEST PUSH1 0x0 DUP3 PUSH1 0x1F DUP4 ADD SLT PUSH2 0xA4E JUMPI PUSH1 0x0 DUP1 REVERT JUMPDEST DUP2 CALLDATALOAD PUSH8 0xFFFFFFFFFFFFFFFF DUP1 DUP3 GT ISZERO PUSH2 0xA69 JUMPI PUSH2 0xA69 PUSH2 0xA27 JUMP JUMPDEST PUSH1 0x40 MLOAD PUSH1 0x1F DUP4 ADD PUSH1 0x1F NOT SWAP1 DUP2 AND PUSH1 0x3F ADD AND DUP2 ADD SWAP1 DUP3 DUP3 GT DUP2 DUP4 LT OR ISZERO PUSH2 0xA91 JUMPI PUSH2 0xA91 PUSH2 0xA27 JUMP JUMPDEST DUP2 PUSH1 0x40 MSTORE DUP4 DUP2 MSTORE DUP7 PUSH1 0x20 DUP6 DUP9 ADD ADD GT ISZERO PUSH2 0xAAA JUMPI PUSH1 0x0 DUP1 REVERT JUMPDEST DUP4 PUSH1 0x20 DUP8 ADD PUSH1 0x20 DUP4 ADD CALLDATACOPY PUSH1 0x0 PUSH1 0x20 DUP6 DUP4 ADD ADD MSTORE DUP1 SWAP5 POP POP POP POP POP SWAP3 SWAP2 POP POP JUMP JUMPDEST PUSH1 0x0 DUP1 PUSH1 0x0 PUSH1 0x60 DUP5 DUP7 SUB SLT ISZERO PUSH2 0xADF JUMPI PUSH1 0x0 DUP1 REVERT JUMPDEST DUP4 CALLDATALOAD PUSH8 0xFFFFFFFFFFFFFFFF DUP1 DUP3 GT ISZERO PUSH2 0xAF7 JUMPI PUSH1 0x0 DUP1 REVERT JUMPDEST PUSH2 0xB03 DUP8 DUP4 DUP9 ADD PUSH2 0xA3D JUMP JUMPDEST SWAP5 POP PUSH1 0x20 DUP7 ADD CALLDATALOAD SWAP4 POP PUSH1 0x40 DUP7 ADD CALLDATALOAD SWAP2 POP DUP1 DUP3 GT ISZERO PUSH2 0xB20 JUMPI PUSH1 0x0 DUP1 REVERT JUMPDEST POP PUSH2 0xB2D DUP7 DUP3 DUP8 ADD PUSH2 0xA3D JUMP JUMPDEST SWAP2 POP POP SWAP3 POP SWAP3 POP SWAP3 JUMP JUMPDEST PUSH1 0x0 PUSH1 0x20 DUP3 DUP5 SUB SLT ISZERO PUSH2 0xB49 JUMPI PUSH1 0x0 DUP1 REVERT JUMPDEST POP CALLDATALOAD SWAP2 SWAP1 POP JUMP JUMPDEST PUSH1 0x0 DUP2 MLOAD DUP1 DUP5 MSTORE PUSH1 0x0 JUMPDEST DUP2 DUP2 LT ISZERO PUSH2 0xB76 JUMPI PUSH1 0x20 DUP2 DUP6 ADD DUP2 ADD MLOAD DUP7 DUP4 ADD DUP3 ADD MSTORE ADD PUSH2 0xB5A JUMP JUMPDEST DUP2 DUP2 GT ISZERO PUSH2 0xB88 JUMPI PUSH1 0x0 PUSH1 0x20 DUP4 DUP8 ADD ADD MSTORE JUMPDEST POP PUSH1 0x1F ADD PUSH1 0x1F NOT AND SWAP3 SWAP1 SWAP3 ADD PUSH1 0x20 ADD SWAP3 SWAP2 POP POP JUMP JUMPDEST PUSH1 0x80 DUP2 MSTORE PUSH1 0x0 PUSH2 0xBB0 PUSH1 0x80 DUP4 ADD DUP8 PUSH2 0xB50 JUMP JUMPDEST DUP6 PUSH1 0x20 DUP5 ADD MSTORE DUP3 DUP2 SUB PUSH1 0x40 DUP5 ADD MSTORE PUSH2 0xBC8 DUP2 DUP7 PUSH2 0xB50 JUMP JUMPDEST SWAP2 POP POP DUP3 PUSH1 0x60 DUP4 ADD MSTORE SWAP6 SWAP5 POP POP POP POP POP JUMP JUMPDEST PUSH1 0x20 DUP2 MSTORE PUSH1 0x0 PUSH2 0xBED PUSH1 0x20 DUP4 ADD DUP5 PUSH2 0xB50 JUMP JUMPDEST SWAP4 SWAP3 POP POP POP JUMP JUMPDEST PUSH1 0x0 DUP1 PUSH1 0x0 PUSH1 0x60 DUP5 DUP7 SUB SLT ISZERO PUSH2 0xC09 JUMPI PUSH1 0x0 DUP1 REVERT JUMPDEST DUP4 CALLDATALOAD PUSH20 0xFFFFFFFFFFFFFFFFFFFFFFFFFFFFFFFFFFFFFFFF DUP2 AND DUP2 EQ PUSH2 0xC2D JUMPI PUSH1 0x0 DUP1 REVERT JUMPDEST SWAP6 PUSH1 0x20 DUP6 ADD CALLDATALOAD SWAP6 POP PUSH1 0x40 SWAP1 SWAP5 ADD CALLDATALOAD SWAP4 SWAP3 POP POP POP JUMP JUMPDEST PUSH4 0x4E487B71 PUSH1 0xE0 SHL PUSH1 0x0 MSTORE PUSH1 0x11 PUSH1 0x4 MSTORE PUSH1 0x24 PUSH1 0x0 REVERT JUMPDEST PUSH1 0x0 DUP3 NOT DUP3 GT ISZERO PUSH2 0xC6B JUMPI PUSH2 0xC6B PUSH2 0xC42 JUMP JUMPDEST POP ADD SWAP1 JUMP JUMPDEST PUSH1 0x1 DUP2 DUP2 SHR SWAP1 DUP3 AND DUP1 PUSH2 0xC84 JUMPI PUSH1 0x7F DUP3 AND SWAP2 POP JUMPDEST PUSH1 0x20 DUP3 LT DUP2 EQ ISZERO PUSH2 0xCA5 JUMPI PUSH4 0x4E487B71 PUSH1 0xE0 SHL PUSH1 0x0 MSTORE PUSH1 0x22 PUSH1 0x4 MSTORE PUSH1 0x24 PUSH1 0x0 REVERT JUMPDEST POP SWAP2 SWAP1 POP JUMP JUMPDEST PUSH1 0x0 PUSH1 0x0 NOT DUP3 EQ ISZERO PUSH2 0xCBF JUMPI PUSH2 0xCBF PUSH2 0xC42 JUMP JUMPDEST POP PUSH1 0x1 ADD SWAP1 JUMP INVALID LOG2 PUSH5 0x6970667358 0x22 SLT KECCAK256 0xCE 0xCB PUSH17 0xEFE1035EF56B3CB3EFF23D5252CC1F361C SAR SWAP12 0xFC 0xDC BALANCE DUP15 0xE3 0xB5 0xC8 LOG2 0xCE 0xD7 PUSH5 0x736F6C6343 STOP ADDMOD MULMOD STOP CALLER "
				},
				"gasEstimates": {
					"creation": {
						"codeDepositCost": "664800",
						"executionCost": "696",
						"totalCost": "665496"
					},
					"external": {
						"addCandidateDetails(string,uint256,string)": "infinite",
						"addVoterDetails(address,uint256,uint256)": "infinite",
						"candidateDetails(uint256)": "infinite",
						"checkCandidateStatus(uint256)": "2646",
						"checkVoterStatus(uint256)": "2668",
						"hasRegistered(bytes32)": "2495",
						"hasVoted(bytes32)": "2518",
						"listOfParties(uint256)": "infinite",
						"partyCounter()": "2308",
						"result()": "infinite",
						"voterCounter()": "2329",
						"voterDetails(bytes32)": "4627",
						"winner()": "infinite"
					}
				},
				"methodIdentifiers": {
					"addCandidateDetails(string,uint256,string)": "13732d79",
					"addVoterDetails(address,uint256,uint256)": "7a26dd31",
					"candidateDetails(uint256)": "6247e532",
					"checkCandidateStatus(uint256)": "b2fb8e37",
					"checkVoterStatus(uint256)": "c93346ab",
					"hasRegistered(bytes32)": "6b0eec1c",
					"hasVoted(bytes32)": "1b4613cb",
					"listOfParties(uint256)": "e9d729ae",
					"partyCounter()": "0500894d",
					"result()": "65372147",
					"voterCounter()": "4d50ba3a",
					"voterDetails(bytes32)": "1e51c9ea",
					"winner()": "dfbf53ae"
				}
			},
			"storageLayout": {
				"storage": [
					{
						"astId": 65,
						"contract": "Eip1822/Eip1822LogicContract.sol:Eip1822LogicContract",
						"label": "voterDetails",
						"offset": 0,
						"slot": "0",
						"type": "t_mapping(t_bytes32,t_struct(VoterDetails)51_storage)"
					},
					{
						"astId": 70,
						"contract": "Eip1822/Eip1822LogicContract.sol:Eip1822LogicContract",
						"label": "candidateDetails",
						"offset": 0,
						"slot": "1",
						"type": "t_mapping(t_uint256,t_struct(CandidateDetails)60_storage)"
					},
					{
						"astId": 74,
						"contract": "Eip1822/Eip1822LogicContract.sol:Eip1822LogicContract",
						"label": "hasVoted",
						"offset": 0,
						"slot": "2",
						"type": "t_mapping(t_bytes32,t_bool)"
					},
					{
						"astId": 78,
						"contract": "Eip1822/Eip1822LogicContract.sol:Eip1822LogicContract",
						"label": "hasRegistered",
						"offset": 0,
						"slot": "3",
						"type": "t_mapping(t_bytes32,t_bool)"
					},
					{
						"astId": 80,
						"contract": "Eip1822/Eip1822LogicContract.sol:Eip1822LogicContract",
						"label": "partyCounter",
						"offset": 0,
						"slot": "4",
						"type": "t_uint256"
					},
					{
						"astId": 82,
						"contract": "Eip1822/Eip1822LogicContract.sol:Eip1822LogicContract",
						"label": "voterCounter",
						"offset": 0,
						"slot": "5",
						"type": "t_uint256"
					},
					{
						"astId": 85,
						"contract": "Eip1822/Eip1822LogicContract.sol:Eip1822LogicContract",
						"label": "listOfParties",
						"offset": 0,
						"slot": "6",
						"type": "t_array(t_string_storage)dyn_storage"
					},
					{
						"astId": 87,
						"contract": "Eip1822/Eip1822LogicContract.sol:Eip1822LogicContract",
						"label": "winner",
						"offset": 0,
						"slot": "7",
						"type": "t_string_storage"
					}
				],
				"types": {
					"t_address": {
						"encoding": "inplace",
						"label": "address",
						"numberOfBytes": "20"
					},
					"t_array(t_string_storage)dyn_storage": {
						"base": "t_string_storage",
						"encoding": "dynamic_array",
						"label": "string[]",
						"numberOfBytes": "32"
					},
					"t_bool": {
						"encoding": "inplace",
						"label": "bool",
						"numberOfBytes": "1"
					},
					"t_bytes32": {
						"encoding": "inplace",
						"label": "bytes32",
						"numberOfBytes": "32"
					},
					"t_mapping(t_bytes32,t_bool)": {
						"encoding": "mapping",
						"key": "t_bytes32",
						"label": "mapping(bytes32 => bool)",
						"numberOfBytes": "32",
						"value": "t_bool"
					},
					"t_mapping(t_bytes32,t_struct(VoterDetails)51_storage)": {
						"encoding": "mapping",
						"key": "t_bytes32",
						"label": "mapping(bytes32 => struct Eip1822LogicContract.VoterDetails)",
						"numberOfBytes": "32",
						"value": "t_struct(VoterDetails)51_storage"
					},
					"t_mapping(t_uint256,t_struct(CandidateDetails)60_storage)": {
						"encoding": "mapping",
						"key": "t_uint256",
						"label": "mapping(uint256 => struct Eip1822LogicContract.CandidateDetails)",
						"numberOfBytes": "32",
						"value": "t_struct(CandidateDetails)60_storage"
					},
					"t_string_storage": {
						"encoding": "bytes",
						"label": "string",
						"numberOfBytes": "32"
					},
					"t_struct(CandidateDetails)60_storage": {
						"encoding": "inplace",
						"label": "struct Eip1822LogicContract.CandidateDetails",
						"members": [
							{
								"astId": 53,
								"contract": "Eip1822/Eip1822LogicContract.sol:Eip1822LogicContract",
								"label": "nameOfCandidate",
								"offset": 0,
								"slot": "0",
								"type": "t_string_storage"
							},
							{
								"astId": 55,
								"contract": "Eip1822/Eip1822LogicContract.sol:Eip1822LogicContract",
								"label": "voterCardNo",
								"offset": 0,
								"slot": "1",
								"type": "t_bytes32"
							},
							{
								"astId": 57,
								"contract": "Eip1822/Eip1822LogicContract.sol:Eip1822LogicContract",
								"label": "partyName",
								"offset": 0,
								"slot": "2",
								"type": "t_string_storage"
							},
							{
								"astId": 59,
								"contract": "Eip1822/Eip1822LogicContract.sol:Eip1822LogicContract",
								"label": "totalVotes",
								"offset": 0,
								"slot": "3",
								"type": "t_uint256"
							}
						],
						"numberOfBytes": "128"
					},
					"t_struct(VoterDetails)51_storage": {
						"encoding": "inplace",
						"label": "struct Eip1822LogicContract.VoterDetails",
						"members": [
							{
								"astId": 48,
								"contract": "Eip1822/Eip1822LogicContract.sol:Eip1822LogicContract",
								"label": "voterAddress",
								"offset": 0,
								"slot": "0",
								"type": "t_address"
							},
							{
								"astId": 50,
								"contract": "Eip1822/Eip1822LogicContract.sol:Eip1822LogicContract",
								"label": "partyNumber",
								"offset": 0,
								"slot": "1",
								"type": "t_uint256"
							}
						],
						"numberOfBytes": "64"
					},
					"t_uint256": {
						"encoding": "inplace",
						"label": "uint256",
						"numberOfBytes": "32"
					}
				}
			},
			"userdoc": {
				"kind": "user",
				"methods": {},
				"version": 1
			}
		}
	}
}