{
	"contracts/Eip1822/ProxyC.sol": {
		"UniversalUpgradableProxy": {
			"abi": [
				{
					"inputs": [
						{
							"internalType": "address",
							"name": "initialLogicContract",
							"type": "address"
						}
					],
					"stateMutability": "nonpayable",
					"type": "constructor"
				},
				{
					"stateMutability": "payable",
					"type": "fallback"
				},
				{
					"inputs": [
						{
							"internalType": "address",
							"name": "newLogicContract",
							"type": "address"
						}
					],
					"name": "upgradeLogicContract",
					"outputs": [],
					"stateMutability": "nonpayable",
					"type": "function"
				}
			],
			"devdoc": {
				"details": "This contract acts as a proxy that forwards all calls to a target contract. It allows for upgrading the logic contract while preserving the proxy contract's address.",
				"kind": "dev",
				"methods": {
					"constructor": {
						"details": "Constructor function",
						"params": {
							"initialLogicContract": "Address of the initial logic contract"
						}
					},
					"upgradeLogicContract(address)": {
						"details": "Function to upgrade the logic contract to a new contract",
						"params": {
							"newLogicContract": "Address of the new logic contract"
						}
					}
				},
				"title": "UniversalUpgradableProxy",
				"version": 1
			},
			"evm": {
				"assembly": "    /* \"contracts/Eip1822/ProxyC.sol\":277:2000  contract UniversalUpgradableProxy {... */\n  mstore(0x40, 0x80)\n    /* \"contracts/Eip1822/ProxyC.sol\":483:586  constructor(address initialLogicContract) {... */\n  callvalue\n  dup1\n  iszero\n  tag_1\n  jumpi\n  0x00\n  dup1\n  revert\ntag_1:\n  pop\n  mload(0x40)\n  sub(codesize, bytecodeSize)\n  dup1\n  bytecodeSize\n  dup4\n  codecopy\n  dup2\n  add\n  0x40\n  dup2\n  swap1\n  mstore\n  tag_2\n  swap2\n  tag_3\n  jump\t// in\ntag_2:\n    /* \"contracts/Eip1822/ProxyC.sol\":535:556  _currentLogicContract */\n  0x00\n    /* \"contracts/Eip1822/ProxyC.sol\":535:579  _currentLogicContract = initialLogicContract */\n  dup1\n  sload\n  not(sub(shl(0xa0, 0x01), 0x01))\n  and\n  sub(shl(0xa0, 0x01), 0x01)\n  swap3\n  swap1\n  swap3\n  and\n  swap2\n  swap1\n  swap2\n  or\n  swap1\n  sstore\n    /* \"contracts/Eip1822/ProxyC.sol\":277:2000  contract UniversalUpgradableProxy {... */\n  jump(tag_7)\n    /* \"#utility.yul\":14:304   */\ntag_3:\n    /* \"#utility.yul\":84:90   */\n  0x00\n    /* \"#utility.yul\":137:139   */\n  0x20\n    /* \"#utility.yul\":125:134   */\n  dup3\n    /* \"#utility.yul\":116:123   */\n  dup5\n    /* \"#utility.yul\":112:135   */\n  sub\n    /* \"#utility.yul\":108:140   */\n  slt\n    /* \"#utility.yul\":105:157   */\n  iszero\n  tag_9\n  jumpi\n    /* \"#utility.yul\":153:154   */\n  0x00\n    /* \"#utility.yul\":150:151   */\n  dup1\n    /* \"#utility.yul\":143:155   */\n  revert\n    /* \"#utility.yul\":105:157   */\ntag_9:\n    /* \"#utility.yul\":179:195   */\n  dup2\n  mload\n  sub(shl(0xa0, 0x01), 0x01)\n    /* \"#utility.yul\":224:255   */\n  dup2\n  and\n    /* \"#utility.yul\":214:256   */\n  dup2\n  eq\n    /* \"#utility.yul\":204:274   */\n  tag_10\n  jumpi\n    /* \"#utility.yul\":270:271   */\n  0x00\n    /* \"#utility.yul\":267:268   */\n  dup1\n    /* \"#utility.yul\":260:272   */\n  revert\n    /* \"#utility.yul\":204:274   */\ntag_10:\n    /* \"#utility.yul\":293:298   */\n  swap4\n    /* \"#utility.yul\":14:304   */\n  swap3\n  pop\n  pop\n  pop\n  jump\t// out\ntag_7:\n    /* \"contracts/Eip1822/ProxyC.sol\":277:2000  contract UniversalUpgradableProxy {... */\n  dataSize(sub_0)\n  dup1\n  dataOffset(sub_0)\n  0x00\n  codecopy\n  0x00\n  return\nstop\n\nsub_0: assembly {\n        /* \"contracts/Eip1822/ProxyC.sol\":277:2000  contract UniversalUpgradableProxy {... */\n      mstore(0x40, 0x80)\n      jumpi(tag_1, lt(calldatasize, 0x04))\n      shr(0xe0, calldataload(0x00))\n      dup1\n      0xa17003b8\n      eq\n      tag_3\n      jumpi\n    tag_1:\n        /* \"contracts/Eip1822/ProxyC.sol\":744:765  _currentLogicContract */\n      sload(0x00)\n        /* \"contracts/Eip1822/ProxyC.sol\":730:766  _delegateCall(_currentLogicContract) */\n      tag_6\n      swap1\n        /* \"contracts/Eip1822/ProxyC.sol\":744:765  _currentLogicContract */\n      0xffffffffffffffffffffffffffffffffffffffff\n      and\n        /* \"contracts/Eip1822/ProxyC.sol\":730:743  _delegateCall */\n      tag_7\n        /* \"contracts/Eip1822/ProxyC.sol\":730:766  _delegateCall(_currentLogicContract) */\n      jump\t// in\n    tag_6:\n        /* \"contracts/Eip1822/ProxyC.sol\":277:2000  contract UniversalUpgradableProxy {... */\n      stop\n        /* \"contracts/Eip1822/ProxyC.sol\":929:1051  function upgradeLogicContract(address newLogicContract) external {... */\n    tag_3:\n      callvalue\n      dup1\n      iszero\n      tag_8\n      jumpi\n      0x00\n      dup1\n      revert\n    tag_8:\n      pop\n      tag_6\n      tag_10\n      calldatasize\n      0x04\n      tag_11\n      jump\t// in\n    tag_10:\n        /* \"contracts/Eip1822/ProxyC.sol\":1004:1025  _currentLogicContract */\n      0x00\n        /* \"contracts/Eip1822/ProxyC.sol\":1004:1044  _currentLogicContract = newLogicContract */\n      dup1\n      sload\n      0xffffffffffffffffffffffff0000000000000000000000000000000000000000\n      and\n      0xffffffffffffffffffffffffffffffffffffffff\n      swap3\n      swap1\n      swap3\n      and\n      swap2\n      swap1\n      swap2\n      or\n      swap1\n      sstore\n        /* \"contracts/Eip1822/ProxyC.sol\":929:1051  function upgradeLogicContract(address newLogicContract) external {... */\n      jump\n        /* \"contracts/Eip1822/ProxyC.sol\":1213:1998  function _delegateCall(address target) private {... */\n    tag_7:\n        /* \"contracts/Eip1822/ProxyC.sol\":1380:1384  0x40 */\n      0x40\n        /* \"contracts/Eip1822/ProxyC.sol\":1374:1385  mload(0x40) */\n      mload\n        /* \"contracts/Eip1822/ProxyC.sol\":1472:1486  calldatasize() */\n      calldatasize\n        /* \"contracts/Eip1822/ProxyC.sol\":1469:1470  0 */\n      0x00\n        /* \"contracts/Eip1822/ProxyC.sol\":1464:1467  ptr */\n      dup3\n        /* \"contracts/Eip1822/ProxyC.sol\":1451:1487  calldatacopy(ptr, 0, calldatasize()) */\n      calldatacopy\n        /* \"contracts/Eip1822/ProxyC.sol\":1645:1646  0 */\n      0x00\n        /* \"contracts/Eip1822/ProxyC.sol\":1642:1643  0 */\n      dup1\n        /* \"contracts/Eip1822/ProxyC.sol\":1626:1640  calldatasize() */\n      calldatasize\n        /* \"contracts/Eip1822/ProxyC.sol\":1621:1624  ptr */\n      dup4\n        /* \"contracts/Eip1822/ProxyC.sol\":1613:1619  target */\n      dup6\n        /* \"contracts/Eip1822/ProxyC.sol\":1606:1611  gas() */\n      gas\n        /* \"contracts/Eip1822/ProxyC.sol\":1593:1647  delegatecall(gas(), target, ptr, calldatasize(), 0, 0) */\n      delegatecall\n        /* \"contracts/Eip1822/ProxyC.sol\":1722:1738  returndatasize() */\n      returndatasize\n        /* \"contracts/Eip1822/ProxyC.sol\":1819:1823  size */\n      dup1\n        /* \"contracts/Eip1822/ProxyC.sol\":1816:1817  0 */\n      0x00\n        /* \"contracts/Eip1822/ProxyC.sol\":1811:1814  ptr */\n      dup5\n        /* \"contracts/Eip1822/ProxyC.sol\":1796:1824  returndatacopy(ptr, 0, size) */\n      returndatacopy\n        /* \"contracts/Eip1822/ProxyC.sol\":1893:1899  result */\n      dup2\n        /* \"contracts/Eip1822/ProxyC.sol\":1912:1940  case 0 { revert(ptr, size) } */\n      dup1\n      iszero\n      tag_15\n      jumpi\n        /* \"contracts/Eip1822/ProxyC.sol\":1975:1979  size */\n      dup2\n        /* \"contracts/Eip1822/ProxyC.sol\":1970:1973  ptr */\n      dup5\n        /* \"contracts/Eip1822/ProxyC.sol\":1963:1980  return(ptr, size) */\n      return\n        /* \"contracts/Eip1822/ProxyC.sol\":1912:1940  case 0 { revert(ptr, size) } */\n    tag_15:\n        /* \"contracts/Eip1822/ProxyC.sol\":1933:1937  size */\n      dup2\n        /* \"contracts/Eip1822/ProxyC.sol\":1928:1931  ptr */\n      dup5\n        /* \"contracts/Eip1822/ProxyC.sol\":1921:1938  revert(ptr, size) */\n      revert\n        /* \"#utility.yul\":14:323   */\n    tag_11:\n        /* \"#utility.yul\":73:79   */\n      0x00\n        /* \"#utility.yul\":126:128   */\n      0x20\n        /* \"#utility.yul\":114:123   */\n      dup3\n        /* \"#utility.yul\":105:112   */\n      dup5\n        /* \"#utility.yul\":101:124   */\n      sub\n        /* \"#utility.yul\":97:129   */\n      slt\n        /* \"#utility.yul\":94:146   */\n      iszero\n      tag_19\n      jumpi\n        /* \"#utility.yul\":142:143   */\n      0x00\n        /* \"#utility.yul\":139:140   */\n      dup1\n        /* \"#utility.yul\":132:144   */\n      revert\n        /* \"#utility.yul\":94:146   */\n    tag_19:\n        /* \"#utility.yul\":181:190   */\n      dup2\n        /* \"#utility.yul\":168:191   */\n      calldataload\n        /* \"#utility.yul\":231:273   */\n      0xffffffffffffffffffffffffffffffffffffffff\n        /* \"#utility.yul\":224:229   */\n      dup2\n        /* \"#utility.yul\":220:274   */\n      and\n        /* \"#utility.yul\":213:218   */\n      dup2\n        /* \"#utility.yul\":210:275   */\n      eq\n        /* \"#utility.yul\":200:293   */\n      tag_20\n      jumpi\n        /* \"#utility.yul\":289:290   */\n      0x00\n        /* \"#utility.yul\":286:287   */\n      dup1\n        /* \"#utility.yul\":279:291   */\n      revert\n        /* \"#utility.yul\":200:293   */\n    tag_20:\n        /* \"#utility.yul\":312:317   */\n      swap4\n        /* \"#utility.yul\":14:323   */\n      swap3\n      pop\n      pop\n      pop\n      jump\t// out\n\n    auxdata: 0xa2646970667358221220737522551c5a72878c7dbbd408861839458bddb7dee7b5974134510bc9cc993464736f6c63430008180033\n}\n",
				"bytecode": {
					"linkReferences": {},
					"object": "608060405234801561000f575f80fd5b506040516101b33803806101b383398101604081905261002e91610052565b5f80546001600160a01b0319166001600160a01b039290921691909117905561007f565b5f60208284031215610062575f80fd5b81516001600160a01b0381168114610078575f80fd5b9392505050565b6101278061008c5f395ff3fe608060405260043610601b575f3560e01c8063a17003b814603c575b5f54603a9073ffffffffffffffffffffffffffffffffffffffff166098565b005b3480156046575f80fd5b50603a605236600460b9565b5f80547fffffffffffffffffffffffff00000000000000000000000000000000000000001673ffffffffffffffffffffffffffffffffffffffff92909216919091179055565b604051365f82375f803683855af43d805f843e81801560b5578184f35b8184fd5b5f6020828403121560c8575f80fd5b813573ffffffffffffffffffffffffffffffffffffffff8116811460ea575f80fd5b939250505056fea2646970667358221220737522551c5a72878c7dbbd408861839458bddb7dee7b5974134510bc9cc993464736f6c63430008180033",
					"opcodes": "PUSH1 0x80 PUSH1 0x40 MSTORE CALLVALUE DUP1 ISZERO PUSH2 0xF JUMPI PUSH0 DUP1 REVERT JUMPDEST POP PUSH1 0x40 MLOAD PUSH2 0x1B3 CODESIZE SUB DUP1 PUSH2 0x1B3 DUP4 CODECOPY DUP2 ADD PUSH1 0x40 DUP2 SWAP1 MSTORE PUSH2 0x2E SWAP2 PUSH2 0x52 JUMP JUMPDEST PUSH0 DUP1 SLOAD PUSH1 0x1 PUSH1 0x1 PUSH1 0xA0 SHL SUB NOT AND PUSH1 0x1 PUSH1 0x1 PUSH1 0xA0 SHL SUB SWAP3 SWAP1 SWAP3 AND SWAP2 SWAP1 SWAP2 OR SWAP1 SSTORE PUSH2 0x7F JUMP JUMPDEST PUSH0 PUSH1 0x20 DUP3 DUP5 SUB SLT ISZERO PUSH2 0x62 JUMPI PUSH0 DUP1 REVERT JUMPDEST DUP2 MLOAD PUSH1 0x1 PUSH1 0x1 PUSH1 0xA0 SHL SUB DUP2 AND DUP2 EQ PUSH2 0x78 JUMPI PUSH0 DUP1 REVERT JUMPDEST SWAP4 SWAP3 POP POP POP JUMP JUMPDEST PUSH2 0x127 DUP1 PUSH2 0x8C PUSH0 CODECOPY PUSH0 RETURN INVALID PUSH1 0x80 PUSH1 0x40 MSTORE PUSH1 0x4 CALLDATASIZE LT PUSH1 0x1B JUMPI PUSH0 CALLDATALOAD PUSH1 0xE0 SHR DUP1 PUSH4 0xA17003B8 EQ PUSH1 0x3C JUMPI JUMPDEST PUSH0 SLOAD PUSH1 0x3A SWAP1 PUSH20 0xFFFFFFFFFFFFFFFFFFFFFFFFFFFFFFFFFFFFFFFF AND PUSH1 0x98 JUMP JUMPDEST STOP JUMPDEST CALLVALUE DUP1 ISZERO PUSH1 0x46 JUMPI PUSH0 DUP1 REVERT JUMPDEST POP PUSH1 0x3A PUSH1 0x52 CALLDATASIZE PUSH1 0x4 PUSH1 0xB9 JUMP JUMPDEST PUSH0 DUP1 SLOAD PUSH32 0xFFFFFFFFFFFFFFFFFFFFFFFF0000000000000000000000000000000000000000 AND PUSH20 0xFFFFFFFFFFFFFFFFFFFFFFFFFFFFFFFFFFFFFFFF SWAP3 SWAP1 SWAP3 AND SWAP2 SWAP1 SWAP2 OR SWAP1 SSTORE JUMP JUMPDEST PUSH1 0x40 MLOAD CALLDATASIZE PUSH0 DUP3 CALLDATACOPY PUSH0 DUP1 CALLDATASIZE DUP4 DUP6 GAS DELEGATECALL RETURNDATASIZE DUP1 PUSH0 DUP5 RETURNDATACOPY DUP2 DUP1 ISZERO PUSH1 0xB5 JUMPI DUP2 DUP5 RETURN JUMPDEST DUP2 DUP5 REVERT JUMPDEST PUSH0 PUSH1 0x20 DUP3 DUP5 SUB SLT ISZERO PUSH1 0xC8 JUMPI PUSH0 DUP1 REVERT JUMPDEST DUP2 CALLDATALOAD PUSH20 0xFFFFFFFFFFFFFFFFFFFFFFFFFFFFFFFFFFFFFFFF DUP2 AND DUP2 EQ PUSH1 0xEA JUMPI PUSH0 DUP1 REVERT JUMPDEST SWAP4 SWAP3 POP POP POP JUMP INVALID LOG2 PUSH5 0x6970667358 0x22 SLT KECCAK256 PUSH20 0x7522551C5A72878C7DBBD408861839458BDDB7DE 0xE7 0xB5 SWAP8 COINBASE CALLVALUE MLOAD SIGNEXTEND 0xC9 0xCC SWAP10 CALLVALUE PUSH5 0x736F6C6343 STOP ADDMOD XOR STOP CALLER "
				},
				"gasEstimates": {
					"creation": {
						"codeDepositCost": "59000",
						"executionCost": "infinite",
						"totalCost": "infinite"
					},
					"external": {
						"": "infinite",
						"upgradeLogicContract(address)": "24460"
					},
					"internal": {
						"_delegateCall(address)": "infinite"
					}
				},
				"methodIdentifiers": {
					"upgradeLogicContract(address)": "a17003b8"
				}
			},
			"storageLayout": {
				"storage": [
					{
						"astId": 4,
						"contract": "contracts/Eip1822/ProxyC.sol:UniversalUpgradableProxy",
						"label": "_currentLogicContract",
						"offset": 0,
						"slot": "0",
						"type": "t_address"
					}
				],
				"types": {
					"t_address": {
						"encoding": "inplace",
						"label": "address",
						"numberOfBytes": "20"
					}
				}
			},
			"userdoc": {
				"kind": "user",
				"methods": {},
				"version": 1
			}
		}
	}
}