{
	"Eip1822/LogiceC.sol": {
		"Counter": {
			"abi": [
				{
					"inputs": [
						{
							"internalType": "uint256",
							"name": "initialValue",
							"type": "uint256"
						}
					],
					"stateMutability": "nonpayable",
					"type": "constructor"
				},
				{
					"anonymous": false,
					"inputs": [
						{
							"indexed": false,
							"internalType": "uint256",
							"name": "newValue",
							"type": "uint256"
						}
					],
					"name": "CountIncremented",
					"type": "event"
				},
				{
					"inputs": [],
					"name": "getCount",
					"outputs": [
						{
							"internalType": "uint256",
							"name": "",
							"type": "uint256"
						}
					],
					"stateMutability": "view",
					"type": "function"
				},
				{
					"inputs": [],
					"name": "incrementCount",
					"outputs": [],
					"stateMutability": "nonpayable",
					"type": "function"
				}
			],
			"devdoc": {
				"details": "Simple contract to demonstrate EIP-1822 Universal Upgradable Proxy",
				"events": {
					"CountIncremented(uint256)": {
						"details": "Event emitted when the count is incremented",
						"params": {
							"newValue": "New value of the count"
						}
					}
				},
				"kind": "dev",
				"methods": {
					"constructor": {
						"details": "Constructor function",
						"params": {
							"initialValue": "Initial value of the count"
						}
					},
					"getCount()": {
						"details": "Function to get the current count value",
						"returns": {
							"_0": "Current value of the count"
						}
					},
					"incrementCount()": {
						"details": "Function to increment the count value"
					}
				},
				"title": "Counter",
				"version": 1
			},
			"evm": {
				"assembly": "    /* \"Eip1822/LogiceC.sol\":158:921  contract Counter {... */\n  mstore(0x40, 0x80)\n    /* \"Eip1822/LogiceC.sol\":478:550  constructor(uint256 initialValue) {... */\n  callvalue\n  dup1\n  iszero\n  tag_1\n  jumpi\n  0x00\n  dup1\n  revert\ntag_1:\n  pop\n  mload(0x40)\n  sub(codesize, bytecodeSize)\n  dup1\n  bytecodeSize\n  dup4\n  codecopy\n  dup2\n  add\n  0x40\n  dup2\n  swap1\n  mstore\n  tag_2\n  swap2\n  tag_3\n  jump\t// in\ntag_2:\n    /* \"Eip1822/LogiceC.sol\":522:528  _count */\n  0x00\n    /* \"Eip1822/LogiceC.sol\":522:543  _count = initialValue */\n  sstore\n    /* \"Eip1822/LogiceC.sol\":158:921  contract Counter {... */\n  jump(tag_7)\n    /* \"#utility.yul\":14:198   */\ntag_3:\n    /* \"#utility.yul\":84:90   */\n  0x00\n    /* \"#utility.yul\":137:139   */\n  0x20\n    /* \"#utility.yul\":125:134   */\n  dup3\n    /* \"#utility.yul\":116:123   */\n  dup5\n    /* \"#utility.yul\":112:135   */\n  sub\n    /* \"#utility.yul\":108:140   */\n  slt\n    /* \"#utility.yul\":105:157   */\n  iszero\n  tag_9\n  jumpi\n    /* \"#utility.yul\":153:154   */\n  0x00\n    /* \"#utility.yul\":150:151   */\n  dup1\n    /* \"#utility.yul\":143:155   */\n  revert\n    /* \"#utility.yul\":105:157   */\ntag_9:\n  pop\n    /* \"#utility.yul\":176:192   */\n  mload\n  swap2\n    /* \"#utility.yul\":14:198   */\n  swap1\n  pop\n  jump\t// out\ntag_7:\n    /* \"Eip1822/LogiceC.sol\":158:921  contract Counter {... */\n  dataSize(sub_0)\n  dup1\n  dataOffset(sub_0)\n  0x00\n  codecopy\n  0x00\n  return\nstop\n\nsub_0: assembly {\n        /* \"Eip1822/LogiceC.sol\":158:921  contract Counter {... */\n      mstore(0x40, 0x80)\n      callvalue\n      dup1\n      iszero\n      tag_1\n      jumpi\n      0x00\n      dup1\n      revert\n    tag_1:\n      pop\n      jumpi(tag_2, lt(calldatasize, 0x04))\n      shr(0xe0, calldataload(0x00))\n      dup1\n      0xa87d942c\n      eq\n      tag_3\n      jumpi\n      dup1\n      0xe5071b8e\n      eq\n      tag_4\n      jumpi\n    tag_2:\n      0x00\n      dup1\n      revert\n        /* \"Eip1822/LogiceC.sol\":666:748  function getCount() external view returns (uint256) {... */\n    tag_3:\n        /* \"Eip1822/LogiceC.sol\":709:716  uint256 */\n      0x00\n        /* \"Eip1822/LogiceC.sol\":735:741  _count */\n      sload\n        /* \"Eip1822/LogiceC.sol\":666:748  function getCount() external view returns (uint256) {... */\n      mload(0x40)\n        /* \"#utility.yul\":160:185   */\n      swap1\n      dup2\n      mstore\n        /* \"#utility.yul\":148:150   */\n      0x20\n        /* \"#utility.yul\":133:151   */\n      add\n        /* \"Eip1822/LogiceC.sol\":666:748  function getCount() external view returns (uint256) {... */\n      mload(0x40)\n      dup1\n      swap2\n      sub\n      swap1\n      return\n        /* \"Eip1822/LogiceC.sol\":820:919  function incrementCount() external {... */\n    tag_4:\n      tag_9\n      tag_10\n      jump\t// in\n    tag_9:\n      stop\n    tag_10:\n        /* \"Eip1822/LogiceC.sol\":865:871  _count */\n      0x00\n        /* \"Eip1822/LogiceC.sol\":865:873  _count++ */\n      dup1\n      sload\n      swap1\n        /* \"Eip1822/LogiceC.sol\":865:871  _count */\n      dup1\n        /* \"Eip1822/LogiceC.sol\":865:873  _count++ */\n      tag_13\n      dup4\n      tag_14\n      jump\t// in\n    tag_13:\n      swap2\n      swap1\n      pop\n      sstore\n      pop\n        /* \"Eip1822/LogiceC.sol\":888:912  CountIncremented(_count) */\n      0x420680a649b45cbb7e97b24365d8ed81598dce543f2a2014d48fe328aa47e8bb\n        /* \"Eip1822/LogiceC.sol\":905:911  _count */\n      sload(0x00)\n        /* \"Eip1822/LogiceC.sol\":888:912  CountIncremented(_count) */\n      mload(0x40)\n      tag_15\n      swap2\n        /* \"#utility.yul\":160:185   */\n      dup2\n      mstore\n        /* \"#utility.yul\":148:150   */\n      0x20\n        /* \"#utility.yul\":133:151   */\n      add\n      swap1\n        /* \"#utility.yul\":14:191   */\n      jump\n        /* \"Eip1822/LogiceC.sol\":888:912  CountIncremented(_count) */\n    tag_15:\n      mload(0x40)\n      dup1\n      swap2\n      sub\n      swap1\n      log1\n        /* \"Eip1822/LogiceC.sol\":820:919  function incrementCount() external {... */\n      jump\t// out\n        /* \"#utility.yul\":196:485   */\n    tag_14:\n        /* \"#utility.yul\":235:238   */\n      0x00\n        /* \"#utility.yul\":256:273   */\n      0x01\n      dup3\n      add\n        /* \"#utility.yul\":253:450   */\n      tag_19\n      jumpi\n        /* \"#utility.yul\":306:383   */\n      0x4e487b7100000000000000000000000000000000000000000000000000000000\n        /* \"#utility.yul\":303:304   */\n      0x00\n        /* \"#utility.yul\":296:384   */\n      mstore\n        /* \"#utility.yul\":407:411   */\n      0x11\n        /* \"#utility.yul\":404:405   */\n      0x04\n        /* \"#utility.yul\":397:412   */\n      mstore\n        /* \"#utility.yul\":435:439   */\n      0x24\n        /* \"#utility.yul\":432:433   */\n      0x00\n        /* \"#utility.yul\":425:440   */\n      revert\n        /* \"#utility.yul\":253:450   */\n    tag_19:\n      pop\n        /* \"#utility.yul\":477:478   */\n      0x01\n        /* \"#utility.yul\":466:479   */\n      add\n      swap1\n        /* \"#utility.yul\":196:485   */\n      jump\t// out\n\n    auxdata: 0xa2646970667358221220e457ba7e29cc189d34ddb1a09d28b41541d56e2f0cc79574741e8f62a788575764736f6c63430008180033\n}\n",
				"bytecode": {
					"linkReferences": {},
					"object": "608060405234801561000f575f80fd5b5060405161016738038061016783398101604081905261002e91610035565b5f5561004c565b5f60208284031215610045575f80fd5b5051919050565b61010e806100595f395ff3fe6080604052348015600e575f80fd5b50600436106030575f3560e01c8063a87d942c146034578063e5071b8e146048575b5f80fd5b5f5460405190815260200160405180910390f35b604e6050565b005b5f80549080605c83609c565b91905055507f420680a649b45cbb7e97b24365d8ed81598dce543f2a2014d48fe328aa47e8bb5f54604051609291815260200190565b60405180910390a1565b5f6001820160d1577f4e487b71000000000000000000000000000000000000000000000000000000005f52601160045260245ffd5b506001019056fea2646970667358221220e457ba7e29cc189d34ddb1a09d28b41541d56e2f0cc79574741e8f62a788575764736f6c63430008180033",
					"opcodes": "PUSH1 0x80 PUSH1 0x40 MSTORE CALLVALUE DUP1 ISZERO PUSH2 0xF JUMPI PUSH0 DUP1 REVERT JUMPDEST POP PUSH1 0x40 MLOAD PUSH2 0x167 CODESIZE SUB DUP1 PUSH2 0x167 DUP4 CODECOPY DUP2 ADD PUSH1 0x40 DUP2 SWAP1 MSTORE PUSH2 0x2E SWAP2 PUSH2 0x35 JUMP JUMPDEST PUSH0 SSTORE PUSH2 0x4C JUMP JUMPDEST PUSH0 PUSH1 0x20 DUP3 DUP5 SUB SLT ISZERO PUSH2 0x45 JUMPI PUSH0 DUP1 REVERT JUMPDEST POP MLOAD SWAP2 SWAP1 POP JUMP JUMPDEST PUSH2 0x10E DUP1 PUSH2 0x59 PUSH0 CODECOPY PUSH0 RETURN INVALID PUSH1 0x80 PUSH1 0x40 MSTORE CALLVALUE DUP1 ISZERO PUSH1 0xE JUMPI PUSH0 DUP1 REVERT JUMPDEST POP PUSH1 0x4 CALLDATASIZE LT PUSH1 0x30 JUMPI PUSH0 CALLDATALOAD PUSH1 0xE0 SHR DUP1 PUSH4 0xA87D942C EQ PUSH1 0x34 JUMPI DUP1 PUSH4 0xE5071B8E EQ PUSH1 0x48 JUMPI JUMPDEST PUSH0 DUP1 REVERT JUMPDEST PUSH0 SLOAD PUSH1 0x40 MLOAD SWAP1 DUP2 MSTORE PUSH1 0x20 ADD PUSH1 0x40 MLOAD DUP1 SWAP2 SUB SWAP1 RETURN JUMPDEST PUSH1 0x4E PUSH1 0x50 JUMP JUMPDEST STOP JUMPDEST PUSH0 DUP1 SLOAD SWAP1 DUP1 PUSH1 0x5C DUP4 PUSH1 0x9C JUMP JUMPDEST SWAP2 SWAP1 POP SSTORE POP PUSH32 0x420680A649B45CBB7E97B24365D8ED81598DCE543F2A2014D48FE328AA47E8BB PUSH0 SLOAD PUSH1 0x40 MLOAD PUSH1 0x92 SWAP2 DUP2 MSTORE PUSH1 0x20 ADD SWAP1 JUMP JUMPDEST PUSH1 0x40 MLOAD DUP1 SWAP2 SUB SWAP1 LOG1 JUMP JUMPDEST PUSH0 PUSH1 0x1 DUP3 ADD PUSH1 0xD1 JUMPI PUSH32 0x4E487B7100000000000000000000000000000000000000000000000000000000 PUSH0 MSTORE PUSH1 0x11 PUSH1 0x4 MSTORE PUSH1 0x24 PUSH0 REVERT JUMPDEST POP PUSH1 0x1 ADD SWAP1 JUMP INVALID LOG2 PUSH5 0x6970667358 0x22 SLT KECCAK256 0xE4 JUMPI 0xBA PUSH31 0x29CC189D34DDB1A09D28B41541D56E2F0CC79574741E8F62A788575764736F PUSH13 0x63430008180033000000000000 "
				},
				"gasEstimates": {
					"creation": {
						"codeDepositCost": "54000",
						"executionCost": "infinite",
						"totalCost": "infinite"
					},
					"external": {
						"getCount()": "2244",
						"incrementCount()": "27598"
					}
				},
				"methodIdentifiers": {
					"getCount()": "a87d942c",
					"incrementCount()": "e5071b8e"
				}
			},
			"storageLayout": {
				"storage": [
					{
						"astId": 4,
						"contract": "Eip1822/LogiceC.sol:Counter",
						"label": "_count",
						"offset": 0,
						"slot": "0",
						"type": "t_uint256"
					}
				],
				"types": {
					"t_uint256": {
						"encoding": "inplace",
						"label": "uint256",
						"numberOfBytes": "32"
					}
				}
			},
			"userdoc": {
				"kind": "user",
				"methods": {},
				"version": 1
			}
		}
	}
}