{
	"contracts/Eip1538/TransparentC.sol": {
		"SimpleLoan": {
			"abi": [
				{
					"inputs": [
						{
							"internalType": "uint256",
							"name": "_loanAmount",
							"type": "uint256"
						},
						{
							"internalType": "uint256",
							"name": "_interestRate",
							"type": "uint256"
						},
						{
							"internalType": "uint256",
							"name": "_loanDuration",
							"type": "uint256"
						}
					],
					"stateMutability": "nonpayable",
					"type": "constructor"
				},
				{
					"inputs": [],
					"name": "borrower",
					"outputs": [
						{
							"internalType": "address",
							"name": "",
							"type": "address"
						}
					],
					"stateMutability": "view",
					"type": "function"
				},
				{
					"inputs": [],
					"name": "interestRate",
					"outputs": [
						{
							"internalType": "uint256",
							"name": "",
							"type": "uint256"
						}
					],
					"stateMutability": "view",
					"type": "function"
				},
				{
					"inputs": [],
					"name": "loanAmount",
					"outputs": [
						{
							"internalType": "uint256",
							"name": "",
							"type": "uint256"
						}
					],
					"stateMutability": "view",
					"type": "function"
				},
				{
					"inputs": [],
					"name": "loanDuration",
					"outputs": [
						{
							"internalType": "uint256",
							"name": "",
							"type": "uint256"
						}
					],
					"stateMutability": "view",
					"type": "function"
				},
				{
					"inputs": [],
					"name": "totalRepayment",
					"outputs": [
						{
							"internalType": "uint256",
							"name": "",
							"type": "uint256"
						}
					],
					"stateMutability": "view",
					"type": "function"
				}
			],
			"devdoc": {
				"kind": "dev",
				"methods": {},
				"version": 1
			},
			"evm": {
				"assembly": "    /* \"contracts/Eip1538/TransparentC.sol\":57:684  contract SimpleLoan {... */\n  mstore(0x40, 0x80)\n    /* \"contracts/Eip1538/TransparentC.sol\":245:524  constructor(uint256 _loanAmount, uint256 _interestRate, uint256 _loanDuration) {... */\n  callvalue\n  dup1\n  iszero\n  tag_1\n  jumpi\n  0x00\n  dup1\n  revert\ntag_1:\n  pop\n  mload(0x40)\n  sub(codesize, bytecodeSize)\n  dup1\n  bytecodeSize\n  dup4\n  codecopy\n  dup2\n  add\n  0x40\n  dup2\n  swap1\n  mstore\n  tag_2\n  swap2\n  tag_3\n  jump\t// in\ntag_2:\n    /* \"contracts/Eip1538/TransparentC.sol\":334:342  borrower */\n  0x00\n    /* \"contracts/Eip1538/TransparentC.sol\":334:355  borrower = msg.sender */\n  dup1\n  sload\n  not(sub(shl(0xa0, 0x01), 0x01))\n  and\n    /* \"contracts/Eip1538/TransparentC.sol\":345:355  msg.sender */\n  caller\n    /* \"contracts/Eip1538/TransparentC.sol\":334:355  borrower = msg.sender */\n  or\n  swap1\n  sstore\n  0x01\n    /* \"contracts/Eip1538/TransparentC.sol\":365:389  loanAmount = _loanAmount */\n  dup4\n  swap1\n  sstore\n    /* \"contracts/Eip1538/TransparentC.sol\":399:411  interestRate */\n  0x02\n    /* \"contracts/Eip1538/TransparentC.sol\":399:427  interestRate = _interestRate */\n  dup3\n  swap1\n  sstore\n    /* \"contracts/Eip1538/TransparentC.sol\":437:449  loanDuration */\n  0x03\n    /* \"contracts/Eip1538/TransparentC.sol\":437:465  loanDuration = _loanDuration */\n  dup2\n  swap1\n  sstore\n    /* \"contracts/Eip1538/TransparentC.sol\":492:517  calculateTotalRepayment() */\n  tag_6\n    /* \"contracts/Eip1538/TransparentC.sol\":492:515  calculateTotalRepayment */\n  tag_7\n    /* \"contracts/Eip1538/TransparentC.sol\":492:517  calculateTotalRepayment() */\n  jump\t// in\ntag_6:\n    /* \"contracts/Eip1538/TransparentC.sol\":475:489  totalRepayment */\n  0x04\n    /* \"contracts/Eip1538/TransparentC.sol\":475:517  totalRepayment = calculateTotalRepayment() */\n  sstore\n  pop\n    /* \"contracts/Eip1538/TransparentC.sol\":57:684  contract SimpleLoan {... */\n  tag_18\n  swap2\n  pop\n  pop\n  jump\n    /* \"contracts/Eip1538/TransparentC.sol\":530:682  function calculateTotalRepayment() internal view returns (uint256) {... */\ntag_7:\n    /* \"contracts/Eip1538/TransparentC.sol\":588:595  uint256 */\n  0x00\n    /* \"contracts/Eip1538/TransparentC.sol\":671:674  100 */\n  0x64\n    /* \"contracts/Eip1538/TransparentC.sol\":656:668  loanDuration */\n  sload(0x03)\n    /* \"contracts/Eip1538/TransparentC.sol\":641:653  interestRate */\n  sload(0x02)\n    /* \"contracts/Eip1538/TransparentC.sol\":628:638  loanAmount */\n  sload(0x01)\n    /* \"contracts/Eip1538/TransparentC.sol\":628:653  loanAmount * interestRate */\n  tag_10\n  swap2\n  swap1\n  tag_11\n  jump\t// in\ntag_10:\n    /* \"contracts/Eip1538/TransparentC.sol\":628:668  loanAmount * interestRate * loanDuration */\n  tag_12\n  swap2\n  swap1\n  tag_11\n  jump\t// in\ntag_12:\n    /* \"contracts/Eip1538/TransparentC.sol\":628:674  loanAmount * interestRate * loanDuration / 100 */\n  tag_13\n  swap2\n  swap1\n  tag_14\n  jump\t// in\ntag_13:\n    /* \"contracts/Eip1538/TransparentC.sol\":614:624  loanAmount */\n  sload(0x01)\n    /* \"contracts/Eip1538/TransparentC.sol\":614:675  loanAmount + (loanAmount * interestRate * loanDuration / 100) */\n  tag_15\n  swap2\n  swap1\n  tag_16\n  jump\t// in\ntag_15:\n    /* \"contracts/Eip1538/TransparentC.sol\":607:675  return loanAmount + (loanAmount * interestRate * loanDuration / 100) */\n  swap1\n  pop\n    /* \"contracts/Eip1538/TransparentC.sol\":530:682  function calculateTotalRepayment() internal view returns (uint256) {... */\n  swap1\n  jump\t// out\n    /* \"#utility.yul\":14:320   */\ntag_3:\n    /* \"#utility.yul\":102:108   */\n  0x00\n    /* \"#utility.yul\":110:116   */\n  dup1\n    /* \"#utility.yul\":118:124   */\n  0x00\n    /* \"#utility.yul\":171:173   */\n  0x60\n    /* \"#utility.yul\":159:168   */\n  dup5\n    /* \"#utility.yul\":150:157   */\n  dup7\n    /* \"#utility.yul\":146:169   */\n  sub\n    /* \"#utility.yul\":142:174   */\n  slt\n    /* \"#utility.yul\":139:191   */\n  iszero\n  tag_20\n  jumpi\n    /* \"#utility.yul\":187:188   */\n  0x00\n    /* \"#utility.yul\":184:185   */\n  dup1\n    /* \"#utility.yul\":177:189   */\n  revert\n    /* \"#utility.yul\":139:191   */\ntag_20:\n    /* \"#utility.yul\":216:225   */\n  dup4\n    /* \"#utility.yul\":210:226   */\n  mload\n    /* \"#utility.yul\":200:226   */\n  swap3\n  pop\n    /* \"#utility.yul\":266:268   */\n  0x20\n    /* \"#utility.yul\":255:264   */\n  dup5\n    /* \"#utility.yul\":251:269   */\n  add\n    /* \"#utility.yul\":245:270   */\n  mload\n    /* \"#utility.yul\":235:270   */\n  swap2\n  pop\n    /* \"#utility.yul\":310:312   */\n  0x40\n    /* \"#utility.yul\":299:308   */\n  dup5\n    /* \"#utility.yul\":295:313   */\n  add\n    /* \"#utility.yul\":289:314   */\n  mload\n    /* \"#utility.yul\":279:314   */\n  swap1\n  pop\n    /* \"#utility.yul\":14:320   */\n  swap3\n  pop\n  swap3\n  pop\n  swap3\n  jump\t// out\n    /* \"#utility.yul\":325:452   */\ntag_17:\n    /* \"#utility.yul\":386:396   */\n  0x4e487b71\n    /* \"#utility.yul\":381:384   */\n  0xe0\n    /* \"#utility.yul\":377:397   */\n  shl\n    /* \"#utility.yul\":374:375   */\n  0x00\n    /* \"#utility.yul\":367:398   */\n  mstore\n    /* \"#utility.yul\":417:421   */\n  0x11\n    /* \"#utility.yul\":414:415   */\n  0x04\n    /* \"#utility.yul\":407:422   */\n  mstore\n    /* \"#utility.yul\":441:445   */\n  0x24\n    /* \"#utility.yul\":438:439   */\n  0x00\n    /* \"#utility.yul\":431:446   */\n  revert\n    /* \"#utility.yul\":457:625   */\ntag_11:\n    /* \"#utility.yul\":530:539   */\n  dup1\n  dup3\n  mul\n    /* \"#utility.yul\":561:570   */\n  dup2\n  iszero\n    /* \"#utility.yul\":578:593   */\n  dup3\n  dup3\n  div\n    /* \"#utility.yul\":572:594   */\n  dup5\n  eq\n    /* \"#utility.yul\":558:595   */\n  or\n    /* \"#utility.yul\":548:619   */\n  tag_24\n  jumpi\n    /* \"#utility.yul\":599:617   */\n  tag_24\n  tag_17\n  jump\t// in\ntag_24:\n    /* \"#utility.yul\":457:625   */\n  swap3\n  swap2\n  pop\n  pop\n  jump\t// out\n    /* \"#utility.yul\":630:847   */\ntag_14:\n    /* \"#utility.yul\":670:671   */\n  0x00\n    /* \"#utility.yul\":696:697   */\n  dup3\n    /* \"#utility.yul\":686:818   */\n  tag_26\n  jumpi\n    /* \"#utility.yul\":740:750   */\n  0x4e487b71\n    /* \"#utility.yul\":735:738   */\n  0xe0\n    /* \"#utility.yul\":731:751   */\n  shl\n    /* \"#utility.yul\":728:729   */\n  0x00\n    /* \"#utility.yul\":721:752   */\n  mstore\n    /* \"#utility.yul\":775:779   */\n  0x12\n    /* \"#utility.yul\":772:773   */\n  0x04\n    /* \"#utility.yul\":765:780   */\n  mstore\n    /* \"#utility.yul\":803:807   */\n  0x24\n    /* \"#utility.yul\":800:801   */\n  0x00\n    /* \"#utility.yul\":793:808   */\n  revert\n    /* \"#utility.yul\":686:818   */\ntag_26:\n  pop\n    /* \"#utility.yul\":832:841   */\n  div\n  swap1\n    /* \"#utility.yul\":630:847   */\n  jump\t// out\n    /* \"#utility.yul\":852:977   */\ntag_16:\n    /* \"#utility.yul\":917:926   */\n  dup1\n  dup3\n  add\n    /* \"#utility.yul\":938:948   */\n  dup1\n  dup3\n  gt\n    /* \"#utility.yul\":935:971   */\n  iszero\n  tag_24\n  jumpi\n    /* \"#utility.yul\":951:969   */\n  tag_24\n  tag_17\n  jump\t// in\n    /* \"#utility.yul\":852:977   */\ntag_18:\n    /* \"contracts/Eip1538/TransparentC.sol\":57:684  contract SimpleLoan {... */\n  dataSize(sub_0)\n  dup1\n  dataOffset(sub_0)\n  0x00\n  codecopy\n  0x00\n  return\nstop\n\nsub_0: assembly {\n        /* \"contracts/Eip1538/TransparentC.sol\":57:684  contract SimpleLoan {... */\n      mstore(0x40, 0x80)\n      callvalue\n      dup1\n      iszero\n      tag_1\n      jumpi\n      0x00\n      dup1\n      revert\n    tag_1:\n      pop\n      jumpi(tag_2, lt(calldatasize, 0x04))\n      shr(0xe0, calldataload(0x00))\n      dup1\n      0x7df1f1b9\n      gt\n      tag_8\n      jumpi\n      dup1\n      0x7df1f1b9\n      eq\n      tag_5\n      jumpi\n      dup1\n      0x9d585f7f\n      eq\n      tag_6\n      jumpi\n      dup1\n      0xf5521bf1\n      eq\n      tag_7\n      jumpi\n      0x00\n      dup1\n      revert\n    tag_8:\n      dup1\n      0x176ab4c6\n      eq\n      tag_3\n      jumpi\n      dup1\n      0x7c3a00fd\n      eq\n      tag_4\n      jumpi\n    tag_2:\n      0x00\n      dup1\n      revert\n        /* \"contracts/Eip1538/TransparentC.sol\":209:238  uint256 public totalRepayment */\n    tag_3:\n      tag_9\n      sload(0x04)\n      dup2\n      jump\n    tag_9:\n      mload(0x40)\n        /* \"#utility.yul\":160:185   */\n      swap1\n      dup2\n      mstore\n        /* \"#utility.yul\":148:150   */\n      0x20\n        /* \"#utility.yul\":133:151   */\n      add\n        /* \"contracts/Eip1538/TransparentC.sol\":209:238  uint256 public totalRepayment */\n    tag_11:\n      mload(0x40)\n      dup1\n      swap2\n      sub\n      swap1\n      return\n        /* \"contracts/Eip1538/TransparentC.sol\":143:170  uint256 public interestRate */\n    tag_4:\n      tag_9\n      sload(0x02)\n      dup2\n      jump\n        /* \"contracts/Eip1538/TransparentC.sol\":83:106  address public borrower */\n    tag_5:\n      sload(0x00)\n      tag_16\n      swap1\n      0xffffffffffffffffffffffffffffffffffffffff\n      and\n      dup2\n      jump\n    tag_16:\n      mload(0x40)\n        /* \"#utility.yul\":372:414   */\n      0xffffffffffffffffffffffffffffffffffffffff\n        /* \"#utility.yul\":360:415   */\n      swap1\n      swap2\n      and\n        /* \"#utility.yul\":342:416   */\n      dup2\n      mstore\n        /* \"#utility.yul\":330:332   */\n      0x20\n        /* \"#utility.yul\":315:333   */\n      add\n        /* \"contracts/Eip1538/TransparentC.sol\":83:106  address public borrower */\n      tag_11\n        /* \"#utility.yul\":196:422   */\n      jump\n        /* \"contracts/Eip1538/TransparentC.sol\":112:137  uint256 public loanAmount */\n    tag_6:\n      tag_9\n      sload(0x01)\n      dup2\n      jump\n        /* \"contracts/Eip1538/TransparentC.sol\":176:203  uint256 public loanDuration */\n    tag_7:\n      tag_9\n      sload(0x03)\n      dup2\n      jump\n\n    auxdata: 0xa2646970667358221220d57a88a56c6dffe0fefbe6cb23442e0500a24c02c50f3ee7afc53dfc449b424864736f6c63430008180033\n}\n",
				"bytecode": {
					"linkReferences": {},
					"object": "608060405234801561000f575f80fd5b5060405161024438038061024483398101604081905261002e9161009e565b5f80546001600160a01b03191633179055600183905560028290556003819055610056610062565b6004555061012c915050565b5f606460035460025460015461007891906100dd565b61008291906100dd565b61008c91906100fa565b6001546100999190610119565b905090565b5f805f606084860312156100b0575f80fd5b8351925060208401519150604084015190509250925092565b634e487b7160e01b5f52601160045260245ffd5b80820281158282048414176100f4576100f46100c9565b92915050565b5f8261011457634e487b7160e01b5f52601260045260245ffd5b500490565b808201808211156100f4576100f46100c9565b61010b806101395f395ff3fe6080604052348015600e575f80fd5b5060043610605c575f3560e01c80637df1f1b91160475780637df1f1b91460835780639d585f7f1460c5578063f5521bf11460cd575f80fd5b8063176ab4c61460605780637c3a00fd14607b575b5f80fd5b606860045481565b6040519081526020015b60405180910390f35b606860025481565b5f5460a19073ffffffffffffffffffffffffffffffffffffffff1681565b60405173ffffffffffffffffffffffffffffffffffffffff90911681526020016072565b606860015481565b60686003548156fea2646970667358221220d57a88a56c6dffe0fefbe6cb23442e0500a24c02c50f3ee7afc53dfc449b424864736f6c63430008180033",
					"opcodes": "PUSH1 0x80 PUSH1 0x40 MSTORE CALLVALUE DUP1 ISZERO PUSH2 0xF JUMPI PUSH0 DUP1 REVERT JUMPDEST POP PUSH1 0x40 MLOAD PUSH2 0x244 CODESIZE SUB DUP1 PUSH2 0x244 DUP4 CODECOPY DUP2 ADD PUSH1 0x40 DUP2 SWAP1 MSTORE PUSH2 0x2E SWAP2 PUSH2 0x9E JUMP JUMPDEST PUSH0 DUP1 SLOAD PUSH1 0x1 PUSH1 0x1 PUSH1 0xA0 SHL SUB NOT AND CALLER OR SWAP1 SSTORE PUSH1 0x1 DUP4 SWAP1 SSTORE PUSH1 0x2 DUP3 SWAP1 SSTORE PUSH1 0x3 DUP2 SWAP1 SSTORE PUSH2 0x56 PUSH2 0x62 JUMP JUMPDEST PUSH1 0x4 SSTORE POP PUSH2 0x12C SWAP2 POP POP JUMP JUMPDEST PUSH0 PUSH1 0x64 PUSH1 0x3 SLOAD PUSH1 0x2 SLOAD PUSH1 0x1 SLOAD PUSH2 0x78 SWAP2 SWAP1 PUSH2 0xDD JUMP JUMPDEST PUSH2 0x82 SWAP2 SWAP1 PUSH2 0xDD JUMP JUMPDEST PUSH2 0x8C SWAP2 SWAP1 PUSH2 0xFA JUMP JUMPDEST PUSH1 0x1 SLOAD PUSH2 0x99 SWAP2 SWAP1 PUSH2 0x119 JUMP JUMPDEST SWAP1 POP SWAP1 JUMP JUMPDEST PUSH0 DUP1 PUSH0 PUSH1 0x60 DUP5 DUP7 SUB SLT ISZERO PUSH2 0xB0 JUMPI PUSH0 DUP1 REVERT JUMPDEST DUP4 MLOAD SWAP3 POP PUSH1 0x20 DUP5 ADD MLOAD SWAP2 POP PUSH1 0x40 DUP5 ADD MLOAD SWAP1 POP SWAP3 POP SWAP3 POP SWAP3 JUMP JUMPDEST PUSH4 0x4E487B71 PUSH1 0xE0 SHL PUSH0 MSTORE PUSH1 0x11 PUSH1 0x4 MSTORE PUSH1 0x24 PUSH0 REVERT JUMPDEST DUP1 DUP3 MUL DUP2 ISZERO DUP3 DUP3 DIV DUP5 EQ OR PUSH2 0xF4 JUMPI PUSH2 0xF4 PUSH2 0xC9 JUMP JUMPDEST SWAP3 SWAP2 POP POP JUMP JUMPDEST PUSH0 DUP3 PUSH2 0x114 JUMPI PUSH4 0x4E487B71 PUSH1 0xE0 SHL PUSH0 MSTORE PUSH1 0x12 PUSH1 0x4 MSTORE PUSH1 0x24 PUSH0 REVERT JUMPDEST POP DIV SWAP1 JUMP JUMPDEST DUP1 DUP3 ADD DUP1 DUP3 GT ISZERO PUSH2 0xF4 JUMPI PUSH2 0xF4 PUSH2 0xC9 JUMP JUMPDEST PUSH2 0x10B DUP1 PUSH2 0x139 PUSH0 CODECOPY PUSH0 RETURN INVALID PUSH1 0x80 PUSH1 0x40 MSTORE CALLVALUE DUP1 ISZERO PUSH1 0xE JUMPI PUSH0 DUP1 REVERT JUMPDEST POP PUSH1 0x4 CALLDATASIZE LT PUSH1 0x5C JUMPI PUSH0 CALLDATALOAD PUSH1 0xE0 SHR DUP1 PUSH4 0x7DF1F1B9 GT PUSH1 0x47 JUMPI DUP1 PUSH4 0x7DF1F1B9 EQ PUSH1 0x83 JUMPI DUP1 PUSH4 0x9D585F7F EQ PUSH1 0xC5 JUMPI DUP1 PUSH4 0xF5521BF1 EQ PUSH1 0xCD JUMPI PUSH0 DUP1 REVERT JUMPDEST DUP1 PUSH4 0x176AB4C6 EQ PUSH1 0x60 JUMPI DUP1 PUSH4 0x7C3A00FD EQ PUSH1 0x7B JUMPI JUMPDEST PUSH0 DUP1 REVERT JUMPDEST PUSH1 0x68 PUSH1 0x4 SLOAD DUP2 JUMP JUMPDEST PUSH1 0x40 MLOAD SWAP1 DUP2 MSTORE PUSH1 0x20 ADD JUMPDEST PUSH1 0x40 MLOAD DUP1 SWAP2 SUB SWAP1 RETURN JUMPDEST PUSH1 0x68 PUSH1 0x2 SLOAD DUP2 JUMP JUMPDEST PUSH0 SLOAD PUSH1 0xA1 SWAP1 PUSH20 0xFFFFFFFFFFFFFFFFFFFFFFFFFFFFFFFFFFFFFFFF AND DUP2 JUMP JUMPDEST PUSH1 0x40 MLOAD PUSH20 0xFFFFFFFFFFFFFFFFFFFFFFFFFFFFFFFFFFFFFFFF SWAP1 SWAP2 AND DUP2 MSTORE PUSH1 0x20 ADD PUSH1 0x72 JUMP JUMPDEST PUSH1 0x68 PUSH1 0x1 SLOAD DUP2 JUMP JUMPDEST PUSH1 0x68 PUSH1 0x3 SLOAD DUP2 JUMP INVALID LOG2 PUSH5 0x6970667358 0x22 SLT KECCAK256 0xD5 PUSH27 0x88A56C6DFFE0FEFBE6CB23442E0500A24C02C50F3EE7AFC53DFC44 SWAP12 TIMESTAMP BASEFEE PUSH5 0x736F6C6343 STOP ADDMOD XOR STOP CALLER "
				},
				"gasEstimates": {
					"creation": {
						"codeDepositCost": "53400",
						"executionCost": "infinite",
						"totalCost": "infinite"
					},
					"external": {
						"borrower()": "2311",
						"interestRate()": "2306",
						"loanAmount()": "2305",
						"loanDuration()": "2327",
						"totalRepayment()": "2284"
					},
					"internal": {
						"calculateTotalRepayment()": "infinite"
					}
				},
				"methodIdentifiers": {
					"borrower()": "7df1f1b9",
					"interestRate()": "7c3a00fd",
					"loanAmount()": "9d585f7f",
					"loanDuration()": "f5521bf1",
					"totalRepayment()": "176ab4c6"
				}
			},
			"storageLayout": {
				"storage": [
					{
						"astId": 3,
						"contract": "contracts/Eip1538/TransparentC.sol:SimpleLoan",
						"label": "borrower",
						"offset": 0,
						"slot": "0",
						"type": "t_address"
					},
					{
						"astId": 5,
						"contract": "contracts/Eip1538/TransparentC.sol:SimpleLoan",
						"label": "loanAmount",
						"offset": 0,
						"slot": "1",
						"type": "t_uint256"
					},
					{
						"astId": 7,
						"contract": "contracts/Eip1538/TransparentC.sol:SimpleLoan",
						"label": "interestRate",
						"offset": 0,
						"slot": "2",
						"type": "t_uint256"
					},
					{
						"astId": 9,
						"contract": "contracts/Eip1538/TransparentC.sol:SimpleLoan",
						"label": "loanDuration",
						"offset": 0,
						"slot": "3",
						"type": "t_uint256"
					},
					{
						"astId": 11,
						"contract": "contracts/Eip1538/TransparentC.sol:SimpleLoan",
						"label": "totalRepayment",
						"offset": 0,
						"slot": "4",
						"type": "t_uint256"
					}
				],
				"types": {
					"t_address": {
						"encoding": "inplace",
						"label": "address",
						"numberOfBytes": "20"
					},
					"t_uint256": {
						"encoding": "inplace",
						"label": "uint256",
						"numberOfBytes": "32"
					}
				}
			},
			"userdoc": {
				"kind": "user",
				"methods": {},
				"version": 1
			}
		}
	}
}