{
	"Eip2535/EIp2535Diamond.sol": {
		"Eip2535Diamond": {
			"abi": [
				{
					"inputs": [],
					"stateMutability": "nonpayable",
					"type": "constructor"
				},
				{
					"anonymous": false,
					"inputs": [
						{
							"indexed": false,
							"internalType": "string",
							"name": "_nameOfCandidate",
							"type": "string"
						},
						{
							"indexed": true,
							"internalType": "uint256",
							"name": "_voterCardNo",
							"type": "uint256"
						},
						{
							"indexed": false,
							"internalType": "string",
							"name": "_partyName",
							"type": "string"
						}
					],
					"name": "CandidateAdded",
					"type": "event"
				},
				{
					"anonymous": false,
					"inputs": [
						{
							"components": [
								{
									"internalType": "address",
									"name": "facetAddress",
									"type": "address"
								},
								{
									"internalType": "enum IDiamond.FacetCutAction",
									"name": "action",
									"type": "uint8"
								},
								{
									"internalType": "bytes4",
									"name": "functionSelector",
									"type": "bytes4"
								}
							],
							"indexed": false,
							"internalType": "struct IDiamond.FacetCut[]",
							"name": "_diamondCut",
							"type": "tuple[]"
						},
						{
							"indexed": false,
							"internalType": "address",
							"name": "_init",
							"type": "address"
						},
						{
							"indexed": false,
							"internalType": "bytes",
							"name": "_calldata",
							"type": "bytes"
						}
					],
					"name": "DiamondCut",
					"type": "event"
				},
				{
					"anonymous": false,
					"inputs": [
						{
							"indexed": false,
							"internalType": "address",
							"name": "_voterAddress",
							"type": "address"
						},
						{
							"indexed": true,
							"internalType": "uint256",
							"name": "_voterCardNo",
							"type": "uint256"
						},
						{
							"indexed": false,
							"internalType": "uint256",
							"name": "_partyNumber",
							"type": "uint256"
						}
					],
					"name": "VoteCasted",
					"type": "event"
				},
				{
					"inputs": [
						{
							"internalType": "string",
							"name": "_nameOfCandidate",
							"type": "string"
						},
						{
							"internalType": "uint256",
							"name": "_voterCardNo",
							"type": "uint256"
						},
						{
							"internalType": "string",
							"name": "_partyName",
							"type": "string"
						}
					],
					"name": "addCandidateDetails",
					"outputs": [],
					"stateMutability": "nonpayable",
					"type": "function"
				},
				{
					"inputs": [
						{
							"internalType": "address",
							"name": "_facet",
							"type": "address"
						}
					],
					"name": "addFacet",
					"outputs": [],
					"stateMutability": "nonpayable",
					"type": "function"
				},
				{
					"inputs": [
						{
							"internalType": "address",
							"name": "_voterAddress",
							"type": "address"
						},
						{
							"internalType": "uint256",
							"name": "_voterCardNo",
							"type": "uint256"
						},
						{
							"internalType": "uint256",
							"name": "_partyNumber",
							"type": "uint256"
						}
					],
					"name": "addVoterDetails",
					"outputs": [],
					"stateMutability": "nonpayable",
					"type": "function"
				},
				{
					"inputs": [
						{
							"components": [
								{
									"internalType": "address",
									"name": "facetAddress",
									"type": "address"
								},
								{
									"internalType": "enum IDiamond.FacetCutAction",
									"name": "action",
									"type": "uint8"
								},
								{
									"internalType": "bytes4",
									"name": "functionSelector",
									"type": "bytes4"
								}
							],
							"internalType": "struct IDiamond.FacetCut[]",
							"name": "_diamondCut",
							"type": "tuple[]"
						},
						{
							"internalType": "address",
							"name": "_init",
							"type": "address"
						},
						{
							"internalType": "bytes",
							"name": "_calldata",
							"type": "bytes"
						}
					],
					"name": "diamondCut",
					"outputs": [],
					"stateMutability": "nonpayable",
					"type": "function"
				},
				{
					"inputs": [],
					"name": "owner",
					"outputs": [
						{
							"internalType": "address",
							"name": "",
							"type": "address"
						}
					],
					"stateMutability": "view",
					"type": "function"
				}
			],
			"devdoc": {
				"kind": "dev",
				"methods": {},
				"version": 1
			},
			"evm": {
				"assembly": "    /* \"Eip2535/EIp2535Diamond.sol\":5267:7153  contract Eip2535Diamond is IDiamond {... */\n  mstore(0x40, 0x80)\n    /* \"Eip2535/EIp2535Diamond.sol\":5336:5385  constructor() {... */\n  callvalue\n  dup1\n  iszero\n  tag_1\n  jumpi\n  0x00\n  dup1\n  revert\ntag_1:\n  pop\n    /* \"Eip2535/EIp2535Diamond.sol\":5360:5365  owner */\n  0x00\n    /* \"Eip2535/EIp2535Diamond.sol\":5360:5378  owner = msg.sender */\n  dup1\n  sload\n  not(sub(shl(0xa0, 0x01), 0x01))\n  and\n    /* \"Eip2535/EIp2535Diamond.sol\":5368:5378  msg.sender */\n  caller\n    /* \"Eip2535/EIp2535Diamond.sol\":5360:5378  owner = msg.sender */\n  or\n  swap1\n  sstore\n    /* \"Eip2535/EIp2535Diamond.sol\":5267:7153  contract Eip2535Diamond is IDiamond {... */\n  dataSize(sub_0)\n  dup1\n  dataOffset(sub_0)\n  0x00\n  codecopy\n  0x00\n  return\nstop\n\nsub_0: assembly {\n        /* \"Eip2535/EIp2535Diamond.sol\":5267:7153  contract Eip2535Diamond is IDiamond {... */\n      mstore(0x40, 0x80)\n      callvalue\n      dup1\n      iszero\n      tag_1\n      jumpi\n      0x00\n      dup1\n      revert\n    tag_1:\n      pop\n      jumpi(tag_2, lt(calldatasize, 0x04))\n      shr(0xe0, calldataload(0x00))\n      dup1\n      0x8da5cb5b\n      gt\n      tag_8\n      jumpi\n      dup1\n      0x8da5cb5b\n      eq\n      tag_5\n      jumpi\n      dup1\n      0x9e97d739\n      eq\n      tag_6\n      jumpi\n      dup1\n      0xa67a117b\n      eq\n      tag_7\n      jumpi\n      0x00\n      dup1\n      revert\n    tag_8:\n      dup1\n      0x13732d79\n      eq\n      tag_3\n      jumpi\n      dup1\n      0x7a26dd31\n      eq\n      tag_4\n      jumpi\n    tag_2:\n      0x00\n      dup1\n      revert\n        /* \"Eip2535/EIp2535Diamond.sol\":6713:6941  function addCandidateDetails(... */\n    tag_3:\n      tag_9\n      tag_10\n      calldatasize\n      0x04\n      tag_11\n      jump\t// in\n    tag_10:\n      tag_12\n      jump\t// in\n    tag_9:\n      stop\n        /* \"Eip2535/EIp2535Diamond.sol\":6947:7151  function addVoterDetails(... */\n    tag_4:\n      tag_9\n      tag_14\n      calldatasize\n      0x04\n      tag_15\n      jump\t// in\n    tag_14:\n      tag_16\n      jump\t// in\n        /* \"Eip2535/EIp2535Diamond.sol\":5309:5329  address public owner */\n    tag_5:\n      sload(0x00)\n      tag_17\n      swap1\n      sub(shl(0xa0, 0x01), 0x01)\n      and\n      dup2\n      jump\n    tag_17:\n      mload(0x40)\n      sub(shl(0xa0, 0x01), 0x01)\n        /* \"#utility.yul\":2367:2422   */\n      swap1\n      swap2\n      and\n        /* \"#utility.yul\":2349:2423   */\n      dup2\n      mstore\n        /* \"#utility.yul\":2337:2339   */\n      0x20\n        /* \"#utility.yul\":2322:2340   */\n      add\n        /* \"Eip2535/EIp2535Diamond.sol\":5309:5329  address public owner */\n      mload(0x40)\n      dup1\n      swap2\n      sub\n      swap1\n      return\n        /* \"Eip2535/EIp2535Diamond.sol\":5869:6707  function diamondCut(... */\n    tag_6:\n      tag_9\n      tag_22\n      calldatasize\n      0x04\n      tag_23\n      jump\t// in\n    tag_22:\n      tag_24\n      jump\t// in\n        /* \"Eip2535/EIp2535Diamond.sol\":5391:5863  function addFacet(address _facet) external {... */\n    tag_7:\n      tag_9\n      tag_26\n      calldatasize\n      0x04\n      tag_27\n      jump\t// in\n    tag_26:\n      tag_28\n      jump\t// in\n        /* \"Eip2535/EIp2535Diamond.sol\":6713:6941  function addCandidateDetails(... */\n    tag_12:\n        /* \"Eip2535/EIp2535Diamond.sol\":6909:6921  _voterCardNo */\n      dup2\n        /* \"Eip2535/EIp2535Diamond.sol\":6876:6934  CandidateAdded(_nameOfCandidate, _voterCardNo, _partyName) */\n      0xdbbc48772584850c2086f66c22a3654c9e46524ff539fd9d72198d91cb7c13c0\n        /* \"Eip2535/EIp2535Diamond.sol\":6891:6907  _nameOfCandidate */\n      dup5\n        /* \"Eip2535/EIp2535Diamond.sol\":6923:6933  _partyName */\n      dup4\n        /* \"Eip2535/EIp2535Diamond.sol\":6876:6934  CandidateAdded(_nameOfCandidate, _voterCardNo, _partyName) */\n      mload(0x40)\n      tag_30\n      swap3\n      swap2\n      swap1\n      tag_31\n      jump\t// in\n    tag_30:\n      mload(0x40)\n      dup1\n      swap2\n      sub\n      swap1\n      log2\n        /* \"Eip2535/EIp2535Diamond.sol\":6713:6941  function addCandidateDetails(... */\n      pop\n      pop\n      pop\n      jump\t// out\n        /* \"Eip2535/EIp2535Diamond.sol\":6947:7151  function addVoterDetails(... */\n    tag_16:\n        /* \"Eip2535/EIp2535Diamond.sol\":7091:7144  VoteCasted(_voterAddress, _voterCardNo, _partyNumber) */\n      0x40\n      dup1\n      mload\n      sub(shl(0xa0, 0x01), 0x01)\n        /* \"#utility.yul\":5067:5122   */\n      dup6\n      and\n        /* \"#utility.yul\":5049:5123   */\n      dup2\n      mstore\n        /* \"#utility.yul\":5154:5156   */\n      0x20\n        /* \"#utility.yul\":5139:5157   */\n      dup2\n      add\n        /* \"#utility.yul\":5132:5166   */\n      dup4\n      swap1\n      mstore\n        /* \"Eip2535/EIp2535Diamond.sol\":7117:7129  _voterCardNo */\n      dup4\n      swap2\n        /* \"Eip2535/EIp2535Diamond.sol\":7091:7144  VoteCasted(_voterAddress, _voterCardNo, _partyNumber) */\n      0xcb87df07b1c304492bd875a5c8b98672eca500939412809ea229afef1d745188\n      swap2\n        /* \"#utility.yul\":5022:5040   */\n      add\n        /* \"Eip2535/EIp2535Diamond.sol\":7091:7144  VoteCasted(_voterAddress, _voterCardNo, _partyNumber) */\n      tag_30\n        /* \"#utility.yul\":4875:5172   */\n      jump\n        /* \"Eip2535/EIp2535Diamond.sol\":5869:6707  function diamondCut(... */\n    tag_24:\n        /* \"Eip2535/EIp2535Diamond.sol\":6017:6026  uint256 i */\n      0x00\n        /* \"Eip2535/EIp2535Diamond.sol\":6012:6701  for (uint256 i; i < _diamondCut.length; i++) {... */\n    tag_36:\n        /* \"Eip2535/EIp2535Diamond.sol\":6028:6050  i < _diamondCut.length */\n      dup5\n      dup2\n      lt\n        /* \"Eip2535/EIp2535Diamond.sol\":6012:6701  for (uint256 i; i < _diamondCut.length; i++) {... */\n      iszero\n      tag_37\n      jumpi\n        /* \"Eip2535/EIp2535Diamond.sol\":6114:6115  0 */\n      0x00\n        /* \"Eip2535/EIp2535Diamond.sol\":6075:6086  _diamondCut */\n      dup7\n      dup7\n        /* \"Eip2535/EIp2535Diamond.sol\":6087:6088  i */\n      dup4\n        /* \"Eip2535/EIp2535Diamond.sol\":6075:6089  _diamondCut[i] */\n      dup2\n      dup2\n      lt\n      tag_40\n      jumpi\n      tag_40\n      tag_41\n      jump\t// in\n    tag_40:\n        /* \"Eip2535/EIp2535Diamond.sol\":6075:6102  _diamondCut[i].facetAddress */\n      tag_42\n      swap3\n      0x20\n        /* \"Eip2535/EIp2535Diamond.sol\":6075:6089  _diamondCut[i] */\n      0x60\n      swap1\n      swap3\n      mul\n      add\n        /* \"Eip2535/EIp2535Diamond.sol\":6075:6102  _diamondCut[i].facetAddress */\n      swap1\n      dup2\n      add\n      swap2\n      pop\n      tag_27\n      jump\t// in\n    tag_42:\n      sub(shl(0xa0, 0x01), 0x01)\n        /* \"Eip2535/EIp2535Diamond.sol\":6075:6116  _diamondCut[i].facetAddress == address(0) */\n      and\n      sub\n        /* \"Eip2535/EIp2535Diamond.sol\":6071:6691  if (_diamondCut[i].facetAddress == address(0)) {... */\n      tag_43\n      jumpi\n      sub(shl(0xa0, 0x01), 0x01)\n        /* \"Eip2535/EIp2535Diamond.sol\":6144:6163  _init != address(0) */\n      dup5\n      and\n        /* \"Eip2535/EIp2535Diamond.sol\":6136:6194  require(_init != address(0), \"Invalid initialize address\") */\n      tag_44\n      jumpi\n      mload(0x40)\n      shl(0xe5, 0x461bcd)\n      dup2\n      mstore\n        /* \"#utility.yul\":5568:5570   */\n      0x20\n        /* \"Eip2535/EIp2535Diamond.sol\":6136:6194  require(_init != address(0), \"Invalid initialize address\") */\n      0x04\n      dup3\n      add\n        /* \"#utility.yul\":5550:5571   */\n      mstore\n        /* \"#utility.yul\":5607:5609   */\n      0x1a\n        /* \"#utility.yul\":5587:5605   */\n      0x24\n      dup3\n      add\n        /* \"#utility.yul\":5580:5610   */\n      mstore\n        /* \"#utility.yul\":5646:5674   */\n      0x496e76616c696420696e697469616c697a652061646472657373000000000000\n        /* \"#utility.yul\":5626:5644   */\n      0x44\n      dup3\n      add\n        /* \"#utility.yul\":5619:5675   */\n      mstore\n        /* \"#utility.yul\":5692:5710   */\n      0x64\n      add\n        /* \"Eip2535/EIp2535Diamond.sol\":6136:6194  require(_init != address(0), \"Invalid initialize address\") */\n    tag_45:\n      mload(0x40)\n      dup1\n      swap2\n      sub\n      swap1\n      revert\n    tag_44:\n        /* \"Eip2535/EIp2535Diamond.sol\":6212:6217  _init */\n      dup4\n      sub(shl(0xa0, 0x01), 0x01)\n        /* \"Eip2535/EIp2535Diamond.sol\":6212:6230  _init.delegatecall */\n      and\n        /* \"Eip2535/EIp2535Diamond.sol\":6231:6240  _calldata */\n      dup4\n      dup4\n        /* \"Eip2535/EIp2535Diamond.sol\":6212:6241  _init.delegatecall(_calldata) */\n      mload(0x40)\n      tag_47\n      swap3\n      swap2\n      swap1\n      tag_48\n      jump\t// in\n    tag_47:\n      0x00\n      mload(0x40)\n      dup1\n      dup4\n      sub\n      dup2\n      dup6\n      gas\n      delegatecall\n      swap2\n      pop\n      pop\n      returndatasize\n      dup1\n      0x00\n      dup2\n      eq\n      tag_51\n      jumpi\n      mload(0x40)\n      swap2\n      pop\n      and(add(returndatasize, 0x3f), not(0x1f))\n      dup3\n      add\n      0x40\n      mstore\n      returndatasize\n      dup3\n      mstore\n      returndatasize\n      0x00\n      0x20\n      dup5\n      add\n      returndatacopy\n      jump(tag_50)\n    tag_51:\n      0x60\n      swap2\n      pop\n    tag_50:\n      pop\n      pop\n      pop\n        /* \"Eip2535/EIp2535Diamond.sol\":6071:6691  if (_diamondCut[i].facetAddress == address(0)) {... */\n      jump(tag_52)\n    tag_43:\n        /* \"Eip2535/EIp2535Diamond.sol\":6281:6293  bool success */\n      0x00\n        /* \"Eip2535/EIp2535Diamond.sol\":6299:6310  _diamondCut */\n      dup7\n      dup7\n        /* \"Eip2535/EIp2535Diamond.sol\":6311:6312  i */\n      dup4\n        /* \"Eip2535/EIp2535Diamond.sol\":6299:6313  _diamondCut[i] */\n      dup2\n      dup2\n      lt\n      tag_54\n      jumpi\n      tag_54\n      tag_41\n      jump\t// in\n    tag_54:\n        /* \"Eip2535/EIp2535Diamond.sol\":6299:6326  _diamondCut[i].facetAddress */\n      tag_55\n      swap3\n      0x20\n        /* \"Eip2535/EIp2535Diamond.sol\":6299:6313  _diamondCut[i] */\n      0x60\n      swap1\n      swap3\n      mul\n      add\n        /* \"Eip2535/EIp2535Diamond.sol\":6299:6326  _diamondCut[i].facetAddress */\n      swap1\n      dup2\n      add\n      swap2\n      pop\n      tag_27\n      jump\t// in\n    tag_55:\n      sub(shl(0xa0, 0x01), 0x01)\n        /* \"Eip2535/EIp2535Diamond.sol\":6299:6339  _diamondCut[i].facetAddress.delegatecall */\n      and\n        /* \"Eip2535/EIp2535Diamond.sol\":6403:6414  _diamondCut */\n      dup8\n      dup8\n        /* \"Eip2535/EIp2535Diamond.sol\":6415:6416  i */\n      dup5\n        /* \"Eip2535/EIp2535Diamond.sol\":6403:6417  _diamondCut[i] */\n      dup2\n      dup2\n      lt\n      tag_57\n      jumpi\n      tag_57\n      tag_41\n      jump\t// in\n    tag_57:\n      swap1\n      pop\n      0x60\n      mul\n      add\n        /* \"Eip2535/EIp2535Diamond.sol\":6403:6434  _diamondCut[i].functionSelector */\n      0x40\n      add\n      0x20\n      dup2\n      add\n      swap1\n      tag_58\n      swap2\n      swap1\n      tag_59\n      jump\t// in\n    tag_58:\n        /* \"Eip2535/EIp2535Diamond.sol\":6471:6482  _diamondCut */\n      dup9\n      dup9\n        /* \"Eip2535/EIp2535Diamond.sol\":6483:6484  i */\n      dup6\n        /* \"Eip2535/EIp2535Diamond.sol\":6471:6485  _diamondCut[i] */\n      dup2\n      dup2\n      lt\n      tag_61\n      jumpi\n      tag_61\n      tag_41\n      jump\t// in\n    tag_61:\n      swap1\n      pop\n      0x60\n      mul\n      add\n        /* \"Eip2535/EIp2535Diamond.sol\":6495:6496  0 */\n      0x00\n        /* \"Eip2535/EIp2535Diamond.sol\":6499:6508  _calldata */\n      dup8\n      dup8\n        /* \"Eip2535/EIp2535Diamond.sol\":6460:6509  abi.encode(_diamondCut[i], address(0), _calldata) */\n      add(0x20, mload(0x40))\n      tag_62\n      swap5\n      swap4\n      swap3\n      swap2\n      swap1\n      tag_63\n      jump\t// in\n    tag_62:\n      0x40\n      dup1\n      mload\n      not(0x1f)\n      dup2\n      dup5\n      sub\n      add\n      dup2\n      mstore\n      swap1\n      dup3\n      swap1\n      mstore\n        /* \"Eip2535/EIp2535Diamond.sol\":6361:6531  abi.encodePacked(... */\n      tag_64\n      swap3\n      swap2\n        /* \"Eip2535/EIp2535Diamond.sol\":6460:6509  abi.encode(_diamondCut[i], address(0), _calldata) */\n      0x20\n        /* \"Eip2535/EIp2535Diamond.sol\":6361:6531  abi.encodePacked(... */\n      add\n      tag_65\n      jump\t// in\n    tag_64:\n      0x40\n      dup1\n      mload\n      not(0x1f)\n      dup2\n      dup5\n      sub\n      add\n      dup2\n      mstore\n      swap1\n      dup3\n      swap1\n      mstore\n        /* \"Eip2535/EIp2535Diamond.sol\":6299:6549  _diamondCut[i].facetAddress.delegatecall(... */\n      tag_66\n      swap2\n      tag_67\n      jump\t// in\n    tag_66:\n      0x00\n      mload(0x40)\n      dup1\n      dup4\n      sub\n      dup2\n      dup6\n      gas\n      delegatecall\n      swap2\n      pop\n      pop\n      returndatasize\n      dup1\n      0x00\n      dup2\n      eq\n      tag_70\n      jumpi\n      mload(0x40)\n      swap2\n      pop\n      and(add(returndatasize, 0x3f), not(0x1f))\n      dup3\n      add\n      0x40\n      mstore\n      returndatasize\n      dup3\n      mstore\n      returndatasize\n      0x00\n      0x20\n      dup5\n      add\n      returndatacopy\n      jump(tag_69)\n    tag_70:\n      0x60\n      swap2\n      pop\n    tag_69:\n      pop\n        /* \"Eip2535/EIp2535Diamond.sol\":6280:6549  (bool success, ) = _diamondCut[i].facetAddress.delegatecall(... */\n      pop\n      swap1\n      pop\n        /* \"Eip2535/EIp2535Diamond.sol\":6575:6582  success */\n      dup1\n        /* \"Eip2535/EIp2535Diamond.sol\":6567:6612  require(success, \"Facet modification failed\") */\n      tag_71\n      jumpi\n      mload(0x40)\n      shl(0xe5, 0x461bcd)\n      dup2\n      mstore\n        /* \"#utility.yul\":9108:9110   */\n      0x20\n        /* \"Eip2535/EIp2535Diamond.sol\":6567:6612  require(success, \"Facet modification failed\") */\n      0x04\n      dup3\n      add\n        /* \"#utility.yul\":9090:9111   */\n      mstore\n        /* \"#utility.yul\":9147:9149   */\n      0x19\n        /* \"#utility.yul\":9127:9145   */\n      0x24\n      dup3\n      add\n        /* \"#utility.yul\":9120:9150   */\n      mstore\n        /* \"#utility.yul\":9186:9213   */\n      0x4661636574206d6f64696669636174696f6e206661696c656400000000000000\n        /* \"#utility.yul\":9166:9184   */\n      0x44\n      dup3\n      add\n        /* \"#utility.yul\":9159:9214   */\n      mstore\n        /* \"#utility.yul\":9231:9249   */\n      0x64\n      add\n        /* \"Eip2535/EIp2535Diamond.sol\":6567:6612  require(success, \"Facet modification failed\") */\n      tag_45\n        /* \"#utility.yul\":8906:9255   */\n      jump\n        /* \"Eip2535/EIp2535Diamond.sol\":6567:6612  require(success, \"Facet modification failed\") */\n    tag_71:\n        /* \"Eip2535/EIp2535Diamond.sol\":6635:6676  DiamondCut(_diamondCut, _init, _calldata) */\n      0xee80746e1d76a7c4654e1a9d2ff0dde8304b0d72803a25eb48c89fd6eae7ebe8\n        /* \"Eip2535/EIp2535Diamond.sol\":6646:6657  _diamondCut */\n      dup8\n      dup8\n        /* \"Eip2535/EIp2535Diamond.sol\":6659:6664  _init */\n      dup8\n        /* \"Eip2535/EIp2535Diamond.sol\":6666:6675  _calldata */\n      dup8\n      dup8\n        /* \"Eip2535/EIp2535Diamond.sol\":6635:6676  DiamondCut(_diamondCut, _init, _calldata) */\n      mload(0x40)\n      tag_74\n      swap6\n      swap5\n      swap4\n      swap3\n      swap2\n      swap1\n      tag_75\n      jump\t// in\n    tag_74:\n      mload(0x40)\n      dup1\n      swap2\n      sub\n      swap1\n      log1\n        /* \"Eip2535/EIp2535Diamond.sol\":6262:6691  {... */\n      pop\n        /* \"Eip2535/EIp2535Diamond.sol\":6071:6691  if (_diamondCut[i].facetAddress == address(0)) {... */\n    tag_52:\n        /* \"Eip2535/EIp2535Diamond.sol\":6052:6055  i++ */\n      0x01\n      add\n        /* \"Eip2535/EIp2535Diamond.sol\":6012:6701  for (uint256 i; i < _diamondCut.length; i++) {... */\n      jump(tag_36)\n    tag_37:\n      pop\n        /* \"Eip2535/EIp2535Diamond.sol\":5869:6707  function diamondCut(... */\n      pop\n      pop\n      pop\n      pop\n      pop\n      jump\t// out\n        /* \"Eip2535/EIp2535Diamond.sol\":5391:5863  function addFacet(address _facet) external {... */\n    tag_28:\n        /* \"Eip2535/EIp2535Diamond.sol\":5484:5510  new IDiamond.FacetCut[](1) */\n      0x40\n      dup1\n      mload\n        /* \"Eip2535/EIp2535Diamond.sol\":5508:5509  1 */\n      0x01\n        /* \"Eip2535/EIp2535Diamond.sol\":5484:5510  new IDiamond.FacetCut[](1) */\n      dup1\n      dup3\n      mstore\n      dup2\n      dup4\n      add\n      swap1\n      swap3\n      mstore\n        /* \"Eip2535/EIp2535Diamond.sol\":5444:5481  IDiamond.FacetCut[] memory _facetCuts */\n      0x00\n      swap2\n        /* \"Eip2535/EIp2535Diamond.sol\":5484:5510  new IDiamond.FacetCut[](1) */\n      dup2\n      0x20\n      add\n    tag_81:\n      0x40\n      dup1\n      mload\n      0x60\n      dup2\n      add\n      dup3\n      mstore\n      0x00\n      dup1\n      dup3\n      mstore\n      0x20\n      dup1\n      dup4\n      add\n      dup3\n      swap1\n      mstore\n      swap3\n      dup3\n      add\n      mstore\n      dup3\n      mstore\n      not(0x00)\n      swap1\n      swap3\n      add\n      swap2\n      add\n      dup2\n      tag_81\n      jumpi\n      swap1\n      pop\n      pop\n        /* \"Eip2535/EIp2535Diamond.sol\":5536:5773  IDiamond.FacetCut({... */\n      0x40\n      dup1\n      mload\n      0x60\n      dup2\n      add\n      swap1\n      swap2\n      mstore\n      sub(shl(0xa0, 0x01), 0x01)\n      dup5\n      and\n      dup2\n      mstore\n        /* \"Eip2535/EIp2535Diamond.sol\":5444:5510  IDiamond.FacetCut[] memory _facetCuts = new IDiamond.FacetCut[](1) */\n      swap1\n      swap2\n      pop\n        /* \"Eip2535/EIp2535Diamond.sol\":5536:5773  IDiamond.FacetCut({... */\n      0x20\n      dup2\n      add\n      0x00\n      dup2\n      mstore\n      0xfccc64d400000000000000000000000000000000000000000000000000000000\n      0x20\n      swap1\n      swap2\n      add\n      mstore\n        /* \"Eip2535/EIp2535Diamond.sol\":5520:5533  _facetCuts[0] */\n      dup2\n      mload\n        /* \"Eip2535/EIp2535Diamond.sol\":5520:5530  _facetCuts */\n      dup3\n      swap1\n      0x00\n      swap1\n        /* \"Eip2535/EIp2535Diamond.sol\":5520:5533  _facetCuts[0] */\n      tag_88\n      jumpi\n      tag_88\n      tag_41\n      jump\t// in\n    tag_88:\n      0x20\n      swap1\n      dup2\n      mul\n      swap2\n      swap1\n      swap2\n      add\n      add\n        /* \"Eip2535/EIp2535Diamond.sol\":5520:5773  _facetCuts[0] = IDiamond.FacetCut({... */\n      mstore\n        /* \"Eip2535/EIp2535Diamond.sol\":5783:5845  IDiamond(address(this)).diamondCut(_facetCuts, address(0), \"\") */\n      mload(0x40)\n      0x9e97d73900000000000000000000000000000000000000000000000000000000\n      dup2\n      mstore\n        /* \"Eip2535/EIp2535Diamond.sol\":5800:5804  this */\n      address\n      swap1\n        /* \"Eip2535/EIp2535Diamond.sol\":5783:5817  IDiamond(address(this)).diamondCut */\n      0x9e97d739\n      swap1\n        /* \"Eip2535/EIp2535Diamond.sol\":5783:5845  IDiamond(address(this)).diamondCut(_facetCuts, address(0), \"\") */\n      tag_89\n      swap1\n        /* \"Eip2535/EIp2535Diamond.sol\":5818:5828  _facetCuts */\n      dup5\n      swap1\n        /* \"Eip2535/EIp2535Diamond.sol\":5838:5839  0 */\n      0x00\n      swap1\n        /* \"Eip2535/EIp2535Diamond.sol\":5783:5845  IDiamond(address(this)).diamondCut(_facetCuts, address(0), \"\") */\n      0x04\n      add\n      tag_90\n      jump\t// in\n    tag_89:\n      0x00\n      mload(0x40)\n      dup1\n      dup4\n      sub\n      dup2\n      0x00\n      dup8\n      dup1\n      extcodesize\n      iszero\n      dup1\n      iszero\n      tag_91\n      jumpi\n      0x00\n      dup1\n      revert\n    tag_91:\n      pop\n      gas\n      call\n      iszero\n      dup1\n      iszero\n      tag_37\n      jumpi\n      returndatasize\n      0x00\n      dup1\n      returndatacopy\n      revert(0x00, returndatasize)\n        /* \"#utility.yul\":14:198   */\n    tag_79:\n      shl(0xe0, 0x4e487b71)\n        /* \"#utility.yul\":63:64   */\n      0x00\n        /* \"#utility.yul\":56:144   */\n      mstore\n        /* \"#utility.yul\":163:167   */\n      0x41\n        /* \"#utility.yul\":160:161   */\n      0x04\n        /* \"#utility.yul\":153:168   */\n      mstore\n        /* \"#utility.yul\":187:191   */\n      0x24\n        /* \"#utility.yul\":184:185   */\n      0x00\n        /* \"#utility.yul\":177:192   */\n      revert\n        /* \"#utility.yul\":203:922   */\n    tag_96:\n        /* \"#utility.yul\":246:251   */\n      0x00\n        /* \"#utility.yul\":299:302   */\n      dup3\n        /* \"#utility.yul\":292:296   */\n      0x1f\n        /* \"#utility.yul\":284:290   */\n      dup4\n        /* \"#utility.yul\":280:297   */\n      add\n        /* \"#utility.yul\":276:303   */\n      slt\n        /* \"#utility.yul\":266:321   */\n      tag_109\n      jumpi\n        /* \"#utility.yul\":317:318   */\n      0x00\n        /* \"#utility.yul\":314:315   */\n      dup1\n        /* \"#utility.yul\":307:319   */\n      revert\n        /* \"#utility.yul\":266:321   */\n    tag_109:\n        /* \"#utility.yul\":353:359   */\n      dup2\n        /* \"#utility.yul\":340:360   */\n      calldataload\n        /* \"#utility.yul\":379:397   */\n      0xffffffffffffffff\n        /* \"#utility.yul\":416:418   */\n      dup1\n        /* \"#utility.yul\":412:414   */\n      dup3\n        /* \"#utility.yul\":409:419   */\n      gt\n        /* \"#utility.yul\":406:442   */\n      iszero\n      tag_111\n      jumpi\n        /* \"#utility.yul\":422:440   */\n      tag_111\n      tag_79\n      jump\t// in\n    tag_111:\n        /* \"#utility.yul\":497:499   */\n      0x40\n        /* \"#utility.yul\":491:500   */\n      mload\n        /* \"#utility.yul\":465:467   */\n      0x1f\n        /* \"#utility.yul\":551:564   */\n      dup4\n      add\n      not(0x1f)\n        /* \"#utility.yul\":547:569   */\n      swap1\n      dup2\n      and\n        /* \"#utility.yul\":571:573   */\n      0x3f\n        /* \"#utility.yul\":543:574   */\n      add\n        /* \"#utility.yul\":539:579   */\n      and\n        /* \"#utility.yul\":527:580   */\n      dup2\n      add\n      swap1\n        /* \"#utility.yul\":595:613   */\n      dup3\n      dup3\n      gt\n        /* \"#utility.yul\":615:637   */\n      dup2\n      dup4\n      lt\n        /* \"#utility.yul\":592:638   */\n      or\n        /* \"#utility.yul\":589:661   */\n      iszero\n      tag_113\n      jumpi\n        /* \"#utility.yul\":641:659   */\n      tag_113\n      tag_79\n      jump\t// in\n    tag_113:\n        /* \"#utility.yul\":681:691   */\n      dup2\n        /* \"#utility.yul\":677:679   */\n      0x40\n        /* \"#utility.yul\":670:692   */\n      mstore\n        /* \"#utility.yul\":716:718   */\n      dup4\n        /* \"#utility.yul\":708:714   */\n      dup2\n        /* \"#utility.yul\":701:719   */\n      mstore\n        /* \"#utility.yul\":762:765   */\n      dup7\n        /* \"#utility.yul\":755:759   */\n      0x20\n        /* \"#utility.yul\":750:752   */\n      dup6\n        /* \"#utility.yul\":742:748   */\n      dup9\n        /* \"#utility.yul\":738:753   */\n      add\n        /* \"#utility.yul\":734:760   */\n      add\n        /* \"#utility.yul\":731:766   */\n      gt\n        /* \"#utility.yul\":728:783   */\n      iszero\n      tag_114\n      jumpi\n        /* \"#utility.yul\":779:780   */\n      0x00\n        /* \"#utility.yul\":776:777   */\n      dup1\n        /* \"#utility.yul\":769:781   */\n      revert\n        /* \"#utility.yul\":728:783   */\n    tag_114:\n        /* \"#utility.yul\":843:845   */\n      dup4\n        /* \"#utility.yul\":836:840   */\n      0x20\n        /* \"#utility.yul\":828:834   */\n      dup8\n        /* \"#utility.yul\":824:841   */\n      add\n        /* \"#utility.yul\":817:821   */\n      0x20\n        /* \"#utility.yul\":809:815   */\n      dup4\n        /* \"#utility.yul\":805:822   */\n      add\n        /* \"#utility.yul\":792:846   */\n      calldatacopy\n        /* \"#utility.yul\":890:891   */\n      0x00\n        /* \"#utility.yul\":883:887   */\n      0x20\n        /* \"#utility.yul\":878:880   */\n      dup6\n        /* \"#utility.yul\":870:876   */\n      dup4\n        /* \"#utility.yul\":866:881   */\n      add\n        /* \"#utility.yul\":862:888   */\n      add\n        /* \"#utility.yul\":855:892   */\n      mstore\n        /* \"#utility.yul\":910:916   */\n      dup1\n        /* \"#utility.yul\":901:916   */\n      swap5\n      pop\n      pop\n      pop\n      pop\n      pop\n        /* \"#utility.yul\":203:922   */\n      swap3\n      swap2\n      pop\n      pop\n      jump\t// out\n        /* \"#utility.yul\":927:1538   */\n    tag_11:\n        /* \"#utility.yul\":1024:1030   */\n      0x00\n        /* \"#utility.yul\":1032:1038   */\n      dup1\n        /* \"#utility.yul\":1040:1046   */\n      0x00\n        /* \"#utility.yul\":1093:1095   */\n      0x60\n        /* \"#utility.yul\":1081:1090   */\n      dup5\n        /* \"#utility.yul\":1072:1079   */\n      dup7\n        /* \"#utility.yul\":1068:1091   */\n      sub\n        /* \"#utility.yul\":1064:1096   */\n      slt\n        /* \"#utility.yul\":1061:1113   */\n      iszero\n      tag_116\n      jumpi\n        /* \"#utility.yul\":1109:1110   */\n      0x00\n        /* \"#utility.yul\":1106:1107   */\n      dup1\n        /* \"#utility.yul\":1099:1111   */\n      revert\n        /* \"#utility.yul\":1061:1113   */\n    tag_116:\n        /* \"#utility.yul\":1149:1158   */\n      dup4\n        /* \"#utility.yul\":1136:1159   */\n      calldataload\n        /* \"#utility.yul\":1178:1196   */\n      0xffffffffffffffff\n        /* \"#utility.yul\":1219:1221   */\n      dup1\n        /* \"#utility.yul\":1211:1217   */\n      dup3\n        /* \"#utility.yul\":1208:1222   */\n      gt\n        /* \"#utility.yul\":1205:1239   */\n      iszero\n      tag_117\n      jumpi\n        /* \"#utility.yul\":1235:1236   */\n      0x00\n        /* \"#utility.yul\":1232:1233   */\n      dup1\n        /* \"#utility.yul\":1225:1237   */\n      revert\n        /* \"#utility.yul\":1205:1239   */\n    tag_117:\n        /* \"#utility.yul\":1258:1308   */\n      tag_118\n        /* \"#utility.yul\":1300:1307   */\n      dup8\n        /* \"#utility.yul\":1291:1297   */\n      dup4\n        /* \"#utility.yul\":1280:1289   */\n      dup9\n        /* \"#utility.yul\":1276:1298   */\n      add\n        /* \"#utility.yul\":1258:1308   */\n      tag_96\n      jump\t// in\n    tag_118:\n        /* \"#utility.yul\":1248:1308   */\n      swap5\n      pop\n        /* \"#utility.yul\":1355:1357   */\n      0x20\n        /* \"#utility.yul\":1344:1353   */\n      dup7\n        /* \"#utility.yul\":1340:1358   */\n      add\n        /* \"#utility.yul\":1327:1359   */\n      calldataload\n        /* \"#utility.yul\":1317:1359   */\n      swap4\n      pop\n        /* \"#utility.yul\":1412:1414   */\n      0x40\n        /* \"#utility.yul\":1401:1410   */\n      dup7\n        /* \"#utility.yul\":1397:1415   */\n      add\n        /* \"#utility.yul\":1384:1416   */\n      calldataload\n        /* \"#utility.yul\":1368:1416   */\n      swap2\n      pop\n        /* \"#utility.yul\":1441:1443   */\n      dup1\n        /* \"#utility.yul\":1431:1439   */\n      dup3\n        /* \"#utility.yul\":1428:1444   */\n      gt\n        /* \"#utility.yul\":1425:1461   */\n      iszero\n      tag_119\n      jumpi\n        /* \"#utility.yul\":1457:1458   */\n      0x00\n        /* \"#utility.yul\":1454:1455   */\n      dup1\n        /* \"#utility.yul\":1447:1459   */\n      revert\n        /* \"#utility.yul\":1425:1461   */\n    tag_119:\n      pop\n        /* \"#utility.yul\":1480:1532   */\n      tag_120\n        /* \"#utility.yul\":1524:1531   */\n      dup7\n        /* \"#utility.yul\":1513:1521   */\n      dup3\n        /* \"#utility.yul\":1502:1511   */\n      dup8\n        /* \"#utility.yul\":1498:1522   */\n      add\n        /* \"#utility.yul\":1480:1532   */\n      tag_96\n      jump\t// in\n    tag_120:\n        /* \"#utility.yul\":1470:1532   */\n      swap2\n      pop\n      pop\n        /* \"#utility.yul\":927:1538   */\n      swap3\n      pop\n      swap3\n      pop\n      swap3\n      jump\t// out\n        /* \"#utility.yul\":1543:1739   */\n    tag_97:\n        /* \"#utility.yul\":1611:1631   */\n      dup1\n      calldataload\n      sub(shl(0xa0, 0x01), 0x01)\n        /* \"#utility.yul\":1660:1714   */\n      dup2\n      and\n        /* \"#utility.yul\":1650:1715   */\n      dup2\n      eq\n        /* \"#utility.yul\":1640:1733   */\n      tag_122\n      jumpi\n        /* \"#utility.yul\":1729:1730   */\n      0x00\n        /* \"#utility.yul\":1726:1727   */\n      dup1\n        /* \"#utility.yul\":1719:1731   */\n      revert\n        /* \"#utility.yul\":1640:1733   */\n    tag_122:\n        /* \"#utility.yul\":1543:1739   */\n      swap2\n      swap1\n      pop\n      jump\t// out\n        /* \"#utility.yul\":1744:2066   */\n    tag_15:\n        /* \"#utility.yul\":1821:1827   */\n      0x00\n        /* \"#utility.yul\":1829:1835   */\n      dup1\n        /* \"#utility.yul\":1837:1843   */\n      0x00\n        /* \"#utility.yul\":1890:1892   */\n      0x60\n        /* \"#utility.yul\":1878:1887   */\n      dup5\n        /* \"#utility.yul\":1869:1876   */\n      dup7\n        /* \"#utility.yul\":1865:1888   */\n      sub\n        /* \"#utility.yul\":1861:1893   */\n      slt\n        /* \"#utility.yul\":1858:1910   */\n      iszero\n      tag_124\n      jumpi\n        /* \"#utility.yul\":1906:1907   */\n      0x00\n        /* \"#utility.yul\":1903:1904   */\n      dup1\n        /* \"#utility.yul\":1896:1908   */\n      revert\n        /* \"#utility.yul\":1858:1910   */\n    tag_124:\n        /* \"#utility.yul\":1929:1958   */\n      tag_125\n        /* \"#utility.yul\":1948:1957   */\n      dup5\n        /* \"#utility.yul\":1929:1958   */\n      tag_97\n      jump\t// in\n    tag_125:\n        /* \"#utility.yul\":1919:1958   */\n      swap6\n        /* \"#utility.yul\":2005:2007   */\n      0x20\n        /* \"#utility.yul\":1990:2008   */\n      dup6\n      add\n        /* \"#utility.yul\":1977:2009   */\n      calldataload\n      swap6\n      pop\n        /* \"#utility.yul\":2056:2058   */\n      0x40\n        /* \"#utility.yul\":2041:2059   */\n      swap1\n      swap5\n      add\n        /* \"#utility.yul\":2028:2060   */\n      calldataload\n      swap4\n        /* \"#utility.yul\":1744:2066   */\n      swap3\n      pop\n      pop\n      pop\n      jump\t// out\n        /* \"#utility.yul\":2434:3618   */\n    tag_23:\n        /* \"#utility.yul\":2577:2583   */\n      0x00\n        /* \"#utility.yul\":2585:2591   */\n      dup1\n        /* \"#utility.yul\":2593:2599   */\n      0x00\n        /* \"#utility.yul\":2601:2607   */\n      dup1\n        /* \"#utility.yul\":2609:2615   */\n      0x00\n        /* \"#utility.yul\":2662:2664   */\n      0x60\n        /* \"#utility.yul\":2650:2659   */\n      dup7\n        /* \"#utility.yul\":2641:2648   */\n      dup9\n        /* \"#utility.yul\":2637:2660   */\n      sub\n        /* \"#utility.yul\":2633:2665   */\n      slt\n        /* \"#utility.yul\":2630:2682   */\n      iszero\n      tag_129\n      jumpi\n        /* \"#utility.yul\":2678:2679   */\n      0x00\n        /* \"#utility.yul\":2675:2676   */\n      dup1\n        /* \"#utility.yul\":2668:2680   */\n      revert\n        /* \"#utility.yul\":2630:2682   */\n    tag_129:\n        /* \"#utility.yul\":2718:2727   */\n      dup6\n        /* \"#utility.yul\":2705:2728   */\n      calldataload\n        /* \"#utility.yul\":2747:2765   */\n      0xffffffffffffffff\n        /* \"#utility.yul\":2788:2790   */\n      dup1\n        /* \"#utility.yul\":2780:2786   */\n      dup3\n        /* \"#utility.yul\":2777:2791   */\n      gt\n        /* \"#utility.yul\":2774:2808   */\n      iszero\n      tag_130\n      jumpi\n        /* \"#utility.yul\":2804:2805   */\n      0x00\n        /* \"#utility.yul\":2801:2802   */\n      dup1\n        /* \"#utility.yul\":2794:2806   */\n      revert\n        /* \"#utility.yul\":2774:2808   */\n    tag_130:\n        /* \"#utility.yul\":2842:2848   */\n      dup2\n        /* \"#utility.yul\":2831:2840   */\n      dup9\n        /* \"#utility.yul\":2827:2849   */\n      add\n        /* \"#utility.yul\":2817:2849   */\n      swap2\n      pop\n        /* \"#utility.yul\":2887:2894   */\n      dup9\n        /* \"#utility.yul\":2880:2884   */\n      0x1f\n        /* \"#utility.yul\":2876:2878   */\n      dup4\n        /* \"#utility.yul\":2872:2885   */\n      add\n        /* \"#utility.yul\":2868:2895   */\n      slt\n        /* \"#utility.yul\":2858:2913   */\n      tag_131\n      jumpi\n        /* \"#utility.yul\":2909:2910   */\n      0x00\n        /* \"#utility.yul\":2906:2907   */\n      dup1\n        /* \"#utility.yul\":2899:2911   */\n      revert\n        /* \"#utility.yul\":2858:2913   */\n    tag_131:\n        /* \"#utility.yul\":2949:2951   */\n      dup2\n        /* \"#utility.yul\":2936:2952   */\n      calldataload\n        /* \"#utility.yul\":2975:2977   */\n      dup2\n        /* \"#utility.yul\":2967:2973   */\n      dup2\n        /* \"#utility.yul\":2964:2978   */\n      gt\n        /* \"#utility.yul\":2961:2995   */\n      iszero\n      tag_132\n      jumpi\n        /* \"#utility.yul\":2991:2992   */\n      0x00\n        /* \"#utility.yul\":2988:2989   */\n      dup1\n        /* \"#utility.yul\":2981:2993   */\n      revert\n        /* \"#utility.yul\":2961:2995   */\n    tag_132:\n        /* \"#utility.yul\":3047:3054   */\n      dup10\n        /* \"#utility.yul\":3040:3044   */\n      0x20\n        /* \"#utility.yul\":3034:3036   */\n      0x60\n        /* \"#utility.yul\":3026:3032   */\n      dup4\n        /* \"#utility.yul\":3022:3037   */\n      mul\n        /* \"#utility.yul\":3018:3020   */\n      dup6\n        /* \"#utility.yul\":3014:3038   */\n      add\n        /* \"#utility.yul\":3010:3045   */\n      add\n        /* \"#utility.yul\":3007:3055   */\n      gt\n        /* \"#utility.yul\":3004:3072   */\n      iszero\n      tag_133\n      jumpi\n        /* \"#utility.yul\":3068:3069   */\n      0x00\n        /* \"#utility.yul\":3065:3066   */\n      dup1\n        /* \"#utility.yul\":3058:3070   */\n      revert\n        /* \"#utility.yul\":3004:3072   */\n    tag_133:\n        /* \"#utility.yul\":3099:3103   */\n      0x20\n        /* \"#utility.yul\":3095:3097   */\n      dup4\n        /* \"#utility.yul\":3091:3104   */\n      add\n        /* \"#utility.yul\":3081:3104   */\n      swap8\n      pop\n        /* \"#utility.yul\":3123:3129   */\n      dup1\n        /* \"#utility.yul\":3113:3129   */\n      swap7\n      pop\n      pop\n        /* \"#utility.yul\":3148:3188   */\n      tag_134\n        /* \"#utility.yul\":3182:3186   */\n      0x20\n        /* \"#utility.yul\":3171:3180   */\n      dup10\n        /* \"#utility.yul\":3167:3187   */\n      add\n        /* \"#utility.yul\":3148:3188   */\n      tag_97\n      jump\t// in\n    tag_134:\n        /* \"#utility.yul\":3138:3188   */\n      swap5\n      pop\n        /* \"#utility.yul\":3241:3243   */\n      0x40\n        /* \"#utility.yul\":3230:3239   */\n      dup9\n        /* \"#utility.yul\":3226:3244   */\n      add\n        /* \"#utility.yul\":3213:3245   */\n      calldataload\n        /* \"#utility.yul\":3197:3245   */\n      swap2\n      pop\n        /* \"#utility.yul\":3270:3272   */\n      dup1\n        /* \"#utility.yul\":3260:3268   */\n      dup3\n        /* \"#utility.yul\":3257:3273   */\n      gt\n        /* \"#utility.yul\":3254:3290   */\n      iszero\n      tag_135\n      jumpi\n        /* \"#utility.yul\":3286:3287   */\n      0x00\n        /* \"#utility.yul\":3283:3284   */\n      dup1\n        /* \"#utility.yul\":3276:3288   */\n      revert\n        /* \"#utility.yul\":3254:3290   */\n    tag_135:\n        /* \"#utility.yul\":3324:3332   */\n      dup2\n        /* \"#utility.yul\":3313:3322   */\n      dup9\n        /* \"#utility.yul\":3309:3333   */\n      add\n        /* \"#utility.yul\":3299:3333   */\n      swap2\n      pop\n        /* \"#utility.yul\":3371:3378   */\n      dup9\n        /* \"#utility.yul\":3364:3368   */\n      0x1f\n        /* \"#utility.yul\":3360:3362   */\n      dup4\n        /* \"#utility.yul\":3356:3369   */\n      add\n        /* \"#utility.yul\":3352:3379   */\n      slt\n        /* \"#utility.yul\":3342:3397   */\n      tag_136\n      jumpi\n        /* \"#utility.yul\":3393:3394   */\n      0x00\n        /* \"#utility.yul\":3390:3391   */\n      dup1\n        /* \"#utility.yul\":3383:3395   */\n      revert\n        /* \"#utility.yul\":3342:3397   */\n    tag_136:\n        /* \"#utility.yul\":3435:3437   */\n      dup2\n        /* \"#utility.yul\":3422:3438   */\n      calldataload\n        /* \"#utility.yul\":3463:3465   */\n      dup2\n        /* \"#utility.yul\":3453:3461   */\n      dup2\n        /* \"#utility.yul\":3450:3466   */\n      gt\n        /* \"#utility.yul\":3447:3483   */\n      iszero\n      tag_137\n      jumpi\n        /* \"#utility.yul\":3479:3480   */\n      0x00\n        /* \"#utility.yul\":3476:3477   */\n      dup1\n        /* \"#utility.yul\":3469:3481   */\n      revert\n        /* \"#utility.yul\":3447:3483   */\n    tag_137:\n        /* \"#utility.yul\":3528:3535   */\n      dup10\n        /* \"#utility.yul\":3521:3525   */\n      0x20\n        /* \"#utility.yul\":3510:3518   */\n      dup3\n        /* \"#utility.yul\":3506:3508   */\n      dup6\n        /* \"#utility.yul\":3502:3519   */\n      add\n        /* \"#utility.yul\":3498:3526   */\n      add\n        /* \"#utility.yul\":3495:3536   */\n      gt\n        /* \"#utility.yul\":3492:3553   */\n      iszero\n      tag_138\n      jumpi\n        /* \"#utility.yul\":3549:3550   */\n      0x00\n        /* \"#utility.yul\":3546:3547   */\n      dup1\n        /* \"#utility.yul\":3539:3551   */\n      revert\n        /* \"#utility.yul\":3492:3553   */\n    tag_138:\n        /* \"#utility.yul\":2434:3618   */\n      swap7\n      swap10\n      swap6\n      swap9\n      pop\n      swap4\n      swap7\n      pop\n        /* \"#utility.yul\":3580:3584   */\n      0x20\n        /* \"#utility.yul\":3572:3585   */\n      add\n      swap5\n        /* \"#utility.yul\":3604:3612   */\n      swap4\n        /* \"#utility.yul\":2434:3618   */\n      swap3\n      pop\n      pop\n      pop\n      jump\t// out\n        /* \"#utility.yul\":3623:3809   */\n    tag_27:\n        /* \"#utility.yul\":3682:3688   */\n      0x00\n        /* \"#utility.yul\":3735:3737   */\n      0x20\n        /* \"#utility.yul\":3723:3732   */\n      dup3\n        /* \"#utility.yul\":3714:3721   */\n      dup5\n        /* \"#utility.yul\":3710:3733   */\n      sub\n        /* \"#utility.yul\":3706:3738   */\n      slt\n        /* \"#utility.yul\":3703:3755   */\n      iszero\n      tag_140\n      jumpi\n        /* \"#utility.yul\":3751:3752   */\n      0x00\n        /* \"#utility.yul\":3748:3749   */\n      dup1\n        /* \"#utility.yul\":3741:3753   */\n      revert\n        /* \"#utility.yul\":3703:3755   */\n    tag_140:\n        /* \"#utility.yul\":3774:3803   */\n      tag_141\n        /* \"#utility.yul\":3793:3802   */\n      dup3\n        /* \"#utility.yul\":3774:3803   */\n      tag_97\n      jump\t// in\n    tag_141:\n        /* \"#utility.yul\":3764:3803   */\n      swap4\n        /* \"#utility.yul\":3623:3809   */\n      swap3\n      pop\n      pop\n      pop\n      jump\t// out\n        /* \"#utility.yul\":3956:4206   */\n    tag_100:\n        /* \"#utility.yul\":4041:4042   */\n      0x00\n        /* \"#utility.yul\":4051:4164   */\n    tag_144:\n        /* \"#utility.yul\":4065:4071   */\n      dup4\n        /* \"#utility.yul\":4062:4063   */\n      dup2\n        /* \"#utility.yul\":4059:4072   */\n      lt\n        /* \"#utility.yul\":4051:4164   */\n      iszero\n      tag_146\n      jumpi\n        /* \"#utility.yul\":4141:4152   */\n      dup2\n      dup2\n      add\n        /* \"#utility.yul\":4135:4153   */\n      mload\n        /* \"#utility.yul\":4122:4133   */\n      dup4\n      dup3\n      add\n        /* \"#utility.yul\":4115:4154   */\n      mstore\n        /* \"#utility.yul\":4087:4089   */\n      0x20\n        /* \"#utility.yul\":4080:4090   */\n      add\n        /* \"#utility.yul\":4051:4164   */\n      jump(tag_144)\n    tag_146:\n      pop\n      pop\n        /* \"#utility.yul\":4198:4199   */\n      0x00\n        /* \"#utility.yul\":4180:4196   */\n      swap2\n      add\n        /* \"#utility.yul\":4173:4200   */\n      mstore\n        /* \"#utility.yul\":3956:4206   */\n      jump\t// out\n        /* \"#utility.yul\":4211:4482   */\n    tag_101:\n        /* \"#utility.yul\":4253:4256   */\n      0x00\n        /* \"#utility.yul\":4291:4296   */\n      dup2\n        /* \"#utility.yul\":4285:4297   */\n      mload\n        /* \"#utility.yul\":4318:4324   */\n      dup1\n        /* \"#utility.yul\":4313:4316   */\n      dup5\n        /* \"#utility.yul\":4306:4325   */\n      mstore\n        /* \"#utility.yul\":4334:4410   */\n      tag_148\n        /* \"#utility.yul\":4403:4409   */\n      dup2\n        /* \"#utility.yul\":4396:4400   */\n      0x20\n        /* \"#utility.yul\":4391:4394   */\n      dup7\n        /* \"#utility.yul\":4387:4401   */\n      add\n        /* \"#utility.yul\":4380:4384   */\n      0x20\n        /* \"#utility.yul\":4373:4378   */\n      dup7\n        /* \"#utility.yul\":4369:4385   */\n      add\n        /* \"#utility.yul\":4334:4410   */\n      tag_100\n      jump\t// in\n    tag_148:\n        /* \"#utility.yul\":4464:4466   */\n      0x1f\n        /* \"#utility.yul\":4443:4458   */\n      add\n      not(0x1f)\n        /* \"#utility.yul\":4439:4468   */\n      and\n        /* \"#utility.yul\":4430:4469   */\n      swap3\n      swap1\n      swap3\n      add\n        /* \"#utility.yul\":4471:4475   */\n      0x20\n        /* \"#utility.yul\":4426:4476   */\n      add\n      swap3\n        /* \"#utility.yul\":4211:4482   */\n      swap2\n      pop\n      pop\n      jump\t// out\n        /* \"#utility.yul\":4487:4870   */\n    tag_31:\n        /* \"#utility.yul\":4684:4686   */\n      0x40\n        /* \"#utility.yul\":4673:4682   */\n      dup2\n        /* \"#utility.yul\":4666:4687   */\n      mstore\n        /* \"#utility.yul\":4647:4651   */\n      0x00\n        /* \"#utility.yul\":4710:4755   */\n      tag_150\n        /* \"#utility.yul\":4751:4753   */\n      0x40\n        /* \"#utility.yul\":4740:4749   */\n      dup4\n        /* \"#utility.yul\":4736:4754   */\n      add\n        /* \"#utility.yul\":4728:4734   */\n      dup6\n        /* \"#utility.yul\":4710:4755   */\n      tag_101\n      jump\t// in\n    tag_150:\n        /* \"#utility.yul\":4803:4812   */\n      dup3\n        /* \"#utility.yul\":4795:4801   */\n      dup2\n        /* \"#utility.yul\":4791:4813   */\n      sub\n        /* \"#utility.yul\":4786:4788   */\n      0x20\n        /* \"#utility.yul\":4775:4784   */\n      dup5\n        /* \"#utility.yul\":4771:4789   */\n      add\n        /* \"#utility.yul\":4764:4814   */\n      mstore\n        /* \"#utility.yul\":4831:4864   */\n      tag_151\n        /* \"#utility.yul\":4857:4863   */\n      dup2\n        /* \"#utility.yul\":4849:4855   */\n      dup6\n        /* \"#utility.yul\":4831:4864   */\n      tag_101\n      jump\t// in\n    tag_151:\n        /* \"#utility.yul\":4823:4864   */\n      swap6\n        /* \"#utility.yul\":4487:4870   */\n      swap5\n      pop\n      pop\n      pop\n      pop\n      pop\n      jump\t// out\n        /* \"#utility.yul\":5177:5361   */\n    tag_41:\n      shl(0xe0, 0x4e487b71)\n        /* \"#utility.yul\":5226:5227   */\n      0x00\n        /* \"#utility.yul\":5219:5307   */\n      mstore\n        /* \"#utility.yul\":5326:5330   */\n      0x32\n        /* \"#utility.yul\":5323:5324   */\n      0x04\n        /* \"#utility.yul\":5316:5331   */\n      mstore\n        /* \"#utility.yul\":5350:5354   */\n      0x24\n        /* \"#utility.yul\":5347:5348   */\n      0x00\n        /* \"#utility.yul\":5340:5355   */\n      revert\n        /* \"#utility.yul\":5721:5992   */\n    tag_48:\n        /* \"#utility.yul\":5904:5910   */\n      dup2\n        /* \"#utility.yul\":5896:5902   */\n      dup4\n        /* \"#utility.yul\":5891:5894   */\n      dup3\n        /* \"#utility.yul\":5878:5911   */\n      calldatacopy\n        /* \"#utility.yul\":5860:5863   */\n      0x00\n        /* \"#utility.yul\":5930:5946   */\n      swap2\n      add\n        /* \"#utility.yul\":5955:5968   */\n      swap1\n      dup2\n      mstore\n        /* \"#utility.yul\":5930:5946   */\n      swap2\n        /* \"#utility.yul\":5721:5992   */\n      swap1\n      pop\n      jump\t// out\n        /* \"#utility.yul\":5997:6216   */\n    tag_102:\n        /* \"#utility.yul\":6064:6084   */\n      dup1\n      calldataload\n      not(sub(shl(0xe0, 0x01), 0x01))\n        /* \"#utility.yul\":6113:6191   */\n      dup2\n      and\n        /* \"#utility.yul\":6103:6192   */\n      dup2\n      eq\n        /* \"#utility.yul\":6093:6210   */\n      tag_122\n      jumpi\n        /* \"#utility.yul\":6206:6207   */\n      0x00\n        /* \"#utility.yul\":6203:6204   */\n      dup1\n        /* \"#utility.yul\":6196:6208   */\n      revert\n        /* \"#utility.yul\":6221:6405   */\n    tag_59:\n        /* \"#utility.yul\":6279:6285   */\n      0x00\n        /* \"#utility.yul\":6332:6334   */\n      0x20\n        /* \"#utility.yul\":6320:6329   */\n      dup3\n        /* \"#utility.yul\":6311:6318   */\n      dup5\n        /* \"#utility.yul\":6307:6330   */\n      sub\n        /* \"#utility.yul\":6303:6335   */\n      slt\n        /* \"#utility.yul\":6300:6352   */\n      iszero\n      tag_159\n      jumpi\n        /* \"#utility.yul\":6348:6349   */\n      0x00\n        /* \"#utility.yul\":6345:6346   */\n      dup1\n        /* \"#utility.yul\":6338:6350   */\n      revert\n        /* \"#utility.yul\":6300:6352   */\n    tag_159:\n        /* \"#utility.yul\":6371:6399   */\n      tag_141\n        /* \"#utility.yul\":6389:6398   */\n      dup3\n        /* \"#utility.yul\":6371:6399   */\n      tag_102\n      jump\t// in\n        /* \"#utility.yul\":6599:6898   */\n    tag_103:\n        /* \"#utility.yul\":6685:6686   */\n      0x03\n        /* \"#utility.yul\":6678:6683   */\n      dup2\n        /* \"#utility.yul\":6675:6687   */\n      lt\n        /* \"#utility.yul\":6665:6865   */\n      tag_163\n      jumpi\n      shl(0xe0, 0x4e487b71)\n        /* \"#utility.yul\":6718:6719   */\n      0x00\n        /* \"#utility.yul\":6711:6799   */\n      mstore\n        /* \"#utility.yul\":6822:6826   */\n      0x21\n        /* \"#utility.yul\":6819:6820   */\n      0x04\n        /* \"#utility.yul\":6812:6827   */\n      mstore\n        /* \"#utility.yul\":6850:6854   */\n      0x24\n        /* \"#utility.yul\":6847:6848   */\n      0x00\n        /* \"#utility.yul\":6840:6855   */\n      revert\n        /* \"#utility.yul\":6665:6865   */\n    tag_163:\n        /* \"#utility.yul\":6874:6892   */\n      swap1\n      mstore\n        /* \"#utility.yul\":6599:6898   */\n      jump\t// out\n        /* \"#utility.yul\":6903:7377   */\n    tag_104:\n      sub(shl(0xa0, 0x01), 0x01)\n        /* \"#utility.yul\":6990:7015   */\n      tag_165\n        /* \"#utility.yul\":7009:7014   */\n      dup3\n        /* \"#utility.yul\":6990:7015   */\n      tag_97\n      jump\t// in\n    tag_165:\n        /* \"#utility.yul\":6986:7060   */\n      and\n        /* \"#utility.yul\":6981:6984   */\n      dup3\n        /* \"#utility.yul\":6974:7061   */\n      mstore\n        /* \"#utility.yul\":7109:7113   */\n      0x20\n        /* \"#utility.yul\":7102:7107   */\n      dup2\n        /* \"#utility.yul\":7098:7114   */\n      add\n        /* \"#utility.yul\":7085:7115   */\n      calldataload\n        /* \"#utility.yul\":7146:7147   */\n      0x03\n        /* \"#utility.yul\":7137:7144   */\n      dup2\n        /* \"#utility.yul\":7134:7148   */\n      lt\n        /* \"#utility.yul\":7124:7166   */\n      tag_166\n      jumpi\n        /* \"#utility.yul\":7162:7163   */\n      0x00\n        /* \"#utility.yul\":7159:7160   */\n      dup1\n        /* \"#utility.yul\":7152:7164   */\n      revert\n        /* \"#utility.yul\":7124:7166   */\n    tag_166:\n        /* \"#utility.yul\":7175:7230   */\n      tag_167\n        /* \"#utility.yul\":7224:7228   */\n      0x20\n        /* \"#utility.yul\":7219:7222   */\n      dup5\n        /* \"#utility.yul\":7215:7229   */\n      add\n        /* \"#utility.yul\":7206:7213   */\n      dup3\n        /* \"#utility.yul\":7175:7230   */\n      tag_103\n      jump\t// in\n    tag_167:\n      pop\n      not(sub(shl(0xe0, 0x01), 0x01))\n        /* \"#utility.yul\":7266:7301   */\n      tag_168\n        /* \"#utility.yul\":7295:7299   */\n      0x40\n        /* \"#utility.yul\":7288:7293   */\n      dup4\n        /* \"#utility.yul\":7284:7300   */\n      add\n        /* \"#utility.yul\":7266:7301   */\n      tag_102\n      jump\t// in\n    tag_168:\n        /* \"#utility.yul\":7262:7370   */\n      and\n        /* \"#utility.yul\":7255:7259   */\n      0x40\n        /* \"#utility.yul\":7250:7253   */\n      dup4\n        /* \"#utility.yul\":7246:7260   */\n      add\n        /* \"#utility.yul\":7239:7371   */\n      mstore\n        /* \"#utility.yul\":6903:7377   */\n      pop\n      pop\n      jump\t// out\n        /* \"#utility.yul\":7382:7648   */\n    tag_105:\n        /* \"#utility.yul\":7470:7476   */\n      dup2\n        /* \"#utility.yul\":7465:7468   */\n      dup4\n        /* \"#utility.yul\":7458:7477   */\n      mstore\n        /* \"#utility.yul\":7522:7528   */\n      dup2\n        /* \"#utility.yul\":7515:7520   */\n      dup2\n        /* \"#utility.yul\":7508:7512   */\n      0x20\n        /* \"#utility.yul\":7503:7506   */\n      dup6\n        /* \"#utility.yul\":7499:7513   */\n      add\n        /* \"#utility.yul\":7486:7529   */\n      calldatacopy\n      pop\n        /* \"#utility.yul\":7574:7575   */\n      0x00\n        /* \"#utility.yul\":7549:7565   */\n      dup3\n      dup3\n      add\n        /* \"#utility.yul\":7567:7571   */\n      0x20\n        /* \"#utility.yul\":7545:7572   */\n      swap1\n      dup2\n      add\n        /* \"#utility.yul\":7538:7576   */\n      swap2\n      swap1\n      swap2\n      mstore\n        /* \"#utility.yul\":7630:7632   */\n      0x1f\n        /* \"#utility.yul\":7609:7624   */\n      swap1\n      swap2\n      add\n      not(0x1f)\n        /* \"#utility.yul\":7605:7634   */\n      and\n        /* \"#utility.yul\":7596:7635   */\n      swap1\n      swap2\n      add\n        /* \"#utility.yul\":7592:7642   */\n      add\n      swap1\n        /* \"#utility.yul\":7382:7648   */\n      jump\t// out\n        /* \"#utility.yul\":7653:8174   */\n    tag_63:\n        /* \"#utility.yul\":7902:7956   */\n      tag_171\n        /* \"#utility.yul\":7946:7955   */\n      dup2\n        /* \"#utility.yul\":7938:7944   */\n      dup7\n        /* \"#utility.yul\":7902:7956   */\n      tag_104\n      jump\t// in\n    tag_171:\n      sub(shl(0xa0, 0x01), 0x01)\n        /* \"#utility.yul\":7996:8002   */\n      dup5\n        /* \"#utility.yul\":7992:8047   */\n      and\n        /* \"#utility.yul\":7987:7989   */\n      0x60\n        /* \"#utility.yul\":7976:7985   */\n      dup3\n        /* \"#utility.yul\":7972:7990   */\n      add\n        /* \"#utility.yul\":7965:8048   */\n      mstore\n        /* \"#utility.yul\":8085:8088   */\n      0xa0\n        /* \"#utility.yul\":8079:8082   */\n      0x80\n        /* \"#utility.yul\":8068:8077   */\n      dup3\n        /* \"#utility.yul\":8064:8083   */\n      add\n        /* \"#utility.yul\":8057:8089   */\n      mstore\n        /* \"#utility.yul\":7883:7887   */\n      0x00\n        /* \"#utility.yul\":8106:8168   */\n      tag_172\n        /* \"#utility.yul\":8163:8166   */\n      0xa0\n        /* \"#utility.yul\":8152:8161   */\n      dup4\n        /* \"#utility.yul\":8148:8167   */\n      add\n        /* \"#utility.yul\":8140:8146   */\n      dup5\n        /* \"#utility.yul\":8132:8138   */\n      dup7\n        /* \"#utility.yul\":8106:8168   */\n      tag_105\n      jump\t// in\n    tag_172:\n        /* \"#utility.yul\":8098:8168   */\n      swap7\n        /* \"#utility.yul\":7653:8174   */\n      swap6\n      pop\n      pop\n      pop\n      pop\n      pop\n      pop\n      jump\t// out\n        /* \"#utility.yul\":8179:8609   */\n    tag_65:\n      not(sub(shl(0xe0, 0x01), 0x01))\n        /* \"#utility.yul\":8368:8374   */\n      dup4\n        /* \"#utility.yul\":8364:8443   */\n      and\n        /* \"#utility.yul\":8359:8362   */\n      dup2\n        /* \"#utility.yul\":8352:8444   */\n      mstore\n        /* \"#utility.yul\":8334:8337   */\n      0x00\n        /* \"#utility.yul\":8473:8479   */\n      dup3\n        /* \"#utility.yul\":8467:8480   */\n      mload\n        /* \"#utility.yul\":8489:8563   */\n      tag_174\n        /* \"#utility.yul\":8556:8562   */\n      dup2\n        /* \"#utility.yul\":8552:8553   */\n      0x04\n        /* \"#utility.yul\":8547:8550   */\n      dup6\n        /* \"#utility.yul\":8543:8554   */\n      add\n        /* \"#utility.yul\":8536:8540   */\n      0x20\n        /* \"#utility.yul\":8528:8534   */\n      dup8\n        /* \"#utility.yul\":8524:8541   */\n      add\n        /* \"#utility.yul\":8489:8563   */\n      tag_100\n      jump\t// in\n    tag_174:\n        /* \"#utility.yul\":8583:8599   */\n      swap2\n      swap1\n      swap2\n      add\n        /* \"#utility.yul\":8601:8602   */\n      0x04\n        /* \"#utility.yul\":8579:8603   */\n      add\n      swap4\n        /* \"#utility.yul\":8179:8609   */\n      swap3\n      pop\n      pop\n      pop\n      jump\t// out\n        /* \"#utility.yul\":8614:8901   */\n    tag_67:\n        /* \"#utility.yul\":8743:8746   */\n      0x00\n        /* \"#utility.yul\":8781:8787   */\n      dup3\n        /* \"#utility.yul\":8775:8788   */\n      mload\n        /* \"#utility.yul\":8797:8863   */\n      tag_176\n        /* \"#utility.yul\":8856:8862   */\n      dup2\n        /* \"#utility.yul\":8851:8854   */\n      dup5\n        /* \"#utility.yul\":8844:8848   */\n      0x20\n        /* \"#utility.yul\":8836:8842   */\n      dup8\n        /* \"#utility.yul\":8832:8849   */\n      add\n        /* \"#utility.yul\":8797:8863   */\n      tag_100\n      jump\t// in\n    tag_176:\n        /* \"#utility.yul\":8879:8895   */\n      swap2\n      swap1\n      swap2\n      add\n      swap3\n        /* \"#utility.yul\":8614:8901   */\n      swap2\n      pop\n      pop\n      jump\t// out\n        /* \"#utility.yul\":9260:10211   */\n    tag_75:\n        /* \"#utility.yul\":9579:9581   */\n      0x60\n        /* \"#utility.yul\":9631:9652   */\n      dup1\n      dup3\n      mstore\n        /* \"#utility.yul\":9604:9622   */\n      dup2\n      dup2\n      add\n        /* \"#utility.yul\":9687:9709   */\n      dup7\n      swap1\n      mstore\n        /* \"#utility.yul\":9550:9554   */\n      0x00\n      swap1\n        /* \"#utility.yul\":9767:9773   */\n      dup8\n        /* \"#utility.yul\":9740:9743   */\n      0x80\n        /* \"#utility.yul\":9725:9744   */\n      dup5\n      add\n        /* \"#utility.yul\":9550:9554   */\n      dup4\n        /* \"#utility.yul\":9801:9992   */\n    tag_179:\n        /* \"#utility.yul\":9815:9821   */\n      dup10\n        /* \"#utility.yul\":9812:9813   */\n      dup2\n        /* \"#utility.yul\":9809:9822   */\n      lt\n        /* \"#utility.yul\":9801:9992   */\n      iszero\n      tag_181\n      jumpi\n        /* \"#utility.yul\":9864:9912   */\n      tag_182\n        /* \"#utility.yul\":9908:9911   */\n      dup3\n        /* \"#utility.yul\":9900:9906   */\n      dup5\n        /* \"#utility.yul\":9864:9912   */\n      tag_104\n      jump\t// in\n    tag_182:\n        /* \"#utility.yul\":9967:9982   */\n      swap2\n      dup4\n      add\n      swap2\n        /* \"#utility.yul\":9932:9944   */\n      swap1\n      dup4\n      add\n      swap1\n        /* \"#utility.yul\":9837:9838   */\n      0x01\n        /* \"#utility.yul\":9830:9839   */\n      add\n        /* \"#utility.yul\":9801:9992   */\n      jump(tag_179)\n    tag_181:\n        /* \"#utility.yul\":9805:9808   */\n      pop\n      sub(shl(0xa0, 0x01), 0x01)\n        /* \"#utility.yul\":10034:10040   */\n      dup9\n        /* \"#utility.yul\":10030:10085   */\n      and\n        /* \"#utility.yul\":10023:10027   */\n      0x20\n        /* \"#utility.yul\":10012:10021   */\n      dup7\n        /* \"#utility.yul\":10008:10028   */\n      add\n        /* \"#utility.yul\":10001:10086   */\n      mstore\n        /* \"#utility.yul\":10131:10140   */\n      dup5\n        /* \"#utility.yul\":10126:10129   */\n      dup2\n        /* \"#utility.yul\":10122:10141   */\n      sub\n        /* \"#utility.yul\":10117:10119   */\n      0x40\n        /* \"#utility.yul\":10106:10115   */\n      dup7\n        /* \"#utility.yul\":10102:10120   */\n      add\n        /* \"#utility.yul\":10095:10142   */\n      mstore\n        /* \"#utility.yul\":10159:10205   */\n      tag_183\n        /* \"#utility.yul\":10201:10204   */\n      dup2\n        /* \"#utility.yul\":10193:10199   */\n      dup8\n        /* \"#utility.yul\":10185:10191   */\n      dup10\n        /* \"#utility.yul\":10159:10205   */\n      tag_105\n      jump\t// in\n    tag_183:\n        /* \"#utility.yul\":10151:10205   */\n      swap11\n        /* \"#utility.yul\":9260:10211   */\n      swap10\n      pop\n      pop\n      pop\n      pop\n      pop\n      pop\n      pop\n      pop\n      pop\n      pop\n      jump\t// out\n        /* \"#utility.yul\":10216:11562   */\n    tag_90:\n        /* \"#utility.yul\":10567:10569   */\n      0x60\n        /* \"#utility.yul\":10619:10640   */\n      dup1\n      dup3\n      mstore\n        /* \"#utility.yul\":10689:10702   */\n      dup4\n      mload\n        /* \"#utility.yul\":10592:10610   */\n      dup3\n      dup3\n      add\n        /* \"#utility.yul\":10711:10733   */\n      dup2\n      swap1\n      mstore\n        /* \"#utility.yul\":10538:10542   */\n      0x00\n      swap2\n        /* \"#utility.yul\":10567:10569   */\n      swap1\n        /* \"#utility.yul\":10787:10791   */\n      0x20\n      swap1\n        /* \"#utility.yul\":10764:10767   */\n      0x80\n        /* \"#utility.yul\":10749:10768   */\n      dup6\n      add\n      swap1\n        /* \"#utility.yul\":10814:10831   */\n      dup3\n      dup9\n      add\n        /* \"#utility.yul\":10538:10542   */\n      dup6\n        /* \"#utility.yul\":10859:11384   */\n    tag_185:\n        /* \"#utility.yul\":10873:10879   */\n      dup3\n        /* \"#utility.yul\":10870:10871   */\n      dup2\n        /* \"#utility.yul\":10867:10880   */\n      lt\n        /* \"#utility.yul\":10859:11384   */\n      iszero\n      tag_187\n      jumpi\n        /* \"#utility.yul\":10938:10944   */\n      dup2\n        /* \"#utility.yul\":10932:10945   */\n      mload\n      sub(shl(0xa0, 0x01), 0x01)\n        /* \"#utility.yul\":10980:10982   */\n      dup2\n        /* \"#utility.yul\":10974:10983   */\n      mload\n        /* \"#utility.yul\":10970:11028   */\n      and\n        /* \"#utility.yul\":10965:10968   */\n      dup6\n        /* \"#utility.yul\":10958:11029   */\n      mstore\n        /* \"#utility.yul\":11076:11078   */\n      dup6\n        /* \"#utility.yul\":11072:11074   */\n      dup2\n        /* \"#utility.yul\":11068:11079   */\n      add\n        /* \"#utility.yul\":11062:11080   */\n      mload\n        /* \"#utility.yul\":11093:11151   */\n      tag_188\n        /* \"#utility.yul\":11147:11149   */\n      dup8\n        /* \"#utility.yul\":11142:11145   */\n      dup8\n        /* \"#utility.yul\":11138:11150   */\n      add\n        /* \"#utility.yul\":11124:11136   */\n      dup3\n        /* \"#utility.yul\":11093:11151   */\n      tag_103\n      jump\t// in\n    tag_188:\n      pop\n        /* \"#utility.yul\":11174:11178   */\n      0x40\n        /* \"#utility.yul\":11222:11233   */\n      swap1\n      dup2\n      add\n        /* \"#utility.yul\":11216:11234   */\n      mload\n      not(sub(shl(0xe0, 0x01), 0x01))\n        /* \"#utility.yul\":11212:11303   */\n      and\n        /* \"#utility.yul\":11198:11210   */\n      swap1\n      dup6\n      add\n        /* \"#utility.yul\":11191:11304   */\n      mstore\n        /* \"#utility.yul\":11324:11336   */\n      swap3\n      dup6\n      add\n      swap3\n        /* \"#utility.yul\":11359:11374   */\n      swap1\n      dup5\n      add\n      swap1\n        /* \"#utility.yul\":10895:10896   */\n      0x01\n        /* \"#utility.yul\":10888:10897   */\n      add\n        /* \"#utility.yul\":10859:11384   */\n      jump(tag_185)\n    tag_187:\n      pop\n      pop\n      pop\n      sub(shl(0xa0, 0x01), 0x01)\n        /* \"#utility.yul\":2137:2191   */\n      dup7\n      and\n        /* \"#utility.yul\":11435:11439   */\n      0x20\n        /* \"#utility.yul\":11420:11440   */\n      dup7\n      add\n        /* \"#utility.yul\":2125:2192   */\n      mstore\n        /* \"#utility.yul\":11479:11498   */\n      dup5\n      dup2\n      sub\n        /* \"#utility.yul\":11472:11476   */\n      0x40\n        /* \"#utility.yul\":11457:11477   */\n      dup7\n      add\n        /* \"#utility.yul\":11450:11499   */\n      mstore\n        /* \"#utility.yul\":3905:3906   */\n      0x00\n        /* \"#utility.yul\":3893:3907   */\n      dup2\n      mstore\n        /* \"#utility.yul\":3940:3944   */\n      0x20\n        /* \"#utility.yul\":3931:3945   */\n      dup2\n      add\n        /* \"#utility.yul\":11508:11556   */\n      swap8\n        /* \"#utility.yul\":10216:11562   */\n      swap7\n      pop\n      pop\n      pop\n      pop\n      pop\n      pop\n      pop\n      jump\t// out\n\n    auxdata: 0xa2646970667358221220743c7c2c1d50081f7f3f6f1a1e93df7b075a63cfc931b296a5864c2289957fb864736f6c63430008180033\n}\n",
				"bytecode": {
					"linkReferences": {},
					"object": "608060405234801561000f575f80fd5b505f80546001600160a01b03191633179055610a698061002e5f395ff3fe608060405234801561000f575f80fd5b5060043610610064575f3560e01c80638da5cb5b1161004d5780638da5cb5b146100905780639e97d739146100be578063a67a117b146100d1575f80fd5b806313732d79146100685780637a26dd311461007d575b5f80fd5b61007b6100763660046105aa565b6100e4565b005b61007b61008b36600461062d565b610123565b5f546100a2906001600160a01b031681565b6040516001600160a01b03909116815260200160405180910390f35b61007b6100cc36600461065d565b610164565b61007b6100df36600461072d565b610400565b817fdbbc48772584850c2086f66c22a3654c9e46524ff539fd9d72198d91cb7c13c0848360405161011692919061079a565b60405180910390a2505050565b604080516001600160a01b03851681526020810183905283917fcb87df07b1c304492bd875a5c8b98672eca500939412809ea229afef1d7451889101610116565b5f5b848110156103f8575f868683818110610181576101816107c7565b610197926020606090920201908101915061072d565b6001600160a01b03160361025f576001600160a01b0384166102005760405162461bcd60e51b815260206004820152601a60248201527f496e76616c696420696e697469616c697a65206164647265737300000000000060448201526064015b60405180910390fd5b836001600160a01b0316838360405161021a9291906107db565b5f60405180830381855af49150503d805f8114610252576040519150601f19603f3d011682016040523d82523d5f602084013e610257565b606091505b5050506103f0565b5f868683818110610272576102726107c7565b610288926020606090920201908101915061072d565b6001600160a01b03168787848181106102a3576102a36107c7565b90506060020160400160208101906102bb9190610801565b8888858181106102cd576102cd6107c7565b9050606002015f87876040516020016102e994939291906108b4565b60408051601f198184030181529082905261030792916020016108ed565b60408051601f19818403018152908290526103219161091c565b5f60405180830381855af49150503d805f8114610359576040519150601f19603f3d011682016040523d82523d5f602084013e61035e565b606091505b50509050806103af5760405162461bcd60e51b815260206004820152601960248201527f4661636574206d6f64696669636174696f6e206661696c65640000000000000060448201526064016101f7565b7fee80746e1d76a7c4654e1a9d2ff0dde8304b0d72803a25eb48c89fd6eae7ebe887878787876040516103e6959493929190610937565b60405180910390a1505b600101610166565b505050505050565b6040805160018082528183019092525f91816020015b604080516060810182525f80825260208083018290529282015282525f199092019101816104165790505060408051606081019091526001600160a01b0384168152909150602081015f81527ffccc64d400000000000000000000000000000000000000000000000000000000602090910152815182905f9061049b5761049b6107c7565b60209081029190910101526040517f9e97d7390000000000000000000000000000000000000000000000000000000081523090639e97d739906104e49084905f9060040161099e565b5f604051808303815f87803b1580156104fb575f80fd5b505af11580156103f8573d5f803e3d5ffd5b634e487b7160e01b5f52604160045260245ffd5b5f82601f830112610530575f80fd5b813567ffffffffffffffff8082111561054b5761054b61050d565b604051601f8301601f19908116603f011681019082821181831017156105735761057361050d565b8160405283815286602085880101111561058b575f80fd5b836020870160208301375f602085830101528094505050505092915050565b5f805f606084860312156105bc575f80fd5b833567ffffffffffffffff808211156105d3575f80fd5b6105df87838801610521565b94506020860135935060408601359150808211156105fb575f80fd5b5061060886828701610521565b9150509250925092565b80356001600160a01b0381168114610628575f80fd5b919050565b5f805f6060848603121561063f575f80fd5b61064884610612565b95602085013595506040909401359392505050565b5f805f805f60608688031215610671575f80fd5b853567ffffffffffffffff80821115610688575f80fd5b818801915088601f83011261069b575f80fd5b8135818111156106a9575f80fd5b8960206060830285010111156106bd575f80fd5b602083019750809650506106d360208901610612565b945060408801359150808211156106e8575f80fd5b818801915088601f8301126106fb575f80fd5b813581811115610709575f80fd5b89602082850101111561071a575f80fd5b9699959850939650602001949392505050565b5f6020828403121561073d575f80fd5b61074682610612565b9392505050565b5f5b8381101561076757818101518382015260200161074f565b50505f910152565b5f815180845261078681602086016020860161074d565b601f01601f19169290920160200192915050565b604081525f6107ac604083018561076f565b82810360208401526107be818561076f565b95945050505050565b634e487b7160e01b5f52603260045260245ffd5b818382375f9101908152919050565b80356001600160e01b031981168114610628575f80fd5b5f60208284031215610811575f80fd5b610746826107ea565b6003811061083657634e487b7160e01b5f52602160045260245ffd5b9052565b6001600160a01b0361084b82610612565b16825260208101356003811061085f575f80fd5b61086c602084018261081a565b506001600160e01b0319610882604083016107ea565b1660408301525050565b81835281816020850137505f828201602090810191909152601f909101601f19169091010190565b6108be818661083a565b6001600160a01b038416606082015260a060808201525f6108e360a08301848661088c565b9695505050505050565b6001600160e01b0319831681525f825161090e81600485016020870161074d565b919091016004019392505050565b5f825161092d81846020870161074d565b9190910192915050565b60608082528181018690525f908760808401835b8981101561096d5761095d828461083a565b918301919083019060010161094b565b506001600160a01b0388166020860152848103604086015261099081878961088c565b9a9950505050505050505050565b606080825283518282018190525f91906020906080850190828801855b82811015610a075781516001600160a01b038151168552858101516109e28787018261081a565b506040908101516001600160e01b0319169085015292850192908401906001016109bb565b5050506001600160a01b038616602086015284810360408601525f81526020810197965050505050505056fea2646970667358221220743c7c2c1d50081f7f3f6f1a1e93df7b075a63cfc931b296a5864c2289957fb864736f6c63430008180033",
					"opcodes": "PUSH1 0x80 PUSH1 0x40 MSTORE CALLVALUE DUP1 ISZERO PUSH2 0xF JUMPI PUSH0 DUP1 REVERT JUMPDEST POP PUSH0 DUP1 SLOAD PUSH1 0x1 PUSH1 0x1 PUSH1 0xA0 SHL SUB NOT AND CALLER OR SWAP1 SSTORE PUSH2 0xA69 DUP1 PUSH2 0x2E PUSH0 CODECOPY PUSH0 RETURN INVALID PUSH1 0x80 PUSH1 0x40 MSTORE CALLVALUE DUP1 ISZERO PUSH2 0xF JUMPI PUSH0 DUP1 REVERT JUMPDEST POP PUSH1 0x4 CALLDATASIZE LT PUSH2 0x64 JUMPI PUSH0 CALLDATALOAD PUSH1 0xE0 SHR DUP1 PUSH4 0x8DA5CB5B GT PUSH2 0x4D JUMPI DUP1 PUSH4 0x8DA5CB5B EQ PUSH2 0x90 JUMPI DUP1 PUSH4 0x9E97D739 EQ PUSH2 0xBE JUMPI DUP1 PUSH4 0xA67A117B EQ PUSH2 0xD1 JUMPI PUSH0 DUP1 REVERT JUMPDEST DUP1 PUSH4 0x13732D79 EQ PUSH2 0x68 JUMPI DUP1 PUSH4 0x7A26DD31 EQ PUSH2 0x7D JUMPI JUMPDEST PUSH0 DUP1 REVERT JUMPDEST PUSH2 0x7B PUSH2 0x76 CALLDATASIZE PUSH1 0x4 PUSH2 0x5AA JUMP JUMPDEST PUSH2 0xE4 JUMP JUMPDEST STOP JUMPDEST PUSH2 0x7B PUSH2 0x8B CALLDATASIZE PUSH1 0x4 PUSH2 0x62D JUMP JUMPDEST PUSH2 0x123 JUMP JUMPDEST PUSH0 SLOAD PUSH2 0xA2 SWAP1 PUSH1 0x1 PUSH1 0x1 PUSH1 0xA0 SHL SUB AND DUP2 JUMP JUMPDEST PUSH1 0x40 MLOAD PUSH1 0x1 PUSH1 0x1 PUSH1 0xA0 SHL SUB SWAP1 SWAP2 AND DUP2 MSTORE PUSH1 0x20 ADD PUSH1 0x40 MLOAD DUP1 SWAP2 SUB SWAP1 RETURN JUMPDEST PUSH2 0x7B PUSH2 0xCC CALLDATASIZE PUSH1 0x4 PUSH2 0x65D JUMP JUMPDEST PUSH2 0x164 JUMP JUMPDEST PUSH2 0x7B PUSH2 0xDF CALLDATASIZE PUSH1 0x4 PUSH2 0x72D JUMP JUMPDEST PUSH2 0x400 JUMP JUMPDEST DUP2 PUSH32 0xDBBC48772584850C2086F66C22A3654C9E46524FF539FD9D72198D91CB7C13C0 DUP5 DUP4 PUSH1 0x40 MLOAD PUSH2 0x116 SWAP3 SWAP2 SWAP1 PUSH2 0x79A JUMP JUMPDEST PUSH1 0x40 MLOAD DUP1 SWAP2 SUB SWAP1 LOG2 POP POP POP JUMP JUMPDEST PUSH1 0x40 DUP1 MLOAD PUSH1 0x1 PUSH1 0x1 PUSH1 0xA0 SHL SUB DUP6 AND DUP2 MSTORE PUSH1 0x20 DUP2 ADD DUP4 SWAP1 MSTORE DUP4 SWAP2 PUSH32 0xCB87DF07B1C304492BD875A5C8B98672ECA500939412809EA229AFEF1D745188 SWAP2 ADD PUSH2 0x116 JUMP JUMPDEST PUSH0 JUMPDEST DUP5 DUP2 LT ISZERO PUSH2 0x3F8 JUMPI PUSH0 DUP7 DUP7 DUP4 DUP2 DUP2 LT PUSH2 0x181 JUMPI PUSH2 0x181 PUSH2 0x7C7 JUMP JUMPDEST PUSH2 0x197 SWAP3 PUSH1 0x20 PUSH1 0x60 SWAP1 SWAP3 MUL ADD SWAP1 DUP2 ADD SWAP2 POP PUSH2 0x72D JUMP JUMPDEST PUSH1 0x1 PUSH1 0x1 PUSH1 0xA0 SHL SUB AND SUB PUSH2 0x25F JUMPI PUSH1 0x1 PUSH1 0x1 PUSH1 0xA0 SHL SUB DUP5 AND PUSH2 0x200 JUMPI PUSH1 0x40 MLOAD PUSH3 0x461BCD PUSH1 0xE5 SHL DUP2 MSTORE PUSH1 0x20 PUSH1 0x4 DUP3 ADD MSTORE PUSH1 0x1A PUSH1 0x24 DUP3 ADD MSTORE PUSH32 0x496E76616C696420696E697469616C697A652061646472657373000000000000 PUSH1 0x44 DUP3 ADD MSTORE PUSH1 0x64 ADD JUMPDEST PUSH1 0x40 MLOAD DUP1 SWAP2 SUB SWAP1 REVERT JUMPDEST DUP4 PUSH1 0x1 PUSH1 0x1 PUSH1 0xA0 SHL SUB AND DUP4 DUP4 PUSH1 0x40 MLOAD PUSH2 0x21A SWAP3 SWAP2 SWAP1 PUSH2 0x7DB JUMP JUMPDEST PUSH0 PUSH1 0x40 MLOAD DUP1 DUP4 SUB DUP2 DUP6 GAS DELEGATECALL SWAP2 POP POP RETURNDATASIZE DUP1 PUSH0 DUP2 EQ PUSH2 0x252 JUMPI PUSH1 0x40 MLOAD SWAP2 POP PUSH1 0x1F NOT PUSH1 0x3F RETURNDATASIZE ADD AND DUP3 ADD PUSH1 0x40 MSTORE RETURNDATASIZE DUP3 MSTORE RETURNDATASIZE PUSH0 PUSH1 0x20 DUP5 ADD RETURNDATACOPY PUSH2 0x257 JUMP JUMPDEST PUSH1 0x60 SWAP2 POP JUMPDEST POP POP POP PUSH2 0x3F0 JUMP JUMPDEST PUSH0 DUP7 DUP7 DUP4 DUP2 DUP2 LT PUSH2 0x272 JUMPI PUSH2 0x272 PUSH2 0x7C7 JUMP JUMPDEST PUSH2 0x288 SWAP3 PUSH1 0x20 PUSH1 0x60 SWAP1 SWAP3 MUL ADD SWAP1 DUP2 ADD SWAP2 POP PUSH2 0x72D JUMP JUMPDEST PUSH1 0x1 PUSH1 0x1 PUSH1 0xA0 SHL SUB AND DUP8 DUP8 DUP5 DUP2 DUP2 LT PUSH2 0x2A3 JUMPI PUSH2 0x2A3 PUSH2 0x7C7 JUMP JUMPDEST SWAP1 POP PUSH1 0x60 MUL ADD PUSH1 0x40 ADD PUSH1 0x20 DUP2 ADD SWAP1 PUSH2 0x2BB SWAP2 SWAP1 PUSH2 0x801 JUMP JUMPDEST DUP9 DUP9 DUP6 DUP2 DUP2 LT PUSH2 0x2CD JUMPI PUSH2 0x2CD PUSH2 0x7C7 JUMP JUMPDEST SWAP1 POP PUSH1 0x60 MUL ADD PUSH0 DUP8 DUP8 PUSH1 0x40 MLOAD PUSH1 0x20 ADD PUSH2 0x2E9 SWAP5 SWAP4 SWAP3 SWAP2 SWAP1 PUSH2 0x8B4 JUMP JUMPDEST PUSH1 0x40 DUP1 MLOAD PUSH1 0x1F NOT DUP2 DUP5 SUB ADD DUP2 MSTORE SWAP1 DUP3 SWAP1 MSTORE PUSH2 0x307 SWAP3 SWAP2 PUSH1 0x20 ADD PUSH2 0x8ED JUMP JUMPDEST PUSH1 0x40 DUP1 MLOAD PUSH1 0x1F NOT DUP2 DUP5 SUB ADD DUP2 MSTORE SWAP1 DUP3 SWAP1 MSTORE PUSH2 0x321 SWAP2 PUSH2 0x91C JUMP JUMPDEST PUSH0 PUSH1 0x40 MLOAD DUP1 DUP4 SUB DUP2 DUP6 GAS DELEGATECALL SWAP2 POP POP RETURNDATASIZE DUP1 PUSH0 DUP2 EQ PUSH2 0x359 JUMPI PUSH1 0x40 MLOAD SWAP2 POP PUSH1 0x1F NOT PUSH1 0x3F RETURNDATASIZE ADD AND DUP3 ADD PUSH1 0x40 MSTORE RETURNDATASIZE DUP3 MSTORE RETURNDATASIZE PUSH0 PUSH1 0x20 DUP5 ADD RETURNDATACOPY PUSH2 0x35E JUMP JUMPDEST PUSH1 0x60 SWAP2 POP JUMPDEST POP POP SWAP1 POP DUP1 PUSH2 0x3AF JUMPI PUSH1 0x40 MLOAD PUSH3 0x461BCD PUSH1 0xE5 SHL DUP2 MSTORE PUSH1 0x20 PUSH1 0x4 DUP3 ADD MSTORE PUSH1 0x19 PUSH1 0x24 DUP3 ADD MSTORE PUSH32 0x4661636574206D6F64696669636174696F6E206661696C656400000000000000 PUSH1 0x44 DUP3 ADD MSTORE PUSH1 0x64 ADD PUSH2 0x1F7 JUMP JUMPDEST PUSH32 0xEE80746E1D76A7C4654E1A9D2FF0DDE8304B0D72803A25EB48C89FD6EAE7EBE8 DUP8 DUP8 DUP8 DUP8 DUP8 PUSH1 0x40 MLOAD PUSH2 0x3E6 SWAP6 SWAP5 SWAP4 SWAP3 SWAP2 SWAP1 PUSH2 0x937 JUMP JUMPDEST PUSH1 0x40 MLOAD DUP1 SWAP2 SUB SWAP1 LOG1 POP JUMPDEST PUSH1 0x1 ADD PUSH2 0x166 JUMP JUMPDEST POP POP POP POP POP POP JUMP JUMPDEST PUSH1 0x40 DUP1 MLOAD PUSH1 0x1 DUP1 DUP3 MSTORE DUP2 DUP4 ADD SWAP1 SWAP3 MSTORE PUSH0 SWAP2 DUP2 PUSH1 0x20 ADD JUMPDEST PUSH1 0x40 DUP1 MLOAD PUSH1 0x60 DUP2 ADD DUP3 MSTORE PUSH0 DUP1 DUP3 MSTORE PUSH1 0x20 DUP1 DUP4 ADD DUP3 SWAP1 MSTORE SWAP3 DUP3 ADD MSTORE DUP3 MSTORE PUSH0 NOT SWAP1 SWAP3 ADD SWAP2 ADD DUP2 PUSH2 0x416 JUMPI SWAP1 POP POP PUSH1 0x40 DUP1 MLOAD PUSH1 0x60 DUP2 ADD SWAP1 SWAP2 MSTORE PUSH1 0x1 PUSH1 0x1 PUSH1 0xA0 SHL SUB DUP5 AND DUP2 MSTORE SWAP1 SWAP2 POP PUSH1 0x20 DUP2 ADD PUSH0 DUP2 MSTORE PUSH32 0xFCCC64D400000000000000000000000000000000000000000000000000000000 PUSH1 0x20 SWAP1 SWAP2 ADD MSTORE DUP2 MLOAD DUP3 SWAP1 PUSH0 SWAP1 PUSH2 0x49B JUMPI PUSH2 0x49B PUSH2 0x7C7 JUMP JUMPDEST PUSH1 0x20 SWAP1 DUP2 MUL SWAP2 SWAP1 SWAP2 ADD ADD MSTORE PUSH1 0x40 MLOAD PUSH32 0x9E97D73900000000000000000000000000000000000000000000000000000000 DUP2 MSTORE ADDRESS SWAP1 PUSH4 0x9E97D739 SWAP1 PUSH2 0x4E4 SWAP1 DUP5 SWAP1 PUSH0 SWAP1 PUSH1 0x4 ADD PUSH2 0x99E JUMP JUMPDEST PUSH0 PUSH1 0x40 MLOAD DUP1 DUP4 SUB DUP2 PUSH0 DUP8 DUP1 EXTCODESIZE ISZERO DUP1 ISZERO PUSH2 0x4FB JUMPI PUSH0 DUP1 REVERT JUMPDEST POP GAS CALL ISZERO DUP1 ISZERO PUSH2 0x3F8 JUMPI RETURNDATASIZE PUSH0 DUP1 RETURNDATACOPY RETURNDATASIZE PUSH0 REVERT JUMPDEST PUSH4 0x4E487B71 PUSH1 0xE0 SHL PUSH0 MSTORE PUSH1 0x41 PUSH1 0x4 MSTORE PUSH1 0x24 PUSH0 REVERT JUMPDEST PUSH0 DUP3 PUSH1 0x1F DUP4 ADD SLT PUSH2 0x530 JUMPI PUSH0 DUP1 REVERT JUMPDEST DUP2 CALLDATALOAD PUSH8 0xFFFFFFFFFFFFFFFF DUP1 DUP3 GT ISZERO PUSH2 0x54B JUMPI PUSH2 0x54B PUSH2 0x50D JUMP JUMPDEST PUSH1 0x40 MLOAD PUSH1 0x1F DUP4 ADD PUSH1 0x1F NOT SWAP1 DUP2 AND PUSH1 0x3F ADD AND DUP2 ADD SWAP1 DUP3 DUP3 GT DUP2 DUP4 LT OR ISZERO PUSH2 0x573 JUMPI PUSH2 0x573 PUSH2 0x50D JUMP JUMPDEST DUP2 PUSH1 0x40 MSTORE DUP4 DUP2 MSTORE DUP7 PUSH1 0x20 DUP6 DUP9 ADD ADD GT ISZERO PUSH2 0x58B JUMPI PUSH0 DUP1 REVERT JUMPDEST DUP4 PUSH1 0x20 DUP8 ADD PUSH1 0x20 DUP4 ADD CALLDATACOPY PUSH0 PUSH1 0x20 DUP6 DUP4 ADD ADD MSTORE DUP1 SWAP5 POP POP POP POP POP SWAP3 SWAP2 POP POP JUMP JUMPDEST PUSH0 DUP1 PUSH0 PUSH1 0x60 DUP5 DUP7 SUB SLT ISZERO PUSH2 0x5BC JUMPI PUSH0 DUP1 REVERT JUMPDEST DUP4 CALLDATALOAD PUSH8 0xFFFFFFFFFFFFFFFF DUP1 DUP3 GT ISZERO PUSH2 0x5D3 JUMPI PUSH0 DUP1 REVERT JUMPDEST PUSH2 0x5DF DUP8 DUP4 DUP9 ADD PUSH2 0x521 JUMP JUMPDEST SWAP5 POP PUSH1 0x20 DUP7 ADD CALLDATALOAD SWAP4 POP PUSH1 0x40 DUP7 ADD CALLDATALOAD SWAP2 POP DUP1 DUP3 GT ISZERO PUSH2 0x5FB JUMPI PUSH0 DUP1 REVERT JUMPDEST POP PUSH2 0x608 DUP7 DUP3 DUP8 ADD PUSH2 0x521 JUMP JUMPDEST SWAP2 POP POP SWAP3 POP SWAP3 POP SWAP3 JUMP JUMPDEST DUP1 CALLDATALOAD PUSH1 0x1 PUSH1 0x1 PUSH1 0xA0 SHL SUB DUP2 AND DUP2 EQ PUSH2 0x628 JUMPI PUSH0 DUP1 REVERT JUMPDEST SWAP2 SWAP1 POP JUMP JUMPDEST PUSH0 DUP1 PUSH0 PUSH1 0x60 DUP5 DUP7 SUB SLT ISZERO PUSH2 0x63F JUMPI PUSH0 DUP1 REVERT JUMPDEST PUSH2 0x648 DUP5 PUSH2 0x612 JUMP JUMPDEST SWAP6 PUSH1 0x20 DUP6 ADD CALLDATALOAD SWAP6 POP PUSH1 0x40 SWAP1 SWAP5 ADD CALLDATALOAD SWAP4 SWAP3 POP POP POP JUMP JUMPDEST PUSH0 DUP1 PUSH0 DUP1 PUSH0 PUSH1 0x60 DUP7 DUP9 SUB SLT ISZERO PUSH2 0x671 JUMPI PUSH0 DUP1 REVERT JUMPDEST DUP6 CALLDATALOAD PUSH8 0xFFFFFFFFFFFFFFFF DUP1 DUP3 GT ISZERO PUSH2 0x688 JUMPI PUSH0 DUP1 REVERT JUMPDEST DUP2 DUP9 ADD SWAP2 POP DUP9 PUSH1 0x1F DUP4 ADD SLT PUSH2 0x69B JUMPI PUSH0 DUP1 REVERT JUMPDEST DUP2 CALLDATALOAD DUP2 DUP2 GT ISZERO PUSH2 0x6A9 JUMPI PUSH0 DUP1 REVERT JUMPDEST DUP10 PUSH1 0x20 PUSH1 0x60 DUP4 MUL DUP6 ADD ADD GT ISZERO PUSH2 0x6BD JUMPI PUSH0 DUP1 REVERT JUMPDEST PUSH1 0x20 DUP4 ADD SWAP8 POP DUP1 SWAP7 POP POP PUSH2 0x6D3 PUSH1 0x20 DUP10 ADD PUSH2 0x612 JUMP JUMPDEST SWAP5 POP PUSH1 0x40 DUP9 ADD CALLDATALOAD SWAP2 POP DUP1 DUP3 GT ISZERO PUSH2 0x6E8 JUMPI PUSH0 DUP1 REVERT JUMPDEST DUP2 DUP9 ADD SWAP2 POP DUP9 PUSH1 0x1F DUP4 ADD SLT PUSH2 0x6FB JUMPI PUSH0 DUP1 REVERT JUMPDEST DUP2 CALLDATALOAD DUP2 DUP2 GT ISZERO PUSH2 0x709 JUMPI PUSH0 DUP1 REVERT JUMPDEST DUP10 PUSH1 0x20 DUP3 DUP6 ADD ADD GT ISZERO PUSH2 0x71A JUMPI PUSH0 DUP1 REVERT JUMPDEST SWAP7 SWAP10 SWAP6 SWAP9 POP SWAP4 SWAP7 POP PUSH1 0x20 ADD SWAP5 SWAP4 SWAP3 POP POP POP JUMP JUMPDEST PUSH0 PUSH1 0x20 DUP3 DUP5 SUB SLT ISZERO PUSH2 0x73D JUMPI PUSH0 DUP1 REVERT JUMPDEST PUSH2 0x746 DUP3 PUSH2 0x612 JUMP JUMPDEST SWAP4 SWAP3 POP POP POP JUMP JUMPDEST PUSH0 JUMPDEST DUP4 DUP2 LT ISZERO PUSH2 0x767 JUMPI DUP2 DUP2 ADD MLOAD DUP4 DUP3 ADD MSTORE PUSH1 0x20 ADD PUSH2 0x74F JUMP JUMPDEST POP POP PUSH0 SWAP2 ADD MSTORE JUMP JUMPDEST PUSH0 DUP2 MLOAD DUP1 DUP5 MSTORE PUSH2 0x786 DUP2 PUSH1 0x20 DUP7 ADD PUSH1 0x20 DUP7 ADD PUSH2 0x74D JUMP JUMPDEST PUSH1 0x1F ADD PUSH1 0x1F NOT AND SWAP3 SWAP1 SWAP3 ADD PUSH1 0x20 ADD SWAP3 SWAP2 POP POP JUMP JUMPDEST PUSH1 0x40 DUP2 MSTORE PUSH0 PUSH2 0x7AC PUSH1 0x40 DUP4 ADD DUP6 PUSH2 0x76F JUMP JUMPDEST DUP3 DUP2 SUB PUSH1 0x20 DUP5 ADD MSTORE PUSH2 0x7BE DUP2 DUP6 PUSH2 0x76F JUMP JUMPDEST SWAP6 SWAP5 POP POP POP POP POP JUMP JUMPDEST PUSH4 0x4E487B71 PUSH1 0xE0 SHL PUSH0 MSTORE PUSH1 0x32 PUSH1 0x4 MSTORE PUSH1 0x24 PUSH0 REVERT JUMPDEST DUP2 DUP4 DUP3 CALLDATACOPY PUSH0 SWAP2 ADD SWAP1 DUP2 MSTORE SWAP2 SWAP1 POP JUMP JUMPDEST DUP1 CALLDATALOAD PUSH1 0x1 PUSH1 0x1 PUSH1 0xE0 SHL SUB NOT DUP2 AND DUP2 EQ PUSH2 0x628 JUMPI PUSH0 DUP1 REVERT JUMPDEST PUSH0 PUSH1 0x20 DUP3 DUP5 SUB SLT ISZERO PUSH2 0x811 JUMPI PUSH0 DUP1 REVERT JUMPDEST PUSH2 0x746 DUP3 PUSH2 0x7EA JUMP JUMPDEST PUSH1 0x3 DUP2 LT PUSH2 0x836 JUMPI PUSH4 0x4E487B71 PUSH1 0xE0 SHL PUSH0 MSTORE PUSH1 0x21 PUSH1 0x4 MSTORE PUSH1 0x24 PUSH0 REVERT JUMPDEST SWAP1 MSTORE JUMP JUMPDEST PUSH1 0x1 PUSH1 0x1 PUSH1 0xA0 SHL SUB PUSH2 0x84B DUP3 PUSH2 0x612 JUMP JUMPDEST AND DUP3 MSTORE PUSH1 0x20 DUP2 ADD CALLDATALOAD PUSH1 0x3 DUP2 LT PUSH2 0x85F JUMPI PUSH0 DUP1 REVERT JUMPDEST PUSH2 0x86C PUSH1 0x20 DUP5 ADD DUP3 PUSH2 0x81A JUMP JUMPDEST POP PUSH1 0x1 PUSH1 0x1 PUSH1 0xE0 SHL SUB NOT PUSH2 0x882 PUSH1 0x40 DUP4 ADD PUSH2 0x7EA JUMP JUMPDEST AND PUSH1 0x40 DUP4 ADD MSTORE POP POP JUMP JUMPDEST DUP2 DUP4 MSTORE DUP2 DUP2 PUSH1 0x20 DUP6 ADD CALLDATACOPY POP PUSH0 DUP3 DUP3 ADD PUSH1 0x20 SWAP1 DUP2 ADD SWAP2 SWAP1 SWAP2 MSTORE PUSH1 0x1F SWAP1 SWAP2 ADD PUSH1 0x1F NOT AND SWAP1 SWAP2 ADD ADD SWAP1 JUMP JUMPDEST PUSH2 0x8BE DUP2 DUP7 PUSH2 0x83A JUMP JUMPDEST PUSH1 0x1 PUSH1 0x1 PUSH1 0xA0 SHL SUB DUP5 AND PUSH1 0x60 DUP3 ADD MSTORE PUSH1 0xA0 PUSH1 0x80 DUP3 ADD MSTORE PUSH0 PUSH2 0x8E3 PUSH1 0xA0 DUP4 ADD DUP5 DUP7 PUSH2 0x88C JUMP JUMPDEST SWAP7 SWAP6 POP POP POP POP POP POP JUMP JUMPDEST PUSH1 0x1 PUSH1 0x1 PUSH1 0xE0 SHL SUB NOT DUP4 AND DUP2 MSTORE PUSH0 DUP3 MLOAD PUSH2 0x90E DUP2 PUSH1 0x4 DUP6 ADD PUSH1 0x20 DUP8 ADD PUSH2 0x74D JUMP JUMPDEST SWAP2 SWAP1 SWAP2 ADD PUSH1 0x4 ADD SWAP4 SWAP3 POP POP POP JUMP JUMPDEST PUSH0 DUP3 MLOAD PUSH2 0x92D DUP2 DUP5 PUSH1 0x20 DUP8 ADD PUSH2 0x74D JUMP JUMPDEST SWAP2 SWAP1 SWAP2 ADD SWAP3 SWAP2 POP POP JUMP JUMPDEST PUSH1 0x60 DUP1 DUP3 MSTORE DUP2 DUP2 ADD DUP7 SWAP1 MSTORE PUSH0 SWAP1 DUP8 PUSH1 0x80 DUP5 ADD DUP4 JUMPDEST DUP10 DUP2 LT ISZERO PUSH2 0x96D JUMPI PUSH2 0x95D DUP3 DUP5 PUSH2 0x83A JUMP JUMPDEST SWAP2 DUP4 ADD SWAP2 SWAP1 DUP4 ADD SWAP1 PUSH1 0x1 ADD PUSH2 0x94B JUMP JUMPDEST POP PUSH1 0x1 PUSH1 0x1 PUSH1 0xA0 SHL SUB DUP9 AND PUSH1 0x20 DUP7 ADD MSTORE DUP5 DUP2 SUB PUSH1 0x40 DUP7 ADD MSTORE PUSH2 0x990 DUP2 DUP8 DUP10 PUSH2 0x88C JUMP JUMPDEST SWAP11 SWAP10 POP POP POP POP POP POP POP POP POP POP JUMP JUMPDEST PUSH1 0x60 DUP1 DUP3 MSTORE DUP4 MLOAD DUP3 DUP3 ADD DUP2 SWAP1 MSTORE PUSH0 SWAP2 SWAP1 PUSH1 0x20 SWAP1 PUSH1 0x80 DUP6 ADD SWAP1 DUP3 DUP9 ADD DUP6 JUMPDEST DUP3 DUP2 LT ISZERO PUSH2 0xA07 JUMPI DUP2 MLOAD PUSH1 0x1 PUSH1 0x1 PUSH1 0xA0 SHL SUB DUP2 MLOAD AND DUP6 MSTORE DUP6 DUP2 ADD MLOAD PUSH2 0x9E2 DUP8 DUP8 ADD DUP3 PUSH2 0x81A JUMP JUMPDEST POP PUSH1 0x40 SWAP1 DUP2 ADD MLOAD PUSH1 0x1 PUSH1 0x1 PUSH1 0xE0 SHL SUB NOT AND SWAP1 DUP6 ADD MSTORE SWAP3 DUP6 ADD SWAP3 SWAP1 DUP5 ADD SWAP1 PUSH1 0x1 ADD PUSH2 0x9BB JUMP JUMPDEST POP POP POP PUSH1 0x1 PUSH1 0x1 PUSH1 0xA0 SHL SUB DUP7 AND PUSH1 0x20 DUP7 ADD MSTORE DUP5 DUP2 SUB PUSH1 0x40 DUP7 ADD MSTORE PUSH0 DUP2 MSTORE PUSH1 0x20 DUP2 ADD SWAP8 SWAP7 POP POP POP POP POP POP POP JUMP INVALID LOG2 PUSH5 0x6970667358 0x22 SLT KECCAK256 PUSH21 0x3C7C2C1D50081F7F3F6F1A1E93DF7B075A63CFC931 0xB2 SWAP7 0xA5 DUP7 0x4C 0x22 DUP10 SWAP6 PUSH32 0xB864736F6C634300081800330000000000000000000000000000000000000000 "
				},
				"gasEstimates": {
					"creation": {
						"codeDepositCost": "533000",
						"executionCost": "24800",
						"totalCost": "557800"
					},
					"external": {
						"addCandidateDetails(string,uint256,string)": "infinite",
						"addFacet(address)": "infinite",
						"addVoterDetails(address,uint256,uint256)": "2114",
						"diamondCut((address,uint8,bytes4)[],address,bytes)": "infinite",
						"owner()": "2323"
					}
				},
				"methodIdentifiers": {
					"addCandidateDetails(string,uint256,string)": "13732d79",
					"addFacet(address)": "a67a117b",
					"addVoterDetails(address,uint256,uint256)": "7a26dd31",
					"diamondCut((address,uint8,bytes4)[],address,bytes)": "9e97d739",
					"owner()": "8da5cb5b"
				}
			},
			"storageLayout": {
				"storage": [
					{
						"astId": 3916,
						"contract": "Eip2535/EIp2535Diamond.sol:Eip2535Diamond",
						"label": "owner",
						"offset": 0,
						"slot": "0",
						"type": "t_address"
					}
				],
				"types": {
					"t_address": {
						"encoding": "inplace",
						"label": "address",
						"numberOfBytes": "20"
					}
				}
			},
			"userdoc": {
				"kind": "user",
				"methods": {},
				"version": 1
			}
		}
	}
}