{
	"Eip2535/DiamondC.sol": {
		"Diamond": {
			"abi": [
				{
					"inputs": [],
					"stateMutability": "nonpayable",
					"type": "constructor"
				},
				{
					"inputs": [],
					"name": "cut",
					"outputs": [],
					"stateMutability": "nonpayable",
					"type": "function"
				},
				{
					"inputs": [],
					"name": "facets",
					"outputs": [
						{
							"internalType": "address[]",
							"name": "",
							"type": "address[]"
						}
					],
					"stateMutability": "view",
					"type": "function"
				},
				{
					"inputs": [
						{
							"internalType": "bytes4",
							"name": "_selector",
							"type": "bytes4"
						}
					],
					"name": "getFacet",
					"outputs": [
						{
							"internalType": "address",
							"name": "",
							"type": "address"
						}
					],
					"stateMutability": "view",
					"type": "function"
				}
			],
			"devdoc": {
				"kind": "dev",
				"methods": {},
				"version": 1
			},
			"evm": {
				"assembly": "    /* \"Eip2535/DiamondC.sol\":247:1142  contract Diamond is IDiamond {... */\n  mstore(0x40, 0x80)\n    /* \"Eip2535/DiamondC.sol\":369:691  constructor() {... */\n  callvalue\n  dup1\n  iszero\n  tag_1\n  jumpi\n  0x00\n  dup1\n  revert\ntag_1:\n  pop\n    /* \"Eip2535/DiamondC.sol\":523:539  new TradeFacet() */\n  mload(0x40)\n  tag_4\n  swap1\n  tag_5\n  jump\t// in\ntag_4:\n  mload(0x40)\n  dup1\n  swap2\n  sub\n  swap1\n  0x00\n  create\n  dup1\n  iszero\n  dup1\n  iszero\n  tag_6\n  jumpi\n  returndatasize\n  0x00\n  dup1\n  returndatacopy\n  revert(0x00, returndatasize)\ntag_6:\n  pop\n  shl(0xe2, 0x39bf5813)\n    /* \"Eip2535/DiamondC.sol\":470:512  facetToAddress[bytes4(keccak256(\"cut()\"))] */\n  0x00\n  mstore\n    /* \"Eip2535/DiamondC.sol\":470:484  facetToAddress */\n  0x01\n    /* \"Eip2535/DiamondC.sol\":470:512  facetToAddress[bytes4(keccak256(\"cut()\"))] */\n  0x20\n  mstore\n  0x910e72d85c5dc1c93347e0c7a16ee1b62b45b0c240ef97cdf7dcd0a1f6a8a1c9\n    /* \"Eip2535/DiamondC.sol\":470:540  facetToAddress[bytes4(keccak256(\"cut()\"))] = address(new TradeFacet()) */\n  dup1\n  sload\n  not(sub(shl(0xa0, 0x01), 0x01))\n  and\n  sub(shl(0xa0, 0x01), 0x01)\n  swap3\n  swap1\n  swap3\n  and\n  swap2\n  swap1\n  swap2\n  or\n  swap1\n  sstore\n    /* \"Eip2535/DiamondC.sol\":470:512  facetToAddress[bytes4(keccak256(\"cut()\"))] */\n  0x40\n    /* \"Eip2535/DiamondC.sol\":606:627  new GovernanceFacet() */\n  mload\n  tag_7\n  swap1\n  tag_8\n  jump\t// in\ntag_7:\n  mload(0x40)\n  dup1\n  swap2\n  sub\n  swap1\n  0x00\n  create\n  dup1\n  iszero\n  dup1\n  iszero\n  tag_9\n  jumpi\n  returndatasize\n  0x00\n  dup1\n  returndatacopy\n  revert(0x00, returndatasize)\ntag_9:\n  pop\n  shl(0xe0, 0x7a0ed627)\n    /* \"Eip2535/DiamondC.sol\":550:595  facetToAddress[bytes4(keccak256(\"facets()\"))] */\n  0x00\n  mstore\n    /* \"Eip2535/DiamondC.sol\":550:564  facetToAddress */\n  0x01\n    /* \"Eip2535/DiamondC.sol\":550:595  facetToAddress[bytes4(keccak256(\"facets()\"))] */\n  0x20\n  mstore\n  0xc347c6416d11a7124fbf91167f5a9b61c9ee63e7f57f7dc72e64835b644ba8a5\n    /* \"Eip2535/DiamondC.sol\":550:628  facetToAddress[bytes4(keccak256(\"facets()\"))] = address(new GovernanceFacet()) */\n  dup1\n  sload\n  not(sub(shl(0xa0, 0x01), 0x01))\n  and\n  sub(shl(0xa0, 0x01), 0x01)\n  swap3\n  swap1\n  swap3\n  and\n  swap2\n  swap1\n  swap2\n  or\n  swap1\n  sstore\n    /* \"Eip2535/DiamondC.sol\":247:1142  contract Diamond is IDiamond {... */\n  jump(tag_10)\ntag_5:\n  dataSize(sub_1)\n  dup1\n  dataOffset(sub_1)\n  dup4\n  codecopy\n  add\n  swap1\n  jump\t// out\ntag_8:\n  dataSize(sub_2)\n  dup1\n  dataOffset(sub_2)\n  dup4\n  codecopy\n  add\n  swap1\n  jump\t// out\ntag_10:\n  dataSize(sub_0)\n  dup1\n  dataOffset(sub_0)\n  0x00\n  codecopy\n  0x00\n  return\nstop\n\nsub_0: assembly {\n        /* \"Eip2535/DiamondC.sol\":247:1142  contract Diamond is IDiamond {... */\n      mstore(0x40, 0x80)\n      callvalue\n      dup1\n      iszero\n      tag_1\n      jumpi\n      0x00\n      dup1\n      revert\n    tag_1:\n      pop\n      jumpi(tag_2, lt(calldatasize, 0x04))\n      shr(0xe0, calldataload(0x00))\n      dup1\n      0x112b6a67\n      eq\n      tag_3\n      jumpi\n      dup1\n      0x7a0ed627\n      eq\n      tag_4\n      jumpi\n      dup1\n      0xe6fd604c\n      eq\n      tag_5\n      jumpi\n    tag_2:\n      0x00\n      dup1\n      revert\n        /* \"Eip2535/DiamondC.sol\":905:1140  function getFacet(bytes4 _selector) external view override returns (address) {... */\n    tag_3:\n      tag_6\n      tag_7\n      calldatasize\n      0x04\n      tag_8\n      jump\t// in\n    tag_7:\n      tag_9\n      jump\t// in\n    tag_6:\n      mload(0x40)\n      sub(shl(0xa0, 0x01), 0x01)\n        /* \"#utility.yul\":515:570   */\n      swap1\n      swap2\n      and\n        /* \"#utility.yul\":497:571   */\n      dup2\n      mstore\n        /* \"#utility.yul\":485:487   */\n      0x20\n        /* \"#utility.yul\":470:488   */\n      add\n        /* \"Eip2535/DiamondC.sol\":905:1140  function getFacet(bytes4 _selector) external view override returns (address) {... */\n    tag_10:\n      mload(0x40)\n      dup1\n      swap2\n      sub\n      swap1\n      return\n        /* \"Eip2535/DiamondC.sol\":800:899  function facets() external view override returns (address[] memory) {... */\n    tag_4:\n      tag_12\n      tag_13\n      jump\t// in\n    tag_12:\n      mload(0x40)\n      tag_10\n      swap2\n      swap1\n      tag_15\n      jump\t// in\n        /* \"Eip2535/DiamondC.sol\":697:794  function cut() external {... */\n    tag_5:\n      tag_16\n        /* \"Eip2535/DiamondC.sol\":744:758  facetToAddress */\n      0x01\n        /* \"Eip2535/DiamondC.sol\":744:786  facetToAddress[bytes4(keccak256(\"cut()\"))] */\n      0x20\n      dup2\n      swap1\n      mstore\n      sload(0x910e72d85c5dc1c93347e0c7a16ee1b62b45b0c240ef97cdf7dcd0a1f6a8a1c9)\n        /* \"Eip2535/DiamondC.sol\":731:738  _facets */\n      0x00\n        /* \"Eip2535/DiamondC.sol\":731:787  _facets.push(facetToAddress[bytes4(keccak256(\"cut()\"))]) */\n      dup1\n      sload\n      swap3\n      dup4\n      add\n      dup2\n      sstore\n      dup1\n      mstore\n      0x290decd9548b62a8d60345a988386fc84ba6bc95484008f6362f93160ef3e563\n      swap1\n      swap2\n      add\n      dup1\n      sload\n      0xffffffffffffffffffffffff0000000000000000000000000000000000000000\n      and\n      sub(shl(0xa0, 0x01), 0x01)\n        /* \"Eip2535/DiamondC.sol\":744:786  facetToAddress[bytes4(keccak256(\"cut()\"))] */\n      swap1\n      swap3\n      and\n        /* \"Eip2535/DiamondC.sol\":731:787  _facets.push(facetToAddress[bytes4(keccak256(\"cut()\"))]) */\n      swap2\n      swap1\n      swap2\n      or\n      swap1\n      sstore\n        /* \"Eip2535/DiamondC.sol\":697:794  function cut() external {... */\n      jump\n    tag_16:\n      stop\n        /* \"Eip2535/DiamondC.sol\":905:1140  function getFacet(bytes4 _selector) external view override returns (address) {... */\n    tag_9:\n        /* \"Eip2535/DiamondC.sol\":1015:1040  facetToAddress[_selector] */\n      0xffffffff00000000000000000000000000000000000000000000000000000000\n      dup2\n      and\n        /* \"Eip2535/DiamondC.sol\":973:980  address */\n      0x00\n        /* \"Eip2535/DiamondC.sol\":1015:1040  facetToAddress[_selector] */\n      swap1\n      dup2\n      mstore\n        /* \"Eip2535/DiamondC.sol\":1015:1029  facetToAddress */\n      0x01\n        /* \"Eip2535/DiamondC.sol\":1015:1040  facetToAddress[_selector] */\n      0x20\n      mstore\n      0x40\n      dup2\n      keccak256\n      sload\n      sub(shl(0xa0, 0x01), 0x01)\n      and\n        /* \"Eip2535/DiamondC.sol\":1058:1084  facetAddress != address(0) */\n      dup1\n        /* \"Eip2535/DiamondC.sol\":1050:1104  require(facetAddress != address(0), \"Facet not found\") */\n      tag_19\n      jumpi\n      mload(0x40)\n      0x08c379a000000000000000000000000000000000000000000000000000000000\n      dup2\n      mstore\n        /* \"#utility.yul\":1470:1472   */\n      0x20\n        /* \"Eip2535/DiamondC.sol\":1050:1104  require(facetAddress != address(0), \"Facet not found\") */\n      0x04\n      dup3\n      add\n        /* \"#utility.yul\":1452:1473   */\n      mstore\n        /* \"#utility.yul\":1509:1511   */\n      0x0f\n        /* \"#utility.yul\":1489:1507   */\n      0x24\n      dup3\n      add\n        /* \"#utility.yul\":1482:1512   */\n      mstore\n        /* \"#utility.yul\":1548:1565   */\n      0x4661636574206e6f7420666f756e640000000000000000000000000000000000\n        /* \"#utility.yul\":1528:1546   */\n      0x44\n      dup3\n      add\n        /* \"#utility.yul\":1521:1566   */\n      mstore\n        /* \"#utility.yul\":1583:1601   */\n      0x64\n      add\n        /* \"Eip2535/DiamondC.sol\":1050:1104  require(facetAddress != address(0), \"Facet not found\") */\n      mload(0x40)\n      dup1\n      swap2\n      sub\n      swap1\n      revert\n    tag_19:\n        /* \"Eip2535/DiamondC.sol\":1121:1133  facetAddress */\n      swap3\n        /* \"Eip2535/DiamondC.sol\":905:1140  function getFacet(bytes4 _selector) external view override returns (address) {... */\n      swap2\n      pop\n      pop\n      jump\t// out\n        /* \"Eip2535/DiamondC.sol\":800:899  function facets() external view override returns (address[] memory) {... */\n    tag_13:\n        /* \"Eip2535/DiamondC.sol\":850:866  address[] memory */\n      0x60\n        /* \"Eip2535/DiamondC.sol\":885:892  _facets */\n      0x00\n        /* \"Eip2535/DiamondC.sol\":878:892  return _facets */\n      dup1\n      sload\n      dup1\n      0x20\n      mul\n      0x20\n      add\n      mload(0x40)\n      swap1\n      dup2\n      add\n      0x40\n      mstore\n      dup1\n      swap3\n      swap2\n      swap1\n      dup2\n      dup2\n      mstore\n      0x20\n      add\n      dup3\n      dup1\n      sload\n      dup1\n      iszero\n      tag_23\n      jumpi\n      0x20\n      mul\n      dup3\n      add\n      swap2\n      swap1\n      0x00\n      mstore\n      keccak256(0x00, 0x20)\n      swap1\n    tag_24:\n      dup2\n      sload\n      sub(shl(0xa0, 0x01), 0x01)\n      and\n      dup2\n      mstore\n      0x01\n      swap1\n      swap2\n      add\n      swap1\n      0x20\n      add\n      dup1\n      dup4\n      gt\n      tag_24\n      jumpi\n    tag_23:\n      pop\n      pop\n      pop\n      pop\n      pop\n      swap1\n      pop\n        /* \"Eip2535/DiamondC.sol\":800:899  function facets() external view override returns (address[] memory) {... */\n      swap1\n      jump\t// out\n        /* \"#utility.yul\":14:346   */\n    tag_8:\n        /* \"#utility.yul\":72:78   */\n      0x00\n        /* \"#utility.yul\":125:127   */\n      0x20\n        /* \"#utility.yul\":113:122   */\n      dup3\n        /* \"#utility.yul\":104:111   */\n      dup5\n        /* \"#utility.yul\":100:123   */\n      sub\n        /* \"#utility.yul\":96:128   */\n      slt\n        /* \"#utility.yul\":93:145   */\n      iszero\n      tag_29\n      jumpi\n        /* \"#utility.yul\":141:142   */\n      0x00\n        /* \"#utility.yul\":138:139   */\n      dup1\n        /* \"#utility.yul\":131:143   */\n      revert\n        /* \"#utility.yul\":93:145   */\n    tag_29:\n        /* \"#utility.yul\":180:189   */\n      dup2\n        /* \"#utility.yul\":167:190   */\n      calldataload\n        /* \"#utility.yul\":230:296   */\n      0xffffffff00000000000000000000000000000000000000000000000000000000\n        /* \"#utility.yul\":223:228   */\n      dup2\n        /* \"#utility.yul\":219:297   */\n      and\n        /* \"#utility.yul\":212:217   */\n      dup2\n        /* \"#utility.yul\":209:298   */\n      eq\n        /* \"#utility.yul\":199:316   */\n      tag_30\n      jumpi\n        /* \"#utility.yul\":312:313   */\n      0x00\n        /* \"#utility.yul\":309:310   */\n      dup1\n        /* \"#utility.yul\":302:314   */\n      revert\n        /* \"#utility.yul\":199:316   */\n    tag_30:\n        /* \"#utility.yul\":335:340   */\n      swap4\n        /* \"#utility.yul\":14:346   */\n      swap3\n      pop\n      pop\n      pop\n      jump\t// out\n        /* \"#utility.yul\":582:1263   */\n    tag_15:\n        /* \"#utility.yul\":753:755   */\n      0x20\n        /* \"#utility.yul\":805:826   */\n      dup1\n      dup3\n      mstore\n        /* \"#utility.yul\":875:888   */\n      dup3\n      mload\n        /* \"#utility.yul\":778:796   */\n      dup3\n      dup3\n      add\n        /* \"#utility.yul\":897:919   */\n      dup2\n      swap1\n      mstore\n        /* \"#utility.yul\":724:728   */\n      0x00\n      swap2\n        /* \"#utility.yul\":753:755   */\n      swap1\n        /* \"#utility.yul\":976:991   */\n      dup5\n      dup3\n      add\n      swap1\n        /* \"#utility.yul\":950:952   */\n      0x40\n        /* \"#utility.yul\":935:953   */\n      dup6\n      add\n      swap1\n        /* \"#utility.yul\":724:728   */\n      dup5\n        /* \"#utility.yul\":1019:1237   */\n    tag_33:\n        /* \"#utility.yul\":1033:1039   */\n      dup2\n        /* \"#utility.yul\":1030:1031   */\n      dup2\n        /* \"#utility.yul\":1027:1040   */\n      lt\n        /* \"#utility.yul\":1019:1237   */\n      iszero\n      tag_35\n      jumpi\n        /* \"#utility.yul\":1098:1111   */\n      dup4\n      mload\n      sub(shl(0xa0, 0x01), 0x01)\n        /* \"#utility.yul\":1094:1156   */\n      and\n        /* \"#utility.yul\":1082:1157   */\n      dup4\n      mstore\n        /* \"#utility.yul\":1212:1227   */\n      swap3\n      dup5\n      add\n      swap3\n        /* \"#utility.yul\":1177:1189   */\n      swap2\n      dup5\n      add\n      swap2\n        /* \"#utility.yul\":1055:1056   */\n      0x01\n        /* \"#utility.yul\":1048:1057   */\n      add\n        /* \"#utility.yul\":1019:1237   */\n      jump(tag_33)\n    tag_35:\n      pop\n        /* \"#utility.yul\":1254:1257   */\n      swap1\n      swap7\n        /* \"#utility.yul\":582:1263   */\n      swap6\n      pop\n      pop\n      pop\n      pop\n      pop\n      pop\n      jump\t// out\n\n    auxdata: 0xa26469706673582212207d34e70d4aa0366ab86298bfba09788832b5e064de23f957564f1e81f74e3fc464736f6c63430008090033\n}\n\nsub_1: assembly {\n        /* \"Eip2535/DiamondC.sol\":1173:1291  contract TradeFacet {... */\n      mstore(0x40, 0x80)\n      callvalue\n      dup1\n      iszero\n      tag_1\n      jumpi\n      0x00\n      dup1\n      revert\n    tag_1:\n      pop\n      dataSize(sub_0)\n      dup1\n      dataOffset(sub_0)\n      0x00\n      codecopy\n      0x00\n      return\n    stop\n\n    sub_0: assembly {\n            /* \"Eip2535/DiamondC.sol\":1173:1291  contract TradeFacet {... */\n          mstore(0x40, 0x80)\n          0x00\n          dup1\n          revert\n\n        auxdata: 0xa26469706673582212204f5bf4d73af1fe2d639027d79bc46fdefd0eed069d5bf0e5819cfb66760d209164736f6c63430008090033\n    }\n}\n\nsub_2: assembly {\n        /* \"Eip2535/DiamondC.sol\":1293:1421  contract GovernanceFacet {... */\n      mstore(0x40, 0x80)\n      callvalue\n      dup1\n      iszero\n      tag_1\n      jumpi\n      0x00\n      dup1\n      revert\n    tag_1:\n      pop\n      dataSize(sub_0)\n      dup1\n      dataOffset(sub_0)\n      0x00\n      codecopy\n      0x00\n      return\n    stop\n\n    sub_0: assembly {\n            /* \"Eip2535/DiamondC.sol\":1293:1421  contract GovernanceFacet {... */\n          mstore(0x40, 0x80)\n          0x00\n          dup1\n          revert\n\n        auxdata: 0xa2646970667358221220a60002c01d596053b3d0872cc32cc939c0e6cbdf3745007cfde9a5a581e31ada64736f6c63430008090033\n    }\n}\n",
				"bytecode": {
					"linkReferences": {},
					"object": "608060405234801561001057600080fd5b5060405161001d90610106565b604051809103906000f080158015610039573d6000803e3d6000fd5b506339bf581360e21b60005260016020527f910e72d85c5dc1c93347e0c7a16ee1b62b45b0c240ef97cdf7dcd0a1f6a8a1c980546001600160a01b0319166001600160a01b039290921691909117905560405161009590610112565b604051809103906000f0801580156100b1573d6000803e3d6000fd5b50637a0ed62760e01b60005260016020527fc347c6416d11a7124fbf91167f5a9b61c9ee63e7f57f7dc72e64835b644ba8a580546001600160a01b0319166001600160a01b039290921691909117905561011e565b605c8061042683390190565b605c8061048283390190565b6102f98061012d6000396000f3fe608060405234801561001057600080fd5b50600436106100415760003560e01c8063112b6a67146100465780637a0ed62714610076578063e6fd604c1461008b575b600080fd5b61005961005436600461022d565b61011f565b6040516001600160a01b0390911681526020015b60405180910390f35b61007e6101cb565b60405161006d9190610276565b61011d600160208190527f910e72d85c5dc1c93347e0c7a16ee1b62b45b0c240ef97cdf7dcd0a1f6a8a1c95460008054928301815580527f290decd9548b62a8d60345a988386fc84ba6bc95484008f6362f93160ef3e56390910180547fffffffffffffffffffffffff0000000000000000000000000000000000000000166001600160a01b03909216919091179055565b005b7fffffffff0000000000000000000000000000000000000000000000000000000081166000908152600160205260408120546001600160a01b0316806101c5576040517f08c379a000000000000000000000000000000000000000000000000000000000815260206004820152600f60248201527f4661636574206e6f7420666f756e640000000000000000000000000000000000604482015260640160405180910390fd5b92915050565b6060600080548060200260200160405190810160405280929190818152602001828054801561022357602002820191906000526020600020905b81546001600160a01b03168152600190910190602001808311610205575b5050505050905090565b60006020828403121561023f57600080fd5b81357fffffffff000000000000000000000000000000000000000000000000000000008116811461026f57600080fd5b9392505050565b6020808252825182820181905260009190848201906040850190845b818110156102b75783516001600160a01b031683529284019291840191600101610292565b5090969550505050505056fea26469706673582212207d34e70d4aa0366ab86298bfba09788832b5e064de23f957564f1e81f74e3fc464736f6c634300080900336080604052348015600f57600080fd5b50603f80601d6000396000f3fe6080604052600080fdfea26469706673582212204f5bf4d73af1fe2d639027d79bc46fdefd0eed069d5bf0e5819cfb66760d209164736f6c634300080900336080604052348015600f57600080fd5b50603f80601d6000396000f3fe6080604052600080fdfea2646970667358221220a60002c01d596053b3d0872cc32cc939c0e6cbdf3745007cfde9a5a581e31ada64736f6c63430008090033",
					"opcodes": "PUSH1 0x80 PUSH1 0x40 MSTORE CALLVALUE DUP1 ISZERO PUSH2 0x10 JUMPI PUSH1 0x0 DUP1 REVERT JUMPDEST POP PUSH1 0x40 MLOAD PUSH2 0x1D SWAP1 PUSH2 0x106 JUMP JUMPDEST PUSH1 0x40 MLOAD DUP1 SWAP2 SUB SWAP1 PUSH1 0x0 CREATE DUP1 ISZERO DUP1 ISZERO PUSH2 0x39 JUMPI RETURNDATASIZE PUSH1 0x0 DUP1 RETURNDATACOPY RETURNDATASIZE PUSH1 0x0 REVERT JUMPDEST POP PUSH4 0x39BF5813 PUSH1 0xE2 SHL PUSH1 0x0 MSTORE PUSH1 0x1 PUSH1 0x20 MSTORE PUSH32 0x910E72D85C5DC1C93347E0C7A16EE1B62B45B0C240EF97CDF7DCD0A1F6A8A1C9 DUP1 SLOAD PUSH1 0x1 PUSH1 0x1 PUSH1 0xA0 SHL SUB NOT AND PUSH1 0x1 PUSH1 0x1 PUSH1 0xA0 SHL SUB SWAP3 SWAP1 SWAP3 AND SWAP2 SWAP1 SWAP2 OR SWAP1 SSTORE PUSH1 0x40 MLOAD PUSH2 0x95 SWAP1 PUSH2 0x112 JUMP JUMPDEST PUSH1 0x40 MLOAD DUP1 SWAP2 SUB SWAP1 PUSH1 0x0 CREATE DUP1 ISZERO DUP1 ISZERO PUSH2 0xB1 JUMPI RETURNDATASIZE PUSH1 0x0 DUP1 RETURNDATACOPY RETURNDATASIZE PUSH1 0x0 REVERT JUMPDEST POP PUSH4 0x7A0ED627 PUSH1 0xE0 SHL PUSH1 0x0 MSTORE PUSH1 0x1 PUSH1 0x20 MSTORE PUSH32 0xC347C6416D11A7124FBF91167F5A9B61C9EE63E7F57F7DC72E64835B644BA8A5 DUP1 SLOAD PUSH1 0x1 PUSH1 0x1 PUSH1 0xA0 SHL SUB NOT AND PUSH1 0x1 PUSH1 0x1 PUSH1 0xA0 SHL SUB SWAP3 SWAP1 SWAP3 AND SWAP2 SWAP1 SWAP2 OR SWAP1 SSTORE PUSH2 0x11E JUMP JUMPDEST PUSH1 0x5C DUP1 PUSH2 0x426 DUP4 CODECOPY ADD SWAP1 JUMP JUMPDEST PUSH1 0x5C DUP1 PUSH2 0x482 DUP4 CODECOPY ADD SWAP1 JUMP JUMPDEST PUSH2 0x2F9 DUP1 PUSH2 0x12D PUSH1 0x0 CODECOPY PUSH1 0x0 RETURN INVALID PUSH1 0x80 PUSH1 0x40 MSTORE CALLVALUE DUP1 ISZERO PUSH2 0x10 JUMPI PUSH1 0x0 DUP1 REVERT JUMPDEST POP PUSH1 0x4 CALLDATASIZE LT PUSH2 0x41 JUMPI PUSH1 0x0 CALLDATALOAD PUSH1 0xE0 SHR DUP1 PUSH4 0x112B6A67 EQ PUSH2 0x46 JUMPI DUP1 PUSH4 0x7A0ED627 EQ PUSH2 0x76 JUMPI DUP1 PUSH4 0xE6FD604C EQ PUSH2 0x8B JUMPI JUMPDEST PUSH1 0x0 DUP1 REVERT JUMPDEST PUSH2 0x59 PUSH2 0x54 CALLDATASIZE PUSH1 0x4 PUSH2 0x22D JUMP JUMPDEST PUSH2 0x11F JUMP JUMPDEST PUSH1 0x40 MLOAD PUSH1 0x1 PUSH1 0x1 PUSH1 0xA0 SHL SUB SWAP1 SWAP2 AND DUP2 MSTORE PUSH1 0x20 ADD JUMPDEST PUSH1 0x40 MLOAD DUP1 SWAP2 SUB SWAP1 RETURN JUMPDEST PUSH2 0x7E PUSH2 0x1CB JUMP JUMPDEST PUSH1 0x40 MLOAD PUSH2 0x6D SWAP2 SWAP1 PUSH2 0x276 JUMP JUMPDEST PUSH2 0x11D PUSH1 0x1 PUSH1 0x20 DUP2 SWAP1 MSTORE PUSH32 0x910E72D85C5DC1C93347E0C7A16EE1B62B45B0C240EF97CDF7DCD0A1F6A8A1C9 SLOAD PUSH1 0x0 DUP1 SLOAD SWAP3 DUP4 ADD DUP2 SSTORE DUP1 MSTORE PUSH32 0x290DECD9548B62A8D60345A988386FC84BA6BC95484008F6362F93160EF3E563 SWAP1 SWAP2 ADD DUP1 SLOAD PUSH32 0xFFFFFFFFFFFFFFFFFFFFFFFF0000000000000000000000000000000000000000 AND PUSH1 0x1 PUSH1 0x1 PUSH1 0xA0 SHL SUB SWAP1 SWAP3 AND SWAP2 SWAP1 SWAP2 OR SWAP1 SSTORE JUMP JUMPDEST STOP JUMPDEST PUSH32 0xFFFFFFFF00000000000000000000000000000000000000000000000000000000 DUP2 AND PUSH1 0x0 SWAP1 DUP2 MSTORE PUSH1 0x1 PUSH1 0x20 MSTORE PUSH1 0x40 DUP2 KECCAK256 SLOAD PUSH1 0x1 PUSH1 0x1 PUSH1 0xA0 SHL SUB AND DUP1 PUSH2 0x1C5 JUMPI PUSH1 0x40 MLOAD PUSH32 0x8C379A000000000000000000000000000000000000000000000000000000000 DUP2 MSTORE PUSH1 0x20 PUSH1 0x4 DUP3 ADD MSTORE PUSH1 0xF PUSH1 0x24 DUP3 ADD MSTORE PUSH32 0x4661636574206E6F7420666F756E640000000000000000000000000000000000 PUSH1 0x44 DUP3 ADD MSTORE PUSH1 0x64 ADD PUSH1 0x40 MLOAD DUP1 SWAP2 SUB SWAP1 REVERT JUMPDEST SWAP3 SWAP2 POP POP JUMP JUMPDEST PUSH1 0x60 PUSH1 0x0 DUP1 SLOAD DUP1 PUSH1 0x20 MUL PUSH1 0x20 ADD PUSH1 0x40 MLOAD SWAP1 DUP2 ADD PUSH1 0x40 MSTORE DUP1 SWAP3 SWAP2 SWAP1 DUP2 DUP2 MSTORE PUSH1 0x20 ADD DUP3 DUP1 SLOAD DUP1 ISZERO PUSH2 0x223 JUMPI PUSH1 0x20 MUL DUP3 ADD SWAP2 SWAP1 PUSH1 0x0 MSTORE PUSH1 0x20 PUSH1 0x0 KECCAK256 SWAP1 JUMPDEST DUP2 SLOAD PUSH1 0x1 PUSH1 0x1 PUSH1 0xA0 SHL SUB AND DUP2 MSTORE PUSH1 0x1 SWAP1 SWAP2 ADD SWAP1 PUSH1 0x20 ADD DUP1 DUP4 GT PUSH2 0x205 JUMPI JUMPDEST POP POP POP POP POP SWAP1 POP SWAP1 JUMP JUMPDEST PUSH1 0x0 PUSH1 0x20 DUP3 DUP5 SUB SLT ISZERO PUSH2 0x23F JUMPI PUSH1 0x0 DUP1 REVERT JUMPDEST DUP2 CALLDATALOAD PUSH32 0xFFFFFFFF00000000000000000000000000000000000000000000000000000000 DUP2 AND DUP2 EQ PUSH2 0x26F JUMPI PUSH1 0x0 DUP1 REVERT JUMPDEST SWAP4 SWAP3 POP POP POP JUMP JUMPDEST PUSH1 0x20 DUP1 DUP3 MSTORE DUP3 MLOAD DUP3 DUP3 ADD DUP2 SWAP1 MSTORE PUSH1 0x0 SWAP2 SWAP1 DUP5 DUP3 ADD SWAP1 PUSH1 0x40 DUP6 ADD SWAP1 DUP5 JUMPDEST DUP2 DUP2 LT ISZERO PUSH2 0x2B7 JUMPI DUP4 MLOAD PUSH1 0x1 PUSH1 0x1 PUSH1 0xA0 SHL SUB AND DUP4 MSTORE SWAP3 DUP5 ADD SWAP3 SWAP2 DUP5 ADD SWAP2 PUSH1 0x1 ADD PUSH2 0x292 JUMP JUMPDEST POP SWAP1 SWAP7 SWAP6 POP POP POP POP POP POP JUMP INVALID LOG2 PUSH5 0x6970667358 0x22 SLT KECCAK256 PUSH30 0x34E70D4AA0366AB86298BFBA09788832B5E064DE23F957564F1E81F74E3F 0xC4 PUSH5 0x736F6C6343 STOP ADDMOD MULMOD STOP CALLER PUSH1 0x80 PUSH1 0x40 MSTORE CALLVALUE DUP1 ISZERO PUSH1 0xF JUMPI PUSH1 0x0 DUP1 REVERT JUMPDEST POP PUSH1 0x3F DUP1 PUSH1 0x1D PUSH1 0x0 CODECOPY PUSH1 0x0 RETURN INVALID PUSH1 0x80 PUSH1 0x40 MSTORE PUSH1 0x0 DUP1 REVERT INVALID LOG2 PUSH5 0x6970667358 0x22 SLT KECCAK256 0x4F JUMPDEST DELEGATECALL 0xD7 GASPRICE CALL INVALID 0x2D PUSH4 0x9027D79B 0xC4 PUSH16 0xDEFD0EED069D5BF0E5819CFB66760D20 SWAP2 PUSH5 0x736F6C6343 STOP ADDMOD MULMOD STOP CALLER PUSH1 0x80 PUSH1 0x40 MSTORE CALLVALUE DUP1 ISZERO PUSH1 0xF JUMPI PUSH1 0x0 DUP1 REVERT JUMPDEST POP PUSH1 0x3F DUP1 PUSH1 0x1D PUSH1 0x0 CODECOPY PUSH1 0x0 RETURN INVALID PUSH1 0x80 PUSH1 0x40 MSTORE PUSH1 0x0 DUP1 REVERT INVALID LOG2 PUSH5 0x6970667358 0x22 SLT KECCAK256 0xA6 STOP MUL 0xC0 SAR MSIZE PUSH1 0x53 0xB3 0xD0 DUP8 0x2C 0xC3 0x2C 0xC9 CODECOPY 0xC0 0xE6 0xCB 0xDF CALLDATACOPY GASLIMIT STOP PUSH29 0xFDE9A5A581E31ADA64736F6C6343000809003300000000000000000000 "
				},
				"gasEstimates": {
					"creation": {
						"codeDepositCost": "152200",
						"executionCost": "infinite",
						"totalCost": "infinite"
					},
					"external": {
						"cut()": "50756",
						"facets()": "infinite",
						"getFacet(bytes4)": "2535"
					}
				},
				"methodIdentifiers": {
					"cut()": "e6fd604c",
					"facets()": "7a0ed627",
					"getFacet(bytes4)": "112b6a67"
				}
			},
			"storageLayout": {
				"storage": [
					{
						"astId": 23,
						"contract": "Eip2535/DiamondC.sol:Diamond",
						"label": "_facets",
						"offset": 0,
						"slot": "0",
						"type": "t_array(t_address)dyn_storage"
					},
					{
						"astId": 27,
						"contract": "Eip2535/DiamondC.sol:Diamond",
						"label": "facetToAddress",
						"offset": 0,
						"slot": "1",
						"type": "t_mapping(t_bytes4,t_address)"
					}
				],
				"types": {
					"t_address": {
						"encoding": "inplace",
						"label": "address",
						"numberOfBytes": "20"
					},
					"t_array(t_address)dyn_storage": {
						"base": "t_address",
						"encoding": "dynamic_array",
						"label": "address[]",
						"numberOfBytes": "32"
					},
					"t_bytes4": {
						"encoding": "inplace",
						"label": "bytes4",
						"numberOfBytes": "4"
					},
					"t_mapping(t_bytes4,t_address)": {
						"encoding": "mapping",
						"key": "t_bytes4",
						"label": "mapping(bytes4 => address)",
						"numberOfBytes": "32",
						"value": "t_address"
					}
				}
			},
			"userdoc": {
				"kind": "user",
				"methods": {},
				"version": 1
			}
		}
	}
}