{
	"Eip2535/MessageFacet.sol": {
		"MessageFacet": {
			"abi": [
				{
					"inputs": [],
					"name": "getter",
					"outputs": [
						{
							"internalType": "string",
							"name": "",
							"type": "string"
						}
					],
					"stateMutability": "nonpayable",
					"type": "function"
				},
				{
					"inputs": [
						{
							"internalType": "string",
							"name": "_msg",
							"type": "string"
						}
					],
					"name": "setStorage",
					"outputs": [],
					"stateMutability": "nonpayable",
					"type": "function"
				}
			],
			"devdoc": {
				"kind": "dev",
				"methods": {},
				"version": 1
			},
			"evm": {
				"assembly": "    /* \"Eip2535/MessageFacet.sol\":55:609  contract MessageFacet {... */\n  mstore(0x40, 0x80)\n  callvalue\n  dup1\n  iszero\n  tag_1\n  jumpi\n  0x00\n  dup1\n  revert\ntag_1:\n  pop\n  dataSize(sub_0)\n  dup1\n  dataOffset(sub_0)\n  0x00\n  codecopy\n  0x00\n  return\nstop\n\nsub_0: assembly {\n        /* \"Eip2535/MessageFacet.sol\":55:609  contract MessageFacet {... */\n      mstore(0x40, 0x80)\n      callvalue\n      dup1\n      iszero\n      tag_1\n      jumpi\n      0x00\n      dup1\n      revert\n    tag_1:\n      pop\n      jumpi(tag_2, lt(calldatasize, 0x04))\n      shr(0xe0, calldataload(0x00))\n      dup1\n      0x993a04b7\n      eq\n      tag_3\n      jumpi\n      dup1\n      0xa57b0b0b\n      eq\n      tag_4\n      jumpi\n    tag_2:\n      0x00\n      dup1\n      revert\n        /* \"Eip2535/MessageFacet.sol\":513:607  function getter() external returns(string memory) {... */\n    tag_3:\n      tag_5\n      tag_6\n      jump\t// in\n    tag_5:\n      mload(0x40)\n      tag_7\n      swap2\n      swap1\n      tag_8\n      jump\t// in\n    tag_7:\n      mload(0x40)\n      dup1\n      swap2\n      sub\n      swap1\n      return\n        /* \"Eip2535/MessageFacet.sol\":380:506  function setStorage(string calldata _msg) external {... */\n    tag_4:\n      tag_9\n      tag_10\n      calldatasize\n      0x04\n      tag_11\n      jump\t// in\n    tag_10:\n      tag_12\n      jump\t// in\n    tag_9:\n      stop\n        /* \"Eip2535/MessageFacet.sol\":513:607  function getter() external returns(string memory) {... */\n    tag_6:\n        /* \"Eip2535/MessageFacet.sol\":548:561  string memory */\n      0x60\n        /* \"Eip2535/MessageFacet.sol\":121:148  keccak256(\"message.faucet\") */\n      0xbc5b67b77d05fba867407ba50bcad7d531300c160a76ac70443f8353cef56051\n        /* \"Eip2535/MessageFacet.sol\":573:600  return getStorage().message */\n      dup1\n      sload\n      tag_16\n      swap1\n      tag_17\n      jump\t// in\n    tag_16:\n      dup1\n      0x1f\n      add\n      0x20\n      dup1\n      swap2\n      div\n      mul\n      0x20\n      add\n      mload(0x40)\n      swap1\n      dup2\n      add\n      0x40\n      mstore\n      dup1\n      swap3\n      swap2\n      swap1\n      dup2\n      dup2\n      mstore\n      0x20\n      add\n      dup3\n      dup1\n      sload\n      tag_18\n      swap1\n      tag_17\n      jump\t// in\n    tag_18:\n      dup1\n      iszero\n      tag_19\n      jumpi\n      dup1\n      0x1f\n      lt\n      tag_20\n      jumpi\n      0x0100\n      dup1\n      dup4\n      sload\n      div\n      mul\n      dup4\n      mstore\n      swap2\n      0x20\n      add\n      swap2\n      jump(tag_19)\n    tag_20:\n      dup3\n      add\n      swap2\n      swap1\n      0x00\n      mstore\n      keccak256(0x00, 0x20)\n      swap1\n    tag_21:\n      dup2\n      sload\n      dup2\n      mstore\n      swap1\n      0x01\n      add\n      swap1\n      0x20\n      add\n      dup1\n      dup4\n      gt\n      tag_21\n      jumpi\n      dup3\n      swap1\n      sub\n      0x1f\n      and\n      dup3\n      add\n      swap2\n    tag_19:\n      pop\n      pop\n      pop\n      pop\n      pop\n      swap1\n      pop\n        /* \"Eip2535/MessageFacet.sol\":513:607  function getter() external returns(string memory) {... */\n      swap1\n      jump\t// out\n        /* \"Eip2535/MessageFacet.sol\":380:506  function setStorage(string calldata _msg) external {... */\n    tag_12:\n        /* \"Eip2535/MessageFacet.sol\":121:148  keccak256(\"message.faucet\") */\n      0xbc5b67b77d05fba867407ba50bcad7d531300c160a76ac70443f8353cef56051\n        /* \"Eip2535/MessageFacet.sol\":483:499  s.message = _msg */\n      tag_24\n        /* \"Eip2535/MessageFacet.sol\":121:148  keccak256(\"message.faucet\") */\n      dup2\n        /* \"Eip2535/MessageFacet.sol\":495:499  _msg */\n      dup5\n      dup5\n        /* \"Eip2535/MessageFacet.sol\":483:499  s.message = _msg */\n      tag_25\n      jump\t// in\n    tag_24:\n      pop\n        /* \"Eip2535/MessageFacet.sol\":431:506  {... */\n      pop\n        /* \"Eip2535/MessageFacet.sol\":380:506  function setStorage(string calldata _msg) external {... */\n      pop\n      pop\n      jump\t// out\n    tag_25:\n      dup3\n      dup1\n      sload\n      tag_27\n      swap1\n      tag_17\n      jump\t// in\n    tag_27:\n      swap1\n      0x00\n      mstore\n      keccak256(0x00, 0x20)\n      swap1\n      0x1f\n      add\n      0x20\n      swap1\n      div\n      dup2\n      add\n      swap3\n      dup3\n      tag_29\n      jumpi\n      0x00\n      dup6\n      sstore\n      jump(tag_32)\n    tag_29:\n      dup3\n      0x1f\n      lt\n      tag_30\n      jumpi\n      dup3\n      dup1\n      add\n      not(0xff)\n      dup3\n      calldataload\n      and\n      or\n      dup6\n      sstore\n      jump(tag_32)\n    tag_30:\n      dup3\n      dup1\n      add\n      0x01\n      add\n      dup6\n      sstore\n      dup3\n      iszero\n      tag_32\n      jumpi\n      swap2\n      dup3\n      add\n    tag_31:\n      dup3\n      dup2\n      gt\n      iszero\n      tag_32\n      jumpi\n      dup3\n      calldataload\n      dup3\n      sstore\n      swap2\n      0x20\n      add\n      swap2\n      swap1\n      0x01\n      add\n      swap1\n      jump(tag_31)\n    tag_32:\n      pop\n      tag_33\n      swap3\n      swap2\n      pop\n      tag_34\n      jump\t// in\n    tag_33:\n      pop\n      swap1\n      jump\t// out\n    tag_34:\n    tag_35:\n      dup1\n      dup3\n      gt\n      iszero\n      tag_33\n      jumpi\n      0x00\n      dup2\n      sstore\n      0x01\n      add\n      jump(tag_35)\n        /* \"#utility.yul\":14:611   */\n    tag_8:\n        /* \"#utility.yul\":126:130   */\n      0x00\n        /* \"#utility.yul\":155:157   */\n      0x20\n        /* \"#utility.yul\":184:186   */\n      dup1\n        /* \"#utility.yul\":173:182   */\n      dup4\n        /* \"#utility.yul\":166:187   */\n      mstore\n        /* \"#utility.yul\":216:222   */\n      dup4\n        /* \"#utility.yul\":210:223   */\n      mload\n        /* \"#utility.yul\":259:265   */\n      dup1\n        /* \"#utility.yul\":254:256   */\n      dup3\n        /* \"#utility.yul\":243:252   */\n      dup6\n        /* \"#utility.yul\":239:257   */\n      add\n        /* \"#utility.yul\":232:266   */\n      mstore\n        /* \"#utility.yul\":284:285   */\n      0x00\n        /* \"#utility.yul\":294:434   */\n    tag_39:\n        /* \"#utility.yul\":308:314   */\n      dup2\n        /* \"#utility.yul\":305:306   */\n      dup2\n        /* \"#utility.yul\":302:315   */\n      lt\n        /* \"#utility.yul\":294:434   */\n      iszero\n      tag_41\n      jumpi\n        /* \"#utility.yul\":403:417   */\n      dup6\n      dup2\n      add\n        /* \"#utility.yul\":399:422   */\n      dup4\n      add\n        /* \"#utility.yul\":393:423   */\n      mload\n        /* \"#utility.yul\":369:386   */\n      dup6\n      dup3\n      add\n        /* \"#utility.yul\":388:390   */\n      0x40\n        /* \"#utility.yul\":365:391   */\n      add\n        /* \"#utility.yul\":358:424   */\n      mstore\n        /* \"#utility.yul\":323:333   */\n      dup3\n      add\n        /* \"#utility.yul\":294:434   */\n      jump(tag_39)\n    tag_41:\n        /* \"#utility.yul\":452:458   */\n      dup2\n        /* \"#utility.yul\":449:450   */\n      dup2\n        /* \"#utility.yul\":446:459   */\n      gt\n        /* \"#utility.yul\":443:534   */\n      iszero\n      tag_42\n      jumpi\n        /* \"#utility.yul\":522:523   */\n      0x00\n        /* \"#utility.yul\":517:519   */\n      0x40\n        /* \"#utility.yul\":508:514   */\n      dup4\n        /* \"#utility.yul\":497:506   */\n      dup8\n        /* \"#utility.yul\":493:515   */\n      add\n        /* \"#utility.yul\":489:520   */\n      add\n        /* \"#utility.yul\":482:524   */\n      mstore\n        /* \"#utility.yul\":443:534   */\n    tag_42:\n      pop\n        /* \"#utility.yul\":595:597   */\n      0x1f\n        /* \"#utility.yul\":574:589   */\n      add\n      not(0x1f)\n        /* \"#utility.yul\":570:599   */\n      and\n        /* \"#utility.yul\":555:600   */\n      swap3\n      swap1\n      swap3\n      add\n        /* \"#utility.yul\":602:604   */\n      0x40\n        /* \"#utility.yul\":551:605   */\n      add\n      swap4\n        /* \"#utility.yul\":14:611   */\n      swap3\n      pop\n      pop\n      pop\n      jump\t// out\n        /* \"#utility.yul\":616:1208   */\n    tag_11:\n        /* \"#utility.yul\":687:693   */\n      0x00\n        /* \"#utility.yul\":695:701   */\n      dup1\n        /* \"#utility.yul\":748:750   */\n      0x20\n        /* \"#utility.yul\":736:745   */\n      dup4\n        /* \"#utility.yul\":727:734   */\n      dup6\n        /* \"#utility.yul\":723:746   */\n      sub\n        /* \"#utility.yul\":719:751   */\n      slt\n        /* \"#utility.yul\":716:768   */\n      iszero\n      tag_44\n      jumpi\n        /* \"#utility.yul\":764:765   */\n      0x00\n        /* \"#utility.yul\":761:762   */\n      dup1\n        /* \"#utility.yul\":754:766   */\n      revert\n        /* \"#utility.yul\":716:768   */\n    tag_44:\n        /* \"#utility.yul\":804:813   */\n      dup3\n        /* \"#utility.yul\":791:814   */\n      calldataload\n        /* \"#utility.yul\":833:851   */\n      0xffffffffffffffff\n        /* \"#utility.yul\":874:876   */\n      dup1\n        /* \"#utility.yul\":866:872   */\n      dup3\n        /* \"#utility.yul\":863:877   */\n      gt\n        /* \"#utility.yul\":860:894   */\n      iszero\n      tag_45\n      jumpi\n        /* \"#utility.yul\":890:891   */\n      0x00\n        /* \"#utility.yul\":887:888   */\n      dup1\n        /* \"#utility.yul\":880:892   */\n      revert\n        /* \"#utility.yul\":860:894   */\n    tag_45:\n        /* \"#utility.yul\":928:934   */\n      dup2\n        /* \"#utility.yul\":917:926   */\n      dup6\n        /* \"#utility.yul\":913:935   */\n      add\n        /* \"#utility.yul\":903:935   */\n      swap2\n      pop\n        /* \"#utility.yul\":973:980   */\n      dup6\n        /* \"#utility.yul\":966:970   */\n      0x1f\n        /* \"#utility.yul\":962:964   */\n      dup4\n        /* \"#utility.yul\":958:971   */\n      add\n        /* \"#utility.yul\":954:981   */\n      slt\n        /* \"#utility.yul\":944:999   */\n      tag_46\n      jumpi\n        /* \"#utility.yul\":995:996   */\n      0x00\n        /* \"#utility.yul\":992:993   */\n      dup1\n        /* \"#utility.yul\":985:997   */\n      revert\n        /* \"#utility.yul\":944:999   */\n    tag_46:\n        /* \"#utility.yul\":1035:1037   */\n      dup2\n        /* \"#utility.yul\":1022:1038   */\n      calldataload\n        /* \"#utility.yul\":1061:1063   */\n      dup2\n        /* \"#utility.yul\":1053:1059   */\n      dup2\n        /* \"#utility.yul\":1050:1064   */\n      gt\n        /* \"#utility.yul\":1047:1081   */\n      iszero\n      tag_47\n      jumpi\n        /* \"#utility.yul\":1077:1078   */\n      0x00\n        /* \"#utility.yul\":1074:1075   */\n      dup1\n        /* \"#utility.yul\":1067:1079   */\n      revert\n        /* \"#utility.yul\":1047:1081   */\n    tag_47:\n        /* \"#utility.yul\":1122:1129   */\n      dup7\n        /* \"#utility.yul\":1117:1119   */\n      0x20\n        /* \"#utility.yul\":1108:1114   */\n      dup3\n        /* \"#utility.yul\":1104:1106   */\n      dup6\n        /* \"#utility.yul\":1100:1115   */\n      add\n        /* \"#utility.yul\":1096:1120   */\n      add\n        /* \"#utility.yul\":1093:1130   */\n      gt\n        /* \"#utility.yul\":1090:1147   */\n      iszero\n      tag_48\n      jumpi\n        /* \"#utility.yul\":1143:1144   */\n      0x00\n        /* \"#utility.yul\":1140:1141   */\n      dup1\n        /* \"#utility.yul\":1133:1145   */\n      revert\n        /* \"#utility.yul\":1090:1147   */\n    tag_48:\n        /* \"#utility.yul\":1174:1176   */\n      0x20\n        /* \"#utility.yul\":1166:1177   */\n      swap3\n      swap1\n      swap3\n      add\n      swap7\n        /* \"#utility.yul\":1196:1202   */\n      swap2\n      swap6\n      pop\n        /* \"#utility.yul\":616:1208   */\n      swap1\n      swap4\n      pop\n      pop\n      pop\n      pop\n      jump\t// out\n        /* \"#utility.yul\":1213:1650   */\n    tag_17:\n        /* \"#utility.yul\":1292:1293   */\n      0x01\n        /* \"#utility.yul\":1288:1300   */\n      dup2\n      dup2\n      shr\n      swap1\n        /* \"#utility.yul\":1335:1347   */\n      dup3\n      and\n      dup1\n        /* \"#utility.yul\":1356:1417   */\n      tag_50\n      jumpi\n        /* \"#utility.yul\":1410:1414   */\n      0x7f\n        /* \"#utility.yul\":1402:1408   */\n      dup3\n        /* \"#utility.yul\":1398:1415   */\n      and\n        /* \"#utility.yul\":1388:1415   */\n      swap2\n      pop\n        /* \"#utility.yul\":1356:1417   */\n    tag_50:\n        /* \"#utility.yul\":1463:1465   */\n      0x20\n        /* \"#utility.yul\":1455:1461   */\n      dup3\n        /* \"#utility.yul\":1452:1466   */\n      lt\n        /* \"#utility.yul\":1432:1450   */\n      dup2\n        /* \"#utility.yul\":1429:1467   */\n      eq\n        /* \"#utility.yul\":1426:1644   */\n      iszero\n      tag_51\n      jumpi\n        /* \"#utility.yul\":1500:1577   */\n      0x4e487b7100000000000000000000000000000000000000000000000000000000\n        /* \"#utility.yul\":1497:1498   */\n      0x00\n        /* \"#utility.yul\":1490:1578   */\n      mstore\n        /* \"#utility.yul\":1601:1605   */\n      0x22\n        /* \"#utility.yul\":1598:1599   */\n      0x04\n        /* \"#utility.yul\":1591:1606   */\n      mstore\n        /* \"#utility.yul\":1629:1633   */\n      0x24\n        /* \"#utility.yul\":1626:1627   */\n      0x00\n        /* \"#utility.yul\":1619:1634   */\n      revert\n        /* \"#utility.yul\":1426:1644   */\n    tag_51:\n      pop\n        /* \"#utility.yul\":1213:1650   */\n      swap2\n      swap1\n      pop\n      jump\t// out\n\n    auxdata: 0xa26469706673582212209c92fbe002c6cafb746a74f4cf64a6e792747ab5b6b38ff3e611af85559abd6064736f6c63430008090033\n}\n",
				"bytecode": {
					"linkReferences": {},
					"object": "608060405234801561001057600080fd5b5061033b806100206000396000f3fe608060405234801561001057600080fd5b50600436106100365760003560e01c8063993a04b71461003b578063a57b0b0b14610059575b600080fd5b61004361006e565b60405161005091906101ea565b60405180910390f35b61006c61006736600461023f565b61011f565b005b60607fbc5b67b77d05fba867407ba50bcad7d531300c160a76ac70443f8353cef56051805461009c906102b1565b80601f01602080910402602001604051908101604052809291908181526020018280546100c8906102b1565b80156101155780601f106100ea57610100808354040283529160200191610115565b820191906000526020600020905b8154815290600101906020018083116100f857829003601f168201915b5050505050905090565b7fbc5b67b77d05fba867407ba50bcad7d531300c160a76ac70443f8353cef5605161014b818484610151565b50505050565b82805461015d906102b1565b90600052602060002090601f01602090048101928261017f57600085556101c5565b82601f106101985782800160ff198235161785556101c5565b828001600101855582156101c5579182015b828111156101c55782358255916020019190600101906101aa565b506101d19291506101d5565b5090565b5b808211156101d157600081556001016101d6565b600060208083528351808285015260005b81811015610217578581018301518582016040015282016101fb565b81811115610229576000604083870101525b50601f01601f1916929092016040019392505050565b6000806020838503121561025257600080fd5b823567ffffffffffffffff8082111561026a57600080fd5b818501915085601f83011261027e57600080fd5b81358181111561028d57600080fd5b86602082850101111561029f57600080fd5b60209290920196919550909350505050565b600181811c908216806102c557607f821691505b602082108114156102ff577f4e487b7100000000000000000000000000000000000000000000000000000000600052602260045260246000fd5b5091905056fea26469706673582212209c92fbe002c6cafb746a74f4cf64a6e792747ab5b6b38ff3e611af85559abd6064736f6c63430008090033",
					"opcodes": "PUSH1 0x80 PUSH1 0x40 MSTORE CALLVALUE DUP1 ISZERO PUSH2 0x10 JUMPI PUSH1 0x0 DUP1 REVERT JUMPDEST POP PUSH2 0x33B DUP1 PUSH2 0x20 PUSH1 0x0 CODECOPY PUSH1 0x0 RETURN INVALID PUSH1 0x80 PUSH1 0x40 MSTORE CALLVALUE DUP1 ISZERO PUSH2 0x10 JUMPI PUSH1 0x0 DUP1 REVERT JUMPDEST POP PUSH1 0x4 CALLDATASIZE LT PUSH2 0x36 JUMPI PUSH1 0x0 CALLDATALOAD PUSH1 0xE0 SHR DUP1 PUSH4 0x993A04B7 EQ PUSH2 0x3B JUMPI DUP1 PUSH4 0xA57B0B0B EQ PUSH2 0x59 JUMPI JUMPDEST PUSH1 0x0 DUP1 REVERT JUMPDEST PUSH2 0x43 PUSH2 0x6E JUMP JUMPDEST PUSH1 0x40 MLOAD PUSH2 0x50 SWAP2 SWAP1 PUSH2 0x1EA JUMP JUMPDEST PUSH1 0x40 MLOAD DUP1 SWAP2 SUB SWAP1 RETURN JUMPDEST PUSH2 0x6C PUSH2 0x67 CALLDATASIZE PUSH1 0x4 PUSH2 0x23F JUMP JUMPDEST PUSH2 0x11F JUMP JUMPDEST STOP JUMPDEST PUSH1 0x60 PUSH32 0xBC5B67B77D05FBA867407BA50BCAD7D531300C160A76AC70443F8353CEF56051 DUP1 SLOAD PUSH2 0x9C SWAP1 PUSH2 0x2B1 JUMP JUMPDEST DUP1 PUSH1 0x1F ADD PUSH1 0x20 DUP1 SWAP2 DIV MUL PUSH1 0x20 ADD PUSH1 0x40 MLOAD SWAP1 DUP2 ADD PUSH1 0x40 MSTORE DUP1 SWAP3 SWAP2 SWAP1 DUP2 DUP2 MSTORE PUSH1 0x20 ADD DUP3 DUP1 SLOAD PUSH2 0xC8 SWAP1 PUSH2 0x2B1 JUMP JUMPDEST DUP1 ISZERO PUSH2 0x115 JUMPI DUP1 PUSH1 0x1F LT PUSH2 0xEA JUMPI PUSH2 0x100 DUP1 DUP4 SLOAD DIV MUL DUP4 MSTORE SWAP2 PUSH1 0x20 ADD SWAP2 PUSH2 0x115 JUMP JUMPDEST DUP3 ADD SWAP2 SWAP1 PUSH1 0x0 MSTORE PUSH1 0x20 PUSH1 0x0 KECCAK256 SWAP1 JUMPDEST DUP2 SLOAD DUP2 MSTORE SWAP1 PUSH1 0x1 ADD SWAP1 PUSH1 0x20 ADD DUP1 DUP4 GT PUSH2 0xF8 JUMPI DUP3 SWAP1 SUB PUSH1 0x1F AND DUP3 ADD SWAP2 JUMPDEST POP POP POP POP POP SWAP1 POP SWAP1 JUMP JUMPDEST PUSH32 0xBC5B67B77D05FBA867407BA50BCAD7D531300C160A76AC70443F8353CEF56051 PUSH2 0x14B DUP2 DUP5 DUP5 PUSH2 0x151 JUMP JUMPDEST POP POP POP POP JUMP JUMPDEST DUP3 DUP1 SLOAD PUSH2 0x15D SWAP1 PUSH2 0x2B1 JUMP JUMPDEST SWAP1 PUSH1 0x0 MSTORE PUSH1 0x20 PUSH1 0x0 KECCAK256 SWAP1 PUSH1 0x1F ADD PUSH1 0x20 SWAP1 DIV DUP2 ADD SWAP3 DUP3 PUSH2 0x17F JUMPI PUSH1 0x0 DUP6 SSTORE PUSH2 0x1C5 JUMP JUMPDEST DUP3 PUSH1 0x1F LT PUSH2 0x198 JUMPI DUP3 DUP1 ADD PUSH1 0xFF NOT DUP3 CALLDATALOAD AND OR DUP6 SSTORE PUSH2 0x1C5 JUMP JUMPDEST DUP3 DUP1 ADD PUSH1 0x1 ADD DUP6 SSTORE DUP3 ISZERO PUSH2 0x1C5 JUMPI SWAP2 DUP3 ADD JUMPDEST DUP3 DUP2 GT ISZERO PUSH2 0x1C5 JUMPI DUP3 CALLDATALOAD DUP3 SSTORE SWAP2 PUSH1 0x20 ADD SWAP2 SWAP1 PUSH1 0x1 ADD SWAP1 PUSH2 0x1AA JUMP JUMPDEST POP PUSH2 0x1D1 SWAP3 SWAP2 POP PUSH2 0x1D5 JUMP JUMPDEST POP SWAP1 JUMP JUMPDEST JUMPDEST DUP1 DUP3 GT ISZERO PUSH2 0x1D1 JUMPI PUSH1 0x0 DUP2 SSTORE PUSH1 0x1 ADD PUSH2 0x1D6 JUMP JUMPDEST PUSH1 0x0 PUSH1 0x20 DUP1 DUP4 MSTORE DUP4 MLOAD DUP1 DUP3 DUP6 ADD MSTORE PUSH1 0x0 JUMPDEST DUP2 DUP2 LT ISZERO PUSH2 0x217 JUMPI DUP6 DUP2 ADD DUP4 ADD MLOAD DUP6 DUP3 ADD PUSH1 0x40 ADD MSTORE DUP3 ADD PUSH2 0x1FB JUMP JUMPDEST DUP2 DUP2 GT ISZERO PUSH2 0x229 JUMPI PUSH1 0x0 PUSH1 0x40 DUP4 DUP8 ADD ADD MSTORE JUMPDEST POP PUSH1 0x1F ADD PUSH1 0x1F NOT AND SWAP3 SWAP1 SWAP3 ADD PUSH1 0x40 ADD SWAP4 SWAP3 POP POP POP JUMP JUMPDEST PUSH1 0x0 DUP1 PUSH1 0x20 DUP4 DUP6 SUB SLT ISZERO PUSH2 0x252 JUMPI PUSH1 0x0 DUP1 REVERT JUMPDEST DUP3 CALLDATALOAD PUSH8 0xFFFFFFFFFFFFFFFF DUP1 DUP3 GT ISZERO PUSH2 0x26A JUMPI PUSH1 0x0 DUP1 REVERT JUMPDEST DUP2 DUP6 ADD SWAP2 POP DUP6 PUSH1 0x1F DUP4 ADD SLT PUSH2 0x27E JUMPI PUSH1 0x0 DUP1 REVERT JUMPDEST DUP2 CALLDATALOAD DUP2 DUP2 GT ISZERO PUSH2 0x28D JUMPI PUSH1 0x0 DUP1 REVERT JUMPDEST DUP7 PUSH1 0x20 DUP3 DUP6 ADD ADD GT ISZERO PUSH2 0x29F JUMPI PUSH1 0x0 DUP1 REVERT JUMPDEST PUSH1 0x20 SWAP3 SWAP1 SWAP3 ADD SWAP7 SWAP2 SWAP6 POP SWAP1 SWAP4 POP POP POP POP JUMP JUMPDEST PUSH1 0x1 DUP2 DUP2 SHR SWAP1 DUP3 AND DUP1 PUSH2 0x2C5 JUMPI PUSH1 0x7F DUP3 AND SWAP2 POP JUMPDEST PUSH1 0x20 DUP3 LT DUP2 EQ ISZERO PUSH2 0x2FF JUMPI PUSH32 0x4E487B7100000000000000000000000000000000000000000000000000000000 PUSH1 0x0 MSTORE PUSH1 0x22 PUSH1 0x4 MSTORE PUSH1 0x24 PUSH1 0x0 REVERT JUMPDEST POP SWAP2 SWAP1 POP JUMP INVALID LOG2 PUSH5 0x6970667358 0x22 SLT KECCAK256 SWAP13 SWAP3 0xFB 0xE0 MUL 0xC6 0xCA 0xFB PUSH21 0x6A74F4CF64A6E792747AB5B6B38FF3E611AF85559A 0xBD PUSH1 0x64 PUSH20 0x6F6C634300080900330000000000000000000000 "
				},
				"gasEstimates": {
					"creation": {
						"codeDepositCost": "165400",
						"executionCost": "208",
						"totalCost": "165608"
					},
					"external": {
						"getter()": "infinite",
						"setStorage(string)": "infinite"
					},
					"internal": {
						"getStorage()": "infinite"
					}
				},
				"methodIdentifiers": {
					"getter()": "993a04b7",
					"setStorage(string)": "a57b0b0b"
				}
			},
			"storageLayout": {
				"storage": [],
				"types": null
			},
			"userdoc": {
				"kind": "user",
				"methods": {},
				"version": 1
			}
		}
	}
}