{
	"contracts/Eip1967/StandardSt.sol": {
		"MyContract": {
			"abi": [
				{
					"inputs": [
						{
							"internalType": "address",
							"name": "storageManager",
							"type": "address"
						}
					],
					"stateMutability": "nonpayable",
					"type": "constructor"
				},
				{
					"inputs": [
						{
							"internalType": "bytes32",
							"name": "key",
							"type": "bytes32"
						}
					],
					"name": "getData",
					"outputs": [
						{
							"internalType": "uint256",
							"name": "",
							"type": "uint256"
						}
					],
					"stateMutability": "view",
					"type": "function"
				},
				{
					"inputs": [
						{
							"internalType": "bytes32",
							"name": "key",
							"type": "bytes32"
						},
						{
							"internalType": "uint256",
							"name": "value",
							"type": "uint256"
						}
					],
					"name": "setData",
					"outputs": [],
					"stateMutability": "nonpayable",
					"type": "function"
				}
			],
			"devdoc": {
				"kind": "dev",
				"methods": {},
				"version": 1
			},
			"evm": {
				"assembly": "    /* \"contracts/Eip1967/StandardSt.sol\":298:1021  contract MyContract {... */\n  mstore(0x40, 0x80)\n    /* \"contracts/Eip1967/StandardSt.sol\":362:447  constructor(address storageManager) {... */\n  callvalue\n  dup1\n  iszero\n  tag_1\n  jumpi\n  0x00\n  dup1\n  revert\ntag_1:\n  pop\n  mload(0x40)\n  sub(codesize, bytecodeSize)\n  dup1\n  bytecodeSize\n  dup4\n  codecopy\n  dup2\n  add\n  0x40\n  dup2\n  swap1\n  mstore\n  tag_2\n  swap2\n  tag_3\n  jump\t// in\ntag_2:\n    /* \"contracts/Eip1967/StandardSt.sol\":408:423  _storageManager */\n  0x00\n    /* \"contracts/Eip1967/StandardSt.sol\":408:440  _storageManager = storageManager */\n  dup1\n  sload\n  not(sub(shl(0xa0, 0x01), 0x01))\n  and\n  sub(shl(0xa0, 0x01), 0x01)\n  swap3\n  swap1\n  swap3\n  and\n  swap2\n  swap1\n  swap2\n  or\n  swap1\n  sstore\n    /* \"contracts/Eip1967/StandardSt.sol\":298:1021  contract MyContract {... */\n  jump(tag_7)\n    /* \"#utility.yul\":14:304   */\ntag_3:\n    /* \"#utility.yul\":84:90   */\n  0x00\n    /* \"#utility.yul\":137:139   */\n  0x20\n    /* \"#utility.yul\":125:134   */\n  dup3\n    /* \"#utility.yul\":116:123   */\n  dup5\n    /* \"#utility.yul\":112:135   */\n  sub\n    /* \"#utility.yul\":108:140   */\n  slt\n    /* \"#utility.yul\":105:157   */\n  iszero\n  tag_9\n  jumpi\n    /* \"#utility.yul\":153:154   */\n  0x00\n    /* \"#utility.yul\":150:151   */\n  dup1\n    /* \"#utility.yul\":143:155   */\n  revert\n    /* \"#utility.yul\":105:157   */\ntag_9:\n    /* \"#utility.yul\":179:195   */\n  dup2\n  mload\n  sub(shl(0xa0, 0x01), 0x01)\n    /* \"#utility.yul\":224:255   */\n  dup2\n  and\n    /* \"#utility.yul\":214:256   */\n  dup2\n  eq\n    /* \"#utility.yul\":204:274   */\n  tag_10\n  jumpi\n    /* \"#utility.yul\":270:271   */\n  0x00\n    /* \"#utility.yul\":267:268   */\n  dup1\n    /* \"#utility.yul\":260:272   */\n  revert\n    /* \"#utility.yul\":204:274   */\ntag_10:\n    /* \"#utility.yul\":293:298   */\n  swap4\n    /* \"#utility.yul\":14:304   */\n  swap3\n  pop\n  pop\n  pop\n  jump\t// out\ntag_7:\n    /* \"contracts/Eip1967/StandardSt.sol\":298:1021  contract MyContract {... */\n  dataSize(sub_0)\n  dup1\n  dataOffset(sub_0)\n  0x00\n  codecopy\n  0x00\n  return\nstop\n\nsub_0: assembly {\n        /* \"contracts/Eip1967/StandardSt.sol\":298:1021  contract MyContract {... */\n      mstore(0x40, 0x80)\n      callvalue\n      dup1\n      iszero\n      tag_1\n      jumpi\n      0x00\n      dup1\n      revert\n    tag_1:\n      pop\n      jumpi(tag_2, lt(calldatasize, 0x04))\n      shr(0xe0, calldataload(0x00))\n      dup1\n      0x54f6127f\n      eq\n      tag_3\n      jumpi\n      dup1\n      0xee58e2ec\n      eq\n      tag_4\n      jumpi\n    tag_2:\n      0x00\n      dup1\n      revert\n        /* \"contracts/Eip1967/StandardSt.sol\":713:1019  function getData(bytes32 key) external view returns (uint256) {... */\n    tag_3:\n      tag_5\n      tag_6\n      calldatasize\n      0x04\n      tag_7\n      jump\t// in\n    tag_6:\n      tag_8\n      jump\t// in\n    tag_5:\n      mload(0x40)\n        /* \"#utility.yul\":345:370   */\n      swap1\n      dup2\n      mstore\n        /* \"#utility.yul\":333:335   */\n      0x20\n        /* \"#utility.yul\":318:336   */\n      add\n        /* \"contracts/Eip1967/StandardSt.sol\":713:1019  function getData(bytes32 key) external view returns (uint256) {... */\n      mload(0x40)\n      dup1\n      swap2\n      sub\n      swap1\n      return\n        /* \"contracts/Eip1967/StandardSt.sol\":453:707  function setData(bytes32 key, uint256 value) external {... */\n    tag_4:\n      tag_11\n      tag_12\n      calldatasize\n      0x04\n      tag_13\n      jump\t// in\n    tag_12:\n      tag_14\n      jump\t// in\n    tag_11:\n      stop\n        /* \"contracts/Eip1967/StandardSt.sol\":713:1019  function getData(bytes32 key) external view returns (uint256) {... */\n    tag_8:\n        /* \"contracts/Eip1967/StandardSt.sol\":766:773  uint256 */\n      0x00\n        /* \"contracts/Eip1967/StandardSt.sol\":821:836  _storageManager */\n      dup1\n      sload\n        /* \"contracts/Eip1967/StandardSt.sol\":861:909  abi.encodeWithSignature(\"getData(bytes32)\", key) */\n      mload(0x40)\n      0x24\n      dup2\n      add\n        /* \"#utility.yul\":345:370   */\n      dup5\n      swap1\n      mstore\n        /* \"contracts/Eip1967/StandardSt.sol\":766:773  uint256 */\n      dup3\n      swap2\n      dup3\n      swap2\n        /* \"contracts/Eip1967/StandardSt.sol\":821:836  _storageManager */\n      0xffffffffffffffffffffffffffffffffffffffff\n      swap1\n      swap2\n      and\n      swap1\n        /* \"#utility.yul\":318:336   */\n      0x44\n      add\n        /* \"contracts/Eip1967/StandardSt.sol\":861:909  abi.encodeWithSignature(\"getData(bytes32)\", key) */\n      0x40\n      dup1\n      mload\n      not(0x1f)\n      dup2\n      dup5\n      sub\n      add\n      dup2\n      mstore\n      swap2\n      dup2\n      mstore\n      0x20\n      dup3\n      add\n      dup1\n      mload\n      0xffffffffffffffffffffffffffffffffffffffffffffffffffffffff\n      and\n      0x54f6127f00000000000000000000000000000000000000000000000000000000\n      or\n      swap1\n      mstore\n        /* \"contracts/Eip1967/StandardSt.sol\":821:919  _storageManager.staticcall(... */\n      mload\n      tag_18\n      swap2\n        /* \"contracts/Eip1967/StandardSt.sol\":861:909  abi.encodeWithSignature(\"getData(bytes32)\", key) */\n      swap1\n        /* \"contracts/Eip1967/StandardSt.sol\":821:919  _storageManager.staticcall(... */\n      tag_19\n      jump\t// in\n    tag_18:\n      0x00\n      mload(0x40)\n      dup1\n      dup4\n      sub\n      dup2\n      dup6\n      gas\n      staticcall\n      swap2\n      pop\n      pop\n      returndatasize\n      dup1\n      0x00\n      dup2\n      eq\n      tag_22\n      jumpi\n      mload(0x40)\n      swap2\n      pop\n      and(add(returndatasize, 0x3f), not(0x1f))\n      dup3\n      add\n      0x40\n      mstore\n      returndatasize\n      dup3\n      mstore\n      returndatasize\n      0x00\n      0x20\n      dup5\n      add\n      returndatacopy\n      jump(tag_21)\n    tag_22:\n      0x60\n      swap2\n      pop\n    tag_21:\n      pop\n        /* \"contracts/Eip1967/StandardSt.sol\":785:919  (bool success, bytes memory data) = _storageManager.staticcall(... */\n      swap2\n      pop\n      swap2\n      pop\n        /* \"contracts/Eip1967/StandardSt.sol\":937:944  success */\n      dup2\n        /* \"contracts/Eip1967/StandardSt.sol\":929:968  require(success, \"Getting data failed\") */\n      tag_23\n      jumpi\n      mload(0x40)\n      shl(0xe5, 0x461bcd)\n      dup2\n      mstore\n        /* \"#utility.yul\":1435:1437   */\n      0x20\n        /* \"contracts/Eip1967/StandardSt.sol\":929:968  require(success, \"Getting data failed\") */\n      0x04\n      dup3\n      add\n        /* \"#utility.yul\":1417:1438   */\n      mstore\n        /* \"#utility.yul\":1474:1476   */\n      0x13\n        /* \"#utility.yul\":1454:1472   */\n      0x24\n      dup3\n      add\n        /* \"#utility.yul\":1447:1477   */\n      mstore\n        /* \"#utility.yul\":1513:1534   */\n      0x47657474696e672064617461206661696c656400000000000000000000000000\n        /* \"#utility.yul\":1493:1511   */\n      0x44\n      dup3\n      add\n        /* \"#utility.yul\":1486:1535   */\n      mstore\n        /* \"#utility.yul\":1552:1570   */\n      0x64\n      add\n        /* \"contracts/Eip1967/StandardSt.sol\":929:968  require(success, \"Getting data failed\") */\n    tag_24:\n      mload(0x40)\n      dup1\n      swap2\n      sub\n      swap1\n      revert\n    tag_23:\n        /* \"contracts/Eip1967/StandardSt.sol\":996:1000  data */\n      dup1\n        /* \"contracts/Eip1967/StandardSt.sol\":985:1012  abi.decode(data, (uint256)) */\n      dup1\n      0x20\n      add\n      swap1\n      mload\n      dup2\n      add\n      swap1\n      tag_26\n      swap2\n      swap1\n      tag_27\n      jump\t// in\n    tag_26:\n        /* \"contracts/Eip1967/StandardSt.sol\":978:1012  return abi.decode(data, (uint256)) */\n      swap5\n        /* \"contracts/Eip1967/StandardSt.sol\":713:1019  function getData(bytes32 key) external view returns (uint256) {... */\n      swap4\n      pop\n      pop\n      pop\n      pop\n      jump\t// out\n        /* \"contracts/Eip1967/StandardSt.sol\":453:707  function setData(bytes32 key, uint256 value) external {... */\n    tag_14:\n        /* \"contracts/Eip1967/StandardSt.sol\":518:530  bool success */\n      0x00\n        /* \"contracts/Eip1967/StandardSt.sol\":536:551  _storageManager */\n      dup1\n      sload\n        /* \"contracts/Eip1967/StandardSt.sol\":578:641  abi.encodeWithSignature(\"setData(bytes32,uint256)\", key, value) */\n      mload(0x40)\n      0x24\n      dup2\n      add\n        /* \"#utility.yul\":1944:1969   */\n      dup6\n      swap1\n      mstore\n        /* \"#utility.yul\":1985:2003   */\n      0x44\n      dup2\n      add\n        /* \"#utility.yul\":1978:2012   */\n      dup5\n      swap1\n      mstore\n        /* \"contracts/Eip1967/StandardSt.sol\":536:551  _storageManager */\n      0xffffffffffffffffffffffffffffffffffffffff\n      swap1\n      swap2\n      and\n      swap1\n        /* \"#utility.yul\":1917:1935   */\n      0x64\n      add\n        /* \"contracts/Eip1967/StandardSt.sol\":578:641  abi.encodeWithSignature(\"setData(bytes32,uint256)\", key, value) */\n      0x40\n      dup1\n      mload\n      not(0x1f)\n      dup2\n      dup5\n      sub\n      add\n      dup2\n      mstore\n      swap2\n      dup2\n      mstore\n      0x20\n      dup3\n      add\n      dup1\n      mload\n      0xffffffffffffffffffffffffffffffffffffffffffffffffffffffff\n      and\n      0xee58e2ec00000000000000000000000000000000000000000000000000000000\n      or\n      swap1\n      mstore\n        /* \"contracts/Eip1967/StandardSt.sol\":536:651  _storageManager.delegatecall(... */\n      mload\n      tag_31\n      swap2\n        /* \"contracts/Eip1967/StandardSt.sol\":578:641  abi.encodeWithSignature(\"setData(bytes32,uint256)\", key, value) */\n      swap1\n        /* \"contracts/Eip1967/StandardSt.sol\":536:651  _storageManager.delegatecall(... */\n      tag_19\n      jump\t// in\n    tag_31:\n      0x00\n      mload(0x40)\n      dup1\n      dup4\n      sub\n      dup2\n      dup6\n      gas\n      delegatecall\n      swap2\n      pop\n      pop\n      returndatasize\n      dup1\n      0x00\n      dup2\n      eq\n      tag_34\n      jumpi\n      mload(0x40)\n      swap2\n      pop\n      and(add(returndatasize, 0x3f), not(0x1f))\n      dup3\n      add\n      0x40\n      mstore\n      returndatasize\n      dup3\n      mstore\n      returndatasize\n      0x00\n      0x20\n      dup5\n      add\n      returndatacopy\n      jump(tag_33)\n    tag_34:\n      0x60\n      swap2\n      pop\n    tag_33:\n      pop\n        /* \"contracts/Eip1967/StandardSt.sol\":517:651  (bool success, ) = _storageManager.delegatecall(... */\n      pop\n      swap1\n      pop\n        /* \"contracts/Eip1967/StandardSt.sol\":669:676  success */\n      dup1\n        /* \"contracts/Eip1967/StandardSt.sol\":661:700  require(success, \"Setting data failed\") */\n      tag_35\n      jumpi\n      mload(0x40)\n      shl(0xe5, 0x461bcd)\n      dup2\n      mstore\n        /* \"#utility.yul\":2225:2227   */\n      0x20\n        /* \"contracts/Eip1967/StandardSt.sol\":661:700  require(success, \"Setting data failed\") */\n      0x04\n      dup3\n      add\n        /* \"#utility.yul\":2207:2228   */\n      mstore\n        /* \"#utility.yul\":2264:2266   */\n      0x13\n        /* \"#utility.yul\":2244:2262   */\n      0x24\n      dup3\n      add\n        /* \"#utility.yul\":2237:2267   */\n      mstore\n        /* \"#utility.yul\":2303:2324   */\n      0x53657474696e672064617461206661696c656400000000000000000000000000\n        /* \"#utility.yul\":2283:2301   */\n      0x44\n      dup3\n      add\n        /* \"#utility.yul\":2276:2325   */\n      mstore\n        /* \"#utility.yul\":2342:2360   */\n      0x64\n      add\n        /* \"contracts/Eip1967/StandardSt.sol\":661:700  require(success, \"Setting data failed\") */\n      tag_24\n        /* \"#utility.yul\":2023:2366   */\n      jump\n        /* \"contracts/Eip1967/StandardSt.sol\":661:700  require(success, \"Setting data failed\") */\n    tag_35:\n        /* \"contracts/Eip1967/StandardSt.sol\":507:707  {... */\n      pop\n        /* \"contracts/Eip1967/StandardSt.sol\":453:707  function setData(bytes32 key, uint256 value) external {... */\n      pop\n      pop\n      jump\t// out\n        /* \"#utility.yul\":14:194   */\n    tag_7:\n        /* \"#utility.yul\":73:79   */\n      0x00\n        /* \"#utility.yul\":126:128   */\n      0x20\n        /* \"#utility.yul\":114:123   */\n      dup3\n        /* \"#utility.yul\":105:112   */\n      dup5\n        /* \"#utility.yul\":101:124   */\n      sub\n        /* \"#utility.yul\":97:129   */\n      slt\n        /* \"#utility.yul\":94:146   */\n      iszero\n      tag_40\n      jumpi\n        /* \"#utility.yul\":142:143   */\n      0x00\n        /* \"#utility.yul\":139:140   */\n      dup1\n        /* \"#utility.yul\":132:144   */\n      revert\n        /* \"#utility.yul\":94:146   */\n    tag_40:\n      pop\n        /* \"#utility.yul\":165:188   */\n      calldataload\n      swap2\n        /* \"#utility.yul\":14:194   */\n      swap1\n      pop\n      jump\t// out\n        /* \"#utility.yul\":381:629   */\n    tag_13:\n        /* \"#utility.yul\":449:455   */\n      0x00\n        /* \"#utility.yul\":457:463   */\n      dup1\n        /* \"#utility.yul\":510:512   */\n      0x40\n        /* \"#utility.yul\":498:507   */\n      dup4\n        /* \"#utility.yul\":489:496   */\n      dup6\n        /* \"#utility.yul\":485:508   */\n      sub\n        /* \"#utility.yul\":481:513   */\n      slt\n        /* \"#utility.yul\":478:530   */\n      iszero\n      tag_43\n      jumpi\n        /* \"#utility.yul\":526:527   */\n      0x00\n        /* \"#utility.yul\":523:524   */\n      dup1\n        /* \"#utility.yul\":516:528   */\n      revert\n        /* \"#utility.yul\":478:530   */\n    tag_43:\n      pop\n      pop\n        /* \"#utility.yul\":549:572   */\n      dup1\n      calldataload\n      swap3\n        /* \"#utility.yul\":619:621   */\n      0x20\n        /* \"#utility.yul\":604:622   */\n      swap1\n      swap2\n      add\n        /* \"#utility.yul\":591:623   */\n      calldataload\n      swap2\n      pop\n        /* \"#utility.yul\":381:629   */\n      jump\t// out\n        /* \"#utility.yul\":816:1228   */\n    tag_19:\n        /* \"#utility.yul\":945:948   */\n      0x00\n        /* \"#utility.yul\":983:989   */\n      dup3\n        /* \"#utility.yul\":977:990   */\n      mload\n        /* \"#utility.yul\":1008:1009   */\n      0x00\n        /* \"#utility.yul\":1018:1147   */\n    tag_46:\n        /* \"#utility.yul\":1032:1038   */\n      dup2\n        /* \"#utility.yul\":1029:1030   */\n      dup2\n        /* \"#utility.yul\":1026:1039   */\n      lt\n        /* \"#utility.yul\":1018:1147   */\n      iszero\n      tag_48\n      jumpi\n        /* \"#utility.yul\":1130:1134   */\n      0x20\n        /* \"#utility.yul\":1114:1128   */\n      dup2\n      dup7\n      add\n        /* \"#utility.yul\":1110:1135   */\n      dup2\n      add\n        /* \"#utility.yul\":1104:1136   */\n      mload\n        /* \"#utility.yul\":1091:1102   */\n      dup6\n      dup4\n      add\n        /* \"#utility.yul\":1084:1137   */\n      mstore\n        /* \"#utility.yul\":1047:1059   */\n      add\n        /* \"#utility.yul\":1018:1147   */\n      jump(tag_46)\n    tag_48:\n      pop\n        /* \"#utility.yul\":1202:1203   */\n      0x00\n        /* \"#utility.yul\":1166:1182   */\n      swap3\n      add\n        /* \"#utility.yul\":1191:1204   */\n      swap2\n      dup3\n      mstore\n      pop\n        /* \"#utility.yul\":1166:1182   */\n      swap2\n        /* \"#utility.yul\":816:1228   */\n      swap1\n      pop\n      jump\t// out\n        /* \"#utility.yul\":1581:1765   */\n    tag_27:\n        /* \"#utility.yul\":1651:1657   */\n      0x00\n        /* \"#utility.yul\":1704:1706   */\n      0x20\n        /* \"#utility.yul\":1692:1701   */\n      dup3\n        /* \"#utility.yul\":1683:1690   */\n      dup5\n        /* \"#utility.yul\":1679:1702   */\n      sub\n        /* \"#utility.yul\":1675:1707   */\n      slt\n        /* \"#utility.yul\":1672:1724   */\n      iszero\n      tag_51\n      jumpi\n        /* \"#utility.yul\":1720:1721   */\n      0x00\n        /* \"#utility.yul\":1717:1718   */\n      dup1\n        /* \"#utility.yul\":1710:1722   */\n      revert\n        /* \"#utility.yul\":1672:1724   */\n    tag_51:\n      pop\n        /* \"#utility.yul\":1743:1759   */\n      mload\n      swap2\n        /* \"#utility.yul\":1581:1765   */\n      swap1\n      pop\n      jump\t// out\n\n    auxdata: 0xa2646970667358221220eaf96ec2ab7e71b17fd4e22920d756a562e7ace7e9ebab057ce20003b81dabf364736f6c63430008180033\n}\n",
				"bytecode": {
					"linkReferences": {},
					"object": "608060405234801561000f575f80fd5b5060405161041438038061041483398101604081905261002e91610052565b5f80546001600160a01b0319166001600160a01b039290921691909117905561007f565b5f60208284031215610062575f80fd5b81516001600160a01b0381168114610078575f80fd5b9392505050565b6103888061008c5f395ff3fe608060405234801561000f575f80fd5b5060043610610034575f3560e01c806354f6127f14610038578063ee58e2ec1461005d575b5f80fd5b61004b6100463660046102d8565b610072565b60405190815260200160405180910390f35b61007061006b3660046102ef565b6101b2565b005b5f8054604051602481018490528291829173ffffffffffffffffffffffffffffffffffffffff9091169060440160408051601f198184030181529181526020820180517bffffffffffffffffffffffffffffffffffffffffffffffffffffffff167f54f6127f0000000000000000000000000000000000000000000000000000000017905251610102919061030f565b5f60405180830381855afa9150503d805f811461013a576040519150601f19603f3d011682016040523d82523d5f602084013e61013f565b606091505b5091509150816101965760405162461bcd60e51b815260206004820152601360248201527f47657474696e672064617461206661696c65640000000000000000000000000060448201526064015b60405180910390fd5b808060200190518101906101aa919061033b565b949350505050565b5f8054604051602481018590526044810184905273ffffffffffffffffffffffffffffffffffffffff9091169060640160408051601f198184030181529181526020820180517bffffffffffffffffffffffffffffffffffffffffffffffffffffffff167fee58e2ec0000000000000000000000000000000000000000000000000000000017905251610245919061030f565b5f60405180830381855af49150503d805f811461027d576040519150601f19603f3d011682016040523d82523d5f602084013e610282565b606091505b50509050806102d35760405162461bcd60e51b815260206004820152601360248201527f53657474696e672064617461206661696c656400000000000000000000000000604482015260640161018d565b505050565b5f602082840312156102e8575f80fd5b5035919050565b5f8060408385031215610300575f80fd5b50508035926020909101359150565b5f82515f5b8181101561032e5760208186018101518583015201610314565b505f920191825250919050565b5f6020828403121561034b575f80fd5b505191905056fea2646970667358221220eaf96ec2ab7e71b17fd4e22920d756a562e7ace7e9ebab057ce20003b81dabf364736f6c63430008180033",
					"opcodes": "PUSH1 0x80 PUSH1 0x40 MSTORE CALLVALUE DUP1 ISZERO PUSH2 0xF JUMPI PUSH0 DUP1 REVERT JUMPDEST POP PUSH1 0x40 MLOAD PUSH2 0x414 CODESIZE SUB DUP1 PUSH2 0x414 DUP4 CODECOPY DUP2 ADD PUSH1 0x40 DUP2 SWAP1 MSTORE PUSH2 0x2E SWAP2 PUSH2 0x52 JUMP JUMPDEST PUSH0 DUP1 SLOAD PUSH1 0x1 PUSH1 0x1 PUSH1 0xA0 SHL SUB NOT AND PUSH1 0x1 PUSH1 0x1 PUSH1 0xA0 SHL SUB SWAP3 SWAP1 SWAP3 AND SWAP2 SWAP1 SWAP2 OR SWAP1 SSTORE PUSH2 0x7F JUMP JUMPDEST PUSH0 PUSH1 0x20 DUP3 DUP5 SUB SLT ISZERO PUSH2 0x62 JUMPI PUSH0 DUP1 REVERT JUMPDEST DUP2 MLOAD PUSH1 0x1 PUSH1 0x1 PUSH1 0xA0 SHL SUB DUP2 AND DUP2 EQ PUSH2 0x78 JUMPI PUSH0 DUP1 REVERT JUMPDEST SWAP4 SWAP3 POP POP POP JUMP JUMPDEST PUSH2 0x388 DUP1 PUSH2 0x8C PUSH0 CODECOPY PUSH0 RETURN INVALID PUSH1 0x80 PUSH1 0x40 MSTORE CALLVALUE DUP1 ISZERO PUSH2 0xF JUMPI PUSH0 DUP1 REVERT JUMPDEST POP PUSH1 0x4 CALLDATASIZE LT PUSH2 0x34 JUMPI PUSH0 CALLDATALOAD PUSH1 0xE0 SHR DUP1 PUSH4 0x54F6127F EQ PUSH2 0x38 JUMPI DUP1 PUSH4 0xEE58E2EC EQ PUSH2 0x5D JUMPI JUMPDEST PUSH0 DUP1 REVERT JUMPDEST PUSH2 0x4B PUSH2 0x46 CALLDATASIZE PUSH1 0x4 PUSH2 0x2D8 JUMP JUMPDEST PUSH2 0x72 JUMP JUMPDEST PUSH1 0x40 MLOAD SWAP1 DUP2 MSTORE PUSH1 0x20 ADD PUSH1 0x40 MLOAD DUP1 SWAP2 SUB SWAP1 RETURN JUMPDEST PUSH2 0x70 PUSH2 0x6B CALLDATASIZE PUSH1 0x4 PUSH2 0x2EF JUMP JUMPDEST PUSH2 0x1B2 JUMP JUMPDEST STOP JUMPDEST PUSH0 DUP1 SLOAD PUSH1 0x40 MLOAD PUSH1 0x24 DUP2 ADD DUP5 SWAP1 MSTORE DUP3 SWAP2 DUP3 SWAP2 PUSH20 0xFFFFFFFFFFFFFFFFFFFFFFFFFFFFFFFFFFFFFFFF SWAP1 SWAP2 AND SWAP1 PUSH1 0x44 ADD PUSH1 0x40 DUP1 MLOAD PUSH1 0x1F NOT DUP2 DUP5 SUB ADD DUP2 MSTORE SWAP2 DUP2 MSTORE PUSH1 0x20 DUP3 ADD DUP1 MLOAD PUSH28 0xFFFFFFFFFFFFFFFFFFFFFFFFFFFFFFFFFFFFFFFFFFFFFFFFFFFFFFFF AND PUSH32 0x54F6127F00000000000000000000000000000000000000000000000000000000 OR SWAP1 MSTORE MLOAD PUSH2 0x102 SWAP2 SWAP1 PUSH2 0x30F JUMP JUMPDEST PUSH0 PUSH1 0x40 MLOAD DUP1 DUP4 SUB DUP2 DUP6 GAS STATICCALL SWAP2 POP POP RETURNDATASIZE DUP1 PUSH0 DUP2 EQ PUSH2 0x13A JUMPI PUSH1 0x40 MLOAD SWAP2 POP PUSH1 0x1F NOT PUSH1 0x3F RETURNDATASIZE ADD AND DUP3 ADD PUSH1 0x40 MSTORE RETURNDATASIZE DUP3 MSTORE RETURNDATASIZE PUSH0 PUSH1 0x20 DUP5 ADD RETURNDATACOPY PUSH2 0x13F JUMP JUMPDEST PUSH1 0x60 SWAP2 POP JUMPDEST POP SWAP2 POP SWAP2 POP DUP2 PUSH2 0x196 JUMPI PUSH1 0x40 MLOAD PUSH3 0x461BCD PUSH1 0xE5 SHL DUP2 MSTORE PUSH1 0x20 PUSH1 0x4 DUP3 ADD MSTORE PUSH1 0x13 PUSH1 0x24 DUP3 ADD MSTORE PUSH32 0x47657474696E672064617461206661696C656400000000000000000000000000 PUSH1 0x44 DUP3 ADD MSTORE PUSH1 0x64 ADD JUMPDEST PUSH1 0x40 MLOAD DUP1 SWAP2 SUB SWAP1 REVERT JUMPDEST DUP1 DUP1 PUSH1 0x20 ADD SWAP1 MLOAD DUP2 ADD SWAP1 PUSH2 0x1AA SWAP2 SWAP1 PUSH2 0x33B JUMP JUMPDEST SWAP5 SWAP4 POP POP POP POP JUMP JUMPDEST PUSH0 DUP1 SLOAD PUSH1 0x40 MLOAD PUSH1 0x24 DUP2 ADD DUP6 SWAP1 MSTORE PUSH1 0x44 DUP2 ADD DUP5 SWAP1 MSTORE PUSH20 0xFFFFFFFFFFFFFFFFFFFFFFFFFFFFFFFFFFFFFFFF SWAP1 SWAP2 AND SWAP1 PUSH1 0x64 ADD PUSH1 0x40 DUP1 MLOAD PUSH1 0x1F NOT DUP2 DUP5 SUB ADD DUP2 MSTORE SWAP2 DUP2 MSTORE PUSH1 0x20 DUP3 ADD DUP1 MLOAD PUSH28 0xFFFFFFFFFFFFFFFFFFFFFFFFFFFFFFFFFFFFFFFFFFFFFFFFFFFFFFFF AND PUSH32 0xEE58E2EC00000000000000000000000000000000000000000000000000000000 OR SWAP1 MSTORE MLOAD PUSH2 0x245 SWAP2 SWAP1 PUSH2 0x30F JUMP JUMPDEST PUSH0 PUSH1 0x40 MLOAD DUP1 DUP4 SUB DUP2 DUP6 GAS DELEGATECALL SWAP2 POP POP RETURNDATASIZE DUP1 PUSH0 DUP2 EQ PUSH2 0x27D JUMPI PUSH1 0x40 MLOAD SWAP2 POP PUSH1 0x1F NOT PUSH1 0x3F RETURNDATASIZE ADD AND DUP3 ADD PUSH1 0x40 MSTORE RETURNDATASIZE DUP3 MSTORE RETURNDATASIZE PUSH0 PUSH1 0x20 DUP5 ADD RETURNDATACOPY PUSH2 0x282 JUMP JUMPDEST PUSH1 0x60 SWAP2 POP JUMPDEST POP POP SWAP1 POP DUP1 PUSH2 0x2D3 JUMPI PUSH1 0x40 MLOAD PUSH3 0x461BCD PUSH1 0xE5 SHL DUP2 MSTORE PUSH1 0x20 PUSH1 0x4 DUP3 ADD MSTORE PUSH1 0x13 PUSH1 0x24 DUP3 ADD MSTORE PUSH32 0x53657474696E672064617461206661696C656400000000000000000000000000 PUSH1 0x44 DUP3 ADD MSTORE PUSH1 0x64 ADD PUSH2 0x18D JUMP JUMPDEST POP POP POP JUMP JUMPDEST PUSH0 PUSH1 0x20 DUP3 DUP5 SUB SLT ISZERO PUSH2 0x2E8 JUMPI PUSH0 DUP1 REVERT JUMPDEST POP CALLDATALOAD SWAP2 SWAP1 POP JUMP JUMPDEST PUSH0 DUP1 PUSH1 0x40 DUP4 DUP6 SUB SLT ISZERO PUSH2 0x300 JUMPI PUSH0 DUP1 REVERT JUMPDEST POP POP DUP1 CALLDATALOAD SWAP3 PUSH1 0x20 SWAP1 SWAP2 ADD CALLDATALOAD SWAP2 POP JUMP JUMPDEST PUSH0 DUP3 MLOAD PUSH0 JUMPDEST DUP2 DUP2 LT ISZERO PUSH2 0x32E JUMPI PUSH1 0x20 DUP2 DUP7 ADD DUP2 ADD MLOAD DUP6 DUP4 ADD MSTORE ADD PUSH2 0x314 JUMP JUMPDEST POP PUSH0 SWAP3 ADD SWAP2 DUP3 MSTORE POP SWAP2 SWAP1 POP JUMP JUMPDEST PUSH0 PUSH1 0x20 DUP3 DUP5 SUB SLT ISZERO PUSH2 0x34B JUMPI PUSH0 DUP1 REVERT JUMPDEST POP MLOAD SWAP2 SWAP1 POP JUMP INVALID LOG2 PUSH5 0x6970667358 0x22 SLT KECCAK256 0xEA 0xF9 PUSH15 0xC2AB7E71B17FD4E22920D756A562E7 0xAC 0xE7 0xE9 0xEB 0xAB SDIV PUSH29 0xE20003B81DABF364736F6C634300081800330000000000000000000000 "
				},
				"gasEstimates": {
					"creation": {
						"codeDepositCost": "180800",
						"executionCost": "infinite",
						"totalCost": "infinite"
					},
					"external": {
						"getData(bytes32)": "infinite",
						"setData(bytes32,uint256)": "infinite"
					}
				},
				"methodIdentifiers": {
					"getData(bytes32)": "54f6127f",
					"setData(bytes32,uint256)": "ee58e2ec"
				}
			},
			"storageLayout": {
				"storage": [
					{
						"astId": 34,
						"contract": "contracts/Eip1967/StandardSt.sol:MyContract",
						"label": "_storageManager",
						"offset": 0,
						"slot": "0",
						"type": "t_address"
					}
				],
				"types": {
					"t_address": {
						"encoding": "inplace",
						"label": "address",
						"numberOfBytes": "20"
					}
				}
			},
			"userdoc": {
				"kind": "user",
				"methods": {},
				"version": 1
			}
		}
	}
}