{
	"contracts/Eip1967/Eip1967Contract.sol": {
		"Eip1967LogicContract": {
			"abi": [
				{
					"inputs": [
						{
							"internalType": "string",
							"name": "_nameOfCandidate",
							"type": "string"
						},
						{
							"internalType": "uint256",
							"name": "_voterCardNo",
							"type": "uint256"
						},
						{
							"internalType": "string",
							"name": "_partyName",
							"type": "string"
						}
					],
					"name": "addCandidateDetails",
					"outputs": [],
					"stateMutability": "nonpayable",
					"type": "function"
				},
				{
					"inputs": [
						{
							"internalType": "address",
							"name": "_voterAddress",
							"type": "address"
						},
						{
							"internalType": "uint256",
							"name": "_voterCardNo",
							"type": "uint256"
						},
						{
							"internalType": "uint256",
							"name": "_partyNumber",
							"type": "uint256"
						}
					],
					"name": "addVoterDetails",
					"outputs": [],
					"stateMutability": "nonpayable",
					"type": "function"
				},
				{
					"inputs": [
						{
							"internalType": "uint256",
							"name": "",
							"type": "uint256"
						}
					],
					"name": "candidateDetails",
					"outputs": [
						{
							"internalType": "string",
							"name": "nameOfCandidate",
							"type": "string"
						},
						{
							"internalType": "bytes32",
							"name": "voterCardNo",
							"type": "bytes32"
						},
						{
							"internalType": "string",
							"name": "partyName",
							"type": "string"
						},
						{
							"internalType": "uint256",
							"name": "totalVotes",
							"type": "uint256"
						}
					],
					"stateMutability": "view",
					"type": "function"
				},
				{
					"inputs": [
						{
							"internalType": "uint256",
							"name": "_voterCardNo",
							"type": "uint256"
						}
					],
					"name": "checkCandidateStatus",
					"outputs": [
						{
							"internalType": "bool",
							"name": "",
							"type": "bool"
						}
					],
					"stateMutability": "view",
					"type": "function"
				},
				{
					"inputs": [
						{
							"internalType": "uint256",
							"name": "_voterCardNo",
							"type": "uint256"
						}
					],
					"name": "checkVoterStatus",
					"outputs": [
						{
							"internalType": "bool",
							"name": "",
							"type": "bool"
						}
					],
					"stateMutability": "view",
					"type": "function"
				},
				{
					"inputs": [
						{
							"internalType": "bytes32",
							"name": "",
							"type": "bytes32"
						}
					],
					"name": "hasRegistered",
					"outputs": [
						{
							"internalType": "bool",
							"name": "",
							"type": "bool"
						}
					],
					"stateMutability": "view",
					"type": "function"
				},
				{
					"inputs": [
						{
							"internalType": "bytes32",
							"name": "",
							"type": "bytes32"
						}
					],
					"name": "hasVoted",
					"outputs": [
						{
							"internalType": "bool",
							"name": "",
							"type": "bool"
						}
					],
					"stateMutability": "view",
					"type": "function"
				},
				{
					"inputs": [
						{
							"internalType": "uint256",
							"name": "",
							"type": "uint256"
						}
					],
					"name": "listOfParties",
					"outputs": [
						{
							"internalType": "string",
							"name": "",
							"type": "string"
						}
					],
					"stateMutability": "view",
					"type": "function"
				},
				{
					"inputs": [],
					"name": "partyCounter",
					"outputs": [
						{
							"internalType": "uint256",
							"name": "",
							"type": "uint256"
						}
					],
					"stateMutability": "view",
					"type": "function"
				},
				{
					"inputs": [],
					"name": "result",
					"outputs": [
						{
							"internalType": "string",
							"name": "",
							"type": "string"
						}
					],
					"stateMutability": "nonpayable",
					"type": "function"
				},
				{
					"inputs": [],
					"name": "voterCounter",
					"outputs": [
						{
							"internalType": "uint256",
							"name": "",
							"type": "uint256"
						}
					],
					"stateMutability": "view",
					"type": "function"
				},
				{
					"inputs": [
						{
							"internalType": "bytes32",
							"name": "",
							"type": "bytes32"
						}
					],
					"name": "voterDetails",
					"outputs": [
						{
							"internalType": "address",
							"name": "voterAddress",
							"type": "address"
						},
						{
							"internalType": "uint256",
							"name": "partyNumber",
							"type": "uint256"
						}
					],
					"stateMutability": "view",
					"type": "function"
				},
				{
					"inputs": [],
					"name": "winner",
					"outputs": [
						{
							"internalType": "string",
							"name": "",
							"type": "string"
						}
					],
					"stateMutability": "view",
					"type": "function"
				}
			],
			"devdoc": {
				"kind": "dev",
				"methods": {},
				"version": 1
			},
			"evm": {
				"assembly": "    /* \"contracts/Eip1967/Eip1967Contract.sol\":55:2918  contract Eip1967LogicContract {... */\n  mstore(0x40, 0x80)\n  callvalue\n  dup1\n  iszero\n  tag_1\n  jumpi\n  0x00\n  dup1\n  revert\ntag_1:\n  pop\n  dataSize(sub_0)\n  dup1\n  dataOffset(sub_0)\n  0x00\n  codecopy\n  0x00\n  return\nstop\n\nsub_0: assembly {\n        /* \"contracts/Eip1967/Eip1967Contract.sol\":55:2918  contract Eip1967LogicContract {... */\n      mstore(0x40, 0x80)\n      callvalue\n      dup1\n      iszero\n      tag_1\n      jumpi\n      0x00\n      dup1\n      revert\n    tag_1:\n      pop\n      jumpi(tag_2, lt(calldatasize, 0x04))\n      shr(0xe0, calldataload(0x00))\n      dup1\n      0x65372147\n      gt\n      tag_16\n      jumpi\n      dup1\n      0xb2fb8e37\n      gt\n      tag_17\n      jumpi\n      dup1\n      0xb2fb8e37\n      eq\n      tag_12\n      jumpi\n      dup1\n      0xc93346ab\n      eq\n      tag_13\n      jumpi\n      dup1\n      0xdfbf53ae\n      eq\n      tag_14\n      jumpi\n      dup1\n      0xe9d729ae\n      eq\n      tag_15\n      jumpi\n      0x00\n      dup1\n      revert\n    tag_17:\n      dup1\n      0x65372147\n      eq\n      tag_9\n      jumpi\n      dup1\n      0x6b0eec1c\n      eq\n      tag_10\n      jumpi\n      dup1\n      0x7a26dd31\n      eq\n      tag_11\n      jumpi\n      0x00\n      dup1\n      revert\n    tag_16:\n      dup1\n      0x1e51c9ea\n      gt\n      tag_18\n      jumpi\n      dup1\n      0x1e51c9ea\n      eq\n      tag_6\n      jumpi\n      dup1\n      0x4d50ba3a\n      eq\n      tag_7\n      jumpi\n      dup1\n      0x6247e532\n      eq\n      tag_8\n      jumpi\n      0x00\n      dup1\n      revert\n    tag_18:\n      dup1\n      0x0500894d\n      eq\n      tag_3\n      jumpi\n      dup1\n      0x13732d79\n      eq\n      tag_4\n      jumpi\n      dup1\n      0x1b4613cb\n      eq\n      tag_5\n      jumpi\n    tag_2:\n      0x00\n      dup1\n      revert\n        /* \"contracts/Eip1967/Eip1967Contract.sol\":557:584  uint256 public partyCounter */\n    tag_3:\n      tag_19\n      sload(0x04)\n      dup2\n      jump\n    tag_19:\n      mload(0x40)\n        /* \"#utility.yul\":160:185   */\n      swap1\n      dup2\n      mstore\n        /* \"#utility.yul\":148:150   */\n      0x20\n        /* \"#utility.yul\":133:151   */\n      add\n        /* \"contracts/Eip1967/Eip1967Contract.sol\":557:584  uint256 public partyCounter */\n    tag_21:\n      mload(0x40)\n      dup1\n      swap2\n      sub\n      swap1\n      return\n        /* \"contracts/Eip1967/Eip1967Contract.sol\":685:1405  function addCandidateDetails(... */\n    tag_4:\n      tag_23\n      tag_24\n      calldatasize\n      0x04\n      tag_25\n      jump\t// in\n    tag_24:\n      tag_26\n      jump\t// in\n    tag_23:\n      stop\n        /* \"contracts/Eip1967/Eip1967Contract.sol\":459:499  mapping(bytes32 => bool) public hasVoted */\n    tag_5:\n      tag_27\n      tag_28\n      calldatasize\n      0x04\n      tag_29\n      jump\t// in\n    tag_28:\n      mstore(0x20, 0x02)\n      0x00\n      swap1\n      dup2\n      mstore\n      0x40\n      swap1\n      keccak256\n      sload\n      0xff\n      and\n      dup2\n      jump\n    tag_27:\n      mload(0x40)\n        /* \"#utility.yul\":2075:2089   */\n      swap1\n      iszero\n        /* \"#utility.yul\":2068:2090   */\n      iszero\n        /* \"#utility.yul\":2050:2091   */\n      dup2\n      mstore\n        /* \"#utility.yul\":2038:2040   */\n      0x20\n        /* \"#utility.yul\":2023:2041   */\n      add\n        /* \"contracts/Eip1967/Eip1967Contract.sol\":459:499  mapping(bytes32 => bool) public hasVoted */\n      tag_21\n        /* \"#utility.yul\":1910:2097   */\n      jump\n        /* \"contracts/Eip1967/Eip1967Contract.sol\":335:387  mapping(bytes32 => VoterDetails) public voterDetails */\n    tag_6:\n      tag_33\n      tag_34\n      calldatasize\n      0x04\n      tag_29\n      jump\t// in\n    tag_34:\n      0x00\n      0x20\n      dup2\n      swap1\n      mstore\n      swap1\n      dup2\n      mstore\n      0x40\n      swap1\n      keccak256\n      dup1\n      sload\n      0x01\n      swap1\n      swap2\n      add\n      sload\n      0xffffffffffffffffffffffffffffffffffffffff\n      swap1\n      swap2\n      and\n      swap1\n      dup3\n      jump\n    tag_33:\n      0x40\n      dup1\n      mload\n        /* \"#utility.yul\":2306:2348   */\n      0xffffffffffffffffffffffffffffffffffffffff\n        /* \"#utility.yul\":2294:2349   */\n      swap1\n      swap4\n      and\n        /* \"#utility.yul\":2276:2350   */\n      dup4\n      mstore\n        /* \"#utility.yul\":2381:2383   */\n      0x20\n        /* \"#utility.yul\":2366:2384   */\n      dup4\n      add\n        /* \"#utility.yul\":2359:2393   */\n      swap2\n      swap1\n      swap2\n      mstore\n        /* \"#utility.yul\":2249:2267   */\n      add\n        /* \"contracts/Eip1967/Eip1967Contract.sol\":335:387  mapping(bytes32 => VoterDetails) public voterDetails */\n      tag_21\n        /* \"#utility.yul\":2102:2399   */\n      jump\n        /* \"contracts/Eip1967/Eip1967Contract.sol\":590:617  uint256 public voterCounter */\n    tag_7:\n      tag_19\n      sload(0x05)\n      dup2\n      jump\n        /* \"contracts/Eip1967/Eip1967Contract.sol\":393:453  mapping(uint256 => CandidateDetails) public candidateDetails */\n    tag_8:\n      tag_41\n      tag_42\n      calldatasize\n      0x04\n      tag_29\n      jump\t// in\n    tag_42:\n      tag_44\n      jump\t// in\n    tag_41:\n      mload(0x40)\n      tag_21\n      swap5\n      swap4\n      swap3\n      swap2\n      swap1\n      tag_46\n      jump\t// in\n        /* \"contracts/Eip1967/Eip1967Contract.sol\":2509:2916  function result() public returns (string memory) {... */\n    tag_9:\n      tag_47\n      tag_48\n      jump\t// in\n    tag_47:\n      mload(0x40)\n      tag_21\n      swap2\n      swap1\n      tag_50\n      jump\t// in\n        /* \"contracts/Eip1967/Eip1967Contract.sol\":505:550  mapping(bytes32 => bool) public hasRegistered */\n    tag_10:\n      tag_27\n      tag_52\n      calldatasize\n      0x04\n      tag_29\n      jump\t// in\n    tag_52:\n      mstore(0x20, 0x03)\n      0x00\n      swap1\n      dup2\n      mstore\n      0x40\n      swap1\n      keccak256\n      sload\n      0xff\n      and\n      dup2\n      jump\n        /* \"contracts/Eip1967/Eip1967Contract.sol\":1643:2308  function addVoterDetails(... */\n    tag_11:\n      tag_23\n      tag_56\n      calldatasize\n      0x04\n      tag_57\n      jump\t// in\n    tag_56:\n      tag_58\n      jump\t// in\n        /* \"contracts/Eip1967/Eip1967Contract.sol\":1411:1637  function checkCandidateStatus(uint256 _voterCardNo)... */\n    tag_12:\n      tag_27\n      tag_60\n      calldatasize\n      0x04\n      tag_29\n      jump\t// in\n    tag_60:\n      tag_61\n      jump\t// in\n        /* \"contracts/Eip1967/Eip1967Contract.sol\":2314:2503  function checkVoterStatus(uint256 _voterCardNo) public view returns (bool) {... */\n    tag_13:\n      tag_27\n      tag_64\n      calldatasize\n      0x04\n      tag_29\n      jump\t// in\n    tag_64:\n      tag_65\n      jump\t// in\n        /* \"contracts/Eip1967/Eip1967Contract.sol\":658:678  string public winner */\n    tag_14:\n      tag_47\n      tag_68\n      jump\t// in\n        /* \"contracts/Eip1967/Eip1967Contract.sol\":623:652  string[] public listOfParties */\n    tag_15:\n      tag_47\n      tag_71\n      calldatasize\n      0x04\n      tag_29\n      jump\t// in\n    tag_71:\n      tag_72\n      jump\t// in\n        /* \"contracts/Eip1967/Eip1967Contract.sol\":685:1405  function addCandidateDetails(... */\n    tag_26:\n        /* \"contracts/Eip1967/Eip1967Contract.sol\":841:858  bytes32 voterCard */\n      0x00\n        /* \"contracts/Eip1967/Eip1967Contract.sol\":888:900  _voterCardNo */\n      dup3\n        /* \"contracts/Eip1967/Eip1967Contract.sol\":871:901  abi.encodePacked(_voterCardNo) */\n      add(0x20, mload(0x40))\n      tag_75\n      swap2\n        /* \"#utility.yul\":4353:4372   */\n      dup2\n      mstore\n        /* \"#utility.yul\":4397:4399   */\n      0x20\n        /* \"#utility.yul\":4388:4400   */\n      add\n      swap1\n        /* \"#utility.yul\":4224:4406   */\n      jump\n        /* \"contracts/Eip1967/Eip1967Contract.sol\":871:901  abi.encodePacked(_voterCardNo) */\n    tag_75:\n      0x40\n      dup1\n      mload\n      not(0x1f)\n      dup2\n      dup5\n      sub\n      add\n      dup2\n      mstore\n      swap2\n      dup2\n      mstore\n        /* \"contracts/Eip1967/Eip1967Contract.sol\":861:902  keccak256(abi.encodePacked(_voterCardNo)) */\n      dup2\n      mload\n        /* \"contracts/Eip1967/Eip1967Contract.sol\":871:901  abi.encodePacked(_voterCardNo) */\n      0x20\n        /* \"contracts/Eip1967/Eip1967Contract.sol\":861:902  keccak256(abi.encodePacked(_voterCardNo)) */\n      swap3\n      dup4\n      add\n      keccak256\n        /* \"contracts/Eip1967/Eip1967Contract.sol\":933:957  hasRegistered[voterCard] */\n      0x00\n      dup2\n      dup2\n      mstore\n        /* \"contracts/Eip1967/Eip1967Contract.sol\":933:946  hasRegistered */\n      0x03\n        /* \"contracts/Eip1967/Eip1967Contract.sol\":933:957  hasRegistered[voterCard] */\n      swap1\n      swap4\n      mstore\n      swap2\n      keccak256\n      sload\n        /* \"contracts/Eip1967/Eip1967Contract.sol\":861:902  keccak256(abi.encodePacked(_voterCardNo)) */\n      swap1\n      swap2\n      pop\n        /* \"contracts/Eip1967/Eip1967Contract.sol\":933:957  hasRegistered[voterCard] */\n      0xff\n      and\n        /* \"contracts/Eip1967/Eip1967Contract.sol\":933:966  hasRegistered[voterCard] == false */\n      iszero\n        /* \"contracts/Eip1967/Eip1967Contract.sol\":912:1029  require(... */\n      tag_77\n      jumpi\n      mload(0x40)\n      shl(0xe5, 0x461bcd)\n      dup2\n      mstore\n        /* \"#utility.yul\":4613:4615   */\n      0x20\n        /* \"contracts/Eip1967/Eip1967Contract.sol\":912:1029  require(... */\n      0x04\n      dup3\n      add\n        /* \"#utility.yul\":4595:4616   */\n      mstore\n        /* \"#utility.yul\":4652:4654   */\n      0x25\n        /* \"#utility.yul\":4632:4650   */\n      0x24\n      dup3\n      add\n        /* \"#utility.yul\":4625:4655   */\n      mstore\n        /* \"#utility.yul\":4691:4725   */\n      0x43616e6469646174652068617320616c7265616479206265656e207265676973\n        /* \"#utility.yul\":4671:4689   */\n      0x44\n      dup3\n      add\n        /* \"#utility.yul\":4664:4726   */\n      mstore\n        /* \"#utility.yul\":4762:4769   */\n      0x7465726564000000000000000000000000000000000000000000000000000000\n        /* \"#utility.yul\":4742:4760   */\n      0x64\n      dup3\n      add\n        /* \"#utility.yul\":4735:4770   */\n      mstore\n        /* \"#utility.yul\":4787:4806   */\n      0x84\n      add\n        /* \"contracts/Eip1967/Eip1967Contract.sol\":912:1029  require(... */\n    tag_78:\n      mload(0x40)\n      dup1\n      swap2\n      sub\n      swap1\n      revert\n    tag_77:\n        /* \"contracts/Eip1967/Eip1967Contract.sol\":1062:1074  partyCounter */\n      sload(0x04)\n        /* \"contracts/Eip1967/Eip1967Contract.sol\":1039:1059  uint256 _partyNumber */\n      0x00\n        /* \"contracts/Eip1967/Eip1967Contract.sol\":1084:1114  candidateDetails[_partyNumber] */\n      dup2\n      dup2\n      mstore\n        /* \"contracts/Eip1967/Eip1967Contract.sol\":1084:1100  candidateDetails */\n      0x01\n        /* \"contracts/Eip1967/Eip1967Contract.sol\":1084:1114  candidateDetails[_partyNumber] */\n      0x20\n      mstore\n      0x40\n      swap1\n      keccak256\n        /* \"contracts/Eip1967/Eip1967Contract.sol\":1084:1149  candidateDetails[_partyNumber].nameOfCandidate = _nameOfCandidate */\n      tag_80\n        /* \"contracts/Eip1967/Eip1967Contract.sol\":1133:1149  _nameOfCandidate */\n      dup7\n        /* \"contracts/Eip1967/Eip1967Contract.sol\":1084:1114  candidateDetails[_partyNumber] */\n      dup3\n        /* \"contracts/Eip1967/Eip1967Contract.sol\":1084:1149  candidateDetails[_partyNumber].nameOfCandidate = _nameOfCandidate */\n      tag_81\n      jump\t// in\n    tag_80:\n      pop\n        /* \"contracts/Eip1967/Eip1967Contract.sol\":1159:1189  candidateDetails[_partyNumber] */\n      0x00\n      dup2\n      dup2\n      mstore\n        /* \"contracts/Eip1967/Eip1967Contract.sol\":1159:1175  candidateDetails */\n      0x01\n        /* \"contracts/Eip1967/Eip1967Contract.sol\":1159:1189  candidateDetails[_partyNumber] */\n      0x20\n      dup2\n      swap1\n      mstore\n      0x40\n      swap1\n      swap2\n      keccak256\n        /* \"contracts/Eip1967/Eip1967Contract.sol\":1159:1201  candidateDetails[_partyNumber].voterCardNo */\n      swap1\n      dup2\n      add\n        /* \"contracts/Eip1967/Eip1967Contract.sol\":1159:1213  candidateDetails[_partyNumber].voterCardNo = voterCard */\n      dup4\n      swap1\n      sstore\n        /* \"contracts/Eip1967/Eip1967Contract.sol\":1223:1263  candidateDetails[_partyNumber].partyName */\n      0x02\n      add\n        /* \"contracts/Eip1967/Eip1967Contract.sol\":1223:1276  candidateDetails[_partyNumber].partyName = _partyName */\n      tag_82\n        /* \"contracts/Eip1967/Eip1967Contract.sol\":1266:1276  _partyName */\n      dup5\n        /* \"contracts/Eip1967/Eip1967Contract.sol\":1223:1263  candidateDetails[_partyNumber].partyName */\n      dup3\n        /* \"contracts/Eip1967/Eip1967Contract.sol\":1223:1276  candidateDetails[_partyNumber].partyName = _partyName */\n      tag_81\n      jump\t// in\n    tag_82:\n      pop\n        /* \"contracts/Eip1967/Eip1967Contract.sol\":1286:1310  hasRegistered[voterCard] */\n      0x00\n      dup3\n      dup2\n      mstore\n        /* \"contracts/Eip1967/Eip1967Contract.sol\":1286:1299  hasRegistered */\n      0x03\n        /* \"contracts/Eip1967/Eip1967Contract.sol\":1286:1310  hasRegistered[voterCard] */\n      0x20\n      mstore\n      0x40\n      dup2\n      keccak256\n        /* \"contracts/Eip1967/Eip1967Contract.sol\":1286:1317  hasRegistered[voterCard] = true */\n      dup1\n      sload\n      not(0xff)\n      and\n        /* \"contracts/Eip1967/Eip1967Contract.sol\":1313:1317  true */\n      0x01\n        /* \"contracts/Eip1967/Eip1967Contract.sol\":1286:1317  hasRegistered[voterCard] = true */\n      swap1\n      dup2\n      or\n      swap1\n      swap2\n      sstore\n        /* \"contracts/Eip1967/Eip1967Contract.sol\":1327:1340  listOfParties */\n      0x06\n        /* \"contracts/Eip1967/Eip1967Contract.sol\":1327:1357  listOfParties.push(_partyName) */\n      dup1\n      sload\n      swap2\n      dup3\n      add\n      dup2\n      sstore\n      swap1\n      swap2\n      mstore\n      0xf652222313e28459528d920b65115c16c04f3efc82aaedc97be59f3f377c0d3f\n      add\n      tag_84\n        /* \"contracts/Eip1967/Eip1967Contract.sol\":1346:1356  _partyName */\n      dup5\n        /* \"contracts/Eip1967/Eip1967Contract.sol\":1327:1357  listOfParties.push(_partyName) */\n      dup3\n      tag_81\n      jump\t// in\n    tag_84:\n      pop\n        /* \"contracts/Eip1967/Eip1967Contract.sol\":1382:1394  partyCounter */\n      sload(0x04)\n        /* \"contracts/Eip1967/Eip1967Contract.sol\":1382:1398  partyCounter + 1 */\n      tag_85\n      swap1\n        /* \"contracts/Eip1967/Eip1967Contract.sol\":1397:1398  1 */\n      0x01\n        /* \"contracts/Eip1967/Eip1967Contract.sol\":1382:1398  partyCounter + 1 */\n      tag_86\n      jump\t// in\n    tag_85:\n        /* \"contracts/Eip1967/Eip1967Contract.sol\":1367:1379  partyCounter */\n      0x04\n        /* \"contracts/Eip1967/Eip1967Contract.sol\":1367:1398  partyCounter = partyCounter + 1 */\n      sstore\n      pop\n      pop\n      pop\n      pop\n      pop\n        /* \"contracts/Eip1967/Eip1967Contract.sol\":685:1405  function addCandidateDetails(... */\n      jump\t// out\n        /* \"contracts/Eip1967/Eip1967Contract.sol\":393:453  mapping(uint256 => CandidateDetails) public candidateDetails */\n    tag_44:\n      mstore(0x20, 0x01)\n      0x00\n      swap1\n      dup2\n      mstore\n      0x40\n      swap1\n      keccak256\n      dup1\n      sload\n      dup2\n      swap1\n      tag_87\n      swap1\n      tag_88\n      jump\t// in\n    tag_87:\n      dup1\n      0x1f\n      add\n      0x20\n      dup1\n      swap2\n      div\n      mul\n      0x20\n      add\n      mload(0x40)\n      swap1\n      dup2\n      add\n      0x40\n      mstore\n      dup1\n      swap3\n      swap2\n      swap1\n      dup2\n      dup2\n      mstore\n      0x20\n      add\n      dup3\n      dup1\n      sload\n      tag_89\n      swap1\n      tag_88\n      jump\t// in\n    tag_89:\n      dup1\n      iszero\n      tag_90\n      jumpi\n      dup1\n      0x1f\n      lt\n      tag_91\n      jumpi\n      0x0100\n      dup1\n      dup4\n      sload\n      div\n      mul\n      dup4\n      mstore\n      swap2\n      0x20\n      add\n      swap2\n      jump(tag_90)\n    tag_91:\n      dup3\n      add\n      swap2\n      swap1\n      0x00\n      mstore\n      keccak256(0x00, 0x20)\n      swap1\n    tag_92:\n      dup2\n      sload\n      dup2\n      mstore\n      swap1\n      0x01\n      add\n      swap1\n      0x20\n      add\n      dup1\n      dup4\n      gt\n      tag_92\n      jumpi\n      dup3\n      swap1\n      sub\n      0x1f\n      and\n      dup3\n      add\n      swap2\n    tag_90:\n      pop\n      pop\n      pop\n      pop\n      pop\n      swap1\n      dup1\n      0x01\n      add\n      sload\n      swap1\n      dup1\n      0x02\n      add\n      dup1\n      sload\n      tag_93\n      swap1\n      tag_88\n      jump\t// in\n    tag_93:\n      dup1\n      0x1f\n      add\n      0x20\n      dup1\n      swap2\n      div\n      mul\n      0x20\n      add\n      mload(0x40)\n      swap1\n      dup2\n      add\n      0x40\n      mstore\n      dup1\n      swap3\n      swap2\n      swap1\n      dup2\n      dup2\n      mstore\n      0x20\n      add\n      dup3\n      dup1\n      sload\n      tag_94\n      swap1\n      tag_88\n      jump\t// in\n    tag_94:\n      dup1\n      iszero\n      tag_95\n      jumpi\n      dup1\n      0x1f\n      lt\n      tag_96\n      jumpi\n      0x0100\n      dup1\n      dup4\n      sload\n      div\n      mul\n      dup4\n      mstore\n      swap2\n      0x20\n      add\n      swap2\n      jump(tag_95)\n    tag_96:\n      dup3\n      add\n      swap2\n      swap1\n      0x00\n      mstore\n      keccak256(0x00, 0x20)\n      swap1\n    tag_97:\n      dup2\n      sload\n      dup2\n      mstore\n      swap1\n      0x01\n      add\n      swap1\n      0x20\n      add\n      dup1\n      dup4\n      gt\n      tag_97\n      jumpi\n      dup3\n      swap1\n      sub\n      0x1f\n      and\n      dup3\n      add\n      swap2\n    tag_95:\n      pop\n      pop\n      pop\n      pop\n      pop\n      swap1\n      dup1\n      0x03\n      add\n      sload\n      swap1\n      pop\n      dup5\n      jump\t// out\n        /* \"contracts/Eip1967/Eip1967Contract.sol\":2509:2916  function result() public returns (string memory) {... */\n    tag_48:\n        /* \"contracts/Eip1967/Eip1967Contract.sol\":2543:2556  string memory */\n      0x60\n        /* \"contracts/Eip1967/Eip1967Contract.sol\":2568:2580  uint256 temp */\n      0x00\n        /* \"contracts/Eip1967/Eip1967Contract.sol\":2590:2603  uint256 count */\n      dup1\n        /* \"contracts/Eip1967/Eip1967Contract.sol\":2618:2627  uint256 i */\n      0x00\n        /* \"contracts/Eip1967/Eip1967Contract.sol\":2613:2828  for (uint256 i = 0; i < listOfParties.length; i++) {... */\n    tag_99:\n        /* \"contracts/Eip1967/Eip1967Contract.sol\":2637:2650  listOfParties */\n      0x06\n        /* \"contracts/Eip1967/Eip1967Contract.sol\":2637:2657  listOfParties.length */\n      sload\n        /* \"contracts/Eip1967/Eip1967Contract.sol\":2633:2657  i < listOfParties.length */\n      dup2\n      lt\n        /* \"contracts/Eip1967/Eip1967Contract.sol\":2613:2828  for (uint256 i = 0; i < listOfParties.length; i++) {... */\n      iszero\n      tag_100\n      jumpi\n        /* \"contracts/Eip1967/Eip1967Contract.sol\":2689:2708  candidateDetails[i] */\n      0x00\n      dup2\n      dup2\n      mstore\n        /* \"contracts/Eip1967/Eip1967Contract.sol\":2689:2705  candidateDetails */\n      0x01\n        /* \"contracts/Eip1967/Eip1967Contract.sol\":2689:2708  candidateDetails[i] */\n      0x20\n      mstore\n      0x40\n      swap1\n      keccak256\n        /* \"contracts/Eip1967/Eip1967Contract.sol\":2689:2719  candidateDetails[i].totalVotes */\n      0x03\n      add\n      sload\n        /* \"contracts/Eip1967/Eip1967Contract.sol\":2682:2719  temp < candidateDetails[i].totalVotes */\n      dup4\n      lt\n        /* \"contracts/Eip1967/Eip1967Contract.sol\":2678:2818  if (temp < candidateDetails[i].totalVotes) {... */\n      iszero\n      tag_102\n      jumpi\n        /* \"contracts/Eip1967/Eip1967Contract.sol\":2746:2765  candidateDetails[i] */\n      0x00\n      dup2\n      dup2\n      mstore\n        /* \"contracts/Eip1967/Eip1967Contract.sol\":2746:2762  candidateDetails */\n      0x01\n        /* \"contracts/Eip1967/Eip1967Contract.sol\":2746:2765  candidateDetails[i] */\n      0x20\n      mstore\n      0x40\n      swap1\n      keccak256\n        /* \"contracts/Eip1967/Eip1967Contract.sol\":2746:2776  candidateDetails[i].totalVotes */\n      0x03\n      add\n      sload\n      swap3\n      pop\n        /* \"contracts/Eip1967/Eip1967Contract.sol\":2763:2764  i */\n      swap1\n      pop\n      dup1\n        /* \"contracts/Eip1967/Eip1967Contract.sol\":2678:2818  if (temp < candidateDetails[i].totalVotes) {... */\n    tag_102:\n        /* \"contracts/Eip1967/Eip1967Contract.sol\":2659:2662  i++ */\n      0x01\n      add\n        /* \"contracts/Eip1967/Eip1967Contract.sol\":2613:2828  for (uint256 i = 0; i < listOfParties.length; i++) {... */\n      jump(tag_99)\n    tag_100:\n      pop\n        /* \"contracts/Eip1967/Eip1967Contract.sol\":2847:2870  candidateDetails[count] */\n      0x00\n      dup2\n      dup2\n      mstore\n        /* \"contracts/Eip1967/Eip1967Contract.sol\":2847:2863  candidateDetails */\n      0x01\n        /* \"contracts/Eip1967/Eip1967Contract.sol\":2847:2870  candidateDetails[count] */\n      0x20\n      mstore\n      0x40\n      swap1\n      keccak256\n        /* \"contracts/Eip1967/Eip1967Contract.sol\":2838:2844  winner */\n      0x07\n      swap1\n        /* \"contracts/Eip1967/Eip1967Contract.sol\":2838:2886  winner = candidateDetails[count].nameOfCandidate */\n      tag_103\n      swap1\n        /* \"contracts/Eip1967/Eip1967Contract.sol\":2838:2844  winner */\n      dup3\n        /* \"contracts/Eip1967/Eip1967Contract.sol\":2838:2886  winner = candidateDetails[count].nameOfCandidate */\n      tag_104\n      jump\t// in\n    tag_103:\n      pop\n        /* \"contracts/Eip1967/Eip1967Contract.sol\":2903:2909  winner */\n      0x07\n        /* \"contracts/Eip1967/Eip1967Contract.sol\":2896:2909  return winner */\n      dup1\n      sload\n      tag_105\n      swap1\n      tag_88\n      jump\t// in\n    tag_105:\n      dup1\n      0x1f\n      add\n      0x20\n      dup1\n      swap2\n      div\n      mul\n      0x20\n      add\n      mload(0x40)\n      swap1\n      dup2\n      add\n      0x40\n      mstore\n      dup1\n      swap3\n      swap2\n      swap1\n      dup2\n      dup2\n      mstore\n      0x20\n      add\n      dup3\n      dup1\n      sload\n      tag_106\n      swap1\n      tag_88\n      jump\t// in\n    tag_106:\n      dup1\n      iszero\n      tag_107\n      jumpi\n      dup1\n      0x1f\n      lt\n      tag_108\n      jumpi\n      0x0100\n      dup1\n      dup4\n      sload\n      div\n      mul\n      dup4\n      mstore\n      swap2\n      0x20\n      add\n      swap2\n      jump(tag_107)\n    tag_108:\n      dup3\n      add\n      swap2\n      swap1\n      0x00\n      mstore\n      keccak256(0x00, 0x20)\n      swap1\n    tag_109:\n      dup2\n      sload\n      dup2\n      mstore\n      swap1\n      0x01\n      add\n      swap1\n      0x20\n      add\n      dup1\n      dup4\n      gt\n      tag_109\n      jumpi\n      dup3\n      swap1\n      sub\n      0x1f\n      and\n      dup3\n      add\n      swap2\n    tag_107:\n      pop\n      pop\n      pop\n      pop\n      pop\n      swap3\n      pop\n      pop\n      pop\n        /* \"contracts/Eip1967/Eip1967Contract.sol\":2509:2916  function result() public returns (string memory) {... */\n      swap1\n      jump\t// out\n        /* \"contracts/Eip1967/Eip1967Contract.sol\":1643:2308  function addVoterDetails(... */\n    tag_58:\n        /* \"contracts/Eip1967/Eip1967Contract.sol\":1797:1809  voterCounter */\n      sload(0x05)\n        /* \"contracts/Eip1967/Eip1967Contract.sol\":1797:1813  voterCounter + 1 */\n      tag_111\n      swap1\n        /* \"contracts/Eip1967/Eip1967Contract.sol\":1812:1813  1 */\n      0x01\n        /* \"contracts/Eip1967/Eip1967Contract.sol\":1797:1813  voterCounter + 1 */\n      tag_86\n      jump\t// in\n    tag_111:\n        /* \"contracts/Eip1967/Eip1967Contract.sol\":1782:1794  voterCounter */\n      0x05\n        /* \"contracts/Eip1967/Eip1967Contract.sol\":1782:1813  voterCounter = voterCounter + 1 */\n      sstore\n        /* \"contracts/Eip1967/Eip1967Contract.sol\":1853:1883  abi.encodePacked(_voterCardNo) */\n      0x40\n      dup1\n      mload\n      0x20\n      dup1\n      dup3\n      add\n        /* \"#utility.yul\":4353:4372   */\n      dup6\n      swap1\n      mstore\n        /* \"contracts/Eip1967/Eip1967Contract.sol\":1853:1883  abi.encodePacked(_voterCardNo) */\n      dup3\n      mload\n      dup1\n      dup4\n      sub\n      dup3\n      add\n      dup2\n      mstore\n        /* \"#utility.yul\":4388:4400   */\n      swap2\n      dup4\n      add\n        /* \"contracts/Eip1967/Eip1967Contract.sol\":1853:1883  abi.encodePacked(_voterCardNo) */\n      dup4\n      mstore\n        /* \"contracts/Eip1967/Eip1967Contract.sol\":1843:1884  keccak256(abi.encodePacked(_voterCardNo)) */\n      dup2\n      mload\n      swap2\n      dup2\n      add\n      swap2\n      swap1\n      swap2\n      keccak256\n        /* \"contracts/Eip1967/Eip1967Contract.sol\":1823:1840  bytes32 voterCard */\n      0x00\n        /* \"contracts/Eip1967/Eip1967Contract.sol\":1902:1921  hasVoted[voterCard] */\n      dup2\n      dup2\n      mstore\n        /* \"contracts/Eip1967/Eip1967Contract.sol\":1902:1910  hasVoted */\n      0x02\n        /* \"contracts/Eip1967/Eip1967Contract.sol\":1902:1921  hasVoted[voterCard] */\n      swap1\n      swap3\n      mstore\n      swap2\n      swap1\n      keccak256\n      sload\n      0xff\n      and\n        /* \"contracts/Eip1967/Eip1967Contract.sol\":1902:1930  hasVoted[voterCard] == false */\n      iszero\n        /* \"contracts/Eip1967/Eip1967Contract.sol\":1894:1962  require(hasVoted[voterCard] == false, \"Candidate has already voted\") */\n      tag_113\n      jumpi\n      mload(0x40)\n      shl(0xe5, 0x461bcd)\n      dup2\n      mstore\n        /* \"#utility.yul\":9347:9349   */\n      0x20\n        /* \"contracts/Eip1967/Eip1967Contract.sol\":1894:1962  require(hasVoted[voterCard] == false, \"Candidate has already voted\") */\n      0x04\n      dup3\n      add\n        /* \"#utility.yul\":9329:9350   */\n      mstore\n        /* \"#utility.yul\":9386:9388   */\n      0x1b\n        /* \"#utility.yul\":9366:9384   */\n      0x24\n      dup3\n      add\n        /* \"#utility.yul\":9359:9389   */\n      mstore\n        /* \"#utility.yul\":9425:9454   */\n      0x43616e6469646174652068617320616c726561647920766f7465640000000000\n        /* \"#utility.yul\":9405:9423   */\n      0x44\n      dup3\n      add\n        /* \"#utility.yul\":9398:9455   */\n      mstore\n        /* \"#utility.yul\":9472:9490   */\n      0x64\n      add\n        /* \"contracts/Eip1967/Eip1967Contract.sol\":1894:1962  require(hasVoted[voterCard] == false, \"Candidate has already voted\") */\n      tag_78\n        /* \"#utility.yul\":9145:9496   */\n      jump\n        /* \"contracts/Eip1967/Eip1967Contract.sol\":1894:1962  require(hasVoted[voterCard] == false, \"Candidate has already voted\") */\n    tag_113:\n        /* \"contracts/Eip1967/Eip1967Contract.sol\":1993:2006  listOfParties */\n      0x06\n        /* \"contracts/Eip1967/Eip1967Contract.sol\":1993:2013  listOfParties.length */\n      sload\n        /* \"contracts/Eip1967/Eip1967Contract.sol\":2017:2018  2 */\n      0x02\n      gt\n        /* \"contracts/Eip1967/Eip1967Contract.sol\":1993:2018  listOfParties.length >= 2 */\n      iszero\n        /* \"contracts/Eip1967/Eip1967Contract.sol\":1972:2087  require(... */\n      tag_116\n      jumpi\n      mload(0x40)\n      shl(0xe5, 0x461bcd)\n      dup2\n      mstore\n        /* \"#utility.yul\":9703:9705   */\n      0x20\n        /* \"contracts/Eip1967/Eip1967Contract.sol\":1972:2087  require(... */\n      0x04\n      dup3\n      add\n        /* \"#utility.yul\":9685:9706   */\n      mstore\n        /* \"#utility.yul\":9742:9744   */\n      0x2b\n        /* \"#utility.yul\":9722:9740   */\n      0x24\n      dup3\n      add\n        /* \"#utility.yul\":9715:9745   */\n      mstore\n        /* \"#utility.yul\":9781:9815   */\n      0x54686572652063616e277420626520656c656374696f6e207769746820612073\n        /* \"#utility.yul\":9761:9779   */\n      0x44\n      dup3\n      add\n        /* \"#utility.yul\":9754:9816   */\n      mstore\n        /* \"#utility.yul\":9852:9865   */\n      0x696e676c65207061727479000000000000000000000000000000000000000000\n        /* \"#utility.yul\":9832:9850   */\n      0x64\n      dup3\n      add\n        /* \"#utility.yul\":9825:9866   */\n      mstore\n        /* \"#utility.yul\":9883:9902   */\n      0x84\n      add\n        /* \"contracts/Eip1967/Eip1967Contract.sol\":1972:2087  require(... */\n      tag_78\n        /* \"#utility.yul\":9501:9908   */\n      jump\n        /* \"contracts/Eip1967/Eip1967Contract.sol\":1972:2087  require(... */\n    tag_116:\n        /* \"contracts/Eip1967/Eip1967Contract.sol\":2097:2109  voterDetails */\n      0x00\n        /* \"contracts/Eip1967/Eip1967Contract.sol\":2097:2120  voterDetails[voterCard] */\n      dup2\n      dup2\n      mstore\n      0x20\n      dup2\n      dup2\n      mstore\n      0x40\n      dup1\n      dup4\n      keccak256\n        /* \"contracts/Eip1967/Eip1967Contract.sol\":2097:2149  voterDetails[voterCard].voterAddress = _voterAddress */\n      dup1\n      sload\n      0xffffffffffffffffffffffff0000000000000000000000000000000000000000\n      and\n      0xffffffffffffffffffffffffffffffffffffffff\n      dup10\n      and\n      or\n      dup2\n      sstore\n      0x01\n        /* \"contracts/Eip1967/Eip1967Contract.sol\":2159:2194  voterDetails[voterCard].partyNumber */\n      swap1\n      dup2\n      add\n        /* \"contracts/Eip1967/Eip1967Contract.sol\":2159:2209  voterDetails[voterCard].partyNumber = _partyNumber */\n      dup7\n      swap1\n      sstore\n        /* \"contracts/Eip1967/Eip1967Contract.sol\":2219:2249  candidateDetails[_partyNumber] */\n      dup6\n      dup5\n      mstore\n      swap2\n      dup3\n      swap1\n      mstore\n      dup3\n      keccak256\n        /* \"contracts/Eip1967/Eip1967Contract.sol\":2219:2260  candidateDetails[_partyNumber].totalVotes */\n      0x03\n      add\n        /* \"contracts/Eip1967/Eip1967Contract.sol\":2219:2265  candidateDetails[_partyNumber].totalVotes += 1 */\n      dup1\n      sload\n      swap2\n      swap3\n        /* \"contracts/Eip1967/Eip1967Contract.sol\":2219:2260  candidateDetails[_partyNumber].totalVotes */\n      swap1\n      swap2\n        /* \"contracts/Eip1967/Eip1967Contract.sol\":2219:2265  candidateDetails[_partyNumber].totalVotes += 1 */\n      tag_119\n      swap1\n      dup5\n      swap1\n      tag_86\n      jump\t// in\n    tag_119:\n      swap1\n      swap2\n      sstore\n      pop\n      pop\n        /* \"contracts/Eip1967/Eip1967Contract.sol\":2275:2294  hasVoted[voterCard] */\n      0x00\n      swap1\n      dup2\n      mstore\n        /* \"contracts/Eip1967/Eip1967Contract.sol\":2275:2283  hasVoted */\n      0x02\n        /* \"contracts/Eip1967/Eip1967Contract.sol\":2275:2294  hasVoted[voterCard] */\n      0x20\n      mstore\n      0x40\n      swap1\n      keccak256\n        /* \"contracts/Eip1967/Eip1967Contract.sol\":2275:2301  hasVoted[voterCard] = true */\n      dup1\n      sload\n      not(0xff)\n      and\n        /* \"contracts/Eip1967/Eip1967Contract.sol\":2297:2301  true */\n      0x01\n        /* \"contracts/Eip1967/Eip1967Contract.sol\":2275:2301  hasVoted[voterCard] = true */\n      or\n      swap1\n      sstore\n      pop\n      pop\n      pop\n        /* \"contracts/Eip1967/Eip1967Contract.sol\":1643:2308  function addVoterDetails(... */\n      jump\t// out\n        /* \"contracts/Eip1967/Eip1967Contract.sol\":1411:1637  function checkCandidateStatus(uint256 _voterCardNo)... */\n    tag_61:\n        /* \"contracts/Eip1967/Eip1967Contract.sol\":1508:1512  bool */\n      0x00\n        /* \"contracts/Eip1967/Eip1967Contract.sol\":1528:1545  bytes32 voterCard */\n      dup1\n        /* \"contracts/Eip1967/Eip1967Contract.sol\":1575:1587  _voterCardNo */\n      dup3\n        /* \"contracts/Eip1967/Eip1967Contract.sol\":1558:1588  abi.encodePacked(_voterCardNo) */\n      add(0x20, mload(0x40))\n      tag_121\n      swap2\n        /* \"#utility.yul\":4353:4372   */\n      dup2\n      mstore\n        /* \"#utility.yul\":4397:4399   */\n      0x20\n        /* \"#utility.yul\":4388:4400   */\n      add\n      swap1\n        /* \"#utility.yul\":4224:4406   */\n      jump\n        /* \"contracts/Eip1967/Eip1967Contract.sol\":1558:1588  abi.encodePacked(_voterCardNo) */\n    tag_121:\n      0x40\n      dup1\n      mload\n      not(0x1f)\n      dup2\n      dup5\n      sub\n      add\n      dup2\n      mstore\n      swap2\n      dup2\n      mstore\n        /* \"contracts/Eip1967/Eip1967Contract.sol\":1548:1589  keccak256(abi.encodePacked(_voterCardNo)) */\n      dup2\n      mload\n        /* \"contracts/Eip1967/Eip1967Contract.sol\":1558:1588  abi.encodePacked(_voterCardNo) */\n      0x20\n        /* \"contracts/Eip1967/Eip1967Contract.sol\":1548:1589  keccak256(abi.encodePacked(_voterCardNo)) */\n      swap3\n      dup4\n      add\n      keccak256\n        /* \"contracts/Eip1967/Eip1967Contract.sol\":1606:1630  hasRegistered[voterCard] */\n      0x00\n      swap1\n      dup2\n      mstore\n        /* \"contracts/Eip1967/Eip1967Contract.sol\":1606:1619  hasRegistered */\n      0x03\n        /* \"contracts/Eip1967/Eip1967Contract.sol\":1606:1630  hasRegistered[voterCard] */\n      swap1\n      swap3\n      mstore\n      swap1\n      keccak256\n      sload\n      0xff\n      and\n      swap4\n        /* \"contracts/Eip1967/Eip1967Contract.sol\":1411:1637  function checkCandidateStatus(uint256 _voterCardNo)... */\n      swap3\n      pop\n      pop\n      pop\n      jump\t// out\n        /* \"contracts/Eip1967/Eip1967Contract.sol\":2314:2503  function checkVoterStatus(uint256 _voterCardNo) public view returns (bool) {... */\n    tag_65:\n        /* \"contracts/Eip1967/Eip1967Contract.sol\":2383:2387  bool */\n      0x00\n        /* \"contracts/Eip1967/Eip1967Contract.sol\":2399:2416  bytes32 voterCard */\n      dup1\n        /* \"contracts/Eip1967/Eip1967Contract.sol\":2446:2458  _voterCardNo */\n      dup3\n        /* \"contracts/Eip1967/Eip1967Contract.sol\":2429:2459  abi.encodePacked(_voterCardNo) */\n      add(0x20, mload(0x40))\n      tag_123\n      swap2\n        /* \"#utility.yul\":4353:4372   */\n      dup2\n      mstore\n        /* \"#utility.yul\":4397:4399   */\n      0x20\n        /* \"#utility.yul\":4388:4400   */\n      add\n      swap1\n        /* \"#utility.yul\":4224:4406   */\n      jump\n        /* \"contracts/Eip1967/Eip1967Contract.sol\":2429:2459  abi.encodePacked(_voterCardNo) */\n    tag_123:\n      0x40\n      dup1\n      mload\n      not(0x1f)\n      dup2\n      dup5\n      sub\n      add\n      dup2\n      mstore\n      swap2\n      dup2\n      mstore\n        /* \"contracts/Eip1967/Eip1967Contract.sol\":2419:2460  keccak256(abi.encodePacked(_voterCardNo)) */\n      dup2\n      mload\n        /* \"contracts/Eip1967/Eip1967Contract.sol\":2429:2459  abi.encodePacked(_voterCardNo) */\n      0x20\n        /* \"contracts/Eip1967/Eip1967Contract.sol\":2419:2460  keccak256(abi.encodePacked(_voterCardNo)) */\n      swap3\n      dup4\n      add\n      keccak256\n        /* \"contracts/Eip1967/Eip1967Contract.sol\":2477:2496  hasVoted[voterCard] */\n      0x00\n      swap1\n      dup2\n      mstore\n        /* \"contracts/Eip1967/Eip1967Contract.sol\":2477:2485  hasVoted */\n      0x02\n        /* \"contracts/Eip1967/Eip1967Contract.sol\":2477:2496  hasVoted[voterCard] */\n      swap1\n      swap3\n      mstore\n      swap1\n      keccak256\n      sload\n      0xff\n      and\n      swap4\n        /* \"contracts/Eip1967/Eip1967Contract.sol\":2314:2503  function checkVoterStatus(uint256 _voterCardNo) public view returns (bool) {... */\n      swap3\n      pop\n      pop\n      pop\n      jump\t// out\n        /* \"contracts/Eip1967/Eip1967Contract.sol\":658:678  string public winner */\n    tag_68:\n      0x07\n      dup1\n      sload\n      tag_124\n      swap1\n      tag_88\n      jump\t// in\n    tag_124:\n      dup1\n      0x1f\n      add\n      0x20\n      dup1\n      swap2\n      div\n      mul\n      0x20\n      add\n      mload(0x40)\n      swap1\n      dup2\n      add\n      0x40\n      mstore\n      dup1\n      swap3\n      swap2\n      swap1\n      dup2\n      dup2\n      mstore\n      0x20\n      add\n      dup3\n      dup1\n      sload\n      tag_125\n      swap1\n      tag_88\n      jump\t// in\n    tag_125:\n      dup1\n      iszero\n      tag_126\n      jumpi\n      dup1\n      0x1f\n      lt\n      tag_127\n      jumpi\n      0x0100\n      dup1\n      dup4\n      sload\n      div\n      mul\n      dup4\n      mstore\n      swap2\n      0x20\n      add\n      swap2\n      jump(tag_126)\n    tag_127:\n      dup3\n      add\n      swap2\n      swap1\n      0x00\n      mstore\n      keccak256(0x00, 0x20)\n      swap1\n    tag_128:\n      dup2\n      sload\n      dup2\n      mstore\n      swap1\n      0x01\n      add\n      swap1\n      0x20\n      add\n      dup1\n      dup4\n      gt\n      tag_128\n      jumpi\n      dup3\n      swap1\n      sub\n      0x1f\n      and\n      dup3\n      add\n      swap2\n    tag_126:\n      pop\n      pop\n      pop\n      pop\n      pop\n      dup2\n      jump\t// out\n        /* \"contracts/Eip1967/Eip1967Contract.sol\":623:652  string[] public listOfParties */\n    tag_72:\n      0x06\n      dup2\n      dup2\n      sload\n      dup2\n      lt\n      tag_129\n      jumpi\n      0x00\n      dup1\n      revert\n    tag_129:\n      swap1\n      0x00\n      mstore\n      keccak256(0x00, 0x20)\n      add\n      0x00\n      swap2\n      pop\n      swap1\n      pop\n      dup1\n      sload\n      tag_124\n      swap1\n      tag_88\n      jump\t// in\n        /* \"#utility.yul\":196:380   */\n    tag_136:\n      shl(0xe0, 0x4e487b71)\n        /* \"#utility.yul\":245:246   */\n      0x00\n        /* \"#utility.yul\":238:326   */\n      mstore\n        /* \"#utility.yul\":345:349   */\n      0x41\n        /* \"#utility.yul\":342:343   */\n      0x04\n        /* \"#utility.yul\":335:350   */\n      mstore\n        /* \"#utility.yul\":369:373   */\n      0x24\n        /* \"#utility.yul\":366:367   */\n      0x00\n        /* \"#utility.yul\":359:374   */\n      revert\n        /* \"#utility.yul\":385:1104   */\n    tag_137:\n        /* \"#utility.yul\":428:433   */\n      0x00\n        /* \"#utility.yul\":481:484   */\n      dup3\n        /* \"#utility.yul\":474:478   */\n      0x1f\n        /* \"#utility.yul\":466:472   */\n      dup4\n        /* \"#utility.yul\":462:479   */\n      add\n        /* \"#utility.yul\":458:485   */\n      slt\n        /* \"#utility.yul\":448:503   */\n      tag_146\n      jumpi\n        /* \"#utility.yul\":499:500   */\n      0x00\n        /* \"#utility.yul\":496:497   */\n      dup1\n        /* \"#utility.yul\":489:501   */\n      revert\n        /* \"#utility.yul\":448:503   */\n    tag_146:\n        /* \"#utility.yul\":535:541   */\n      dup2\n        /* \"#utility.yul\":522:542   */\n      calldataload\n        /* \"#utility.yul\":561:579   */\n      0xffffffffffffffff\n        /* \"#utility.yul\":598:600   */\n      dup1\n        /* \"#utility.yul\":594:596   */\n      dup3\n        /* \"#utility.yul\":591:601   */\n      gt\n        /* \"#utility.yul\":588:624   */\n      iszero\n      tag_148\n      jumpi\n        /* \"#utility.yul\":604:622   */\n      tag_148\n      tag_136\n      jump\t// in\n    tag_148:\n        /* \"#utility.yul\":679:681   */\n      0x40\n        /* \"#utility.yul\":673:682   */\n      mload\n        /* \"#utility.yul\":647:649   */\n      0x1f\n        /* \"#utility.yul\":733:746   */\n      dup4\n      add\n      not(0x1f)\n        /* \"#utility.yul\":729:751   */\n      swap1\n      dup2\n      and\n        /* \"#utility.yul\":753:755   */\n      0x3f\n        /* \"#utility.yul\":725:756   */\n      add\n        /* \"#utility.yul\":721:761   */\n      and\n        /* \"#utility.yul\":709:762   */\n      dup2\n      add\n      swap1\n        /* \"#utility.yul\":777:795   */\n      dup3\n      dup3\n      gt\n        /* \"#utility.yul\":797:819   */\n      dup2\n      dup4\n      lt\n        /* \"#utility.yul\":774:820   */\n      or\n        /* \"#utility.yul\":771:843   */\n      iszero\n      tag_150\n      jumpi\n        /* \"#utility.yul\":823:841   */\n      tag_150\n      tag_136\n      jump\t// in\n    tag_150:\n        /* \"#utility.yul\":863:873   */\n      dup2\n        /* \"#utility.yul\":859:861   */\n      0x40\n        /* \"#utility.yul\":852:874   */\n      mstore\n        /* \"#utility.yul\":898:900   */\n      dup4\n        /* \"#utility.yul\":890:896   */\n      dup2\n        /* \"#utility.yul\":883:901   */\n      mstore\n        /* \"#utility.yul\":944:947   */\n      dup7\n        /* \"#utility.yul\":937:941   */\n      0x20\n        /* \"#utility.yul\":932:934   */\n      dup6\n        /* \"#utility.yul\":924:930   */\n      dup9\n        /* \"#utility.yul\":920:935   */\n      add\n        /* \"#utility.yul\":916:942   */\n      add\n        /* \"#utility.yul\":913:948   */\n      gt\n        /* \"#utility.yul\":910:965   */\n      iszero\n      tag_151\n      jumpi\n        /* \"#utility.yul\":961:962   */\n      0x00\n        /* \"#utility.yul\":958:959   */\n      dup1\n        /* \"#utility.yul\":951:963   */\n      revert\n        /* \"#utility.yul\":910:965   */\n    tag_151:\n        /* \"#utility.yul\":1025:1027   */\n      dup4\n        /* \"#utility.yul\":1018:1022   */\n      0x20\n        /* \"#utility.yul\":1010:1016   */\n      dup8\n        /* \"#utility.yul\":1006:1023   */\n      add\n        /* \"#utility.yul\":999:1003   */\n      0x20\n        /* \"#utility.yul\":991:997   */\n      dup4\n        /* \"#utility.yul\":987:1004   */\n      add\n        /* \"#utility.yul\":974:1028   */\n      calldatacopy\n        /* \"#utility.yul\":1072:1073   */\n      0x00\n        /* \"#utility.yul\":1065:1069   */\n      0x20\n        /* \"#utility.yul\":1060:1062   */\n      dup6\n        /* \"#utility.yul\":1052:1058   */\n      dup4\n        /* \"#utility.yul\":1048:1063   */\n      add\n        /* \"#utility.yul\":1044:1070   */\n      add\n        /* \"#utility.yul\":1037:1074   */\n      mstore\n        /* \"#utility.yul\":1092:1098   */\n      dup1\n        /* \"#utility.yul\":1083:1098   */\n      swap5\n      pop\n      pop\n      pop\n      pop\n      pop\n        /* \"#utility.yul\":385:1104   */\n      swap3\n      swap2\n      pop\n      pop\n      jump\t// out\n        /* \"#utility.yul\":1109:1720   */\n    tag_25:\n        /* \"#utility.yul\":1206:1212   */\n      0x00\n        /* \"#utility.yul\":1214:1220   */\n      dup1\n        /* \"#utility.yul\":1222:1228   */\n      0x00\n        /* \"#utility.yul\":1275:1277   */\n      0x60\n        /* \"#utility.yul\":1263:1272   */\n      dup5\n        /* \"#utility.yul\":1254:1261   */\n      dup7\n        /* \"#utility.yul\":1250:1273   */\n      sub\n        /* \"#utility.yul\":1246:1278   */\n      slt\n        /* \"#utility.yul\":1243:1295   */\n      iszero\n      tag_153\n      jumpi\n        /* \"#utility.yul\":1291:1292   */\n      0x00\n        /* \"#utility.yul\":1288:1289   */\n      dup1\n        /* \"#utility.yul\":1281:1293   */\n      revert\n        /* \"#utility.yul\":1243:1295   */\n    tag_153:\n        /* \"#utility.yul\":1331:1340   */\n      dup4\n        /* \"#utility.yul\":1318:1341   */\n      calldataload\n        /* \"#utility.yul\":1360:1378   */\n      0xffffffffffffffff\n        /* \"#utility.yul\":1401:1403   */\n      dup1\n        /* \"#utility.yul\":1393:1399   */\n      dup3\n        /* \"#utility.yul\":1390:1404   */\n      gt\n        /* \"#utility.yul\":1387:1421   */\n      iszero\n      tag_154\n      jumpi\n        /* \"#utility.yul\":1417:1418   */\n      0x00\n        /* \"#utility.yul\":1414:1415   */\n      dup1\n        /* \"#utility.yul\":1407:1419   */\n      revert\n        /* \"#utility.yul\":1387:1421   */\n    tag_154:\n        /* \"#utility.yul\":1440:1490   */\n      tag_155\n        /* \"#utility.yul\":1482:1489   */\n      dup8\n        /* \"#utility.yul\":1473:1479   */\n      dup4\n        /* \"#utility.yul\":1462:1471   */\n      dup9\n        /* \"#utility.yul\":1458:1480   */\n      add\n        /* \"#utility.yul\":1440:1490   */\n      tag_137\n      jump\t// in\n    tag_155:\n        /* \"#utility.yul\":1430:1490   */\n      swap5\n      pop\n        /* \"#utility.yul\":1537:1539   */\n      0x20\n        /* \"#utility.yul\":1526:1535   */\n      dup7\n        /* \"#utility.yul\":1522:1540   */\n      add\n        /* \"#utility.yul\":1509:1541   */\n      calldataload\n        /* \"#utility.yul\":1499:1541   */\n      swap4\n      pop\n        /* \"#utility.yul\":1594:1596   */\n      0x40\n        /* \"#utility.yul\":1583:1592   */\n      dup7\n        /* \"#utility.yul\":1579:1597   */\n      add\n        /* \"#utility.yul\":1566:1598   */\n      calldataload\n        /* \"#utility.yul\":1550:1598   */\n      swap2\n      pop\n        /* \"#utility.yul\":1623:1625   */\n      dup1\n        /* \"#utility.yul\":1613:1621   */\n      dup3\n        /* \"#utility.yul\":1610:1626   */\n      gt\n        /* \"#utility.yul\":1607:1643   */\n      iszero\n      tag_156\n      jumpi\n        /* \"#utility.yul\":1639:1640   */\n      0x00\n        /* \"#utility.yul\":1636:1637   */\n      dup1\n        /* \"#utility.yul\":1629:1641   */\n      revert\n        /* \"#utility.yul\":1607:1643   */\n    tag_156:\n      pop\n        /* \"#utility.yul\":1662:1714   */\n      tag_157\n        /* \"#utility.yul\":1706:1713   */\n      dup7\n        /* \"#utility.yul\":1695:1703   */\n      dup3\n        /* \"#utility.yul\":1684:1693   */\n      dup8\n        /* \"#utility.yul\":1680:1704   */\n      add\n        /* \"#utility.yul\":1662:1714   */\n      tag_137\n      jump\t// in\n    tag_157:\n        /* \"#utility.yul\":1652:1714   */\n      swap2\n      pop\n      pop\n        /* \"#utility.yul\":1109:1720   */\n      swap3\n      pop\n      swap3\n      pop\n      swap3\n      jump\t// out\n        /* \"#utility.yul\":1725:1905   */\n    tag_29:\n        /* \"#utility.yul\":1784:1790   */\n      0x00\n        /* \"#utility.yul\":1837:1839   */\n      0x20\n        /* \"#utility.yul\":1825:1834   */\n      dup3\n        /* \"#utility.yul\":1816:1823   */\n      dup5\n        /* \"#utility.yul\":1812:1835   */\n      sub\n        /* \"#utility.yul\":1808:1840   */\n      slt\n        /* \"#utility.yul\":1805:1857   */\n      iszero\n      tag_159\n      jumpi\n        /* \"#utility.yul\":1853:1854   */\n      0x00\n        /* \"#utility.yul\":1850:1851   */\n      dup1\n        /* \"#utility.yul\":1843:1855   */\n      revert\n        /* \"#utility.yul\":1805:1857   */\n    tag_159:\n      pop\n        /* \"#utility.yul\":1876:1899   */\n      calldataload\n      swap2\n        /* \"#utility.yul\":1725:1905   */\n      swap1\n      pop\n      jump\t// out\n        /* \"#utility.yul\":2589:3012   */\n    tag_138:\n        /* \"#utility.yul\":2631:2634   */\n      0x00\n        /* \"#utility.yul\":2669:2674   */\n      dup2\n        /* \"#utility.yul\":2663:2675   */\n      mload\n        /* \"#utility.yul\":2696:2702   */\n      dup1\n        /* \"#utility.yul\":2691:2694   */\n      dup5\n        /* \"#utility.yul\":2684:2703   */\n      mstore\n        /* \"#utility.yul\":2721:2722   */\n      0x00\n        /* \"#utility.yul\":2731:2893   */\n    tag_165:\n        /* \"#utility.yul\":2745:2751   */\n      dup2\n        /* \"#utility.yul\":2742:2743   */\n      dup2\n        /* \"#utility.yul\":2739:2752   */\n      lt\n        /* \"#utility.yul\":2731:2893   */\n      iszero\n      tag_167\n      jumpi\n        /* \"#utility.yul\":2807:2811   */\n      0x20\n        /* \"#utility.yul\":2863:2876   */\n      dup2\n      dup6\n      add\n        /* \"#utility.yul\":2859:2881   */\n      dup2\n      add\n        /* \"#utility.yul\":2853:2882   */\n      mload\n        /* \"#utility.yul\":2835:2846   */\n      dup7\n      dup4\n      add\n        /* \"#utility.yul\":2831:2851   */\n      dup3\n      add\n        /* \"#utility.yul\":2824:2883   */\n      mstore\n        /* \"#utility.yul\":2760:2772   */\n      add\n        /* \"#utility.yul\":2731:2893   */\n      jump(tag_165)\n    tag_167:\n        /* \"#utility.yul\":2735:2738   */\n      pop\n        /* \"#utility.yul\":2938:2939   */\n      0x00\n        /* \"#utility.yul\":2931:2935   */\n      0x20\n        /* \"#utility.yul\":2922:2928   */\n      dup3\n        /* \"#utility.yul\":2917:2920   */\n      dup7\n        /* \"#utility.yul\":2913:2929   */\n      add\n        /* \"#utility.yul\":2909:2936   */\n      add\n        /* \"#utility.yul\":2902:2940   */\n      mstore\n        /* \"#utility.yul\":3001:3005   */\n      0x20\n        /* \"#utility.yul\":2994:2996   */\n      0x1f\n        /* \"#utility.yul\":2990:2997   */\n      not\n        /* \"#utility.yul\":2985:2987   */\n      0x1f\n        /* \"#utility.yul\":2977:2983   */\n      dup4\n        /* \"#utility.yul\":2973:2988   */\n      add\n        /* \"#utility.yul\":2969:2998   */\n      and\n        /* \"#utility.yul\":2964:2967   */\n      dup6\n        /* \"#utility.yul\":2960:2999   */\n      add\n        /* \"#utility.yul\":2956:3006   */\n      add\n        /* \"#utility.yul\":2949:3006   */\n      swap2\n      pop\n      pop\n        /* \"#utility.yul\":2589:3012   */\n      swap3\n      swap2\n      pop\n      pop\n      jump\t// out\n        /* \"#utility.yul\":3017:3544   */\n    tag_46:\n        /* \"#utility.yul\":3270:3273   */\n      0x80\n        /* \"#utility.yul\":3259:3268   */\n      dup2\n        /* \"#utility.yul\":3252:3274   */\n      mstore\n        /* \"#utility.yul\":3233:3237   */\n      0x00\n        /* \"#utility.yul\":3297:3343   */\n      tag_169\n        /* \"#utility.yul\":3338:3341   */\n      0x80\n        /* \"#utility.yul\":3327:3336   */\n      dup4\n        /* \"#utility.yul\":3323:3342   */\n      add\n        /* \"#utility.yul\":3315:3321   */\n      dup8\n        /* \"#utility.yul\":3297:3343   */\n      tag_138\n      jump\t// in\n    tag_169:\n        /* \"#utility.yul\":3379:3385   */\n      dup6\n        /* \"#utility.yul\":3374:3376   */\n      0x20\n        /* \"#utility.yul\":3363:3372   */\n      dup5\n        /* \"#utility.yul\":3359:3377   */\n      add\n        /* \"#utility.yul\":3352:3386   */\n      mstore\n        /* \"#utility.yul\":3434:3443   */\n      dup3\n        /* \"#utility.yul\":3426:3432   */\n      dup2\n        /* \"#utility.yul\":3422:3444   */\n      sub\n        /* \"#utility.yul\":3417:3419   */\n      0x40\n        /* \"#utility.yul\":3406:3415   */\n      dup5\n        /* \"#utility.yul\":3402:3420   */\n      add\n        /* \"#utility.yul\":3395:3445   */\n      mstore\n        /* \"#utility.yul\":3462:3495   */\n      tag_170\n        /* \"#utility.yul\":3488:3494   */\n      dup2\n        /* \"#utility.yul\":3480:3486   */\n      dup7\n        /* \"#utility.yul\":3462:3495   */\n      tag_138\n      jump\t// in\n    tag_170:\n        /* \"#utility.yul\":3454:3495   */\n      swap2\n      pop\n      pop\n        /* \"#utility.yul\":3531:3537   */\n      dup3\n        /* \"#utility.yul\":3526:3528   */\n      0x60\n        /* \"#utility.yul\":3515:3524   */\n      dup4\n        /* \"#utility.yul\":3511:3529   */\n      add\n        /* \"#utility.yul\":3504:3538   */\n      mstore\n        /* \"#utility.yul\":3017:3544   */\n      swap6\n      swap5\n      pop\n      pop\n      pop\n      pop\n      pop\n      jump\t// out\n        /* \"#utility.yul\":3549:3769   */\n    tag_50:\n        /* \"#utility.yul\":3698:3700   */\n      0x20\n        /* \"#utility.yul\":3687:3696   */\n      dup2\n        /* \"#utility.yul\":3680:3701   */\n      mstore\n        /* \"#utility.yul\":3661:3665   */\n      0x00\n        /* \"#utility.yul\":3718:3763   */\n      tag_172\n        /* \"#utility.yul\":3759:3761   */\n      0x20\n        /* \"#utility.yul\":3748:3757   */\n      dup4\n        /* \"#utility.yul\":3744:3762   */\n      add\n        /* \"#utility.yul\":3736:3742   */\n      dup5\n        /* \"#utility.yul\":3718:3763   */\n      tag_138\n      jump\t// in\n    tag_172:\n        /* \"#utility.yul\":3710:3763   */\n      swap4\n        /* \"#utility.yul\":3549:3769   */\n      swap3\n      pop\n      pop\n      pop\n      jump\t// out\n        /* \"#utility.yul\":3774:4219   */\n    tag_57:\n        /* \"#utility.yul\":3851:3857   */\n      0x00\n        /* \"#utility.yul\":3859:3865   */\n      dup1\n        /* \"#utility.yul\":3867:3873   */\n      0x00\n        /* \"#utility.yul\":3920:3922   */\n      0x60\n        /* \"#utility.yul\":3908:3917   */\n      dup5\n        /* \"#utility.yul\":3899:3906   */\n      dup7\n        /* \"#utility.yul\":3895:3918   */\n      sub\n        /* \"#utility.yul\":3891:3923   */\n      slt\n        /* \"#utility.yul\":3888:3940   */\n      iszero\n      tag_174\n      jumpi\n        /* \"#utility.yul\":3936:3937   */\n      0x00\n        /* \"#utility.yul\":3933:3934   */\n      dup1\n        /* \"#utility.yul\":3926:3938   */\n      revert\n        /* \"#utility.yul\":3888:3940   */\n    tag_174:\n        /* \"#utility.yul\":3975:3984   */\n      dup4\n        /* \"#utility.yul\":3962:3985   */\n      calldataload\n        /* \"#utility.yul\":4025:4067   */\n      0xffffffffffffffffffffffffffffffffffffffff\n        /* \"#utility.yul\":4018:4023   */\n      dup2\n        /* \"#utility.yul\":4014:4068   */\n      and\n        /* \"#utility.yul\":4007:4012   */\n      dup2\n        /* \"#utility.yul\":4004:4069   */\n      eq\n        /* \"#utility.yul\":3994:4087   */\n      tag_175\n      jumpi\n        /* \"#utility.yul\":4083:4084   */\n      0x00\n        /* \"#utility.yul\":4080:4081   */\n      dup1\n        /* \"#utility.yul\":4073:4085   */\n      revert\n        /* \"#utility.yul\":3994:4087   */\n    tag_175:\n        /* \"#utility.yul\":4106:4111   */\n      swap6\n        /* \"#utility.yul\":4158:4160   */\n      0x20\n        /* \"#utility.yul\":4143:4161   */\n      dup6\n      add\n        /* \"#utility.yul\":4130:4162   */\n      calldataload\n      swap6\n      pop\n        /* \"#utility.yul\":4209:4211   */\n      0x40\n        /* \"#utility.yul\":4194:4212   */\n      swap1\n      swap5\n      add\n        /* \"#utility.yul\":4181:4213   */\n      calldataload\n      swap4\n        /* \"#utility.yul\":3774:4219   */\n      swap3\n      pop\n      pop\n      pop\n      jump\t// out\n        /* \"#utility.yul\":4817:5254   */\n    tag_88:\n        /* \"#utility.yul\":4896:4897   */\n      0x01\n        /* \"#utility.yul\":4892:4904   */\n      dup2\n      dup2\n      shr\n      swap1\n        /* \"#utility.yul\":4939:4951   */\n      dup3\n      and\n      dup1\n        /* \"#utility.yul\":4960:5021   */\n      tag_179\n      jumpi\n        /* \"#utility.yul\":5014:5018   */\n      0x7f\n        /* \"#utility.yul\":5006:5012   */\n      dup3\n        /* \"#utility.yul\":5002:5019   */\n      and\n        /* \"#utility.yul\":4992:5019   */\n      swap2\n      pop\n        /* \"#utility.yul\":4960:5021   */\n    tag_179:\n        /* \"#utility.yul\":5067:5069   */\n      0x20\n        /* \"#utility.yul\":5059:5065   */\n      dup3\n        /* \"#utility.yul\":5056:5070   */\n      lt\n        /* \"#utility.yul\":5036:5054   */\n      dup2\n        /* \"#utility.yul\":5033:5071   */\n      sub\n        /* \"#utility.yul\":5030:5248   */\n      tag_180\n      jumpi\n      shl(0xe0, 0x4e487b71)\n        /* \"#utility.yul\":5101:5102   */\n      0x00\n        /* \"#utility.yul\":5094:5182   */\n      mstore\n        /* \"#utility.yul\":5205:5209   */\n      0x22\n        /* \"#utility.yul\":5202:5203   */\n      0x04\n        /* \"#utility.yul\":5195:5210   */\n      mstore\n        /* \"#utility.yul\":5233:5237   */\n      0x24\n        /* \"#utility.yul\":5230:5231   */\n      0x00\n        /* \"#utility.yul\":5223:5238   */\n      revert\n        /* \"#utility.yul\":5030:5248   */\n    tag_180:\n      pop\n        /* \"#utility.yul\":4817:5254   */\n      swap2\n      swap1\n      pop\n      jump\t// out\n        /* \"#utility.yul\":5385:5903   */\n    tag_140:\n        /* \"#utility.yul\":5487:5489   */\n      0x1f\n        /* \"#utility.yul\":5482:5485   */\n      dup3\n        /* \"#utility.yul\":5479:5490   */\n      gt\n        /* \"#utility.yul\":5476:5897   */\n      iszero\n      tag_183\n      jumpi\n        /* \"#utility.yul\":5523:5528   */\n      dup1\n        /* \"#utility.yul\":5520:5521   */\n      0x00\n        /* \"#utility.yul\":5513:5529   */\n      mstore\n        /* \"#utility.yul\":5567:5571   */\n      0x20\n        /* \"#utility.yul\":5564:5565   */\n      0x00\n        /* \"#utility.yul\":5554:5572   */\n      keccak256\n        /* \"#utility.yul\":5637:5639   */\n      0x1f\n        /* \"#utility.yul\":5625:5635   */\n      dup5\n        /* \"#utility.yul\":5621:5640   */\n      add\n        /* \"#utility.yul\":5618:5619   */\n      0x05\n        /* \"#utility.yul\":5614:5641   */\n      shr\n        /* \"#utility.yul\":5608:5612   */\n      dup2\n        /* \"#utility.yul\":5604:5642   */\n      add\n        /* \"#utility.yul\":5673:5677   */\n      0x20\n        /* \"#utility.yul\":5661:5671   */\n      dup6\n        /* \"#utility.yul\":5658:5678   */\n      lt\n        /* \"#utility.yul\":5655:5702   */\n      iszero\n      tag_184\n      jumpi\n      pop\n        /* \"#utility.yul\":5696:5700   */\n      dup1\n        /* \"#utility.yul\":5655:5702   */\n    tag_184:\n        /* \"#utility.yul\":5751:5753   */\n      0x1f\n        /* \"#utility.yul\":5746:5749   */\n      dup5\n        /* \"#utility.yul\":5742:5754   */\n      add\n        /* \"#utility.yul\":5739:5740   */\n      0x05\n        /* \"#utility.yul\":5735:5755   */\n      shr\n        /* \"#utility.yul\":5729:5733   */\n      dup3\n        /* \"#utility.yul\":5725:5756   */\n      add\n        /* \"#utility.yul\":5715:5756   */\n      swap2\n      pop\n        /* \"#utility.yul\":5806:5887   */\n    tag_185:\n        /* \"#utility.yul\":5824:5826   */\n      dup2\n        /* \"#utility.yul\":5817:5822   */\n      dup2\n        /* \"#utility.yul\":5814:5827   */\n      lt\n        /* \"#utility.yul\":5806:5887   */\n      iszero\n      tag_187\n      jumpi\n        /* \"#utility.yul\":5883:5884   */\n      0x00\n        /* \"#utility.yul\":5869:5885   */\n      dup2\n      sstore\n        /* \"#utility.yul\":5850:5851   */\n      0x01\n        /* \"#utility.yul\":5839:5852   */\n      add\n        /* \"#utility.yul\":5806:5887   */\n      jump(tag_185)\n    tag_187:\n        /* \"#utility.yul\":5810:5813   */\n      pop\n      pop\n        /* \"#utility.yul\":5476:5897   */\n    tag_183:\n        /* \"#utility.yul\":5385:5903   */\n      pop\n      pop\n      pop\n      jump\t// out\n        /* \"#utility.yul\":6079:7424   */\n    tag_81:\n        /* \"#utility.yul\":6205:6208   */\n      dup2\n        /* \"#utility.yul\":6199:6209   */\n      mload\n        /* \"#utility.yul\":6232:6250   */\n      0xffffffffffffffff\n        /* \"#utility.yul\":6224:6230   */\n      dup2\n        /* \"#utility.yul\":6221:6251   */\n      gt\n        /* \"#utility.yul\":6218:6274   */\n      iszero\n      tag_191\n      jumpi\n        /* \"#utility.yul\":6254:6272   */\n      tag_191\n      tag_136\n      jump\t// in\n    tag_191:\n        /* \"#utility.yul\":6283:6380   */\n      tag_192\n        /* \"#utility.yul\":6373:6379   */\n      dup2\n        /* \"#utility.yul\":6333:6371   */\n      tag_193\n        /* \"#utility.yul\":6365:6369   */\n      dup5\n        /* \"#utility.yul\":6359:6370   */\n      sload\n        /* \"#utility.yul\":6333:6371   */\n      tag_88\n      jump\t// in\n    tag_193:\n        /* \"#utility.yul\":6327:6331   */\n      dup5\n        /* \"#utility.yul\":6283:6380   */\n      tag_140\n      jump\t// in\n    tag_192:\n        /* \"#utility.yul\":6435:6439   */\n      0x20\n      dup1\n        /* \"#utility.yul\":6492:6494   */\n      0x1f\n        /* \"#utility.yul\":6481:6495   */\n      dup4\n      gt\n        /* \"#utility.yul\":6509:6510   */\n      0x01\n        /* \"#utility.yul\":6504:7167   */\n      dup2\n      eq\n      tag_195\n      jumpi\n        /* \"#utility.yul\":7211:7212   */\n      0x00\n        /* \"#utility.yul\":7228:7234   */\n      dup5\n        /* \"#utility.yul\":7225:7314   */\n      iszero\n      tag_196\n      jumpi\n      pop\n        /* \"#utility.yul\":7280:7299   */\n      dup6\n      dup4\n      add\n        /* \"#utility.yul\":7274:7300   */\n      mload\n        /* \"#utility.yul\":7225:7314   */\n    tag_196:\n      not(0x00)\n        /* \"#utility.yul\":6036:6037   */\n      0x03\n        /* \"#utility.yul\":6032:6043   */\n      dup7\n      swap1\n      shl\n        /* \"#utility.yul\":6028:6052   */\n      shr\n        /* \"#utility.yul\":6024:6053   */\n      not\n        /* \"#utility.yul\":6014:6054   */\n      and\n        /* \"#utility.yul\":6060:6061   */\n      0x01\n        /* \"#utility.yul\":6056:6067   */\n      dup6\n      swap1\n      shl\n        /* \"#utility.yul\":6011:6068   */\n      or\n        /* \"#utility.yul\":7327:7408   */\n      dup6\n      sstore\n        /* \"#utility.yul\":6474:7418   */\n      jump(tag_194)\n        /* \"#utility.yul\":6504:7167   */\n    tag_195:\n        /* \"#utility.yul\":5332:5333   */\n      0x00\n        /* \"#utility.yul\":5325:5339   */\n      dup6\n      dup2\n      mstore\n        /* \"#utility.yul\":5369:5373   */\n      0x20\n        /* \"#utility.yul\":5356:5374   */\n      dup2\n      keccak256\n      not(0x1f)\n        /* \"#utility.yul\":6540:6560   */\n      dup7\n      and\n      swap2\n        /* \"#utility.yul\":6658:6894   */\n    tag_199:\n        /* \"#utility.yul\":6672:6679   */\n      dup3\n        /* \"#utility.yul\":6669:6670   */\n      dup2\n        /* \"#utility.yul\":6666:6680   */\n      lt\n        /* \"#utility.yul\":6658:6894   */\n      iszero\n      tag_201\n      jumpi\n        /* \"#utility.yul\":6761:6780   */\n      dup9\n      dup7\n      add\n        /* \"#utility.yul\":6755:6781   */\n      mload\n        /* \"#utility.yul\":6740:6782   */\n      dup3\n      sstore\n        /* \"#utility.yul\":6853:6880   */\n      swap5\n      dup5\n      add\n      swap5\n        /* \"#utility.yul\":6821:6822   */\n      0x01\n        /* \"#utility.yul\":6809:6823   */\n      swap1\n      swap2\n      add\n      swap1\n        /* \"#utility.yul\":6688:6707   */\n      dup5\n      add\n        /* \"#utility.yul\":6658:6894   */\n      jump(tag_199)\n    tag_201:\n        /* \"#utility.yul\":6662:6665   */\n      pop\n        /* \"#utility.yul\":6922:6928   */\n      dup6\n        /* \"#utility.yul\":6913:6920   */\n      dup3\n        /* \"#utility.yul\":6910:6929   */\n      lt\n        /* \"#utility.yul\":6907:7108   */\n      iszero\n      tag_202\n      jumpi\n        /* \"#utility.yul\":6983:7002   */\n      dup8\n      dup6\n      add\n        /* \"#utility.yul\":6977:7003   */\n      mload\n      not(0x00)\n        /* \"#utility.yul\":7066:7067   */\n      0x03\n        /* \"#utility.yul\":7062:7076   */\n      dup9\n      swap1\n      shl\n        /* \"#utility.yul\":7078:7081   */\n      0xf8\n        /* \"#utility.yul\":7058:7082   */\n      and\n        /* \"#utility.yul\":7054:7091   */\n      shr\n        /* \"#utility.yul\":7050:7092   */\n      not\n        /* \"#utility.yul\":7035:7093   */\n      and\n        /* \"#utility.yul\":7020:7094   */\n      dup2\n      sstore\n        /* \"#utility.yul\":6907:7108   */\n    tag_202:\n      pop\n      pop\n        /* \"#utility.yul\":7154:7155   */\n      0x01\n        /* \"#utility.yul\":7145:7151   */\n      dup5\n        /* \"#utility.yul\":7142:7143   */\n      0x01\n        /* \"#utility.yul\":7138:7152   */\n      shl\n        /* \"#utility.yul\":7134:7156   */\n      add\n        /* \"#utility.yul\":7128:7132   */\n      dup6\n        /* \"#utility.yul\":7121:7157   */\n      sstore\n        /* \"#utility.yul\":6474:7418   */\n    tag_194:\n      pop\n      pop\n      pop\n      pop\n        /* \"#utility.yul\":6079:7424   */\n      pop\n      pop\n      jump\t// out\n        /* \"#utility.yul\":7429:7708   */\n    tag_86:\n        /* \"#utility.yul\":7494:7503   */\n      dup1\n      dup3\n      add\n        /* \"#utility.yul\":7515:7525   */\n      dup1\n      dup3\n      gt\n        /* \"#utility.yul\":7512:7702   */\n      iszero\n      tag_204\n      jumpi\n      shl(0xe0, 0x4e487b71)\n        /* \"#utility.yul\":7555:7556   */\n      0x00\n        /* \"#utility.yul\":7548:7636   */\n      mstore\n        /* \"#utility.yul\":7659:7663   */\n      0x11\n        /* \"#utility.yul\":7656:7657   */\n      0x04\n        /* \"#utility.yul\":7649:7664   */\n      mstore\n        /* \"#utility.yul\":7687:7691   */\n      0x24\n        /* \"#utility.yul\":7684:7685   */\n      0x00\n        /* \"#utility.yul\":7677:7692   */\n      revert\n        /* \"#utility.yul\":7512:7702   */\n    tag_204:\n        /* \"#utility.yul\":7429:7708   */\n      swap3\n      swap2\n      pop\n      pop\n      jump\t// out\n        /* \"#utility.yul\":7713:9140   */\n    tag_104:\n        /* \"#utility.yul\":7832:7835   */\n      dup2\n        /* \"#utility.yul\":7826:7830   */\n      dup2\n        /* \"#utility.yul\":7823:7836   */\n      sub\n        /* \"#utility.yul\":7820:7846   */\n      tag_206\n      jumpi\n        /* \"#utility.yul\":7839:7844   */\n      pop\n      pop\n        /* \"#utility.yul\":7713:9140   */\n      jump\t// out\n        /* \"#utility.yul\":7820:7846   */\n    tag_206:\n        /* \"#utility.yul\":7869:7906   */\n      tag_207\n        /* \"#utility.yul\":7901:7904   */\n      dup3\n        /* \"#utility.yul\":7895:7905   */\n      sload\n        /* \"#utility.yul\":7869:7906   */\n      tag_88\n      jump\t// in\n    tag_207:\n        /* \"#utility.yul\":7929:7947   */\n      0xffffffffffffffff\n        /* \"#utility.yul\":7921:7927   */\n      dup2\n        /* \"#utility.yul\":7918:7948   */\n      gt\n        /* \"#utility.yul\":7915:7971   */\n      iszero\n      tag_209\n      jumpi\n        /* \"#utility.yul\":7951:7969   */\n      tag_209\n      tag_136\n      jump\t// in\n    tag_209:\n        /* \"#utility.yul\":7980:8077   */\n      tag_210\n        /* \"#utility.yul\":8070:8076   */\n      dup2\n        /* \"#utility.yul\":8030:8068   */\n      tag_193\n        /* \"#utility.yul\":8062:8066   */\n      dup5\n        /* \"#utility.yul\":8056:8067   */\n      sload\n        /* \"#utility.yul\":8030:8068   */\n      tag_88\n      jump\t// in\n        /* \"#utility.yul\":7980:8077   */\n    tag_210:\n        /* \"#utility.yul\":8103:8104   */\n      0x00\n        /* \"#utility.yul\":8131:8133   */\n      0x1f\n        /* \"#utility.yul\":8123:8129   */\n      dup3\n        /* \"#utility.yul\":8120:8134   */\n      gt\n        /* \"#utility.yul\":8148:8149   */\n      0x01\n        /* \"#utility.yul\":8143:8883   */\n      dup2\n      eq\n      tag_213\n      jumpi\n        /* \"#utility.yul\":8927:8928   */\n      0x00\n        /* \"#utility.yul\":8944:8950   */\n      dup4\n        /* \"#utility.yul\":8941:9030   */\n      iszero\n      tag_214\n      jumpi\n      pop\n        /* \"#utility.yul\":8996:9015   */\n      dup5\n      dup3\n      add\n        /* \"#utility.yul\":8990:9016   */\n      sload\n        /* \"#utility.yul\":8941:9030   */\n    tag_214:\n      not(0x00)\n        /* \"#utility.yul\":6036:6037   */\n      0x03\n        /* \"#utility.yul\":6032:6043   */\n      dup6\n      swap1\n      shl\n        /* \"#utility.yul\":6028:6052   */\n      shr\n        /* \"#utility.yul\":6024:6053   */\n      not\n        /* \"#utility.yul\":6014:6054   */\n      and\n        /* \"#utility.yul\":6060:6061   */\n      0x01\n        /* \"#utility.yul\":6056:6067   */\n      dup5\n      swap1\n      shl\n        /* \"#utility.yul\":6011:6068   */\n      or\n        /* \"#utility.yul\":9043:9124   */\n      dup5\n      sstore\n        /* \"#utility.yul\":8113:9134   */\n      jump(tag_187)\n        /* \"#utility.yul\":8143:8883   */\n    tag_213:\n        /* \"#utility.yul\":5332:5333   */\n      0x00\n        /* \"#utility.yul\":5325:5339   */\n      dup6\n      dup2\n      mstore\n        /* \"#utility.yul\":5369:5373   */\n      0x20\n        /* \"#utility.yul\":5356:5374   */\n      dup1\n      dup3\n      keccak256\n        /* \"#utility.yul\":5325:5339   */\n      dup7\n      dup4\n      mstore\n        /* \"#utility.yul\":5356:5374   */\n      swap1\n      dup3\n      keccak256\n      not(0x1f)\n        /* \"#utility.yul\":8179:8199   */\n      dup7\n      and\n      swap3\n        /* \"#utility.yul\":8357:8608   */\n    tag_218:\n        /* \"#utility.yul\":8371:8378   */\n      dup4\n        /* \"#utility.yul\":8368:8369   */\n      dup2\n        /* \"#utility.yul\":8365:8379   */\n      lt\n        /* \"#utility.yul\":8357:8608   */\n      iszero\n      tag_220\n      jumpi\n        /* \"#utility.yul\":8453:8474   */\n      dup3\n      dup7\n      add\n        /* \"#utility.yul\":8447:8475   */\n      sload\n        /* \"#utility.yul\":8432:8476   */\n      dup3\n      sstore\n        /* \"#utility.yul\":8503:8504   */\n      0x01\n        /* \"#utility.yul\":8576:8594   */\n      swap6\n      dup7\n      add\n      swap6\n        /* \"#utility.yul\":8531:8546   */\n      swap1\n      swap2\n      add\n      swap1\n        /* \"#utility.yul\":8394:8398   */\n      0x20\n        /* \"#utility.yul\":8387:8399   */\n      add\n        /* \"#utility.yul\":8357:8608   */\n      jump(tag_218)\n    tag_220:\n        /* \"#utility.yul\":8361:8364   */\n      pop\n        /* \"#utility.yul\":8636:8642   */\n      dup6\n        /* \"#utility.yul\":8627:8634   */\n      dup4\n        /* \"#utility.yul\":8624:8643   */\n      lt\n        /* \"#utility.yul\":8621:8824   */\n      iszero\n      tag_221\n      jumpi\n        /* \"#utility.yul\":8697:8718   */\n      dup2\n      dup6\n      add\n        /* \"#utility.yul\":8691:8719   */\n      sload\n      not(0x00)\n        /* \"#utility.yul\":8782:8783   */\n      0x03\n        /* \"#utility.yul\":8778:8792   */\n      dup9\n      swap1\n      shl\n        /* \"#utility.yul\":8794:8797   */\n      0xf8\n        /* \"#utility.yul\":8774:8798   */\n      and\n        /* \"#utility.yul\":8770:8807   */\n      shr\n        /* \"#utility.yul\":8766:8808   */\n      not\n        /* \"#utility.yul\":8751:8809   */\n      and\n        /* \"#utility.yul\":8736:8810   */\n      dup2\n      sstore\n        /* \"#utility.yul\":8621:8824   */\n    tag_221:\n      pop\n      pop\n      pop\n      pop\n      pop\n        /* \"#utility.yul\":8870:8871   */\n      0x01\n        /* \"#utility.yul\":8854:8868   */\n      swap1\n      dup2\n      shl\n        /* \"#utility.yul\":8850:8872   */\n      add\n        /* \"#utility.yul\":8837:8873   */\n      swap1\n      sstore\n      pop\n        /* \"#utility.yul\":7713:9140   */\n      jump\t// out\n\n    auxdata: 0xa264697066735822122075708a76279de33c584a43bba4f780c68b8b94fdbed798e9c9f35ffbb8c817e364736f6c63430008180033\n}\n",
				"bytecode": {
					"linkReferences": {},
					"object": "608060405234801561000f575f80fd5b50610d2c8061001d5f395ff3fe608060405234801561000f575f80fd5b50600436106100da575f3560e01c80636537214711610088578063b2fb8e3711610063578063b2fb8e3714610222578063c93346ab14610235578063dfbf53ae14610248578063e9d729ae14610250575f80fd5b806365372147146101d85780636b0eec1c146101ed5780637a26dd311461020f575f80fd5b80631e51c9ea116100b85780631e51c9ea146101415780634d50ba3a146101ac5780636247e532146101b5575f80fd5b80630500894d146100de57806313732d79146100fa5780631b4613cb1461010f575b5f80fd5b6100e760045481565b6040519081526020015b60405180910390f35b61010d61010836600461095d565b610263565b005b61013161011d3660046109c5565b60026020525f908152604090205460ff1681565b60405190151581526020016100f1565b61018061014f3660046109c5565b5f602081905290815260409020805460019091015473ffffffffffffffffffffffffffffffffffffffff9091169082565b6040805173ffffffffffffffffffffffffffffffffffffffff90931683526020830191909152016100f1565b6100e760055481565b6101c86101c33660046109c5565b6103c4565b6040516100f19493929190610a1f565b6101e06104f7565b6040516100f19190610a5b565b6101316101fb3660046109c5565b60036020525f908152604090205460ff1681565b61010d61021d366004610a74565b6105ea565b6101316102303660046109c5565b610787565b6101316102433660046109c5565b6107ca565b6101e061080d565b6101e061025e3660046109c5565b610899565b5f8260405160200161027791815260200190565b60408051601f1981840301815291815281516020928301205f818152600390935291205490915060ff16156103195760405162461bcd60e51b815260206004820152602560248201527f43616e6469646174652068617320616c7265616479206265656e20726567697360448201527f746572656400000000000000000000000000000000000000000000000000000060648201526084015b60405180910390fd5b6004545f8181526001602052604090206103338682610b42565b505f8181526001602081905260409091209081018390556002016103578482610b42565b505f828152600360205260408120805460ff191660019081179091556006805491820181559091527ff652222313e28459528d920b65115c16c04f3efc82aaedc97be59f3f377c0d3f016103ab8482610b42565b506004546103ba906001610c02565b6004555050505050565b60016020525f90815260409020805481906103de90610abe565b80601f016020809104026020016040519081016040528092919081815260200182805461040a90610abe565b80156104555780601f1061042c57610100808354040283529160200191610455565b820191905f5260205f20905b81548152906001019060200180831161043857829003601f168201915b50505050509080600101549080600201805461047090610abe565b80601f016020809104026020016040519081016040528092919081815260200182805461049c90610abe565b80156104e75780601f106104be576101008083540402835291602001916104e7565b820191905f5260205f20905b8154815290600101906020018083116104ca57829003601f168201915b5050505050908060030154905084565b60605f805f5b60065481101561053e575f81815260016020526040902060030154831015610536575f8181526001602052604090206003015492509050805b6001016104fd565b505f8181526001602052604090206007906105599082610c27565b506007805461056790610abe565b80601f016020809104026020016040519081016040528092919081815260200182805461059390610abe565b80156105de5780601f106105b5576101008083540402835291602001916105de565b820191905f5260205f20905b8154815290600101906020018083116105c157829003601f168201915b50505050509250505090565b6005546105f8906001610c02565b60055560408051602080820185905282518083038201815291830183528151918101919091205f81815260029092529190205460ff161561067b5760405162461bcd60e51b815260206004820152601b60248201527f43616e6469646174652068617320616c726561647920766f74656400000000006044820152606401610310565b600654600211156106f45760405162461bcd60e51b815260206004820152602b60248201527f54686572652063616e277420626520656c656374696f6e20776974682061207360448201527f696e676c652070617274790000000000000000000000000000000000000000006064820152608401610310565b5f8181526020818152604080832080547fffffffffffffffffffffffff00000000000000000000000000000000000000001673ffffffffffffffffffffffffffffffffffffffff89161781556001908101869055858452918290528220600301805491929091610765908490610c02565b90915550505f908152600260205260409020805460ff19166001179055505050565b5f808260405160200161079c91815260200190565b60408051601f1981840301815291815281516020928301205f908152600390925290205460ff169392505050565b5f80826040516020016107df91815260200190565b60408051601f1981840301815291815281516020928301205f908152600290925290205460ff169392505050565b6007805461081a90610abe565b80601f016020809104026020016040519081016040528092919081815260200182805461084690610abe565b80156108915780601f1061086857610100808354040283529160200191610891565b820191905f5260205f20905b81548152906001019060200180831161087457829003601f168201915b505050505081565b600681815481106108a8575f80fd5b905f5260205f20015f91509050805461081a90610abe565b634e487b7160e01b5f52604160045260245ffd5b5f82601f8301126108e3575f80fd5b813567ffffffffffffffff808211156108fe576108fe6108c0565b604051601f8301601f19908116603f01168101908282118183101715610926576109266108c0565b8160405283815286602085880101111561093e575f80fd5b836020870160208301375f602085830101528094505050505092915050565b5f805f6060848603121561096f575f80fd5b833567ffffffffffffffff80821115610986575f80fd5b610992878388016108d4565b94506020860135935060408601359150808211156109ae575f80fd5b506109bb868287016108d4565b9150509250925092565b5f602082840312156109d5575f80fd5b5035919050565b5f81518084525f5b81811015610a00576020818501810151868301820152016109e4565b505f602082860101526020601f19601f83011685010191505092915050565b608081525f610a3160808301876109dc565b8560208401528281036040840152610a4981866109dc565b91505082606083015295945050505050565b602081525f610a6d60208301846109dc565b9392505050565b5f805f60608486031215610a86575f80fd5b833573ffffffffffffffffffffffffffffffffffffffff81168114610aa9575f80fd5b95602085013595506040909401359392505050565b600181811c90821680610ad257607f821691505b602082108103610af057634e487b7160e01b5f52602260045260245ffd5b50919050565b601f821115610b3d57805f5260205f20601f840160051c81016020851015610b1b5750805b601f840160051c820191505b81811015610b3a575f8155600101610b27565b50505b505050565b815167ffffffffffffffff811115610b5c57610b5c6108c0565b610b7081610b6a8454610abe565b84610af6565b602080601f831160018114610ba3575f8415610b8c5750858301515b5f19600386901b1c1916600185901b178555610bfa565b5f85815260208120601f198616915b82811015610bd157888601518255948401946001909101908401610bb2565b5085821015610bee57878501515f19600388901b60f8161c191681555b505060018460011b0185555b505050505050565b80820180821115610c2157634e487b7160e01b5f52601160045260245ffd5b92915050565b818103610c32575050565b610c3c8254610abe565b67ffffffffffffffff811115610c5457610c546108c0565b610c6281610b6a8454610abe565b5f601f821160018114610c93575f8315610c7c5750848201545b5f19600385901b1c1916600184901b178455610b3a565b5f8581526020808220868352908220601f198616925b83811015610cc95782860154825560019586019590910190602001610ca9565b5085831015610ce657818501545f19600388901b60f8161c191681555b5050505050600190811b0190555056fea264697066735822122075708a76279de33c584a43bba4f780c68b8b94fdbed798e9c9f35ffbb8c817e364736f6c63430008180033",
					"opcodes": "PUSH1 0x80 PUSH1 0x40 MSTORE CALLVALUE DUP1 ISZERO PUSH2 0xF JUMPI PUSH0 DUP1 REVERT JUMPDEST POP PUSH2 0xD2C DUP1 PUSH2 0x1D PUSH0 CODECOPY PUSH0 RETURN INVALID PUSH1 0x80 PUSH1 0x40 MSTORE CALLVALUE DUP1 ISZERO PUSH2 0xF JUMPI PUSH0 DUP1 REVERT JUMPDEST POP PUSH1 0x4 CALLDATASIZE LT PUSH2 0xDA JUMPI PUSH0 CALLDATALOAD PUSH1 0xE0 SHR DUP1 PUSH4 0x65372147 GT PUSH2 0x88 JUMPI DUP1 PUSH4 0xB2FB8E37 GT PUSH2 0x63 JUMPI DUP1 PUSH4 0xB2FB8E37 EQ PUSH2 0x222 JUMPI DUP1 PUSH4 0xC93346AB EQ PUSH2 0x235 JUMPI DUP1 PUSH4 0xDFBF53AE EQ PUSH2 0x248 JUMPI DUP1 PUSH4 0xE9D729AE EQ PUSH2 0x250 JUMPI PUSH0 DUP1 REVERT JUMPDEST DUP1 PUSH4 0x65372147 EQ PUSH2 0x1D8 JUMPI DUP1 PUSH4 0x6B0EEC1C EQ PUSH2 0x1ED JUMPI DUP1 PUSH4 0x7A26DD31 EQ PUSH2 0x20F JUMPI PUSH0 DUP1 REVERT JUMPDEST DUP1 PUSH4 0x1E51C9EA GT PUSH2 0xB8 JUMPI DUP1 PUSH4 0x1E51C9EA EQ PUSH2 0x141 JUMPI DUP1 PUSH4 0x4D50BA3A EQ PUSH2 0x1AC JUMPI DUP1 PUSH4 0x6247E532 EQ PUSH2 0x1B5 JUMPI PUSH0 DUP1 REVERT JUMPDEST DUP1 PUSH4 0x500894D EQ PUSH2 0xDE JUMPI DUP1 PUSH4 0x13732D79 EQ PUSH2 0xFA JUMPI DUP1 PUSH4 0x1B4613CB EQ PUSH2 0x10F JUMPI JUMPDEST PUSH0 DUP1 REVERT JUMPDEST PUSH2 0xE7 PUSH1 0x4 SLOAD DUP2 JUMP JUMPDEST PUSH1 0x40 MLOAD SWAP1 DUP2 MSTORE PUSH1 0x20 ADD JUMPDEST PUSH1 0x40 MLOAD DUP1 SWAP2 SUB SWAP1 RETURN JUMPDEST PUSH2 0x10D PUSH2 0x108 CALLDATASIZE PUSH1 0x4 PUSH2 0x95D JUMP JUMPDEST PUSH2 0x263 JUMP JUMPDEST STOP JUMPDEST PUSH2 0x131 PUSH2 0x11D CALLDATASIZE PUSH1 0x4 PUSH2 0x9C5 JUMP JUMPDEST PUSH1 0x2 PUSH1 0x20 MSTORE PUSH0 SWAP1 DUP2 MSTORE PUSH1 0x40 SWAP1 KECCAK256 SLOAD PUSH1 0xFF AND DUP2 JUMP JUMPDEST PUSH1 0x40 MLOAD SWAP1 ISZERO ISZERO DUP2 MSTORE PUSH1 0x20 ADD PUSH2 0xF1 JUMP JUMPDEST PUSH2 0x180 PUSH2 0x14F CALLDATASIZE PUSH1 0x4 PUSH2 0x9C5 JUMP JUMPDEST PUSH0 PUSH1 0x20 DUP2 SWAP1 MSTORE SWAP1 DUP2 MSTORE PUSH1 0x40 SWAP1 KECCAK256 DUP1 SLOAD PUSH1 0x1 SWAP1 SWAP2 ADD SLOAD PUSH20 0xFFFFFFFFFFFFFFFFFFFFFFFFFFFFFFFFFFFFFFFF SWAP1 SWAP2 AND SWAP1 DUP3 JUMP JUMPDEST PUSH1 0x40 DUP1 MLOAD PUSH20 0xFFFFFFFFFFFFFFFFFFFFFFFFFFFFFFFFFFFFFFFF SWAP1 SWAP4 AND DUP4 MSTORE PUSH1 0x20 DUP4 ADD SWAP2 SWAP1 SWAP2 MSTORE ADD PUSH2 0xF1 JUMP JUMPDEST PUSH2 0xE7 PUSH1 0x5 SLOAD DUP2 JUMP JUMPDEST PUSH2 0x1C8 PUSH2 0x1C3 CALLDATASIZE PUSH1 0x4 PUSH2 0x9C5 JUMP JUMPDEST PUSH2 0x3C4 JUMP JUMPDEST PUSH1 0x40 MLOAD PUSH2 0xF1 SWAP5 SWAP4 SWAP3 SWAP2 SWAP1 PUSH2 0xA1F JUMP JUMPDEST PUSH2 0x1E0 PUSH2 0x4F7 JUMP JUMPDEST PUSH1 0x40 MLOAD PUSH2 0xF1 SWAP2 SWAP1 PUSH2 0xA5B JUMP JUMPDEST PUSH2 0x131 PUSH2 0x1FB CALLDATASIZE PUSH1 0x4 PUSH2 0x9C5 JUMP JUMPDEST PUSH1 0x3 PUSH1 0x20 MSTORE PUSH0 SWAP1 DUP2 MSTORE PUSH1 0x40 SWAP1 KECCAK256 SLOAD PUSH1 0xFF AND DUP2 JUMP JUMPDEST PUSH2 0x10D PUSH2 0x21D CALLDATASIZE PUSH1 0x4 PUSH2 0xA74 JUMP JUMPDEST PUSH2 0x5EA JUMP JUMPDEST PUSH2 0x131 PUSH2 0x230 CALLDATASIZE PUSH1 0x4 PUSH2 0x9C5 JUMP JUMPDEST PUSH2 0x787 JUMP JUMPDEST PUSH2 0x131 PUSH2 0x243 CALLDATASIZE PUSH1 0x4 PUSH2 0x9C5 JUMP JUMPDEST PUSH2 0x7CA JUMP JUMPDEST PUSH2 0x1E0 PUSH2 0x80D JUMP JUMPDEST PUSH2 0x1E0 PUSH2 0x25E CALLDATASIZE PUSH1 0x4 PUSH2 0x9C5 JUMP JUMPDEST PUSH2 0x899 JUMP JUMPDEST PUSH0 DUP3 PUSH1 0x40 MLOAD PUSH1 0x20 ADD PUSH2 0x277 SWAP2 DUP2 MSTORE PUSH1 0x20 ADD SWAP1 JUMP JUMPDEST PUSH1 0x40 DUP1 MLOAD PUSH1 0x1F NOT DUP2 DUP5 SUB ADD DUP2 MSTORE SWAP2 DUP2 MSTORE DUP2 MLOAD PUSH1 0x20 SWAP3 DUP4 ADD KECCAK256 PUSH0 DUP2 DUP2 MSTORE PUSH1 0x3 SWAP1 SWAP4 MSTORE SWAP2 KECCAK256 SLOAD SWAP1 SWAP2 POP PUSH1 0xFF AND ISZERO PUSH2 0x319 JUMPI PUSH1 0x40 MLOAD PUSH3 0x461BCD PUSH1 0xE5 SHL DUP2 MSTORE PUSH1 0x20 PUSH1 0x4 DUP3 ADD MSTORE PUSH1 0x25 PUSH1 0x24 DUP3 ADD MSTORE PUSH32 0x43616E6469646174652068617320616C7265616479206265656E207265676973 PUSH1 0x44 DUP3 ADD MSTORE PUSH32 0x7465726564000000000000000000000000000000000000000000000000000000 PUSH1 0x64 DUP3 ADD MSTORE PUSH1 0x84 ADD JUMPDEST PUSH1 0x40 MLOAD DUP1 SWAP2 SUB SWAP1 REVERT JUMPDEST PUSH1 0x4 SLOAD PUSH0 DUP2 DUP2 MSTORE PUSH1 0x1 PUSH1 0x20 MSTORE PUSH1 0x40 SWAP1 KECCAK256 PUSH2 0x333 DUP7 DUP3 PUSH2 0xB42 JUMP JUMPDEST POP PUSH0 DUP2 DUP2 MSTORE PUSH1 0x1 PUSH1 0x20 DUP2 SWAP1 MSTORE PUSH1 0x40 SWAP1 SWAP2 KECCAK256 SWAP1 DUP2 ADD DUP4 SWAP1 SSTORE PUSH1 0x2 ADD PUSH2 0x357 DUP5 DUP3 PUSH2 0xB42 JUMP JUMPDEST POP PUSH0 DUP3 DUP2 MSTORE PUSH1 0x3 PUSH1 0x20 MSTORE PUSH1 0x40 DUP2 KECCAK256 DUP1 SLOAD PUSH1 0xFF NOT AND PUSH1 0x1 SWAP1 DUP2 OR SWAP1 SWAP2 SSTORE PUSH1 0x6 DUP1 SLOAD SWAP2 DUP3 ADD DUP2 SSTORE SWAP1 SWAP2 MSTORE PUSH32 0xF652222313E28459528D920B65115C16C04F3EFC82AAEDC97BE59F3F377C0D3F ADD PUSH2 0x3AB DUP5 DUP3 PUSH2 0xB42 JUMP JUMPDEST POP PUSH1 0x4 SLOAD PUSH2 0x3BA SWAP1 PUSH1 0x1 PUSH2 0xC02 JUMP JUMPDEST PUSH1 0x4 SSTORE POP POP POP POP POP JUMP JUMPDEST PUSH1 0x1 PUSH1 0x20 MSTORE PUSH0 SWAP1 DUP2 MSTORE PUSH1 0x40 SWAP1 KECCAK256 DUP1 SLOAD DUP2 SWAP1 PUSH2 0x3DE SWAP1 PUSH2 0xABE JUMP JUMPDEST DUP1 PUSH1 0x1F ADD PUSH1 0x20 DUP1 SWAP2 DIV MUL PUSH1 0x20 ADD PUSH1 0x40 MLOAD SWAP1 DUP2 ADD PUSH1 0x40 MSTORE DUP1 SWAP3 SWAP2 SWAP1 DUP2 DUP2 MSTORE PUSH1 0x20 ADD DUP3 DUP1 SLOAD PUSH2 0x40A SWAP1 PUSH2 0xABE JUMP JUMPDEST DUP1 ISZERO PUSH2 0x455 JUMPI DUP1 PUSH1 0x1F LT PUSH2 0x42C JUMPI PUSH2 0x100 DUP1 DUP4 SLOAD DIV MUL DUP4 MSTORE SWAP2 PUSH1 0x20 ADD SWAP2 PUSH2 0x455 JUMP JUMPDEST DUP3 ADD SWAP2 SWAP1 PUSH0 MSTORE PUSH1 0x20 PUSH0 KECCAK256 SWAP1 JUMPDEST DUP2 SLOAD DUP2 MSTORE SWAP1 PUSH1 0x1 ADD SWAP1 PUSH1 0x20 ADD DUP1 DUP4 GT PUSH2 0x438 JUMPI DUP3 SWAP1 SUB PUSH1 0x1F AND DUP3 ADD SWAP2 JUMPDEST POP POP POP POP POP SWAP1 DUP1 PUSH1 0x1 ADD SLOAD SWAP1 DUP1 PUSH1 0x2 ADD DUP1 SLOAD PUSH2 0x470 SWAP1 PUSH2 0xABE JUMP JUMPDEST DUP1 PUSH1 0x1F ADD PUSH1 0x20 DUP1 SWAP2 DIV MUL PUSH1 0x20 ADD PUSH1 0x40 MLOAD SWAP1 DUP2 ADD PUSH1 0x40 MSTORE DUP1 SWAP3 SWAP2 SWAP1 DUP2 DUP2 MSTORE PUSH1 0x20 ADD DUP3 DUP1 SLOAD PUSH2 0x49C SWAP1 PUSH2 0xABE JUMP JUMPDEST DUP1 ISZERO PUSH2 0x4E7 JUMPI DUP1 PUSH1 0x1F LT PUSH2 0x4BE JUMPI PUSH2 0x100 DUP1 DUP4 SLOAD DIV MUL DUP4 MSTORE SWAP2 PUSH1 0x20 ADD SWAP2 PUSH2 0x4E7 JUMP JUMPDEST DUP3 ADD SWAP2 SWAP1 PUSH0 MSTORE PUSH1 0x20 PUSH0 KECCAK256 SWAP1 JUMPDEST DUP2 SLOAD DUP2 MSTORE SWAP1 PUSH1 0x1 ADD SWAP1 PUSH1 0x20 ADD DUP1 DUP4 GT PUSH2 0x4CA JUMPI DUP3 SWAP1 SUB PUSH1 0x1F AND DUP3 ADD SWAP2 JUMPDEST POP POP POP POP POP SWAP1 DUP1 PUSH1 0x3 ADD SLOAD SWAP1 POP DUP5 JUMP JUMPDEST PUSH1 0x60 PUSH0 DUP1 PUSH0 JUMPDEST PUSH1 0x6 SLOAD DUP2 LT ISZERO PUSH2 0x53E JUMPI PUSH0 DUP2 DUP2 MSTORE PUSH1 0x1 PUSH1 0x20 MSTORE PUSH1 0x40 SWAP1 KECCAK256 PUSH1 0x3 ADD SLOAD DUP4 LT ISZERO PUSH2 0x536 JUMPI PUSH0 DUP2 DUP2 MSTORE PUSH1 0x1 PUSH1 0x20 MSTORE PUSH1 0x40 SWAP1 KECCAK256 PUSH1 0x3 ADD SLOAD SWAP3 POP SWAP1 POP DUP1 JUMPDEST PUSH1 0x1 ADD PUSH2 0x4FD JUMP JUMPDEST POP PUSH0 DUP2 DUP2 MSTORE PUSH1 0x1 PUSH1 0x20 MSTORE PUSH1 0x40 SWAP1 KECCAK256 PUSH1 0x7 SWAP1 PUSH2 0x559 SWAP1 DUP3 PUSH2 0xC27 JUMP JUMPDEST POP PUSH1 0x7 DUP1 SLOAD PUSH2 0x567 SWAP1 PUSH2 0xABE JUMP JUMPDEST DUP1 PUSH1 0x1F ADD PUSH1 0x20 DUP1 SWAP2 DIV MUL PUSH1 0x20 ADD PUSH1 0x40 MLOAD SWAP1 DUP2 ADD PUSH1 0x40 MSTORE DUP1 SWAP3 SWAP2 SWAP1 DUP2 DUP2 MSTORE PUSH1 0x20 ADD DUP3 DUP1 SLOAD PUSH2 0x593 SWAP1 PUSH2 0xABE JUMP JUMPDEST DUP1 ISZERO PUSH2 0x5DE JUMPI DUP1 PUSH1 0x1F LT PUSH2 0x5B5 JUMPI PUSH2 0x100 DUP1 DUP4 SLOAD DIV MUL DUP4 MSTORE SWAP2 PUSH1 0x20 ADD SWAP2 PUSH2 0x5DE JUMP JUMPDEST DUP3 ADD SWAP2 SWAP1 PUSH0 MSTORE PUSH1 0x20 PUSH0 KECCAK256 SWAP1 JUMPDEST DUP2 SLOAD DUP2 MSTORE SWAP1 PUSH1 0x1 ADD SWAP1 PUSH1 0x20 ADD DUP1 DUP4 GT PUSH2 0x5C1 JUMPI DUP3 SWAP1 SUB PUSH1 0x1F AND DUP3 ADD SWAP2 JUMPDEST POP POP POP POP POP SWAP3 POP POP POP SWAP1 JUMP JUMPDEST PUSH1 0x5 SLOAD PUSH2 0x5F8 SWAP1 PUSH1 0x1 PUSH2 0xC02 JUMP JUMPDEST PUSH1 0x5 SSTORE PUSH1 0x40 DUP1 MLOAD PUSH1 0x20 DUP1 DUP3 ADD DUP6 SWAP1 MSTORE DUP3 MLOAD DUP1 DUP4 SUB DUP3 ADD DUP2 MSTORE SWAP2 DUP4 ADD DUP4 MSTORE DUP2 MLOAD SWAP2 DUP2 ADD SWAP2 SWAP1 SWAP2 KECCAK256 PUSH0 DUP2 DUP2 MSTORE PUSH1 0x2 SWAP1 SWAP3 MSTORE SWAP2 SWAP1 KECCAK256 SLOAD PUSH1 0xFF AND ISZERO PUSH2 0x67B JUMPI PUSH1 0x40 MLOAD PUSH3 0x461BCD PUSH1 0xE5 SHL DUP2 MSTORE PUSH1 0x20 PUSH1 0x4 DUP3 ADD MSTORE PUSH1 0x1B PUSH1 0x24 DUP3 ADD MSTORE PUSH32 0x43616E6469646174652068617320616C726561647920766F7465640000000000 PUSH1 0x44 DUP3 ADD MSTORE PUSH1 0x64 ADD PUSH2 0x310 JUMP JUMPDEST PUSH1 0x6 SLOAD PUSH1 0x2 GT ISZERO PUSH2 0x6F4 JUMPI PUSH1 0x40 MLOAD PUSH3 0x461BCD PUSH1 0xE5 SHL DUP2 MSTORE PUSH1 0x20 PUSH1 0x4 DUP3 ADD MSTORE PUSH1 0x2B PUSH1 0x24 DUP3 ADD MSTORE PUSH32 0x54686572652063616E277420626520656C656374696F6E207769746820612073 PUSH1 0x44 DUP3 ADD MSTORE PUSH32 0x696E676C65207061727479000000000000000000000000000000000000000000 PUSH1 0x64 DUP3 ADD MSTORE PUSH1 0x84 ADD PUSH2 0x310 JUMP JUMPDEST PUSH0 DUP2 DUP2 MSTORE PUSH1 0x20 DUP2 DUP2 MSTORE PUSH1 0x40 DUP1 DUP4 KECCAK256 DUP1 SLOAD PUSH32 0xFFFFFFFFFFFFFFFFFFFFFFFF0000000000000000000000000000000000000000 AND PUSH20 0xFFFFFFFFFFFFFFFFFFFFFFFFFFFFFFFFFFFFFFFF DUP10 AND OR DUP2 SSTORE PUSH1 0x1 SWAP1 DUP2 ADD DUP7 SWAP1 SSTORE DUP6 DUP5 MSTORE SWAP2 DUP3 SWAP1 MSTORE DUP3 KECCAK256 PUSH1 0x3 ADD DUP1 SLOAD SWAP2 SWAP3 SWAP1 SWAP2 PUSH2 0x765 SWAP1 DUP5 SWAP1 PUSH2 0xC02 JUMP JUMPDEST SWAP1 SWAP2 SSTORE POP POP PUSH0 SWAP1 DUP2 MSTORE PUSH1 0x2 PUSH1 0x20 MSTORE PUSH1 0x40 SWAP1 KECCAK256 DUP1 SLOAD PUSH1 0xFF NOT AND PUSH1 0x1 OR SWAP1 SSTORE POP POP POP JUMP JUMPDEST PUSH0 DUP1 DUP3 PUSH1 0x40 MLOAD PUSH1 0x20 ADD PUSH2 0x79C SWAP2 DUP2 MSTORE PUSH1 0x20 ADD SWAP1 JUMP JUMPDEST PUSH1 0x40 DUP1 MLOAD PUSH1 0x1F NOT DUP2 DUP5 SUB ADD DUP2 MSTORE SWAP2 DUP2 MSTORE DUP2 MLOAD PUSH1 0x20 SWAP3 DUP4 ADD KECCAK256 PUSH0 SWAP1 DUP2 MSTORE PUSH1 0x3 SWAP1 SWAP3 MSTORE SWAP1 KECCAK256 SLOAD PUSH1 0xFF AND SWAP4 SWAP3 POP POP POP JUMP JUMPDEST PUSH0 DUP1 DUP3 PUSH1 0x40 MLOAD PUSH1 0x20 ADD PUSH2 0x7DF SWAP2 DUP2 MSTORE PUSH1 0x20 ADD SWAP1 JUMP JUMPDEST PUSH1 0x40 DUP1 MLOAD PUSH1 0x1F NOT DUP2 DUP5 SUB ADD DUP2 MSTORE SWAP2 DUP2 MSTORE DUP2 MLOAD PUSH1 0x20 SWAP3 DUP4 ADD KECCAK256 PUSH0 SWAP1 DUP2 MSTORE PUSH1 0x2 SWAP1 SWAP3 MSTORE SWAP1 KECCAK256 SLOAD PUSH1 0xFF AND SWAP4 SWAP3 POP POP POP JUMP JUMPDEST PUSH1 0x7 DUP1 SLOAD PUSH2 0x81A SWAP1 PUSH2 0xABE JUMP JUMPDEST DUP1 PUSH1 0x1F ADD PUSH1 0x20 DUP1 SWAP2 DIV MUL PUSH1 0x20 ADD PUSH1 0x40 MLOAD SWAP1 DUP2 ADD PUSH1 0x40 MSTORE DUP1 SWAP3 SWAP2 SWAP1 DUP2 DUP2 MSTORE PUSH1 0x20 ADD DUP3 DUP1 SLOAD PUSH2 0x846 SWAP1 PUSH2 0xABE JUMP JUMPDEST DUP1 ISZERO PUSH2 0x891 JUMPI DUP1 PUSH1 0x1F LT PUSH2 0x868 JUMPI PUSH2 0x100 DUP1 DUP4 SLOAD DIV MUL DUP4 MSTORE SWAP2 PUSH1 0x20 ADD SWAP2 PUSH2 0x891 JUMP JUMPDEST DUP3 ADD SWAP2 SWAP1 PUSH0 MSTORE PUSH1 0x20 PUSH0 KECCAK256 SWAP1 JUMPDEST DUP2 SLOAD DUP2 MSTORE SWAP1 PUSH1 0x1 ADD SWAP1 PUSH1 0x20 ADD DUP1 DUP4 GT PUSH2 0x874 JUMPI DUP3 SWAP1 SUB PUSH1 0x1F AND DUP3 ADD SWAP2 JUMPDEST POP POP POP POP POP DUP2 JUMP JUMPDEST PUSH1 0x6 DUP2 DUP2 SLOAD DUP2 LT PUSH2 0x8A8 JUMPI PUSH0 DUP1 REVERT JUMPDEST SWAP1 PUSH0 MSTORE PUSH1 0x20 PUSH0 KECCAK256 ADD PUSH0 SWAP2 POP SWAP1 POP DUP1 SLOAD PUSH2 0x81A SWAP1 PUSH2 0xABE JUMP JUMPDEST PUSH4 0x4E487B71 PUSH1 0xE0 SHL PUSH0 MSTORE PUSH1 0x41 PUSH1 0x4 MSTORE PUSH1 0x24 PUSH0 REVERT JUMPDEST PUSH0 DUP3 PUSH1 0x1F DUP4 ADD SLT PUSH2 0x8E3 JUMPI PUSH0 DUP1 REVERT JUMPDEST DUP2 CALLDATALOAD PUSH8 0xFFFFFFFFFFFFFFFF DUP1 DUP3 GT ISZERO PUSH2 0x8FE JUMPI PUSH2 0x8FE PUSH2 0x8C0 JUMP JUMPDEST PUSH1 0x40 MLOAD PUSH1 0x1F DUP4 ADD PUSH1 0x1F NOT SWAP1 DUP2 AND PUSH1 0x3F ADD AND DUP2 ADD SWAP1 DUP3 DUP3 GT DUP2 DUP4 LT OR ISZERO PUSH2 0x926 JUMPI PUSH2 0x926 PUSH2 0x8C0 JUMP JUMPDEST DUP2 PUSH1 0x40 MSTORE DUP4 DUP2 MSTORE DUP7 PUSH1 0x20 DUP6 DUP9 ADD ADD GT ISZERO PUSH2 0x93E JUMPI PUSH0 DUP1 REVERT JUMPDEST DUP4 PUSH1 0x20 DUP8 ADD PUSH1 0x20 DUP4 ADD CALLDATACOPY PUSH0 PUSH1 0x20 DUP6 DUP4 ADD ADD MSTORE DUP1 SWAP5 POP POP POP POP POP SWAP3 SWAP2 POP POP JUMP JUMPDEST PUSH0 DUP1 PUSH0 PUSH1 0x60 DUP5 DUP7 SUB SLT ISZERO PUSH2 0x96F JUMPI PUSH0 DUP1 REVERT JUMPDEST DUP4 CALLDATALOAD PUSH8 0xFFFFFFFFFFFFFFFF DUP1 DUP3 GT ISZERO PUSH2 0x986 JUMPI PUSH0 DUP1 REVERT JUMPDEST PUSH2 0x992 DUP8 DUP4 DUP9 ADD PUSH2 0x8D4 JUMP JUMPDEST SWAP5 POP PUSH1 0x20 DUP7 ADD CALLDATALOAD SWAP4 POP PUSH1 0x40 DUP7 ADD CALLDATALOAD SWAP2 POP DUP1 DUP3 GT ISZERO PUSH2 0x9AE JUMPI PUSH0 DUP1 REVERT JUMPDEST POP PUSH2 0x9BB DUP7 DUP3 DUP8 ADD PUSH2 0x8D4 JUMP JUMPDEST SWAP2 POP POP SWAP3 POP SWAP3 POP SWAP3 JUMP JUMPDEST PUSH0 PUSH1 0x20 DUP3 DUP5 SUB SLT ISZERO PUSH2 0x9D5 JUMPI PUSH0 DUP1 REVERT JUMPDEST POP CALLDATALOAD SWAP2 SWAP1 POP JUMP JUMPDEST PUSH0 DUP2 MLOAD DUP1 DUP5 MSTORE PUSH0 JUMPDEST DUP2 DUP2 LT ISZERO PUSH2 0xA00 JUMPI PUSH1 0x20 DUP2 DUP6 ADD DUP2 ADD MLOAD DUP7 DUP4 ADD DUP3 ADD MSTORE ADD PUSH2 0x9E4 JUMP JUMPDEST POP PUSH0 PUSH1 0x20 DUP3 DUP7 ADD ADD MSTORE PUSH1 0x20 PUSH1 0x1F NOT PUSH1 0x1F DUP4 ADD AND DUP6 ADD ADD SWAP2 POP POP SWAP3 SWAP2 POP POP JUMP JUMPDEST PUSH1 0x80 DUP2 MSTORE PUSH0 PUSH2 0xA31 PUSH1 0x80 DUP4 ADD DUP8 PUSH2 0x9DC JUMP JUMPDEST DUP6 PUSH1 0x20 DUP5 ADD MSTORE DUP3 DUP2 SUB PUSH1 0x40 DUP5 ADD MSTORE PUSH2 0xA49 DUP2 DUP7 PUSH2 0x9DC JUMP JUMPDEST SWAP2 POP POP DUP3 PUSH1 0x60 DUP4 ADD MSTORE SWAP6 SWAP5 POP POP POP POP POP JUMP JUMPDEST PUSH1 0x20 DUP2 MSTORE PUSH0 PUSH2 0xA6D PUSH1 0x20 DUP4 ADD DUP5 PUSH2 0x9DC JUMP JUMPDEST SWAP4 SWAP3 POP POP POP JUMP JUMPDEST PUSH0 DUP1 PUSH0 PUSH1 0x60 DUP5 DUP7 SUB SLT ISZERO PUSH2 0xA86 JUMPI PUSH0 DUP1 REVERT JUMPDEST DUP4 CALLDATALOAD PUSH20 0xFFFFFFFFFFFFFFFFFFFFFFFFFFFFFFFFFFFFFFFF DUP2 AND DUP2 EQ PUSH2 0xAA9 JUMPI PUSH0 DUP1 REVERT JUMPDEST SWAP6 PUSH1 0x20 DUP6 ADD CALLDATALOAD SWAP6 POP PUSH1 0x40 SWAP1 SWAP5 ADD CALLDATALOAD SWAP4 SWAP3 POP POP POP JUMP JUMPDEST PUSH1 0x1 DUP2 DUP2 SHR SWAP1 DUP3 AND DUP1 PUSH2 0xAD2 JUMPI PUSH1 0x7F DUP3 AND SWAP2 POP JUMPDEST PUSH1 0x20 DUP3 LT DUP2 SUB PUSH2 0xAF0 JUMPI PUSH4 0x4E487B71 PUSH1 0xE0 SHL PUSH0 MSTORE PUSH1 0x22 PUSH1 0x4 MSTORE PUSH1 0x24 PUSH0 REVERT JUMPDEST POP SWAP2 SWAP1 POP JUMP JUMPDEST PUSH1 0x1F DUP3 GT ISZERO PUSH2 0xB3D JUMPI DUP1 PUSH0 MSTORE PUSH1 0x20 PUSH0 KECCAK256 PUSH1 0x1F DUP5 ADD PUSH1 0x5 SHR DUP2 ADD PUSH1 0x20 DUP6 LT ISZERO PUSH2 0xB1B JUMPI POP DUP1 JUMPDEST PUSH1 0x1F DUP5 ADD PUSH1 0x5 SHR DUP3 ADD SWAP2 POP JUMPDEST DUP2 DUP2 LT ISZERO PUSH2 0xB3A JUMPI PUSH0 DUP2 SSTORE PUSH1 0x1 ADD PUSH2 0xB27 JUMP JUMPDEST POP POP JUMPDEST POP POP POP JUMP JUMPDEST DUP2 MLOAD PUSH8 0xFFFFFFFFFFFFFFFF DUP2 GT ISZERO PUSH2 0xB5C JUMPI PUSH2 0xB5C PUSH2 0x8C0 JUMP JUMPDEST PUSH2 0xB70 DUP2 PUSH2 0xB6A DUP5 SLOAD PUSH2 0xABE JUMP JUMPDEST DUP5 PUSH2 0xAF6 JUMP JUMPDEST PUSH1 0x20 DUP1 PUSH1 0x1F DUP4 GT PUSH1 0x1 DUP2 EQ PUSH2 0xBA3 JUMPI PUSH0 DUP5 ISZERO PUSH2 0xB8C JUMPI POP DUP6 DUP4 ADD MLOAD JUMPDEST PUSH0 NOT PUSH1 0x3 DUP7 SWAP1 SHL SHR NOT AND PUSH1 0x1 DUP6 SWAP1 SHL OR DUP6 SSTORE PUSH2 0xBFA JUMP JUMPDEST PUSH0 DUP6 DUP2 MSTORE PUSH1 0x20 DUP2 KECCAK256 PUSH1 0x1F NOT DUP7 AND SWAP2 JUMPDEST DUP3 DUP2 LT ISZERO PUSH2 0xBD1 JUMPI DUP9 DUP7 ADD MLOAD DUP3 SSTORE SWAP5 DUP5 ADD SWAP5 PUSH1 0x1 SWAP1 SWAP2 ADD SWAP1 DUP5 ADD PUSH2 0xBB2 JUMP JUMPDEST POP DUP6 DUP3 LT ISZERO PUSH2 0xBEE JUMPI DUP8 DUP6 ADD MLOAD PUSH0 NOT PUSH1 0x3 DUP9 SWAP1 SHL PUSH1 0xF8 AND SHR NOT AND DUP2 SSTORE JUMPDEST POP POP PUSH1 0x1 DUP5 PUSH1 0x1 SHL ADD DUP6 SSTORE JUMPDEST POP POP POP POP POP POP JUMP JUMPDEST DUP1 DUP3 ADD DUP1 DUP3 GT ISZERO PUSH2 0xC21 JUMPI PUSH4 0x4E487B71 PUSH1 0xE0 SHL PUSH0 MSTORE PUSH1 0x11 PUSH1 0x4 MSTORE PUSH1 0x24 PUSH0 REVERT JUMPDEST SWAP3 SWAP2 POP POP JUMP JUMPDEST DUP2 DUP2 SUB PUSH2 0xC32 JUMPI POP POP JUMP JUMPDEST PUSH2 0xC3C DUP3 SLOAD PUSH2 0xABE JUMP JUMPDEST PUSH8 0xFFFFFFFFFFFFFFFF DUP2 GT ISZERO PUSH2 0xC54 JUMPI PUSH2 0xC54 PUSH2 0x8C0 JUMP JUMPDEST PUSH2 0xC62 DUP2 PUSH2 0xB6A DUP5 SLOAD PUSH2 0xABE JUMP JUMPDEST PUSH0 PUSH1 0x1F DUP3 GT PUSH1 0x1 DUP2 EQ PUSH2 0xC93 JUMPI PUSH0 DUP4 ISZERO PUSH2 0xC7C JUMPI POP DUP5 DUP3 ADD SLOAD JUMPDEST PUSH0 NOT PUSH1 0x3 DUP6 SWAP1 SHL SHR NOT AND PUSH1 0x1 DUP5 SWAP1 SHL OR DUP5 SSTORE PUSH2 0xB3A JUMP JUMPDEST PUSH0 DUP6 DUP2 MSTORE PUSH1 0x20 DUP1 DUP3 KECCAK256 DUP7 DUP4 MSTORE SWAP1 DUP3 KECCAK256 PUSH1 0x1F NOT DUP7 AND SWAP3 JUMPDEST DUP4 DUP2 LT ISZERO PUSH2 0xCC9 JUMPI DUP3 DUP7 ADD SLOAD DUP3 SSTORE PUSH1 0x1 SWAP6 DUP7 ADD SWAP6 SWAP1 SWAP2 ADD SWAP1 PUSH1 0x20 ADD PUSH2 0xCA9 JUMP JUMPDEST POP DUP6 DUP4 LT ISZERO PUSH2 0xCE6 JUMPI DUP2 DUP6 ADD SLOAD PUSH0 NOT PUSH1 0x3 DUP9 SWAP1 SHL PUSH1 0xF8 AND SHR NOT AND DUP2 SSTORE JUMPDEST POP POP POP POP POP PUSH1 0x1 SWAP1 DUP2 SHL ADD SWAP1 SSTORE POP JUMP INVALID LOG2 PUSH5 0x6970667358 0x22 SLT KECCAK256 PUSH22 0x708A76279DE33C584A43BBA4F780C68B8B94FDBED798 0xE9 0xC9 RETURN PUSH0 0xFB 0xB8 0xC8 OR 0xE3 PUSH5 0x736F6C6343 STOP ADDMOD XOR STOP CALLER "
				},
				"gasEstimates": {
					"creation": {
						"codeDepositCost": "674400",
						"executionCost": "706",
						"totalCost": "675106"
					},
					"external": {
						"addCandidateDetails(string,uint256,string)": "infinite",
						"addVoterDetails(address,uint256,uint256)": "infinite",
						"candidateDetails(uint256)": "infinite",
						"checkCandidateStatus(uint256)": "2642",
						"checkVoterStatus(uint256)": "2664",
						"hasRegistered(bytes32)": "2492",
						"hasVoted(bytes32)": "2515",
						"listOfParties(uint256)": "infinite",
						"partyCounter()": "2307",
						"result()": "infinite",
						"voterCounter()": "2328",
						"voterDetails(bytes32)": "4624",
						"winner()": "infinite"
					}
				},
				"methodIdentifiers": {
					"addCandidateDetails(string,uint256,string)": "13732d79",
					"addVoterDetails(address,uint256,uint256)": "7a26dd31",
					"candidateDetails(uint256)": "6247e532",
					"checkCandidateStatus(uint256)": "b2fb8e37",
					"checkVoterStatus(uint256)": "c93346ab",
					"hasRegistered(bytes32)": "6b0eec1c",
					"hasVoted(bytes32)": "1b4613cb",
					"listOfParties(uint256)": "e9d729ae",
					"partyCounter()": "0500894d",
					"result()": "65372147",
					"voterCounter()": "4d50ba3a",
					"voterDetails(bytes32)": "1e51c9ea",
					"winner()": "dfbf53ae"
				}
			},
			"storageLayout": {
				"storage": [
					{
						"astId": 20,
						"contract": "contracts/Eip1967/Eip1967Contract.sol:Eip1967LogicContract",
						"label": "voterDetails",
						"offset": 0,
						"slot": "0",
						"type": "t_mapping(t_bytes32,t_struct(VoterDetails)6_storage)"
					},
					{
						"astId": 25,
						"contract": "contracts/Eip1967/Eip1967Contract.sol:Eip1967LogicContract",
						"label": "candidateDetails",
						"offset": 0,
						"slot": "1",
						"type": "t_mapping(t_uint256,t_struct(CandidateDetails)15_storage)"
					},
					{
						"astId": 29,
						"contract": "contracts/Eip1967/Eip1967Contract.sol:Eip1967LogicContract",
						"label": "hasVoted",
						"offset": 0,
						"slot": "2",
						"type": "t_mapping(t_bytes32,t_bool)"
					},
					{
						"astId": 33,
						"contract": "contracts/Eip1967/Eip1967Contract.sol:Eip1967LogicContract",
						"label": "hasRegistered",
						"offset": 0,
						"slot": "3",
						"type": "t_mapping(t_bytes32,t_bool)"
					},
					{
						"astId": 35,
						"contract": "contracts/Eip1967/Eip1967Contract.sol:Eip1967LogicContract",
						"label": "partyCounter",
						"offset": 0,
						"slot": "4",
						"type": "t_uint256"
					},
					{
						"astId": 37,
						"contract": "contracts/Eip1967/Eip1967Contract.sol:Eip1967LogicContract",
						"label": "voterCounter",
						"offset": 0,
						"slot": "5",
						"type": "t_uint256"
					},
					{
						"astId": 40,
						"contract": "contracts/Eip1967/Eip1967Contract.sol:Eip1967LogicContract",
						"label": "listOfParties",
						"offset": 0,
						"slot": "6",
						"type": "t_array(t_string_storage)dyn_storage"
					},
					{
						"astId": 42,
						"contract": "contracts/Eip1967/Eip1967Contract.sol:Eip1967LogicContract",
						"label": "winner",
						"offset": 0,
						"slot": "7",
						"type": "t_string_storage"
					}
				],
				"types": {
					"t_address": {
						"encoding": "inplace",
						"label": "address",
						"numberOfBytes": "20"
					},
					"t_array(t_string_storage)dyn_storage": {
						"base": "t_string_storage",
						"encoding": "dynamic_array",
						"label": "string[]",
						"numberOfBytes": "32"
					},
					"t_bool": {
						"encoding": "inplace",
						"label": "bool",
						"numberOfBytes": "1"
					},
					"t_bytes32": {
						"encoding": "inplace",
						"label": "bytes32",
						"numberOfBytes": "32"
					},
					"t_mapping(t_bytes32,t_bool)": {
						"encoding": "mapping",
						"key": "t_bytes32",
						"label": "mapping(bytes32 => bool)",
						"numberOfBytes": "32",
						"value": "t_bool"
					},
					"t_mapping(t_bytes32,t_struct(VoterDetails)6_storage)": {
						"encoding": "mapping",
						"key": "t_bytes32",
						"label": "mapping(bytes32 => struct Eip1967LogicContract.VoterDetails)",
						"numberOfBytes": "32",
						"value": "t_struct(VoterDetails)6_storage"
					},
					"t_mapping(t_uint256,t_struct(CandidateDetails)15_storage)": {
						"encoding": "mapping",
						"key": "t_uint256",
						"label": "mapping(uint256 => struct Eip1967LogicContract.CandidateDetails)",
						"numberOfBytes": "32",
						"value": "t_struct(CandidateDetails)15_storage"
					},
					"t_string_storage": {
						"encoding": "bytes",
						"label": "string",
						"numberOfBytes": "32"
					},
					"t_struct(CandidateDetails)15_storage": {
						"encoding": "inplace",
						"label": "struct Eip1967LogicContract.CandidateDetails",
						"members": [
							{
								"astId": 8,
								"contract": "contracts/Eip1967/Eip1967Contract.sol:Eip1967LogicContract",
								"label": "nameOfCandidate",
								"offset": 0,
								"slot": "0",
								"type": "t_string_storage"
							},
							{
								"astId": 10,
								"contract": "contracts/Eip1967/Eip1967Contract.sol:Eip1967LogicContract",
								"label": "voterCardNo",
								"offset": 0,
								"slot": "1",
								"type": "t_bytes32"
							},
							{
								"astId": 12,
								"contract": "contracts/Eip1967/Eip1967Contract.sol:Eip1967LogicContract",
								"label": "partyName",
								"offset": 0,
								"slot": "2",
								"type": "t_string_storage"
							},
							{
								"astId": 14,
								"contract": "contracts/Eip1967/Eip1967Contract.sol:Eip1967LogicContract",
								"label": "totalVotes",
								"offset": 0,
								"slot": "3",
								"type": "t_uint256"
							}
						],
						"numberOfBytes": "128"
					},
					"t_struct(VoterDetails)6_storage": {
						"encoding": "inplace",
						"label": "struct Eip1967LogicContract.VoterDetails",
						"members": [
							{
								"astId": 3,
								"contract": "contracts/Eip1967/Eip1967Contract.sol:Eip1967LogicContract",
								"label": "voterAddress",
								"offset": 0,
								"slot": "0",
								"type": "t_address"
							},
							{
								"astId": 5,
								"contract": "contracts/Eip1967/Eip1967Contract.sol:Eip1967LogicContract",
								"label": "partyNumber",
								"offset": 0,
								"slot": "1",
								"type": "t_uint256"
							}
						],
						"numberOfBytes": "64"
					},
					"t_uint256": {
						"encoding": "inplace",
						"label": "uint256",
						"numberOfBytes": "32"
					}
				}
			},
			"userdoc": {
				"kind": "user",
				"methods": {},
				"version": 1
			}
		}
	}
}