{
	"data": {
		"bytecode": {
			"linkReferences": {},
			"object": "608060405234801561000f575f80fd5b5060405161001c906100fd565b604051809103905ff080158015610035573d5f803e3d5ffd5b506339bf581360e21b5f5260016020527f910e72d85c5dc1c93347e0c7a16ee1b62b45b0c240ef97cdf7dcd0a1f6a8a1c980546001600160a01b0319166001600160a01b039290921691909117905560405161009090610109565b604051809103905ff0801580156100a9573d5f803e3d5ffd5b50637a0ed62760e01b5f5260016020527fc347c6416d11a7124fbf91167f5a9b61c9ee63e7f57f7dc72e64835b644ba8a580546001600160a01b0319166001600160a01b0392909216919091179055610115565b60588061040f83390190565b60588061046783390190565b6102ed806101225f395ff3fe608060405234801561000f575f80fd5b506004361061003f575f3560e01c8063112b6a67146100435780637a0ed62714610073578063e6fd604c14610088575b5f80fd5b610056610051366004610225565b61011b565b6040516001600160a01b0390911681526020015b60405180910390f35b61007b6101c6565b60405161006a919061026b565b610119600160208190527f910e72d85c5dc1c93347e0c7a16ee1b62b45b0c240ef97cdf7dcd0a1f6a8a1c9545f8054928301815580527f290decd9548b62a8d60345a988386fc84ba6bc95484008f6362f93160ef3e56390910180547fffffffffffffffffffffffff0000000000000000000000000000000000000000166001600160a01b03909216919091179055565b005b7fffffffff0000000000000000000000000000000000000000000000000000000081165f908152600160205260408120546001600160a01b0316806101c0576040517f08c379a000000000000000000000000000000000000000000000000000000000815260206004820152600f60248201527f4661636574206e6f7420666f756e640000000000000000000000000000000000604482015260640160405180910390fd5b92915050565b60605f80548060200260200160405190810160405280929190818152602001828054801561021b57602002820191905f5260205f20905b81546001600160a01b031681526001909101906020018083116101fd575b5050505050905090565b5f60208284031215610235575f80fd5b81357fffffffff0000000000000000000000000000000000000000000000000000000081168114610264575f80fd5b9392505050565b602080825282518282018190525f9190848201906040850190845b818110156102ab5783516001600160a01b031683529284019291840191600101610286565b5090969550505050505056fea2646970667358221220734fe04b8ef2b7ff1cee30553c92b6b57c7d6668f35a4cc2a0e4547016ba1f4b64736f6c634300081800336080604052348015600e575f80fd5b50603e80601a5f395ff3fe60806040525f80fdfea2646970667358221220b0f496fa93aef53a67f017b4a8d39909d8b1344f4203173ad504033c32bebb6c64736f6c634300081800336080604052348015600e575f80fd5b50603e80601a5f395ff3fe60806040525f80fdfea264697066735822122041ee2c45d5b0addd7aa0c16b7a110c5ed428c969bc86c0ecf6691bc9b0c06fa064736f6c63430008180033",
			"opcodes": "PUSH1 0x80 PUSH1 0x40 MSTORE CALLVALUE DUP1 ISZERO PUSH2 0xF JUMPI PUSH0 DUP1 REVERT JUMPDEST POP PUSH1 0x40 MLOAD PUSH2 0x1C SWAP1 PUSH2 0xFD JUMP JUMPDEST PUSH1 0x40 MLOAD DUP1 SWAP2 SUB SWAP1 PUSH0 CREATE DUP1 ISZERO DUP1 ISZERO PUSH2 0x35 JUMPI RETURNDATASIZE PUSH0 DUP1 RETURNDATACOPY RETURNDATASIZE PUSH0 REVERT JUMPDEST POP PUSH4 0x39BF5813 PUSH1 0xE2 SHL PUSH0 MSTORE PUSH1 0x1 PUSH1 0x20 MSTORE PUSH32 0x910E72D85C5DC1C93347E0C7A16EE1B62B45B0C240EF97CDF7DCD0A1F6A8A1C9 DUP1 SLOAD PUSH1 0x1 PUSH1 0x1 PUSH1 0xA0 SHL SUB NOT AND PUSH1 0x1 PUSH1 0x1 PUSH1 0xA0 SHL SUB SWAP3 SWAP1 SWAP3 AND SWAP2 SWAP1 SWAP2 OR SWAP1 SSTORE PUSH1 0x40 MLOAD PUSH2 0x90 SWAP1 PUSH2 0x109 JUMP JUMPDEST PUSH1 0x40 MLOAD DUP1 SWAP2 SUB SWAP1 PUSH0 CREATE DUP1 ISZERO DUP1 ISZERO PUSH2 0xA9 JUMPI RETURNDATASIZE PUSH0 DUP1 RETURNDATACOPY RETURNDATASIZE PUSH0 REVERT JUMPDEST POP PUSH4 0x7A0ED627 PUSH1 0xE0 SHL PUSH0 MSTORE PUSH1 0x1 PUSH1 0x20 MSTORE PUSH32 0xC347C6416D11A7124FBF91167F5A9B61C9EE63E7F57F7DC72E64835B644BA8A5 DUP1 SLOAD PUSH1 0x1 PUSH1 0x1 PUSH1 0xA0 SHL SUB NOT AND PUSH1 0x1 PUSH1 0x1 PUSH1 0xA0 SHL SUB SWAP3 SWAP1 SWAP3 AND SWAP2 SWAP1 SWAP2 OR SWAP1 SSTORE PUSH2 0x115 JUMP JUMPDEST PUSH1 0x58 DUP1 PUSH2 0x40F DUP4 CODECOPY ADD SWAP1 JUMP JUMPDEST PUSH1 0x58 DUP1 PUSH2 0x467 DUP4 CODECOPY ADD SWAP1 JUMP JUMPDEST PUSH2 0x2ED DUP1 PUSH2 0x122 PUSH0 CODECOPY PUSH0 RETURN INVALID PUSH1 0x80 PUSH1 0x40 MSTORE CALLVALUE DUP1 ISZERO PUSH2 0xF JUMPI PUSH0 DUP1 REVERT JUMPDEST POP PUSH1 0x4 CALLDATASIZE LT PUSH2 0x3F JUMPI PUSH0 CALLDATALOAD PUSH1 0xE0 SHR DUP1 PUSH4 0x112B6A67 EQ PUSH2 0x43 JUMPI DUP1 PUSH4 0x7A0ED627 EQ PUSH2 0x73 JUMPI DUP1 PUSH4 0xE6FD604C EQ PUSH2 0x88 JUMPI JUMPDEST PUSH0 DUP1 REVERT JUMPDEST PUSH2 0x56 PUSH2 0x51 CALLDATASIZE PUSH1 0x4 PUSH2 0x225 JUMP JUMPDEST PUSH2 0x11B JUMP JUMPDEST PUSH1 0x40 MLOAD PUSH1 0x1 PUSH1 0x1 PUSH1 0xA0 SHL SUB SWAP1 SWAP2 AND DUP2 MSTORE PUSH1 0x20 ADD JUMPDEST PUSH1 0x40 MLOAD DUP1 SWAP2 SUB SWAP1 RETURN JUMPDEST PUSH2 0x7B PUSH2 0x1C6 JUMP JUMPDEST PUSH1 0x40 MLOAD PUSH2 0x6A SWAP2 SWAP1 PUSH2 0x26B JUMP JUMPDEST PUSH2 0x119 PUSH1 0x1 PUSH1 0x20 DUP2 SWAP1 MSTORE PUSH32 0x910E72D85C5DC1C93347E0C7A16EE1B62B45B0C240EF97CDF7DCD0A1F6A8A1C9 SLOAD PUSH0 DUP1 SLOAD SWAP3 DUP4 ADD DUP2 SSTORE DUP1 MSTORE PUSH32 0x290DECD9548B62A8D60345A988386FC84BA6BC95484008F6362F93160EF3E563 SWAP1 SWAP2 ADD DUP1 SLOAD PUSH32 0xFFFFFFFFFFFFFFFFFFFFFFFF0000000000000000000000000000000000000000 AND PUSH1 0x1 PUSH1 0x1 PUSH1 0xA0 SHL SUB SWAP1 SWAP3 AND SWAP2 SWAP1 SWAP2 OR SWAP1 SSTORE JUMP JUMPDEST STOP JUMPDEST PUSH32 0xFFFFFFFF00000000000000000000000000000000000000000000000000000000 DUP2 AND PUSH0 SWAP1 DUP2 MSTORE PUSH1 0x1 PUSH1 0x20 MSTORE PUSH1 0x40 DUP2 KECCAK256 SLOAD PUSH1 0x1 PUSH1 0x1 PUSH1 0xA0 SHL SUB AND DUP1 PUSH2 0x1C0 JUMPI PUSH1 0x40 MLOAD PUSH32 0x8C379A000000000000000000000000000000000000000000000000000000000 DUP2 MSTORE PUSH1 0x20 PUSH1 0x4 DUP3 ADD MSTORE PUSH1 0xF PUSH1 0x24 DUP3 ADD MSTORE PUSH32 0x4661636574206E6F7420666F756E640000000000000000000000000000000000 PUSH1 0x44 DUP3 ADD MSTORE PUSH1 0x64 ADD PUSH1 0x40 MLOAD DUP1 SWAP2 SUB SWAP1 REVERT JUMPDEST SWAP3 SWAP2 POP POP JUMP JUMPDEST PUSH1 0x60 PUSH0 DUP1 SLOAD DUP1 PUSH1 0x20 MUL PUSH1 0x20 ADD PUSH1 0x40 MLOAD SWAP1 DUP2 ADD PUSH1 0x40 MSTORE DUP1 SWAP3 SWAP2 SWAP1 DUP2 DUP2 MSTORE PUSH1 0x20 ADD DUP3 DUP1 SLOAD DUP1 ISZERO PUSH2 0x21B JUMPI PUSH1 0x20 MUL DUP3 ADD SWAP2 SWAP1 PUSH0 MSTORE PUSH1 0x20 PUSH0 KECCAK256 SWAP1 JUMPDEST DUP2 SLOAD PUSH1 0x1 PUSH1 0x1 PUSH1 0xA0 SHL SUB AND DUP2 MSTORE PUSH1 0x1 SWAP1 SWAP2 ADD SWAP1 PUSH1 0x20 ADD DUP1 DUP4 GT PUSH2 0x1FD JUMPI JUMPDEST POP POP POP POP POP SWAP1 POP SWAP1 JUMP JUMPDEST PUSH0 PUSH1 0x20 DUP3 DUP5 SUB SLT ISZERO PUSH2 0x235 JUMPI PUSH0 DUP1 REVERT JUMPDEST DUP2 CALLDATALOAD PUSH32 0xFFFFFFFF00000000000000000000000000000000000000000000000000000000 DUP2 AND DUP2 EQ PUSH2 0x264 JUMPI PUSH0 DUP1 REVERT JUMPDEST SWAP4 SWAP3 POP POP POP JUMP JUMPDEST PUSH1 0x20 DUP1 DUP3 MSTORE DUP3 MLOAD DUP3 DUP3 ADD DUP2 SWAP1 MSTORE PUSH0 SWAP2 SWAP1 DUP5 DUP3 ADD SWAP1 PUSH1 0x40 DUP6 ADD SWAP1 DUP5 JUMPDEST DUP2 DUP2 LT ISZERO PUSH2 0x2AB JUMPI DUP4 MLOAD PUSH1 0x1 PUSH1 0x1 PUSH1 0xA0 SHL SUB AND DUP4 MSTORE SWAP3 DUP5 ADD SWAP3 SWAP2 DUP5 ADD SWAP2 PUSH1 0x1 ADD PUSH2 0x286 JUMP JUMPDEST POP SWAP1 SWAP7 SWAP6 POP POP POP POP POP POP JUMP INVALID LOG2 PUSH5 0x6970667358 0x22 SLT KECCAK256 PUSH20 0x4FE04B8EF2B7FF1CEE30553C92B6B57C7D6668F3 GAS 0x4C 0xC2 LOG0 0xE4 SLOAD PUSH17 0x16BA1F4B64736F6C634300081800336080 PUSH1 0x40 MSTORE CALLVALUE DUP1 ISZERO PUSH1 0xE JUMPI PUSH0 DUP1 REVERT JUMPDEST POP PUSH1 0x3E DUP1 PUSH1 0x1A PUSH0 CODECOPY PUSH0 RETURN INVALID PUSH1 0x80 PUSH1 0x40 MSTORE PUSH0 DUP1 REVERT INVALID LOG2 PUSH5 0x6970667358 0x22 SLT KECCAK256 0xB0 DELEGATECALL SWAP7 STATICCALL SWAP4 0xAE CREATE2 GASPRICE PUSH8 0xF017B4A8D39909D8 0xB1 CALLVALUE 0x4F TIMESTAMP SUB OR GASPRICE 0xD5 DIV SUB EXTCODECOPY ORIGIN 0xBE 0xBB PUSH13 0x64736F6C634300081800336080 PUSH1 0x40 MSTORE CALLVALUE DUP1 ISZERO PUSH1 0xE JUMPI PUSH0 DUP1 REVERT JUMPDEST POP PUSH1 0x3E DUP1 PUSH1 0x1A PUSH0 CODECOPY PUSH0 RETURN INVALID PUSH1 0x80 PUSH1 0x40 MSTORE PUSH0 DUP1 REVERT INVALID LOG2 PUSH5 0x6970667358 0x22 SLT KECCAK256 COINBASE 0xEE 0x2C GASLIMIT 0xD5 0xB0 0xAD 0xDD PUSH27 0xA0C16B7A110C5ED428C969BC86C0ECF6691BC9B0C06FA064736F6C PUSH4 0x43000818 STOP CALLER "
		},
		"gasEstimates": {
			"creation": {
				"codeDepositCost": "149800",
				"executionCost": "infinite",
				"totalCost": "infinite"
			},
			"external": {
				"cut()": "50754",
				"facets()": "infinite",
				"getFacet(bytes4)": "2532"
			}
		},
		"methodIdentifiers": {
			"cut()": "e6fd604c",
			"facets()": "7a0ed627",
			"getFacet(bytes4)": "112b6a67"
		}
	},
	"abi": [
		{
			"inputs": [],
			"stateMutability": "nonpayable",
			"type": "constructor"
		},
		{
			"inputs": [],
			"name": "cut",
			"outputs": [],
			"stateMutability": "nonpayable",
			"type": "function"
		},
		{
			"inputs": [],
			"name": "facets",
			"outputs": [
				{
					"internalType": "address[]",
					"name": "",
					"type": "address[]"
				}
			],
			"stateMutability": "view",
			"type": "function"
		},
		{
			"inputs": [
				{
					"internalType": "bytes4",
					"name": "_selector",
					"type": "bytes4"
				}
			],
			"name": "getFacet",
			"outputs": [
				{
					"internalType": "address",
					"name": "",
					"type": "address"
				}
			],
			"stateMutability": "view",
			"type": "function"
		}
	]
}