{
	"contracts/UpgradeContract.sol": {
		"ProxyContract": {
			"abi": [
				{
					"inputs": [
						{
							"internalType": "bytes32",
							"name": "",
							"type": "bytes32"
						}
					],
					"name": "_uintStorage",
					"outputs": [
						{
							"internalType": "uint256",
							"name": "",
							"type": "uint256"
						}
					],
					"stateMutability": "view",
					"type": "function"
				},
				{
					"inputs": [],
					"name": "counter",
					"outputs": [
						{
							"internalType": "uint256",
							"name": "",
							"type": "uint256"
						}
					],
					"stateMutability": "view",
					"type": "function"
				},
				{
					"inputs": [],
					"name": "getCounterValue",
					"outputs": [
						{
							"internalType": "uint256",
							"name": "",
							"type": "uint256"
						}
					],
					"stateMutability": "view",
					"type": "function"
				},
				{
					"inputs": [],
					"name": "getIncrementCounter",
					"outputs": [],
					"stateMutability": "nonpayable",
					"type": "function"
				},
				{
					"inputs": [
						{
							"internalType": "bytes32",
							"name": "key",
							"type": "bytes32"
						}
					],
					"name": "getUint",
					"outputs": [
						{
							"internalType": "uint256",
							"name": "",
							"type": "uint256"
						}
					],
					"stateMutability": "view",
					"type": "function"
				},
				{
					"inputs": [
						{
							"internalType": "bytes32",
							"name": "key",
							"type": "bytes32"
						},
						{
							"internalType": "uint256",
							"name": "_id",
							"type": "uint256"
						}
					],
					"name": "setUint",
					"outputs": [],
					"stateMutability": "nonpayable",
					"type": "function"
				}
			],
			"devdoc": {
				"kind": "dev",
				"methods": {},
				"version": 1
			},
			"evm": {
				"assembly": "    /* \"contracts/UpgradeContract.sol\":56:530  contract ProxyContract {... */\n  mstore(0x40, 0x80)\n  callvalue\n  dup1\n  iszero\n  tag_1\n  jumpi\n  0x00\n  dup1\n  revert\ntag_1:\n  pop\n  dataSize(sub_0)\n  dup1\n  dataOffset(sub_0)\n  0x00\n  codecopy\n  0x00\n  return\nstop\n\nsub_0: assembly {\n        /* \"contracts/UpgradeContract.sol\":56:530  contract ProxyContract {... */\n      mstore(0x40, 0x80)\n      callvalue\n      dup1\n      iszero\n      tag_1\n      jumpi\n      0x00\n      dup1\n      revert\n    tag_1:\n      pop\n      jumpi(tag_2, lt(calldatasize, 0x04))\n      shr(0xe0, calldataload(0x00))\n      dup1\n      0xbd02d0f5\n      gt\n      tag_9\n      jumpi\n      dup1\n      0xbd02d0f5\n      eq\n      tag_6\n      jumpi\n      dup1\n      0xd7ae7b74\n      eq\n      tag_7\n      jumpi\n      dup1\n      0xe2a4853a\n      eq\n      tag_8\n      jumpi\n      0x00\n      dup1\n      revert\n    tag_9:\n      dup1\n      0x61bc221a\n      eq\n      tag_3\n      jumpi\n      dup1\n      0x61e8d17a\n      eq\n      tag_4\n      jumpi\n      dup1\n      0x72142b89\n      eq\n      tag_5\n      jumpi\n    tag_2:\n      0x00\n      dup1\n      revert\n        /* \"contracts/UpgradeContract.sol\":138:160  uint256 public counter */\n    tag_3:\n      tag_10\n      sload(0x01)\n      dup2\n      jump\n    tag_10:\n      mload(0x40)\n        /* \"#utility.yul\":160:185   */\n      swap1\n      dup2\n      mstore\n        /* \"#utility.yul\":148:150   */\n      0x20\n        /* \"#utility.yul\":133:151   */\n      add\n        /* \"contracts/UpgradeContract.sol\":138:160  uint256 public counter */\n      mload(0x40)\n      dup1\n      swap2\n      sub\n      swap1\n      return\n        /* \"contracts/UpgradeContract.sol\":370:434  function getIncrementCounter() public {... */\n    tag_4:\n      tag_14\n      tag_15\n      jump\t// in\n    tag_14:\n      stop\n        /* \"contracts/UpgradeContract.sol\":440:528  function getCounterValue() public view returns (uint256) {... */\n    tag_5:\n        /* \"contracts/UpgradeContract.sol\":514:521  counter */\n      sload(0x01)\n        /* \"contracts/UpgradeContract.sol\":440:528  function getCounterValue() public view returns (uint256) {... */\n      jump(tag_10)\n        /* \"contracts/UpgradeContract.sol\":167:268  function getUint(bytes32 key) public view returns (uint256) {... */\n    tag_6:\n      tag_10\n      tag_20\n      calldatasize\n      0x04\n      tag_21\n      jump\t// in\n    tag_20:\n        /* \"contracts/UpgradeContract.sol\":218:225  uint256 */\n      0x00\n        /* \"contracts/UpgradeContract.sol\":244:261  _uintStorage[key] */\n      swap1\n      dup2\n      mstore\n      0x20\n      dup2\n      swap1\n      mstore\n      0x40\n      swap1\n      keccak256\n      sload\n      swap1\n        /* \"contracts/UpgradeContract.sol\":167:268  function getUint(bytes32 key) public view returns (uint256) {... */\n      jump\n        /* \"contracts/UpgradeContract.sol\":85:132  mapping(bytes32 => uint256) public _uintStorage */\n    tag_7:\n      tag_10\n      tag_25\n      calldatasize\n      0x04\n      tag_21\n      jump\t// in\n    tag_25:\n      0x00\n      0x20\n      dup2\n      swap1\n      mstore\n      swap1\n      dup2\n      mstore\n      0x40\n      swap1\n      keccak256\n      sload\n      dup2\n      jump\n        /* \"contracts/UpgradeContract.sol\":274:364  function setUint(bytes32 key, uint256 _id) public {... */\n    tag_8:\n      tag_14\n      tag_29\n      calldatasize\n      0x04\n      tag_30\n      jump\t// in\n    tag_29:\n        /* \"contracts/UpgradeContract.sol\":334:346  _uintStorage */\n      0x00\n        /* \"contracts/UpgradeContract.sol\":334:351  _uintStorage[key] */\n      swap2\n      dup3\n      mstore\n      0x20\n      dup3\n      swap1\n      mstore\n      0x40\n      swap1\n      swap2\n      keccak256\n        /* \"contracts/UpgradeContract.sol\":334:357  _uintStorage[key] = _id */\n      sstore\n        /* \"contracts/UpgradeContract.sol\":274:364  function setUint(bytes32 key, uint256 _id) public {... */\n      jump\n        /* \"contracts/UpgradeContract.sol\":370:434  function getIncrementCounter() public {... */\n    tag_15:\n        /* \"contracts/UpgradeContract.sol\":418:425  counter */\n      0x01\n        /* \"contracts/UpgradeContract.sol\":418:427  counter++ */\n      dup1\n      sload\n      swap1\n        /* \"contracts/UpgradeContract.sol\":418:425  counter */\n      0x00\n        /* \"contracts/UpgradeContract.sol\":418:427  counter++ */\n      tag_33\n      dup4\n      tag_34\n      jump\t// in\n    tag_33:\n      swap2\n      swap1\n      pop\n      sstore\n      pop\n        /* \"contracts/UpgradeContract.sol\":370:434  function getIncrementCounter() public {... */\n      jump\t// out\n        /* \"#utility.yul\":196:376   */\n    tag_21:\n        /* \"#utility.yul\":255:261   */\n      0x00\n        /* \"#utility.yul\":308:310   */\n      0x20\n        /* \"#utility.yul\":296:305   */\n      dup3\n        /* \"#utility.yul\":287:294   */\n      dup5\n        /* \"#utility.yul\":283:306   */\n      sub\n        /* \"#utility.yul\":279:311   */\n      slt\n        /* \"#utility.yul\":276:328   */\n      iszero\n      tag_41\n      jumpi\n        /* \"#utility.yul\":324:325   */\n      0x00\n        /* \"#utility.yul\":321:322   */\n      dup1\n        /* \"#utility.yul\":314:326   */\n      revert\n        /* \"#utility.yul\":276:328   */\n    tag_41:\n      pop\n        /* \"#utility.yul\":347:370   */\n      calldataload\n      swap2\n        /* \"#utility.yul\":196:376   */\n      swap1\n      pop\n      jump\t// out\n        /* \"#utility.yul\":381:629   */\n    tag_30:\n        /* \"#utility.yul\":449:455   */\n      0x00\n        /* \"#utility.yul\":457:463   */\n      dup1\n        /* \"#utility.yul\":510:512   */\n      0x40\n        /* \"#utility.yul\":498:507   */\n      dup4\n        /* \"#utility.yul\":489:496   */\n      dup6\n        /* \"#utility.yul\":485:508   */\n      sub\n        /* \"#utility.yul\":481:513   */\n      slt\n        /* \"#utility.yul\":478:530   */\n      iszero\n      tag_43\n      jumpi\n        /* \"#utility.yul\":526:527   */\n      0x00\n        /* \"#utility.yul\":523:524   */\n      dup1\n        /* \"#utility.yul\":516:528   */\n      revert\n        /* \"#utility.yul\":478:530   */\n    tag_43:\n      pop\n      pop\n        /* \"#utility.yul\":549:572   */\n      dup1\n      calldataload\n      swap3\n        /* \"#utility.yul\":619:621   */\n      0x20\n        /* \"#utility.yul\":604:622   */\n      swap1\n      swap2\n      add\n        /* \"#utility.yul\":591:623   */\n      calldataload\n      swap2\n      pop\n        /* \"#utility.yul\":381:629   */\n      jump\t// out\n        /* \"#utility.yul\":634:923   */\n    tag_34:\n        /* \"#utility.yul\":673:676   */\n      0x00\n        /* \"#utility.yul\":694:711   */\n      0x01\n      dup3\n      add\n        /* \"#utility.yul\":691:888   */\n      tag_45\n      jumpi\n        /* \"#utility.yul\":744:821   */\n      0x4e487b7100000000000000000000000000000000000000000000000000000000\n        /* \"#utility.yul\":741:742   */\n      0x00\n        /* \"#utility.yul\":734:822   */\n      mstore\n        /* \"#utility.yul\":845:849   */\n      0x11\n        /* \"#utility.yul\":842:843   */\n      0x04\n        /* \"#utility.yul\":835:850   */\n      mstore\n        /* \"#utility.yul\":873:877   */\n      0x24\n        /* \"#utility.yul\":870:871   */\n      0x00\n        /* \"#utility.yul\":863:878   */\n      revert\n        /* \"#utility.yul\":691:888   */\n    tag_45:\n      pop\n        /* \"#utility.yul\":915:916   */\n      0x01\n        /* \"#utility.yul\":904:917   */\n      add\n      swap1\n        /* \"#utility.yul\":634:923   */\n      jump\t// out\n\n    auxdata: 0xa2646970667358221220a09cf1de07b185e453ea139065005cbad2bac900c62bf6ee149ce7107c30dcdd64736f6c63430008180033\n}\n",
				"bytecode": {
					"linkReferences": {},
					"object": "608060405234801561000f575f80fd5b506101bd8061001d5f395ff3fe608060405234801561000f575f80fd5b506004361061006f575f3560e01c8063bd02d0f51161004d578063bd02d0f5146100a0578063d7ae7b74146100bf578063e2a4853a146100de575f80fd5b806361bc221a1461007357806361e8d17a1461008e57806372142b8914610098575b5f80fd5b61007c60015481565b60405190815260200160405180910390f35b6100966100fd565b005b60015461007c565b61007c6100ae366004610113565b5f9081526020819052604090205490565b61007c6100cd366004610113565b5f6020819052908152604090205481565b6100966100ec36600461012a565b5f9182526020829052604090912055565b60018054905f61010c8361014a565b9190505550565b5f60208284031215610123575f80fd5b5035919050565b5f806040838503121561013b575f80fd5b50508035926020909101359150565b5f60018201610180577f4e487b71000000000000000000000000000000000000000000000000000000005f52601160045260245ffd5b506001019056fea2646970667358221220a09cf1de07b185e453ea139065005cbad2bac900c62bf6ee149ce7107c30dcdd64736f6c63430008180033",
					"opcodes": "PUSH1 0x80 PUSH1 0x40 MSTORE CALLVALUE DUP1 ISZERO PUSH2 0xF JUMPI PUSH0 DUP1 REVERT JUMPDEST POP PUSH2 0x1BD DUP1 PUSH2 0x1D PUSH0 CODECOPY PUSH0 RETURN INVALID PUSH1 0x80 PUSH1 0x40 MSTORE CALLVALUE DUP1 ISZERO PUSH2 0xF JUMPI PUSH0 DUP1 REVERT JUMPDEST POP PUSH1 0x4 CALLDATASIZE LT PUSH2 0x6F JUMPI PUSH0 CALLDATALOAD PUSH1 0xE0 SHR DUP1 PUSH4 0xBD02D0F5 GT PUSH2 0x4D JUMPI DUP1 PUSH4 0xBD02D0F5 EQ PUSH2 0xA0 JUMPI DUP1 PUSH4 0xD7AE7B74 EQ PUSH2 0xBF JUMPI DUP1 PUSH4 0xE2A4853A EQ PUSH2 0xDE JUMPI PUSH0 DUP1 REVERT JUMPDEST DUP1 PUSH4 0x61BC221A EQ PUSH2 0x73 JUMPI DUP1 PUSH4 0x61E8D17A EQ PUSH2 0x8E JUMPI DUP1 PUSH4 0x72142B89 EQ PUSH2 0x98 JUMPI JUMPDEST PUSH0 DUP1 REVERT JUMPDEST PUSH2 0x7C PUSH1 0x1 SLOAD DUP2 JUMP JUMPDEST PUSH1 0x40 MLOAD SWAP1 DUP2 MSTORE PUSH1 0x20 ADD PUSH1 0x40 MLOAD DUP1 SWAP2 SUB SWAP1 RETURN JUMPDEST PUSH2 0x96 PUSH2 0xFD JUMP JUMPDEST STOP JUMPDEST PUSH1 0x1 SLOAD PUSH2 0x7C JUMP JUMPDEST PUSH2 0x7C PUSH2 0xAE CALLDATASIZE PUSH1 0x4 PUSH2 0x113 JUMP JUMPDEST PUSH0 SWAP1 DUP2 MSTORE PUSH1 0x20 DUP2 SWAP1 MSTORE PUSH1 0x40 SWAP1 KECCAK256 SLOAD SWAP1 JUMP JUMPDEST PUSH2 0x7C PUSH2 0xCD CALLDATASIZE PUSH1 0x4 PUSH2 0x113 JUMP JUMPDEST PUSH0 PUSH1 0x20 DUP2 SWAP1 MSTORE SWAP1 DUP2 MSTORE PUSH1 0x40 SWAP1 KECCAK256 SLOAD DUP2 JUMP JUMPDEST PUSH2 0x96 PUSH2 0xEC CALLDATASIZE PUSH1 0x4 PUSH2 0x12A JUMP JUMPDEST PUSH0 SWAP2 DUP3 MSTORE PUSH1 0x20 DUP3 SWAP1 MSTORE PUSH1 0x40 SWAP1 SWAP2 KECCAK256 SSTORE JUMP JUMPDEST PUSH1 0x1 DUP1 SLOAD SWAP1 PUSH0 PUSH2 0x10C DUP4 PUSH2 0x14A JUMP JUMPDEST SWAP2 SWAP1 POP SSTORE POP JUMP JUMPDEST PUSH0 PUSH1 0x20 DUP3 DUP5 SUB SLT ISZERO PUSH2 0x123 JUMPI PUSH0 DUP1 REVERT JUMPDEST POP CALLDATALOAD SWAP2 SWAP1 POP JUMP JUMPDEST PUSH0 DUP1 PUSH1 0x40 DUP4 DUP6 SUB SLT ISZERO PUSH2 0x13B JUMPI PUSH0 DUP1 REVERT JUMPDEST POP POP DUP1 CALLDATALOAD SWAP3 PUSH1 0x20 SWAP1 SWAP2 ADD CALLDATALOAD SWAP2 POP JUMP JUMPDEST PUSH0 PUSH1 0x1 DUP3 ADD PUSH2 0x180 JUMPI PUSH32 0x4E487B7100000000000000000000000000000000000000000000000000000000 PUSH0 MSTORE PUSH1 0x11 PUSH1 0x4 MSTORE PUSH1 0x24 PUSH0 REVERT JUMPDEST POP PUSH1 0x1 ADD SWAP1 JUMP INVALID LOG2 PUSH5 0x6970667358 0x22 SLT KECCAK256 LOG0 SWAP13 CALL 0xDE SMOD 0xB1 DUP6 0xE4 MSTORE8 0xEA SGT SWAP1 PUSH6 0x5CBAD2BAC9 STOP 0xC6 0x2B 0xF6 0xEE EQ SWAP13 0xE7 LT PUSH29 0x30DCDD64736F6C63430008180033000000000000000000000000000000 "
				},
				"gasEstimates": {
					"creation": {
						"codeDepositCost": "89000",
						"executionCost": "133",
						"totalCost": "89133"
					},
					"external": {
						"_uintStorage(bytes32)": "2448",
						"counter()": "2283",
						"getCounterValue()": "2324",
						"getIncrementCounter()": "24450",
						"getUint(bytes32)": "2426",
						"setUint(bytes32,uint256)": "22448"
					}
				},
				"methodIdentifiers": {
					"_uintStorage(bytes32)": "d7ae7b74",
					"counter()": "61bc221a",
					"getCounterValue()": "72142b89",
					"getIncrementCounter()": "61e8d17a",
					"getUint(bytes32)": "bd02d0f5",
					"setUint(bytes32,uint256)": "e2a4853a"
				}
			},
			"storageLayout": {
				"storage": [
					{
						"astId": 5,
						"contract": "contracts/UpgradeContract.sol:ProxyContract",
						"label": "_uintStorage",
						"offset": 0,
						"slot": "0",
						"type": "t_mapping(t_bytes32,t_uint256)"
					},
					{
						"astId": 7,
						"contract": "contracts/UpgradeContract.sol:ProxyContract",
						"label": "counter",
						"offset": 0,
						"slot": "1",
						"type": "t_uint256"
					}
				],
				"types": {
					"t_bytes32": {
						"encoding": "inplace",
						"label": "bytes32",
						"numberOfBytes": "32"
					},
					"t_mapping(t_bytes32,t_uint256)": {
						"encoding": "mapping",
						"key": "t_bytes32",
						"label": "mapping(bytes32 => uint256)",
						"numberOfBytes": "32",
						"value": "t_uint256"
					},
					"t_uint256": {
						"encoding": "inplace",
						"label": "uint256",
						"numberOfBytes": "32"
					}
				}
			},
			"userdoc": {
				"kind": "user",
				"methods": {},
				"version": 1
			}
		}
	}
}