{
	"contracts/UpgradeContract.sol": {
		"LogicContract": {
			"abi": [
				{
					"inputs": [
						{
							"internalType": "address",
							"name": "storageAddress",
							"type": "address"
						}
					],
					"stateMutability": "nonpayable",
					"type": "constructor"
				},
				{
					"inputs": [],
					"name": "decrement",
					"outputs": [],
					"stateMutability": "nonpayable",
					"type": "function"
				},
				{
					"inputs": [],
					"name": "getCount",
					"outputs": [
						{
							"internalType": "uint256",
							"name": "",
							"type": "uint256"
						}
					],
					"stateMutability": "view",
					"type": "function"
				},
				{
					"inputs": [],
					"name": "getCounter",
					"outputs": [
						{
							"internalType": "uint256",
							"name": "",
							"type": "uint256"
						}
					],
					"stateMutability": "view",
					"type": "function"
				},
				{
					"inputs": [],
					"name": "increment",
					"outputs": [],
					"stateMutability": "nonpayable",
					"type": "function"
				}
			],
			"devdoc": {
				"kind": "dev",
				"methods": {},
				"version": 1
			},
			"evm": {
				"assembly": "    /* \"contracts/UpgradeContract.sol\":532:1303  contract LogicContract {... */\n  mstore(0x40, 0x80)\n    /* \"contracts/UpgradeContract.sol\":598:691  constructor(address storageAddress) {... */\n  callvalue\n  dup1\n  iszero\n  tag_1\n  jumpi\n  0x00\n  dup1\n  revert\ntag_1:\n  pop\n  mload(0x40)\n  sub(codesize, bytecodeSize)\n  dup1\n  bytecodeSize\n  dup4\n  codecopy\n  dup2\n  add\n  0x40\n  dup2\n  swap1\n  mstore\n  tag_2\n  swap2\n  tag_3\n  jump\t// in\ntag_2:\n    /* \"contracts/UpgradeContract.sol\":644:652  _storage */\n  0x00\n    /* \"contracts/UpgradeContract.sol\":644:684  _storage = ProxyContract(storageAddress) */\n  dup1\n  sload\n  not(sub(shl(0xa0, 0x01), 0x01))\n  and\n  sub(shl(0xa0, 0x01), 0x01)\n  swap3\n  swap1\n  swap3\n  and\n  swap2\n  swap1\n  swap2\n  or\n  swap1\n  sstore\n    /* \"contracts/UpgradeContract.sol\":532:1303  contract LogicContract {... */\n  jump(tag_7)\n    /* \"#utility.yul\":14:304   */\ntag_3:\n    /* \"#utility.yul\":84:90   */\n  0x00\n    /* \"#utility.yul\":137:139   */\n  0x20\n    /* \"#utility.yul\":125:134   */\n  dup3\n    /* \"#utility.yul\":116:123   */\n  dup5\n    /* \"#utility.yul\":112:135   */\n  sub\n    /* \"#utility.yul\":108:140   */\n  slt\n    /* \"#utility.yul\":105:157   */\n  iszero\n  tag_9\n  jumpi\n    /* \"#utility.yul\":153:154   */\n  0x00\n    /* \"#utility.yul\":150:151   */\n  dup1\n    /* \"#utility.yul\":143:155   */\n  revert\n    /* \"#utility.yul\":105:157   */\ntag_9:\n    /* \"#utility.yul\":179:195   */\n  dup2\n  mload\n  sub(shl(0xa0, 0x01), 0x01)\n    /* \"#utility.yul\":224:255   */\n  dup2\n  and\n    /* \"#utility.yul\":214:256   */\n  dup2\n  eq\n    /* \"#utility.yul\":204:274   */\n  tag_10\n  jumpi\n    /* \"#utility.yul\":270:271   */\n  0x00\n    /* \"#utility.yul\":267:268   */\n  dup1\n    /* \"#utility.yul\":260:272   */\n  revert\n    /* \"#utility.yul\":204:274   */\ntag_10:\n    /* \"#utility.yul\":293:298   */\n  swap4\n    /* \"#utility.yul\":14:304   */\n  swap3\n  pop\n  pop\n  pop\n  jump\t// out\ntag_7:\n    /* \"contracts/UpgradeContract.sol\":532:1303  contract LogicContract {... */\n  dataSize(sub_0)\n  dup1\n  dataOffset(sub_0)\n  0x00\n  codecopy\n  0x00\n  return\nstop\n\nsub_0: assembly {\n        /* \"contracts/UpgradeContract.sol\":532:1303  contract LogicContract {... */\n      mstore(0x40, 0x80)\n      callvalue\n      dup1\n      iszero\n      tag_1\n      jumpi\n      0x00\n      dup1\n      revert\n    tag_1:\n      pop\n      jumpi(tag_2, lt(calldatasize, 0x04))\n      shr(0xe0, calldataload(0x00))\n      dup1\n      0x2baeceb7\n      eq\n      tag_3\n      jumpi\n      dup1\n      0x8ada066e\n      eq\n      tag_4\n      jumpi\n      dup1\n      0xa87d942c\n      eq\n      tag_5\n      jumpi\n      dup1\n      0xd09de08a\n      eq\n      tag_6\n      jumpi\n    tag_2:\n      0x00\n      dup1\n      revert\n        /* \"contracts/UpgradeContract.sol\":1141:1301  function decrement() external {... */\n    tag_3:\n      tag_7\n      tag_8\n      jump\t// in\n    tag_7:\n      stop\n        /* \"contracts/UpgradeContract.sol\":833:937  function getCounter() external view returns (uint256) {... */\n    tag_4:\n      tag_9\n      tag_10\n      jump\t// in\n    tag_9:\n      mload(0x40)\n        /* \"#utility.yul\":160:185   */\n      swap1\n      dup2\n      mstore\n        /* \"#utility.yul\":148:150   */\n      0x20\n        /* \"#utility.yul\":133:151   */\n      add\n        /* \"contracts/UpgradeContract.sol\":833:937  function getCounter() external view returns (uint256) {... */\n      mload(0x40)\n      dup1\n      swap2\n      sub\n      swap1\n      return\n        /* \"contracts/UpgradeContract.sol\":697:827  function getCount() external view returns (uint256) {... */\n    tag_5:\n      tag_9\n      tag_14\n      jump\t// in\n        /* \"contracts/UpgradeContract.sol\":943:1135  function increment() external {... */\n    tag_6:\n      tag_7\n      tag_17\n      jump\t// in\n        /* \"contracts/UpgradeContract.sol\":1141:1301  function decrement() external {... */\n    tag_8:\n        /* \"contracts/UpgradeContract.sol\":1264:1272  _storage */\n      0x00\n      dup1\n      sload\n        /* \"contracts/UpgradeContract.sol\":1264:1294  _storage.getIncrementCounter() */\n      0x40\n      dup1\n      mload\n      0x61e8d17a00000000000000000000000000000000000000000000000000000000\n      dup2\n      mstore\n      swap1\n      mload\n      sub(shl(0xa0, 0x01), 0x01)\n        /* \"contracts/UpgradeContract.sol\":1264:1272  _storage */\n      swap1\n      swap3\n      and\n      swap3\n        /* \"contracts/UpgradeContract.sol\":1264:1292  _storage.getIncrementCounter */\n      0x61e8d17a\n      swap3\n        /* \"contracts/UpgradeContract.sol\":1264:1294  _storage.getIncrementCounter() */\n      0x04\n      dup1\n      dup5\n      add\n      swap4\n      dup3\n      swap1\n      sub\n      add\n      dup2\n        /* \"contracts/UpgradeContract.sol\":1264:1272  _storage */\n      dup4\n      dup8\n        /* \"contracts/UpgradeContract.sol\":1264:1294  _storage.getIncrementCounter() */\n      dup1\n      extcodesize\n      iszero\n      dup1\n      iszero\n      tag_19\n      jumpi\n      0x00\n      dup1\n      revert\n    tag_19:\n      pop\n      gas\n      call\n      iszero\n      dup1\n      iszero\n      tag_21\n      jumpi\n      returndatasize\n      0x00\n      dup1\n      returndatacopy\n      revert(0x00, returndatasize)\n    tag_21:\n      pop\n      pop\n      pop\n      pop\n        /* \"contracts/UpgradeContract.sol\":1141:1301  function decrement() external {... */\n      jump\t// out\n        /* \"contracts/UpgradeContract.sol\":833:937  function getCounter() external view returns (uint256) {... */\n    tag_10:\n        /* \"contracts/UpgradeContract.sol\":878:885  uint256 */\n      0x00\n        /* \"contracts/UpgradeContract.sol\":904:912  _storage */\n      dup1\n      0x00\n      swap1\n      sload\n      swap1\n      0x0100\n      exp\n      swap1\n      div\n      sub(shl(0xa0, 0x01), 0x01)\n      and\n      sub(shl(0xa0, 0x01), 0x01)\n        /* \"contracts/UpgradeContract.sol\":904:928  _storage.getCounterValue */\n      and\n      0x72142b89\n        /* \"contracts/UpgradeContract.sol\":904:930  _storage.getCounterValue() */\n      mload(0x40)\n      dup2\n      0xffffffff\n      and\n      0xe0\n      shl\n      dup2\n      mstore\n      0x04\n      add\n      0x20\n      mload(0x40)\n      dup1\n      dup4\n      sub\n      dup2\n      dup7\n      gas\n      staticcall\n      iszero\n      dup1\n      iszero\n      tag_24\n      jumpi\n      returndatasize\n      0x00\n      dup1\n      returndatacopy\n      revert(0x00, returndatasize)\n    tag_24:\n      pop\n      pop\n      pop\n      pop\n      mload(0x40)\n      returndatasize\n      not(0x1f)\n      0x1f\n      dup3\n      add\n      and\n      dup3\n      add\n      dup1\n      0x40\n      mstore\n      pop\n      dup2\n      add\n      swap1\n      tag_25\n      swap2\n      swap1\n      tag_26\n      jump\t// in\n    tag_25:\n        /* \"contracts/UpgradeContract.sol\":897:930  return _storage.getCounterValue() */\n      swap1\n      pop\n        /* \"contracts/UpgradeContract.sol\":833:937  function getCounter() external view returns (uint256) {... */\n      swap1\n      jump\t// out\n        /* \"contracts/UpgradeContract.sol\":697:827  function getCount() external view returns (uint256) {... */\n    tag_14:\n        /* \"contracts/UpgradeContract.sol\":740:747  uint256 */\n      0x00\n        /* \"contracts/UpgradeContract.sol\":766:774  _storage */\n      dup1\n      sload\n        /* \"contracts/UpgradeContract.sol\":793:818  abi.encodePacked(\"count\") */\n      mload(0x40)\n      shl(0xda, 0x18dbdd5b9d)\n      0x20\n      dup3\n      add\n        /* \"#utility.yul\":587:607   */\n      mstore\n      sub(shl(0xa0, 0x01), 0x01)\n        /* \"contracts/UpgradeContract.sol\":766:774  _storage */\n      swap1\n      swap2\n      and\n      swap1\n        /* \"contracts/UpgradeContract.sol\":766:782  _storage.getUint */\n      0xbd02d0f5\n      swap1\n        /* \"#utility.yul\":623:634   */\n      0x25\n      add\n        /* \"contracts/UpgradeContract.sol\":793:818  abi.encodePacked(\"count\") */\n      mload(0x40)\n      0x20\n      dup2\n      dup4\n      sub\n      sub\n      dup2\n      mstore\n      swap1\n      0x40\n      mstore\n        /* \"contracts/UpgradeContract.sol\":783:819  keccak256(abi.encodePacked(\"count\")) */\n      dup1\n      mload\n      swap1\n      0x20\n      add\n      keccak256\n        /* \"contracts/UpgradeContract.sol\":766:820  _storage.getUint(keccak256(abi.encodePacked(\"count\"))) */\n      mload(0x40)\n      dup3\n      0xffffffff\n      and\n      0xe0\n      shl\n      dup2\n      mstore\n      0x04\n      add\n      tag_30\n      swap2\n        /* \"#utility.yul\":160:185   */\n      dup2\n      mstore\n        /* \"#utility.yul\":148:150   */\n      0x20\n        /* \"#utility.yul\":133:151   */\n      add\n      swap1\n        /* \"#utility.yul\":14:191   */\n      jump\n        /* \"contracts/UpgradeContract.sol\":766:820  _storage.getUint(keccak256(abi.encodePacked(\"count\"))) */\n    tag_30:\n      0x20\n      mload(0x40)\n      dup1\n      dup4\n      sub\n      dup2\n      dup7\n      gas\n      staticcall\n      iszero\n      dup1\n      iszero\n      tag_24\n      jumpi\n      returndatasize\n      0x00\n      dup1\n      returndatacopy\n      revert(0x00, returndatasize)\n        /* \"contracts/UpgradeContract.sol\":943:1135  function increment() external {... */\n    tag_17:\n        /* \"contracts/UpgradeContract.sol\":983:996  uint256 count */\n      0x00\n        /* \"contracts/UpgradeContract.sol\":999:1007  _storage */\n      dup1\n      sload\n        /* \"contracts/UpgradeContract.sol\":1026:1051  abi.encodePacked(\"count\") */\n      mload(0x40)\n      shl(0xda, 0x18dbdd5b9d)\n      0x20\n      dup3\n      add\n        /* \"#utility.yul\":587:607   */\n      mstore\n      sub(shl(0xa0, 0x01), 0x01)\n        /* \"contracts/UpgradeContract.sol\":999:1007  _storage */\n      swap1\n      swap2\n      and\n      swap1\n        /* \"contracts/UpgradeContract.sol\":999:1015  _storage.getUint */\n      0xbd02d0f5\n      swap1\n        /* \"#utility.yul\":623:634   */\n      0x25\n      add\n        /* \"contracts/UpgradeContract.sol\":1026:1051  abi.encodePacked(\"count\") */\n      mload(0x40)\n      0x20\n      dup2\n      dup4\n      sub\n      sub\n      dup2\n      mstore\n      swap1\n      0x40\n      mstore\n        /* \"contracts/UpgradeContract.sol\":1016:1052  keccak256(abi.encodePacked(\"count\")) */\n      dup1\n      mload\n      swap1\n      0x20\n      add\n      keccak256\n        /* \"contracts/UpgradeContract.sol\":999:1053  _storage.getUint(keccak256(abi.encodePacked(\"count\"))) */\n      mload(0x40)\n      dup3\n      0xffffffff\n      and\n      0xe0\n      shl\n      dup2\n      mstore\n      0x04\n      add\n      tag_37\n      swap2\n        /* \"#utility.yul\":160:185   */\n      dup2\n      mstore\n        /* \"#utility.yul\":148:150   */\n      0x20\n        /* \"#utility.yul\":133:151   */\n      add\n      swap1\n        /* \"#utility.yul\":14:191   */\n      jump\n        /* \"contracts/UpgradeContract.sol\":999:1053  _storage.getUint(keccak256(abi.encodePacked(\"count\"))) */\n    tag_37:\n      0x20\n      mload(0x40)\n      dup1\n      dup4\n      sub\n      dup2\n      dup7\n      gas\n      staticcall\n      iszero\n      dup1\n      iszero\n      tag_39\n      jumpi\n      returndatasize\n      0x00\n      dup1\n      returndatacopy\n      revert(0x00, returndatasize)\n    tag_39:\n      pop\n      pop\n      pop\n      pop\n      mload(0x40)\n      returndatasize\n      not(0x1f)\n      0x1f\n      dup3\n      add\n      and\n      dup3\n      add\n      dup1\n      0x40\n      mstore\n      pop\n      dup2\n      add\n      swap1\n      tag_40\n      swap2\n      swap1\n      tag_26\n      jump\t// in\n    tag_40:\n        /* \"contracts/UpgradeContract.sol\":1063:1071  _storage */\n      sload(0x00)\n        /* \"contracts/UpgradeContract.sol\":1090:1115  abi.encodePacked(\"count\") */\n      mload(0x40)\n      shl(0xda, 0x18dbdd5b9d)\n      0x20\n      dup3\n      add\n        /* \"#utility.yul\":587:607   */\n      mstore\n        /* \"contracts/UpgradeContract.sol\":983:1053  uint256 count = _storage.getUint(keccak256(abi.encodePacked(\"count\"))) */\n      swap2\n      swap3\n      pop\n      sub(shl(0xa0, 0x01), 0x01)\n        /* \"contracts/UpgradeContract.sol\":1063:1071  _storage */\n      and\n      swap1\n        /* \"contracts/UpgradeContract.sol\":1063:1079  _storage.setUint */\n      0xe2a4853a\n      swap1\n        /* \"#utility.yul\":623:634   */\n      0x25\n      add\n        /* \"contracts/UpgradeContract.sol\":1090:1115  abi.encodePacked(\"count\") */\n      mload(0x40)\n      0x20\n      dup2\n      dup4\n      sub\n      sub\n      dup2\n      mstore\n      swap1\n      0x40\n      mstore\n        /* \"contracts/UpgradeContract.sol\":1080:1116  keccak256(abi.encodePacked(\"count\")) */\n      dup1\n      mload\n      swap1\n      0x20\n      add\n      keccak256\n        /* \"contracts/UpgradeContract.sol\":1118:1123  count */\n      dup4\n        /* \"contracts/UpgradeContract.sol\":1126:1127  1 */\n      0x01\n        /* \"contracts/UpgradeContract.sol\":1118:1127  count + 1 */\n      tag_42\n      swap2\n      swap1\n      tag_43\n      jump\t// in\n    tag_42:\n        /* \"contracts/UpgradeContract.sol\":1063:1128  _storage.setUint(keccak256(abi.encodePacked(\"count\")), count + 1) */\n      mload(0x40)\n      0xffffffff00000000000000000000000000000000000000000000000000000000\n      0xe0\n      dup6\n      swap1\n      shl\n      and\n      dup2\n      mstore\n      0x04\n      dup2\n      add\n        /* \"#utility.yul\":1285:1310   */\n      swap3\n      swap1\n      swap3\n      mstore\n        /* \"#utility.yul\":1326:1344   */\n      0x24\n      dup3\n      add\n        /* \"#utility.yul\":1319:1353   */\n      mstore\n        /* \"#utility.yul\":1258:1276   */\n      0x44\n      add\n        /* \"contracts/UpgradeContract.sol\":1063:1128  _storage.setUint(keccak256(abi.encodePacked(\"count\")), count + 1) */\n      0x00\n      mload(0x40)\n      dup1\n      dup4\n      sub\n      dup2\n      0x00\n      dup8\n      dup1\n      extcodesize\n      iszero\n      dup1\n      iszero\n      tag_46\n      jumpi\n      0x00\n      dup1\n      revert\n    tag_46:\n      pop\n      gas\n      call\n      iszero\n      dup1\n      iszero\n      tag_48\n      jumpi\n      returndatasize\n      0x00\n      dup1\n      returndatacopy\n      revert(0x00, returndatasize)\n    tag_48:\n      pop\n      pop\n      pop\n      pop\n        /* \"contracts/UpgradeContract.sol\":973:1135  {... */\n      pop\n        /* \"contracts/UpgradeContract.sol\":943:1135  function increment() external {... */\n      jump\t// out\n        /* \"#utility.yul\":196:380   */\n    tag_26:\n        /* \"#utility.yul\":266:272   */\n      0x00\n        /* \"#utility.yul\":319:321   */\n      0x20\n        /* \"#utility.yul\":307:316   */\n      dup3\n        /* \"#utility.yul\":298:305   */\n      dup5\n        /* \"#utility.yul\":294:317   */\n      sub\n        /* \"#utility.yul\":290:322   */\n      slt\n        /* \"#utility.yul\":287:339   */\n      iszero\n      tag_52\n      jumpi\n        /* \"#utility.yul\":335:336   */\n      0x00\n        /* \"#utility.yul\":332:333   */\n      dup1\n        /* \"#utility.yul\":325:337   */\n      revert\n        /* \"#utility.yul\":287:339   */\n    tag_52:\n      pop\n        /* \"#utility.yul\":358:374   */\n      mload\n      swap2\n        /* \"#utility.yul\":196:380   */\n      swap1\n      pop\n      jump\t// out\n        /* \"#utility.yul\":827:1106   */\n    tag_43:\n        /* \"#utility.yul\":892:901   */\n      dup1\n      dup3\n      add\n        /* \"#utility.yul\":913:923   */\n      dup1\n      dup3\n      gt\n        /* \"#utility.yul\":910:1100   */\n      iszero\n      tag_56\n      jumpi\n        /* \"#utility.yul\":956:1033   */\n      0x4e487b7100000000000000000000000000000000000000000000000000000000\n        /* \"#utility.yul\":953:954   */\n      0x00\n        /* \"#utility.yul\":946:1034   */\n      mstore\n        /* \"#utility.yul\":1057:1061   */\n      0x11\n        /* \"#utility.yul\":1054:1055   */\n      0x04\n        /* \"#utility.yul\":1047:1062   */\n      mstore\n        /* \"#utility.yul\":1085:1089   */\n      0x24\n        /* \"#utility.yul\":1082:1083   */\n      0x00\n        /* \"#utility.yul\":1075:1090   */\n      revert\n        /* \"#utility.yul\":910:1100   */\n    tag_56:\n        /* \"#utility.yul\":827:1106   */\n      swap3\n      swap2\n      pop\n      pop\n      jump\t// out\n\n    auxdata: 0xa264697066735822122068d5e957e5a6c299ca4faa6176eb8458f84ccdb22c808ff336699d9e6e58c29a64736f6c63430008180033\n}\n",
				"bytecode": {
					"linkReferences": {},
					"object": "608060405234801561000f575f80fd5b5060405161044e38038061044e83398101604081905261002e91610052565b5f80546001600160a01b0319166001600160a01b039290921691909117905561007f565b5f60208284031215610062575f80fd5b81516001600160a01b0381168114610078575f80fd5b9392505050565b6103c28061008c5f395ff3fe608060405234801561000f575f80fd5b506004361061004a575f3560e01c80632baeceb71461004e5780638ada066e14610058578063a87d942c14610072578063d09de08a1461007a575b5f80fd5b610056610082565b005b6100606100f2565b60405190815260200160405180910390f35b61006061016b565b6100566101e3565b5f8054604080517f61e8d17a00000000000000000000000000000000000000000000000000000000815290516001600160a01b03909216926361e8d17a9260048084019382900301818387803b1580156100da575f80fd5b505af11580156100ec573d5f803e3d5ffd5b50505050565b5f805f9054906101000a90046001600160a01b03166001600160a01b03166372142b896040518163ffffffff1660e01b8152600401602060405180830381865afa158015610142573d5f803e3d5ffd5b505050506040513d601f19601f820116820180604052508101906101669190610337565b905090565b5f80546040516418dbdd5b9d60da1b60208201526001600160a01b039091169063bd02d0f590602501604051602081830303815290604052805190602001206040518263ffffffff1660e01b81526004016101c891815260200190565b602060405180830381865afa158015610142573d5f803e3d5ffd5b5f80546040516418dbdd5b9d60da1b60208201526001600160a01b039091169063bd02d0f590602501604051602081830303815290604052805190602001206040518263ffffffff1660e01b815260040161024091815260200190565b602060405180830381865afa15801561025b573d5f803e3d5ffd5b505050506040513d601f19601f8201168201806040525081019061027f9190610337565b5f546040516418dbdd5b9d60da1b60208201529192506001600160a01b03169063e2a4853a90602501604051602081830303815290604052805190602001208360016102cb919061034e565b6040517fffffffff0000000000000000000000000000000000000000000000000000000060e085901b168152600481019290925260248201526044015f604051808303815f87803b15801561031e575f80fd5b505af1158015610330573d5f803e3d5ffd5b5050505050565b5f60208284031215610347575f80fd5b5051919050565b80820180821115610386577f4e487b71000000000000000000000000000000000000000000000000000000005f52601160045260245ffd5b9291505056fea264697066735822122068d5e957e5a6c299ca4faa6176eb8458f84ccdb22c808ff336699d9e6e58c29a64736f6c63430008180033",
					"opcodes": "PUSH1 0x80 PUSH1 0x40 MSTORE CALLVALUE DUP1 ISZERO PUSH2 0xF JUMPI PUSH0 DUP1 REVERT JUMPDEST POP PUSH1 0x40 MLOAD PUSH2 0x44E CODESIZE SUB DUP1 PUSH2 0x44E DUP4 CODECOPY DUP2 ADD PUSH1 0x40 DUP2 SWAP1 MSTORE PUSH2 0x2E SWAP2 PUSH2 0x52 JUMP JUMPDEST PUSH0 DUP1 SLOAD PUSH1 0x1 PUSH1 0x1 PUSH1 0xA0 SHL SUB NOT AND PUSH1 0x1 PUSH1 0x1 PUSH1 0xA0 SHL SUB SWAP3 SWAP1 SWAP3 AND SWAP2 SWAP1 SWAP2 OR SWAP1 SSTORE PUSH2 0x7F JUMP JUMPDEST PUSH0 PUSH1 0x20 DUP3 DUP5 SUB SLT ISZERO PUSH2 0x62 JUMPI PUSH0 DUP1 REVERT JUMPDEST DUP2 MLOAD PUSH1 0x1 PUSH1 0x1 PUSH1 0xA0 SHL SUB DUP2 AND DUP2 EQ PUSH2 0x78 JUMPI PUSH0 DUP1 REVERT JUMPDEST SWAP4 SWAP3 POP POP POP JUMP JUMPDEST PUSH2 0x3C2 DUP1 PUSH2 0x8C PUSH0 CODECOPY PUSH0 RETURN INVALID PUSH1 0x80 PUSH1 0x40 MSTORE CALLVALUE DUP1 ISZERO PUSH2 0xF JUMPI PUSH0 DUP1 REVERT JUMPDEST POP PUSH1 0x4 CALLDATASIZE LT PUSH2 0x4A JUMPI PUSH0 CALLDATALOAD PUSH1 0xE0 SHR DUP1 PUSH4 0x2BAECEB7 EQ PUSH2 0x4E JUMPI DUP1 PUSH4 0x8ADA066E EQ PUSH2 0x58 JUMPI DUP1 PUSH4 0xA87D942C EQ PUSH2 0x72 JUMPI DUP1 PUSH4 0xD09DE08A EQ PUSH2 0x7A JUMPI JUMPDEST PUSH0 DUP1 REVERT JUMPDEST PUSH2 0x56 PUSH2 0x82 JUMP JUMPDEST STOP JUMPDEST PUSH2 0x60 PUSH2 0xF2 JUMP JUMPDEST PUSH1 0x40 MLOAD SWAP1 DUP2 MSTORE PUSH1 0x20 ADD PUSH1 0x40 MLOAD DUP1 SWAP2 SUB SWAP1 RETURN JUMPDEST PUSH2 0x60 PUSH2 0x16B JUMP JUMPDEST PUSH2 0x56 PUSH2 0x1E3 JUMP JUMPDEST PUSH0 DUP1 SLOAD PUSH1 0x40 DUP1 MLOAD PUSH32 0x61E8D17A00000000000000000000000000000000000000000000000000000000 DUP2 MSTORE SWAP1 MLOAD PUSH1 0x1 PUSH1 0x1 PUSH1 0xA0 SHL SUB SWAP1 SWAP3 AND SWAP3 PUSH4 0x61E8D17A SWAP3 PUSH1 0x4 DUP1 DUP5 ADD SWAP4 DUP3 SWAP1 SUB ADD DUP2 DUP4 DUP8 DUP1 EXTCODESIZE ISZERO DUP1 ISZERO PUSH2 0xDA JUMPI PUSH0 DUP1 REVERT JUMPDEST POP GAS CALL ISZERO DUP1 ISZERO PUSH2 0xEC JUMPI RETURNDATASIZE PUSH0 DUP1 RETURNDATACOPY RETURNDATASIZE PUSH0 REVERT JUMPDEST POP POP POP POP JUMP JUMPDEST PUSH0 DUP1 PUSH0 SWAP1 SLOAD SWAP1 PUSH2 0x100 EXP SWAP1 DIV PUSH1 0x1 PUSH1 0x1 PUSH1 0xA0 SHL SUB AND PUSH1 0x1 PUSH1 0x1 PUSH1 0xA0 SHL SUB AND PUSH4 0x72142B89 PUSH1 0x40 MLOAD DUP2 PUSH4 0xFFFFFFFF AND PUSH1 0xE0 SHL DUP2 MSTORE PUSH1 0x4 ADD PUSH1 0x20 PUSH1 0x40 MLOAD DUP1 DUP4 SUB DUP2 DUP7 GAS STATICCALL ISZERO DUP1 ISZERO PUSH2 0x142 JUMPI RETURNDATASIZE PUSH0 DUP1 RETURNDATACOPY RETURNDATASIZE PUSH0 REVERT JUMPDEST POP POP POP POP PUSH1 0x40 MLOAD RETURNDATASIZE PUSH1 0x1F NOT PUSH1 0x1F DUP3 ADD AND DUP3 ADD DUP1 PUSH1 0x40 MSTORE POP DUP2 ADD SWAP1 PUSH2 0x166 SWAP2 SWAP1 PUSH2 0x337 JUMP JUMPDEST SWAP1 POP SWAP1 JUMP JUMPDEST PUSH0 DUP1 SLOAD PUSH1 0x40 MLOAD PUSH5 0x18DBDD5B9D PUSH1 0xDA SHL PUSH1 0x20 DUP3 ADD MSTORE PUSH1 0x1 PUSH1 0x1 PUSH1 0xA0 SHL SUB SWAP1 SWAP2 AND SWAP1 PUSH4 0xBD02D0F5 SWAP1 PUSH1 0x25 ADD PUSH1 0x40 MLOAD PUSH1 0x20 DUP2 DUP4 SUB SUB DUP2 MSTORE SWAP1 PUSH1 0x40 MSTORE DUP1 MLOAD SWAP1 PUSH1 0x20 ADD KECCAK256 PUSH1 0x40 MLOAD DUP3 PUSH4 0xFFFFFFFF AND PUSH1 0xE0 SHL DUP2 MSTORE PUSH1 0x4 ADD PUSH2 0x1C8 SWAP2 DUP2 MSTORE PUSH1 0x20 ADD SWAP1 JUMP JUMPDEST PUSH1 0x20 PUSH1 0x40 MLOAD DUP1 DUP4 SUB DUP2 DUP7 GAS STATICCALL ISZERO DUP1 ISZERO PUSH2 0x142 JUMPI RETURNDATASIZE PUSH0 DUP1 RETURNDATACOPY RETURNDATASIZE PUSH0 REVERT JUMPDEST PUSH0 DUP1 SLOAD PUSH1 0x40 MLOAD PUSH5 0x18DBDD5B9D PUSH1 0xDA SHL PUSH1 0x20 DUP3 ADD MSTORE PUSH1 0x1 PUSH1 0x1 PUSH1 0xA0 SHL SUB SWAP1 SWAP2 AND SWAP1 PUSH4 0xBD02D0F5 SWAP1 PUSH1 0x25 ADD PUSH1 0x40 MLOAD PUSH1 0x20 DUP2 DUP4 SUB SUB DUP2 MSTORE SWAP1 PUSH1 0x40 MSTORE DUP1 MLOAD SWAP1 PUSH1 0x20 ADD KECCAK256 PUSH1 0x40 MLOAD DUP3 PUSH4 0xFFFFFFFF AND PUSH1 0xE0 SHL DUP2 MSTORE PUSH1 0x4 ADD PUSH2 0x240 SWAP2 DUP2 MSTORE PUSH1 0x20 ADD SWAP1 JUMP JUMPDEST PUSH1 0x20 PUSH1 0x40 MLOAD DUP1 DUP4 SUB DUP2 DUP7 GAS STATICCALL ISZERO DUP1 ISZERO PUSH2 0x25B JUMPI RETURNDATASIZE PUSH0 DUP1 RETURNDATACOPY RETURNDATASIZE PUSH0 REVERT JUMPDEST POP POP POP POP PUSH1 0x40 MLOAD RETURNDATASIZE PUSH1 0x1F NOT PUSH1 0x1F DUP3 ADD AND DUP3 ADD DUP1 PUSH1 0x40 MSTORE POP DUP2 ADD SWAP1 PUSH2 0x27F SWAP2 SWAP1 PUSH2 0x337 JUMP JUMPDEST PUSH0 SLOAD PUSH1 0x40 MLOAD PUSH5 0x18DBDD5B9D PUSH1 0xDA SHL PUSH1 0x20 DUP3 ADD MSTORE SWAP2 SWAP3 POP PUSH1 0x1 PUSH1 0x1 PUSH1 0xA0 SHL SUB AND SWAP1 PUSH4 0xE2A4853A SWAP1 PUSH1 0x25 ADD PUSH1 0x40 MLOAD PUSH1 0x20 DUP2 DUP4 SUB SUB DUP2 MSTORE SWAP1 PUSH1 0x40 MSTORE DUP1 MLOAD SWAP1 PUSH1 0x20 ADD KECCAK256 DUP4 PUSH1 0x1 PUSH2 0x2CB SWAP2 SWAP1 PUSH2 0x34E JUMP JUMPDEST PUSH1 0x40 MLOAD PUSH32 0xFFFFFFFF00000000000000000000000000000000000000000000000000000000 PUSH1 0xE0 DUP6 SWAP1 SHL AND DUP2 MSTORE PUSH1 0x4 DUP2 ADD SWAP3 SWAP1 SWAP3 MSTORE PUSH1 0x24 DUP3 ADD MSTORE PUSH1 0x44 ADD PUSH0 PUSH1 0x40 MLOAD DUP1 DUP4 SUB DUP2 PUSH0 DUP8 DUP1 EXTCODESIZE ISZERO DUP1 ISZERO PUSH2 0x31E JUMPI PUSH0 DUP1 REVERT JUMPDEST POP GAS CALL ISZERO DUP1 ISZERO PUSH2 0x330 JUMPI RETURNDATASIZE PUSH0 DUP1 RETURNDATACOPY RETURNDATASIZE PUSH0 REVERT JUMPDEST POP POP POP POP POP JUMP JUMPDEST PUSH0 PUSH1 0x20 DUP3 DUP5 SUB SLT ISZERO PUSH2 0x347 JUMPI PUSH0 DUP1 REVERT JUMPDEST POP MLOAD SWAP2 SWAP1 POP JUMP JUMPDEST DUP1 DUP3 ADD DUP1 DUP3 GT ISZERO PUSH2 0x386 JUMPI PUSH32 0x4E487B7100000000000000000000000000000000000000000000000000000000 PUSH0 MSTORE PUSH1 0x11 PUSH1 0x4 MSTORE PUSH1 0x24 PUSH0 REVERT JUMPDEST SWAP3 SWAP2 POP POP JUMP INVALID LOG2 PUSH5 0x6970667358 0x22 SLT KECCAK256 PUSH9 0xD5E957E5A6C299CA4F 0xAA PUSH2 0x76EB DUP5 PC 0xF8 0x4C 0xCD 0xB2 0x2C DUP1 DUP16 RETURN CALLDATASIZE PUSH10 0x9D9E6E58C29A64736F6C PUSH4 0x43000818 STOP CALLER "
				},
				"gasEstimates": {
					"creation": {
						"codeDepositCost": "192400",
						"executionCost": "infinite",
						"totalCost": "infinite"
					},
					"external": {
						"decrement()": "infinite",
						"getCount()": "infinite",
						"getCounter()": "infinite",
						"increment()": "infinite"
					}
				},
				"methodIdentifiers": {
					"decrement()": "2baeceb7",
					"getCount()": "a87d942c",
					"getCounter()": "8ada066e",
					"increment()": "d09de08a"
				}
			},
			"storageLayout": {
				"storage": [
					{
						"astId": 52,
						"contract": "contracts/UpgradeContract.sol:LogicContract",
						"label": "_storage",
						"offset": 0,
						"slot": "0",
						"type": "t_contract(ProxyContract)49"
					}
				],
				"types": {
					"t_contract(ProxyContract)49": {
						"encoding": "inplace",
						"label": "contract ProxyContract",
						"numberOfBytes": "20"
					}
				}
			},
			"userdoc": {
				"kind": "user",
				"methods": {},
				"version": 1
			}
		}
	}
}