{
	"UUPS/Logic.sol": {
		"Logic": {
			"abi": [
				{
					"inputs": [
						{
							"internalType": "string",
							"name": "_nameOfCandidate",
							"type": "string"
						},
						{
							"internalType": "uint256",
							"name": "_voterCardNo",
							"type": "uint256"
						},
						{
							"internalType": "string",
							"name": "_partyName",
							"type": "string"
						}
					],
					"name": "addCandidateDetails",
					"outputs": [],
					"stateMutability": "nonpayable",
					"type": "function"
				},
				{
					"inputs": [
						{
							"internalType": "address",
							"name": "_voterAddress",
							"type": "address"
						},
						{
							"internalType": "uint256",
							"name": "_voterCardNo",
							"type": "uint256"
						},
						{
							"internalType": "uint256",
							"name": "_partyNumber",
							"type": "uint256"
						}
					],
					"name": "addVoterDetails",
					"outputs": [],
					"stateMutability": "nonpayable",
					"type": "function"
				},
				{
					"inputs": [
						{
							"internalType": "uint256",
							"name": "",
							"type": "uint256"
						}
					],
					"name": "candidateDetails",
					"outputs": [
						{
							"internalType": "string",
							"name": "nameOfCandidate",
							"type": "string"
						},
						{
							"internalType": "bytes32",
							"name": "voterCardNo",
							"type": "bytes32"
						},
						{
							"internalType": "string",
							"name": "partyName",
							"type": "string"
						},
						{
							"internalType": "uint256",
							"name": "totalVotes",
							"type": "uint256"
						}
					],
					"stateMutability": "view",
					"type": "function"
				},
				{
					"inputs": [
						{
							"internalType": "uint256",
							"name": "_voterCardNo",
							"type": "uint256"
						}
					],
					"name": "checkCandidateStatus",
					"outputs": [
						{
							"internalType": "bool",
							"name": "",
							"type": "bool"
						}
					],
					"stateMutability": "view",
					"type": "function"
				},
				{
					"inputs": [
						{
							"internalType": "uint256",
							"name": "_voterCardNo",
							"type": "uint256"
						}
					],
					"name": "checkVoterStatus",
					"outputs": [
						{
							"internalType": "bool",
							"name": "",
							"type": "bool"
						}
					],
					"stateMutability": "view",
					"type": "function"
				},
				{
					"inputs": [],
					"name": "constructor1",
					"outputs": [],
					"stateMutability": "nonpayable",
					"type": "function"
				},
				{
					"inputs": [
						{
							"internalType": "bytes32",
							"name": "",
							"type": "bytes32"
						}
					],
					"name": "hasRegistered",
					"outputs": [
						{
							"internalType": "bool",
							"name": "",
							"type": "bool"
						}
					],
					"stateMutability": "view",
					"type": "function"
				},
				{
					"inputs": [
						{
							"internalType": "bytes32",
							"name": "",
							"type": "bytes32"
						}
					],
					"name": "hasVoted",
					"outputs": [
						{
							"internalType": "bool",
							"name": "",
							"type": "bool"
						}
					],
					"stateMutability": "view",
					"type": "function"
				},
				{
					"inputs": [
						{
							"internalType": "uint256",
							"name": "",
							"type": "uint256"
						}
					],
					"name": "listOfParties",
					"outputs": [
						{
							"internalType": "string",
							"name": "",
							"type": "string"
						}
					],
					"stateMutability": "view",
					"type": "function"
				},
				{
					"inputs": [],
					"name": "owner",
					"outputs": [
						{
							"internalType": "address",
							"name": "",
							"type": "address"
						}
					],
					"stateMutability": "view",
					"type": "function"
				},
				{
					"inputs": [],
					"name": "partyCounter",
					"outputs": [
						{
							"internalType": "uint256",
							"name": "",
							"type": "uint256"
						}
					],
					"stateMutability": "view",
					"type": "function"
				},
				{
					"inputs": [],
					"name": "proxiableUUID",
					"outputs": [
						{
							"internalType": "bytes32",
							"name": "",
							"type": "bytes32"
						}
					],
					"stateMutability": "pure",
					"type": "function"
				},
				{
					"inputs": [],
					"name": "result",
					"outputs": [
						{
							"internalType": "string",
							"name": "",
							"type": "string"
						}
					],
					"stateMutability": "nonpayable",
					"type": "function"
				},
				{
					"inputs": [
						{
							"internalType": "address",
							"name": "newCode",
							"type": "address"
						}
					],
					"name": "updatecode",
					"outputs": [],
					"stateMutability": "nonpayable",
					"type": "function"
				},
				{
					"inputs": [],
					"name": "voterCounter",
					"outputs": [
						{
							"internalType": "uint256",
							"name": "",
							"type": "uint256"
						}
					],
					"stateMutability": "view",
					"type": "function"
				},
				{
					"inputs": [
						{
							"internalType": "bytes32",
							"name": "",
							"type": "bytes32"
						}
					],
					"name": "voterDetails",
					"outputs": [
						{
							"internalType": "address",
							"name": "voterAddress",
							"type": "address"
						},
						{
							"internalType": "uint256",
							"name": "partyNumber",
							"type": "uint256"
						}
					],
					"stateMutability": "view",
					"type": "function"
				},
				{
					"inputs": [],
					"name": "winner",
					"outputs": [
						{
							"internalType": "string",
							"name": "",
							"type": "string"
						}
					],
					"stateMutability": "view",
					"type": "function"
				}
			],
			"devdoc": {
				"kind": "dev",
				"methods": {},
				"version": 1
			},
			"evm": {
				"assembly": "    /* \"UUPS/Logic.sol\":1807:5035  contract Logic is Proxiable {... */\n  mstore(0x40, 0x80)\n  callvalue\n  dup1\n  iszero\n  tag_1\n  jumpi\n  0x00\n  dup1\n  revert\ntag_1:\n  pop\n  dataSize(sub_0)\n  dup1\n  dataOffset(sub_0)\n  0x00\n  codecopy\n  0x00\n  return\nstop\n\nsub_0: assembly {\n        /* \"UUPS/Logic.sol\":1807:5035  contract Logic is Proxiable {... */\n      mstore(0x40, 0x80)\n      callvalue\n      dup1\n      iszero\n      tag_1\n      jumpi\n      0x00\n      dup1\n      revert\n    tag_1:\n      pop\n      jumpi(tag_2, lt(calldatasize, 0x04))\n      shr(0xe0, calldataload(0x00))\n      dup1\n      0x65372147\n      gt\n      tag_20\n      jumpi\n      dup1\n      0x8da5cb5b\n      gt\n      tag_21\n      jumpi\n      dup1\n      0xc93346ab\n      gt\n      tag_22\n      jumpi\n      dup1\n      0xc93346ab\n      eq\n      tag_17\n      jumpi\n      dup1\n      0xdfbf53ae\n      eq\n      tag_18\n      jumpi\n      dup1\n      0xe9d729ae\n      eq\n      tag_19\n      jumpi\n      jump(tag_2)\n    tag_22:\n      dup1\n      0x8da5cb5b\n      eq\n      tag_15\n      jumpi\n      dup1\n      0xb2fb8e37\n      eq\n      tag_16\n      jumpi\n      jump(tag_2)\n    tag_21:\n      dup1\n      0x65372147\n      eq\n      tag_11\n      jumpi\n      dup1\n      0x6b0eec1c\n      eq\n      tag_12\n      jumpi\n      dup1\n      0x7a26dd31\n      eq\n      tag_13\n      jumpi\n      dup1\n      0x87b390cf\n      eq\n      tag_14\n      jumpi\n      jump(tag_2)\n    tag_20:\n      dup1\n      0x473be604\n      gt\n      tag_23\n      jumpi\n      dup1\n      0x473be604\n      eq\n      tag_7\n      jumpi\n      dup1\n      0x4d50ba3a\n      eq\n      tag_8\n      jumpi\n      dup1\n      0x52d1902d\n      eq\n      tag_9\n      jumpi\n      dup1\n      0x6247e532\n      eq\n      tag_10\n      jumpi\n      jump(tag_2)\n    tag_23:\n      dup1\n      0x0500894d\n      eq\n      tag_3\n      jumpi\n      dup1\n      0x13732d79\n      eq\n      tag_4\n      jumpi\n      dup1\n      0x1b4613cb\n      eq\n      tag_5\n      jumpi\n      dup1\n      0x1e51c9ea\n      eq\n      tag_6\n      jumpi\n    tag_2:\n      0x00\n      dup1\n      revert\n        /* \"UUPS/Logic.sol\":2333:2360  uint256 public partyCounter */\n    tag_3:\n      tag_24\n      tag_25\n      jump\t// in\n    tag_24:\n      mload(0x40)\n      tag_26\n      swap2\n      swap1\n      tag_95\n      jump\t// in\n    tag_26:\n      mload(0x40)\n      dup1\n      swap2\n      sub\n      swap1\n      return\n        /* \"UUPS/Logic.sol\":2699:3419  function addCandidateDetails(... */\n    tag_4:\n      tag_28\n      tag_29\n      calldatasize\n      0x04\n      tag_30\n      jump\t// in\n    tag_29:\n      tag_31\n      jump\t// in\n    tag_28:\n      stop\n        /* \"UUPS/Logic.sol\":2235:2275  mapping(bytes32 => bool) public hasVoted */\n    tag_5:\n      tag_32\n      tag_33\n      calldatasize\n      0x04\n      tag_34\n      jump\t// in\n    tag_33:\n      tag_35\n      jump\t// in\n    tag_32:\n      mload(0x40)\n      tag_26\n      swap2\n      swap1\n      tag_37\n      jump\t// in\n        /* \"UUPS/Logic.sol\":2111:2163  mapping(bytes32 => VoterDetails) public voterDetails */\n    tag_6:\n      tag_38\n      tag_39\n      calldatasize\n      0x04\n      tag_34\n      jump\t// in\n    tag_39:\n      tag_40\n      jump\t// in\n    tag_38:\n      mload(0x40)\n      tag_26\n      swap3\n      swap2\n      swap1\n      tag_42\n      jump\t// in\n        /* \"UUPS/Logic.sol\":2566:2693  function constructor1() public {... */\n    tag_7:\n      tag_28\n      tag_44\n      jump\t// in\n        /* \"UUPS/Logic.sol\":2366:2393  uint256 public voterCounter */\n    tag_8:\n      tag_24\n      tag_46\n      jump\t// in\n        /* \"UUPS/Logic.sol\":1646:1803  function proxiableUUID() public pure returns (bytes32) {... */\n    tag_9:\n      tag_24\n      tag_49\n      jump\t// in\n        /* \"UUPS/Logic.sol\":2169:2229  mapping(uint256 => CandidateDetails) public candidateDetails */\n    tag_10:\n      tag_52\n      tag_53\n      calldatasize\n      0x04\n      tag_34\n      jump\t// in\n    tag_53:\n      tag_55\n      jump\t// in\n    tag_52:\n      mload(0x40)\n      tag_26\n      swap5\n      swap4\n      swap3\n      swap2\n      swap1\n      tag_57\n      jump\t// in\n        /* \"UUPS/Logic.sol\":4523:4930  function result() public returns (string memory) {... */\n    tag_11:\n      tag_58\n      tag_59\n      jump\t// in\n    tag_58:\n      mload(0x40)\n      tag_26\n      swap2\n      swap1\n      tag_61\n      jump\t// in\n        /* \"UUPS/Logic.sol\":2281:2326  mapping(bytes32 => bool) public hasRegistered */\n    tag_12:\n      tag_32\n      tag_63\n      calldatasize\n      0x04\n      tag_34\n      jump\t// in\n    tag_63:\n      tag_64\n      jump\t// in\n        /* \"UUPS/Logic.sol\":3657:4322  function addVoterDetails(... */\n    tag_13:\n      tag_28\n      tag_67\n      calldatasize\n      0x04\n      tag_68\n      jump\t// in\n    tag_67:\n      tag_69\n      jump\t// in\n        /* \"UUPS/Logic.sol\":4936:5033  function updatecode(address newCode) public onlyOwner {... */\n    tag_14:\n      tag_28\n      tag_71\n      calldatasize\n      0x04\n      tag_72\n      jump\t// in\n    tag_71:\n      tag_73\n      jump\t// in\n        /* \"UUPS/Logic.sol\":1841:1861  address public owner */\n    tag_15:\n      tag_74\n      tag_75\n      jump\t// in\n    tag_74:\n      mload(0x40)\n      tag_26\n      swap2\n      swap1\n      tag_77\n      jump\t// in\n        /* \"UUPS/Logic.sol\":3425:3651  function checkCandidateStatus(uint256 _voterCardNo)... */\n    tag_16:\n      tag_32\n      tag_79\n      calldatasize\n      0x04\n      tag_34\n      jump\t// in\n    tag_79:\n      tag_80\n      jump\t// in\n        /* \"UUPS/Logic.sol\":4328:4517  function checkVoterStatus(uint256 _voterCardNo) public view returns (bool) {... */\n    tag_17:\n      tag_32\n      tag_83\n      calldatasize\n      0x04\n      tag_34\n      jump\t// in\n    tag_83:\n      tag_84\n      jump\t// in\n        /* \"UUPS/Logic.sol\":2434:2454  string public winner */\n    tag_18:\n      tag_58\n      tag_87\n      jump\t// in\n        /* \"UUPS/Logic.sol\":2399:2428  string[] public listOfParties */\n    tag_19:\n      tag_58\n      tag_90\n      calldatasize\n      0x04\n      tag_34\n      jump\t// in\n    tag_90:\n      tag_91\n      jump\t// in\n        /* \"UUPS/Logic.sol\":2333:2360  uint256 public partyCounter */\n    tag_25:\n      sload(0x05)\n      dup2\n      jump\t// out\n        /* \"UUPS/Logic.sol\":2699:3419  function addCandidateDetails(... */\n    tag_31:\n        /* \"UUPS/Logic.sol\":2855:2872  bytes32 voterCard */\n      0x00\n        /* \"UUPS/Logic.sol\":2902:2914  _voterCardNo */\n      dup3\n        /* \"UUPS/Logic.sol\":2885:2915  abi.encodePacked(_voterCardNo) */\n      add(0x20, mload(0x40))\n      tag_94\n      swap2\n      swap1\n      tag_95\n      jump\t// in\n    tag_94:\n      0x40\n      dup1\n      mload\n      not(0x1f)\n      dup2\n      dup5\n      sub\n      add\n      dup2\n      mstore\n      swap2\n      dup2\n      mstore\n        /* \"UUPS/Logic.sol\":2875:2916  keccak256(abi.encodePacked(_voterCardNo)) */\n      dup2\n      mload\n        /* \"UUPS/Logic.sol\":2885:2915  abi.encodePacked(_voterCardNo) */\n      0x20\n        /* \"UUPS/Logic.sol\":2875:2916  keccak256(abi.encodePacked(_voterCardNo)) */\n      swap3\n      dup4\n      add\n      keccak256\n        /* \"UUPS/Logic.sol\":2947:2971  hasRegistered[voterCard] */\n      0x00\n      dup2\n      dup2\n      mstore\n        /* \"UUPS/Logic.sol\":2947:2960  hasRegistered */\n      0x04\n        /* \"UUPS/Logic.sol\":2947:2971  hasRegistered[voterCard] */\n      swap1\n      swap4\n      mstore\n      swap2\n      keccak256\n      sload\n        /* \"UUPS/Logic.sol\":2875:2916  keccak256(abi.encodePacked(_voterCardNo)) */\n      swap1\n      swap2\n      pop\n        /* \"UUPS/Logic.sol\":2947:2971  hasRegistered[voterCard] */\n      0xff\n      and\n        /* \"UUPS/Logic.sol\":2947:2980  hasRegistered[voterCard] == false */\n      iszero\n        /* \"UUPS/Logic.sol\":2926:3043  require(... */\n      tag_96\n      jumpi\n      mload(0x40)\n      shl(0xe5, 0x461bcd)\n      dup2\n      mstore\n      0x04\n      add\n      tag_97\n      swap1\n      tag_98\n      jump\t// in\n    tag_97:\n      mload(0x40)\n      dup1\n      swap2\n      sub\n      swap1\n      revert\n    tag_96:\n        /* \"UUPS/Logic.sol\":3076:3088  partyCounter */\n      sload(0x05)\n        /* \"UUPS/Logic.sol\":3053:3073  uint256 _partyNumber */\n      0x00\n        /* \"UUPS/Logic.sol\":3098:3128  candidateDetails[_partyNumber] */\n      dup2\n      dup2\n      mstore\n        /* \"UUPS/Logic.sol\":3098:3114  candidateDetails */\n      0x02\n        /* \"UUPS/Logic.sol\":3098:3128  candidateDetails[_partyNumber] */\n      0x20\n      swap1\n      dup2\n      mstore\n      0x40\n      swap1\n      swap2\n      keccak256\n        /* \"UUPS/Logic.sol\":3098:3163  candidateDetails[_partyNumber].nameOfCandidate = _nameOfCandidate */\n      dup7\n      mload\n      tag_99\n      swap3\n      dup9\n      add\n      swap1\n      tag_100\n      jump\t// in\n    tag_99:\n      pop\n        /* \"UUPS/Logic.sol\":3173:3203  candidateDetails[_partyNumber] */\n      0x00\n      dup2\n      dup2\n      mstore\n        /* \"UUPS/Logic.sol\":3173:3189  candidateDetails */\n      0x02\n        /* \"UUPS/Logic.sol\":3173:3203  candidateDetails[_partyNumber] */\n      0x20\n      dup2\n      dup2\n      mstore\n      0x40\n      swap1\n      swap3\n      keccak256\n        /* \"UUPS/Logic.sol\":3173:3215  candidateDetails[_partyNumber].voterCardNo */\n      0x01\n      dup2\n      add\n        /* \"UUPS/Logic.sol\":3173:3227  candidateDetails[_partyNumber].voterCardNo = voterCard */\n      dup6\n      swap1\n      sstore\n        /* \"UUPS/Logic.sol\":3237:3290  candidateDetails[_partyNumber].partyName = _partyName */\n      dup6\n      mload\n      tag_101\n      swap4\n        /* \"UUPS/Logic.sol\":3237:3277  candidateDetails[_partyNumber].partyName */\n      swap2\n      swap1\n      swap3\n      add\n      swap2\n        /* \"UUPS/Logic.sol\":3237:3290  candidateDetails[_partyNumber].partyName = _partyName */\n      swap1\n      dup7\n      add\n      swap1\n      tag_100\n      jump\t// in\n    tag_101:\n      pop\n        /* \"UUPS/Logic.sol\":3300:3324  hasRegistered[voterCard] */\n      0x00\n      dup3\n      dup2\n      mstore\n        /* \"UUPS/Logic.sol\":3300:3313  hasRegistered */\n      0x04\n        /* \"UUPS/Logic.sol\":3300:3324  hasRegistered[voterCard] */\n      0x20\n      swap1\n      dup2\n      mstore\n      0x40\n      dup3\n      keccak256\n        /* \"UUPS/Logic.sol\":3300:3331  hasRegistered[voterCard] = true */\n      dup1\n      sload\n      not(0xff)\n      and\n        /* \"UUPS/Logic.sol\":3327:3331  true */\n      0x01\n        /* \"UUPS/Logic.sol\":3300:3331  hasRegistered[voterCard] = true */\n      swap1\n      dup2\n      or\n      swap1\n      swap2\n      sstore\n        /* \"UUPS/Logic.sol\":3341:3354  listOfParties */\n      0x07\n        /* \"UUPS/Logic.sol\":3341:3371  listOfParties.push(_partyName) */\n      dup1\n      sload\n      swap2\n      dup3\n      add\n      dup2\n      sstore\n      swap1\n      swap3\n      mstore\n      dup5\n      mload\n      tag_103\n      swap3\n      0xa66cc928b5edb82af9bd49922954155ab7b0942694bea4ce44661d9a8736c688\n      add\n      swap2\n      dup7\n      add\n      swap1\n      tag_100\n      jump\t// in\n    tag_103:\n      pop\n        /* \"UUPS/Logic.sol\":3396:3408  partyCounter */\n      sload(0x05)\n        /* \"UUPS/Logic.sol\":3396:3412  partyCounter + 1 */\n      tag_104\n      swap1\n        /* \"UUPS/Logic.sol\":3411:3412  1 */\n      0x01\n        /* \"UUPS/Logic.sol\":3396:3412  partyCounter + 1 */\n      tag_105\n      jump\t// in\n    tag_104:\n        /* \"UUPS/Logic.sol\":3381:3393  partyCounter */\n      0x05\n        /* \"UUPS/Logic.sol\":3381:3412  partyCounter = partyCounter + 1 */\n      sstore\n      pop\n      pop\n      pop\n      pop\n      pop\n        /* \"UUPS/Logic.sol\":2699:3419  function addCandidateDetails(... */\n      jump\t// out\n        /* \"UUPS/Logic.sol\":2235:2275  mapping(bytes32 => bool) public hasVoted */\n    tag_35:\n      mstore(0x20, 0x03)\n      0x00\n      swap1\n      dup2\n      mstore\n      0x40\n      swap1\n      keccak256\n      sload\n      0xff\n      and\n      dup2\n      jump\t// out\n        /* \"UUPS/Logic.sol\":2111:2163  mapping(bytes32 => VoterDetails) public voterDetails */\n    tag_40:\n      0x01\n      0x20\n      dup2\n      swap1\n      mstore\n      0x00\n      swap2\n      dup3\n      mstore\n      0x40\n      swap1\n      swap2\n      keccak256\n      dup1\n      sload\n      swap2\n      add\n      sload\n      sub(shl(0xa0, 0x01), 0x01)\n      swap1\n      swap2\n      and\n      swap1\n      dup3\n      jump\t// out\n        /* \"UUPS/Logic.sol\":2566:2693  function constructor1() public {... */\n    tag_44:\n        /* \"UUPS/Logic.sol\":2632:2633  0 */\n      0x00\n        /* \"UUPS/Logic.sol\":2615:2620  owner */\n      sload\n      sub(shl(0xa0, 0x01), 0x01)\n      and\n        /* \"UUPS/Logic.sol\":2615:2634  owner == address(0) */\n      iszero\n        /* \"UUPS/Logic.sol\":2607:2658  require(owner == address(0), \"already initialised\") */\n      tag_107\n      jumpi\n      mload(0x40)\n      shl(0xe5, 0x461bcd)\n      dup2\n      mstore\n      0x04\n      add\n      tag_97\n      swap1\n      tag_109\n      jump\t// in\n    tag_107:\n        /* \"UUPS/Logic.sol\":2668:2673  owner */\n      0x00\n        /* \"UUPS/Logic.sol\":2668:2686  owner = msg.sender */\n      dup1\n      sload\n      not(0xffffffffffffffffffffffffffffffffffffffff)\n      and\n        /* \"UUPS/Logic.sol\":2676:2686  msg.sender */\n      caller\n        /* \"UUPS/Logic.sol\":2668:2686  owner = msg.sender */\n      or\n      swap1\n      sstore\n        /* \"UUPS/Logic.sol\":2566:2693  function constructor1() public {... */\n      jump\t// out\n        /* \"UUPS/Logic.sol\":2366:2393  uint256 public voterCounter */\n    tag_46:\n      sload(0x06)\n      dup2\n      jump\t// out\n        /* \"UUPS/Logic.sol\":1646:1803  function proxiableUUID() public pure returns (bytes32) {... */\n    tag_49:\n        /* \"UUPS/Logic.sol\":1730:1796  0xc5f16f0fcc639fa48a6947836d9850f504798523bf8c9a3a87d5876cf622bcf7 */\n      0xc5f16f0fcc639fa48a6947836d9850f504798523bf8c9a3a87d5876cf622bcf7\n        /* \"UUPS/Logic.sol\":1646:1803  function proxiableUUID() public pure returns (bytes32) {... */\n      swap1\n      jump\t// out\n        /* \"UUPS/Logic.sol\":2169:2229  mapping(uint256 => CandidateDetails) public candidateDetails */\n    tag_55:\n      mstore(0x20, 0x02)\n      0x00\n      swap1\n      dup2\n      mstore\n      0x40\n      swap1\n      keccak256\n      dup1\n      sload\n      dup2\n      swap1\n      tag_111\n      swap1\n      tag_112\n      jump\t// in\n    tag_111:\n      dup1\n      0x1f\n      add\n      0x20\n      dup1\n      swap2\n      div\n      mul\n      0x20\n      add\n      mload(0x40)\n      swap1\n      dup2\n      add\n      0x40\n      mstore\n      dup1\n      swap3\n      swap2\n      swap1\n      dup2\n      dup2\n      mstore\n      0x20\n      add\n      dup3\n      dup1\n      sload\n      tag_113\n      swap1\n      tag_112\n      jump\t// in\n    tag_113:\n      dup1\n      iszero\n      tag_114\n      jumpi\n      dup1\n      0x1f\n      lt\n      tag_115\n      jumpi\n      0x0100\n      dup1\n      dup4\n      sload\n      div\n      mul\n      dup4\n      mstore\n      swap2\n      0x20\n      add\n      swap2\n      jump(tag_114)\n    tag_115:\n      dup3\n      add\n      swap2\n      swap1\n      0x00\n      mstore\n      keccak256(0x00, 0x20)\n      swap1\n    tag_116:\n      dup2\n      sload\n      dup2\n      mstore\n      swap1\n      0x01\n      add\n      swap1\n      0x20\n      add\n      dup1\n      dup4\n      gt\n      tag_116\n      jumpi\n      dup3\n      swap1\n      sub\n      0x1f\n      and\n      dup3\n      add\n      swap2\n    tag_114:\n      pop\n      pop\n      pop\n      pop\n      pop\n      swap1\n      dup1\n      0x01\n      add\n      sload\n      swap1\n      dup1\n      0x02\n      add\n      dup1\n      sload\n      tag_117\n      swap1\n      tag_112\n      jump\t// in\n    tag_117:\n      dup1\n      0x1f\n      add\n      0x20\n      dup1\n      swap2\n      div\n      mul\n      0x20\n      add\n      mload(0x40)\n      swap1\n      dup2\n      add\n      0x40\n      mstore\n      dup1\n      swap3\n      swap2\n      swap1\n      dup2\n      dup2\n      mstore\n      0x20\n      add\n      dup3\n      dup1\n      sload\n      tag_118\n      swap1\n      tag_112\n      jump\t// in\n    tag_118:\n      dup1\n      iszero\n      tag_119\n      jumpi\n      dup1\n      0x1f\n      lt\n      tag_120\n      jumpi\n      0x0100\n      dup1\n      dup4\n      sload\n      div\n      mul\n      dup4\n      mstore\n      swap2\n      0x20\n      add\n      swap2\n      jump(tag_119)\n    tag_120:\n      dup3\n      add\n      swap2\n      swap1\n      0x00\n      mstore\n      keccak256(0x00, 0x20)\n      swap1\n    tag_121:\n      dup2\n      sload\n      dup2\n      mstore\n      swap1\n      0x01\n      add\n      swap1\n      0x20\n      add\n      dup1\n      dup4\n      gt\n      tag_121\n      jumpi\n      dup3\n      swap1\n      sub\n      0x1f\n      and\n      dup3\n      add\n      swap2\n    tag_119:\n      pop\n      pop\n      pop\n      pop\n      pop\n      swap1\n      dup1\n      0x03\n      add\n      sload\n      swap1\n      pop\n      dup5\n      jump\t// out\n        /* \"UUPS/Logic.sol\":4523:4930  function result() public returns (string memory) {... */\n    tag_59:\n        /* \"UUPS/Logic.sol\":4557:4570  string memory */\n      0x60\n        /* \"UUPS/Logic.sol\":4582:4594  uint256 temp */\n      0x00\n        /* \"UUPS/Logic.sol\":4604:4617  uint256 count */\n      dup1\n        /* \"UUPS/Logic.sol\":4632:4641  uint256 i */\n      0x00\n        /* \"UUPS/Logic.sol\":4627:4842  for (uint256 i = 0; i < listOfParties.length; i++) {... */\n    tag_123:\n        /* \"UUPS/Logic.sol\":4651:4664  listOfParties */\n      0x07\n        /* \"UUPS/Logic.sol\":4651:4671  listOfParties.length */\n      sload\n        /* \"UUPS/Logic.sol\":4647:4671  i < listOfParties.length */\n      dup2\n      lt\n        /* \"UUPS/Logic.sol\":4627:4842  for (uint256 i = 0; i < listOfParties.length; i++) {... */\n      iszero\n      tag_124\n      jumpi\n        /* \"UUPS/Logic.sol\":4703:4722  candidateDetails[i] */\n      0x00\n      dup2\n      dup2\n      mstore\n        /* \"UUPS/Logic.sol\":4703:4719  candidateDetails */\n      0x02\n        /* \"UUPS/Logic.sol\":4703:4722  candidateDetails[i] */\n      0x20\n      mstore\n      0x40\n      swap1\n      keccak256\n        /* \"UUPS/Logic.sol\":4703:4733  candidateDetails[i].totalVotes */\n      0x03\n      add\n      sload\n        /* \"UUPS/Logic.sol\":4696:4733  temp < candidateDetails[i].totalVotes */\n      dup4\n      lt\n        /* \"UUPS/Logic.sol\":4692:4832  if (temp < candidateDetails[i].totalVotes) {... */\n      iszero\n      tag_126\n      jumpi\n        /* \"UUPS/Logic.sol\":4760:4779  candidateDetails[i] */\n      0x00\n      dup2\n      dup2\n      mstore\n        /* \"UUPS/Logic.sol\":4760:4776  candidateDetails */\n      0x02\n        /* \"UUPS/Logic.sol\":4760:4779  candidateDetails[i] */\n      0x20\n      mstore\n      0x40\n      swap1\n      keccak256\n        /* \"UUPS/Logic.sol\":4760:4790  candidateDetails[i].totalVotes */\n      0x03\n      add\n      sload\n      swap3\n      pop\n        /* \"UUPS/Logic.sol\":4777:4778  i */\n      swap1\n      pop\n      dup1\n        /* \"UUPS/Logic.sol\":4692:4832  if (temp < candidateDetails[i].totalVotes) {... */\n    tag_126:\n        /* \"UUPS/Logic.sol\":4673:4676  i++ */\n      dup1\n      tag_127\n      dup2\n      tag_128\n      jump\t// in\n    tag_127:\n      swap2\n      pop\n      pop\n        /* \"UUPS/Logic.sol\":4627:4842  for (uint256 i = 0; i < listOfParties.length; i++) {... */\n      jump(tag_123)\n    tag_124:\n      pop\n        /* \"UUPS/Logic.sol\":4861:4884  candidateDetails[count] */\n      0x00\n      dup2\n      dup2\n      mstore\n        /* \"UUPS/Logic.sol\":4861:4877  candidateDetails */\n      0x02\n        /* \"UUPS/Logic.sol\":4861:4884  candidateDetails[count] */\n      0x20\n      mstore\n      0x40\n      swap1\n      keccak256\n        /* \"UUPS/Logic.sol\":4852:4900  winner = candidateDetails[count].nameOfCandidate */\n      dup1\n      sload\n        /* \"UUPS/Logic.sol\":4852:4858  winner */\n      0x08\n      swap2\n        /* \"UUPS/Logic.sol\":4861:4884  candidateDetails[count] */\n      swap1\n        /* \"UUPS/Logic.sol\":4852:4900  winner = candidateDetails[count].nameOfCandidate */\n      tag_129\n      swap1\n      tag_112\n      jump\t// in\n    tag_129:\n      tag_130\n      swap3\n      swap2\n      swap1\n      tag_131\n      jump\t// in\n    tag_130:\n      pop\n        /* \"UUPS/Logic.sol\":4917:4923  winner */\n      0x08\n        /* \"UUPS/Logic.sol\":4910:4923  return winner */\n      dup1\n      sload\n      tag_132\n      swap1\n      tag_112\n      jump\t// in\n    tag_132:\n      dup1\n      0x1f\n      add\n      0x20\n      dup1\n      swap2\n      div\n      mul\n      0x20\n      add\n      mload(0x40)\n      swap1\n      dup2\n      add\n      0x40\n      mstore\n      dup1\n      swap3\n      swap2\n      swap1\n      dup2\n      dup2\n      mstore\n      0x20\n      add\n      dup3\n      dup1\n      sload\n      tag_133\n      swap1\n      tag_112\n      jump\t// in\n    tag_133:\n      dup1\n      iszero\n      tag_134\n      jumpi\n      dup1\n      0x1f\n      lt\n      tag_135\n      jumpi\n      0x0100\n      dup1\n      dup4\n      sload\n      div\n      mul\n      dup4\n      mstore\n      swap2\n      0x20\n      add\n      swap2\n      jump(tag_134)\n    tag_135:\n      dup3\n      add\n      swap2\n      swap1\n      0x00\n      mstore\n      keccak256(0x00, 0x20)\n      swap1\n    tag_136:\n      dup2\n      sload\n      dup2\n      mstore\n      swap1\n      0x01\n      add\n      swap1\n      0x20\n      add\n      dup1\n      dup4\n      gt\n      tag_136\n      jumpi\n      dup3\n      swap1\n      sub\n      0x1f\n      and\n      dup3\n      add\n      swap2\n    tag_134:\n      pop\n      pop\n      pop\n      pop\n      pop\n      swap3\n      pop\n      pop\n      pop\n        /* \"UUPS/Logic.sol\":4523:4930  function result() public returns (string memory) {... */\n      swap1\n      jump\t// out\n        /* \"UUPS/Logic.sol\":2281:2326  mapping(bytes32 => bool) public hasRegistered */\n    tag_64:\n      mstore(0x20, 0x04)\n      0x00\n      swap1\n      dup2\n      mstore\n      0x40\n      swap1\n      keccak256\n      sload\n      0xff\n      and\n      dup2\n      jump\t// out\n        /* \"UUPS/Logic.sol\":3657:4322  function addVoterDetails(... */\n    tag_69:\n        /* \"UUPS/Logic.sol\":3811:3823  voterCounter */\n      sload(0x06)\n        /* \"UUPS/Logic.sol\":3811:3827  voterCounter + 1 */\n      tag_138\n      swap1\n        /* \"UUPS/Logic.sol\":3826:3827  1 */\n      0x01\n        /* \"UUPS/Logic.sol\":3811:3827  voterCounter + 1 */\n      tag_105\n      jump\t// in\n    tag_138:\n        /* \"UUPS/Logic.sol\":3796:3808  voterCounter */\n      0x06\n        /* \"UUPS/Logic.sol\":3796:3827  voterCounter = voterCounter + 1 */\n      sstore\n        /* \"UUPS/Logic.sol\":3867:3897  abi.encodePacked(_voterCardNo) */\n      mload(0x40)\n        /* \"UUPS/Logic.sol\":3837:3854  bytes32 voterCard */\n      0x00\n      swap1\n        /* \"UUPS/Logic.sol\":3867:3897  abi.encodePacked(_voterCardNo) */\n      tag_139\n      swap1\n        /* \"UUPS/Logic.sol\":3884:3896  _voterCardNo */\n      dup5\n      swap1\n        /* \"UUPS/Logic.sol\":3867:3897  abi.encodePacked(_voterCardNo) */\n      0x20\n      add\n      tag_95\n      jump\t// in\n    tag_139:\n      0x40\n      dup1\n      mload\n      not(0x1f)\n      dup2\n      dup5\n      sub\n      add\n      dup2\n      mstore\n      swap2\n      dup2\n      mstore\n        /* \"UUPS/Logic.sol\":3857:3898  keccak256(abi.encodePacked(_voterCardNo)) */\n      dup2\n      mload\n        /* \"UUPS/Logic.sol\":3867:3897  abi.encodePacked(_voterCardNo) */\n      0x20\n        /* \"UUPS/Logic.sol\":3857:3898  keccak256(abi.encodePacked(_voterCardNo)) */\n      swap3\n      dup4\n      add\n      keccak256\n        /* \"UUPS/Logic.sol\":3916:3935  hasVoted[voterCard] */\n      0x00\n      dup2\n      dup2\n      mstore\n        /* \"UUPS/Logic.sol\":3916:3924  hasVoted */\n      0x03\n        /* \"UUPS/Logic.sol\":3916:3935  hasVoted[voterCard] */\n      swap1\n      swap4\n      mstore\n      swap2\n      keccak256\n      sload\n        /* \"UUPS/Logic.sol\":3857:3898  keccak256(abi.encodePacked(_voterCardNo)) */\n      swap1\n      swap2\n      pop\n        /* \"UUPS/Logic.sol\":3916:3935  hasVoted[voterCard] */\n      0xff\n      and\n        /* \"UUPS/Logic.sol\":3916:3944  hasVoted[voterCard] == false */\n      iszero\n        /* \"UUPS/Logic.sol\":3908:3976  require(hasVoted[voterCard] == false, \"Candidate has already voted\") */\n      tag_140\n      jumpi\n      mload(0x40)\n      shl(0xe5, 0x461bcd)\n      dup2\n      mstore\n      0x04\n      add\n      tag_97\n      swap1\n      tag_142\n      jump\t// in\n    tag_140:\n        /* \"UUPS/Logic.sol\":4007:4020  listOfParties */\n      0x07\n        /* \"UUPS/Logic.sol\":4007:4027  listOfParties.length */\n      sload\n        /* \"UUPS/Logic.sol\":4031:4032  2 */\n      0x02\n      gt\n        /* \"UUPS/Logic.sol\":4007:4032  listOfParties.length >= 2 */\n      iszero\n        /* \"UUPS/Logic.sol\":3986:4101  require(... */\n      tag_143\n      jumpi\n      mload(0x40)\n      shl(0xe5, 0x461bcd)\n      dup2\n      mstore\n      0x04\n      add\n      tag_97\n      swap1\n      tag_145\n      jump\t// in\n    tag_143:\n        /* \"UUPS/Logic.sol\":4111:4134  voterDetails[voterCard] */\n      0x00\n      dup2\n      dup2\n      mstore\n        /* \"UUPS/Logic.sol\":4111:4123  voterDetails */\n      0x01\n        /* \"UUPS/Logic.sol\":4111:4134  voterDetails[voterCard] */\n      0x20\n      dup2\n      dup2\n      mstore\n      0x40\n      dup1\n      dup5\n      keccak256\n        /* \"UUPS/Logic.sol\":4111:4163  voterDetails[voterCard].voterAddress = _voterAddress */\n      dup1\n      sload\n      not(0xffffffffffffffffffffffffffffffffffffffff)\n      and\n      sub(shl(0xa0, 0x01), 0x01)\n      dup11\n      and\n      or\n      dup2\n      sstore\n        /* \"UUPS/Logic.sol\":4173:4208  voterDetails[voterCard].partyNumber */\n      dup4\n      add\n        /* \"UUPS/Logic.sol\":4173:4223  voterDetails[voterCard].partyNumber = _partyNumber */\n      dup7\n      swap1\n      sstore\n        /* \"UUPS/Logic.sol\":4233:4263  candidateDetails[_partyNumber] */\n      dup6\n      dup5\n      mstore\n        /* \"UUPS/Logic.sol\":4233:4249  candidateDetails */\n      0x02\n        /* \"UUPS/Logic.sol\":4233:4263  candidateDetails[_partyNumber] */\n      swap1\n      swap2\n      mstore\n      dup3\n      keccak256\n        /* \"UUPS/Logic.sol\":4233:4274  candidateDetails[_partyNumber].totalVotes */\n      0x03\n      add\n        /* \"UUPS/Logic.sol\":4233:4279  candidateDetails[_partyNumber].totalVotes += 1 */\n      dup1\n      sload\n        /* \"UUPS/Logic.sol\":4111:4123  voterDetails */\n      swap2\n      swap3\n        /* \"UUPS/Logic.sol\":4233:4274  candidateDetails[_partyNumber].totalVotes */\n      swap1\n      swap2\n        /* \"UUPS/Logic.sol\":4233:4279  candidateDetails[_partyNumber].totalVotes += 1 */\n      tag_146\n      swap1\n        /* \"UUPS/Logic.sol\":4111:4123  voterDetails */\n      dup5\n      swap1\n        /* \"UUPS/Logic.sol\":4233:4279  candidateDetails[_partyNumber].totalVotes += 1 */\n      tag_105\n      jump\t// in\n    tag_146:\n      swap1\n      swap2\n      sstore\n      pop\n      pop\n        /* \"UUPS/Logic.sol\":4289:4308  hasVoted[voterCard] */\n      0x00\n      swap1\n      dup2\n      mstore\n        /* \"UUPS/Logic.sol\":4289:4297  hasVoted */\n      0x03\n        /* \"UUPS/Logic.sol\":4289:4308  hasVoted[voterCard] */\n      0x20\n      mstore\n      0x40\n      swap1\n      keccak256\n        /* \"UUPS/Logic.sol\":4289:4315  hasVoted[voterCard] = true */\n      dup1\n      sload\n      not(0xff)\n      and\n        /* \"UUPS/Logic.sol\":4311:4315  true */\n      0x01\n        /* \"UUPS/Logic.sol\":4289:4315  hasVoted[voterCard] = true */\n      or\n      swap1\n      sstore\n      pop\n      pop\n      pop\n        /* \"UUPS/Logic.sol\":3657:4322  function addVoterDetails(... */\n      jump\t// out\n        /* \"UUPS/Logic.sol\":4936:5033  function updatecode(address newCode) public onlyOwner {... */\n    tag_73:\n        /* \"UUPS/Logic.sol\":2516:2517  0 */\n      0x00\n        /* \"UUPS/Logic.sol\":2499:2504  owner */\n      sload\n      sub(shl(0xa0, 0x01), 0x01)\n      and\n        /* \"UUPS/Logic.sol\":2499:2518  owner == address(0) */\n      iszero\n        /* \"UUPS/Logic.sol\":2491:2542  require(owner == address(0), \"already initialised\") */\n      tag_148\n      jumpi\n      mload(0x40)\n      shl(0xe5, 0x461bcd)\n      dup2\n      mstore\n      0x04\n      add\n      tag_97\n      swap1\n      tag_109\n      jump\t// in\n    tag_148:\n        /* \"UUPS/Logic.sol\":5000:5026  updateCodeAddress(newCode) */\n      tag_151\n        /* \"UUPS/Logic.sol\":5018:5025  newCode */\n      dup2\n        /* \"UUPS/Logic.sol\":5000:5017  updateCodeAddress */\n      tag_152\n        /* \"UUPS/Logic.sol\":5000:5026  updateCodeAddress(newCode) */\n      jump\t// in\n    tag_151:\n        /* \"UUPS/Logic.sol\":4936:5033  function updatecode(address newCode) public onlyOwner {... */\n      pop\n      jump\t// out\n        /* \"UUPS/Logic.sol\":1841:1861  address public owner */\n    tag_75:\n      and(sub(shl(0xa0, 0x01), 0x01), sload(0x00))\n      dup2\n      jump\t// out\n        /* \"UUPS/Logic.sol\":3425:3651  function checkCandidateStatus(uint256 _voterCardNo)... */\n    tag_80:\n        /* \"UUPS/Logic.sol\":3522:3526  bool */\n      0x00\n        /* \"UUPS/Logic.sol\":3542:3559  bytes32 voterCard */\n      dup1\n        /* \"UUPS/Logic.sol\":3589:3601  _voterCardNo */\n      dup3\n        /* \"UUPS/Logic.sol\":3572:3602  abi.encodePacked(_voterCardNo) */\n      add(0x20, mload(0x40))\n      tag_154\n      swap2\n      swap1\n      tag_95\n      jump\t// in\n    tag_154:\n      0x40\n      dup1\n      mload\n      not(0x1f)\n      dup2\n      dup5\n      sub\n      add\n      dup2\n      mstore\n      swap2\n      dup2\n      mstore\n        /* \"UUPS/Logic.sol\":3562:3603  keccak256(abi.encodePacked(_voterCardNo)) */\n      dup2\n      mload\n        /* \"UUPS/Logic.sol\":3572:3602  abi.encodePacked(_voterCardNo) */\n      0x20\n        /* \"UUPS/Logic.sol\":3562:3603  keccak256(abi.encodePacked(_voterCardNo)) */\n      swap3\n      dup4\n      add\n      keccak256\n        /* \"UUPS/Logic.sol\":3620:3644  hasRegistered[voterCard] */\n      0x00\n      swap1\n      dup2\n      mstore\n        /* \"UUPS/Logic.sol\":3620:3633  hasRegistered */\n      0x04\n        /* \"UUPS/Logic.sol\":3620:3644  hasRegistered[voterCard] */\n      swap1\n      swap3\n      mstore\n      swap1\n      keccak256\n      sload\n      0xff\n      and\n      swap2\n      pop\n      pop\n        /* \"UUPS/Logic.sol\":3425:3651  function checkCandidateStatus(uint256 _voterCardNo)... */\n    tag_153:\n      swap2\n      swap1\n      pop\n      jump\t// out\n        /* \"UUPS/Logic.sol\":4328:4517  function checkVoterStatus(uint256 _voterCardNo) public view returns (bool) {... */\n    tag_84:\n        /* \"UUPS/Logic.sol\":4397:4401  bool */\n      0x00\n        /* \"UUPS/Logic.sol\":4413:4430  bytes32 voterCard */\n      dup1\n        /* \"UUPS/Logic.sol\":4460:4472  _voterCardNo */\n      dup3\n        /* \"UUPS/Logic.sol\":4443:4473  abi.encodePacked(_voterCardNo) */\n      add(0x20, mload(0x40))\n      tag_156\n      swap2\n      swap1\n      tag_95\n      jump\t// in\n    tag_156:\n      0x40\n      dup1\n      mload\n      dup1\n      dup4\n      sub\n      not(0x1f)\n      add\n      dup2\n      mstore\n      swap2\n      dup2\n      mstore\n        /* \"UUPS/Logic.sol\":4433:4474  keccak256(abi.encodePacked(_voterCardNo)) */\n      dup2\n      mload\n        /* \"UUPS/Logic.sol\":4443:4473  abi.encodePacked(_voterCardNo) */\n      0x20\n        /* \"UUPS/Logic.sol\":4433:4474  keccak256(abi.encodePacked(_voterCardNo)) */\n      swap3\n      dup4\n      add\n      keccak256\n        /* \"UUPS/Logic.sol\":4491:4510  hasVoted[voterCard] */\n      0x00\n      swap1\n      dup2\n      mstore\n        /* \"UUPS/Logic.sol\":4491:4499  hasVoted */\n      0x03\n        /* \"UUPS/Logic.sol\":4491:4510  hasVoted[voterCard] */\n      swap1\n      swap3\n      mstore\n      swap1\n      keccak256\n      sload\n      0xff\n      and\n      swap4\n        /* \"UUPS/Logic.sol\":4328:4517  function checkVoterStatus(uint256 _voterCardNo) public view returns (bool) {... */\n      swap3\n      pop\n      pop\n      pop\n      jump\t// out\n        /* \"UUPS/Logic.sol\":2434:2454  string public winner */\n    tag_87:\n      0x08\n      dup1\n      sload\n      tag_157\n      swap1\n      tag_112\n      jump\t// in\n    tag_157:\n      dup1\n      0x1f\n      add\n      0x20\n      dup1\n      swap2\n      div\n      mul\n      0x20\n      add\n      mload(0x40)\n      swap1\n      dup2\n      add\n      0x40\n      mstore\n      dup1\n      swap3\n      swap2\n      swap1\n      dup2\n      dup2\n      mstore\n      0x20\n      add\n      dup3\n      dup1\n      sload\n      tag_158\n      swap1\n      tag_112\n      jump\t// in\n    tag_158:\n      dup1\n      iszero\n      tag_159\n      jumpi\n      dup1\n      0x1f\n      lt\n      tag_160\n      jumpi\n      0x0100\n      dup1\n      dup4\n      sload\n      div\n      mul\n      dup4\n      mstore\n      swap2\n      0x20\n      add\n      swap2\n      jump(tag_159)\n    tag_160:\n      dup3\n      add\n      swap2\n      swap1\n      0x00\n      mstore\n      keccak256(0x00, 0x20)\n      swap1\n    tag_161:\n      dup2\n      sload\n      dup2\n      mstore\n      swap1\n      0x01\n      add\n      swap1\n      0x20\n      add\n      dup1\n      dup4\n      gt\n      tag_161\n      jumpi\n      dup3\n      swap1\n      sub\n      0x1f\n      and\n      dup3\n      add\n      swap2\n    tag_159:\n      pop\n      pop\n      pop\n      pop\n      pop\n      dup2\n      jump\t// out\n        /* \"UUPS/Logic.sol\":2399:2428  string[] public listOfParties */\n    tag_91:\n      0x07\n      dup2\n      dup2\n      sload\n      dup2\n      lt\n      tag_162\n      jumpi\n      0x00\n      dup1\n      revert\n    tag_162:\n      swap1\n      0x00\n      mstore\n      keccak256(0x00, 0x20)\n      add\n      0x00\n      swap2\n      pop\n      swap1\n      pop\n      dup1\n      sload\n      tag_157\n      swap1\n      tag_112\n      jump\t// in\n        /* \"UUPS/Logic.sol\":1186:1640  function updateCodeAddress(address newAddress) internal {... */\n    tag_152:\n        /* \"UUPS/Logic.sol\":1392:1402  newAddress */\n      dup1\n      sub(shl(0xa0, 0x01), 0x01)\n        /* \"UUPS/Logic.sol\":1382:1417  Proxiable(newAddress).proxiableUUID */\n      and\n      0x52d1902d\n        /* \"UUPS/Logic.sol\":1382:1419  Proxiable(newAddress).proxiableUUID() */\n      mload(0x40)\n      dup2\n      0xffffffff\n      and\n      0xe0\n      shl\n      dup2\n      mstore\n      0x04\n      add\n      0x20\n      mload(0x40)\n      dup1\n      dup4\n      sub\n      dup2\n      dup7\n      dup1\n      extcodesize\n      iszero\n      dup1\n      iszero\n      tag_170\n      jumpi\n      0x00\n      dup1\n      revert\n    tag_170:\n      pop\n      gas\n      staticcall\n      iszero\n      dup1\n      iszero\n      tag_172\n      jumpi\n      returndatasize\n      0x00\n      dup1\n      returndatacopy\n      revert(0x00, returndatasize)\n    tag_172:\n      pop\n      pop\n      pop\n      pop\n      mload(0x40)\n      returndatasize\n      not(0x1f)\n      0x1f\n      dup3\n      add\n      and\n      dup3\n      add\n      dup1\n      0x40\n      mstore\n      pop\n      dup2\n      add\n      swap1\n      tag_173\n      swap2\n      swap1\n      tag_174\n      jump\t// in\n    tag_173:\n        /* \"UUPS/Logic.sol\":1298:1364  0xc5f16f0fcc639fa48a6947836d9850f504798523bf8c9a3a87d5876cf622bcf7 */\n      0xc5f16f0fcc639fa48a6947836d9850f504798523bf8c9a3a87d5876cf622bcf7\n        /* \"UUPS/Logic.sol\":1273:1419  bytes32(... */\n      eq\n        /* \"UUPS/Logic.sol\":1252:1459  require(... */\n      tag_175\n      jumpi\n      mload(0x40)\n      shl(0xe5, 0x461bcd)\n      dup2\n      mstore\n      0x04\n      add\n      tag_97\n      swap1\n      tag_177\n      jump\t// in\n    tag_175:\n        /* \"UUPS/Logic.sol\":1516:1582  0xc5f16f0fcc639fa48a6947836d9850f504798523bf8c9a3a87d5876cf622bcf7 */\n      0xc5f16f0fcc639fa48a6947836d9850f504798523bf8c9a3a87d5876cf622bcf7\n        /* \"UUPS/Logic.sol\":1492:1624  sstore(... */\n      sstore\n        /* \"UUPS/Logic.sol\":1478:1634  {... */\n      jump\t// out\n    tag_100:\n      dup3\n      dup1\n      sload\n      tag_178\n      swap1\n      tag_112\n      jump\t// in\n    tag_178:\n      swap1\n      0x00\n      mstore\n      keccak256(0x00, 0x20)\n      swap1\n      0x1f\n      add\n      0x20\n      swap1\n      div\n      dup2\n      add\n      swap3\n      dup3\n      tag_180\n      jumpi\n      0x00\n      dup6\n      sstore\n      jump(tag_183)\n    tag_180:\n      dup3\n      0x1f\n      lt\n      tag_181\n      jumpi\n      dup1\n      mload\n      not(0xff)\n      and\n      dup4\n      dup1\n      add\n      or\n      dup6\n      sstore\n      jump(tag_183)\n    tag_181:\n      dup3\n      dup1\n      add\n      0x01\n      add\n      dup6\n      sstore\n      dup3\n      iszero\n      tag_183\n      jumpi\n      swap2\n      dup3\n      add\n    tag_182:\n      dup3\n      dup2\n      gt\n      iszero\n      tag_183\n      jumpi\n      dup3\n      mload\n      dup3\n      sstore\n      swap2\n      0x20\n      add\n      swap2\n      swap1\n      0x01\n      add\n      swap1\n      jump(tag_182)\n    tag_183:\n      pop\n      tag_184\n      swap3\n      swap2\n      pop\n      tag_185\n      jump\t// in\n    tag_184:\n      pop\n      swap1\n      jump\t// out\n    tag_131:\n      dup3\n      dup1\n      sload\n      tag_186\n      swap1\n      tag_112\n      jump\t// in\n    tag_186:\n      swap1\n      0x00\n      mstore\n      keccak256(0x00, 0x20)\n      swap1\n      0x1f\n      add\n      0x20\n      swap1\n      div\n      dup2\n      add\n      swap3\n      dup3\n      tag_188\n      jumpi\n      0x00\n      dup6\n      sstore\n      jump(tag_183)\n    tag_188:\n      dup3\n      0x1f\n      lt\n      tag_189\n      jumpi\n      dup1\n      sload\n      dup6\n      sstore\n      jump(tag_183)\n    tag_189:\n      dup3\n      dup1\n      add\n      0x01\n      add\n      dup6\n      sstore\n      dup3\n      iszero\n      tag_183\n      jumpi\n      0x00\n      mstore\n      keccak256(0x00, 0x20)\n      swap2\n      0x1f\n      add\n      0x20\n      swap1\n      div\n      dup3\n      add\n    tag_190:\n      dup3\n      dup2\n      gt\n      iszero\n      tag_183\n      jumpi\n      dup3\n      sload\n      dup3\n      sstore\n      swap2\n      0x01\n      add\n      swap2\n      swap1\n      0x01\n      add\n      swap1\n      jump(tag_190)\n    tag_185:\n    tag_193:\n      dup1\n      dup3\n      gt\n      iszero\n      tag_184\n      jumpi\n      0x00\n      dup2\n      sstore\n      0x01\n      add\n      jump(tag_193)\n        /* \"#utility.yul\":14:212   */\n    tag_196:\n        /* \"#utility.yul\":84:104   */\n      dup1\n      calldataload\n      sub(shl(0xa0, 0x01), 0x01)\n        /* \"#utility.yul\":133:187   */\n      dup2\n      and\n        /* \"#utility.yul\":123:188   */\n      dup2\n      eq\n        /* \"#utility.yul\":113:115   */\n      tag_153\n      jumpi\n        /* \"#utility.yul\":202:203   */\n      0x00\n        /* \"#utility.yul\":199:200   */\n      dup1\n        /* \"#utility.yul\":192:204   */\n      revert\n        /* \"#utility.yul\":217:958   */\n    tag_199:\n      0x00\n        /* \"#utility.yul\":315:318   */\n      dup3\n        /* \"#utility.yul\":308:312   */\n      0x1f\n        /* \"#utility.yul\":300:306   */\n      dup4\n        /* \"#utility.yul\":296:313   */\n      add\n        /* \"#utility.yul\":292:319   */\n      slt\n        /* \"#utility.yul\":282:284   */\n      tag_201\n      jumpi\n        /* \"#utility.yul\":337:342   */\n      dup1\n        /* \"#utility.yul\":330:335   */\n      dup2\n        /* \"#utility.yul\":323:343   */\n      revert\n        /* \"#utility.yul\":282:284   */\n    tag_201:\n        /* \"#utility.yul\":377:383   */\n      dup2\n        /* \"#utility.yul\":364:384   */\n      calldataload\n        /* \"#utility.yul\":403:421   */\n      0xffffffffffffffff\n        /* \"#utility.yul\":440:442   */\n      dup1\n        /* \"#utility.yul\":436:438   */\n      dup3\n        /* \"#utility.yul\":433:443   */\n      gt\n        /* \"#utility.yul\":430:432   */\n      iszero\n      tag_203\n      jumpi\n        /* \"#utility.yul\":446:464   */\n      tag_203\n      tag_204\n      jump\t// in\n    tag_203:\n        /* \"#utility.yul\":521:523   */\n      0x40\n        /* \"#utility.yul\":515:524   */\n      mload\n        /* \"#utility.yul\":489:491   */\n      0x1f\n        /* \"#utility.yul\":575:588   */\n      dup4\n      add\n      not(0x1f)\n        /* \"#utility.yul\":571:593   */\n      swap1\n      dup2\n      and\n        /* \"#utility.yul\":595:597   */\n      0x3f\n        /* \"#utility.yul\":567:598   */\n      add\n        /* \"#utility.yul\":563:603   */\n      and\n        /* \"#utility.yul\":551:604   */\n      dup2\n      add\n      swap1\n        /* \"#utility.yul\":619:637   */\n      dup3\n      dup3\n      gt\n        /* \"#utility.yul\":639:661   */\n      dup2\n      dup4\n      lt\n        /* \"#utility.yul\":616:662   */\n      or\n        /* \"#utility.yul\":613:615   */\n      iszero\n      tag_206\n      jumpi\n        /* \"#utility.yul\":665:683   */\n      tag_206\n      tag_204\n      jump\t// in\n    tag_206:\n        /* \"#utility.yul\":705:715   */\n      dup2\n        /* \"#utility.yul\":701:703   */\n      0x40\n        /* \"#utility.yul\":694:716   */\n      mstore\n        /* \"#utility.yul\":740:742   */\n      dup4\n        /* \"#utility.yul\":732:738   */\n      dup2\n        /* \"#utility.yul\":725:743   */\n      mstore\n        /* \"#utility.yul\":786:789   */\n      dup7\n        /* \"#utility.yul\":779:783   */\n      0x20\n        /* \"#utility.yul\":774:776   */\n      dup6\n        /* \"#utility.yul\":766:772   */\n      dup9\n        /* \"#utility.yul\":762:777   */\n      add\n        /* \"#utility.yul\":758:784   */\n      add\n        /* \"#utility.yul\":755:790   */\n      gt\n        /* \"#utility.yul\":752:754   */\n      iszero\n      tag_207\n      jumpi\n        /* \"#utility.yul\":807:812   */\n      dup5\n        /* \"#utility.yul\":800:805   */\n      dup6\n        /* \"#utility.yul\":793:813   */\n      revert\n        /* \"#utility.yul\":752:754   */\n    tag_207:\n        /* \"#utility.yul\":875:877   */\n      dup4\n        /* \"#utility.yul\":868:872   */\n      0x20\n        /* \"#utility.yul\":860:866   */\n      dup8\n        /* \"#utility.yul\":856:873   */\n      add\n        /* \"#utility.yul\":849:853   */\n      0x20\n        /* \"#utility.yul\":841:847   */\n      dup4\n        /* \"#utility.yul\":837:854   */\n      add\n        /* \"#utility.yul\":824:878   */\n      calldatacopy\n        /* \"#utility.yul\":898:913   */\n      swap3\n      dup4\n      add\n        /* \"#utility.yul\":915:919   */\n      0x20\n        /* \"#utility.yul\":894:920   */\n      add\n        /* \"#utility.yul\":887:928   */\n      swap4\n      swap1\n      swap4\n      mstore\n      pop\n        /* \"#utility.yul\":902:908   */\n      swap4\n        /* \"#utility.yul\":272:958   */\n      swap3\n      pop\n      pop\n      pop\n      jump\t// out\n        /* \"#utility.yul\":963:1161   */\n    tag_72:\n      0x00\n        /* \"#utility.yul\":1075:1077   */\n      0x20\n        /* \"#utility.yul\":1063:1072   */\n      dup3\n        /* \"#utility.yul\":1054:1061   */\n      dup5\n        /* \"#utility.yul\":1050:1073   */\n      sub\n        /* \"#utility.yul\":1046:1078   */\n      slt\n        /* \"#utility.yul\":1043:1045   */\n      iszero\n      tag_209\n      jumpi\n        /* \"#utility.yul\":1096:1102   */\n      dup1\n        /* \"#utility.yul\":1088:1094   */\n      dup2\n        /* \"#utility.yul\":1081:1103   */\n      revert\n        /* \"#utility.yul\":1043:1045   */\n    tag_209:\n        /* \"#utility.yul\":1124:1155   */\n      tag_210\n        /* \"#utility.yul\":1145:1154   */\n      dup3\n        /* \"#utility.yul\":1124:1155   */\n      tag_196\n      jump\t// in\n    tag_210:\n        /* \"#utility.yul\":1114:1155   */\n      swap4\n        /* \"#utility.yul\":1033:1161   */\n      swap3\n      pop\n      pop\n      pop\n      jump\t// out\n        /* \"#utility.yul\":1166:1500   */\n    tag_68:\n      0x00\n      dup1\n      0x00\n        /* \"#utility.yul\":1312:1314   */\n      0x60\n        /* \"#utility.yul\":1300:1309   */\n      dup5\n        /* \"#utility.yul\":1291:1298   */\n      dup7\n        /* \"#utility.yul\":1287:1310   */\n      sub\n        /* \"#utility.yul\":1283:1315   */\n      slt\n        /* \"#utility.yul\":1280:1282   */\n      iszero\n      tag_212\n      jumpi\n        /* \"#utility.yul\":1333:1339   */\n      dup2\n        /* \"#utility.yul\":1325:1331   */\n      dup3\n        /* \"#utility.yul\":1318:1340   */\n      revert\n        /* \"#utility.yul\":1280:1282   */\n    tag_212:\n        /* \"#utility.yul\":1361:1392   */\n      tag_213\n        /* \"#utility.yul\":1382:1391   */\n      dup5\n        /* \"#utility.yul\":1361:1392   */\n      tag_196\n      jump\t// in\n    tag_213:\n        /* \"#utility.yul\":1351:1392   */\n      swap6\n        /* \"#utility.yul\":1439:1441   */\n      0x20\n        /* \"#utility.yul\":1424:1442   */\n      dup6\n      add\n        /* \"#utility.yul\":1411:1443   */\n      calldataload\n      swap6\n      pop\n        /* \"#utility.yul\":1490:1492   */\n      0x40\n        /* \"#utility.yul\":1475:1493   */\n      swap1\n      swap5\n      add\n        /* \"#utility.yul\":1462:1494   */\n      calldataload\n      swap4\n        /* \"#utility.yul\":1270:1500   */\n      swap3\n      pop\n      pop\n      pop\n      jump\t// out\n        /* \"#utility.yul\":1505:1695   */\n    tag_34:\n      0x00\n        /* \"#utility.yul\":1617:1619   */\n      0x20\n        /* \"#utility.yul\":1605:1614   */\n      dup3\n        /* \"#utility.yul\":1596:1603   */\n      dup5\n        /* \"#utility.yul\":1592:1615   */\n      sub\n        /* \"#utility.yul\":1588:1620   */\n      slt\n        /* \"#utility.yul\":1585:1587   */\n      iszero\n      tag_215\n      jumpi\n        /* \"#utility.yul\":1638:1644   */\n      dup1\n        /* \"#utility.yul\":1630:1636   */\n      dup2\n        /* \"#utility.yul\":1623:1645   */\n      revert\n        /* \"#utility.yul\":1585:1587   */\n    tag_215:\n      pop\n        /* \"#utility.yul\":1666:1689   */\n      calldataload\n      swap2\n        /* \"#utility.yul\":1575:1695   */\n      swap1\n      pop\n      jump\t// out\n        /* \"#utility.yul\":1700:1894   */\n    tag_174:\n      0x00\n        /* \"#utility.yul\":1823:1825   */\n      0x20\n        /* \"#utility.yul\":1811:1820   */\n      dup3\n        /* \"#utility.yul\":1802:1809   */\n      dup5\n        /* \"#utility.yul\":1798:1821   */\n      sub\n        /* \"#utility.yul\":1794:1826   */\n      slt\n        /* \"#utility.yul\":1791:1793   */\n      iszero\n      tag_217\n      jumpi\n        /* \"#utility.yul\":1844:1850   */\n      dup1\n        /* \"#utility.yul\":1836:1842   */\n      dup2\n        /* \"#utility.yul\":1829:1851   */\n      revert\n        /* \"#utility.yul\":1791:1793   */\n    tag_217:\n      pop\n        /* \"#utility.yul\":1872:1888   */\n      mload\n      swap2\n        /* \"#utility.yul\":1781:1894   */\n      swap1\n      pop\n      jump\t// out\n        /* \"#utility.yul\":1899:2544   */\n    tag_30:\n      0x00\n      dup1\n      0x00\n        /* \"#utility.yul\":2065:2067   */\n      0x60\n        /* \"#utility.yul\":2053:2062   */\n      dup5\n        /* \"#utility.yul\":2044:2051   */\n      dup7\n        /* \"#utility.yul\":2040:2063   */\n      sub\n        /* \"#utility.yul\":2036:2068   */\n      slt\n        /* \"#utility.yul\":2033:2035   */\n      iszero\n      tag_219\n      jumpi\n        /* \"#utility.yul\":2086:2092   */\n      dup3\n        /* \"#utility.yul\":2078:2084   */\n      dup4\n        /* \"#utility.yul\":2071:2093   */\n      revert\n        /* \"#utility.yul\":2033:2035   */\n    tag_219:\n        /* \"#utility.yul\":2131:2140   */\n      dup4\n        /* \"#utility.yul\":2118:2141   */\n      calldataload\n        /* \"#utility.yul\":2160:2178   */\n      0xffffffffffffffff\n        /* \"#utility.yul\":2201:2203   */\n      dup1\n        /* \"#utility.yul\":2193:2199   */\n      dup3\n        /* \"#utility.yul\":2190:2204   */\n      gt\n        /* \"#utility.yul\":2187:2189   */\n      iszero\n      tag_220\n      jumpi\n        /* \"#utility.yul\":2222:2228   */\n      dup5\n        /* \"#utility.yul\":2214:2220   */\n      dup6\n        /* \"#utility.yul\":2207:2229   */\n      revert\n        /* \"#utility.yul\":2187:2189   */\n    tag_220:\n        /* \"#utility.yul\":2250:2302   */\n      tag_221\n        /* \"#utility.yul\":2294:2301   */\n      dup8\n        /* \"#utility.yul\":2285:2291   */\n      dup4\n        /* \"#utility.yul\":2274:2283   */\n      dup9\n        /* \"#utility.yul\":2270:2292   */\n      add\n        /* \"#utility.yul\":2250:2302   */\n      tag_199\n      jump\t// in\n    tag_221:\n        /* \"#utility.yul\":2240:2302   */\n      swap5\n      pop\n        /* \"#utility.yul\":2349:2351   */\n      0x20\n        /* \"#utility.yul\":2338:2347   */\n      dup7\n        /* \"#utility.yul\":2334:2352   */\n      add\n        /* \"#utility.yul\":2321:2353   */\n      calldataload\n        /* \"#utility.yul\":2311:2353   */\n      swap4\n      pop\n        /* \"#utility.yul\":2406:2408   */\n      0x40\n        /* \"#utility.yul\":2395:2404   */\n      dup7\n        /* \"#utility.yul\":2391:2409   */\n      add\n        /* \"#utility.yul\":2378:2410   */\n      calldataload\n        /* \"#utility.yul\":2362:2410   */\n      swap2\n      pop\n        /* \"#utility.yul\":2435:2437   */\n      dup1\n        /* \"#utility.yul\":2425:2433   */\n      dup3\n        /* \"#utility.yul\":2422:2438   */\n      gt\n        /* \"#utility.yul\":2419:2421   */\n      iszero\n      tag_222\n      jumpi\n        /* \"#utility.yul\":2456:2462   */\n      dup3\n        /* \"#utility.yul\":2448:2454   */\n      dup4\n        /* \"#utility.yul\":2441:2463   */\n      revert\n        /* \"#utility.yul\":2419:2421   */\n    tag_222:\n      pop\n        /* \"#utility.yul\":2484:2538   */\n      tag_223\n        /* \"#utility.yul\":2530:2537   */\n      dup7\n        /* \"#utility.yul\":2519:2527   */\n      dup3\n        /* \"#utility.yul\":2508:2517   */\n      dup8\n        /* \"#utility.yul\":2504:2528   */\n      add\n        /* \"#utility.yul\":2484:2538   */\n      tag_199\n      jump\t// in\n    tag_223:\n        /* \"#utility.yul\":2474:2538   */\n      swap2\n      pop\n      pop\n        /* \"#utility.yul\":2023:2544   */\n      swap3\n      pop\n      swap3\n      pop\n      swap3\n      jump\t// out\n        /* \"#utility.yul\":2744:3222   */\n    tag_226:\n      0x00\n        /* \"#utility.yul\":2826:2831   */\n      dup2\n        /* \"#utility.yul\":2820:2832   */\n      mload\n        /* \"#utility.yul\":2853:2859   */\n      dup1\n        /* \"#utility.yul\":2848:2851   */\n      dup5\n        /* \"#utility.yul\":2841:2860   */\n      mstore\n        /* \"#utility.yul\":2878:2881   */\n      dup2\n        /* \"#utility.yul\":2890:3052   */\n    tag_228:\n        /* \"#utility.yul\":2904:2910   */\n      dup2\n        /* \"#utility.yul\":2901:2902   */\n      dup2\n        /* \"#utility.yul\":2898:2911   */\n      lt\n        /* \"#utility.yul\":2890:3052   */\n      iszero\n      tag_230\n      jumpi\n        /* \"#utility.yul\":2966:2970   */\n      0x20\n        /* \"#utility.yul\":3022:3035   */\n      dup2\n      dup6\n      add\n        /* \"#utility.yul\":3018:3040   */\n      dup2\n      add\n        /* \"#utility.yul\":3012:3041   */\n      mload\n        /* \"#utility.yul\":2994:3005   */\n      dup7\n      dup4\n      add\n        /* \"#utility.yul\":2990:3010   */\n      dup3\n      add\n        /* \"#utility.yul\":2983:3042   */\n      mstore\n        /* \"#utility.yul\":2919:2931   */\n      add\n        /* \"#utility.yul\":2890:3052   */\n      jump(tag_228)\n    tag_230:\n        /* \"#utility.yul\":3070:3076   */\n      dup2\n        /* \"#utility.yul\":3067:3068   */\n      dup2\n        /* \"#utility.yul\":3064:3077   */\n      gt\n        /* \"#utility.yul\":3061:3063   */\n      iszero\n      tag_231\n      jumpi\n        /* \"#utility.yul\":3136:3139   */\n      dup3\n        /* \"#utility.yul\":3129:3133   */\n      0x20\n        /* \"#utility.yul\":3120:3126   */\n      dup4\n        /* \"#utility.yul\":3115:3118   */\n      dup8\n        /* \"#utility.yul\":3111:3127   */\n      add\n        /* \"#utility.yul\":3107:3134   */\n      add\n        /* \"#utility.yul\":3100:3140   */\n      mstore\n        /* \"#utility.yul\":3061:3063   */\n    tag_231:\n      pop\n        /* \"#utility.yul\":3204:3206   */\n      0x1f\n        /* \"#utility.yul\":3183:3198   */\n      add\n      not(0x1f)\n        /* \"#utility.yul\":3179:3208   */\n      and\n        /* \"#utility.yul\":3170:3209   */\n      swap3\n      swap1\n      swap3\n      add\n        /* \"#utility.yul\":3211:3215   */\n      0x20\n        /* \"#utility.yul\":3166:3216   */\n      add\n      swap3\n        /* \"#utility.yul\":2796:3222   */\n      swap2\n      pop\n      pop\n      jump\t// out\n        /* \"#utility.yul\":3227:3409   */\n    tag_95:\n        /* \"#utility.yul\":3356:3375   */\n      swap1\n      dup2\n      mstore\n        /* \"#utility.yul\":3400:3402   */\n      0x20\n        /* \"#utility.yul\":3391:3403   */\n      add\n      swap1\n        /* \"#utility.yul\":3346:3409   */\n      jump\t// out\n        /* \"#utility.yul\":3414:3640   */\n    tag_77:\n      sub(shl(0xa0, 0x01), 0x01)\n        /* \"#utility.yul\":3578:3633   */\n      swap2\n      swap1\n      swap2\n      and\n        /* \"#utility.yul\":3560:3634   */\n      dup2\n      mstore\n        /* \"#utility.yul\":3548:3550   */\n      0x20\n        /* \"#utility.yul\":3533:3551   */\n      add\n      swap1\n        /* \"#utility.yul\":3515:3640   */\n      jump\t// out\n        /* \"#utility.yul\":3645:3942   */\n    tag_42:\n      sub(shl(0xa0, 0x01), 0x01)\n        /* \"#utility.yul\":3837:3892   */\n      swap3\n      swap1\n      swap3\n      and\n        /* \"#utility.yul\":3819:3893   */\n      dup3\n      mstore\n        /* \"#utility.yul\":3924:3926   */\n      0x20\n        /* \"#utility.yul\":3909:3927   */\n      dup3\n      add\n        /* \"#utility.yul\":3902:3936   */\n      mstore\n        /* \"#utility.yul\":3807:3809   */\n      0x40\n        /* \"#utility.yul\":3792:3810   */\n      add\n      swap1\n        /* \"#utility.yul\":3774:3942   */\n      jump\t// out\n        /* \"#utility.yul\":3947:4134   */\n    tag_37:\n        /* \"#utility.yul\":4112:4126   */\n      swap1\n      iszero\n        /* \"#utility.yul\":4105:4127   */\n      iszero\n        /* \"#utility.yul\":4087:4128   */\n      dup2\n      mstore\n        /* \"#utility.yul\":4075:4077   */\n      0x20\n        /* \"#utility.yul\":4060:4078   */\n      add\n      swap1\n        /* \"#utility.yul\":4042:4134   */\n      jump\t// out\n        /* \"#utility.yul\":4321:4543   */\n    tag_61:\n      0x00\n        /* \"#utility.yul\":4470:4472   */\n      0x20\n        /* \"#utility.yul\":4459:4468   */\n      dup3\n        /* \"#utility.yul\":4452:4473   */\n      mstore\n        /* \"#utility.yul\":4490:4537   */\n      tag_210\n        /* \"#utility.yul\":4533:4535   */\n      0x20\n        /* \"#utility.yul\":4522:4531   */\n      dup4\n        /* \"#utility.yul\":4518:4536   */\n      add\n        /* \"#utility.yul\":4510:4516   */\n      dup5\n        /* \"#utility.yul\":4490:4537   */\n      tag_226\n      jump\t// in\n        /* \"#utility.yul\":4548:5079   */\n    tag_57:\n      0x00\n        /* \"#utility.yul\":4801:4804   */\n      0x80\n        /* \"#utility.yul\":4790:4799   */\n      dup3\n        /* \"#utility.yul\":4783:4805   */\n      mstore\n        /* \"#utility.yul\":4828:4876   */\n      tag_240\n        /* \"#utility.yul\":4871:4874   */\n      0x80\n        /* \"#utility.yul\":4860:4869   */\n      dup4\n        /* \"#utility.yul\":4856:4875   */\n      add\n        /* \"#utility.yul\":4848:4854   */\n      dup8\n        /* \"#utility.yul\":4828:4876   */\n      tag_226\n      jump\t// in\n    tag_240:\n        /* \"#utility.yul\":4912:4918   */\n      dup6\n        /* \"#utility.yul\":4907:4909   */\n      0x20\n        /* \"#utility.yul\":4896:4905   */\n      dup5\n        /* \"#utility.yul\":4892:4910   */\n      add\n        /* \"#utility.yul\":4885:4919   */\n      mstore\n        /* \"#utility.yul\":4967:4976   */\n      dup3\n        /* \"#utility.yul\":4959:4965   */\n      dup2\n        /* \"#utility.yul\":4955:4977   */\n      sub\n        /* \"#utility.yul\":4950:4952   */\n      0x40\n        /* \"#utility.yul\":4939:4948   */\n      dup5\n        /* \"#utility.yul\":4935:4953   */\n      add\n        /* \"#utility.yul\":4928:4978   */\n      mstore\n        /* \"#utility.yul\":4995:5030   */\n      tag_241\n        /* \"#utility.yul\":5023:5029   */\n      dup2\n        /* \"#utility.yul\":5015:5021   */\n      dup7\n        /* \"#utility.yul\":4995:5030   */\n      tag_226\n      jump\t// in\n    tag_241:\n        /* \"#utility.yul\":4987:5030   */\n      swap2\n      pop\n      pop\n        /* \"#utility.yul\":5066:5072   */\n      dup3\n        /* \"#utility.yul\":5061:5063   */\n      0x60\n        /* \"#utility.yul\":5050:5059   */\n      dup4\n        /* \"#utility.yul\":5046:5064   */\n      add\n        /* \"#utility.yul\":5039:5073   */\n      mstore\n        /* \"#utility.yul\":4773:5079   */\n      swap6\n      swap5\n      pop\n      pop\n      pop\n      pop\n      pop\n      jump\t// out\n        /* \"#utility.yul\":5084:5422   */\n    tag_177:\n        /* \"#utility.yul\":5286:5288   */\n      0x20\n        /* \"#utility.yul\":5268:5289   */\n      dup1\n      dup3\n      mstore\n        /* \"#utility.yul\":5325:5327   */\n      0x0e\n        /* \"#utility.yul\":5305:5323   */\n      swap1\n      dup3\n      add\n        /* \"#utility.yul\":5298:5328   */\n      mstore\n        /* \"#utility.yul\":5364:5380   */\n      0x4e6f7420636f6d70617469626c65000000000000000000000000000000000000\n        /* \"#utility.yul\":5359:5361   */\n      0x40\n        /* \"#utility.yul\":5344:5362   */\n      dup3\n      add\n        /* \"#utility.yul\":5337:5381   */\n      mstore\n        /* \"#utility.yul\":5413:5415   */\n      0x60\n        /* \"#utility.yul\":5398:5416   */\n      add\n      swap1\n        /* \"#utility.yul\":5258:5422   */\n      jump\t// out\n        /* \"#utility.yul\":5427:5828   */\n    tag_98:\n        /* \"#utility.yul\":5629:5631   */\n      0x20\n        /* \"#utility.yul\":5611:5632   */\n      dup1\n      dup3\n      mstore\n        /* \"#utility.yul\":5668:5670   */\n      0x25\n        /* \"#utility.yul\":5648:5666   */\n      swap1\n      dup3\n      add\n        /* \"#utility.yul\":5641:5671   */\n      mstore\n        /* \"#utility.yul\":5707:5741   */\n      0x43616e6469646174652068617320616c7265616479206265656e207265676973\n        /* \"#utility.yul\":5702:5704   */\n      0x40\n        /* \"#utility.yul\":5687:5705   */\n      dup3\n      add\n        /* \"#utility.yul\":5680:5742   */\n      mstore\n        /* \"#utility.yul\":5778:5785   */\n      0x7465726564000000000000000000000000000000000000000000000000000000\n        /* \"#utility.yul\":5773:5775   */\n      0x60\n        /* \"#utility.yul\":5758:5776   */\n      dup3\n      add\n        /* \"#utility.yul\":5751:5786   */\n      mstore\n        /* \"#utility.yul\":5818:5821   */\n      0x80\n        /* \"#utility.yul\":5803:5822   */\n      add\n      swap1\n        /* \"#utility.yul\":5601:5828   */\n      jump\t// out\n        /* \"#utility.yul\":5833:6240   */\n    tag_145:\n        /* \"#utility.yul\":6035:6037   */\n      0x20\n        /* \"#utility.yul\":6017:6038   */\n      dup1\n      dup3\n      mstore\n        /* \"#utility.yul\":6074:6076   */\n      0x2b\n        /* \"#utility.yul\":6054:6072   */\n      swap1\n      dup3\n      add\n        /* \"#utility.yul\":6047:6077   */\n      mstore\n        /* \"#utility.yul\":6113:6147   */\n      0x54686572652063616e277420626520656c656374696f6e207769746820612073\n        /* \"#utility.yul\":6108:6110   */\n      0x40\n        /* \"#utility.yul\":6093:6111   */\n      dup3\n      add\n        /* \"#utility.yul\":6086:6148   */\n      mstore\n        /* \"#utility.yul\":6184:6197   */\n      0x696e676c65207061727479000000000000000000000000000000000000000000\n        /* \"#utility.yul\":6179:6181   */\n      0x60\n        /* \"#utility.yul\":6164:6182   */\n      dup3\n      add\n        /* \"#utility.yul\":6157:6198   */\n      mstore\n        /* \"#utility.yul\":6230:6233   */\n      0x80\n        /* \"#utility.yul\":6215:6234   */\n      add\n      swap1\n        /* \"#utility.yul\":6007:6240   */\n      jump\t// out\n        /* \"#utility.yul\":6245:6596   */\n    tag_142:\n        /* \"#utility.yul\":6447:6449   */\n      0x20\n        /* \"#utility.yul\":6429:6450   */\n      dup1\n      dup3\n      mstore\n        /* \"#utility.yul\":6486:6488   */\n      0x1b\n        /* \"#utility.yul\":6466:6484   */\n      swap1\n      dup3\n      add\n        /* \"#utility.yul\":6459:6489   */\n      mstore\n        /* \"#utility.yul\":6525:6554   */\n      0x43616e6469646174652068617320616c726561647920766f7465640000000000\n        /* \"#utility.yul\":6520:6522   */\n      0x40\n        /* \"#utility.yul\":6505:6523   */\n      dup3\n      add\n        /* \"#utility.yul\":6498:6555   */\n      mstore\n        /* \"#utility.yul\":6587:6589   */\n      0x60\n        /* \"#utility.yul\":6572:6590   */\n      add\n      swap1\n        /* \"#utility.yul\":6419:6596   */\n      jump\t// out\n        /* \"#utility.yul\":6601:6944   */\n    tag_109:\n        /* \"#utility.yul\":6803:6805   */\n      0x20\n        /* \"#utility.yul\":6785:6806   */\n      dup1\n      dup3\n      mstore\n        /* \"#utility.yul\":6842:6844   */\n      0x13\n        /* \"#utility.yul\":6822:6840   */\n      swap1\n      dup3\n      add\n        /* \"#utility.yul\":6815:6845   */\n      mstore\n        /* \"#utility.yul\":6881:6902   */\n      0x616c726561647920696e697469616c6973656400000000000000000000000000\n        /* \"#utility.yul\":6876:6878   */\n      0x40\n        /* \"#utility.yul\":6861:6879   */\n      dup3\n      add\n        /* \"#utility.yul\":6854:6903   */\n      mstore\n        /* \"#utility.yul\":6935:6937   */\n      0x60\n        /* \"#utility.yul\":6920:6938   */\n      add\n      swap1\n        /* \"#utility.yul\":6775:6944   */\n      jump\t// out\n        /* \"#utility.yul\":7131:7259   */\n    tag_105:\n      0x00\n        /* \"#utility.yul\":7202:7203   */\n      dup3\n        /* \"#utility.yul\":7198:7204   */\n      not\n        /* \"#utility.yul\":7195:7196   */\n      dup3\n        /* \"#utility.yul\":7192:7205   */\n      gt\n        /* \"#utility.yul\":7189:7191   */\n      iszero\n      tag_250\n      jumpi\n        /* \"#utility.yul\":7208:7226   */\n      tag_250\n      tag_251\n      jump\t// in\n    tag_250:\n      pop\n        /* \"#utility.yul\":7244:7253   */\n      add\n      swap1\n        /* \"#utility.yul\":7179:7259   */\n      jump\t// out\n        /* \"#utility.yul\":7264:7701   */\n    tag_112:\n        /* \"#utility.yul\":7349:7350   */\n      0x02\n        /* \"#utility.yul\":7339:7351   */\n      dup2\n      div\n        /* \"#utility.yul\":7396:7397   */\n      0x01\n        /* \"#utility.yul\":7386:7398   */\n      dup3\n      and\n      dup1\n        /* \"#utility.yul\":7407:7409   */\n      tag_253\n      jumpi\n        /* \"#utility.yul\":7461:7465   */\n      0x7f\n        /* \"#utility.yul\":7453:7459   */\n      dup3\n        /* \"#utility.yul\":7449:7466   */\n      and\n        /* \"#utility.yul\":7439:7466   */\n      swap2\n      pop\n        /* \"#utility.yul\":7407:7409   */\n    tag_253:\n        /* \"#utility.yul\":7514:7516   */\n      0x20\n        /* \"#utility.yul\":7506:7512   */\n      dup3\n        /* \"#utility.yul\":7503:7517   */\n      lt\n        /* \"#utility.yul\":7483:7501   */\n      dup2\n        /* \"#utility.yul\":7480:7518   */\n      eq\n        /* \"#utility.yul\":7477:7479   */\n      iszero\n      tag_254\n      jumpi\n      shl(0xe0, 0x4e487b71)\n        /* \"#utility.yul\":7548:7549   */\n      0x00\n        /* \"#utility.yul\":7541:7629   */\n      mstore\n        /* \"#utility.yul\":7652:7656   */\n      0x22\n        /* \"#utility.yul\":7649:7650   */\n      0x04\n        /* \"#utility.yul\":7642:7657   */\n      mstore\n        /* \"#utility.yul\":7680:7684   */\n      0x24\n        /* \"#utility.yul\":7677:7678   */\n      0x00\n        /* \"#utility.yul\":7670:7685   */\n      revert\n        /* \"#utility.yul\":7477:7479   */\n    tag_254:\n      pop\n        /* \"#utility.yul\":7319:7701   */\n      swap2\n      swap1\n      pop\n      jump\t// out\n        /* \"#utility.yul\":7706:7841   */\n    tag_128:\n      0x00\n      not(0x00)\n        /* \"#utility.yul\":7766:7783   */\n      dup3\n      eq\n        /* \"#utility.yul\":7763:7765   */\n      iszero\n      tag_257\n      jumpi\n        /* \"#utility.yul\":7786:7804   */\n      tag_257\n      tag_251\n      jump\t// in\n    tag_257:\n      pop\n        /* \"#utility.yul\":7833:7834   */\n      0x01\n        /* \"#utility.yul\":7822:7835   */\n      add\n      swap1\n        /* \"#utility.yul\":7753:7841   */\n      jump\t// out\n        /* \"#utility.yul\":7846:8030   */\n    tag_251:\n      shl(0xe0, 0x4e487b71)\n        /* \"#utility.yul\":7895:7896   */\n      0x00\n        /* \"#utility.yul\":7888:7976   */\n      mstore\n        /* \"#utility.yul\":7995:7999   */\n      0x11\n        /* \"#utility.yul\":7992:7993   */\n      0x04\n        /* \"#utility.yul\":7985:8000   */\n      mstore\n        /* \"#utility.yul\":8019:8023   */\n      0x24\n        /* \"#utility.yul\":8016:8017   */\n      0x00\n        /* \"#utility.yul\":8009:8024   */\n      revert\n        /* \"#utility.yul\":8035:8219   */\n    tag_204:\n      shl(0xe0, 0x4e487b71)\n        /* \"#utility.yul\":8084:8085   */\n      0x00\n        /* \"#utility.yul\":8077:8165   */\n      mstore\n        /* \"#utility.yul\":8184:8188   */\n      0x41\n        /* \"#utility.yul\":8181:8182   */\n      0x04\n        /* \"#utility.yul\":8174:8189   */\n      mstore\n        /* \"#utility.yul\":8208:8212   */\n      0x24\n        /* \"#utility.yul\":8205:8206   */\n      0x00\n        /* \"#utility.yul\":8198:8213   */\n      revert\n\n    auxdata: 0xa264697066735822122041ebc8f09f735ccd1af168fc427b7d8dad34253c6f5cf45ae7ee7b6762f5305b64736f6c63430008010033\n}\n",
				"bytecode": {
					"linkReferences": {},
					"object": "608060405234801561001057600080fd5b50610fbc806100206000396000f3fe608060405234801561001057600080fd5b506004361061011b5760003560e01c806365372147116100b25780638da5cb5b11610081578063c93346ab11610066578063c93346ab14610245578063dfbf53ae14610258578063e9d729ae146102605761011b565b80638da5cb5b1461021d578063b2fb8e37146102325761011b565b806365372147146101cf5780636b0eec1c146101e45780637a26dd31146101f757806387b390cf1461020a5761011b565b8063473be604116100ee578063473be604146101945780634d50ba3a1461019c57806352d1902d146101a45780636247e532146101ac5761011b565b80630500894d1461012057806313732d791461013e5780631b4613cb146101535780631e51c9ea14610173575b600080fd5b610128610273565b6040516101359190610cfc565b60405180910390f35b61015161014c366004610c47565b610279565b005b610166610161366004610c17565b6103a1565b6040516101359190610d32565b610186610181366004610c17565b6103b6565b604051610135929190610d19565b6101516103db565b610128610425565b61012861042b565b6101bf6101ba366004610c17565b61044f565b6040516101359493929190610d50565b6101d7610587565b6040516101359190610d3d565b6101666101f2366004610c17565b610698565b610151610205366004610be5565b6106ad565b610151610218366004610bc4565b6107ba565b6102256107ef565b6040516101359190610d05565b610166610240366004610c17565b6107fe565b610166610253366004610c17565b610843565b6101d7610886565b6101d761026e366004610c17565b610914565b60055481565b60008260405160200161028c9190610cfc565b60408051601f1981840301815291815281516020928301206000818152600490935291205490915060ff16156102dd5760405162461bcd60e51b81526004016102d490610dc4565b60405180910390fd5b600554600081815260026020908152604090912086516102ff92880190610a12565b50600081815260026020818152604090922060018101859055855161032c93919092019190860190610a12565b5060008281526004602090815260408220805460ff191660019081179091556007805491820181559092528451610388927fa66cc928b5edb82af9bd49922954155ab7b0942694bea4ce44661d9a8736c6880191860190610a12565b50600554610397906001610eec565b6005555050505050565b60036020526000908152604090205460ff1681565b600160208190526000918252604090912080549101546001600160a01b039091169082565b6000546001600160a01b0316156104045760405162461bcd60e51b81526004016102d490610eb5565b6000805473ffffffffffffffffffffffffffffffffffffffff191633179055565b60065481565b7fc5f16f0fcc639fa48a6947836d9850f504798523bf8c9a3a87d5876cf622bcf790565b60026020526000908152604090208054819061046a90610f04565b80601f016020809104026020016040519081016040528092919081815260200182805461049690610f04565b80156104e35780601f106104b8576101008083540402835291602001916104e3565b820191906000526020600020905b8154815290600101906020018083116104c657829003601f168201915b5050505050908060010154908060020180546104fe90610f04565b80601f016020809104026020016040519081016040528092919081815260200182805461052a90610f04565b80156105775780601f1061054c57610100808354040283529160200191610577565b820191906000526020600020905b81548152906001019060200180831161055a57829003601f168201915b5050505050908060030154905084565b606060008060005b6007548110156105dc576000818152600260205260409020600301548310156105ca5760008181526002602052604090206003015492509050805b806105d481610f3f565b91505061058f565b5060008181526002602052604090208054600891906105fa90610f04565b610605929190610a96565b506008805461061390610f04565b80601f016020809104026020016040519081016040528092919081815260200182805461063f90610f04565b801561068c5780601f106106615761010080835404028352916020019161068c565b820191906000526020600020905b81548152906001019060200180831161066f57829003601f168201915b50505050509250505090565b60046020526000908152604090205460ff1681565b6006546106bb906001610eec565b6006556040516000906106d2908490602001610cfc565b60408051601f1981840301815291815281516020928301206000818152600390935291205490915060ff161561071a5760405162461bcd60e51b81526004016102d490610e7e565b6007546002111561073d5760405162461bcd60e51b81526004016102d490610e21565b6000818152600160208181526040808420805473ffffffffffffffffffffffffffffffffffffffff19166001600160a01b038a16178155830186905585845260029091528220600301805491929091610797908490610eec565b90915550506000908152600360205260409020805460ff19166001179055505050565b6000546001600160a01b0316156107e35760405162461bcd60e51b81526004016102d490610eb5565b6107ec8161093f565b50565b6000546001600160a01b031681565b600080826040516020016108129190610cfc565b60408051601f1981840301815291815281516020928301206000908152600490925290205460ff169150505b919050565b600080826040516020016108579190610cfc565b60408051808303601f1901815291815281516020928301206000908152600390925290205460ff169392505050565b6008805461089390610f04565b80601f01602080910402602001604051908101604052809291908181526020018280546108bf90610f04565b801561090c5780601f106108e15761010080835404028352916020019161090c565b820191906000526020600020905b8154815290600101906020018083116108ef57829003601f168201915b505050505081565b6007818154811061092457600080fd5b90600052602060002001600091509050805461089390610f04565b806001600160a01b03166352d1902d6040518163ffffffff1660e01b815260040160206040518083038186803b15801561097857600080fd5b505afa15801561098c573d6000803e3d6000fd5b505050506040513d601f19601f820116820180604052508101906109b09190610c2f565b7fc5f16f0fcc639fa48a6947836d9850f504798523bf8c9a3a87d5876cf622bcf7146109ee5760405162461bcd60e51b81526004016102d490610d8d565b7fc5f16f0fcc639fa48a6947836d9850f504798523bf8c9a3a87d5876cf622bcf755565b828054610a1e90610f04565b90600052602060002090601f016020900481019282610a405760008555610a86565b82601f10610a5957805160ff1916838001178555610a86565b82800160010185558215610a86579182015b82811115610a86578251825591602001919060010190610a6b565b50610a92929150610b11565b5090565b828054610aa290610f04565b90600052602060002090601f016020900481019282610ac45760008555610a86565b82601f10610ad55780548555610a86565b82800160010185558215610a8657600052602060002091601f016020900482015b82811115610a86578254825591600101919060010190610af6565b5b80821115610a925760008155600101610b12565b80356001600160a01b038116811461083e57600080fd5b600082601f830112610b4d578081fd5b813567ffffffffffffffff80821115610b6857610b68610f70565b604051601f8301601f19908116603f01168101908282118183101715610b9057610b90610f70565b81604052838152866020858801011115610ba8578485fd5b8360208701602083013792830160200193909352509392505050565b600060208284031215610bd5578081fd5b610bde82610b26565b9392505050565b600080600060608486031215610bf9578182fd5b610c0284610b26565b95602085013595506040909401359392505050565b600060208284031215610c28578081fd5b5035919050565b600060208284031215610c40578081fd5b5051919050565b600080600060608486031215610c5b578283fd5b833567ffffffffffffffff80821115610c72578485fd5b610c7e87838801610b3d565b9450602086013593506040860135915080821115610c9a578283fd5b50610ca786828701610b3d565b9150509250925092565b60008151808452815b81811015610cd657602081850181015186830182015201610cba565b81811115610ce75782602083870101525b50601f01601f19169290920160200192915050565b90815260200190565b6001600160a01b0391909116815260200190565b6001600160a01b03929092168252602082015260400190565b901515815260200190565b600060208252610bde6020830184610cb1565b600060808252610d636080830187610cb1565b8560208401528281036040840152610d7b8186610cb1565b91505082606083015295945050505050565b6020808252600e908201527f4e6f7420636f6d70617469626c65000000000000000000000000000000000000604082015260600190565b60208082526025908201527f43616e6469646174652068617320616c7265616479206265656e20726567697360408201527f7465726564000000000000000000000000000000000000000000000000000000606082015260800190565b6020808252602b908201527f54686572652063616e277420626520656c656374696f6e20776974682061207360408201527f696e676c65207061727479000000000000000000000000000000000000000000606082015260800190565b6020808252601b908201527f43616e6469646174652068617320616c726561647920766f7465640000000000604082015260600190565b60208082526013908201527f616c726561647920696e697469616c6973656400000000000000000000000000604082015260600190565b60008219821115610eff57610eff610f5a565b500190565b600281046001821680610f1857607f821691505b60208210811415610f3957634e487b7160e01b600052602260045260246000fd5b50919050565b6000600019821415610f5357610f53610f5a565b5060010190565b634e487b7160e01b600052601160045260246000fd5b634e487b7160e01b600052604160045260246000fdfea264697066735822122041ebc8f09f735ccd1af168fc427b7d8dad34253c6f5cf45ae7ee7b6762f5305b64736f6c63430008010033",
					"opcodes": "PUSH1 0x80 PUSH1 0x40 MSTORE CALLVALUE DUP1 ISZERO PUSH2 0x10 JUMPI PUSH1 0x0 DUP1 REVERT JUMPDEST POP PUSH2 0xFBC DUP1 PUSH2 0x20 PUSH1 0x0 CODECOPY PUSH1 0x0 RETURN INVALID PUSH1 0x80 PUSH1 0x40 MSTORE CALLVALUE DUP1 ISZERO PUSH2 0x10 JUMPI PUSH1 0x0 DUP1 REVERT JUMPDEST POP PUSH1 0x4 CALLDATASIZE LT PUSH2 0x11B JUMPI PUSH1 0x0 CALLDATALOAD PUSH1 0xE0 SHR DUP1 PUSH4 0x65372147 GT PUSH2 0xB2 JUMPI DUP1 PUSH4 0x8DA5CB5B GT PUSH2 0x81 JUMPI DUP1 PUSH4 0xC93346AB GT PUSH2 0x66 JUMPI DUP1 PUSH4 0xC93346AB EQ PUSH2 0x245 JUMPI DUP1 PUSH4 0xDFBF53AE EQ PUSH2 0x258 JUMPI DUP1 PUSH4 0xE9D729AE EQ PUSH2 0x260 JUMPI PUSH2 0x11B JUMP JUMPDEST DUP1 PUSH4 0x8DA5CB5B EQ PUSH2 0x21D JUMPI DUP1 PUSH4 0xB2FB8E37 EQ PUSH2 0x232 JUMPI PUSH2 0x11B JUMP JUMPDEST DUP1 PUSH4 0x65372147 EQ PUSH2 0x1CF JUMPI DUP1 PUSH4 0x6B0EEC1C EQ PUSH2 0x1E4 JUMPI DUP1 PUSH4 0x7A26DD31 EQ PUSH2 0x1F7 JUMPI DUP1 PUSH4 0x87B390CF EQ PUSH2 0x20A JUMPI PUSH2 0x11B JUMP JUMPDEST DUP1 PUSH4 0x473BE604 GT PUSH2 0xEE JUMPI DUP1 PUSH4 0x473BE604 EQ PUSH2 0x194 JUMPI DUP1 PUSH4 0x4D50BA3A EQ PUSH2 0x19C JUMPI DUP1 PUSH4 0x52D1902D EQ PUSH2 0x1A4 JUMPI DUP1 PUSH4 0x6247E532 EQ PUSH2 0x1AC JUMPI PUSH2 0x11B JUMP JUMPDEST DUP1 PUSH4 0x500894D EQ PUSH2 0x120 JUMPI DUP1 PUSH4 0x13732D79 EQ PUSH2 0x13E JUMPI DUP1 PUSH4 0x1B4613CB EQ PUSH2 0x153 JUMPI DUP1 PUSH4 0x1E51C9EA EQ PUSH2 0x173 JUMPI JUMPDEST PUSH1 0x0 DUP1 REVERT JUMPDEST PUSH2 0x128 PUSH2 0x273 JUMP JUMPDEST PUSH1 0x40 MLOAD PUSH2 0x135 SWAP2 SWAP1 PUSH2 0xCFC JUMP JUMPDEST PUSH1 0x40 MLOAD DUP1 SWAP2 SUB SWAP1 RETURN JUMPDEST PUSH2 0x151 PUSH2 0x14C CALLDATASIZE PUSH1 0x4 PUSH2 0xC47 JUMP JUMPDEST PUSH2 0x279 JUMP JUMPDEST STOP JUMPDEST PUSH2 0x166 PUSH2 0x161 CALLDATASIZE PUSH1 0x4 PUSH2 0xC17 JUMP JUMPDEST PUSH2 0x3A1 JUMP JUMPDEST PUSH1 0x40 MLOAD PUSH2 0x135 SWAP2 SWAP1 PUSH2 0xD32 JUMP JUMPDEST PUSH2 0x186 PUSH2 0x181 CALLDATASIZE PUSH1 0x4 PUSH2 0xC17 JUMP JUMPDEST PUSH2 0x3B6 JUMP JUMPDEST PUSH1 0x40 MLOAD PUSH2 0x135 SWAP3 SWAP2 SWAP1 PUSH2 0xD19 JUMP JUMPDEST PUSH2 0x151 PUSH2 0x3DB JUMP JUMPDEST PUSH2 0x128 PUSH2 0x425 JUMP JUMPDEST PUSH2 0x128 PUSH2 0x42B JUMP JUMPDEST PUSH2 0x1BF PUSH2 0x1BA CALLDATASIZE PUSH1 0x4 PUSH2 0xC17 JUMP JUMPDEST PUSH2 0x44F JUMP JUMPDEST PUSH1 0x40 MLOAD PUSH2 0x135 SWAP5 SWAP4 SWAP3 SWAP2 SWAP1 PUSH2 0xD50 JUMP JUMPDEST PUSH2 0x1D7 PUSH2 0x587 JUMP JUMPDEST PUSH1 0x40 MLOAD PUSH2 0x135 SWAP2 SWAP1 PUSH2 0xD3D JUMP JUMPDEST PUSH2 0x166 PUSH2 0x1F2 CALLDATASIZE PUSH1 0x4 PUSH2 0xC17 JUMP JUMPDEST PUSH2 0x698 JUMP JUMPDEST PUSH2 0x151 PUSH2 0x205 CALLDATASIZE PUSH1 0x4 PUSH2 0xBE5 JUMP JUMPDEST PUSH2 0x6AD JUMP JUMPDEST PUSH2 0x151 PUSH2 0x218 CALLDATASIZE PUSH1 0x4 PUSH2 0xBC4 JUMP JUMPDEST PUSH2 0x7BA JUMP JUMPDEST PUSH2 0x225 PUSH2 0x7EF JUMP JUMPDEST PUSH1 0x40 MLOAD PUSH2 0x135 SWAP2 SWAP1 PUSH2 0xD05 JUMP JUMPDEST PUSH2 0x166 PUSH2 0x240 CALLDATASIZE PUSH1 0x4 PUSH2 0xC17 JUMP JUMPDEST PUSH2 0x7FE JUMP JUMPDEST PUSH2 0x166 PUSH2 0x253 CALLDATASIZE PUSH1 0x4 PUSH2 0xC17 JUMP JUMPDEST PUSH2 0x843 JUMP JUMPDEST PUSH2 0x1D7 PUSH2 0x886 JUMP JUMPDEST PUSH2 0x1D7 PUSH2 0x26E CALLDATASIZE PUSH1 0x4 PUSH2 0xC17 JUMP JUMPDEST PUSH2 0x914 JUMP JUMPDEST PUSH1 0x5 SLOAD DUP2 JUMP JUMPDEST PUSH1 0x0 DUP3 PUSH1 0x40 MLOAD PUSH1 0x20 ADD PUSH2 0x28C SWAP2 SWAP1 PUSH2 0xCFC JUMP JUMPDEST PUSH1 0x40 DUP1 MLOAD PUSH1 0x1F NOT DUP2 DUP5 SUB ADD DUP2 MSTORE SWAP2 DUP2 MSTORE DUP2 MLOAD PUSH1 0x20 SWAP3 DUP4 ADD KECCAK256 PUSH1 0x0 DUP2 DUP2 MSTORE PUSH1 0x4 SWAP1 SWAP4 MSTORE SWAP2 KECCAK256 SLOAD SWAP1 SWAP2 POP PUSH1 0xFF AND ISZERO PUSH2 0x2DD JUMPI PUSH1 0x40 MLOAD PUSH3 0x461BCD PUSH1 0xE5 SHL DUP2 MSTORE PUSH1 0x4 ADD PUSH2 0x2D4 SWAP1 PUSH2 0xDC4 JUMP JUMPDEST PUSH1 0x40 MLOAD DUP1 SWAP2 SUB SWAP1 REVERT JUMPDEST PUSH1 0x5 SLOAD PUSH1 0x0 DUP2 DUP2 MSTORE PUSH1 0x2 PUSH1 0x20 SWAP1 DUP2 MSTORE PUSH1 0x40 SWAP1 SWAP2 KECCAK256 DUP7 MLOAD PUSH2 0x2FF SWAP3 DUP9 ADD SWAP1 PUSH2 0xA12 JUMP JUMPDEST POP PUSH1 0x0 DUP2 DUP2 MSTORE PUSH1 0x2 PUSH1 0x20 DUP2 DUP2 MSTORE PUSH1 0x40 SWAP1 SWAP3 KECCAK256 PUSH1 0x1 DUP2 ADD DUP6 SWAP1 SSTORE DUP6 MLOAD PUSH2 0x32C SWAP4 SWAP2 SWAP1 SWAP3 ADD SWAP2 SWAP1 DUP7 ADD SWAP1 PUSH2 0xA12 JUMP JUMPDEST POP PUSH1 0x0 DUP3 DUP2 MSTORE PUSH1 0x4 PUSH1 0x20 SWAP1 DUP2 MSTORE PUSH1 0x40 DUP3 KECCAK256 DUP1 SLOAD PUSH1 0xFF NOT AND PUSH1 0x1 SWAP1 DUP2 OR SWAP1 SWAP2 SSTORE PUSH1 0x7 DUP1 SLOAD SWAP2 DUP3 ADD DUP2 SSTORE SWAP1 SWAP3 MSTORE DUP5 MLOAD PUSH2 0x388 SWAP3 PUSH32 0xA66CC928B5EDB82AF9BD49922954155AB7B0942694BEA4CE44661D9A8736C688 ADD SWAP2 DUP7 ADD SWAP1 PUSH2 0xA12 JUMP JUMPDEST POP PUSH1 0x5 SLOAD PUSH2 0x397 SWAP1 PUSH1 0x1 PUSH2 0xEEC JUMP JUMPDEST PUSH1 0x5 SSTORE POP POP POP POP POP JUMP JUMPDEST PUSH1 0x3 PUSH1 0x20 MSTORE PUSH1 0x0 SWAP1 DUP2 MSTORE PUSH1 0x40 SWAP1 KECCAK256 SLOAD PUSH1 0xFF AND DUP2 JUMP JUMPDEST PUSH1 0x1 PUSH1 0x20 DUP2 SWAP1 MSTORE PUSH1 0x0 SWAP2 DUP3 MSTORE PUSH1 0x40 SWAP1 SWAP2 KECCAK256 DUP1 SLOAD SWAP2 ADD SLOAD PUSH1 0x1 PUSH1 0x1 PUSH1 0xA0 SHL SUB SWAP1 SWAP2 AND SWAP1 DUP3 JUMP JUMPDEST PUSH1 0x0 SLOAD PUSH1 0x1 PUSH1 0x1 PUSH1 0xA0 SHL SUB AND ISZERO PUSH2 0x404 JUMPI PUSH1 0x40 MLOAD PUSH3 0x461BCD PUSH1 0xE5 SHL DUP2 MSTORE PUSH1 0x4 ADD PUSH2 0x2D4 SWAP1 PUSH2 0xEB5 JUMP JUMPDEST PUSH1 0x0 DUP1 SLOAD PUSH20 0xFFFFFFFFFFFFFFFFFFFFFFFFFFFFFFFFFFFFFFFF NOT AND CALLER OR SWAP1 SSTORE JUMP JUMPDEST PUSH1 0x6 SLOAD DUP2 JUMP JUMPDEST PUSH32 0xC5F16F0FCC639FA48A6947836D9850F504798523BF8C9A3A87D5876CF622BCF7 SWAP1 JUMP JUMPDEST PUSH1 0x2 PUSH1 0x20 MSTORE PUSH1 0x0 SWAP1 DUP2 MSTORE PUSH1 0x40 SWAP1 KECCAK256 DUP1 SLOAD DUP2 SWAP1 PUSH2 0x46A SWAP1 PUSH2 0xF04 JUMP JUMPDEST DUP1 PUSH1 0x1F ADD PUSH1 0x20 DUP1 SWAP2 DIV MUL PUSH1 0x20 ADD PUSH1 0x40 MLOAD SWAP1 DUP2 ADD PUSH1 0x40 MSTORE DUP1 SWAP3 SWAP2 SWAP1 DUP2 DUP2 MSTORE PUSH1 0x20 ADD DUP3 DUP1 SLOAD PUSH2 0x496 SWAP1 PUSH2 0xF04 JUMP JUMPDEST DUP1 ISZERO PUSH2 0x4E3 JUMPI DUP1 PUSH1 0x1F LT PUSH2 0x4B8 JUMPI PUSH2 0x100 DUP1 DUP4 SLOAD DIV MUL DUP4 MSTORE SWAP2 PUSH1 0x20 ADD SWAP2 PUSH2 0x4E3 JUMP JUMPDEST DUP3 ADD SWAP2 SWAP1 PUSH1 0x0 MSTORE PUSH1 0x20 PUSH1 0x0 KECCAK256 SWAP1 JUMPDEST DUP2 SLOAD DUP2 MSTORE SWAP1 PUSH1 0x1 ADD SWAP1 PUSH1 0x20 ADD DUP1 DUP4 GT PUSH2 0x4C6 JUMPI DUP3 SWAP1 SUB PUSH1 0x1F AND DUP3 ADD SWAP2 JUMPDEST POP POP POP POP POP SWAP1 DUP1 PUSH1 0x1 ADD SLOAD SWAP1 DUP1 PUSH1 0x2 ADD DUP1 SLOAD PUSH2 0x4FE SWAP1 PUSH2 0xF04 JUMP JUMPDEST DUP1 PUSH1 0x1F ADD PUSH1 0x20 DUP1 SWAP2 DIV MUL PUSH1 0x20 ADD PUSH1 0x40 MLOAD SWAP1 DUP2 ADD PUSH1 0x40 MSTORE DUP1 SWAP3 SWAP2 SWAP1 DUP2 DUP2 MSTORE PUSH1 0x20 ADD DUP3 DUP1 SLOAD PUSH2 0x52A SWAP1 PUSH2 0xF04 JUMP JUMPDEST DUP1 ISZERO PUSH2 0x577 JUMPI DUP1 PUSH1 0x1F LT PUSH2 0x54C JUMPI PUSH2 0x100 DUP1 DUP4 SLOAD DIV MUL DUP4 MSTORE SWAP2 PUSH1 0x20 ADD SWAP2 PUSH2 0x577 JUMP JUMPDEST DUP3 ADD SWAP2 SWAP1 PUSH1 0x0 MSTORE PUSH1 0x20 PUSH1 0x0 KECCAK256 SWAP1 JUMPDEST DUP2 SLOAD DUP2 MSTORE SWAP1 PUSH1 0x1 ADD SWAP1 PUSH1 0x20 ADD DUP1 DUP4 GT PUSH2 0x55A JUMPI DUP3 SWAP1 SUB PUSH1 0x1F AND DUP3 ADD SWAP2 JUMPDEST POP POP POP POP POP SWAP1 DUP1 PUSH1 0x3 ADD SLOAD SWAP1 POP DUP5 JUMP JUMPDEST PUSH1 0x60 PUSH1 0x0 DUP1 PUSH1 0x0 JUMPDEST PUSH1 0x7 SLOAD DUP2 LT ISZERO PUSH2 0x5DC JUMPI PUSH1 0x0 DUP2 DUP2 MSTORE PUSH1 0x2 PUSH1 0x20 MSTORE PUSH1 0x40 SWAP1 KECCAK256 PUSH1 0x3 ADD SLOAD DUP4 LT ISZERO PUSH2 0x5CA JUMPI PUSH1 0x0 DUP2 DUP2 MSTORE PUSH1 0x2 PUSH1 0x20 MSTORE PUSH1 0x40 SWAP1 KECCAK256 PUSH1 0x3 ADD SLOAD SWAP3 POP SWAP1 POP DUP1 JUMPDEST DUP1 PUSH2 0x5D4 DUP2 PUSH2 0xF3F JUMP JUMPDEST SWAP2 POP POP PUSH2 0x58F JUMP JUMPDEST POP PUSH1 0x0 DUP2 DUP2 MSTORE PUSH1 0x2 PUSH1 0x20 MSTORE PUSH1 0x40 SWAP1 KECCAK256 DUP1 SLOAD PUSH1 0x8 SWAP2 SWAP1 PUSH2 0x5FA SWAP1 PUSH2 0xF04 JUMP JUMPDEST PUSH2 0x605 SWAP3 SWAP2 SWAP1 PUSH2 0xA96 JUMP JUMPDEST POP PUSH1 0x8 DUP1 SLOAD PUSH2 0x613 SWAP1 PUSH2 0xF04 JUMP JUMPDEST DUP1 PUSH1 0x1F ADD PUSH1 0x20 DUP1 SWAP2 DIV MUL PUSH1 0x20 ADD PUSH1 0x40 MLOAD SWAP1 DUP2 ADD PUSH1 0x40 MSTORE DUP1 SWAP3 SWAP2 SWAP1 DUP2 DUP2 MSTORE PUSH1 0x20 ADD DUP3 DUP1 SLOAD PUSH2 0x63F SWAP1 PUSH2 0xF04 JUMP JUMPDEST DUP1 ISZERO PUSH2 0x68C JUMPI DUP1 PUSH1 0x1F LT PUSH2 0x661 JUMPI PUSH2 0x100 DUP1 DUP4 SLOAD DIV MUL DUP4 MSTORE SWAP2 PUSH1 0x20 ADD SWAP2 PUSH2 0x68C JUMP JUMPDEST DUP3 ADD SWAP2 SWAP1 PUSH1 0x0 MSTORE PUSH1 0x20 PUSH1 0x0 KECCAK256 SWAP1 JUMPDEST DUP2 SLOAD DUP2 MSTORE SWAP1 PUSH1 0x1 ADD SWAP1 PUSH1 0x20 ADD DUP1 DUP4 GT PUSH2 0x66F JUMPI DUP3 SWAP1 SUB PUSH1 0x1F AND DUP3 ADD SWAP2 JUMPDEST POP POP POP POP POP SWAP3 POP POP POP SWAP1 JUMP JUMPDEST PUSH1 0x4 PUSH1 0x20 MSTORE PUSH1 0x0 SWAP1 DUP2 MSTORE PUSH1 0x40 SWAP1 KECCAK256 SLOAD PUSH1 0xFF AND DUP2 JUMP JUMPDEST PUSH1 0x6 SLOAD PUSH2 0x6BB SWAP1 PUSH1 0x1 PUSH2 0xEEC JUMP JUMPDEST PUSH1 0x6 SSTORE PUSH1 0x40 MLOAD PUSH1 0x0 SWAP1 PUSH2 0x6D2 SWAP1 DUP5 SWAP1 PUSH1 0x20 ADD PUSH2 0xCFC JUMP JUMPDEST PUSH1 0x40 DUP1 MLOAD PUSH1 0x1F NOT DUP2 DUP5 SUB ADD DUP2 MSTORE SWAP2 DUP2 MSTORE DUP2 MLOAD PUSH1 0x20 SWAP3 DUP4 ADD KECCAK256 PUSH1 0x0 DUP2 DUP2 MSTORE PUSH1 0x3 SWAP1 SWAP4 MSTORE SWAP2 KECCAK256 SLOAD SWAP1 SWAP2 POP PUSH1 0xFF AND ISZERO PUSH2 0x71A JUMPI PUSH1 0x40 MLOAD PUSH3 0x461BCD PUSH1 0xE5 SHL DUP2 MSTORE PUSH1 0x4 ADD PUSH2 0x2D4 SWAP1 PUSH2 0xE7E JUMP JUMPDEST PUSH1 0x7 SLOAD PUSH1 0x2 GT ISZERO PUSH2 0x73D JUMPI PUSH1 0x40 MLOAD PUSH3 0x461BCD PUSH1 0xE5 SHL DUP2 MSTORE PUSH1 0x4 ADD PUSH2 0x2D4 SWAP1 PUSH2 0xE21 JUMP JUMPDEST PUSH1 0x0 DUP2 DUP2 MSTORE PUSH1 0x1 PUSH1 0x20 DUP2 DUP2 MSTORE PUSH1 0x40 DUP1 DUP5 KECCAK256 DUP1 SLOAD PUSH20 0xFFFFFFFFFFFFFFFFFFFFFFFFFFFFFFFFFFFFFFFF NOT AND PUSH1 0x1 PUSH1 0x1 PUSH1 0xA0 SHL SUB DUP11 AND OR DUP2 SSTORE DUP4 ADD DUP7 SWAP1 SSTORE DUP6 DUP5 MSTORE PUSH1 0x2 SWAP1 SWAP2 MSTORE DUP3 KECCAK256 PUSH1 0x3 ADD DUP1 SLOAD SWAP2 SWAP3 SWAP1 SWAP2 PUSH2 0x797 SWAP1 DUP5 SWAP1 PUSH2 0xEEC JUMP JUMPDEST SWAP1 SWAP2 SSTORE POP POP PUSH1 0x0 SWAP1 DUP2 MSTORE PUSH1 0x3 PUSH1 0x20 MSTORE PUSH1 0x40 SWAP1 KECCAK256 DUP1 SLOAD PUSH1 0xFF NOT AND PUSH1 0x1 OR SWAP1 SSTORE POP POP POP JUMP JUMPDEST PUSH1 0x0 SLOAD PUSH1 0x1 PUSH1 0x1 PUSH1 0xA0 SHL SUB AND ISZERO PUSH2 0x7E3 JUMPI PUSH1 0x40 MLOAD PUSH3 0x461BCD PUSH1 0xE5 SHL DUP2 MSTORE PUSH1 0x4 ADD PUSH2 0x2D4 SWAP1 PUSH2 0xEB5 JUMP JUMPDEST PUSH2 0x7EC DUP2 PUSH2 0x93F JUMP JUMPDEST POP JUMP JUMPDEST PUSH1 0x0 SLOAD PUSH1 0x1 PUSH1 0x1 PUSH1 0xA0 SHL SUB AND DUP2 JUMP JUMPDEST PUSH1 0x0 DUP1 DUP3 PUSH1 0x40 MLOAD PUSH1 0x20 ADD PUSH2 0x812 SWAP2 SWAP1 PUSH2 0xCFC JUMP JUMPDEST PUSH1 0x40 DUP1 MLOAD PUSH1 0x1F NOT DUP2 DUP5 SUB ADD DUP2 MSTORE SWAP2 DUP2 MSTORE DUP2 MLOAD PUSH1 0x20 SWAP3 DUP4 ADD KECCAK256 PUSH1 0x0 SWAP1 DUP2 MSTORE PUSH1 0x4 SWAP1 SWAP3 MSTORE SWAP1 KECCAK256 SLOAD PUSH1 0xFF AND SWAP2 POP POP JUMPDEST SWAP2 SWAP1 POP JUMP JUMPDEST PUSH1 0x0 DUP1 DUP3 PUSH1 0x40 MLOAD PUSH1 0x20 ADD PUSH2 0x857 SWAP2 SWAP1 PUSH2 0xCFC JUMP JUMPDEST PUSH1 0x40 DUP1 MLOAD DUP1 DUP4 SUB PUSH1 0x1F NOT ADD DUP2 MSTORE SWAP2 DUP2 MSTORE DUP2 MLOAD PUSH1 0x20 SWAP3 DUP4 ADD KECCAK256 PUSH1 0x0 SWAP1 DUP2 MSTORE PUSH1 0x3 SWAP1 SWAP3 MSTORE SWAP1 KECCAK256 SLOAD PUSH1 0xFF AND SWAP4 SWAP3 POP POP POP JUMP JUMPDEST PUSH1 0x8 DUP1 SLOAD PUSH2 0x893 SWAP1 PUSH2 0xF04 JUMP JUMPDEST DUP1 PUSH1 0x1F ADD PUSH1 0x20 DUP1 SWAP2 DIV MUL PUSH1 0x20 ADD PUSH1 0x40 MLOAD SWAP1 DUP2 ADD PUSH1 0x40 MSTORE DUP1 SWAP3 SWAP2 SWAP1 DUP2 DUP2 MSTORE PUSH1 0x20 ADD DUP3 DUP1 SLOAD PUSH2 0x8BF SWAP1 PUSH2 0xF04 JUMP JUMPDEST DUP1 ISZERO PUSH2 0x90C JUMPI DUP1 PUSH1 0x1F LT PUSH2 0x8E1 JUMPI PUSH2 0x100 DUP1 DUP4 SLOAD DIV MUL DUP4 MSTORE SWAP2 PUSH1 0x20 ADD SWAP2 PUSH2 0x90C JUMP JUMPDEST DUP3 ADD SWAP2 SWAP1 PUSH1 0x0 MSTORE PUSH1 0x20 PUSH1 0x0 KECCAK256 SWAP1 JUMPDEST DUP2 SLOAD DUP2 MSTORE SWAP1 PUSH1 0x1 ADD SWAP1 PUSH1 0x20 ADD DUP1 DUP4 GT PUSH2 0x8EF JUMPI DUP3 SWAP1 SUB PUSH1 0x1F AND DUP3 ADD SWAP2 JUMPDEST POP POP POP POP POP DUP2 JUMP JUMPDEST PUSH1 0x7 DUP2 DUP2 SLOAD DUP2 LT PUSH2 0x924 JUMPI PUSH1 0x0 DUP1 REVERT JUMPDEST SWAP1 PUSH1 0x0 MSTORE PUSH1 0x20 PUSH1 0x0 KECCAK256 ADD PUSH1 0x0 SWAP2 POP SWAP1 POP DUP1 SLOAD PUSH2 0x893 SWAP1 PUSH2 0xF04 JUMP JUMPDEST DUP1 PUSH1 0x1 PUSH1 0x1 PUSH1 0xA0 SHL SUB AND PUSH4 0x52D1902D PUSH1 0x40 MLOAD DUP2 PUSH4 0xFFFFFFFF AND PUSH1 0xE0 SHL DUP2 MSTORE PUSH1 0x4 ADD PUSH1 0x20 PUSH1 0x40 MLOAD DUP1 DUP4 SUB DUP2 DUP7 DUP1 EXTCODESIZE ISZERO DUP1 ISZERO PUSH2 0x978 JUMPI PUSH1 0x0 DUP1 REVERT JUMPDEST POP GAS STATICCALL ISZERO DUP1 ISZERO PUSH2 0x98C JUMPI RETURNDATASIZE PUSH1 0x0 DUP1 RETURNDATACOPY RETURNDATASIZE PUSH1 0x0 REVERT JUMPDEST POP POP POP POP PUSH1 0x40 MLOAD RETURNDATASIZE PUSH1 0x1F NOT PUSH1 0x1F DUP3 ADD AND DUP3 ADD DUP1 PUSH1 0x40 MSTORE POP DUP2 ADD SWAP1 PUSH2 0x9B0 SWAP2 SWAP1 PUSH2 0xC2F JUMP JUMPDEST PUSH32 0xC5F16F0FCC639FA48A6947836D9850F504798523BF8C9A3A87D5876CF622BCF7 EQ PUSH2 0x9EE JUMPI PUSH1 0x40 MLOAD PUSH3 0x461BCD PUSH1 0xE5 SHL DUP2 MSTORE PUSH1 0x4 ADD PUSH2 0x2D4 SWAP1 PUSH2 0xD8D JUMP JUMPDEST PUSH32 0xC5F16F0FCC639FA48A6947836D9850F504798523BF8C9A3A87D5876CF622BCF7 SSTORE JUMP JUMPDEST DUP3 DUP1 SLOAD PUSH2 0xA1E SWAP1 PUSH2 0xF04 JUMP JUMPDEST SWAP1 PUSH1 0x0 MSTORE PUSH1 0x20 PUSH1 0x0 KECCAK256 SWAP1 PUSH1 0x1F ADD PUSH1 0x20 SWAP1 DIV DUP2 ADD SWAP3 DUP3 PUSH2 0xA40 JUMPI PUSH1 0x0 DUP6 SSTORE PUSH2 0xA86 JUMP JUMPDEST DUP3 PUSH1 0x1F LT PUSH2 0xA59 JUMPI DUP1 MLOAD PUSH1 0xFF NOT AND DUP4 DUP1 ADD OR DUP6 SSTORE PUSH2 0xA86 JUMP JUMPDEST DUP3 DUP1 ADD PUSH1 0x1 ADD DUP6 SSTORE DUP3 ISZERO PUSH2 0xA86 JUMPI SWAP2 DUP3 ADD JUMPDEST DUP3 DUP2 GT ISZERO PUSH2 0xA86 JUMPI DUP3 MLOAD DUP3 SSTORE SWAP2 PUSH1 0x20 ADD SWAP2 SWAP1 PUSH1 0x1 ADD SWAP1 PUSH2 0xA6B JUMP JUMPDEST POP PUSH2 0xA92 SWAP3 SWAP2 POP PUSH2 0xB11 JUMP JUMPDEST POP SWAP1 JUMP JUMPDEST DUP3 DUP1 SLOAD PUSH2 0xAA2 SWAP1 PUSH2 0xF04 JUMP JUMPDEST SWAP1 PUSH1 0x0 MSTORE PUSH1 0x20 PUSH1 0x0 KECCAK256 SWAP1 PUSH1 0x1F ADD PUSH1 0x20 SWAP1 DIV DUP2 ADD SWAP3 DUP3 PUSH2 0xAC4 JUMPI PUSH1 0x0 DUP6 SSTORE PUSH2 0xA86 JUMP JUMPDEST DUP3 PUSH1 0x1F LT PUSH2 0xAD5 JUMPI DUP1 SLOAD DUP6 SSTORE PUSH2 0xA86 JUMP JUMPDEST DUP3 DUP1 ADD PUSH1 0x1 ADD DUP6 SSTORE DUP3 ISZERO PUSH2 0xA86 JUMPI PUSH1 0x0 MSTORE PUSH1 0x20 PUSH1 0x0 KECCAK256 SWAP2 PUSH1 0x1F ADD PUSH1 0x20 SWAP1 DIV DUP3 ADD JUMPDEST DUP3 DUP2 GT ISZERO PUSH2 0xA86 JUMPI DUP3 SLOAD DUP3 SSTORE SWAP2 PUSH1 0x1 ADD SWAP2 SWAP1 PUSH1 0x1 ADD SWAP1 PUSH2 0xAF6 JUMP JUMPDEST JUMPDEST DUP1 DUP3 GT ISZERO PUSH2 0xA92 JUMPI PUSH1 0x0 DUP2 SSTORE PUSH1 0x1 ADD PUSH2 0xB12 JUMP JUMPDEST DUP1 CALLDATALOAD PUSH1 0x1 PUSH1 0x1 PUSH1 0xA0 SHL SUB DUP2 AND DUP2 EQ PUSH2 0x83E JUMPI PUSH1 0x0 DUP1 REVERT JUMPDEST PUSH1 0x0 DUP3 PUSH1 0x1F DUP4 ADD SLT PUSH2 0xB4D JUMPI DUP1 DUP2 REVERT JUMPDEST DUP2 CALLDATALOAD PUSH8 0xFFFFFFFFFFFFFFFF DUP1 DUP3 GT ISZERO PUSH2 0xB68 JUMPI PUSH2 0xB68 PUSH2 0xF70 JUMP JUMPDEST PUSH1 0x40 MLOAD PUSH1 0x1F DUP4 ADD PUSH1 0x1F NOT SWAP1 DUP2 AND PUSH1 0x3F ADD AND DUP2 ADD SWAP1 DUP3 DUP3 GT DUP2 DUP4 LT OR ISZERO PUSH2 0xB90 JUMPI PUSH2 0xB90 PUSH2 0xF70 JUMP JUMPDEST DUP2 PUSH1 0x40 MSTORE DUP4 DUP2 MSTORE DUP7 PUSH1 0x20 DUP6 DUP9 ADD ADD GT ISZERO PUSH2 0xBA8 JUMPI DUP5 DUP6 REVERT JUMPDEST DUP4 PUSH1 0x20 DUP8 ADD PUSH1 0x20 DUP4 ADD CALLDATACOPY SWAP3 DUP4 ADD PUSH1 0x20 ADD SWAP4 SWAP1 SWAP4 MSTORE POP SWAP4 SWAP3 POP POP POP JUMP JUMPDEST PUSH1 0x0 PUSH1 0x20 DUP3 DUP5 SUB SLT ISZERO PUSH2 0xBD5 JUMPI DUP1 DUP2 REVERT JUMPDEST PUSH2 0xBDE DUP3 PUSH2 0xB26 JUMP JUMPDEST SWAP4 SWAP3 POP POP POP JUMP JUMPDEST PUSH1 0x0 DUP1 PUSH1 0x0 PUSH1 0x60 DUP5 DUP7 SUB SLT ISZERO PUSH2 0xBF9 JUMPI DUP2 DUP3 REVERT JUMPDEST PUSH2 0xC02 DUP5 PUSH2 0xB26 JUMP JUMPDEST SWAP6 PUSH1 0x20 DUP6 ADD CALLDATALOAD SWAP6 POP PUSH1 0x40 SWAP1 SWAP5 ADD CALLDATALOAD SWAP4 SWAP3 POP POP POP JUMP JUMPDEST PUSH1 0x0 PUSH1 0x20 DUP3 DUP5 SUB SLT ISZERO PUSH2 0xC28 JUMPI DUP1 DUP2 REVERT JUMPDEST POP CALLDATALOAD SWAP2 SWAP1 POP JUMP JUMPDEST PUSH1 0x0 PUSH1 0x20 DUP3 DUP5 SUB SLT ISZERO PUSH2 0xC40 JUMPI DUP1 DUP2 REVERT JUMPDEST POP MLOAD SWAP2 SWAP1 POP JUMP JUMPDEST PUSH1 0x0 DUP1 PUSH1 0x0 PUSH1 0x60 DUP5 DUP7 SUB SLT ISZERO PUSH2 0xC5B JUMPI DUP3 DUP4 REVERT JUMPDEST DUP4 CALLDATALOAD PUSH8 0xFFFFFFFFFFFFFFFF DUP1 DUP3 GT ISZERO PUSH2 0xC72 JUMPI DUP5 DUP6 REVERT JUMPDEST PUSH2 0xC7E DUP8 DUP4 DUP9 ADD PUSH2 0xB3D JUMP JUMPDEST SWAP5 POP PUSH1 0x20 DUP7 ADD CALLDATALOAD SWAP4 POP PUSH1 0x40 DUP7 ADD CALLDATALOAD SWAP2 POP DUP1 DUP3 GT ISZERO PUSH2 0xC9A JUMPI DUP3 DUP4 REVERT JUMPDEST POP PUSH2 0xCA7 DUP7 DUP3 DUP8 ADD PUSH2 0xB3D JUMP JUMPDEST SWAP2 POP POP SWAP3 POP SWAP3 POP SWAP3 JUMP JUMPDEST PUSH1 0x0 DUP2 MLOAD DUP1 DUP5 MSTORE DUP2 JUMPDEST DUP2 DUP2 LT ISZERO PUSH2 0xCD6 JUMPI PUSH1 0x20 DUP2 DUP6 ADD DUP2 ADD MLOAD DUP7 DUP4 ADD DUP3 ADD MSTORE ADD PUSH2 0xCBA JUMP JUMPDEST DUP2 DUP2 GT ISZERO PUSH2 0xCE7 JUMPI DUP3 PUSH1 0x20 DUP4 DUP8 ADD ADD MSTORE JUMPDEST POP PUSH1 0x1F ADD PUSH1 0x1F NOT AND SWAP3 SWAP1 SWAP3 ADD PUSH1 0x20 ADD SWAP3 SWAP2 POP POP JUMP JUMPDEST SWAP1 DUP2 MSTORE PUSH1 0x20 ADD SWAP1 JUMP JUMPDEST PUSH1 0x1 PUSH1 0x1 PUSH1 0xA0 SHL SUB SWAP2 SWAP1 SWAP2 AND DUP2 MSTORE PUSH1 0x20 ADD SWAP1 JUMP JUMPDEST PUSH1 0x1 PUSH1 0x1 PUSH1 0xA0 SHL SUB SWAP3 SWAP1 SWAP3 AND DUP3 MSTORE PUSH1 0x20 DUP3 ADD MSTORE PUSH1 0x40 ADD SWAP1 JUMP JUMPDEST SWAP1 ISZERO ISZERO DUP2 MSTORE PUSH1 0x20 ADD SWAP1 JUMP JUMPDEST PUSH1 0x0 PUSH1 0x20 DUP3 MSTORE PUSH2 0xBDE PUSH1 0x20 DUP4 ADD DUP5 PUSH2 0xCB1 JUMP JUMPDEST PUSH1 0x0 PUSH1 0x80 DUP3 MSTORE PUSH2 0xD63 PUSH1 0x80 DUP4 ADD DUP8 PUSH2 0xCB1 JUMP JUMPDEST DUP6 PUSH1 0x20 DUP5 ADD MSTORE DUP3 DUP2 SUB PUSH1 0x40 DUP5 ADD MSTORE PUSH2 0xD7B DUP2 DUP7 PUSH2 0xCB1 JUMP JUMPDEST SWAP2 POP POP DUP3 PUSH1 0x60 DUP4 ADD MSTORE SWAP6 SWAP5 POP POP POP POP POP JUMP JUMPDEST PUSH1 0x20 DUP1 DUP3 MSTORE PUSH1 0xE SWAP1 DUP3 ADD MSTORE PUSH32 0x4E6F7420636F6D70617469626C65000000000000000000000000000000000000 PUSH1 0x40 DUP3 ADD MSTORE PUSH1 0x60 ADD SWAP1 JUMP JUMPDEST PUSH1 0x20 DUP1 DUP3 MSTORE PUSH1 0x25 SWAP1 DUP3 ADD MSTORE PUSH32 0x43616E6469646174652068617320616C7265616479206265656E207265676973 PUSH1 0x40 DUP3 ADD MSTORE PUSH32 0x7465726564000000000000000000000000000000000000000000000000000000 PUSH1 0x60 DUP3 ADD MSTORE PUSH1 0x80 ADD SWAP1 JUMP JUMPDEST PUSH1 0x20 DUP1 DUP3 MSTORE PUSH1 0x2B SWAP1 DUP3 ADD MSTORE PUSH32 0x54686572652063616E277420626520656C656374696F6E207769746820612073 PUSH1 0x40 DUP3 ADD MSTORE PUSH32 0x696E676C65207061727479000000000000000000000000000000000000000000 PUSH1 0x60 DUP3 ADD MSTORE PUSH1 0x80 ADD SWAP1 JUMP JUMPDEST PUSH1 0x20 DUP1 DUP3 MSTORE PUSH1 0x1B SWAP1 DUP3 ADD MSTORE PUSH32 0x43616E6469646174652068617320616C726561647920766F7465640000000000 PUSH1 0x40 DUP3 ADD MSTORE PUSH1 0x60 ADD SWAP1 JUMP JUMPDEST PUSH1 0x20 DUP1 DUP3 MSTORE PUSH1 0x13 SWAP1 DUP3 ADD MSTORE PUSH32 0x616C726561647920696E697469616C6973656400000000000000000000000000 PUSH1 0x40 DUP3 ADD MSTORE PUSH1 0x60 ADD SWAP1 JUMP JUMPDEST PUSH1 0x0 DUP3 NOT DUP3 GT ISZERO PUSH2 0xEFF JUMPI PUSH2 0xEFF PUSH2 0xF5A JUMP JUMPDEST POP ADD SWAP1 JUMP JUMPDEST PUSH1 0x2 DUP2 DIV PUSH1 0x1 DUP3 AND DUP1 PUSH2 0xF18 JUMPI PUSH1 0x7F DUP3 AND SWAP2 POP JUMPDEST PUSH1 0x20 DUP3 LT DUP2 EQ ISZERO PUSH2 0xF39 JUMPI PUSH4 0x4E487B71 PUSH1 0xE0 SHL PUSH1 0x0 MSTORE PUSH1 0x22 PUSH1 0x4 MSTORE PUSH1 0x24 PUSH1 0x0 REVERT JUMPDEST POP SWAP2 SWAP1 POP JUMP JUMPDEST PUSH1 0x0 PUSH1 0x0 NOT DUP3 EQ ISZERO PUSH2 0xF53 JUMPI PUSH2 0xF53 PUSH2 0xF5A JUMP JUMPDEST POP PUSH1 0x1 ADD SWAP1 JUMP JUMPDEST PUSH4 0x4E487B71 PUSH1 0xE0 SHL PUSH1 0x0 MSTORE PUSH1 0x11 PUSH1 0x4 MSTORE PUSH1 0x24 PUSH1 0x0 REVERT JUMPDEST PUSH4 0x4E487B71 PUSH1 0xE0 SHL PUSH1 0x0 MSTORE PUSH1 0x41 PUSH1 0x4 MSTORE PUSH1 0x24 PUSH1 0x0 REVERT INVALID LOG2 PUSH5 0x6970667358 0x22 SLT KECCAK256 COINBASE 0xEB 0xC8 CREATE SWAP16 PUSH20 0x5CCD1AF168FC427B7D8DAD34253C6F5CF45AE7EE PUSH28 0x6762F5305B64736F6C63430008010033000000000000000000000000 "
				},
				"gasEstimates": {
					"creation": {
						"codeDepositCost": "805600",
						"executionCost": "838",
						"totalCost": "806438"
					},
					"external": {
						"addCandidateDetails(string,uint256,string)": "infinite",
						"addVoterDetails(address,uint256,uint256)": "infinite",
						"candidateDetails(uint256)": "infinite",
						"checkCandidateStatus(uint256)": "1434",
						"checkVoterStatus(uint256)": "1407",
						"constructor1()": "21828",
						"hasRegistered(bytes32)": "1228",
						"hasVoted(bytes32)": "1251",
						"listOfParties(uint256)": "infinite",
						"owner()": "1115",
						"partyCounter()": "1052",
						"proxiableUUID()": "295",
						"result()": "infinite",
						"updatecode(address)": "infinite",
						"voterCounter()": "1073",
						"voterDetails(bytes32)": "2148",
						"winner()": "infinite"
					}
				},
				"methodIdentifiers": {
					"addCandidateDetails(string,uint256,string)": "13732d79",
					"addVoterDetails(address,uint256,uint256)": "7a26dd31",
					"candidateDetails(uint256)": "6247e532",
					"checkCandidateStatus(uint256)": "b2fb8e37",
					"checkVoterStatus(uint256)": "c93346ab",
					"constructor1()": "473be604",
					"hasRegistered(bytes32)": "6b0eec1c",
					"hasVoted(bytes32)": "1b4613cb",
					"listOfParties(uint256)": "e9d729ae",
					"owner()": "8da5cb5b",
					"partyCounter()": "0500894d",
					"proxiableUUID()": "52d1902d",
					"result()": "65372147",
					"updatecode(address)": "87b390cf",
					"voterCounter()": "4d50ba3a",
					"voterDetails(bytes32)": "1e51c9ea",
					"winner()": "dfbf53ae"
				}
			},
			"storageLayout": {
				"storage": [
					{
						"astId": 62,
						"contract": "UUPS/Logic.sol:Logic",
						"label": "owner",
						"offset": 0,
						"slot": "0",
						"type": "t_address"
					},
					{
						"astId": 81,
						"contract": "UUPS/Logic.sol:Logic",
						"label": "voterDetails",
						"offset": 0,
						"slot": "1",
						"type": "t_mapping(t_bytes32,t_struct(VoterDetails)67_storage)"
					},
					{
						"astId": 86,
						"contract": "UUPS/Logic.sol:Logic",
						"label": "candidateDetails",
						"offset": 0,
						"slot": "2",
						"type": "t_mapping(t_uint256,t_struct(CandidateDetails)76_storage)"
					},
					{
						"astId": 90,
						"contract": "UUPS/Logic.sol:Logic",
						"label": "hasVoted",
						"offset": 0,
						"slot": "3",
						"type": "t_mapping(t_bytes32,t_bool)"
					},
					{
						"astId": 94,
						"contract": "UUPS/Logic.sol:Logic",
						"label": "hasRegistered",
						"offset": 0,
						"slot": "4",
						"type": "t_mapping(t_bytes32,t_bool)"
					},
					{
						"astId": 96,
						"contract": "UUPS/Logic.sol:Logic",
						"label": "partyCounter",
						"offset": 0,
						"slot": "5",
						"type": "t_uint256"
					},
					{
						"astId": 98,
						"contract": "UUPS/Logic.sol:Logic",
						"label": "voterCounter",
						"offset": 0,
						"slot": "6",
						"type": "t_uint256"
					},
					{
						"astId": 101,
						"contract": "UUPS/Logic.sol:Logic",
						"label": "listOfParties",
						"offset": 0,
						"slot": "7",
						"type": "t_array(t_string_storage)dyn_storage"
					},
					{
						"astId": 103,
						"contract": "UUPS/Logic.sol:Logic",
						"label": "winner",
						"offset": 0,
						"slot": "8",
						"type": "t_string_storage"
					}
				],
				"types": {
					"t_address": {
						"encoding": "inplace",
						"label": "address",
						"numberOfBytes": "20"
					},
					"t_array(t_string_storage)dyn_storage": {
						"base": "t_string_storage",
						"encoding": "dynamic_array",
						"label": "string[]",
						"numberOfBytes": "32"
					},
					"t_bool": {
						"encoding": "inplace",
						"label": "bool",
						"numberOfBytes": "1"
					},
					"t_bytes32": {
						"encoding": "inplace",
						"label": "bytes32",
						"numberOfBytes": "32"
					},
					"t_mapping(t_bytes32,t_bool)": {
						"encoding": "mapping",
						"key": "t_bytes32",
						"label": "mapping(bytes32 => bool)",
						"numberOfBytes": "32",
						"value": "t_bool"
					},
					"t_mapping(t_bytes32,t_struct(VoterDetails)67_storage)": {
						"encoding": "mapping",
						"key": "t_bytes32",
						"label": "mapping(bytes32 => struct Logic.VoterDetails)",
						"numberOfBytes": "32",
						"value": "t_struct(VoterDetails)67_storage"
					},
					"t_mapping(t_uint256,t_struct(CandidateDetails)76_storage)": {
						"encoding": "mapping",
						"key": "t_uint256",
						"label": "mapping(uint256 => struct Logic.CandidateDetails)",
						"numberOfBytes": "32",
						"value": "t_struct(CandidateDetails)76_storage"
					},
					"t_string_storage": {
						"encoding": "bytes",
						"label": "string",
						"numberOfBytes": "32"
					},
					"t_struct(CandidateDetails)76_storage": {
						"encoding": "inplace",
						"label": "struct Logic.CandidateDetails",
						"members": [
							{
								"astId": 69,
								"contract": "UUPS/Logic.sol:Logic",
								"label": "nameOfCandidate",
								"offset": 0,
								"slot": "0",
								"type": "t_string_storage"
							},
							{
								"astId": 71,
								"contract": "UUPS/Logic.sol:Logic",
								"label": "voterCardNo",
								"offset": 0,
								"slot": "1",
								"type": "t_bytes32"
							},
							{
								"astId": 73,
								"contract": "UUPS/Logic.sol:Logic",
								"label": "partyName",
								"offset": 0,
								"slot": "2",
								"type": "t_string_storage"
							},
							{
								"astId": 75,
								"contract": "UUPS/Logic.sol:Logic",
								"label": "totalVotes",
								"offset": 0,
								"slot": "3",
								"type": "t_uint256"
							}
						],
						"numberOfBytes": "128"
					},
					"t_struct(VoterDetails)67_storage": {
						"encoding": "inplace",
						"label": "struct Logic.VoterDetails",
						"members": [
							{
								"astId": 64,
								"contract": "UUPS/Logic.sol:Logic",
								"label": "voterAddress",
								"offset": 0,
								"slot": "0",
								"type": "t_address"
							},
							{
								"astId": 66,
								"contract": "UUPS/Logic.sol:Logic",
								"label": "partyNumber",
								"offset": 0,
								"slot": "1",
								"type": "t_uint256"
							}
						],
						"numberOfBytes": "64"
					},
					"t_uint256": {
						"encoding": "inplace",
						"label": "uint256",
						"numberOfBytes": "32"
					}
				}
			},
			"userdoc": {
				"kind": "user",
				"methods": {},
				"version": 1
			}
		}
	}
}