{
	"contracts/Eip1822/Eip1822LogicContract.sol": {
		"ProxyEip1822Contract": {
			"abi": [
				{
					"stateMutability": "payable",
					"type": "fallback"
				},
				{
					"inputs": [],
					"name": "implementation",
					"outputs": [
						{
							"internalType": "address",
							"name": "",
							"type": "address"
						}
					],
					"stateMutability": "view",
					"type": "function"
				},
				{
					"inputs": [
						{
							"internalType": "address",
							"name": "newImplementation",
							"type": "address"
						}
					],
					"name": "setImplementation",
					"outputs": [],
					"stateMutability": "nonpayable",
					"type": "function"
				},
				{
					"stateMutability": "payable",
					"type": "receive"
				}
			],
			"devdoc": {
				"kind": "dev",
				"methods": {},
				"version": 1
			},
			"evm": {
				"assembly": "    /* \"contracts/Eip1822/Eip1822LogicContract.sol\":3706:5059  contract ProxyEip1822Contract {... */\n  mstore(0x40, 0x80)\n  callvalue\n  dup1\n  iszero\n  tag_1\n  jumpi\n  0x00\n  dup1\n  revert\ntag_1:\n  pop\n  dataSize(sub_0)\n  dup1\n  dataOffset(sub_0)\n  0x00\n  codecopy\n  0x00\n  return\nstop\n\nsub_0: assembly {\n        /* \"contracts/Eip1822/Eip1822LogicContract.sol\":3706:5059  contract ProxyEip1822Contract {... */\n      mstore(0x40, 0x80)\n      jumpi(tag_1, lt(calldatasize, 0x04))\n      shr(0xe0, calldataload(0x00))\n      dup1\n      0x5c60da1b\n      eq\n      tag_3\n      jumpi\n      dup1\n      0xd784d426\n      eq\n      tag_4\n      jumpi\n      jump(tag_2)\n    tag_1:\n      jumpi(tag_2, calldatasize)\n      stop\n    tag_2:\n        /* \"contracts/Eip1822/Eip1822LogicContract.sol\":3874:3897  address _implementation */\n      0x00\n        /* \"contracts/Eip1822/Eip1822LogicContract.sol\":3900:3916  implementation() */\n      tag_9\n        /* \"contracts/Eip1822/Eip1822LogicContract.sol\":3797:3829  keccak256(\"IMPLEMENTATION_SLOT\") */\n      0xf603533e14e17222e047634a2b3457fe346d27e294cedf9d21d74e5feea4a046\n        /* \"contracts/Eip1822/Eip1822LogicContract.sol\":4763:4774  sload(slot) */\n      sload\n      swap1\n        /* \"contracts/Eip1822/Eip1822LogicContract.sol\":4567:4829  function implementation() public view returns(address) {... */\n      jump\n        /* \"contracts/Eip1822/Eip1822LogicContract.sol\":3900:3916  implementation() */\n    tag_9:\n        /* \"contracts/Eip1822/Eip1822LogicContract.sol\":3874:3916  address _implementation = implementation() */\n      swap1\n      pop\n        /* \"contracts/Eip1822/Eip1822LogicContract.sol\":3962:3963  0 */\n      0x00\n        /* \"contracts/Eip1822/Eip1822LogicContract.sol\":3934:3950  implementation() */\n      tag_11\n        /* \"contracts/Eip1822/Eip1822LogicContract.sol\":3797:3829  keccak256(\"IMPLEMENTATION_SLOT\") */\n      0xf603533e14e17222e047634a2b3457fe346d27e294cedf9d21d74e5feea4a046\n        /* \"contracts/Eip1822/Eip1822LogicContract.sol\":4763:4774  sload(slot) */\n      sload\n      swap1\n        /* \"contracts/Eip1822/Eip1822LogicContract.sol\":4567:4829  function implementation() public view returns(address) {... */\n      jump\n        /* \"contracts/Eip1822/Eip1822LogicContract.sol\":3934:3950  implementation() */\n    tag_11:\n        /* \"contracts/Eip1822/Eip1822LogicContract.sol\":3934:3964  implementation() != address(0) */\n      0xffffffffffffffffffffffffffffffffffffffff\n      and\n      sub\n        /* \"contracts/Eip1822/Eip1822LogicContract.sol\":3926:3991  require(implementation() != address(0), \"Implementation not set\") */\n      tag_12\n      jumpi\n      mload(0x40)\n      0x08c379a000000000000000000000000000000000000000000000000000000000\n      dup2\n      mstore\n        /* \"#utility.yul\":216:218   */\n      0x20\n        /* \"contracts/Eip1822/Eip1822LogicContract.sol\":3926:3991  require(implementation() != address(0), \"Implementation not set\") */\n      0x04\n      dup3\n      add\n        /* \"#utility.yul\":198:219   */\n      mstore\n        /* \"#utility.yul\":255:257   */\n      0x16\n        /* \"#utility.yul\":235:253   */\n      0x24\n      dup3\n      add\n        /* \"#utility.yul\":228:258   */\n      mstore\n        /* \"#utility.yul\":294:318   */\n      0x496d706c656d656e746174696f6e206e6f742073657400000000000000000000\n        /* \"#utility.yul\":274:292   */\n      0x44\n      dup3\n      add\n        /* \"#utility.yul\":267:319   */\n      mstore\n        /* \"#utility.yul\":336:354   */\n      0x64\n      add\n        /* \"contracts/Eip1822/Eip1822LogicContract.sol\":3926:3991  require(implementation() != address(0), \"Implementation not set\") */\n      mload(0x40)\n      dup1\n      swap2\n      sub\n      swap1\n      revert\n    tag_12:\n        /* \"contracts/Eip1822/Eip1822LogicContract.sol\":4042:4046  0x40 */\n      0x40\n        /* \"contracts/Eip1822/Eip1822LogicContract.sol\":4036:4047  mload(0x40) */\n      mload\n        /* \"contracts/Eip1822/Eip1822LogicContract.sol\":4081:4095  calldatasize() */\n      calldatasize\n        /* \"contracts/Eip1822/Eip1822LogicContract.sol\":4078:4079  0 */\n      0x00\n        /* \"contracts/Eip1822/Eip1822LogicContract.sol\":4073:4076  ptr */\n      dup3\n        /* \"contracts/Eip1822/Eip1822LogicContract.sol\":4060:4096  calldatacopy(ptr, 0, calldatasize()) */\n      calldatacopy\n        /* \"contracts/Eip1822/Eip1822LogicContract.sol\":4282:4283  0 */\n      0x00\n        /* \"contracts/Eip1822/Eip1822LogicContract.sol\":4263:4264  0 */\n      dup1\n        /* \"contracts/Eip1822/Eip1822LogicContract.sol\":4231:4245  calldatasize() */\n      calldatasize\n        /* \"contracts/Eip1822/Eip1822LogicContract.sol\":4210:4213  ptr */\n      dup4\n        /* \"contracts/Eip1822/Eip1822LogicContract.sol\":4177:4192  _implementation */\n      dup6\n        /* \"contracts/Eip1822/Eip1822LogicContract.sol\":4154:4159  gas() */\n      gas\n        /* \"contracts/Eip1822/Eip1822LogicContract.sol\":4124:4297  delegatecall(... */\n      delegatecall\n        /* \"contracts/Eip1822/Eip1822LogicContract.sol\":4322:4338  returndatasize() */\n      returndatasize\n        /* \"contracts/Eip1822/Eip1822LogicContract.sol\":4374:4378  size */\n      dup1\n        /* \"contracts/Eip1822/Eip1822LogicContract.sol\":4371:4372  0 */\n      0x00\n        /* \"contracts/Eip1822/Eip1822LogicContract.sol\":4366:4369  ptr */\n      dup5\n        /* \"contracts/Eip1822/Eip1822LogicContract.sol\":4351:4379  returndatacopy(ptr, 0, size) */\n      returndatacopy\n        /* \"contracts/Eip1822/Eip1822LogicContract.sol\":4400:4406  result */\n      dup2\n        /* \"contracts/Eip1822/Eip1822LogicContract.sol\":4419:4475  case 0 {... */\n      dup1\n      iszero\n      tag_16\n      jumpi\n        /* \"contracts/Eip1822/Eip1822LogicContract.sol\":4526:4530  size */\n      dup2\n        /* \"contracts/Eip1822/Eip1822LogicContract.sol\":4521:4524  ptr */\n      dup5\n        /* \"contracts/Eip1822/Eip1822LogicContract.sol\":4514:4531  return(ptr, size) */\n      return\n        /* \"contracts/Eip1822/Eip1822LogicContract.sol\":4419:4475  case 0 {... */\n    tag_16:\n        /* \"contracts/Eip1822/Eip1822LogicContract.sol\":4456:4460  size */\n      dup2\n        /* \"contracts/Eip1822/Eip1822LogicContract.sol\":4451:4454  ptr */\n      dup5\n        /* \"contracts/Eip1822/Eip1822LogicContract.sol\":4444:4461  revert(ptr, size) */\n      revert\n        /* \"contracts/Eip1822/Eip1822LogicContract.sol\":4393:4545  switch result... */\n    tag_15:\n      stop\n        /* \"contracts/Eip1822/Eip1822LogicContract.sol\":4567:4829  function implementation() public view returns(address) {... */\n    tag_3:\n      callvalue\n      dup1\n      iszero\n      tag_17\n      jumpi\n      0x00\n      dup1\n      revert\n    tag_17:\n      pop\n        /* \"contracts/Eip1822/Eip1822LogicContract.sol\":3797:3829  keccak256(\"IMPLEMENTATION_SLOT\") */\n      0xf603533e14e17222e047634a2b3457fe346d27e294cedf9d21d74e5feea4a046\n        /* \"contracts/Eip1822/Eip1822LogicContract.sol\":4763:4774  sload(slot) */\n      sload\n        /* \"contracts/Eip1822/Eip1822LogicContract.sol\":4567:4829  function implementation() public view returns(address) {... */\n      mload(0x40)\n        /* \"#utility.yul\":541:583   */\n      0xffffffffffffffffffffffffffffffffffffffff\n        /* \"#utility.yul\":529:584   */\n      swap1\n      swap2\n      and\n        /* \"#utility.yul\":511:585   */\n      dup2\n      mstore\n        /* \"#utility.yul\":499:501   */\n      0x20\n        /* \"#utility.yul\":484:502   */\n      add\n        /* \"contracts/Eip1822/Eip1822LogicContract.sol\":4567:4829  function implementation() public view returns(address) {... */\n      mload(0x40)\n      dup1\n      swap2\n      sub\n      swap1\n      return\n        /* \"contracts/Eip1822/Eip1822LogicContract.sol\":4835:5020  function setImplementation(address newImplementation) public {... */\n    tag_4:\n      callvalue\n      dup1\n      iszero\n      tag_21\n      jumpi\n      0x00\n      dup1\n      revert\n    tag_21:\n      pop\n      tag_15\n      tag_23\n      calldatasize\n      0x04\n      tag_24\n      jump\t// in\n    tag_23:\n        /* \"contracts/Eip1822/Eip1822LogicContract.sol\":3797:3829  keccak256(\"IMPLEMENTATION_SLOT\") */\n      0xf603533e14e17222e047634a2b3457fe346d27e294cedf9d21d74e5feea4a046\n        /* \"contracts/Eip1822/Eip1822LogicContract.sol\":4973:5004  sstore(slot, newImplementation) */\n      sstore\n        /* \"contracts/Eip1822/Eip1822LogicContract.sol\":4835:5020  function setImplementation(address newImplementation) public {... */\n      jump\n        /* \"#utility.yul\":596:905   */\n    tag_24:\n        /* \"#utility.yul\":655:661   */\n      0x00\n        /* \"#utility.yul\":708:710   */\n      0x20\n        /* \"#utility.yul\":696:705   */\n      dup3\n        /* \"#utility.yul\":687:694   */\n      dup5\n        /* \"#utility.yul\":683:706   */\n      sub\n        /* \"#utility.yul\":679:711   */\n      slt\n        /* \"#utility.yul\":676:728   */\n      iszero\n      tag_32\n      jumpi\n        /* \"#utility.yul\":724:725   */\n      0x00\n        /* \"#utility.yul\":721:722   */\n      dup1\n        /* \"#utility.yul\":714:726   */\n      revert\n        /* \"#utility.yul\":676:728   */\n    tag_32:\n        /* \"#utility.yul\":763:772   */\n      dup2\n        /* \"#utility.yul\":750:773   */\n      calldataload\n        /* \"#utility.yul\":813:855   */\n      0xffffffffffffffffffffffffffffffffffffffff\n        /* \"#utility.yul\":806:811   */\n      dup2\n        /* \"#utility.yul\":802:856   */\n      and\n        /* \"#utility.yul\":795:800   */\n      dup2\n        /* \"#utility.yul\":792:857   */\n      eq\n        /* \"#utility.yul\":782:875   */\n      tag_33\n      jumpi\n        /* \"#utility.yul\":871:872   */\n      0x00\n        /* \"#utility.yul\":868:869   */\n      dup1\n        /* \"#utility.yul\":861:873   */\n      revert\n        /* \"#utility.yul\":782:875   */\n    tag_33:\n        /* \"#utility.yul\":894:899   */\n      swap4\n        /* \"#utility.yul\":596:905   */\n      swap3\n      pop\n      pop\n      pop\n      jump\t// out\n\n    auxdata: 0xa2646970667358221220608d66a7b7f1b2c776ca1499db497610aa32079e4e6502dec96298c90322d94364736f6c63430008180033\n}\n",
				"bytecode": {
					"linkReferences": {},
					"object": "608060405234801561000f575f80fd5b506102318061001d5f395ff3fe60806040526004361061002c575f3560e01c80635c60da1b1461012c578063d784d4261461018357610033565b3661003357005b5f61005c7ff603533e14e17222e047634a2b3457fe346d27e294cedf9d21d74e5feea4a0465490565b90505f6100877ff603533e14e17222e047634a2b3457fe346d27e294cedf9d21d74e5feea4a0465490565b73ffffffffffffffffffffffffffffffffffffffff1603610108576040517f08c379a000000000000000000000000000000000000000000000000000000000815260206004820152601660248201527f496d706c656d656e746174696f6e206e6f742073657400000000000000000000604482015260640160405180910390fd5b604051365f82375f803683855af43d805f843e818015610126578184f35b8184fd5b005b348015610137575f80fd5b507ff603533e14e17222e047634a2b3457fe346d27e294cedf9d21d74e5feea4a0465460405173ffffffffffffffffffffffffffffffffffffffff909116815260200160405180910390f35b34801561018e575f80fd5b5061012a61019d3660046101c1565b7ff603533e14e17222e047634a2b3457fe346d27e294cedf9d21d74e5feea4a04655565b5f602082840312156101d1575f80fd5b813573ffffffffffffffffffffffffffffffffffffffff811681146101f4575f80fd5b939250505056fea2646970667358221220608d66a7b7f1b2c776ca1499db497610aa32079e4e6502dec96298c90322d94364736f6c63430008180033",
					"opcodes": "PUSH1 0x80 PUSH1 0x40 MSTORE CALLVALUE DUP1 ISZERO PUSH2 0xF JUMPI PUSH0 DUP1 REVERT JUMPDEST POP PUSH2 0x231 DUP1 PUSH2 0x1D PUSH0 CODECOPY PUSH0 RETURN INVALID PUSH1 0x80 PUSH1 0x40 MSTORE PUSH1 0x4 CALLDATASIZE LT PUSH2 0x2C JUMPI PUSH0 CALLDATALOAD PUSH1 0xE0 SHR DUP1 PUSH4 0x5C60DA1B EQ PUSH2 0x12C JUMPI DUP1 PUSH4 0xD784D426 EQ PUSH2 0x183 JUMPI PUSH2 0x33 JUMP JUMPDEST CALLDATASIZE PUSH2 0x33 JUMPI STOP JUMPDEST PUSH0 PUSH2 0x5C PUSH32 0xF603533E14E17222E047634A2B3457FE346D27E294CEDF9D21D74E5FEEA4A046 SLOAD SWAP1 JUMP JUMPDEST SWAP1 POP PUSH0 PUSH2 0x87 PUSH32 0xF603533E14E17222E047634A2B3457FE346D27E294CEDF9D21D74E5FEEA4A046 SLOAD SWAP1 JUMP JUMPDEST PUSH20 0xFFFFFFFFFFFFFFFFFFFFFFFFFFFFFFFFFFFFFFFF AND SUB PUSH2 0x108 JUMPI PUSH1 0x40 MLOAD PUSH32 0x8C379A000000000000000000000000000000000000000000000000000000000 DUP2 MSTORE PUSH1 0x20 PUSH1 0x4 DUP3 ADD MSTORE PUSH1 0x16 PUSH1 0x24 DUP3 ADD MSTORE PUSH32 0x496D706C656D656E746174696F6E206E6F742073657400000000000000000000 PUSH1 0x44 DUP3 ADD MSTORE PUSH1 0x64 ADD PUSH1 0x40 MLOAD DUP1 SWAP2 SUB SWAP1 REVERT JUMPDEST PUSH1 0x40 MLOAD CALLDATASIZE PUSH0 DUP3 CALLDATACOPY PUSH0 DUP1 CALLDATASIZE DUP4 DUP6 GAS DELEGATECALL RETURNDATASIZE DUP1 PUSH0 DUP5 RETURNDATACOPY DUP2 DUP1 ISZERO PUSH2 0x126 JUMPI DUP2 DUP5 RETURN JUMPDEST DUP2 DUP5 REVERT JUMPDEST STOP JUMPDEST CALLVALUE DUP1 ISZERO PUSH2 0x137 JUMPI PUSH0 DUP1 REVERT JUMPDEST POP PUSH32 0xF603533E14E17222E047634A2B3457FE346D27E294CEDF9D21D74E5FEEA4A046 SLOAD PUSH1 0x40 MLOAD PUSH20 0xFFFFFFFFFFFFFFFFFFFFFFFFFFFFFFFFFFFFFFFF SWAP1 SWAP2 AND DUP2 MSTORE PUSH1 0x20 ADD PUSH1 0x40 MLOAD DUP1 SWAP2 SUB SWAP1 RETURN JUMPDEST CALLVALUE DUP1 ISZERO PUSH2 0x18E JUMPI PUSH0 DUP1 REVERT JUMPDEST POP PUSH2 0x12A PUSH2 0x19D CALLDATASIZE PUSH1 0x4 PUSH2 0x1C1 JUMP JUMPDEST PUSH32 0xF603533E14E17222E047634A2B3457FE346D27E294CEDF9D21D74E5FEEA4A046 SSTORE JUMP JUMPDEST PUSH0 PUSH1 0x20 DUP3 DUP5 SUB SLT ISZERO PUSH2 0x1D1 JUMPI PUSH0 DUP1 REVERT JUMPDEST DUP2 CALLDATALOAD PUSH20 0xFFFFFFFFFFFFFFFFFFFFFFFFFFFFFFFFFFFFFFFF DUP2 AND DUP2 EQ PUSH2 0x1F4 JUMPI PUSH0 DUP1 REVERT JUMPDEST SWAP4 SWAP3 POP POP POP JUMP INVALID LOG2 PUSH5 0x6970667358 0x22 SLT KECCAK256 PUSH1 0x8D PUSH7 0xA7B7F1B2C776CA EQ SWAP10 0xDB BLOBHASH PUSH23 0x10AA32079E4E6502DEC96298C90322D94364736F6C6343 STOP ADDMOD XOR STOP CALLER "
				},
				"gasEstimates": {
					"creation": {
						"codeDepositCost": "112200",
						"executionCost": "157",
						"totalCost": "112357"
					},
					"external": {
						"": "infinite",
						"implementation()": "2254",
						"setImplementation(address)": "22344"
					}
				},
				"methodIdentifiers": {
					"implementation()": "5c60da1b",
					"setImplementation(address)": "d784d426"
				}
			},
			"storageLayout": {
				"storage": [],
				"types": null
			},
			"userdoc": {
				"kind": "user",
				"methods": {},
				"version": 1
			}
		}
	}
}