{
	"contracts/Eip1822/Eip1822LogicContract.sol": {
		"Eip1822ProxiableContract": {
			"abi": [
				{
					"inputs": [
						{
							"internalType": "string",
							"name": "_nameOfCandidate",
							"type": "string"
						},
						{
							"internalType": "uint256",
							"name": "_voterCardNo",
							"type": "uint256"
						},
						{
							"internalType": "string",
							"name": "_partyName",
							"type": "string"
						}
					],
					"name": "addCandidateDetails",
					"outputs": [],
					"stateMutability": "nonpayable",
					"type": "function"
				},
				{
					"inputs": [
						{
							"internalType": "address",
							"name": "_voterAddress",
							"type": "address"
						},
						{
							"internalType": "uint256",
							"name": "_voterCardNo",
							"type": "uint256"
						},
						{
							"internalType": "uint256",
							"name": "_partyNumber",
							"type": "uint256"
						}
					],
					"name": "addVoterDetails",
					"outputs": [],
					"stateMutability": "nonpayable",
					"type": "function"
				},
				{
					"inputs": [
						{
							"internalType": "uint256",
							"name": "_voterCardNo",
							"type": "uint256"
						}
					],
					"name": "checkCandidateStatus",
					"outputs": [
						{
							"internalType": "bool",
							"name": "",
							"type": "bool"
						}
					],
					"stateMutability": "view",
					"type": "function"
				},
				{
					"inputs": [
						{
							"internalType": "uint256",
							"name": "_voterCArdNo",
							"type": "uint256"
						}
					],
					"name": "checkVoterStatus",
					"outputs": [
						{
							"internalType": "bool",
							"name": "",
							"type": "bool"
						}
					],
					"stateMutability": "view",
					"type": "function"
				},
				{
					"inputs": [],
					"name": "result",
					"outputs": [
						{
							"internalType": "string",
							"name": "",
							"type": "string"
						}
					],
					"stateMutability": "nonpayable",
					"type": "function"
				}
			],
			"devdoc": {
				"kind": "dev",
				"methods": {},
				"version": 1
			},
			"evm": {
				"assembly": "    /* \"contracts/Eip1822/Eip1822LogicContract.sol\":56:722  contract Eip1822ProxiableContract {... */\n  mstore(0x40, 0x80)\n  callvalue\n  dup1\n  iszero\n  tag_1\n  jumpi\n  0x00\n  dup1\n  revert\ntag_1:\n  pop\n  dataSize(sub_0)\n  dup1\n  dataOffset(sub_0)\n  0x00\n  codecopy\n  0x00\n  return\nstop\n\nsub_0: assembly {\n        /* \"contracts/Eip1822/Eip1822LogicContract.sol\":56:722  contract Eip1822ProxiableContract {... */\n      mstore(0x40, 0x80)\n      callvalue\n      dup1\n      iszero\n      tag_1\n      jumpi\n      0x00\n      dup1\n      revert\n    tag_1:\n      pop\n      jumpi(tag_2, lt(calldatasize, 0x04))\n      shr(0xe0, calldataload(0x00))\n      dup1\n      0x7a26dd31\n      gt\n      tag_8\n      jumpi\n      dup1\n      0x7a26dd31\n      eq\n      tag_5\n      jumpi\n      dup1\n      0xb2fb8e37\n      eq\n      tag_6\n      jumpi\n      dup1\n      0xc93346ab\n      eq\n      tag_6\n      jumpi\n      0x00\n      dup1\n      revert\n    tag_8:\n      dup1\n      0x13732d79\n      eq\n      tag_3\n      jumpi\n      dup1\n      0x65372147\n      eq\n      tag_4\n      jumpi\n    tag_2:\n      0x00\n      dup1\n      revert\n        /* \"contracts/Eip1822/Eip1822LogicContract.sol\":368:524  function addCandidateDetails(... */\n    tag_3:\n      tag_9\n      tag_10\n      calldatasize\n      0x04\n      tag_11\n      jump\t// in\n    tag_10:\n      pop\n      pop\n      pop\n      jump\n    tag_9:\n      stop\n        /* \"contracts/Eip1822/Eip1822LogicContract.sol\":661:720  function result() public virtual returns (string memory) {} */\n    tag_4:\n        /* \"contracts/Eip1822/Eip1822LogicContract.sol\":703:716  string memory */\n      0x60\n        /* \"contracts/Eip1822/Eip1822LogicContract.sol\":661:720  function result() public virtual returns (string memory) {} */\n      mload(0x40)\n      tag_15\n      swap2\n      swap1\n      tag_16\n      jump\t// in\n    tag_15:\n      mload(0x40)\n      dup1\n      swap2\n      sub\n      swap1\n      return\n        /* \"contracts/Eip1822/Eip1822LogicContract.sol\":96:235  function addVoterDetails(... */\n    tag_5:\n      tag_9\n      tag_10\n      calldatasize\n      0x04\n      tag_19\n      jump\t// in\n        /* \"contracts/Eip1822/Eip1822LogicContract.sol\":530:655  function checkCandidateStatus(uint256 _voterCardNo)... */\n    tag_6:\n      tag_21\n      tag_22\n      calldatasize\n      0x04\n      tag_23\n      jump\t// in\n    tag_22:\n      pop\n        /* \"contracts/Eip1822/Eip1822LogicContract.sol\":643:647  bool */\n      0x00\n      swap1\n        /* \"contracts/Eip1822/Eip1822LogicContract.sol\":530:655  function checkCandidateStatus(uint256 _voterCardNo)... */\n      jump\n    tag_21:\n      mload(0x40)\n        /* \"#utility.yul\":2896:2910   */\n      swap1\n      iszero\n        /* \"#utility.yul\":2889:2911   */\n      iszero\n        /* \"#utility.yul\":2871:2912   */\n      dup2\n      mstore\n        /* \"#utility.yul\":2859:2861   */\n      0x20\n        /* \"#utility.yul\":2844:2862   */\n      add\n        /* \"contracts/Eip1822/Eip1822LogicContract.sol\":530:655  function checkCandidateStatus(uint256 _voterCardNo)... */\n      tag_15\n        /* \"#utility.yul\":2731:2918   */\n      jump\n        /* \"#utility.yul\":14:198   */\n    tag_36:\n        /* \"#utility.yul\":66:143   */\n      0x4e487b7100000000000000000000000000000000000000000000000000000000\n        /* \"#utility.yul\":63:64   */\n      0x00\n        /* \"#utility.yul\":56:144   */\n      mstore\n        /* \"#utility.yul\":163:167   */\n      0x41\n        /* \"#utility.yul\":160:161   */\n      0x04\n        /* \"#utility.yul\":153:168   */\n      mstore\n        /* \"#utility.yul\":187:191   */\n      0x24\n        /* \"#utility.yul\":184:185   */\n      0x00\n        /* \"#utility.yul\":177:192   */\n      revert\n        /* \"#utility.yul\":203:922   */\n    tag_37:\n        /* \"#utility.yul\":246:251   */\n      0x00\n        /* \"#utility.yul\":299:302   */\n      dup3\n        /* \"#utility.yul\":292:296   */\n      0x1f\n        /* \"#utility.yul\":284:290   */\n      dup4\n        /* \"#utility.yul\":280:297   */\n      add\n        /* \"#utility.yul\":276:303   */\n      slt\n        /* \"#utility.yul\":266:321   */\n      tag_41\n      jumpi\n        /* \"#utility.yul\":317:318   */\n      0x00\n        /* \"#utility.yul\":314:315   */\n      dup1\n        /* \"#utility.yul\":307:319   */\n      revert\n        /* \"#utility.yul\":266:321   */\n    tag_41:\n        /* \"#utility.yul\":353:359   */\n      dup2\n        /* \"#utility.yul\":340:360   */\n      calldataload\n        /* \"#utility.yul\":379:397   */\n      0xffffffffffffffff\n        /* \"#utility.yul\":416:418   */\n      dup1\n        /* \"#utility.yul\":412:414   */\n      dup3\n        /* \"#utility.yul\":409:419   */\n      gt\n        /* \"#utility.yul\":406:442   */\n      iszero\n      tag_43\n      jumpi\n        /* \"#utility.yul\":422:440   */\n      tag_43\n      tag_36\n      jump\t// in\n    tag_43:\n        /* \"#utility.yul\":497:499   */\n      0x40\n        /* \"#utility.yul\":491:500   */\n      mload\n        /* \"#utility.yul\":465:467   */\n      0x1f\n        /* \"#utility.yul\":551:564   */\n      dup4\n      add\n      not(0x1f)\n        /* \"#utility.yul\":547:569   */\n      swap1\n      dup2\n      and\n        /* \"#utility.yul\":571:573   */\n      0x3f\n        /* \"#utility.yul\":543:574   */\n      add\n        /* \"#utility.yul\":539:579   */\n      and\n        /* \"#utility.yul\":527:580   */\n      dup2\n      add\n      swap1\n        /* \"#utility.yul\":595:613   */\n      dup3\n      dup3\n      gt\n        /* \"#utility.yul\":615:637   */\n      dup2\n      dup4\n      lt\n        /* \"#utility.yul\":592:638   */\n      or\n        /* \"#utility.yul\":589:661   */\n      iszero\n      tag_45\n      jumpi\n        /* \"#utility.yul\":641:659   */\n      tag_45\n      tag_36\n      jump\t// in\n    tag_45:\n        /* \"#utility.yul\":681:691   */\n      dup2\n        /* \"#utility.yul\":677:679   */\n      0x40\n        /* \"#utility.yul\":670:692   */\n      mstore\n        /* \"#utility.yul\":716:718   */\n      dup4\n        /* \"#utility.yul\":708:714   */\n      dup2\n        /* \"#utility.yul\":701:719   */\n      mstore\n        /* \"#utility.yul\":762:765   */\n      dup7\n        /* \"#utility.yul\":755:759   */\n      0x20\n        /* \"#utility.yul\":750:752   */\n      dup6\n        /* \"#utility.yul\":742:748   */\n      dup9\n        /* \"#utility.yul\":738:753   */\n      add\n        /* \"#utility.yul\":734:760   */\n      add\n        /* \"#utility.yul\":731:766   */\n      gt\n        /* \"#utility.yul\":728:783   */\n      iszero\n      tag_46\n      jumpi\n        /* \"#utility.yul\":779:780   */\n      0x00\n        /* \"#utility.yul\":776:777   */\n      dup1\n        /* \"#utility.yul\":769:781   */\n      revert\n        /* \"#utility.yul\":728:783   */\n    tag_46:\n        /* \"#utility.yul\":843:845   */\n      dup4\n        /* \"#utility.yul\":836:840   */\n      0x20\n        /* \"#utility.yul\":828:834   */\n      dup8\n        /* \"#utility.yul\":824:841   */\n      add\n        /* \"#utility.yul\":817:821   */\n      0x20\n        /* \"#utility.yul\":809:815   */\n      dup4\n        /* \"#utility.yul\":805:822   */\n      add\n        /* \"#utility.yul\":792:846   */\n      calldatacopy\n        /* \"#utility.yul\":890:891   */\n      0x00\n        /* \"#utility.yul\":883:887   */\n      0x20\n        /* \"#utility.yul\":878:880   */\n      dup6\n        /* \"#utility.yul\":870:876   */\n      dup4\n        /* \"#utility.yul\":866:881   */\n      add\n        /* \"#utility.yul\":862:888   */\n      add\n        /* \"#utility.yul\":855:892   */\n      mstore\n        /* \"#utility.yul\":910:916   */\n      dup1\n        /* \"#utility.yul\":901:916   */\n      swap5\n      pop\n      pop\n      pop\n      pop\n      pop\n        /* \"#utility.yul\":203:922   */\n      swap3\n      swap2\n      pop\n      pop\n      jump\t// out\n        /* \"#utility.yul\":927:1538   */\n    tag_11:\n        /* \"#utility.yul\":1024:1030   */\n      0x00\n        /* \"#utility.yul\":1032:1038   */\n      dup1\n        /* \"#utility.yul\":1040:1046   */\n      0x00\n        /* \"#utility.yul\":1093:1095   */\n      0x60\n        /* \"#utility.yul\":1081:1090   */\n      dup5\n        /* \"#utility.yul\":1072:1079   */\n      dup7\n        /* \"#utility.yul\":1068:1091   */\n      sub\n        /* \"#utility.yul\":1064:1096   */\n      slt\n        /* \"#utility.yul\":1061:1113   */\n      iszero\n      tag_48\n      jumpi\n        /* \"#utility.yul\":1109:1110   */\n      0x00\n        /* \"#utility.yul\":1106:1107   */\n      dup1\n        /* \"#utility.yul\":1099:1111   */\n      revert\n        /* \"#utility.yul\":1061:1113   */\n    tag_48:\n        /* \"#utility.yul\":1149:1158   */\n      dup4\n        /* \"#utility.yul\":1136:1159   */\n      calldataload\n        /* \"#utility.yul\":1178:1196   */\n      0xffffffffffffffff\n        /* \"#utility.yul\":1219:1221   */\n      dup1\n        /* \"#utility.yul\":1211:1217   */\n      dup3\n        /* \"#utility.yul\":1208:1222   */\n      gt\n        /* \"#utility.yul\":1205:1239   */\n      iszero\n      tag_49\n      jumpi\n        /* \"#utility.yul\":1235:1236   */\n      0x00\n        /* \"#utility.yul\":1232:1233   */\n      dup1\n        /* \"#utility.yul\":1225:1237   */\n      revert\n        /* \"#utility.yul\":1205:1239   */\n    tag_49:\n        /* \"#utility.yul\":1258:1308   */\n      tag_50\n        /* \"#utility.yul\":1300:1307   */\n      dup8\n        /* \"#utility.yul\":1291:1297   */\n      dup4\n        /* \"#utility.yul\":1280:1289   */\n      dup9\n        /* \"#utility.yul\":1276:1298   */\n      add\n        /* \"#utility.yul\":1258:1308   */\n      tag_37\n      jump\t// in\n    tag_50:\n        /* \"#utility.yul\":1248:1308   */\n      swap5\n      pop\n        /* \"#utility.yul\":1355:1357   */\n      0x20\n        /* \"#utility.yul\":1344:1353   */\n      dup7\n        /* \"#utility.yul\":1340:1358   */\n      add\n        /* \"#utility.yul\":1327:1359   */\n      calldataload\n        /* \"#utility.yul\":1317:1359   */\n      swap4\n      pop\n        /* \"#utility.yul\":1412:1414   */\n      0x40\n        /* \"#utility.yul\":1401:1410   */\n      dup7\n        /* \"#utility.yul\":1397:1415   */\n      add\n        /* \"#utility.yul\":1384:1416   */\n      calldataload\n        /* \"#utility.yul\":1368:1416   */\n      swap2\n      pop\n        /* \"#utility.yul\":1441:1443   */\n      dup1\n        /* \"#utility.yul\":1431:1439   */\n      dup3\n        /* \"#utility.yul\":1428:1444   */\n      gt\n        /* \"#utility.yul\":1425:1461   */\n      iszero\n      tag_51\n      jumpi\n        /* \"#utility.yul\":1457:1458   */\n      0x00\n        /* \"#utility.yul\":1454:1455   */\n      dup1\n        /* \"#utility.yul\":1447:1459   */\n      revert\n        /* \"#utility.yul\":1425:1461   */\n    tag_51:\n      pop\n        /* \"#utility.yul\":1480:1532   */\n      tag_52\n        /* \"#utility.yul\":1524:1531   */\n      dup7\n        /* \"#utility.yul\":1513:1521   */\n      dup3\n        /* \"#utility.yul\":1502:1511   */\n      dup8\n        /* \"#utility.yul\":1498:1522   */\n      add\n        /* \"#utility.yul\":1480:1532   */\n      tag_37\n      jump\t// in\n    tag_52:\n        /* \"#utility.yul\":1470:1532   */\n      swap2\n      pop\n      pop\n        /* \"#utility.yul\":927:1538   */\n      swap3\n      pop\n      swap3\n      pop\n      swap3\n      jump\t// out\n        /* \"#utility.yul\":1543:2091   */\n    tag_16:\n        /* \"#utility.yul\":1655:1659   */\n      0x00\n        /* \"#utility.yul\":1684:1686   */\n      0x20\n        /* \"#utility.yul\":1713:1715   */\n      dup1\n        /* \"#utility.yul\":1702:1711   */\n      dup4\n        /* \"#utility.yul\":1695:1716   */\n      mstore\n        /* \"#utility.yul\":1745:1751   */\n      dup4\n        /* \"#utility.yul\":1739:1752   */\n      mload\n        /* \"#utility.yul\":1788:1794   */\n      dup1\n        /* \"#utility.yul\":1783:1785   */\n      0x20\n        /* \"#utility.yul\":1772:1781   */\n      dup6\n        /* \"#utility.yul\":1768:1786   */\n      add\n        /* \"#utility.yul\":1761:1795   */\n      mstore\n        /* \"#utility.yul\":1813:1814   */\n      0x00\n        /* \"#utility.yul\":1823:1963   */\n    tag_54:\n        /* \"#utility.yul\":1837:1843   */\n      dup2\n        /* \"#utility.yul\":1834:1835   */\n      dup2\n        /* \"#utility.yul\":1831:1844   */\n      lt\n        /* \"#utility.yul\":1823:1963   */\n      iszero\n      tag_56\n      jumpi\n        /* \"#utility.yul\":1932:1946   */\n      dup6\n      dup2\n      add\n        /* \"#utility.yul\":1928:1951   */\n      dup4\n      add\n        /* \"#utility.yul\":1922:1952   */\n      mload\n        /* \"#utility.yul\":1898:1915   */\n      dup6\n      dup3\n      add\n        /* \"#utility.yul\":1917:1919   */\n      0x40\n        /* \"#utility.yul\":1894:1920   */\n      add\n        /* \"#utility.yul\":1887:1953   */\n      mstore\n        /* \"#utility.yul\":1852:1862   */\n      dup3\n      add\n        /* \"#utility.yul\":1823:1963   */\n      jump(tag_54)\n    tag_56:\n        /* \"#utility.yul\":1827:1830   */\n      pop\n        /* \"#utility.yul\":2012:2013   */\n      0x00\n        /* \"#utility.yul\":2007:2009   */\n      0x40\n        /* \"#utility.yul\":1998:2004   */\n      dup3\n        /* \"#utility.yul\":1987:1996   */\n      dup7\n        /* \"#utility.yul\":1983:2005   */\n      add\n        /* \"#utility.yul\":1979:2010   */\n      add\n        /* \"#utility.yul\":1972:2014   */\n      mstore\n        /* \"#utility.yul\":2082:2084   */\n      0x40\n        /* \"#utility.yul\":2075:2077   */\n      0x1f\n        /* \"#utility.yul\":2071:2078   */\n      not\n        /* \"#utility.yul\":2066:2068   */\n      0x1f\n        /* \"#utility.yul\":2058:2064   */\n      dup4\n        /* \"#utility.yul\":2054:2069   */\n      add\n        /* \"#utility.yul\":2050:2079   */\n      and\n        /* \"#utility.yul\":2039:2048   */\n      dup6\n        /* \"#utility.yul\":2035:2080   */\n      add\n        /* \"#utility.yul\":2031:2085   */\n      add\n        /* \"#utility.yul\":2023:2085   */\n      swap3\n      pop\n      pop\n      pop\n        /* \"#utility.yul\":1543:2091   */\n      swap3\n      swap2\n      pop\n      pop\n      jump\t// out\n        /* \"#utility.yul\":2096:2541   */\n    tag_19:\n        /* \"#utility.yul\":2173:2179   */\n      0x00\n        /* \"#utility.yul\":2181:2187   */\n      dup1\n        /* \"#utility.yul\":2189:2195   */\n      0x00\n        /* \"#utility.yul\":2242:2244   */\n      0x60\n        /* \"#utility.yul\":2230:2239   */\n      dup5\n        /* \"#utility.yul\":2221:2228   */\n      dup7\n        /* \"#utility.yul\":2217:2240   */\n      sub\n        /* \"#utility.yul\":2213:2245   */\n      slt\n        /* \"#utility.yul\":2210:2262   */\n      iszero\n      tag_58\n      jumpi\n        /* \"#utility.yul\":2258:2259   */\n      0x00\n        /* \"#utility.yul\":2255:2256   */\n      dup1\n        /* \"#utility.yul\":2248:2260   */\n      revert\n        /* \"#utility.yul\":2210:2262   */\n    tag_58:\n        /* \"#utility.yul\":2297:2306   */\n      dup4\n        /* \"#utility.yul\":2284:2307   */\n      calldataload\n        /* \"#utility.yul\":2347:2389   */\n      0xffffffffffffffffffffffffffffffffffffffff\n        /* \"#utility.yul\":2340:2345   */\n      dup2\n        /* \"#utility.yul\":2336:2390   */\n      and\n        /* \"#utility.yul\":2329:2334   */\n      dup2\n        /* \"#utility.yul\":2326:2391   */\n      eq\n        /* \"#utility.yul\":2316:2409   */\n      tag_59\n      jumpi\n        /* \"#utility.yul\":2405:2406   */\n      0x00\n        /* \"#utility.yul\":2402:2403   */\n      dup1\n        /* \"#utility.yul\":2395:2407   */\n      revert\n        /* \"#utility.yul\":2316:2409   */\n    tag_59:\n        /* \"#utility.yul\":2428:2433   */\n      swap6\n        /* \"#utility.yul\":2480:2482   */\n      0x20\n        /* \"#utility.yul\":2465:2483   */\n      dup6\n      add\n        /* \"#utility.yul\":2452:2484   */\n      calldataload\n      swap6\n      pop\n        /* \"#utility.yul\":2531:2533   */\n      0x40\n        /* \"#utility.yul\":2516:2534   */\n      swap1\n      swap5\n      add\n        /* \"#utility.yul\":2503:2535   */\n      calldataload\n      swap4\n        /* \"#utility.yul\":2096:2541   */\n      swap3\n      pop\n      pop\n      pop\n      jump\t// out\n        /* \"#utility.yul\":2546:2726   */\n    tag_23:\n        /* \"#utility.yul\":2605:2611   */\n      0x00\n        /* \"#utility.yul\":2658:2660   */\n      0x20\n        /* \"#utility.yul\":2646:2655   */\n      dup3\n        /* \"#utility.yul\":2637:2644   */\n      dup5\n        /* \"#utility.yul\":2633:2656   */\n      sub\n        /* \"#utility.yul\":2629:2661   */\n      slt\n        /* \"#utility.yul\":2626:2678   */\n      iszero\n      tag_61\n      jumpi\n        /* \"#utility.yul\":2674:2675   */\n      0x00\n        /* \"#utility.yul\":2671:2672   */\n      dup1\n        /* \"#utility.yul\":2664:2676   */\n      revert\n        /* \"#utility.yul\":2626:2678   */\n    tag_61:\n      pop\n        /* \"#utility.yul\":2697:2720   */\n      calldataload\n      swap2\n        /* \"#utility.yul\":2546:2726   */\n      swap1\n      pop\n      jump\t// out\n\n    auxdata: 0xa26469706673582212209885cde24a5d3bfd46d51d11505b124ed4d72f8764daef7ef4721540ad35ecfa64736f6c63430008180033\n}\n",
				"bytecode": {
					"linkReferences": {},
					"object": "608060405234801561000f575f80fd5b506102c78061001d5f395ff3fe608060405234801561000f575f80fd5b5060043610610064575f3560e01c80637a26dd311161004d5780637a26dd3114610095578063b2fb8e37146100a3578063c93346ab146100a3575f80fd5b806313732d7914610068578063653721471461007d575b5f80fd5b61007b61007636600461017c565b505050565b005b606060405161008c91906101e4565b60405180910390f35b61007b610076366004610230565b6100b66100b136600461027a565b505f90565b604051901515815260200161008c565b7f4e487b71000000000000000000000000000000000000000000000000000000005f52604160045260245ffd5b5f82601f830112610102575f80fd5b813567ffffffffffffffff8082111561011d5761011d6100c6565b604051601f8301601f19908116603f01168101908282118183101715610145576101456100c6565b8160405283815286602085880101111561015d575f80fd5b836020870160208301375f602085830101528094505050505092915050565b5f805f6060848603121561018e575f80fd5b833567ffffffffffffffff808211156101a5575f80fd5b6101b1878388016100f3565b94506020860135935060408601359150808211156101cd575f80fd5b506101da868287016100f3565b9150509250925092565b5f602080835283518060208501525f5b81811015610210578581018301518582016040015282016101f4565b505f604082860101526040601f19601f8301168501019250505092915050565b5f805f60608486031215610242575f80fd5b833573ffffffffffffffffffffffffffffffffffffffff81168114610265575f80fd5b95602085013595506040909401359392505050565b5f6020828403121561028a575f80fd5b503591905056fea26469706673582212209885cde24a5d3bfd46d51d11505b124ed4d72f8764daef7ef4721540ad35ecfa64736f6c63430008180033",
					"opcodes": "PUSH1 0x80 PUSH1 0x40 MSTORE CALLVALUE DUP1 ISZERO PUSH2 0xF JUMPI PUSH0 DUP1 REVERT JUMPDEST POP PUSH2 0x2C7 DUP1 PUSH2 0x1D PUSH0 CODECOPY PUSH0 RETURN INVALID PUSH1 0x80 PUSH1 0x40 MSTORE CALLVALUE DUP1 ISZERO PUSH2 0xF JUMPI PUSH0 DUP1 REVERT JUMPDEST POP PUSH1 0x4 CALLDATASIZE LT PUSH2 0x64 JUMPI PUSH0 CALLDATALOAD PUSH1 0xE0 SHR DUP1 PUSH4 0x7A26DD31 GT PUSH2 0x4D JUMPI DUP1 PUSH4 0x7A26DD31 EQ PUSH2 0x95 JUMPI DUP1 PUSH4 0xB2FB8E37 EQ PUSH2 0xA3 JUMPI DUP1 PUSH4 0xC93346AB EQ PUSH2 0xA3 JUMPI PUSH0 DUP1 REVERT JUMPDEST DUP1 PUSH4 0x13732D79 EQ PUSH2 0x68 JUMPI DUP1 PUSH4 0x65372147 EQ PUSH2 0x7D JUMPI JUMPDEST PUSH0 DUP1 REVERT JUMPDEST PUSH2 0x7B PUSH2 0x76 CALLDATASIZE PUSH1 0x4 PUSH2 0x17C JUMP JUMPDEST POP POP POP JUMP JUMPDEST STOP JUMPDEST PUSH1 0x60 PUSH1 0x40 MLOAD PUSH2 0x8C SWAP2 SWAP1 PUSH2 0x1E4 JUMP JUMPDEST PUSH1 0x40 MLOAD DUP1 SWAP2 SUB SWAP1 RETURN JUMPDEST PUSH2 0x7B PUSH2 0x76 CALLDATASIZE PUSH1 0x4 PUSH2 0x230 JUMP JUMPDEST PUSH2 0xB6 PUSH2 0xB1 CALLDATASIZE PUSH1 0x4 PUSH2 0x27A JUMP JUMPDEST POP PUSH0 SWAP1 JUMP JUMPDEST PUSH1 0x40 MLOAD SWAP1 ISZERO ISZERO DUP2 MSTORE PUSH1 0x20 ADD PUSH2 0x8C JUMP JUMPDEST PUSH32 0x4E487B7100000000000000000000000000000000000000000000000000000000 PUSH0 MSTORE PUSH1 0x41 PUSH1 0x4 MSTORE PUSH1 0x24 PUSH0 REVERT JUMPDEST PUSH0 DUP3 PUSH1 0x1F DUP4 ADD SLT PUSH2 0x102 JUMPI PUSH0 DUP1 REVERT JUMPDEST DUP2 CALLDATALOAD PUSH8 0xFFFFFFFFFFFFFFFF DUP1 DUP3 GT ISZERO PUSH2 0x11D JUMPI PUSH2 0x11D PUSH2 0xC6 JUMP JUMPDEST PUSH1 0x40 MLOAD PUSH1 0x1F DUP4 ADD PUSH1 0x1F NOT SWAP1 DUP2 AND PUSH1 0x3F ADD AND DUP2 ADD SWAP1 DUP3 DUP3 GT DUP2 DUP4 LT OR ISZERO PUSH2 0x145 JUMPI PUSH2 0x145 PUSH2 0xC6 JUMP JUMPDEST DUP2 PUSH1 0x40 MSTORE DUP4 DUP2 MSTORE DUP7 PUSH1 0x20 DUP6 DUP9 ADD ADD GT ISZERO PUSH2 0x15D JUMPI PUSH0 DUP1 REVERT JUMPDEST DUP4 PUSH1 0x20 DUP8 ADD PUSH1 0x20 DUP4 ADD CALLDATACOPY PUSH0 PUSH1 0x20 DUP6 DUP4 ADD ADD MSTORE DUP1 SWAP5 POP POP POP POP POP SWAP3 SWAP2 POP POP JUMP JUMPDEST PUSH0 DUP1 PUSH0 PUSH1 0x60 DUP5 DUP7 SUB SLT ISZERO PUSH2 0x18E JUMPI PUSH0 DUP1 REVERT JUMPDEST DUP4 CALLDATALOAD PUSH8 0xFFFFFFFFFFFFFFFF DUP1 DUP3 GT ISZERO PUSH2 0x1A5 JUMPI PUSH0 DUP1 REVERT JUMPDEST PUSH2 0x1B1 DUP8 DUP4 DUP9 ADD PUSH2 0xF3 JUMP JUMPDEST SWAP5 POP PUSH1 0x20 DUP7 ADD CALLDATALOAD SWAP4 POP PUSH1 0x40 DUP7 ADD CALLDATALOAD SWAP2 POP DUP1 DUP3 GT ISZERO PUSH2 0x1CD JUMPI PUSH0 DUP1 REVERT JUMPDEST POP PUSH2 0x1DA DUP7 DUP3 DUP8 ADD PUSH2 0xF3 JUMP JUMPDEST SWAP2 POP POP SWAP3 POP SWAP3 POP SWAP3 JUMP JUMPDEST PUSH0 PUSH1 0x20 DUP1 DUP4 MSTORE DUP4 MLOAD DUP1 PUSH1 0x20 DUP6 ADD MSTORE PUSH0 JUMPDEST DUP2 DUP2 LT ISZERO PUSH2 0x210 JUMPI DUP6 DUP2 ADD DUP4 ADD MLOAD DUP6 DUP3 ADD PUSH1 0x40 ADD MSTORE DUP3 ADD PUSH2 0x1F4 JUMP JUMPDEST POP PUSH0 PUSH1 0x40 DUP3 DUP7 ADD ADD MSTORE PUSH1 0x40 PUSH1 0x1F NOT PUSH1 0x1F DUP4 ADD AND DUP6 ADD ADD SWAP3 POP POP POP SWAP3 SWAP2 POP POP JUMP JUMPDEST PUSH0 DUP1 PUSH0 PUSH1 0x60 DUP5 DUP7 SUB SLT ISZERO PUSH2 0x242 JUMPI PUSH0 DUP1 REVERT JUMPDEST DUP4 CALLDATALOAD PUSH20 0xFFFFFFFFFFFFFFFFFFFFFFFFFFFFFFFFFFFFFFFF DUP2 AND DUP2 EQ PUSH2 0x265 JUMPI PUSH0 DUP1 REVERT JUMPDEST SWAP6 PUSH1 0x20 DUP6 ADD CALLDATALOAD SWAP6 POP PUSH1 0x40 SWAP1 SWAP5 ADD CALLDATALOAD SWAP4 SWAP3 POP POP POP JUMP JUMPDEST PUSH0 PUSH1 0x20 DUP3 DUP5 SUB SLT ISZERO PUSH2 0x28A JUMPI PUSH0 DUP1 REVERT JUMPDEST POP CALLDATALOAD SWAP2 SWAP1 POP JUMP INVALID LOG2 PUSH5 0x6970667358 0x22 SLT KECCAK256 SWAP9 DUP6 0xCD 0xE2 BLOBBASEFEE TSTORE EXTCODESIZE REVERT CHAINID 0xD5 SAR GT POP JUMPDEST SLT 0x4E 0xD4 0xD7 0x2F DUP8 PUSH5 0xDAEF7EF472 ISZERO BLOCKHASH 0xAD CALLDATALOAD 0xEC STATICCALL PUSH5 0x736F6C6343 STOP ADDMOD XOR STOP CALLER "
				},
				"gasEstimates": {
					"creation": {
						"codeDepositCost": "142200",
						"executionCost": "188",
						"totalCost": "142388"
					},
					"external": {
						"addCandidateDetails(string,uint256,string)": "infinite",
						"addVoterDetails(address,uint256,uint256)": "287",
						"checkCandidateStatus(uint256)": "299",
						"checkVoterStatus(uint256)": "321",
						"result()": "infinite"
					}
				},
				"methodIdentifiers": {
					"addCandidateDetails(string,uint256,string)": "13732d79",
					"addVoterDetails(address,uint256,uint256)": "7a26dd31",
					"checkCandidateStatus(uint256)": "b2fb8e37",
					"checkVoterStatus(uint256)": "c93346ab",
					"result()": "65372147"
				}
			},
			"storageLayout": {
				"storage": [],
				"types": null
			},
			"userdoc": {
				"kind": "user",
				"methods": {},
				"version": 1
			}
		}
	}
}