{
	"Diamond/Diamond.sol": {
		"Diamond": {
			"abi": [
				{
					"inputs": [
						{
							"internalType": "address",
							"name": "_contractOwner",
							"type": "address"
						}
					],
					"stateMutability": "payable",
					"type": "constructor"
				},
				{
					"stateMutability": "payable",
					"type": "fallback"
				},
				{
					"inputs": [
						{
							"components": [
								{
									"internalType": "address",
									"name": "facetAddress",
									"type": "address"
								},
								{
									"internalType": "bytes4[]",
									"name": "functionSelectors",
									"type": "bytes4[]"
								}
							],
							"internalType": "struct LibDiamond.FacetCut",
							"name": "_diamondCut",
							"type": "tuple"
						}
					],
					"name": "diamondCut",
					"outputs": [],
					"stateMutability": "nonpayable",
					"type": "function"
				},
				{
					"stateMutability": "payable",
					"type": "receive"
				}
			],
			"devdoc": {
				"kind": "dev",
				"methods": {},
				"version": 1
			},
			"evm": {
				"assembly": "    /* \"Diamond/Diamond.sol\":89:1089  contract Diamond {... */\n  mstore(0x40, 0x80)\n    /* \"Diamond/Diamond.sol\":112:216  constructor(address _contractOwner) payable {... */\n  mload(0x40)\n  sub(codesize, bytecodeSize)\n  dup1\n  bytecodeSize\n  dup4\n  codecopy\n  dup2\n  add\n  0x40\n  dup2\n  swap1\n  mstore\n  tag_1\n  swap2\n  tag_2\n  jump\t// in\ntag_1:\n    /* \"Diamond/Diamond.sol\":166:209  LibDiamond.setContractOwner(_contractOwner) */\n  tag_5\n    /* \"Diamond/Diamond.sol\":194:208  _contractOwner */\n  dup2\n    /* \"Diamond/Diamond.sol\":166:193  LibDiamond.setContractOwner */\n  or(tag_0_20, shl(0x20, tag_6))\n    /* \"Diamond/Diamond.sol\":166:209  LibDiamond.setContractOwner(_contractOwner) */\n  0x20\n  shr\n  jump\t// in\ntag_5:\n    /* \"Diamond/Diamond.sol\":112:216  constructor(address _contractOwner) payable {... */\n  pop\n    /* \"Diamond/Diamond.sol\":89:1089  contract Diamond {... */\n  jump(tag_12)\n    /* \"Diamond/LibDiamond.sol\":4302:4566  function setContractOwner(address _newOwner) internal {... */\ntag_6:\n    /* \"Diamond/LibDiamond.sol\":4444:4460  ds.contractOwner */\n  0xc8fcad8db84d3cc18b4c41d551ea0ee66dd599cde068d998e57d5e09332c131f\n  dup1\n  sload\n  not(sub(shl(0xa0, 0x01), 0x01))\n    /* \"Diamond/LibDiamond.sol\":4470:4498  ds.contractOwner = _newOwner */\n  dup2\n  and\n  sub(shl(0xa0, 0x01), 0x01)\n  dup5\n  dup2\n  and\n  swap2\n  dup3\n  or\n  swap1\n  swap4\n  sstore\n    /* \"Diamond/LibDiamond.sol\":4513:4559  OwnershipTransferred(previousOwner, _newOwner) */\n  mload(0x40)\n    /* \"Diamond/LibDiamond.sol\":624:669  keccak256(\"diamond.standard.diamond.storage\") */\n  0xc8fcad8db84d3cc18b4c41d551ea0ee66dd599cde068d998e57d5e09332c131c\n  swap4\n    /* \"Diamond/LibDiamond.sol\":4444:4460  ds.contractOwner */\n  swap1\n  swap3\n  and\n  swap2\n  dup3\n  swap1\n    /* \"Diamond/LibDiamond.sol\":4513:4559  OwnershipTransferred(previousOwner, _newOwner) */\n  0x8be0079c531659141344cd1fd0a4f28419497f9722a3daafe3b4186f6b6457e0\n  swap1\n    /* \"Diamond/LibDiamond.sol\":4366:4391  DiamondStorage storage ds */\n  0x00\n  swap1\n    /* \"Diamond/LibDiamond.sol\":4513:4559  OwnershipTransferred(previousOwner, _newOwner) */\n  log3\n    /* \"Diamond/LibDiamond.sol\":4356:4566  {... */\n  pop\n  pop\n    /* \"Diamond/LibDiamond.sol\":4302:4566  function setContractOwner(address _newOwner) internal {... */\n  pop\n  jump\t// out\n    /* \"#utility.yul\":14:304   */\ntag_2:\n    /* \"#utility.yul\":84:90   */\n  0x00\n    /* \"#utility.yul\":137:139   */\n  0x20\n    /* \"#utility.yul\":125:134   */\n  dup3\n    /* \"#utility.yul\":116:123   */\n  dup5\n    /* \"#utility.yul\":112:135   */\n  sub\n    /* \"#utility.yul\":108:140   */\n  slt\n    /* \"#utility.yul\":105:157   */\n  iszero\n  tag_14\n  jumpi\n    /* \"#utility.yul\":153:154   */\n  0x00\n    /* \"#utility.yul\":150:151   */\n  dup1\n    /* \"#utility.yul\":143:155   */\n  revert\n    /* \"#utility.yul\":105:157   */\ntag_14:\n    /* \"#utility.yul\":179:195   */\n  dup2\n  mload\n  sub(shl(0xa0, 0x01), 0x01)\n    /* \"#utility.yul\":224:255   */\n  dup2\n  and\n    /* \"#utility.yul\":214:256   */\n  dup2\n  eq\n    /* \"#utility.yul\":204:274   */\n  tag_15\n  jumpi\n    /* \"#utility.yul\":270:271   */\n  0x00\n    /* \"#utility.yul\":267:268   */\n  dup1\n    /* \"#utility.yul\":260:272   */\n  revert\n    /* \"#utility.yul\":204:274   */\ntag_15:\n    /* \"#utility.yul\":293:298   */\n  swap4\n    /* \"#utility.yul\":14:304   */\n  swap3\n  pop\n  pop\n  pop\n  jump\t// out\ntag_12:\n    /* \"Diamond/Diamond.sol\":89:1089  contract Diamond {... */\n  dataSize(sub_0)\n  dup1\n  dataOffset(sub_0)\n  0x00\n  codecopy\n  0x00\n  return\nstop\n\nsub_0: assembly {\n        /* \"Diamond/Diamond.sol\":89:1089  contract Diamond {... */\n      mstore(0x40, 0x80)\n      jumpi(tag_1, lt(calldatasize, 0x04))\n      shr(0xe0, calldataload(0x00))\n      dup1\n      0x65907831\n      eq\n      tag_3\n      jumpi\n      jump(tag_2)\n    tag_1:\n      jumpi(tag_2, calldatasize)\n      stop\n    tag_2:\n        /* \"Diamond/Diamond.sol\":434:470  LibDiamond.DiamondStorage storage ds */\n      0x00\n        /* \"Diamond/LibDiamond.sol\":624:669  keccak256(\"diamond.standard.diamond.storage\") */\n      0xc8fcad8db84d3cc18b4c41d551ea0ee66dd599cde068d998e57d5e09332c131c\n        /* \"Diamond/Diamond.sol\":511:524  address facet */\n      0x00\n        /* \"Diamond/Diamond.sol\":557:564  msg.sig */\n      dup1\n      calldataload\n      not(sub(shl(0xe0, 0x01), 0x01))\n      and\n        /* \"Diamond/Diamond.sol\":527:565  ds.selectorToFacetAndPosition[msg.sig] */\n      dup2\n      mstore\n      0x20\n      dup3\n      swap1\n      mstore\n      0x40\n      swap1\n      keccak256\n        /* \"Diamond/Diamond.sol\":527:578  ds.selectorToFacetAndPosition[msg.sig].facetAddress */\n      sload\n        /* \"Diamond/Diamond.sol\":527:565  ds.selectorToFacetAndPosition[msg.sig] */\n      swap1\n      swap2\n      pop\n      sub(shl(0xa0, 0x01), 0x01)\n        /* \"Diamond/Diamond.sol\":527:578  ds.selectorToFacetAndPosition[msg.sig].facetAddress */\n      and\n      dup1\n        /* \"Diamond/Diamond.sol\":588:652  require(facet != address(0), \"Diamond: Function does not exist\") */\n      tag_10\n      jumpi\n      mload(0x40)\n      shl(0xe5, 0x461bcd)\n      dup2\n      mstore\n        /* \"#utility.yul\":216:218   */\n      0x20\n        /* \"Diamond/Diamond.sol\":588:652  require(facet != address(0), \"Diamond: Function does not exist\") */\n      0x04\n      dup3\n      add\n        /* \"#utility.yul\":198:219   */\n      dup2\n      swap1\n      mstore\n        /* \"#utility.yul\":235:253   */\n      0x24\n      dup3\n      add\n        /* \"#utility.yul\":228:258   */\n      mstore\n        /* \"#utility.yul\":294:328   */\n      0x4469616d6f6e643a2046756e6374696f6e20646f6573206e6f74206578697374\n        /* \"#utility.yul\":274:292   */\n      0x44\n      dup3\n      add\n        /* \"#utility.yul\":267:329   */\n      mstore\n        /* \"#utility.yul\":346:364   */\n      0x64\n      add\n        /* \"Diamond/Diamond.sol\":588:652  require(facet != address(0), \"Diamond: Function does not exist\") */\n    tag_11:\n      mload(0x40)\n      dup1\n      swap2\n      sub\n      swap1\n      revert\n    tag_10:\n        /* \"Diamond/Diamond.sol\":705:719  calldatasize() */\n      calldatasize\n        /* \"Diamond/Diamond.sol\":702:703  0 */\n      0x00\n        /* \"Diamond/Diamond.sol\":699:700  0 */\n      dup1\n        /* \"Diamond/Diamond.sol\":686:720  calldatacopy(0, 0, calldatasize()) */\n      calldatacopy\n        /* \"Diamond/Diamond.sol\":796:797  0 */\n      0x00\n        /* \"Diamond/Diamond.sol\":793:794  0 */\n      dup1\n        /* \"Diamond/Diamond.sol\":777:791  calldatasize() */\n      calldatasize\n        /* \"Diamond/Diamond.sol\":774:775  0 */\n      0x00\n        /* \"Diamond/Diamond.sol\":767:772  facet */\n      dup5\n        /* \"Diamond/Diamond.sol\":760:765  gas() */\n      gas\n        /* \"Diamond/Diamond.sol\":747:798  delegatecall(gas(), facet, 0, calldatasize(), 0, 0) */\n      delegatecall\n        /* \"Diamond/Diamond.sol\":833:849  returndatasize() */\n      returndatasize\n        /* \"Diamond/Diamond.sol\":830:831  0 */\n      0x00\n        /* \"Diamond/Diamond.sol\":827:828  0 */\n      dup1\n        /* \"Diamond/Diamond.sol\":812:850  returndatacopy(0, 0, returndatasize()) */\n      returndatacopy\n        /* \"Diamond/Diamond.sol\":871:877  result */\n      dup1\n        /* \"Diamond/Diamond.sol\":890:956  case 0 {... */\n      dup1\n      iszero\n      tag_14\n      jumpi\n        /* \"Diamond/Diamond.sol\":1005:1021  returndatasize() */\n      returndatasize\n        /* \"Diamond/Diamond.sol\":1002:1003  0 */\n      0x00\n        /* \"Diamond/Diamond.sol\":995:1022  return(0, returndatasize()) */\n      return\n        /* \"Diamond/Diamond.sol\":890:956  case 0 {... */\n    tag_14:\n        /* \"Diamond/Diamond.sol\":925:941  returndatasize() */\n      returndatasize\n        /* \"Diamond/Diamond.sol\":922:923  0 */\n      0x00\n        /* \"Diamond/Diamond.sol\":915:942  revert(0, returndatasize()) */\n      revert\n        /* \"Diamond/Diamond.sol\":222:390  function diamondCut(LibDiamond.FacetCut calldata _diamondCut) external {... */\n    tag_3:\n      callvalue\n      dup1\n      iszero\n      tag_15\n      jumpi\n      0x00\n      dup1\n      revert\n    tag_15:\n      pop\n      tag_16\n      tag_17\n      calldatasize\n      0x04\n      tag_18\n      jump\t// in\n    tag_17:\n      tag_19\n      jump\t// in\n    tag_16:\n      stop\n    tag_19:\n        /* \"Diamond/Diamond.sol\":303:338  LibDiamond.enforceIsContractOwner() */\n      tag_23\n        /* \"Diamond/Diamond.sol\":303:336  LibDiamond.enforceIsContractOwner */\n      tag_24\n        /* \"Diamond/Diamond.sol\":303:338  LibDiamond.enforceIsContractOwner() */\n      jump\t// in\n    tag_23:\n        /* \"Diamond/Diamond.sol\":349:383  LibDiamond.diamondCut(_diamondCut) */\n      tag_25\n        /* \"Diamond/Diamond.sol\":371:382  _diamondCut */\n      dup2\n        /* \"Diamond/Diamond.sol\":349:370  LibDiamond.diamondCut */\n      tag_26\n        /* \"Diamond/Diamond.sol\":349:383  LibDiamond.diamondCut(_diamondCut) */\n      jump\t// in\n    tag_25:\n        /* \"Diamond/Diamond.sol\":222:390  function diamondCut(LibDiamond.FacetCut calldata _diamondCut) external {... */\n      pop\n      jump\t// out\n        /* \"Diamond/LibDiamond.sol\":4302:4566  function setContractOwner(address _newOwner) internal {... */\n    tag_20:\n        /* \"Diamond/LibDiamond.sol\":4444:4460  ds.contractOwner */\n      0xc8fcad8db84d3cc18b4c41d551ea0ee66dd599cde068d998e57d5e09332c131f\n      dup1\n      sload\n      not(0xffffffffffffffffffffffffffffffffffffffff)\n        /* \"Diamond/LibDiamond.sol\":4470:4498  ds.contractOwner = _newOwner */\n      dup2\n      and\n      sub(shl(0xa0, 0x01), 0x01)\n      dup5\n      dup2\n      and\n      swap2\n      dup3\n      or\n      swap1\n      swap4\n      sstore\n        /* \"Diamond/LibDiamond.sol\":4513:4559  OwnershipTransferred(previousOwner, _newOwner) */\n      mload(0x40)\n        /* \"Diamond/LibDiamond.sol\":624:669  keccak256(\"diamond.standard.diamond.storage\") */\n      0xc8fcad8db84d3cc18b4c41d551ea0ee66dd599cde068d998e57d5e09332c131c\n      swap4\n        /* \"Diamond/LibDiamond.sol\":4444:4460  ds.contractOwner */\n      swap1\n      swap3\n      and\n      swap2\n      dup3\n      swap1\n        /* \"Diamond/LibDiamond.sol\":4513:4559  OwnershipTransferred(previousOwner, _newOwner) */\n      0x8be0079c531659141344cd1fd0a4f28419497f9722a3daafe3b4186f6b6457e0\n      swap1\n        /* \"Diamond/LibDiamond.sol\":4366:4391  DiamondStorage storage ds */\n      0x00\n      swap1\n        /* \"Diamond/LibDiamond.sol\":4513:4559  OwnershipTransferred(previousOwner, _newOwner) */\n      log3\n        /* \"Diamond/LibDiamond.sol\":4356:4566  {... */\n      pop\n      pop\n        /* \"Diamond/LibDiamond.sol\":4302:4566  function setContractOwner(address _newOwner) internal {... */\n      pop\n      jump\t// out\n        /* \"Diamond/LibDiamond.sol\":4689:4832  function enforceIsContractOwner() internal view {... */\n    tag_24:\n        /* \"Diamond/LibDiamond.sol\":4646:4676  diamondStorage().contractOwner */\n      and(sub(shl(0xa0, 0x01), 0x01), sload(0xc8fcad8db84d3cc18b4c41d551ea0ee66dd599cde068d998e57d5e09332c131f))\n        /* \"Diamond/LibDiamond.sol\":5270:5280  msg.sender */\n      caller\n        /* \"Diamond/LibDiamond.sol\":4755:4786  _msgSender() == contractOwner() */\n      eq\n        /* \"Diamond/LibDiamond.sol\":4747:4825  require(_msgSender() == contractOwner(), \"LibDiamond: Must be contract owner\") */\n      tag_34\n      jumpi\n      mload(0x40)\n      shl(0xe5, 0x461bcd)\n      dup2\n      mstore\n        /* \"#utility.yul\":967:969   */\n      0x20\n        /* \"Diamond/LibDiamond.sol\":4747:4825  require(_msgSender() == contractOwner(), \"LibDiamond: Must be contract owner\") */\n      0x04\n      dup3\n      add\n        /* \"#utility.yul\":949:970   */\n      mstore\n        /* \"#utility.yul\":1006:1008   */\n      0x22\n        /* \"#utility.yul\":986:1004   */\n      0x24\n      dup3\n      add\n        /* \"#utility.yul\":979:1009   */\n      mstore\n        /* \"#utility.yul\":1045:1079   */\n      0x4c69624469616d6f6e643a204d75737420626520636f6e7472616374206f776e\n        /* \"#utility.yul\":1025:1043   */\n      0x44\n      dup3\n      add\n        /* \"#utility.yul\":1018:1080   */\n      mstore\n        /* \"#utility.yul\":1116:1120   */\n      0x6572000000000000000000000000000000000000000000000000000000000000\n        /* \"#utility.yul\":1096:1114   */\n      0x64\n      dup3\n      add\n        /* \"#utility.yul\":1089:1121   */\n      mstore\n        /* \"#utility.yul\":1138:1157   */\n      0x84\n      add\n        /* \"Diamond/LibDiamond.sol\":4747:4825  require(_msgSender() == contractOwner(), \"LibDiamond: Must be contract owner\") */\n      tag_11\n        /* \"#utility.yul\":765:1163   */\n      jump\n        /* \"Diamond/LibDiamond.sol\":4747:4825  require(_msgSender() == contractOwner(), \"LibDiamond: Must be contract owner\") */\n    tag_34:\n        /* \"Diamond/LibDiamond.sol\":4689:4832  function enforceIsContractOwner() internal view {... */\n      jump\t// out\n        /* \"Diamond/LibDiamond.sol\":1825:4057  function diamondCut(FacetCut calldata _diamondCut)... */\n    tag_26:\n        /* \"Diamond/LibDiamond.sol\":1903:1923  address facetAddress */\n      0x00\n        /* \"Diamond/LibDiamond.sol\":1926:1950  _diamondCut.facetAddress */\n      tag_38\n      0x20\n      dup4\n      add\n        /* \"Diamond/LibDiamond.sol\":1926:1937  _diamondCut */\n      dup4\n        /* \"Diamond/LibDiamond.sol\":1926:1950  _diamondCut.facetAddress */\n      tag_39\n      jump\t// in\n    tag_38:\n        /* \"Diamond/LibDiamond.sol\":1903:1950  address facetAddress = _diamondCut.facetAddress */\n      swap1\n      pop\n        /* \"Diamond/LibDiamond.sol\":1960:1993  bytes4[] memory functionSelectors */\n      0x00\n        /* \"Diamond/LibDiamond.sol\":1996:2025  _diamondCut.functionSelectors */\n      tag_40\n      0x20\n      dup5\n      add\n        /* \"Diamond/LibDiamond.sol\":1996:2007  _diamondCut */\n      dup5\n        /* \"Diamond/LibDiamond.sol\":1996:2025  _diamondCut.functionSelectors */\n      tag_41\n      jump\t// in\n    tag_40:\n        /* \"Diamond/LibDiamond.sol\":1960:2025  bytes4[] memory functionSelectors = _diamondCut.functionSelectors */\n      dup1\n      dup1\n      0x20\n      mul\n      0x20\n      add\n      mload(0x40)\n      swap1\n      dup2\n      add\n      0x40\n      mstore\n      dup1\n      swap4\n      swap3\n      swap2\n      swap1\n      dup2\n      dup2\n      mstore\n      0x20\n      add\n      dup4\n      dup4\n      0x20\n      mul\n      dup1\n      dup3\n      dup5\n      calldatacopy\n      0x00\n      swap3\n      add\n      swap2\n      swap1\n      swap2\n      mstore\n      pop\n      pop\n        /* \"Diamond/LibDiamond.sol\":2044:2068  functionSelectors.length */\n      dup3\n      mload\n        /* \"Diamond/LibDiamond.sol\":1960:2025  bytes4[] memory functionSelectors = _diamondCut.functionSelectors */\n      swap3\n      swap4\n      pop\n      pop\n      pop\n        /* \"Diamond/LibDiamond.sol\":2036:2120  require(functionSelectors.length > 0, \"LibDiamondCut: No selectors in facet to cut\") */\n      tag_42\n      jumpi\n      mload(0x40)\n      shl(0xe5, 0x461bcd)\n      dup2\n      mstore\n        /* \"#utility.yul\":2311:2313   */\n      0x20\n        /* \"Diamond/LibDiamond.sol\":2036:2120  require(functionSelectors.length > 0, \"LibDiamondCut: No selectors in facet to cut\") */\n      0x04\n      dup3\n      add\n        /* \"#utility.yul\":2293:2314   */\n      mstore\n        /* \"#utility.yul\":2350:2352   */\n      0x2b\n        /* \"#utility.yul\":2330:2348   */\n      0x24\n      dup3\n      add\n        /* \"#utility.yul\":2323:2353   */\n      mstore\n        /* \"#utility.yul\":2389:2423   */\n      0x4c69624469616d6f6e644375743a204e6f2073656c6563746f727320696e2066\n        /* \"#utility.yul\":2369:2387   */\n      0x44\n      dup3\n      add\n        /* \"#utility.yul\":2362:2424   */\n      mstore\n        /* \"#utility.yul\":2460:2473   */\n      0x6163657420746f20637574000000000000000000000000000000000000000000\n        /* \"#utility.yul\":2440:2458   */\n      0x64\n      dup3\n      add\n        /* \"#utility.yul\":2433:2474   */\n      mstore\n        /* \"#utility.yul\":2491:2510   */\n      0x84\n      add\n        /* \"Diamond/LibDiamond.sol\":2036:2120  require(functionSelectors.length > 0, \"LibDiamondCut: No selectors in facet to cut\") */\n      tag_11\n        /* \"#utility.yul\":2109:2516   */\n      jump\n        /* \"Diamond/LibDiamond.sol\":2036:2120  require(functionSelectors.length > 0, \"LibDiamondCut: No selectors in facet to cut\") */\n    tag_42:\n      sub(shl(0xa0, 0x01), 0x01)\n        /* \"Diamond/LibDiamond.sol\":2138:2164  facetAddress != address(0) */\n      dup3\n      and\n        /* \"Diamond/LibDiamond.sol\":2130:2213  require(facetAddress != address(0), \"LibDiamondCut: Add facet can't be address(0)\") */\n      tag_45\n      jumpi\n      mload(0x40)\n      shl(0xe5, 0x461bcd)\n      dup2\n      mstore\n        /* \"#utility.yul\":2723:2725   */\n      0x20\n        /* \"Diamond/LibDiamond.sol\":2130:2213  require(facetAddress != address(0), \"LibDiamondCut: Add facet can't be address(0)\") */\n      0x04\n      dup3\n      add\n        /* \"#utility.yul\":2705:2726   */\n      mstore\n        /* \"#utility.yul\":2762:2764   */\n      0x2c\n        /* \"#utility.yul\":2742:2760   */\n      0x24\n      dup3\n      add\n        /* \"#utility.yul\":2735:2765   */\n      mstore\n        /* \"#utility.yul\":2801:2835   */\n      0x4c69624469616d6f6e644375743a204164642066616365742063616e27742062\n        /* \"#utility.yul\":2781:2799   */\n      0x44\n      dup3\n      add\n        /* \"#utility.yul\":2774:2836   */\n      mstore\n        /* \"#utility.yul\":2872:2886   */\n      0x6520616464726573732830290000000000000000000000000000000000000000\n        /* \"#utility.yul\":2852:2870   */\n      0x64\n      dup3\n      add\n        /* \"#utility.yul\":2845:2887   */\n      mstore\n        /* \"#utility.yul\":2904:2923   */\n      0x84\n      add\n        /* \"Diamond/LibDiamond.sol\":2130:2213  require(facetAddress != address(0), \"LibDiamondCut: Add facet can't be address(0)\") */\n      tag_11\n        /* \"#utility.yul\":2521:2929   */\n      jump\n        /* \"Diamond/LibDiamond.sol\":2130:2213  require(facetAddress != address(0), \"LibDiamondCut: Add facet can't be address(0)\") */\n    tag_45:\n      sub(shl(0xa0, 0x01), 0x01)\n        /* \"Diamond/LibDiamond.sol\":2406:2445  ds.facetFunctionSelectors[facetAddress] */\n      dup3\n      and\n        /* \"Diamond/LibDiamond.sol\":2224:2249  DiamondStorage storage ds */\n      0x00\n        /* \"Diamond/LibDiamond.sol\":2406:2445  ds.facetFunctionSelectors[facetAddress] */\n      swap1\n      dup2\n      mstore\n        /* \"Diamond/LibDiamond.sol\":2406:2431  ds.facetFunctionSelectors */\n      0xc8fcad8db84d3cc18b4c41d551ea0ee66dd599cde068d998e57d5e09332c131d\n        /* \"Diamond/LibDiamond.sol\":2406:2445  ds.facetFunctionSelectors[facetAddress] */\n      0x20\n      mstore\n      0x40\n      swap1\n      keccak256\n        /* \"Diamond/LibDiamond.sol\":2406:2470  ds.facetFunctionSelectors[facetAddress].functionSelectors.length */\n      sload\n        /* \"Diamond/LibDiamond.sol\":624:669  keccak256(\"diamond.standard.diamond.storage\") */\n      0xc8fcad8db84d3cc18b4c41d551ea0ee66dd599cde068d998e57d5e09332c131c\n      swap1\n        /* \"Diamond/LibDiamond.sol\":2540:2561  selectorPosition == 0 */\n      0xffffffffffffffffffffffff\n      dup2\n      and\n        /* \"Diamond/LibDiamond.sol\":2536:2952  if (selectorPosition == 0) { // no selectors have been registered under this facet ever: hence, the facet does not exist; add it:... */\n      tag_49\n      jumpi\n        /* \"Diamond/LibDiamond.sol\":2678:2755  _enforceHasContractCode(facetAddress, \"LibDiamondCut: New facet has no code\") */\n      tag_50\n        /* \"Diamond/LibDiamond.sol\":2702:2714  facetAddress */\n      dup5\n        /* \"Diamond/LibDiamond.sol\":2678:2755  _enforceHasContractCode(facetAddress, \"LibDiamondCut: New facet has no code\") */\n      mload(0x40)\n      dup1\n      0x60\n      add\n      0x40\n      mstore\n      dup1\n      0x24\n      dup2\n      mstore\n      0x20\n      add\n      data_846ccbeb9c32d4d40d2c1bf991251db6ab65744a2f52b273947cee088a65504b\n      0x24\n      swap2\n      codecopy\n        /* \"Diamond/LibDiamond.sol\":2678:2701  _enforceHasContractCode */\n      tag_51\n        /* \"Diamond/LibDiamond.sol\":2678:2755  _enforceHasContractCode(facetAddress, \"LibDiamondCut: New facet has no code\") */\n      jump\t// in\n    tag_50:\n        /* \"Diamond/LibDiamond.sol\":2867:2884  ds.facetAddresses */\n      0x02\n      dup3\n      add\n        /* \"Diamond/LibDiamond.sol\":2867:2891  ds.facetAddresses.length */\n      dup1\n      sload\n      sub(shl(0xa0, 0x01), 0x01)\n        /* \"Diamond/LibDiamond.sol\":2804:2843  ds.facetFunctionSelectors[facetAddress] */\n      dup7\n      and\n      0x00\n      dup2\n      dup2\n      mstore\n        /* \"Diamond/LibDiamond.sol\":2804:2829  ds.facetFunctionSelectors */\n      0x01\n      dup1\n      dup8\n      add\n        /* \"Diamond/LibDiamond.sol\":2804:2843  ds.facetFunctionSelectors[facetAddress] */\n      0x20\n      swap1\n      dup2\n      mstore\n      0x40\n      dup4\n      keccak256\n        /* \"Diamond/LibDiamond.sol\":2804:2864  ds.facetFunctionSelectors[facetAddress].facetAddressPosition */\n      dup3\n      add\n        /* \"Diamond/LibDiamond.sol\":2804:2891  ds.facetFunctionSelectors[facetAddress].facetAddressPosition = ds.facetAddresses.length */\n      dup6\n      swap1\n      sstore\n        /* \"Diamond/LibDiamond.sol\":2905:2941  ds.facetAddresses.push(facetAddress) */\n      swap1\n      dup5\n      add\n      dup6\n      sstore\n      swap4\n      dup2\n      mstore\n      swap3\n      swap1\n      swap3\n      keccak256\n      add\n      dup1\n      sload\n      not(0xffffffffffffffffffffffffffffffffffffffff)\n      and\n      swap1\n      swap2\n      or\n      swap1\n      sstore\n        /* \"Diamond/LibDiamond.sol\":2536:2952  if (selectorPosition == 0) { // no selectors have been registered under this facet ever: hence, the facet does not exist; add it:... */\n    tag_49:\n        /* \"Diamond/LibDiamond.sol\":3032:3053  uint256 selectorIndex */\n      0x00\n        /* \"Diamond/LibDiamond.sol\":3027:4013  for (uint256 selectorIndex; selectorIndex < functionSelectors.length; selectorIndex++) {... */\n    tag_53:\n        /* \"Diamond/LibDiamond.sol\":3071:3088  functionSelectors */\n      dup4\n        /* \"Diamond/LibDiamond.sol\":3071:3095  functionSelectors.length */\n      mload\n        /* \"Diamond/LibDiamond.sol\":3055:3068  selectorIndex */\n      dup2\n        /* \"Diamond/LibDiamond.sol\":3055:3095  selectorIndex < functionSelectors.length */\n      lt\n        /* \"Diamond/LibDiamond.sol\":3027:4013  for (uint256 selectorIndex; selectorIndex < functionSelectors.length; selectorIndex++) {... */\n      iszero\n      tag_54\n      jumpi\n        /* \"Diamond/LibDiamond.sol\":3128:3143  bytes4 selector */\n      0x00\n        /* \"Diamond/LibDiamond.sol\":3146:3163  functionSelectors */\n      dup5\n        /* \"Diamond/LibDiamond.sol\":3164:3177  selectorIndex */\n      dup3\n        /* \"Diamond/LibDiamond.sol\":3146:3178  functionSelectors[selectorIndex] */\n      dup2\n      mload\n      dup2\n      lt\n      tag_57\n      jumpi\n      tag_57\n      tag_58\n      jump\t// in\n    tag_57:\n      0x20\n      swap1\n      dup2\n      mul\n      swap2\n      swap1\n      swap2\n      add\n      dup2\n      add\n      mload\n      not(sub(shl(0xe0, 0x01), 0x01))\n        /* \"Diamond/LibDiamond.sol\":3296:3335  ds.selectorToFacetAndPosition[selector] */\n      dup2\n      and\n        /* \"Diamond/LibDiamond.sol\":3261:3293  address currentFacetAddressIfAny */\n      0x00\n        /* \"Diamond/LibDiamond.sol\":3296:3335  ds.selectorToFacetAndPosition[selector] */\n      swap1\n      dup2\n      mstore\n      swap2\n      dup7\n      swap1\n      mstore\n      0x40\n      swap1\n      swap2\n      keccak256\n        /* \"Diamond/LibDiamond.sol\":3296:3348  ds.selectorToFacetAndPosition[selector].facetAddress */\n      sload\n        /* \"Diamond/LibDiamond.sol\":3146:3178  functionSelectors[selectorIndex] */\n      swap1\n      swap2\n      pop\n      sub(shl(0xa0, 0x01), 0x01)\n        /* \"Diamond/LibDiamond.sol\":3296:3348  ds.selectorToFacetAndPosition[selector].facetAddress */\n      and\n        /* \"Diamond/LibDiamond.sol\":3370:3408  currentFacetAddressIfAny == address(0) */\n      dup1\n      iszero\n        /* \"Diamond/LibDiamond.sol\":3362:3466  require(currentFacetAddressIfAny == address(0), \"LibDiamondCut: Can't add function that already exists\") */\n      tag_59\n      jumpi\n      mload(0x40)\n      shl(0xe5, 0x461bcd)\n      dup2\n      mstore\n        /* \"#utility.yul\":3325:3327   */\n      0x20\n        /* \"Diamond/LibDiamond.sol\":3362:3466  require(currentFacetAddressIfAny == address(0), \"LibDiamondCut: Can't add function that already exists\") */\n      0x04\n      dup3\n      add\n        /* \"#utility.yul\":3307:3328   */\n      mstore\n        /* \"#utility.yul\":3364:3366   */\n      0x35\n        /* \"#utility.yul\":3344:3362   */\n      0x24\n      dup3\n      add\n        /* \"#utility.yul\":3337:3367   */\n      mstore\n        /* \"#utility.yul\":3403:3437   */\n      0x4c69624469616d6f6e644375743a2043616e2774206164642066756e6374696f\n        /* \"#utility.yul\":3383:3401   */\n      0x44\n      dup3\n      add\n        /* \"#utility.yul\":3376:3438   */\n      mstore\n        /* \"#utility.yul\":3474:3497   */\n      0x6e207468617420616c7265616479206578697374730000000000000000000000\n        /* \"#utility.yul\":3454:3472   */\n      0x64\n      dup3\n      add\n        /* \"#utility.yul\":3447:3498   */\n      mstore\n        /* \"#utility.yul\":3515:3534   */\n      0x84\n      add\n        /* \"Diamond/LibDiamond.sol\":3362:3466  require(currentFacetAddressIfAny == address(0), \"LibDiamondCut: Can't add function that already exists\") */\n      tag_11\n        /* \"#utility.yul\":3123:3540   */\n      jump\n        /* \"Diamond/LibDiamond.sol\":3362:3466  require(currentFacetAddressIfAny == address(0), \"LibDiamondCut: Can't add function that already exists\") */\n    tag_59:\n      not(sub(shl(0xe0, 0x01), 0x01))\n        /* \"Diamond/LibDiamond.sol\":3645:3684  ds.selectorToFacetAndPosition[selector] */\n      dup3\n      and\n        /* \"Diamond/LibDiamond.sol\":3645:3674  ds.selectorToFacetAndPosition */\n      0x00\n        /* \"Diamond/LibDiamond.sol\":3645:3684  ds.selectorToFacetAndPosition[selector] */\n      swap1\n      dup2\n      mstore\n      0x20\n      dup7\n      dup2\n      mstore\n      0x40\n      dup1\n      dup4\n      keccak256\n      not(0xffffffffffffffffffffffffffffffffffffffff)\n        /* \"Diamond/LibDiamond.sol\":3645:3728  ds.selectorToFacetAndPosition[selector].functionSelectorPosition = selectorPosition */\n      0x010000000000000000000000000000000000000000\n      0xffffffffffffffffffffffff\n      dup11\n      and\n      mul\n        /* \"Diamond/LibDiamond.sol\":3742:3809  ds.selectorToFacetAndPosition[selector].facetAddress = facetAddress */\n      and\n      sub(shl(0xa0, 0x01), 0x01)\n      dup13\n      and\n      swap1\n      dup2\n      or\n      swap1\n      swap2\n      sstore\n        /* \"Diamond/LibDiamond.sol\":3897:3936  ds.facetFunctionSelectors[facetAddress] */\n      dup4\n      mstore\n      0x01\n        /* \"Diamond/LibDiamond.sol\":3897:3922  ds.facetFunctionSelectors */\n      dup1\n      dup10\n      add\n        /* \"Diamond/LibDiamond.sol\":3897:3936  ds.facetFunctionSelectors[facetAddress] */\n      dup4\n      mstore\n      swap1\n      dup4\n      keccak256\n        /* \"Diamond/LibDiamond.sol\":3897:3969  ds.facetFunctionSelectors[facetAddress].functionSelectors.push(selector) */\n      dup1\n      sload\n      swap2\n      dup3\n      add\n      dup2\n      sstore\n      dup4\n      mstore\n      swap2\n      keccak256\n      0x08\n      dup3\n      div\n      add\n      dup1\n      sload\n      0xffffffff\n      0x07\n      swap1\n      swap4\n      and\n      0x04\n      mul\n        /* \"Diamond/LibDiamond.sol\":3645:3728  ds.selectorToFacetAndPosition[selector].functionSelectorPosition = selectorPosition */\n      0x0100\n        /* \"Diamond/LibDiamond.sol\":3897:3969  ds.facetFunctionSelectors[facetAddress].functionSelectors.push(selector) */\n      exp\n      swap3\n      dup4\n      mul\n      not\n      and\n      0xe0\n      dup6\n      swap1\n      shr\n      swap3\n      swap1\n      swap3\n      mul\n      swap2\n      swap1\n      swap2\n      or\n      swap1\n      sstore\n        /* \"Diamond/LibDiamond.sol\":3645:3728  ds.selectorToFacetAndPosition[selector].functionSelectorPosition = selectorPosition */\n      dup4\n        /* \"Diamond/LibDiamond.sol\":3984:4002  selectorPosition++ */\n      tag_63\n        /* \"Diamond/LibDiamond.sol\":3645:3728  ds.selectorToFacetAndPosition[selector].functionSelectorPosition = selectorPosition */\n      dup2\n        /* \"Diamond/LibDiamond.sol\":3984:4002  selectorPosition++ */\n      tag_64\n      jump\t// in\n    tag_63:\n      swap5\n      pop\n      pop\n        /* \"Diamond/LibDiamond.sol\":3114:4013  {... */\n      pop\n      pop\n        /* \"Diamond/LibDiamond.sol\":3097:3112  selectorIndex++ */\n      dup1\n      dup1\n      tag_65\n      swap1\n      tag_66\n      jump\t// in\n    tag_65:\n      swap2\n      pop\n      pop\n        /* \"Diamond/LibDiamond.sol\":3027:4013  for (uint256 selectorIndex; selectorIndex < functionSelectors.length; selectorIndex++) {... */\n      jump(tag_53)\n    tag_54:\n      pop\n        /* \"Diamond/LibDiamond.sol\":4027:4050  DiamondCut(_diamondCut) */\n      0x870a27c741d6bfa35424e9edf793d7d7b000dc66c0dae57ddac33cdde585b5bb\n        /* \"Diamond/LibDiamond.sol\":4038:4049  _diamondCut */\n      dup6\n        /* \"Diamond/LibDiamond.sol\":4027:4050  DiamondCut(_diamondCut) */\n      mload(0x40)\n      tag_67\n      swap2\n      swap1\n      tag_68\n      jump\t// in\n    tag_67:\n      mload(0x40)\n      dup1\n      swap2\n      sub\n      swap1\n      log1\n        /* \"Diamond/LibDiamond.sol\":1893:4057  {... */\n      pop\n      pop\n      pop\n      pop\n        /* \"Diamond/LibDiamond.sol\":1825:4057  function diamondCut(FacetCut calldata _diamondCut)... */\n      pop\n      jump\t// out\n        /* \"Diamond/LibDiamond.sol\":4880:5141  function _enforceHasContractCode(address _contract, string memory _errorMessage) private view {... */\n    tag_51:\n        /* \"Diamond/LibDiamond.sol\":5053:5075  extcodesize(_contract) */\n      dup2\n      extcodesize\n        /* \"Diamond/LibDiamond.sol\":5120:5133  _errorMessage */\n      dup2\n        /* \"Diamond/LibDiamond.sol\":5102:5118  contractSize > 0 */\n      dup2\n        /* \"Diamond/LibDiamond.sol\":5094:5134  require(contractSize > 0, _errorMessage) */\n      tag_73\n      jumpi\n      mload(0x40)\n      shl(0xe5, 0x461bcd)\n      dup2\n      mstore\n      0x04\n      add\n      tag_11\n      swap2\n      swap1\n      tag_75\n      jump\t// in\n    tag_73:\n      pop\n        /* \"Diamond/LibDiamond.sol\":4974:5141  {... */\n      pop\n        /* \"Diamond/LibDiamond.sol\":4880:5141  function _enforceHasContractCode(address _contract, string memory _errorMessage) private view {... */\n      pop\n      pop\n      jump\t// out\n        /* \"#utility.yul\":375:760   */\n    tag_18:\n        /* \"#utility.yul\":460:466   */\n      0x00\n        /* \"#utility.yul\":513:515   */\n      0x20\n        /* \"#utility.yul\":501:510   */\n      dup3\n        /* \"#utility.yul\":492:499   */\n      dup5\n        /* \"#utility.yul\":488:511   */\n      sub\n        /* \"#utility.yul\":484:516   */\n      slt\n        /* \"#utility.yul\":481:533   */\n      iszero\n      tag_81\n      jumpi\n        /* \"#utility.yul\":529:530   */\n      0x00\n        /* \"#utility.yul\":526:527   */\n      dup1\n        /* \"#utility.yul\":519:531   */\n      revert\n        /* \"#utility.yul\":481:533   */\n    tag_81:\n        /* \"#utility.yul\":569:578   */\n      dup2\n        /* \"#utility.yul\":556:579   */\n      calldataload\n        /* \"#utility.yul\":602:620   */\n      0xffffffffffffffff\n        /* \"#utility.yul\":594:600   */\n      dup2\n        /* \"#utility.yul\":591:621   */\n      gt\n        /* \"#utility.yul\":588:638   */\n      iszero\n      tag_82\n      jumpi\n        /* \"#utility.yul\":634:635   */\n      0x00\n        /* \"#utility.yul\":631:632   */\n      dup1\n        /* \"#utility.yul\":624:636   */\n      revert\n        /* \"#utility.yul\":588:638   */\n    tag_82:\n        /* \"#utility.yul\":657:679   */\n      dup3\n      add\n        /* \"#utility.yul\":713:715   */\n      0x40\n        /* \"#utility.yul\":695:711   */\n      dup2\n      dup6\n      sub\n        /* \"#utility.yul\":691:716   */\n      slt\n        /* \"#utility.yul\":688:733   */\n      iszero\n      tag_83\n      jumpi\n        /* \"#utility.yul\":729:730   */\n      0x00\n        /* \"#utility.yul\":726:727   */\n      dup1\n        /* \"#utility.yul\":719:731   */\n      revert\n        /* \"#utility.yul\":688:733   */\n    tag_83:\n        /* \"#utility.yul\":752:754   */\n      swap4\n        /* \"#utility.yul\":375:760   */\n      swap3\n      pop\n      pop\n      pop\n      jump\t// out\n        /* \"#utility.yul\":1168:1364   */\n    tag_76:\n        /* \"#utility.yul\":1236:1256   */\n      dup1\n      calldataload\n      sub(shl(0xa0, 0x01), 0x01)\n        /* \"#utility.yul\":1285:1339   */\n      dup2\n      and\n        /* \"#utility.yul\":1275:1340   */\n      dup2\n      eq\n        /* \"#utility.yul\":1265:1358   */\n      tag_86\n      jumpi\n        /* \"#utility.yul\":1354:1355   */\n      0x00\n        /* \"#utility.yul\":1351:1352   */\n      dup1\n        /* \"#utility.yul\":1344:1356   */\n      revert\n        /* \"#utility.yul\":1265:1358   */\n    tag_86:\n        /* \"#utility.yul\":1168:1364   */\n      swap2\n      swap1\n      pop\n      jump\t// out\n        /* \"#utility.yul\":1369:1555   */\n    tag_39:\n        /* \"#utility.yul\":1428:1434   */\n      0x00\n        /* \"#utility.yul\":1481:1483   */\n      0x20\n        /* \"#utility.yul\":1469:1478   */\n      dup3\n        /* \"#utility.yul\":1460:1467   */\n      dup5\n        /* \"#utility.yul\":1456:1479   */\n      sub\n        /* \"#utility.yul\":1452:1484   */\n      slt\n        /* \"#utility.yul\":1449:1501   */\n      iszero\n      tag_88\n      jumpi\n        /* \"#utility.yul\":1497:1498   */\n      0x00\n        /* \"#utility.yul\":1494:1495   */\n      dup1\n        /* \"#utility.yul\":1487:1499   */\n      revert\n        /* \"#utility.yul\":1449:1501   */\n    tag_88:\n        /* \"#utility.yul\":1520:1549   */\n      tag_83\n        /* \"#utility.yul\":1539:1548   */\n      dup3\n        /* \"#utility.yul\":1520:1549   */\n      tag_76\n      jump\t// in\n        /* \"#utility.yul\":1560:2104   */\n    tag_41:\n        /* \"#utility.yul\":1652:1656   */\n      0x00\n        /* \"#utility.yul\":1658:1664   */\n      dup1\n        /* \"#utility.yul\":1718:1729   */\n      dup4\n        /* \"#utility.yul\":1705:1730   */\n      calldataload\n        /* \"#utility.yul\":1812:1814   */\n      0x1e\n        /* \"#utility.yul\":1808:1815   */\n      not\n        /* \"#utility.yul\":1797:1805   */\n      dup5\n        /* \"#utility.yul\":1781:1795   */\n      calldatasize\n        /* \"#utility.yul\":1777:1806   */\n      sub\n        /* \"#utility.yul\":1773:1816   */\n      add\n        /* \"#utility.yul\":1753:1771   */\n      dup2\n        /* \"#utility.yul\":1749:1817   */\n      slt\n        /* \"#utility.yul\":1739:1835   */\n      tag_91\n      jumpi\n        /* \"#utility.yul\":1831:1832   */\n      0x00\n        /* \"#utility.yul\":1828:1829   */\n      dup1\n        /* \"#utility.yul\":1821:1833   */\n      revert\n        /* \"#utility.yul\":1739:1835   */\n    tag_91:\n        /* \"#utility.yul\":1858:1891   */\n      dup4\n      add\n        /* \"#utility.yul\":1910:1930   */\n      dup1\n      calldataload\n      swap2\n      pop\n        /* \"#utility.yul\":1953:1971   */\n      0xffffffffffffffff\n        /* \"#utility.yul\":1942:1972   */\n      dup3\n      gt\n        /* \"#utility.yul\":1939:1989   */\n      iszero\n      tag_92\n      jumpi\n        /* \"#utility.yul\":1985:1986   */\n      0x00\n        /* \"#utility.yul\":1982:1983   */\n      dup1\n        /* \"#utility.yul\":1975:1987   */\n      revert\n        /* \"#utility.yul\":1939:1989   */\n    tag_92:\n        /* \"#utility.yul\":2018:2022   */\n      0x20\n        /* \"#utility.yul\":2006:2023   */\n      add\n      swap2\n      pop\n        /* \"#utility.yul\":2069:2070   */\n      0x05\n        /* \"#utility.yul\":2065:2079   */\n      dup2\n      swap1\n      shl\n        /* \"#utility.yul\":2049:2063   */\n      calldatasize\n        /* \"#utility.yul\":2045:2080   */\n      sub\n        /* \"#utility.yul\":2035:2081   */\n      dup3\n      sgt\n        /* \"#utility.yul\":2032:2098   */\n      iszero\n      tag_93\n      jumpi\n        /* \"#utility.yul\":2094:2095   */\n      0x00\n        /* \"#utility.yul\":2091:2092   */\n      dup1\n        /* \"#utility.yul\":2084:2096   */\n      revert\n        /* \"#utility.yul\":2032:2098   */\n    tag_93:\n        /* \"#utility.yul\":1560:2104   */\n      swap3\n      pop\n      swap3\n      swap1\n      pop\n      jump\t// out\n        /* \"#utility.yul\":2934:3118   */\n    tag_58:\n      shl(0xe0, 0x4e487b71)\n        /* \"#utility.yul\":2983:2984   */\n      0x00\n        /* \"#utility.yul\":2976:3064   */\n      mstore\n        /* \"#utility.yul\":3083:3087   */\n      0x32\n        /* \"#utility.yul\":3080:3081   */\n      0x04\n        /* \"#utility.yul\":3073:3088   */\n      mstore\n        /* \"#utility.yul\":3107:3111   */\n      0x24\n        /* \"#utility.yul\":3104:3105   */\n      0x00\n        /* \"#utility.yul\":3097:3112   */\n      revert\n        /* \"#utility.yul\":3545:3729   */\n    tag_77:\n      shl(0xe0, 0x4e487b71)\n        /* \"#utility.yul\":3594:3595   */\n      0x00\n        /* \"#utility.yul\":3587:3675   */\n      mstore\n        /* \"#utility.yul\":3694:3698   */\n      0x11\n        /* \"#utility.yul\":3691:3692   */\n      0x04\n        /* \"#utility.yul\":3684:3699   */\n      mstore\n        /* \"#utility.yul\":3718:3722   */\n      0x24\n        /* \"#utility.yul\":3715:3716   */\n      0x00\n        /* \"#utility.yul\":3708:3723   */\n      revert\n        /* \"#utility.yul\":3734:3951   */\n    tag_64:\n        /* \"#utility.yul\":3772:3775   */\n      0x00\n        /* \"#utility.yul\":3800:3826   */\n      0xffffffffffffffffffffffff\n        /* \"#utility.yul\":3861:3863   */\n      dup1\n        /* \"#utility.yul\":3854:3859   */\n      dup4\n        /* \"#utility.yul\":3850:3864   */\n      and\n        /* \"#utility.yul\":3888:3890   */\n      dup2\n        /* \"#utility.yul\":3879:3886   */\n      dup2\n        /* \"#utility.yul\":3876:3891   */\n      eq\n        /* \"#utility.yul\":3873:3914   */\n      iszero\n      tag_101\n      jumpi\n        /* \"#utility.yul\":3894:3912   */\n      tag_101\n      tag_77\n      jump\t// in\n    tag_101:\n        /* \"#utility.yul\":3943:3944   */\n      0x01\n        /* \"#utility.yul\":3930:3945   */\n      add\n      swap4\n        /* \"#utility.yul\":3734:3951   */\n      swap3\n      pop\n      pop\n      pop\n      jump\t// out\n        /* \"#utility.yul\":3956:4091   */\n    tag_66:\n        /* \"#utility.yul\":3995:3998   */\n      0x00\n      not(0x00)\n        /* \"#utility.yul\":4016:4033   */\n      dup3\n      eq\n        /* \"#utility.yul\":4013:4056   */\n      iszero\n      tag_104\n      jumpi\n        /* \"#utility.yul\":4036:4054   */\n      tag_104\n      tag_77\n      jump\t// in\n    tag_104:\n      pop\n        /* \"#utility.yul\":4083:4084   */\n      0x01\n        /* \"#utility.yul\":4072:4085   */\n      add\n      swap1\n        /* \"#utility.yul\":3956:4091   */\n      jump\t// out\n        /* \"#utility.yul\":4096:5468   */\n    tag_68:\n        /* \"#utility.yul\":4238:4242   */\n      0x00\n        /* \"#utility.yul\":4267:4269   */\n      0x20\n        /* \"#utility.yul\":4296:4298   */\n      dup1\n        /* \"#utility.yul\":4285:4294   */\n      dup4\n        /* \"#utility.yul\":4278:4299   */\n      mstore\n        /* \"#utility.yul\":4337:4339   */\n      0x60\n        /* \"#utility.yul\":4326:4335   */\n      dup4\n        /* \"#utility.yul\":4322:4340   */\n      add\n      sub(shl(0xa0, 0x01), 0x01)\n        /* \"#utility.yul\":4380:4406   */\n      tag_106\n        /* \"#utility.yul\":4399:4405   */\n      dup7\n        /* \"#utility.yul\":4380:4406   */\n      tag_76\n      jump\t// in\n    tag_106:\n        /* \"#utility.yul\":4376:4451   */\n      and\n        /* \"#utility.yul\":4371:4373   */\n      dup3\n        /* \"#utility.yul\":4360:4369   */\n      dup6\n        /* \"#utility.yul\":4356:4374   */\n      add\n        /* \"#utility.yul\":4349:4452   */\n      mstore\n        /* \"#utility.yul\":4512:4514   */\n      dup2\n        /* \"#utility.yul\":4504:4510   */\n      dup6\n        /* \"#utility.yul\":4500:4515   */\n      add\n        /* \"#utility.yul\":4487:4516   */\n      calldataload\n        /* \"#utility.yul\":4596:4598   */\n      0x1e\n        /* \"#utility.yul\":4592:4599   */\n      not\n        /* \"#utility.yul\":4583:4589   */\n      dup7\n        /* \"#utility.yul\":4567:4581   */\n      calldatasize\n        /* \"#utility.yul\":4563:4590   */\n      sub\n        /* \"#utility.yul\":4559:4600   */\n      add\n        /* \"#utility.yul\":4539:4557   */\n      dup2\n        /* \"#utility.yul\":4535:4601   */\n      slt\n        /* \"#utility.yul\":4525:4619   */\n      tag_107\n      jumpi\n        /* \"#utility.yul\":4615:4616   */\n      0x00\n        /* \"#utility.yul\":4612:4613   */\n      dup1\n        /* \"#utility.yul\":4605:4617   */\n      revert\n        /* \"#utility.yul\":4525:4619   */\n    tag_107:\n        /* \"#utility.yul\":4641:4672   */\n      dup6\n      add\n        /* \"#utility.yul\":4695:4714   */\n      dup1\n      calldataload\n        /* \"#utility.yul\":4737:4755   */\n      0xffffffffffffffff\n        /* \"#utility.yul\":4726:4756   */\n      dup2\n      gt\n        /* \"#utility.yul\":4723:4773   */\n      iszero\n      tag_108\n      jumpi\n        /* \"#utility.yul\":4769:4770   */\n      0x00\n        /* \"#utility.yul\":4766:4767   */\n      dup1\n        /* \"#utility.yul\":4759:4771   */\n      revert\n        /* \"#utility.yul\":4723:4773   */\n    tag_108:\n        /* \"#utility.yul\":4824:4830   */\n      dup1\n        /* \"#utility.yul\":4821:4822   */\n      0x05\n        /* \"#utility.yul\":4817:4831   */\n      shl\n        /* \"#utility.yul\":4801:4815   */\n      calldatasize\n        /* \"#utility.yul\":4797:4832   */\n      sub\n        /* \"#utility.yul\":4789:4795   */\n      dup8\n        /* \"#utility.yul\":4785:4833   */\n      sgt\n        /* \"#utility.yul\":4782:4850   */\n      iszero\n      tag_109\n      jumpi\n        /* \"#utility.yul\":4846:4847   */\n      0x00\n        /* \"#utility.yul\":4843:4844   */\n      dup1\n        /* \"#utility.yul\":4836:4848   */\n      revert\n        /* \"#utility.yul\":4782:4850   */\n    tag_109:\n        /* \"#utility.yul\":4888:4892   */\n      0x40\n        /* \"#utility.yul\":4866:4886   */\n      dup7\n      dup2\n      add\n        /* \"#utility.yul\":4859:4893   */\n      mstore\n        /* \"#utility.yul\":4928:4950   */\n      swap2\n      dup3\n      swap1\n      mstore\n        /* \"#utility.yul\":5008:5022   */\n      dup3\n      add\n      swap1\n        /* \"#utility.yul\":5040:5041   */\n      0x00\n      swap1\n        /* \"#utility.yul\":4981:4984   */\n      0x80\n        /* \"#utility.yul\":4966:4985   */\n      dup7\n      add\n        /* \"#utility.yul\":5040:5041   */\n      dup3\n        /* \"#utility.yul\":5071:5442   */\n    tag_110:\n        /* \"#utility.yul\":5087:5093   */\n      dup3\n        /* \"#utility.yul\":5082:5085   */\n      dup2\n        /* \"#utility.yul\":5079:5094   */\n      lt\n        /* \"#utility.yul\":5071:5442   */\n      iszero\n      tag_112\n      jumpi\n        /* \"#utility.yul\":5168:5174   */\n      dup5\n        /* \"#utility.yul\":5155:5175   */\n      calldataload\n      not(sub(shl(0xe0, 0x01), 0x01))\n        /* \"#utility.yul\":5202:5209   */\n      dup2\n        /* \"#utility.yul\":5198:5278   */\n      and\n        /* \"#utility.yul\":5313:5315   */\n      dup1\n        /* \"#utility.yul\":5304:5311   */\n      dup3\n        /* \"#utility.yul\":5301:5316   */\n      eq\n        /* \"#utility.yul\":5291:5334   */\n      tag_113\n      jumpi\n        /* \"#utility.yul\":5330:5331   */\n      dup6\n        /* \"#utility.yul\":5327:5328   */\n      dup7\n        /* \"#utility.yul\":5320:5332   */\n      revert\n        /* \"#utility.yul\":5291:5334   */\n    tag_113:\n        /* \"#utility.yul\":5347:5362   */\n      dup4\n      mstore\n      pop\n        /* \"#utility.yul\":5417:5432   */\n      swap4\n      dup6\n      add\n      swap4\n        /* \"#utility.yul\":5382:5394   */\n      swap1\n      dup6\n      add\n      swap1\n        /* \"#utility.yul\":5113:5114   */\n      0x01\n        /* \"#utility.yul\":5104:5115   */\n      add\n        /* \"#utility.yul\":5071:5442   */\n      jump(tag_110)\n    tag_112:\n      pop\n        /* \"#utility.yul\":5459:5462   */\n      swap8\n        /* \"#utility.yul\":4096:5468   */\n      swap7\n      pop\n      pop\n      pop\n      pop\n      pop\n      pop\n      pop\n      jump\t// out\n        /* \"#utility.yul\":5473:6070   */\n    tag_75:\n        /* \"#utility.yul\":5585:5589   */\n      0x00\n        /* \"#utility.yul\":5614:5616   */\n      0x20\n        /* \"#utility.yul\":5643:5645   */\n      dup1\n        /* \"#utility.yul\":5632:5641   */\n      dup4\n        /* \"#utility.yul\":5625:5646   */\n      mstore\n        /* \"#utility.yul\":5675:5681   */\n      dup4\n        /* \"#utility.yul\":5669:5682   */\n      mload\n        /* \"#utility.yul\":5718:5724   */\n      dup1\n        /* \"#utility.yul\":5713:5715   */\n      dup3\n        /* \"#utility.yul\":5702:5711   */\n      dup6\n        /* \"#utility.yul\":5698:5716   */\n      add\n        /* \"#utility.yul\":5691:5725   */\n      mstore\n        /* \"#utility.yul\":5743:5744   */\n      0x00\n        /* \"#utility.yul\":5753:5893   */\n    tag_115:\n        /* \"#utility.yul\":5767:5773   */\n      dup2\n        /* \"#utility.yul\":5764:5765   */\n      dup2\n        /* \"#utility.yul\":5761:5774   */\n      lt\n        /* \"#utility.yul\":5753:5893   */\n      iszero\n      tag_117\n      jumpi\n        /* \"#utility.yul\":5862:5876   */\n      dup6\n      dup2\n      add\n        /* \"#utility.yul\":5858:5881   */\n      dup4\n      add\n        /* \"#utility.yul\":5852:5882   */\n      mload\n        /* \"#utility.yul\":5828:5845   */\n      dup6\n      dup3\n      add\n        /* \"#utility.yul\":5847:5849   */\n      0x40\n        /* \"#utility.yul\":5824:5850   */\n      add\n        /* \"#utility.yul\":5817:5883   */\n      mstore\n        /* \"#utility.yul\":5782:5792   */\n      dup3\n      add\n        /* \"#utility.yul\":5753:5893   */\n      jump(tag_115)\n    tag_117:\n        /* \"#utility.yul\":5911:5917   */\n      dup2\n        /* \"#utility.yul\":5908:5909   */\n      dup2\n        /* \"#utility.yul\":5905:5918   */\n      gt\n        /* \"#utility.yul\":5902:5993   */\n      iszero\n      tag_118\n      jumpi\n        /* \"#utility.yul\":5981:5982   */\n      0x00\n        /* \"#utility.yul\":5976:5978   */\n      0x40\n        /* \"#utility.yul\":5967:5973   */\n      dup4\n        /* \"#utility.yul\":5956:5965   */\n      dup8\n        /* \"#utility.yul\":5952:5974   */\n      add\n        /* \"#utility.yul\":5948:5979   */\n      add\n        /* \"#utility.yul\":5941:5983   */\n      mstore\n        /* \"#utility.yul\":5902:5993   */\n    tag_118:\n      pop\n        /* \"#utility.yul\":6054:6056   */\n      0x1f\n        /* \"#utility.yul\":6033:6048   */\n      add\n      not(0x1f)\n        /* \"#utility.yul\":6029:6058   */\n      and\n        /* \"#utility.yul\":6014:6059   */\n      swap3\n      swap1\n      swap3\n      add\n        /* \"#utility.yul\":6061:6063   */\n      0x40\n        /* \"#utility.yul\":6010:6064   */\n      add\n      swap4\n        /* \"#utility.yul\":5473:6070   */\n      swap3\n      pop\n      pop\n      pop\n      jump\t// out\n    stop\n    data_846ccbeb9c32d4d40d2c1bf991251db6ab65744a2f52b273947cee088a65504b 4c69624469616d6f6e644375743a204e657720666163657420686173206e6f20636f6465\n\n    auxdata: 0xa2646970667358221220f51beb89e0bb75c428c1c1a5271c981a5fdc1902d60b2a711f79bd872102f67164736f6c63430008090033\n}\n",
				"bytecode": {
					"linkReferences": {},
					"object": "6080604052604051610a32380380610a32833981016040819052610022916100d0565b6100358161003b60201b61011e1760201c565b50610100565b7fc8fcad8db84d3cc18b4c41d551ea0ee66dd599cde068d998e57d5e09332c131f80546001600160a01b031981166001600160a01b038481169182179093556040517fc8fcad8db84d3cc18b4c41d551ea0ee66dd599cde068d998e57d5e09332c131c939092169182907f8be0079c531659141344cd1fd0a4f28419497f9722a3daafe3b4186f6b6457e090600090a3505050565b6000602082840312156100e257600080fd5b81516001600160a01b03811681146100f957600080fd5b9392505050565b6109238061010f6000396000f3fe6080604052600436106100225760003560e01c806365907831146100e857610029565b3661002957005b60007fc8fcad8db84d3cc18b4c41d551ea0ee66dd599cde068d998e57d5e09332c131c600080356001600160e01b0319168152602082905260409020549091506001600160a01b0316806100c45760405162461bcd60e51b815260206004820181905260248201527f4469616d6f6e643a2046756e6374696f6e20646f6573206e6f7420657869737460448201526064015b60405180910390fd5b3660008037600080366000845af43d6000803e8080156100e3573d6000f35b3d6000fd5b3480156100f457600080fd5b50610108610103366004610680565b61010a565b005b6101126101c0565b61011b81610261565b50565b7fc8fcad8db84d3cc18b4c41d551ea0ee66dd599cde068d998e57d5e09332c131f805473ffffffffffffffffffffffffffffffffffffffff1981166001600160a01b038481169182179093556040517fc8fcad8db84d3cc18b4c41d551ea0ee66dd599cde068d998e57d5e09332c131c939092169182907f8be0079c531659141344cd1fd0a4f28419497f9722a3daafe3b4186f6b6457e090600090a3505050565b7fc8fcad8db84d3cc18b4c41d551ea0ee66dd599cde068d998e57d5e09332c131f546001600160a01b0316331461025f5760405162461bcd60e51b815260206004820152602260248201527f4c69624469616d6f6e643a204d75737420626520636f6e7472616374206f776e60448201527f657200000000000000000000000000000000000000000000000000000000000060648201526084016100bb565b565b600061027060208301836106de565b9050600061028160208401846106f9565b8080602002602001604051908101604052809392919081815260200183836020028082843760009201919091525050825192935050506103295760405162461bcd60e51b815260206004820152602b60248201527f4c69624469616d6f6e644375743a204e6f2073656c6563746f727320696e206660448201527f6163657420746f2063757400000000000000000000000000000000000000000060648201526084016100bb565b6001600160a01b0382166103a55760405162461bcd60e51b815260206004820152602c60248201527f4c69624469616d6f6e644375743a204164642066616365742063616e2774206260448201527f652061646472657373283029000000000000000000000000000000000000000060648201526084016100bb565b6001600160a01b03821660009081527fc8fcad8db84d3cc18b4c41d551ea0ee66dd599cde068d998e57d5e09332c131d60205260409020547fc8fcad8db84d3cc18b4c41d551ea0ee66dd599cde068d998e57d5e09332c131c906bffffffffffffffffffffffff811661048857610434846040518060600160405280602481526020016108ca60249139610659565b6002820180546001600160a01b03861660008181526001808701602090815260408320820185905590840185559381529290922001805473ffffffffffffffffffffffffffffffffffffffff191690911790555b60005b835181101561061a5760008482815181106104a8576104a861074a565b6020908102919091018101516001600160e01b031981166000908152918690526040909120549091506001600160a01b0316801561054e5760405162461bcd60e51b815260206004820152603560248201527f4c69624469616d6f6e644375743a2043616e2774206164642066756e6374696f60448201527f6e207468617420616c726561647920657869737473000000000000000000000060648201526084016100bb565b6001600160e01b0319821660009081526020868152604080832073ffffffffffffffffffffffffffffffffffffffff19740100000000000000000000000000000000000000006bffffffffffffffffffffffff8a1602166001600160a01b038c1690811790915583526001808901835290832080549182018155835291206008820401805463ffffffff60079093166004026101000a928302191660e085901c929092029190911790558361060281610776565b94505050508080610612906107a2565b91505061048b565b507f870a27c741d6bfa35424e9edf793d7d7b000dc66c0dae57ddac33cdde585b5bb8560405161064a91906107bd565b60405180910390a15050505050565b813b818161067a5760405162461bcd60e51b81526004016100bb9190610874565b50505050565b60006020828403121561069257600080fd5b813567ffffffffffffffff8111156106a957600080fd5b8201604081850312156106bb57600080fd5b9392505050565b80356001600160a01b03811681146106d957600080fd5b919050565b6000602082840312156106f057600080fd5b6106bb826106c2565b6000808335601e1984360301811261071057600080fd5b83018035915067ffffffffffffffff82111561072b57600080fd5b6020019150600581901b360382131561074357600080fd5b9250929050565b634e487b7160e01b600052603260045260246000fd5b634e487b7160e01b600052601160045260246000fd5b60006bffffffffffffffffffffffff8083168181141561079857610798610760565b6001019392505050565b60006000198214156107b6576107b6610760565b5060010190565b60006020808352606083016001600160a01b036107d9866106c2565b168285015281850135601e198636030181126107f457600080fd5b8501803567ffffffffffffffff81111561080d57600080fd5b8060051b360387131561081f57600080fd5b6040868101529182905282019060009060808601825b828110156108685784356001600160e01b03198116808214610855578586fd5b8352509385019390850190600101610835565b50979650505050505050565b600060208083528351808285015260005b818110156108a157858101830151858201604001528201610885565b818111156108b3576000604083870101525b50601f01601f191692909201604001939250505056fe4c69624469616d6f6e644375743a204e657720666163657420686173206e6f20636f6465a2646970667358221220f51beb89e0bb75c428c1c1a5271c981a5fdc1902d60b2a711f79bd872102f67164736f6c63430008090033",
					"opcodes": "PUSH1 0x80 PUSH1 0x40 MSTORE PUSH1 0x40 MLOAD PUSH2 0xA32 CODESIZE SUB DUP1 PUSH2 0xA32 DUP4 CODECOPY DUP2 ADD PUSH1 0x40 DUP2 SWAP1 MSTORE PUSH2 0x22 SWAP2 PUSH2 0xD0 JUMP JUMPDEST PUSH2 0x35 DUP2 PUSH2 0x3B PUSH1 0x20 SHL PUSH2 0x11E OR PUSH1 0x20 SHR JUMP JUMPDEST POP PUSH2 0x100 JUMP JUMPDEST PUSH32 0xC8FCAD8DB84D3CC18B4C41D551EA0EE66DD599CDE068D998E57D5E09332C131F DUP1 SLOAD PUSH1 0x1 PUSH1 0x1 PUSH1 0xA0 SHL SUB NOT DUP2 AND PUSH1 0x1 PUSH1 0x1 PUSH1 0xA0 SHL SUB DUP5 DUP2 AND SWAP2 DUP3 OR SWAP1 SWAP4 SSTORE PUSH1 0x40 MLOAD PUSH32 0xC8FCAD8DB84D3CC18B4C41D551EA0EE66DD599CDE068D998E57D5E09332C131C SWAP4 SWAP1 SWAP3 AND SWAP2 DUP3 SWAP1 PUSH32 0x8BE0079C531659141344CD1FD0A4F28419497F9722A3DAAFE3B4186F6B6457E0 SWAP1 PUSH1 0x0 SWAP1 LOG3 POP POP POP JUMP JUMPDEST PUSH1 0x0 PUSH1 0x20 DUP3 DUP5 SUB SLT ISZERO PUSH2 0xE2 JUMPI PUSH1 0x0 DUP1 REVERT JUMPDEST DUP2 MLOAD PUSH1 0x1 PUSH1 0x1 PUSH1 0xA0 SHL SUB DUP2 AND DUP2 EQ PUSH2 0xF9 JUMPI PUSH1 0x0 DUP1 REVERT JUMPDEST SWAP4 SWAP3 POP POP POP JUMP JUMPDEST PUSH2 0x923 DUP1 PUSH2 0x10F PUSH1 0x0 CODECOPY PUSH1 0x0 RETURN INVALID PUSH1 0x80 PUSH1 0x40 MSTORE PUSH1 0x4 CALLDATASIZE LT PUSH2 0x22 JUMPI PUSH1 0x0 CALLDATALOAD PUSH1 0xE0 SHR DUP1 PUSH4 0x65907831 EQ PUSH2 0xE8 JUMPI PUSH2 0x29 JUMP JUMPDEST CALLDATASIZE PUSH2 0x29 JUMPI STOP JUMPDEST PUSH1 0x0 PUSH32 0xC8FCAD8DB84D3CC18B4C41D551EA0EE66DD599CDE068D998E57D5E09332C131C PUSH1 0x0 DUP1 CALLDATALOAD PUSH1 0x1 PUSH1 0x1 PUSH1 0xE0 SHL SUB NOT AND DUP2 MSTORE PUSH1 0x20 DUP3 SWAP1 MSTORE PUSH1 0x40 SWAP1 KECCAK256 SLOAD SWAP1 SWAP2 POP PUSH1 0x1 PUSH1 0x1 PUSH1 0xA0 SHL SUB AND DUP1 PUSH2 0xC4 JUMPI PUSH1 0x40 MLOAD PUSH3 0x461BCD PUSH1 0xE5 SHL DUP2 MSTORE PUSH1 0x20 PUSH1 0x4 DUP3 ADD DUP2 SWAP1 MSTORE PUSH1 0x24 DUP3 ADD MSTORE PUSH32 0x4469616D6F6E643A2046756E6374696F6E20646F6573206E6F74206578697374 PUSH1 0x44 DUP3 ADD MSTORE PUSH1 0x64 ADD JUMPDEST PUSH1 0x40 MLOAD DUP1 SWAP2 SUB SWAP1 REVERT JUMPDEST CALLDATASIZE PUSH1 0x0 DUP1 CALLDATACOPY PUSH1 0x0 DUP1 CALLDATASIZE PUSH1 0x0 DUP5 GAS DELEGATECALL RETURNDATASIZE PUSH1 0x0 DUP1 RETURNDATACOPY DUP1 DUP1 ISZERO PUSH2 0xE3 JUMPI RETURNDATASIZE PUSH1 0x0 RETURN JUMPDEST RETURNDATASIZE PUSH1 0x0 REVERT JUMPDEST CALLVALUE DUP1 ISZERO PUSH2 0xF4 JUMPI PUSH1 0x0 DUP1 REVERT JUMPDEST POP PUSH2 0x108 PUSH2 0x103 CALLDATASIZE PUSH1 0x4 PUSH2 0x680 JUMP JUMPDEST PUSH2 0x10A JUMP JUMPDEST STOP JUMPDEST PUSH2 0x112 PUSH2 0x1C0 JUMP JUMPDEST PUSH2 0x11B DUP2 PUSH2 0x261 JUMP JUMPDEST POP JUMP JUMPDEST PUSH32 0xC8FCAD8DB84D3CC18B4C41D551EA0EE66DD599CDE068D998E57D5E09332C131F DUP1 SLOAD PUSH20 0xFFFFFFFFFFFFFFFFFFFFFFFFFFFFFFFFFFFFFFFF NOT DUP2 AND PUSH1 0x1 PUSH1 0x1 PUSH1 0xA0 SHL SUB DUP5 DUP2 AND SWAP2 DUP3 OR SWAP1 SWAP4 SSTORE PUSH1 0x40 MLOAD PUSH32 0xC8FCAD8DB84D3CC18B4C41D551EA0EE66DD599CDE068D998E57D5E09332C131C SWAP4 SWAP1 SWAP3 AND SWAP2 DUP3 SWAP1 PUSH32 0x8BE0079C531659141344CD1FD0A4F28419497F9722A3DAAFE3B4186F6B6457E0 SWAP1 PUSH1 0x0 SWAP1 LOG3 POP POP POP JUMP JUMPDEST PUSH32 0xC8FCAD8DB84D3CC18B4C41D551EA0EE66DD599CDE068D998E57D5E09332C131F SLOAD PUSH1 0x1 PUSH1 0x1 PUSH1 0xA0 SHL SUB AND CALLER EQ PUSH2 0x25F JUMPI PUSH1 0x40 MLOAD PUSH3 0x461BCD PUSH1 0xE5 SHL DUP2 MSTORE PUSH1 0x20 PUSH1 0x4 DUP3 ADD MSTORE PUSH1 0x22 PUSH1 0x24 DUP3 ADD MSTORE PUSH32 0x4C69624469616D6F6E643A204D75737420626520636F6E7472616374206F776E PUSH1 0x44 DUP3 ADD MSTORE PUSH32 0x6572000000000000000000000000000000000000000000000000000000000000 PUSH1 0x64 DUP3 ADD MSTORE PUSH1 0x84 ADD PUSH2 0xBB JUMP JUMPDEST JUMP JUMPDEST PUSH1 0x0 PUSH2 0x270 PUSH1 0x20 DUP4 ADD DUP4 PUSH2 0x6DE JUMP JUMPDEST SWAP1 POP PUSH1 0x0 PUSH2 0x281 PUSH1 0x20 DUP5 ADD DUP5 PUSH2 0x6F9 JUMP JUMPDEST DUP1 DUP1 PUSH1 0x20 MUL PUSH1 0x20 ADD PUSH1 0x40 MLOAD SWAP1 DUP2 ADD PUSH1 0x40 MSTORE DUP1 SWAP4 SWAP3 SWAP2 SWAP1 DUP2 DUP2 MSTORE PUSH1 0x20 ADD DUP4 DUP4 PUSH1 0x20 MUL DUP1 DUP3 DUP5 CALLDATACOPY PUSH1 0x0 SWAP3 ADD SWAP2 SWAP1 SWAP2 MSTORE POP POP DUP3 MLOAD SWAP3 SWAP4 POP POP POP PUSH2 0x329 JUMPI PUSH1 0x40 MLOAD PUSH3 0x461BCD PUSH1 0xE5 SHL DUP2 MSTORE PUSH1 0x20 PUSH1 0x4 DUP3 ADD MSTORE PUSH1 0x2B PUSH1 0x24 DUP3 ADD MSTORE PUSH32 0x4C69624469616D6F6E644375743A204E6F2073656C6563746F727320696E2066 PUSH1 0x44 DUP3 ADD MSTORE PUSH32 0x6163657420746F20637574000000000000000000000000000000000000000000 PUSH1 0x64 DUP3 ADD MSTORE PUSH1 0x84 ADD PUSH2 0xBB JUMP JUMPDEST PUSH1 0x1 PUSH1 0x1 PUSH1 0xA0 SHL SUB DUP3 AND PUSH2 0x3A5 JUMPI PUSH1 0x40 MLOAD PUSH3 0x461BCD PUSH1 0xE5 SHL DUP2 MSTORE PUSH1 0x20 PUSH1 0x4 DUP3 ADD MSTORE PUSH1 0x2C PUSH1 0x24 DUP3 ADD MSTORE PUSH32 0x4C69624469616D6F6E644375743A204164642066616365742063616E27742062 PUSH1 0x44 DUP3 ADD MSTORE PUSH32 0x6520616464726573732830290000000000000000000000000000000000000000 PUSH1 0x64 DUP3 ADD MSTORE PUSH1 0x84 ADD PUSH2 0xBB JUMP JUMPDEST PUSH1 0x1 PUSH1 0x1 PUSH1 0xA0 SHL SUB DUP3 AND PUSH1 0x0 SWAP1 DUP2 MSTORE PUSH32 0xC8FCAD8DB84D3CC18B4C41D551EA0EE66DD599CDE068D998E57D5E09332C131D PUSH1 0x20 MSTORE PUSH1 0x40 SWAP1 KECCAK256 SLOAD PUSH32 0xC8FCAD8DB84D3CC18B4C41D551EA0EE66DD599CDE068D998E57D5E09332C131C SWAP1 PUSH12 0xFFFFFFFFFFFFFFFFFFFFFFFF DUP2 AND PUSH2 0x488 JUMPI PUSH2 0x434 DUP5 PUSH1 0x40 MLOAD DUP1 PUSH1 0x60 ADD PUSH1 0x40 MSTORE DUP1 PUSH1 0x24 DUP2 MSTORE PUSH1 0x20 ADD PUSH2 0x8CA PUSH1 0x24 SWAP2 CODECOPY PUSH2 0x659 JUMP JUMPDEST PUSH1 0x2 DUP3 ADD DUP1 SLOAD PUSH1 0x1 PUSH1 0x1 PUSH1 0xA0 SHL SUB DUP7 AND PUSH1 0x0 DUP2 DUP2 MSTORE PUSH1 0x1 DUP1 DUP8 ADD PUSH1 0x20 SWAP1 DUP2 MSTORE PUSH1 0x40 DUP4 KECCAK256 DUP3 ADD DUP6 SWAP1 SSTORE SWAP1 DUP5 ADD DUP6 SSTORE SWAP4 DUP2 MSTORE SWAP3 SWAP1 SWAP3 KECCAK256 ADD DUP1 SLOAD PUSH20 0xFFFFFFFFFFFFFFFFFFFFFFFFFFFFFFFFFFFFFFFF NOT AND SWAP1 SWAP2 OR SWAP1 SSTORE JUMPDEST PUSH1 0x0 JUMPDEST DUP4 MLOAD DUP2 LT ISZERO PUSH2 0x61A JUMPI PUSH1 0x0 DUP5 DUP3 DUP2 MLOAD DUP2 LT PUSH2 0x4A8 JUMPI PUSH2 0x4A8 PUSH2 0x74A JUMP JUMPDEST PUSH1 0x20 SWAP1 DUP2 MUL SWAP2 SWAP1 SWAP2 ADD DUP2 ADD MLOAD PUSH1 0x1 PUSH1 0x1 PUSH1 0xE0 SHL SUB NOT DUP2 AND PUSH1 0x0 SWAP1 DUP2 MSTORE SWAP2 DUP7 SWAP1 MSTORE PUSH1 0x40 SWAP1 SWAP2 KECCAK256 SLOAD SWAP1 SWAP2 POP PUSH1 0x1 PUSH1 0x1 PUSH1 0xA0 SHL SUB AND DUP1 ISZERO PUSH2 0x54E JUMPI PUSH1 0x40 MLOAD PUSH3 0x461BCD PUSH1 0xE5 SHL DUP2 MSTORE PUSH1 0x20 PUSH1 0x4 DUP3 ADD MSTORE PUSH1 0x35 PUSH1 0x24 DUP3 ADD MSTORE PUSH32 0x4C69624469616D6F6E644375743A2043616E2774206164642066756E6374696F PUSH1 0x44 DUP3 ADD MSTORE PUSH32 0x6E207468617420616C7265616479206578697374730000000000000000000000 PUSH1 0x64 DUP3 ADD MSTORE PUSH1 0x84 ADD PUSH2 0xBB JUMP JUMPDEST PUSH1 0x1 PUSH1 0x1 PUSH1 0xE0 SHL SUB NOT DUP3 AND PUSH1 0x0 SWAP1 DUP2 MSTORE PUSH1 0x20 DUP7 DUP2 MSTORE PUSH1 0x40 DUP1 DUP4 KECCAK256 PUSH20 0xFFFFFFFFFFFFFFFFFFFFFFFFFFFFFFFFFFFFFFFF NOT PUSH21 0x10000000000000000000000000000000000000000 PUSH12 0xFFFFFFFFFFFFFFFFFFFFFFFF DUP11 AND MUL AND PUSH1 0x1 PUSH1 0x1 PUSH1 0xA0 SHL SUB DUP13 AND SWAP1 DUP2 OR SWAP1 SWAP2 SSTORE DUP4 MSTORE PUSH1 0x1 DUP1 DUP10 ADD DUP4 MSTORE SWAP1 DUP4 KECCAK256 DUP1 SLOAD SWAP2 DUP3 ADD DUP2 SSTORE DUP4 MSTORE SWAP2 KECCAK256 PUSH1 0x8 DUP3 DIV ADD DUP1 SLOAD PUSH4 0xFFFFFFFF PUSH1 0x7 SWAP1 SWAP4 AND PUSH1 0x4 MUL PUSH2 0x100 EXP SWAP3 DUP4 MUL NOT AND PUSH1 0xE0 DUP6 SWAP1 SHR SWAP3 SWAP1 SWAP3 MUL SWAP2 SWAP1 SWAP2 OR SWAP1 SSTORE DUP4 PUSH2 0x602 DUP2 PUSH2 0x776 JUMP JUMPDEST SWAP5 POP POP POP POP DUP1 DUP1 PUSH2 0x612 SWAP1 PUSH2 0x7A2 JUMP JUMPDEST SWAP2 POP POP PUSH2 0x48B JUMP JUMPDEST POP PUSH32 0x870A27C741D6BFA35424E9EDF793D7D7B000DC66C0DAE57DDAC33CDDE585B5BB DUP6 PUSH1 0x40 MLOAD PUSH2 0x64A SWAP2 SWAP1 PUSH2 0x7BD JUMP JUMPDEST PUSH1 0x40 MLOAD DUP1 SWAP2 SUB SWAP1 LOG1 POP POP POP POP POP JUMP JUMPDEST DUP2 EXTCODESIZE DUP2 DUP2 PUSH2 0x67A JUMPI PUSH1 0x40 MLOAD PUSH3 0x461BCD PUSH1 0xE5 SHL DUP2 MSTORE PUSH1 0x4 ADD PUSH2 0xBB SWAP2 SWAP1 PUSH2 0x874 JUMP JUMPDEST POP POP POP POP JUMP JUMPDEST PUSH1 0x0 PUSH1 0x20 DUP3 DUP5 SUB SLT ISZERO PUSH2 0x692 JUMPI PUSH1 0x0 DUP1 REVERT JUMPDEST DUP2 CALLDATALOAD PUSH8 0xFFFFFFFFFFFFFFFF DUP2 GT ISZERO PUSH2 0x6A9 JUMPI PUSH1 0x0 DUP1 REVERT JUMPDEST DUP3 ADD PUSH1 0x40 DUP2 DUP6 SUB SLT ISZERO PUSH2 0x6BB JUMPI PUSH1 0x0 DUP1 REVERT JUMPDEST SWAP4 SWAP3 POP POP POP JUMP JUMPDEST DUP1 CALLDATALOAD PUSH1 0x1 PUSH1 0x1 PUSH1 0xA0 SHL SUB DUP2 AND DUP2 EQ PUSH2 0x6D9 JUMPI PUSH1 0x0 DUP1 REVERT JUMPDEST SWAP2 SWAP1 POP JUMP JUMPDEST PUSH1 0x0 PUSH1 0x20 DUP3 DUP5 SUB SLT ISZERO PUSH2 0x6F0 JUMPI PUSH1 0x0 DUP1 REVERT JUMPDEST PUSH2 0x6BB DUP3 PUSH2 0x6C2 JUMP JUMPDEST PUSH1 0x0 DUP1 DUP4 CALLDATALOAD PUSH1 0x1E NOT DUP5 CALLDATASIZE SUB ADD DUP2 SLT PUSH2 0x710 JUMPI PUSH1 0x0 DUP1 REVERT JUMPDEST DUP4 ADD DUP1 CALLDATALOAD SWAP2 POP PUSH8 0xFFFFFFFFFFFFFFFF DUP3 GT ISZERO PUSH2 0x72B JUMPI PUSH1 0x0 DUP1 REVERT JUMPDEST PUSH1 0x20 ADD SWAP2 POP PUSH1 0x5 DUP2 SWAP1 SHL CALLDATASIZE SUB DUP3 SGT ISZERO PUSH2 0x743 JUMPI PUSH1 0x0 DUP1 REVERT JUMPDEST SWAP3 POP SWAP3 SWAP1 POP JUMP JUMPDEST PUSH4 0x4E487B71 PUSH1 0xE0 SHL PUSH1 0x0 MSTORE PUSH1 0x32 PUSH1 0x4 MSTORE PUSH1 0x24 PUSH1 0x0 REVERT JUMPDEST PUSH4 0x4E487B71 PUSH1 0xE0 SHL PUSH1 0x0 MSTORE PUSH1 0x11 PUSH1 0x4 MSTORE PUSH1 0x24 PUSH1 0x0 REVERT JUMPDEST PUSH1 0x0 PUSH12 0xFFFFFFFFFFFFFFFFFFFFFFFF DUP1 DUP4 AND DUP2 DUP2 EQ ISZERO PUSH2 0x798 JUMPI PUSH2 0x798 PUSH2 0x760 JUMP JUMPDEST PUSH1 0x1 ADD SWAP4 SWAP3 POP POP POP JUMP JUMPDEST PUSH1 0x0 PUSH1 0x0 NOT DUP3 EQ ISZERO PUSH2 0x7B6 JUMPI PUSH2 0x7B6 PUSH2 0x760 JUMP JUMPDEST POP PUSH1 0x1 ADD SWAP1 JUMP JUMPDEST PUSH1 0x0 PUSH1 0x20 DUP1 DUP4 MSTORE PUSH1 0x60 DUP4 ADD PUSH1 0x1 PUSH1 0x1 PUSH1 0xA0 SHL SUB PUSH2 0x7D9 DUP7 PUSH2 0x6C2 JUMP JUMPDEST AND DUP3 DUP6 ADD MSTORE DUP2 DUP6 ADD CALLDATALOAD PUSH1 0x1E NOT DUP7 CALLDATASIZE SUB ADD DUP2 SLT PUSH2 0x7F4 JUMPI PUSH1 0x0 DUP1 REVERT JUMPDEST DUP6 ADD DUP1 CALLDATALOAD PUSH8 0xFFFFFFFFFFFFFFFF DUP2 GT ISZERO PUSH2 0x80D JUMPI PUSH1 0x0 DUP1 REVERT JUMPDEST DUP1 PUSH1 0x5 SHL CALLDATASIZE SUB DUP8 SGT ISZERO PUSH2 0x81F JUMPI PUSH1 0x0 DUP1 REVERT JUMPDEST PUSH1 0x40 DUP7 DUP2 ADD MSTORE SWAP2 DUP3 SWAP1 MSTORE DUP3 ADD SWAP1 PUSH1 0x0 SWAP1 PUSH1 0x80 DUP7 ADD DUP3 JUMPDEST DUP3 DUP2 LT ISZERO PUSH2 0x868 JUMPI DUP5 CALLDATALOAD PUSH1 0x1 PUSH1 0x1 PUSH1 0xE0 SHL SUB NOT DUP2 AND DUP1 DUP3 EQ PUSH2 0x855 JUMPI DUP6 DUP7 REVERT JUMPDEST DUP4 MSTORE POP SWAP4 DUP6 ADD SWAP4 SWAP1 DUP6 ADD SWAP1 PUSH1 0x1 ADD PUSH2 0x835 JUMP JUMPDEST POP SWAP8 SWAP7 POP POP POP POP POP POP POP JUMP JUMPDEST PUSH1 0x0 PUSH1 0x20 DUP1 DUP4 MSTORE DUP4 MLOAD DUP1 DUP3 DUP6 ADD MSTORE PUSH1 0x0 JUMPDEST DUP2 DUP2 LT ISZERO PUSH2 0x8A1 JUMPI DUP6 DUP2 ADD DUP4 ADD MLOAD DUP6 DUP3 ADD PUSH1 0x40 ADD MSTORE DUP3 ADD PUSH2 0x885 JUMP JUMPDEST DUP2 DUP2 GT ISZERO PUSH2 0x8B3 JUMPI PUSH1 0x0 PUSH1 0x40 DUP4 DUP8 ADD ADD MSTORE JUMPDEST POP PUSH1 0x1F ADD PUSH1 0x1F NOT AND SWAP3 SWAP1 SWAP3 ADD PUSH1 0x40 ADD SWAP4 SWAP3 POP POP POP JUMP INVALID 0x4C PUSH10 0x624469616D6F6E644375 PUSH21 0x3A204E657720666163657420686173206E6F20636F PUSH5 0x65A2646970 PUSH7 0x7358221220F51B 0xEB DUP10 0xE0 0xBB PUSH22 0xC428C1C1A5271C981A5FDC1902D60B2A711F79BD8721 MUL 0xF6 PUSH18 0x64736F6C6343000809003300000000000000 "
				},
				"gasEstimates": {
					"creation": {
						"codeDepositCost": "467800",
						"executionCost": "infinite",
						"totalCost": "infinite"
					},
					"external": {
						"": "infinite",
						"diamondCut((address,bytes4[]))": "infinite"
					}
				},
				"methodIdentifiers": {
					"diamondCut((address,bytes4[]))": "65907831"
				}
			},
			"storageLayout": {
				"storage": [],
				"types": null
			},
			"userdoc": {
				"kind": "user",
				"methods": {},
				"version": 1
			}
		}
	}
}