{
	"Diamond/DiamondCounter.sol": {
		"DiamondCounter": {
			"abi": [
				{
					"inputs": [],
					"stateMutability": "nonpayable",
					"type": "constructor"
				},
				{
					"inputs": [],
					"name": "functionSelector",
					"outputs": [
						{
							"internalType": "bytes4",
							"name": "",
							"type": "bytes4"
						}
					],
					"stateMutability": "view",
					"type": "function"
				},
				{
					"inputs": [],
					"name": "get",
					"outputs": [
						{
							"internalType": "uint256",
							"name": "",
							"type": "uint256"
						}
					],
					"stateMutability": "view",
					"type": "function"
				},
				{
					"inputs": [],
					"name": "increment",
					"outputs": [],
					"stateMutability": "nonpayable",
					"type": "function"
				}
			],
			"devdoc": {
				"kind": "dev",
				"methods": {},
				"version": 1
			},
			"evm": {
				"assembly": "    /* \"Diamond/DiamondCounter.sol\":55:361  contract DiamondCounter {... */\n  mstore(0x40, 0x80)\n    /* \"Diamond/DiamondCounter.sol\":144:224  constructor() {... */\n  callvalue\n  dup1\n  iszero\n  tag_1\n  jumpi\n  0x00\n  dup1\n  revert\ntag_1:\n  pop\n    /* \"Diamond/DiamondCounter.sol\":168:184  functionSelector */\n  0x01\n    /* \"Diamond/DiamondCounter.sol\":168:217  functionSelector = bytes4(keccak256(\"increment\")) */\n  dup1\n  sload\n  not(0xffffffff)\n  and\n  0xe07a44dd\n  or\n  swap1\n  sstore\n    /* \"Diamond/DiamondCounter.sol\":55:361  contract DiamondCounter {... */\n  dataSize(sub_0)\n  dup1\n  dataOffset(sub_0)\n  0x00\n  codecopy\n  0x00\n  return\nstop\n\nsub_0: assembly {\n        /* \"Diamond/DiamondCounter.sol\":55:361  contract DiamondCounter {... */\n      mstore(0x40, 0x80)\n      callvalue\n      dup1\n      iszero\n      tag_1\n      jumpi\n      0x00\n      dup1\n      revert\n    tag_1:\n      pop\n      jumpi(tag_2, lt(calldatasize, 0x04))\n      shr(0xe0, calldataload(0x00))\n      dup1\n      0x6d4ce63c\n      eq\n      tag_3\n      jumpi\n      dup1\n      0xd09de08a\n      eq\n      tag_4\n      jumpi\n      dup1\n      0xe13cf0f0\n      eq\n      tag_5\n      jumpi\n    tag_2:\n      0x00\n      dup1\n      revert\n        /* \"Diamond/DiamondCounter.sol\":283:353  function get() public view returns (uint256) {... */\n    tag_3:\n        /* \"Diamond/DiamondCounter.sol\":319:326  uint256 */\n      0x00\n        /* \"Diamond/DiamondCounter.sol\":345:346  i */\n      sload\n        /* \"Diamond/DiamondCounter.sol\":283:353  function get() public view returns (uint256) {... */\n      mload(0x40)\n        /* \"#utility.yul\":160:185   */\n      swap1\n      dup2\n      mstore\n        /* \"#utility.yul\":148:150   */\n      0x20\n        /* \"#utility.yul\":133:151   */\n      add\n        /* \"Diamond/DiamondCounter.sol\":283:353  function get() public view returns (uint256) {... */\n    tag_8:\n      mload(0x40)\n      dup1\n      swap2\n      sub\n      swap1\n      return\n        /* \"Diamond/DiamondCounter.sol\":229:277  function increment() public {... */\n    tag_4:\n      tag_10\n      tag_11\n      jump\t// in\n    tag_10:\n      stop\n        /* \"Diamond/DiamondCounter.sol\":108:138  bytes4 public functionSelector */\n    tag_5:\n      sload(0x01)\n      tag_12\n      swap1\n      0xe0\n      shl\n      dup2\n      jump\n    tag_12:\n      mload(0x40)\n        /* \"#utility.yul\":370:436   */\n      0xffffffff00000000000000000000000000000000000000000000000000000000\n        /* \"#utility.yul\":358:437   */\n      swap1\n      swap2\n      and\n        /* \"#utility.yul\":340:438   */\n      dup2\n      mstore\n        /* \"#utility.yul\":328:330   */\n      0x20\n        /* \"#utility.yul\":313:331   */\n      add\n        /* \"Diamond/DiamondCounter.sol\":108:138  bytes4 public functionSelector */\n      tag_8\n        /* \"#utility.yul\":196:444   */\n      jump\n        /* \"Diamond/DiamondCounter.sol\":229:277  function increment() public {... */\n    tag_11:\n        /* \"Diamond/DiamondCounter.sol\":267:268  i */\n      0x00\n        /* \"Diamond/DiamondCounter.sol\":267:270  i++ */\n      dup1\n      sload\n      swap1\n        /* \"Diamond/DiamondCounter.sol\":267:268  i */\n      dup1\n        /* \"Diamond/DiamondCounter.sol\":267:270  i++ */\n      tag_18\n      dup4\n      tag_19\n      jump\t// in\n    tag_18:\n      swap2\n      swap1\n      pop\n      sstore\n      pop\n        /* \"Diamond/DiamondCounter.sol\":229:277  function increment() public {... */\n      jump\t// out\n        /* \"#utility.yul\":449:738   */\n    tag_19:\n        /* \"#utility.yul\":488:491   */\n      0x00\n      not(0x00)\n        /* \"#utility.yul\":509:526   */\n      dup3\n      eq\n        /* \"#utility.yul\":506:703   */\n      iszero\n      tag_24\n      jumpi\n        /* \"#utility.yul\":559:636   */\n      0x4e487b7100000000000000000000000000000000000000000000000000000000\n        /* \"#utility.yul\":556:557   */\n      0x00\n        /* \"#utility.yul\":549:637   */\n      mstore\n        /* \"#utility.yul\":660:664   */\n      0x11\n        /* \"#utility.yul\":657:658   */\n      0x04\n        /* \"#utility.yul\":650:665   */\n      mstore\n        /* \"#utility.yul\":688:692   */\n      0x24\n        /* \"#utility.yul\":685:686   */\n      0x00\n        /* \"#utility.yul\":678:693   */\n      revert\n        /* \"#utility.yul\":506:703   */\n    tag_24:\n      pop\n        /* \"#utility.yul\":730:731   */\n      0x01\n        /* \"#utility.yul\":719:732   */\n      add\n      swap1\n        /* \"#utility.yul\":449:738   */\n      jump\t// out\n\n    auxdata: 0xa2646970667358221220a7bd22aee5540b15a67bf439f915a13821b40b8addd9c7d7cc704439e6565e9464736f6c63430008090033\n}\n",
				"bytecode": {
					"linkReferences": {},
					"object": "608060405234801561001057600080fd5b506001805463ffffffff191663e07a44dd179055610126806100336000396000f3fe6080604052348015600f57600080fd5b5060043610603c5760003560e01c80636d4ce63c146041578063d09de08a146057578063e13cf0f014605f575b600080fd5b6000546040519081526020015b60405180910390f35b605d609b565b005b600154606b9060e01b81565b6040517fffffffff000000000000000000000000000000000000000000000000000000009091168152602001604e565b60008054908060a88360af565b9190505550565b600060001982141560e9577f4e487b7100000000000000000000000000000000000000000000000000000000600052601160045260246000fd5b506001019056fea2646970667358221220a7bd22aee5540b15a67bf439f915a13821b40b8addd9c7d7cc704439e6565e9464736f6c63430008090033",
					"opcodes": "PUSH1 0x80 PUSH1 0x40 MSTORE CALLVALUE DUP1 ISZERO PUSH2 0x10 JUMPI PUSH1 0x0 DUP1 REVERT JUMPDEST POP PUSH1 0x1 DUP1 SLOAD PUSH4 0xFFFFFFFF NOT AND PUSH4 0xE07A44DD OR SWAP1 SSTORE PUSH2 0x126 DUP1 PUSH2 0x33 PUSH1 0x0 CODECOPY PUSH1 0x0 RETURN INVALID PUSH1 0x80 PUSH1 0x40 MSTORE CALLVALUE DUP1 ISZERO PUSH1 0xF JUMPI PUSH1 0x0 DUP1 REVERT JUMPDEST POP PUSH1 0x4 CALLDATASIZE LT PUSH1 0x3C JUMPI PUSH1 0x0 CALLDATALOAD PUSH1 0xE0 SHR DUP1 PUSH4 0x6D4CE63C EQ PUSH1 0x41 JUMPI DUP1 PUSH4 0xD09DE08A EQ PUSH1 0x57 JUMPI DUP1 PUSH4 0xE13CF0F0 EQ PUSH1 0x5F JUMPI JUMPDEST PUSH1 0x0 DUP1 REVERT JUMPDEST PUSH1 0x0 SLOAD PUSH1 0x40 MLOAD SWAP1 DUP2 MSTORE PUSH1 0x20 ADD JUMPDEST PUSH1 0x40 MLOAD DUP1 SWAP2 SUB SWAP1 RETURN JUMPDEST PUSH1 0x5D PUSH1 0x9B JUMP JUMPDEST STOP JUMPDEST PUSH1 0x1 SLOAD PUSH1 0x6B SWAP1 PUSH1 0xE0 SHL DUP2 JUMP JUMPDEST PUSH1 0x40 MLOAD PUSH32 0xFFFFFFFF00000000000000000000000000000000000000000000000000000000 SWAP1 SWAP2 AND DUP2 MSTORE PUSH1 0x20 ADD PUSH1 0x4E JUMP JUMPDEST PUSH1 0x0 DUP1 SLOAD SWAP1 DUP1 PUSH1 0xA8 DUP4 PUSH1 0xAF JUMP JUMPDEST SWAP2 SWAP1 POP SSTORE POP JUMP JUMPDEST PUSH1 0x0 PUSH1 0x0 NOT DUP3 EQ ISZERO PUSH1 0xE9 JUMPI PUSH32 0x4E487B7100000000000000000000000000000000000000000000000000000000 PUSH1 0x0 MSTORE PUSH1 0x11 PUSH1 0x4 MSTORE PUSH1 0x24 PUSH1 0x0 REVERT JUMPDEST POP PUSH1 0x1 ADD SWAP1 JUMP INVALID LOG2 PUSH5 0x6970667358 0x22 SLT KECCAK256 0xA7 0xBD 0x22 0xAE 0xE5 SLOAD SIGNEXTEND ISZERO 0xA6 PUSH28 0xF439F915A13821B40B8ADDD9C7D7CC704439E6565E9464736F6C6343 STOP ADDMOD MULMOD STOP CALLER "
				},
				"gasEstimates": {
					"creation": {
						"codeDepositCost": "58800",
						"executionCost": "24335",
						"totalCost": "83135"
					},
					"external": {
						"functionSelector()": "2335",
						"get()": "2247",
						"increment()": "24436"
					}
				},
				"methodIdentifiers": {
					"functionSelector()": "e13cf0f0",
					"get()": "6d4ce63c",
					"increment()": "d09de08a"
				}
			},
			"storageLayout": {
				"storage": [
					{
						"astId": 3,
						"contract": "Diamond/DiamondCounter.sol:DiamondCounter",
						"label": "i",
						"offset": 0,
						"slot": "0",
						"type": "t_uint256"
					},
					{
						"astId": 5,
						"contract": "Diamond/DiamondCounter.sol:DiamondCounter",
						"label": "functionSelector",
						"offset": 0,
						"slot": "1",
						"type": "t_bytes4"
					}
				],
				"types": {
					"t_bytes4": {
						"encoding": "inplace",
						"label": "bytes4",
						"numberOfBytes": "4"
					},
					"t_uint256": {
						"encoding": "inplace",
						"label": "uint256",
						"numberOfBytes": "32"
					}
				}
			},
			"userdoc": {
				"kind": "user",
				"methods": {},
				"version": 1
			}
		}
	}
}