{
	".deps/github/OpenZeppelin/openzeppelin-sdk/packages/lib/contracts/upgradeability/InitializableUpgradeabilityProxy.sol": {
		"InitializableUpgradeabilityProxy": {
			"abi": [
				{
					"anonymous": false,
					"inputs": [
						{
							"indexed": true,
							"internalType": "address",
							"name": "implementation",
							"type": "address"
						}
					],
					"name": "Upgraded",
					"type": "event"
				},
				{
					"payable": true,
					"stateMutability": "payable",
					"type": "fallback"
				},
				{
					"constant": false,
					"inputs": [
						{
							"internalType": "address",
							"name": "_logic",
							"type": "address"
						},
						{
							"internalType": "bytes",
							"name": "_data",
							"type": "bytes"
						}
					],
					"name": "initialize",
					"outputs": [],
					"payable": true,
					"stateMutability": "payable",
					"type": "function"
				}
			],
			"devdoc": {
				"details": "Extends BaseUpgradeabilityProxy with an initializer for initializing implementation and init data.",
				"methods": {
					"initialize(address,bytes)": {
						"details": "Contract initializer.",
						"params": {
							"_data": "Data to send as msg.data to the implementation to initialize the proxied contract. It should include the signature and the parameters of the function to be called, as described in https://solidity.readthedocs.io/en/v0.4.24/abi-spec.html#function-selector-and-argument-encoding. This parameter is optional, if no data is given the initialization call to proxied contract will be skipped.",
							"_logic": "Address of the initial implementation."
						}
					}
				},
				"title": "InitializableUpgradeabilityProxy"
			},
			"evm": {
				"assembly": "    /* \".deps/github/OpenZeppelin/openzeppelin-sdk/packages/lib/contracts/upgradeability/InitializableUpgradeabilityProxy.sol\":227:1174  contract InitializableUpgradeabilityProxy is BaseUpgradeabilityProxy {... */\n  mstore(0x40, 0x80)\n  callvalue\n    /* \"--CODEGEN--\":8:17   */\n  dup1\n    /* \"--CODEGEN--\":5:7   */\n  iszero\n  tag_1\n  jumpi\n    /* \"--CODEGEN--\":30:31   */\n  0x00\n    /* \"--CODEGEN--\":27:28   */\n  dup1\n    /* \"--CODEGEN--\":20:32   */\n  revert\n    /* \"--CODEGEN--\":5:7   */\ntag_1:\n    /* \".deps/github/OpenZeppelin/openzeppelin-sdk/packages/lib/contracts/upgradeability/InitializableUpgradeabilityProxy.sol\":227:1174  contract InitializableUpgradeabilityProxy is BaseUpgradeabilityProxy {... */\n  pop\n  dataSize(sub_0)\n  dup1\n  dataOffset(sub_0)\n  0x00\n  codecopy\n  0x00\n  return\nstop\n\nsub_0: assembly {\n        /* \".deps/github/OpenZeppelin/openzeppelin-sdk/packages/lib/contracts/upgradeability/InitializableUpgradeabilityProxy.sol\":227:1174  contract InitializableUpgradeabilityProxy is BaseUpgradeabilityProxy {... */\n      mstore(0x40, 0x80)\n      jumpi(tag_1, lt(calldatasize, 0x04))\n      shr(0xe0, calldataload(0x00))\n      dup1\n      0xd1f57894\n      eq\n      tag_2\n      jumpi\n    tag_1:\n        /* \".deps/github/OpenZeppelin/openzeppelin-sdk/packages/lib/contracts/upgradeability/Proxy.sol\":453:464  _fallback() */\n      tag_5\n        /* \".deps/github/OpenZeppelin/openzeppelin-sdk/packages/lib/contracts/upgradeability/Proxy.sol\":453:462  _fallback */\n      tag_6\n        /* \".deps/github/OpenZeppelin/openzeppelin-sdk/packages/lib/contracts/upgradeability/Proxy.sol\":453:464  _fallback() */\n      jump\t// in\n    tag_5:\n        /* \".deps/github/OpenZeppelin/openzeppelin-sdk/packages/lib/contracts/upgradeability/InitializableUpgradeabilityProxy.sol\":227:1174  contract InitializableUpgradeabilityProxy is BaseUpgradeabilityProxy {... */\n      stop\n        /* \".deps/github/OpenZeppelin/openzeppelin-sdk/packages/lib/contracts/upgradeability/InitializableUpgradeabilityProxy.sol\":822:1170  function initialize(address _logic, bytes memory _data) public payable {... */\n    tag_2:\n      tag_5\n      0x04\n      dup1\n      calldatasize\n      sub\n        /* \"--CODEGEN--\":13:15   */\n      0x40\n        /* \"--CODEGEN--\":8:11   */\n      dup2\n        /* \"--CODEGEN--\":5:16   */\n      lt\n        /* \"--CODEGEN--\":2:4   */\n      iszero\n      tag_8\n      jumpi\n        /* \"--CODEGEN--\":29:30   */\n      0x00\n        /* \"--CODEGEN--\":26:27   */\n      dup1\n        /* \"--CODEGEN--\":19:31   */\n      revert\n        /* \"--CODEGEN--\":2:4   */\n    tag_8:\n        /* \".deps/github/OpenZeppelin/openzeppelin-sdk/packages/lib/contracts/upgradeability/InitializableUpgradeabilityProxy.sol\":822:1170  function initialize(address _logic, bytes memory _data) public payable {... */\n      0xffffffffffffffffffffffffffffffffffffffff\n      dup3\n      calldataload\n      and\n      swap2\n      swap1\n      dup2\n      add\n      swap1\n      0x40\n      dup2\n      add\n      0x20\n      dup3\n      add\n      calldataload\n        /* \"--CODEGEN--\":21:32   */\n      0x0100000000\n        /* \"--CODEGEN--\":5:33   */\n      dup2\n      gt\n        /* \"--CODEGEN--\":2:4   */\n      iszero\n      tag_9\n      jumpi\n        /* \"--CODEGEN--\":46:47   */\n      0x00\n        /* \"--CODEGEN--\":43:44   */\n      dup1\n        /* \"--CODEGEN--\":36:48   */\n      revert\n        /* \"--CODEGEN--\":2:4   */\n    tag_9:\n        /* \".deps/github/OpenZeppelin/openzeppelin-sdk/packages/lib/contracts/upgradeability/InitializableUpgradeabilityProxy.sol\":822:1170  function initialize(address _logic, bytes memory _data) public payable {... */\n      dup3\n      add\n        /* \"--CODEGEN--\":35:44   */\n      dup4\n        /* \"--CODEGEN--\":28:32   */\n      0x20\n        /* \"--CODEGEN--\":12:26   */\n      dup3\n        /* \"--CODEGEN--\":8:33   */\n      add\n        /* \"--CODEGEN--\":5:45   */\n      gt\n        /* \"--CODEGEN--\":2:4   */\n      iszero\n      tag_10\n      jumpi\n        /* \"--CODEGEN--\":58:59   */\n      0x00\n        /* \"--CODEGEN--\":55:56   */\n      dup1\n        /* \"--CODEGEN--\":48:60   */\n      revert\n        /* \"--CODEGEN--\":2:4   */\n    tag_10:\n        /* \".deps/github/OpenZeppelin/openzeppelin-sdk/packages/lib/contracts/upgradeability/InitializableUpgradeabilityProxy.sol\":822:1170  function initialize(address _logic, bytes memory _data) public payable {... */\n      dup1\n      calldataload\n      swap1\n      0x20\n      add\n      swap2\n        /* \"--CODEGEN--\":100:109   */\n      dup5\n        /* \"--CODEGEN--\":95:96   */\n      0x01\n        /* \"--CODEGEN--\":81:93   */\n      dup4\n        /* \"--CODEGEN--\":77:97   */\n      mul\n        /* \"--CODEGEN--\":67:75   */\n      dup5\n        /* \"--CODEGEN--\":63:98   */\n      add\n        /* \"--CODEGEN--\":60:110   */\n      gt\n        /* \"--CODEGEN--\":39:50   */\n      0x0100000000\n        /* \"--CODEGEN--\":25:37   */\n      dup4\n        /* \"--CODEGEN--\":22:51   */\n      gt\n        /* \"--CODEGEN--\":11:118   */\n      or\n        /* \"--CODEGEN--\":8:10   */\n      iszero\n      tag_11\n      jumpi\n        /* \"--CODEGEN--\":131:132   */\n      0x00\n        /* \"--CODEGEN--\":128:129   */\n      dup1\n        /* \"--CODEGEN--\":121:133   */\n      revert\n        /* \"--CODEGEN--\":8:10   */\n    tag_11:\n        /* \".deps/github/OpenZeppelin/openzeppelin-sdk/packages/lib/contracts/upgradeability/InitializableUpgradeabilityProxy.sol\":822:1170  function initialize(address _logic, bytes memory _data) public payable {... */\n      swap2\n      swap1\n      dup1\n      dup1\n      0x1f\n      add\n      0x20\n      dup1\n      swap2\n      div\n      mul\n      0x20\n      add\n      mload(0x40)\n      swap1\n      dup2\n      add\n      0x40\n      mstore\n      dup1\n      swap4\n      swap3\n      swap2\n      swap1\n      dup2\n      dup2\n      mstore\n      0x20\n      add\n      dup4\n      dup4\n        /* \"--CODEGEN--\":30:33   */\n      dup1\n        /* \"--CODEGEN--\":22:28   */\n      dup3\n        /* \"--CODEGEN--\":14:20   */\n      dup5\n        /* \"--CODEGEN--\":1:34   */\n      calldatacopy\n        /* \"--CODEGEN--\":99:100   */\n      0x00\n        /* \"--CODEGEN--\":81:97   */\n      swap3\n      add\n        /* \"--CODEGEN--\":74:101   */\n      swap2\n      swap1\n      swap2\n      mstore\n      pop\n        /* \".deps/github/OpenZeppelin/openzeppelin-sdk/packages/lib/contracts/upgradeability/InitializableUpgradeabilityProxy.sol\":822:1170  function initialize(address _logic, bytes memory _data) public payable {... */\n      swap3\n      swap6\n      pop\n      tag_12\n      swap5\n      pop\n      pop\n      pop\n      pop\n      pop\n      jump\t// in\n        /* \".deps/github/OpenZeppelin/openzeppelin-sdk/packages/lib/contracts/upgradeability/Proxy.sol\":1952:2042  function _fallback() internal {... */\n    tag_6:\n        /* \".deps/github/OpenZeppelin/openzeppelin-sdk/packages/lib/contracts/upgradeability/Proxy.sol\":1988:2003  _willFallback() */\n      tag_14\n        /* \".deps/github/OpenZeppelin/openzeppelin-sdk/packages/lib/contracts/upgradeability/Proxy.sol\":1988:2001  _willFallback */\n      tag_16\n        /* \".deps/github/OpenZeppelin/openzeppelin-sdk/packages/lib/contracts/upgradeability/Proxy.sol\":1988:2003  _willFallback() */\n      jump\t// in\n    tag_14:\n        /* \".deps/github/OpenZeppelin/openzeppelin-sdk/packages/lib/contracts/upgradeability/Proxy.sol\":2009:2037  _delegate(_implementation()) */\n      tag_16\n        /* \".deps/github/OpenZeppelin/openzeppelin-sdk/packages/lib/contracts/upgradeability/Proxy.sol\":2019:2036  _implementation() */\n      tag_17\n        /* \".deps/github/OpenZeppelin/openzeppelin-sdk/packages/lib/contracts/upgradeability/Proxy.sol\":2019:2034  _implementation */\n      tag_18\n        /* \".deps/github/OpenZeppelin/openzeppelin-sdk/packages/lib/contracts/upgradeability/Proxy.sol\":2019:2036  _implementation() */\n      jump\t// in\n    tag_17:\n        /* \".deps/github/OpenZeppelin/openzeppelin-sdk/packages/lib/contracts/upgradeability/Proxy.sol\":2009:2018  _delegate */\n      tag_19\n        /* \".deps/github/OpenZeppelin/openzeppelin-sdk/packages/lib/contracts/upgradeability/Proxy.sol\":2009:2037  _delegate(_implementation()) */\n      jump\t// in\n    tag_16:\n        /* \".deps/github/OpenZeppelin/openzeppelin-sdk/packages/lib/contracts/upgradeability/Proxy.sol\":1952:2042  function _fallback() internal {... */\n      jump\t// out\n        /* \".deps/github/OpenZeppelin/openzeppelin-sdk/packages/lib/contracts/upgradeability/InitializableUpgradeabilityProxy.sol\":822:1170  function initialize(address _logic, bytes memory _data) public payable {... */\n    tag_12:\n        /* \".deps/github/OpenZeppelin/openzeppelin-sdk/packages/lib/contracts/upgradeability/InitializableUpgradeabilityProxy.sol\":936:937  0 */\n      0x00\n        /* \".deps/github/OpenZeppelin/openzeppelin-sdk/packages/lib/contracts/upgradeability/InitializableUpgradeabilityProxy.sol\":907:924  _implementation() */\n      tag_21\n        /* \".deps/github/OpenZeppelin/openzeppelin-sdk/packages/lib/contracts/upgradeability/InitializableUpgradeabilityProxy.sol\":907:922  _implementation */\n      tag_18\n        /* \".deps/github/OpenZeppelin/openzeppelin-sdk/packages/lib/contracts/upgradeability/InitializableUpgradeabilityProxy.sol\":907:924  _implementation() */\n      jump\t// in\n    tag_21:\n        /* \".deps/github/OpenZeppelin/openzeppelin-sdk/packages/lib/contracts/upgradeability/InitializableUpgradeabilityProxy.sol\":907:938  _implementation() == address(0) */\n      0xffffffffffffffffffffffffffffffffffffffff\n      and\n      eq\n        /* \".deps/github/OpenZeppelin/openzeppelin-sdk/packages/lib/contracts/upgradeability/InitializableUpgradeabilityProxy.sol\":899:939  require(_implementation() == address(0)) */\n      tag_22\n      jumpi\n      0x00\n      dup1\n      revert\n    tag_22:\n        /* \".deps/github/OpenZeppelin/openzeppelin-sdk/packages/lib/contracts/upgradeability/InitializableUpgradeabilityProxy.sol\":975:1023  keccak256(\"org.zeppelinos.proxy.implementation\") */\n      mload(0x40)\n      dup1\n      0x23\n      data_7050c9e0f4ca769c69bd3a8ef740bc37934f8e2c036e5a723fd8ee048ed3f8c3\n      dup3\n      codecopy\n      mload(0x40)\n      swap1\n      dup2\n      swap1\n      sub\n      0x23\n      add\n      swap1\n      keccak256\n        /* \".deps/github/OpenZeppelin/openzeppelin-sdk/packages/lib/contracts/upgradeability/BaseUpgradeabilityProxy.sol\":769:835  0x7050c9e0f4ca769c69bd3a8ef740bc37934f8e2c036e5a723fd8ee048ed3f8c3 */\n      0x7050c9e0f4ca769c69bd3a8ef740bc37934f8e2c036e5a723fd8ee048ed3f8c3\n        /* \".deps/github/OpenZeppelin/openzeppelin-sdk/packages/lib/contracts/upgradeability/InitializableUpgradeabilityProxy.sol\":952:1023  IMPLEMENTATION_SLOT == keccak256(\"org.zeppelinos.proxy.implementation\") */\n      eq\n      swap1\n      pop\n        /* \".deps/github/OpenZeppelin/openzeppelin-sdk/packages/lib/contracts/upgradeability/InitializableUpgradeabilityProxy.sol\":945:1024  assert(IMPLEMENTATION_SLOT == keccak256(\"org.zeppelinos.proxy.implementation\")) */\n      tag_23\n      jumpi\n      invalid\n    tag_23:\n        /* \".deps/github/OpenZeppelin/openzeppelin-sdk/packages/lib/contracts/upgradeability/InitializableUpgradeabilityProxy.sol\":1030:1056  _setImplementation(_logic) */\n      tag_24\n        /* \".deps/github/OpenZeppelin/openzeppelin-sdk/packages/lib/contracts/upgradeability/InitializableUpgradeabilityProxy.sol\":1049:1055  _logic */\n      dup3\n        /* \".deps/github/OpenZeppelin/openzeppelin-sdk/packages/lib/contracts/upgradeability/InitializableUpgradeabilityProxy.sol\":1030:1048  _setImplementation */\n      tag_25\n        /* \".deps/github/OpenZeppelin/openzeppelin-sdk/packages/lib/contracts/upgradeability/InitializableUpgradeabilityProxy.sol\":1030:1056  _setImplementation(_logic) */\n      jump\t// in\n    tag_24:\n        /* \".deps/github/OpenZeppelin/openzeppelin-sdk/packages/lib/contracts/upgradeability/InitializableUpgradeabilityProxy.sol\":1065:1077  _data.length */\n      dup1\n      mload\n        /* \".deps/github/OpenZeppelin/openzeppelin-sdk/packages/lib/contracts/upgradeability/InitializableUpgradeabilityProxy.sol\":1065:1081  _data.length > 0 */\n      iszero\n        /* \".deps/github/OpenZeppelin/openzeppelin-sdk/packages/lib/contracts/upgradeability/InitializableUpgradeabilityProxy.sol\":1062:1166  if(_data.length > 0) {... */\n      tag_26\n      jumpi\n        /* \".deps/github/OpenZeppelin/openzeppelin-sdk/packages/lib/contracts/upgradeability/InitializableUpgradeabilityProxy.sol\":1092:1104  bool success */\n      0x00\n        /* \".deps/github/OpenZeppelin/openzeppelin-sdk/packages/lib/contracts/upgradeability/InitializableUpgradeabilityProxy.sol\":1109:1115  _logic */\n      dup3\n        /* \".deps/github/OpenZeppelin/openzeppelin-sdk/packages/lib/contracts/upgradeability/InitializableUpgradeabilityProxy.sol\":1109:1128  _logic.delegatecall */\n      0xffffffffffffffffffffffffffffffffffffffff\n      and\n        /* \".deps/github/OpenZeppelin/openzeppelin-sdk/packages/lib/contracts/upgradeability/InitializableUpgradeabilityProxy.sol\":1129:1134  _data */\n      dup3\n        /* \".deps/github/OpenZeppelin/openzeppelin-sdk/packages/lib/contracts/upgradeability/InitializableUpgradeabilityProxy.sol\":1109:1135  _logic.delegatecall(_data) */\n      mload(0x40)\n      dup1\n      dup3\n      dup1\n      mload\n      swap1\n      0x20\n      add\n      swap1\n      dup1\n      dup4\n      dup4\n        /* \"--CODEGEN--\":36:189   */\n    tag_27:\n        /* \"--CODEGEN--\":66:68   */\n      0x20\n        /* \"--CODEGEN--\":61:64   */\n      dup4\n        /* \"--CODEGEN--\":58:69   */\n      lt\n        /* \"--CODEGEN--\":36:189   */\n      tag_29\n      jumpi\n        /* \"--CODEGEN--\":176:186   */\n      dup1\n      mload\n        /* \"--CODEGEN--\":164:187   */\n      dup3\n      mstore\n      not(0x1f)\n        /* \"--CODEGEN--\":139:151   */\n      swap1\n      swap3\n      add\n      swap2\n        /* \"--CODEGEN--\":98:100   */\n      0x20\n        /* \"--CODEGEN--\":89:101   */\n      swap2\n      dup3\n      add\n      swap2\n        /* \"--CODEGEN--\":114:126   */\n      add\n        /* \"--CODEGEN--\":36:189   */\n      jump(tag_27)\n    tag_29:\n        /* \"--CODEGEN--\":274:275   */\n      0x01\n        /* \"--CODEGEN--\":267:270   */\n      dup4\n        /* \"--CODEGEN--\":263:265   */\n      0x20\n        /* \"--CODEGEN--\":259:271   */\n      sub\n        /* \"--CODEGEN--\":254:257   */\n      0x0100\n        /* \"--CODEGEN--\":250:272   */\n      exp\n        /* \"--CODEGEN--\":246:276   */\n      sub\n        /* \"--CODEGEN--\":315:319   */\n      dup1\n        /* \"--CODEGEN--\":311:320   */\n      not\n        /* \"--CODEGEN--\":305:308   */\n      dup3\n        /* \"--CODEGEN--\":299:309   */\n      mload\n        /* \"--CODEGEN--\":295:321   */\n      and\n        /* \"--CODEGEN--\":356:360   */\n      dup2\n        /* \"--CODEGEN--\":350:353   */\n      dup5\n        /* \"--CODEGEN--\":344:354   */\n      mload\n        /* \"--CODEGEN--\":340:361   */\n      and\n        /* \"--CODEGEN--\":389:396   */\n      dup1\n        /* \"--CODEGEN--\":380:387   */\n      dup3\n        /* \"--CODEGEN--\":377:397   */\n      or\n        /* \"--CODEGEN--\":372:375   */\n      dup6\n        /* \"--CODEGEN--\":365:398   */\n      mstore\n        /* \"--CODEGEN--\":3:402   */\n      pop\n      pop\n      pop\n        /* \".deps/github/OpenZeppelin/openzeppelin-sdk/packages/lib/contracts/upgradeability/InitializableUpgradeabilityProxy.sol\":1109:1135  _logic.delegatecall(_data) */\n      pop\n      pop\n      pop\n      swap1\n      pop\n      add\n      swap2\n      pop\n      pop\n      0x00\n      mload(0x40)\n      dup1\n      dup4\n      sub\n      dup2\n      dup6\n      gas\n      delegatecall\n      swap2\n      pop\n      pop\n      returndatasize\n        /* \"--CODEGEN--\":14:15   */\n      dup1\n        /* \"--CODEGEN--\":21:22   */\n      0x00\n        /* \"--CODEGEN--\":16:47   */\n      dup2\n      eq\n      tag_31\n      jumpi\n        /* \"--CODEGEN--\":75:79   */\n      0x40\n        /* \"--CODEGEN--\":69:80   */\n      mload\n        /* \"--CODEGEN--\":64:80   */\n      swap2\n      pop\n        /* \"--CODEGEN--\":144:148   */\n      0x1f\n        /* \"--CODEGEN--\":140:149   */\n      not\n        /* \"--CODEGEN--\":133:137   */\n      0x3f\n        /* \"--CODEGEN--\":115:131   */\n      returndatasize\n        /* \"--CODEGEN--\":111:138   */\n      add\n        /* \"--CODEGEN--\":107:150   */\n      and\n        /* \"--CODEGEN--\":104:105   */\n      dup3\n        /* \"--CODEGEN--\":100:151   */\n      add\n        /* \"--CODEGEN--\":94:98   */\n      0x40\n        /* \"--CODEGEN--\":87:152   */\n      mstore\n        /* \"--CODEGEN--\":169:185   */\n      returndatasize\n        /* \"--CODEGEN--\":166:167   */\n      dup3\n        /* \"--CODEGEN--\":159:186   */\n      mstore\n        /* \"--CODEGEN--\":225:241   */\n      returndatasize\n        /* \"--CODEGEN--\":222:223   */\n      0x00\n        /* \"--CODEGEN--\":215:219   */\n      0x20\n        /* \"--CODEGEN--\":212:213   */\n      dup5\n        /* \"--CODEGEN--\":208:220   */\n      add\n        /* \"--CODEGEN--\":193:242   */\n      returndatacopy\n        /* \"--CODEGEN--\":7:249   */\n      jump(tag_30)\n        /* \"--CODEGEN--\":16:47   */\n    tag_31:\n        /* \"--CODEGEN--\":36:40   */\n      0x60\n        /* \"--CODEGEN--\":31:40   */\n      swap2\n      pop\n        /* \"--CODEGEN--\":7:249   */\n    tag_30:\n      pop\n        /* \".deps/github/OpenZeppelin/openzeppelin-sdk/packages/lib/contracts/upgradeability/InitializableUpgradeabilityProxy.sol\":1091:1135  (bool success,) = _logic.delegatecall(_data) */\n      pop\n      swap1\n      pop\n        /* \".deps/github/OpenZeppelin/openzeppelin-sdk/packages/lib/contracts/upgradeability/InitializableUpgradeabilityProxy.sol\":1151:1158  success */\n      dup1\n        /* \".deps/github/OpenZeppelin/openzeppelin-sdk/packages/lib/contracts/upgradeability/InitializableUpgradeabilityProxy.sol\":1143:1159  require(success) */\n      tag_32\n      jumpi\n      0x00\n      dup1\n      revert\n    tag_32:\n        /* \".deps/github/OpenZeppelin/openzeppelin-sdk/packages/lib/contracts/upgradeability/InitializableUpgradeabilityProxy.sol\":1062:1166  if(_data.length > 0) {... */\n      pop\n    tag_26:\n        /* \".deps/github/OpenZeppelin/openzeppelin-sdk/packages/lib/contracts/upgradeability/InitializableUpgradeabilityProxy.sol\":822:1170  function initialize(address _logic, bytes memory _data) public payable {... */\n      pop\n      pop\n      jump\t// out\n        /* \".deps/github/OpenZeppelin/openzeppelin-sdk/packages/lib/contracts/upgradeability/BaseUpgradeabilityProxy.sol\":949:1105  function _implementation() internal view returns (address impl) {... */\n    tag_18:\n        /* \".deps/github/OpenZeppelin/openzeppelin-sdk/packages/lib/contracts/upgradeability/BaseUpgradeabilityProxy.sol\":769:835  0x7050c9e0f4ca769c69bd3a8ef740bc37934f8e2c036e5a723fd8ee048ed3f8c3 */\n      0x7050c9e0f4ca769c69bd3a8ef740bc37934f8e2c036e5a723fd8ee048ed3f8c3\n        /* \".deps/github/OpenZeppelin/openzeppelin-sdk/packages/lib/contracts/upgradeability/BaseUpgradeabilityProxy.sol\":1084:1095  sload(slot) */\n      sload\n      swap1\n        /* \".deps/github/OpenZeppelin/openzeppelin-sdk/packages/lib/contracts/upgradeability/BaseUpgradeabilityProxy.sol\":1068:1101  {... */\n      jump\t// out\n        /* \".deps/github/OpenZeppelin/openzeppelin-sdk/packages/lib/contracts/upgradeability/Proxy.sol\":878:1609  function _delegate(address implementation) internal {... */\n    tag_19:\n        /* \".deps/github/OpenZeppelin/openzeppelin-sdk/packages/lib/contracts/upgradeability/Proxy.sol\":1180:1192  calldatasize */\n      calldatasize\n        /* \".deps/github/OpenZeppelin/openzeppelin-sdk/packages/lib/contracts/upgradeability/Proxy.sol\":1177:1178  0 */\n      0x00\n        /* \".deps/github/OpenZeppelin/openzeppelin-sdk/packages/lib/contracts/upgradeability/Proxy.sol\":1174:1175  0 */\n      dup1\n        /* \".deps/github/OpenZeppelin/openzeppelin-sdk/packages/lib/contracts/upgradeability/Proxy.sol\":1161:1193  calldatacopy(0, 0, calldatasize) */\n      calldatacopy\n        /* \".deps/github/OpenZeppelin/openzeppelin-sdk/packages/lib/contracts/upgradeability/Proxy.sol\":1370:1371  0 */\n      0x00\n        /* \".deps/github/OpenZeppelin/openzeppelin-sdk/packages/lib/contracts/upgradeability/Proxy.sol\":1367:1368  0 */\n      dup1\n        /* \".deps/github/OpenZeppelin/openzeppelin-sdk/packages/lib/contracts/upgradeability/Proxy.sol\":1353:1365  calldatasize */\n      calldatasize\n        /* \".deps/github/OpenZeppelin/openzeppelin-sdk/packages/lib/contracts/upgradeability/Proxy.sol\":1350:1351  0 */\n      0x00\n        /* \".deps/github/OpenZeppelin/openzeppelin-sdk/packages/lib/contracts/upgradeability/Proxy.sol\":1334:1348  implementation */\n      dup5\n        /* \".deps/github/OpenZeppelin/openzeppelin-sdk/packages/lib/contracts/upgradeability/Proxy.sol\":1329:1332  gas */\n      gas\n        /* \".deps/github/OpenZeppelin/openzeppelin-sdk/packages/lib/contracts/upgradeability/Proxy.sol\":1316:1372  delegatecall(gas, implementation, 0, calldatasize, 0, 0) */\n      delegatecall\n        /* \".deps/github/OpenZeppelin/openzeppelin-sdk/packages/lib/contracts/upgradeability/Proxy.sol\":1434:1448  returndatasize */\n      returndatasize\n        /* \".deps/github/OpenZeppelin/openzeppelin-sdk/packages/lib/contracts/upgradeability/Proxy.sol\":1431:1432  0 */\n      0x00\n        /* \".deps/github/OpenZeppelin/openzeppelin-sdk/packages/lib/contracts/upgradeability/Proxy.sol\":1428:1429  0 */\n      dup1\n        /* \".deps/github/OpenZeppelin/openzeppelin-sdk/packages/lib/contracts/upgradeability/Proxy.sol\":1413:1449  returndatacopy(0, 0, returndatasize) */\n      returndatacopy\n        /* \".deps/github/OpenZeppelin/openzeppelin-sdk/packages/lib/contracts/upgradeability/Proxy.sol\":1464:1470  result */\n      dup1\n        /* \".deps/github/OpenZeppelin/openzeppelin-sdk/packages/lib/contracts/upgradeability/Proxy.sol\":1519:1555  case 0 { revert(0, returndatasize) } */\n      dup1\n      iszero\n      tag_37\n      jumpi\n        /* \".deps/github/OpenZeppelin/openzeppelin-sdk/packages/lib/contracts/upgradeability/Proxy.sol\":1582:1596  returndatasize */\n      returndatasize\n        /* \".deps/github/OpenZeppelin/openzeppelin-sdk/packages/lib/contracts/upgradeability/Proxy.sol\":1579:1580  0 */\n      0x00\n        /* \".deps/github/OpenZeppelin/openzeppelin-sdk/packages/lib/contracts/upgradeability/Proxy.sol\":1572:1597  return(0, returndatasize) */\n      return\n        /* \".deps/github/OpenZeppelin/openzeppelin-sdk/packages/lib/contracts/upgradeability/Proxy.sol\":1519:1555  case 0 { revert(0, returndatasize) } */\n    tag_37:\n        /* \".deps/github/OpenZeppelin/openzeppelin-sdk/packages/lib/contracts/upgradeability/Proxy.sol\":1538:1552  returndatasize */\n      returndatasize\n        /* \".deps/github/OpenZeppelin/openzeppelin-sdk/packages/lib/contracts/upgradeability/Proxy.sol\":1535:1536  0 */\n      0x00\n        /* \".deps/github/OpenZeppelin/openzeppelin-sdk/packages/lib/contracts/upgradeability/Proxy.sol\":1528:1553  revert(0, returndatasize) */\n      revert\n        /* \".deps/github/OpenZeppelin/openzeppelin-sdk/packages/lib/contracts/upgradeability/BaseUpgradeabilityProxy.sol\":1519:1810  function _setImplementation(address newImplementation) internal {... */\n    tag_25:\n        /* \".deps/github/OpenZeppelin/openzeppelin-sdk/packages/lib/contracts/upgradeability/BaseUpgradeabilityProxy.sol\":1597:1640  ZOSLibAddress.isContract(newImplementation) */\n      tag_39\n        /* \".deps/github/OpenZeppelin/openzeppelin-sdk/packages/lib/contracts/upgradeability/BaseUpgradeabilityProxy.sol\":1622:1639  newImplementation */\n      dup2\n        /* \".deps/github/OpenZeppelin/openzeppelin-sdk/packages/lib/contracts/upgradeability/BaseUpgradeabilityProxy.sol\":1597:1621  ZOSLibAddress.isContract */\n      tag_40\n        /* \".deps/github/OpenZeppelin/openzeppelin-sdk/packages/lib/contracts/upgradeability/BaseUpgradeabilityProxy.sol\":1597:1640  ZOSLibAddress.isContract(newImplementation) */\n      jump\t// in\n    tag_39:\n        /* \".deps/github/OpenZeppelin/openzeppelin-sdk/packages/lib/contracts/upgradeability/BaseUpgradeabilityProxy.sol\":1589:1704  require(ZOSLibAddress.isContract(newImplementation), \"Cannot set a proxy implementation to a non-contract address\") */\n      tag_41\n      jumpi\n      mload(0x40)\n      0x08c379a000000000000000000000000000000000000000000000000000000000\n      dup2\n      mstore\n      0x04\n      add\n      dup1\n      dup1\n      0x20\n      add\n      dup3\n      dup2\n      sub\n      dup3\n      mstore\n      0x3b\n      dup2\n      mstore\n      0x20\n      add\n      dup1\n      data_b5145a64ce8c406e5785204fe5b300f0ceda96d6636350b38fdccb9cd8c0c37c\n      0x3b\n      swap2\n      codecopy\n      0x40\n      add\n      swap2\n      pop\n      pop\n      mload(0x40)\n      dup1\n      swap2\n      sub\n      swap1\n      revert\n    tag_41:\n        /* \".deps/github/OpenZeppelin/openzeppelin-sdk/packages/lib/contracts/upgradeability/BaseUpgradeabilityProxy.sol\":769:835  0x7050c9e0f4ca769c69bd3a8ef740bc37934f8e2c036e5a723fd8ee048ed3f8c3 */\n      0x7050c9e0f4ca769c69bd3a8ef740bc37934f8e2c036e5a723fd8ee048ed3f8c3\n        /* \".deps/github/OpenZeppelin/openzeppelin-sdk/packages/lib/contracts/upgradeability/BaseUpgradeabilityProxy.sol\":1769:1800  sstore(slot, newImplementation) */\n      sstore\n        /* \".deps/github/OpenZeppelin/openzeppelin-sdk/packages/lib/contracts/upgradeability/BaseUpgradeabilityProxy.sol\":1761:1806  {... */\n      jump\t// out\n        /* \".deps/github/OpenZeppelin/openzeppelin-sdk/packages/lib/contracts/utils/Address.sol\":910:1526  function isContract(address account) internal view returns (bool) {... */\n    tag_40:\n        /* \".deps/github/OpenZeppelin/openzeppelin-sdk/packages/lib/contracts/utils/Address.sol\":1473:1493  extcodesize(account) */\n      extcodesize\n        /* \".deps/github/OpenZeppelin/openzeppelin-sdk/packages/lib/contracts/utils/Address.sol\":1511:1519  size > 0 */\n      iszero\n      iszero\n      swap1\n        /* \".deps/github/OpenZeppelin/openzeppelin-sdk/packages/lib/contracts/utils/Address.sol\":910:1526  function isContract(address account) internal view returns (bool) {... */\n      jump\t// out\n    stop\n    data_7050c9e0f4ca769c69bd3a8ef740bc37934f8e2c036e5a723fd8ee048ed3f8c3 6f72672e7a657070656c696e6f732e70726f78792e696d706c656d656e746174696f6e\n    data_b5145a64ce8c406e5785204fe5b300f0ceda96d6636350b38fdccb9cd8c0c37c 43616e6e6f742073657420612070726f787920696d706c656d656e746174696f6e20746f2061206e6f6e2d636f6e74726163742061646472657373\n\n    auxdata: 0xa265627a7a72315820316b16fbef002c001d0f40094f6c785043bce173876c394b9fb64123b9646faa64736f6c63430005110032\n}\n",
				"bytecode": {
					"linkReferences": {},
					"object": "608060405234801561001057600080fd5b506103a6806100206000396000f3fe60806040526004361061001e5760003560e01c8063d1f5789414610028575b6100266100eb565b005b6100266004803603604081101561003e57600080fd5b73ffffffffffffffffffffffffffffffffffffffff823516919081019060408101602082013564010000000081111561007657600080fd5b82018360208201111561008857600080fd5b803590602001918460018302840111640100000000831117156100aa57600080fd5b91908080601f016020809104026020016040519081016040528093929190818152602001838380828437600092019190915250929550610105945050505050565b6100f3610103565b6101036100fe610242565b610267565b565b600061010f610242565b73ffffffffffffffffffffffffffffffffffffffff161461012f57600080fd5b60405180602361031482396040519081900360230190207f7050c9e0f4ca769c69bd3a8ef740bc37934f8e2c036e5a723fd8ee048ed3f8c314905061017057fe5b6101798261028b565b80511561023e5760008273ffffffffffffffffffffffffffffffffffffffff16826040518082805190602001908083835b602083106101c95780518252601f1990920191602091820191016101aa565b6001836020036101000a038019825116818451168082178552505050505050905001915050600060405180830381855af49150503d8060008114610229576040519150601f19603f3d011682016040523d82523d6000602084013e61022e565b606091505b505090508061023c57600080fd5b505b5050565b7f7050c9e0f4ca769c69bd3a8ef740bc37934f8e2c036e5a723fd8ee048ed3f8c35490565b3660008037600080366000845af43d6000803e808015610286573d6000f35b3d6000fd5b6102948161030d565b6102e9576040517f08c379a000000000000000000000000000000000000000000000000000000000815260040180806020018281038252603b815260200180610337603b913960400191505060405180910390fd5b7f7050c9e0f4ca769c69bd3a8ef740bc37934f8e2c036e5a723fd8ee048ed3f8c355565b3b15159056fe6f72672e7a657070656c696e6f732e70726f78792e696d706c656d656e746174696f6e43616e6e6f742073657420612070726f787920696d706c656d656e746174696f6e20746f2061206e6f6e2d636f6e74726163742061646472657373a265627a7a72315820316b16fbef002c001d0f40094f6c785043bce173876c394b9fb64123b9646faa64736f6c63430005110032",
					"opcodes": "PUSH1 0x80 PUSH1 0x40 MSTORE CALLVALUE DUP1 ISZERO PUSH2 0x10 JUMPI PUSH1 0x0 DUP1 REVERT JUMPDEST POP PUSH2 0x3A6 DUP1 PUSH2 0x20 PUSH1 0x0 CODECOPY PUSH1 0x0 RETURN INVALID PUSH1 0x80 PUSH1 0x40 MSTORE PUSH1 0x4 CALLDATASIZE LT PUSH2 0x1E JUMPI PUSH1 0x0 CALLDATALOAD PUSH1 0xE0 SHR DUP1 PUSH4 0xD1F57894 EQ PUSH2 0x28 JUMPI JUMPDEST PUSH2 0x26 PUSH2 0xEB JUMP JUMPDEST STOP JUMPDEST PUSH2 0x26 PUSH1 0x4 DUP1 CALLDATASIZE SUB PUSH1 0x40 DUP2 LT ISZERO PUSH2 0x3E JUMPI PUSH1 0x0 DUP1 REVERT JUMPDEST PUSH20 0xFFFFFFFFFFFFFFFFFFFFFFFFFFFFFFFFFFFFFFFF DUP3 CALLDATALOAD AND SWAP2 SWAP1 DUP2 ADD SWAP1 PUSH1 0x40 DUP2 ADD PUSH1 0x20 DUP3 ADD CALLDATALOAD PUSH5 0x100000000 DUP2 GT ISZERO PUSH2 0x76 JUMPI PUSH1 0x0 DUP1 REVERT JUMPDEST DUP3 ADD DUP4 PUSH1 0x20 DUP3 ADD GT ISZERO PUSH2 0x88 JUMPI PUSH1 0x0 DUP1 REVERT JUMPDEST DUP1 CALLDATALOAD SWAP1 PUSH1 0x20 ADD SWAP2 DUP5 PUSH1 0x1 DUP4 MUL DUP5 ADD GT PUSH5 0x100000000 DUP4 GT OR ISZERO PUSH2 0xAA JUMPI PUSH1 0x0 DUP1 REVERT JUMPDEST SWAP2 SWAP1 DUP1 DUP1 PUSH1 0x1F ADD PUSH1 0x20 DUP1 SWAP2 DIV MUL PUSH1 0x20 ADD PUSH1 0x40 MLOAD SWAP1 DUP2 ADD PUSH1 0x40 MSTORE DUP1 SWAP4 SWAP3 SWAP2 SWAP1 DUP2 DUP2 MSTORE PUSH1 0x20 ADD DUP4 DUP4 DUP1 DUP3 DUP5 CALLDATACOPY PUSH1 0x0 SWAP3 ADD SWAP2 SWAP1 SWAP2 MSTORE POP SWAP3 SWAP6 POP PUSH2 0x105 SWAP5 POP POP POP POP POP JUMP JUMPDEST PUSH2 0xF3 PUSH2 0x103 JUMP JUMPDEST PUSH2 0x103 PUSH2 0xFE PUSH2 0x242 JUMP JUMPDEST PUSH2 0x267 JUMP JUMPDEST JUMP JUMPDEST PUSH1 0x0 PUSH2 0x10F PUSH2 0x242 JUMP JUMPDEST PUSH20 0xFFFFFFFFFFFFFFFFFFFFFFFFFFFFFFFFFFFFFFFF AND EQ PUSH2 0x12F JUMPI PUSH1 0x0 DUP1 REVERT JUMPDEST PUSH1 0x40 MLOAD DUP1 PUSH1 0x23 PUSH2 0x314 DUP3 CODECOPY PUSH1 0x40 MLOAD SWAP1 DUP2 SWAP1 SUB PUSH1 0x23 ADD SWAP1 KECCAK256 PUSH32 0x7050C9E0F4CA769C69BD3A8EF740BC37934F8E2C036E5A723FD8EE048ED3F8C3 EQ SWAP1 POP PUSH2 0x170 JUMPI INVALID JUMPDEST PUSH2 0x179 DUP3 PUSH2 0x28B JUMP JUMPDEST DUP1 MLOAD ISZERO PUSH2 0x23E JUMPI PUSH1 0x0 DUP3 PUSH20 0xFFFFFFFFFFFFFFFFFFFFFFFFFFFFFFFFFFFFFFFF AND DUP3 PUSH1 0x40 MLOAD DUP1 DUP3 DUP1 MLOAD SWAP1 PUSH1 0x20 ADD SWAP1 DUP1 DUP4 DUP4 JUMPDEST PUSH1 0x20 DUP4 LT PUSH2 0x1C9 JUMPI DUP1 MLOAD DUP3 MSTORE PUSH1 0x1F NOT SWAP1 SWAP3 ADD SWAP2 PUSH1 0x20 SWAP2 DUP3 ADD SWAP2 ADD PUSH2 0x1AA JUMP JUMPDEST PUSH1 0x1 DUP4 PUSH1 0x20 SUB PUSH2 0x100 EXP SUB DUP1 NOT DUP3 MLOAD AND DUP2 DUP5 MLOAD AND DUP1 DUP3 OR DUP6 MSTORE POP POP POP POP POP POP SWAP1 POP ADD SWAP2 POP POP PUSH1 0x0 PUSH1 0x40 MLOAD DUP1 DUP4 SUB DUP2 DUP6 GAS DELEGATECALL SWAP2 POP POP RETURNDATASIZE DUP1 PUSH1 0x0 DUP2 EQ PUSH2 0x229 JUMPI PUSH1 0x40 MLOAD SWAP2 POP PUSH1 0x1F NOT PUSH1 0x3F RETURNDATASIZE ADD AND DUP3 ADD PUSH1 0x40 MSTORE RETURNDATASIZE DUP3 MSTORE RETURNDATASIZE PUSH1 0x0 PUSH1 0x20 DUP5 ADD RETURNDATACOPY PUSH2 0x22E JUMP JUMPDEST PUSH1 0x60 SWAP2 POP JUMPDEST POP POP SWAP1 POP DUP1 PUSH2 0x23C JUMPI PUSH1 0x0 DUP1 REVERT JUMPDEST POP JUMPDEST POP POP JUMP JUMPDEST PUSH32 0x7050C9E0F4CA769C69BD3A8EF740BC37934F8E2C036E5A723FD8EE048ED3F8C3 SLOAD SWAP1 JUMP JUMPDEST CALLDATASIZE PUSH1 0x0 DUP1 CALLDATACOPY PUSH1 0x0 DUP1 CALLDATASIZE PUSH1 0x0 DUP5 GAS DELEGATECALL RETURNDATASIZE PUSH1 0x0 DUP1 RETURNDATACOPY DUP1 DUP1 ISZERO PUSH2 0x286 JUMPI RETURNDATASIZE PUSH1 0x0 RETURN JUMPDEST RETURNDATASIZE PUSH1 0x0 REVERT JUMPDEST PUSH2 0x294 DUP2 PUSH2 0x30D JUMP JUMPDEST PUSH2 0x2E9 JUMPI PUSH1 0x40 MLOAD PUSH32 0x8C379A000000000000000000000000000000000000000000000000000000000 DUP2 MSTORE PUSH1 0x4 ADD DUP1 DUP1 PUSH1 0x20 ADD DUP3 DUP2 SUB DUP3 MSTORE PUSH1 0x3B DUP2 MSTORE PUSH1 0x20 ADD DUP1 PUSH2 0x337 PUSH1 0x3B SWAP2 CODECOPY PUSH1 0x40 ADD SWAP2 POP POP PUSH1 0x40 MLOAD DUP1 SWAP2 SUB SWAP1 REVERT JUMPDEST PUSH32 0x7050C9E0F4CA769C69BD3A8EF740BC37934F8E2C036E5A723FD8EE048ED3F8C3 SSTORE JUMP JUMPDEST EXTCODESIZE ISZERO ISZERO SWAP1 JUMP INVALID PUSH16 0x72672E7A657070656C696E6F732E7072 PUSH16 0x78792E696D706C656D656E746174696F PUSH15 0x43616E6E6F74207365742061207072 PUSH16 0x787920696D706C656D656E746174696F PUSH15 0x20746F2061206E6F6E2D636F6E7472 PUSH2 0x6374 KECCAK256 PUSH2 0x6464 PUSH19 0x657373A265627A7A72315820316B16FBEF002C STOP SAR 0xF BLOCKHASH MULMOD 0x4F PUSH13 0x785043BCE173876C394B9FB641 0x23 0xB9 PUSH5 0x6FAA64736F PUSH13 0x63430005110032000000000000 "
				},
				"gasEstimates": {
					"creation": {
						"codeDepositCost": "186800",
						"executionCost": "232",
						"totalCost": "187032"
					},
					"external": {
						"": "infinite",
						"initialize(address,bytes)": "infinite"
					}
				},
				"methodIdentifiers": {
					"initialize(address,bytes)": "d1f57894"
				}
			},
			"storageLayout": {
				"storage": [],
				"types": null
			},
			"userdoc": {
				"methods": {}
			}
		}
	}
}