{
	"data": {
		"bytecode": {
			"linkReferences": {},
			"object": "608060405234801561001057600080fd5b50610d8f806100206000396000f3fe608060405234801561001057600080fd5b50600436106101005760003560e01c80636537214711610097578063c0a15e9911610066578063c0a15e991461020f578063c93346ab14610217578063dfbf53ae1461022a578063e9d729ae1461023257610100565b806365372147146101c15780636b0eec1c146101d65780637a26dd31146101e9578063b2fb8e37146101fc57610100565b80631e51c9ea116100d35780631e51c9ea1461016057806326b85ee1146101815780634d50ba3a146101965780636247e5321461019e57610100565b80630500894d1461010557806306540f7e1461012357806313732d791461012b5780631b4613cb14610140575b600080fd5b61010d610245565b60405161011a9190610b36565b60405180910390f35b61010d61024b565b61013e610139366004610a81565b610251565b005b61015361014e366004610a69565b610379565b60405161011a9190610b6c565b61017361016e366004610a69565b61038e565b60405161011a929190610b53565b6101896103b3565b60405161011a9190610b3f565b61010d6103c2565b6101b16101ac366004610a69565b6103c8565b60405161011a9493929190610b91565b6101c9610500565b60405161011a9190610b77565b6101536101e4366004610a69565b610611565b61013e6101f7366004610a2a565b610626565b61015361020a366004610a69565b610741565b610189610784565b610153610225366004610a69565b610793565b6101c96107d6565b6101c9610240366004610a69565b610864565b60075481565b60025481565b6000826040516020016102649190610b36565b60408051601f1981840301815291815281516020928301206000818152600690935291205490915060ff16156102b55760405162461bcd60e51b81526004016102ac90610bce565b60405180910390fd5b600754600081815260046020908152604090912086516102d79288019061088f565b5060008181526004602090815260409091206001810184905584516103049260029092019186019061088f565b5060008281526006602090815260408220805460ff191660019081179091556009805491820181559092528451610360927f6e1540171b6c0c960b71a7020d9f60077f6af931a8bbf590da0223dacf75c7af019186019061088f565b5060075461036f906001610cbf565b6007555050505050565b60056020526000908152604090205460ff1681565b600360205260009081526040902080546001909101546001600160a01b039091169082565b6001546001600160a01b031681565b60085481565b6004602052600090815260409020805481906103e390610cd7565b80601f016020809104026020016040519081016040528092919081815260200182805461040f90610cd7565b801561045c5780601f106104315761010080835404028352916020019161045c565b820191906000526020600020905b81548152906001019060200180831161043f57829003601f168201915b50505050509080600101549080600201805461047790610cd7565b80601f01602080910402602001604051908101604052809291908181526020018280546104a390610cd7565b80156104f05780601f106104c5576101008083540402835291602001916104f0565b820191906000526020600020905b8154815290600101906020018083116104d357829003601f168201915b5050505050908060030154905084565b606060008060005b600954811015610555576000818152600460205260409020600301548310156105435760008181526004602052604090206003015492509050805b8061054d81610d12565b915050610508565b5060008181526004602052604090208054600a919061057390610cd7565b61057e929190610913565b50600a805461058c90610cd7565b80601f01602080910402602001604051908101604052809291908181526020018280546105b890610cd7565b80156106055780601f106105da57610100808354040283529160200191610605565b820191906000526020600020905b8154815290600101906020018083116105e857829003601f168201915b50505050509250505090565b60066020526000908152604090205460ff1681565b600854610634906001610cbf565b60085560405160009061064b908490602001610b36565b60408051601f1981840301815291815281516020928301206000818152600590935291205490915060ff16156106935760405162461bcd60e51b81526004016102ac90610c88565b600954600211156106b65760405162461bcd60e51b81526004016102ac90610c2b565b600081815260036020818152604080842080547fffffffffffffffffffffffff0000000000000000000000000000000000000000166001600160a01b038a1617815560019081018790558685526004909252832090910180549192909161071e908490610cbf565b90915550506000908152600560205260409020805460ff19166001179055505050565b600080826040516020016107559190610b36565b60408051808303601f1901815291815281516020928301206000908152600690925290205460ff169392505050565b6000546001600160a01b031681565b600080826040516020016107a79190610b36565b60408051808303601f1901815291815281516020928301206000908152600590925290205460ff169392505050565b600a80546107e390610cd7565b80601f016020809104026020016040519081016040528092919081815260200182805461080f90610cd7565b801561085c5780601f106108315761010080835404028352916020019161085c565b820191906000526020600020905b81548152906001019060200180831161083f57829003601f168201915b505050505081565b6009818154811061087457600080fd5b9060005260206000200160009150905080546107e390610cd7565b82805461089b90610cd7565b90600052602060002090601f0160209004810192826108bd5760008555610903565b82601f106108d657805160ff1916838001178555610903565b82800160010185558215610903579182015b828111156109035782518255916020019190600101906108e8565b5061090f92915061098e565b5090565b82805461091f90610cd7565b90600052602060002090601f0160209004810192826109415760008555610903565b82601f106109525780548555610903565b8280016001018555821561090357600052602060002091601f016020900482015b82811115610903578254825591600101919060010190610973565b5b8082111561090f576000815560010161098f565b600082601f8301126109b3578081fd5b813567ffffffffffffffff808211156109ce576109ce610d43565b604051601f8301601f19908116603f011681019082821181831017156109f6576109f6610d43565b81604052838152866020858801011115610a0e578485fd5b8360208701602083013792830160200193909352509392505050565b600080600060608486031215610a3e578283fd5b83356001600160a01b0381168114610a54578384fd5b95602085013595506040909401359392505050565b600060208284031215610a7a578081fd5b5035919050565b600080600060608486031215610a95578283fd5b833567ffffffffffffffff80821115610aac578485fd5b610ab8878388016109a3565b9450602086013593506040860135915080821115610ad4578283fd5b50610ae1868287016109a3565b9150509250925092565b60008151808452815b81811015610b1057602081850181015186830182015201610af4565b81811115610b215782602083870101525b50601f01601f19169290920160200192915050565b90815260200190565b6001600160a01b0391909116815260200190565b6001600160a01b03929092168252602082015260400190565b901515815260200190565b600060208252610b8a6020830184610aeb565b9392505050565b600060808252610ba46080830187610aeb565b8560208401528281036040840152610bbc8186610aeb565b91505082606083015295945050505050565b60208082526025908201527f43616e6469646174652068617320616c7265616479206265656e20726567697360408201527f7465726564000000000000000000000000000000000000000000000000000000606082015260800190565b6020808252602b908201527f54686572652063616e277420626520656c656374696f6e20776974682061207360408201527f696e676c65207061727479000000000000000000000000000000000000000000606082015260800190565b6020808252601b908201527f43616e6469646174652068617320616c726561647920766f7465640000000000604082015260600190565b60008219821115610cd257610cd2610d2d565b500190565b600281046001821680610ceb57607f821691505b60208210811415610d0c57634e487b7160e01b600052602260045260246000fd5b50919050565b6000600019821415610d2657610d26610d2d565b5060010190565b634e487b7160e01b600052601160045260246000fd5b634e487b7160e01b600052604160045260246000fdfea26469706673582212208a92e446c4a2426316874dca7979a34c3e37116b767924911b6e2af72a91ecdd64736f6c63430008010033",
			"opcodes": "PUSH1 0x80 PUSH1 0x40 MSTORE CALLVALUE DUP1 ISZERO PUSH2 0x10 JUMPI PUSH1 0x0 DUP1 REVERT JUMPDEST POP PUSH2 0xD8F DUP1 PUSH2 0x20 PUSH1 0x0 CODECOPY PUSH1 0x0 RETURN INVALID PUSH1 0x80 PUSH1 0x40 MSTORE CALLVALUE DUP1 ISZERO PUSH2 0x10 JUMPI PUSH1 0x0 DUP1 REVERT JUMPDEST POP PUSH1 0x4 CALLDATASIZE LT PUSH2 0x100 JUMPI PUSH1 0x0 CALLDATALOAD PUSH1 0xE0 SHR DUP1 PUSH4 0x65372147 GT PUSH2 0x97 JUMPI DUP1 PUSH4 0xC0A15E99 GT PUSH2 0x66 JUMPI DUP1 PUSH4 0xC0A15E99 EQ PUSH2 0x20F JUMPI DUP1 PUSH4 0xC93346AB EQ PUSH2 0x217 JUMPI DUP1 PUSH4 0xDFBF53AE EQ PUSH2 0x22A JUMPI DUP1 PUSH4 0xE9D729AE EQ PUSH2 0x232 JUMPI PUSH2 0x100 JUMP JUMPDEST DUP1 PUSH4 0x65372147 EQ PUSH2 0x1C1 JUMPI DUP1 PUSH4 0x6B0EEC1C EQ PUSH2 0x1D6 JUMPI DUP1 PUSH4 0x7A26DD31 EQ PUSH2 0x1E9 JUMPI DUP1 PUSH4 0xB2FB8E37 EQ PUSH2 0x1FC JUMPI PUSH2 0x100 JUMP JUMPDEST DUP1 PUSH4 0x1E51C9EA GT PUSH2 0xD3 JUMPI DUP1 PUSH4 0x1E51C9EA EQ PUSH2 0x160 JUMPI DUP1 PUSH4 0x26B85EE1 EQ PUSH2 0x181 JUMPI DUP1 PUSH4 0x4D50BA3A EQ PUSH2 0x196 JUMPI DUP1 PUSH4 0x6247E532 EQ PUSH2 0x19E JUMPI PUSH2 0x100 JUMP JUMPDEST DUP1 PUSH4 0x500894D EQ PUSH2 0x105 JUMPI DUP1 PUSH4 0x6540F7E EQ PUSH2 0x123 JUMPI DUP1 PUSH4 0x13732D79 EQ PUSH2 0x12B JUMPI DUP1 PUSH4 0x1B4613CB EQ PUSH2 0x140 JUMPI JUMPDEST PUSH1 0x0 DUP1 REVERT JUMPDEST PUSH2 0x10D PUSH2 0x245 JUMP JUMPDEST PUSH1 0x40 MLOAD PUSH2 0x11A SWAP2 SWAP1 PUSH2 0xB36 JUMP JUMPDEST PUSH1 0x40 MLOAD DUP1 SWAP2 SUB SWAP1 RETURN JUMPDEST PUSH2 0x10D PUSH2 0x24B JUMP JUMPDEST PUSH2 0x13E PUSH2 0x139 CALLDATASIZE PUSH1 0x4 PUSH2 0xA81 JUMP JUMPDEST PUSH2 0x251 JUMP JUMPDEST STOP JUMPDEST PUSH2 0x153 PUSH2 0x14E CALLDATASIZE PUSH1 0x4 PUSH2 0xA69 JUMP JUMPDEST PUSH2 0x379 JUMP JUMPDEST PUSH1 0x40 MLOAD PUSH2 0x11A SWAP2 SWAP1 PUSH2 0xB6C JUMP JUMPDEST PUSH2 0x173 PUSH2 0x16E CALLDATASIZE PUSH1 0x4 PUSH2 0xA69 JUMP JUMPDEST PUSH2 0x38E JUMP JUMPDEST PUSH1 0x40 MLOAD PUSH2 0x11A SWAP3 SWAP2 SWAP1 PUSH2 0xB53 JUMP JUMPDEST PUSH2 0x189 PUSH2 0x3B3 JUMP JUMPDEST PUSH1 0x40 MLOAD PUSH2 0x11A SWAP2 SWAP1 PUSH2 0xB3F JUMP JUMPDEST PUSH2 0x10D PUSH2 0x3C2 JUMP JUMPDEST PUSH2 0x1B1 PUSH2 0x1AC CALLDATASIZE PUSH1 0x4 PUSH2 0xA69 JUMP JUMPDEST PUSH2 0x3C8 JUMP JUMPDEST PUSH1 0x40 MLOAD PUSH2 0x11A SWAP5 SWAP4 SWAP3 SWAP2 SWAP1 PUSH2 0xB91 JUMP JUMPDEST PUSH2 0x1C9 PUSH2 0x500 JUMP JUMPDEST PUSH1 0x40 MLOAD PUSH2 0x11A SWAP2 SWAP1 PUSH2 0xB77 JUMP JUMPDEST PUSH2 0x153 PUSH2 0x1E4 CALLDATASIZE PUSH1 0x4 PUSH2 0xA69 JUMP JUMPDEST PUSH2 0x611 JUMP JUMPDEST PUSH2 0x13E PUSH2 0x1F7 CALLDATASIZE PUSH1 0x4 PUSH2 0xA2A JUMP JUMPDEST PUSH2 0x626 JUMP JUMPDEST PUSH2 0x153 PUSH2 0x20A CALLDATASIZE PUSH1 0x4 PUSH2 0xA69 JUMP JUMPDEST PUSH2 0x741 JUMP JUMPDEST PUSH2 0x189 PUSH2 0x784 JUMP JUMPDEST PUSH2 0x153 PUSH2 0x225 CALLDATASIZE PUSH1 0x4 PUSH2 0xA69 JUMP JUMPDEST PUSH2 0x793 JUMP JUMPDEST PUSH2 0x1C9 PUSH2 0x7D6 JUMP JUMPDEST PUSH2 0x1C9 PUSH2 0x240 CALLDATASIZE PUSH1 0x4 PUSH2 0xA69 JUMP JUMPDEST PUSH2 0x864 JUMP JUMPDEST PUSH1 0x7 SLOAD DUP2 JUMP JUMPDEST PUSH1 0x2 SLOAD DUP2 JUMP JUMPDEST PUSH1 0x0 DUP3 PUSH1 0x40 MLOAD PUSH1 0x20 ADD PUSH2 0x264 SWAP2 SWAP1 PUSH2 0xB36 JUMP JUMPDEST PUSH1 0x40 DUP1 MLOAD PUSH1 0x1F NOT DUP2 DUP5 SUB ADD DUP2 MSTORE SWAP2 DUP2 MSTORE DUP2 MLOAD PUSH1 0x20 SWAP3 DUP4 ADD KECCAK256 PUSH1 0x0 DUP2 DUP2 MSTORE PUSH1 0x6 SWAP1 SWAP4 MSTORE SWAP2 KECCAK256 SLOAD SWAP1 SWAP2 POP PUSH1 0xFF AND ISZERO PUSH2 0x2B5 JUMPI PUSH1 0x40 MLOAD PUSH3 0x461BCD PUSH1 0xE5 SHL DUP2 MSTORE PUSH1 0x4 ADD PUSH2 0x2AC SWAP1 PUSH2 0xBCE JUMP JUMPDEST PUSH1 0x40 MLOAD DUP1 SWAP2 SUB SWAP1 REVERT JUMPDEST PUSH1 0x7 SLOAD PUSH1 0x0 DUP2 DUP2 MSTORE PUSH1 0x4 PUSH1 0x20 SWAP1 DUP2 MSTORE PUSH1 0x40 SWAP1 SWAP2 KECCAK256 DUP7 MLOAD PUSH2 0x2D7 SWAP3 DUP9 ADD SWAP1 PUSH2 0x88F JUMP JUMPDEST POP PUSH1 0x0 DUP2 DUP2 MSTORE PUSH1 0x4 PUSH1 0x20 SWAP1 DUP2 MSTORE PUSH1 0x40 SWAP1 SWAP2 KECCAK256 PUSH1 0x1 DUP2 ADD DUP5 SWAP1 SSTORE DUP5 MLOAD PUSH2 0x304 SWAP3 PUSH1 0x2 SWAP1 SWAP3 ADD SWAP2 DUP7 ADD SWAP1 PUSH2 0x88F JUMP JUMPDEST POP PUSH1 0x0 DUP3 DUP2 MSTORE PUSH1 0x6 PUSH1 0x20 SWAP1 DUP2 MSTORE PUSH1 0x40 DUP3 KECCAK256 DUP1 SLOAD PUSH1 0xFF NOT AND PUSH1 0x1 SWAP1 DUP2 OR SWAP1 SWAP2 SSTORE PUSH1 0x9 DUP1 SLOAD SWAP2 DUP3 ADD DUP2 SSTORE SWAP1 SWAP3 MSTORE DUP5 MLOAD PUSH2 0x360 SWAP3 PUSH32 0x6E1540171B6C0C960B71A7020D9F60077F6AF931A8BBF590DA0223DACF75C7AF ADD SWAP2 DUP7 ADD SWAP1 PUSH2 0x88F JUMP JUMPDEST POP PUSH1 0x7 SLOAD PUSH2 0x36F SWAP1 PUSH1 0x1 PUSH2 0xCBF JUMP JUMPDEST PUSH1 0x7 SSTORE POP POP POP POP POP JUMP JUMPDEST PUSH1 0x5 PUSH1 0x20 MSTORE PUSH1 0x0 SWAP1 DUP2 MSTORE PUSH1 0x40 SWAP1 KECCAK256 SLOAD PUSH1 0xFF AND DUP2 JUMP JUMPDEST PUSH1 0x3 PUSH1 0x20 MSTORE PUSH1 0x0 SWAP1 DUP2 MSTORE PUSH1 0x40 SWAP1 KECCAK256 DUP1 SLOAD PUSH1 0x1 SWAP1 SWAP2 ADD SLOAD PUSH1 0x1 PUSH1 0x1 PUSH1 0xA0 SHL SUB SWAP1 SWAP2 AND SWAP1 DUP3 JUMP JUMPDEST PUSH1 0x1 SLOAD PUSH1 0x1 PUSH1 0x1 PUSH1 0xA0 SHL SUB AND DUP2 JUMP JUMPDEST PUSH1 0x8 SLOAD DUP2 JUMP JUMPDEST PUSH1 0x4 PUSH1 0x20 MSTORE PUSH1 0x0 SWAP1 DUP2 MSTORE PUSH1 0x40 SWAP1 KECCAK256 DUP1 SLOAD DUP2 SWAP1 PUSH2 0x3E3 SWAP1 PUSH2 0xCD7 JUMP JUMPDEST DUP1 PUSH1 0x1F ADD PUSH1 0x20 DUP1 SWAP2 DIV MUL PUSH1 0x20 ADD PUSH1 0x40 MLOAD SWAP1 DUP2 ADD PUSH1 0x40 MSTORE DUP1 SWAP3 SWAP2 SWAP1 DUP2 DUP2 MSTORE PUSH1 0x20 ADD DUP3 DUP1 SLOAD PUSH2 0x40F SWAP1 PUSH2 0xCD7 JUMP JUMPDEST DUP1 ISZERO PUSH2 0x45C JUMPI DUP1 PUSH1 0x1F LT PUSH2 0x431 JUMPI PUSH2 0x100 DUP1 DUP4 SLOAD DIV MUL DUP4 MSTORE SWAP2 PUSH1 0x20 ADD SWAP2 PUSH2 0x45C JUMP JUMPDEST DUP3 ADD SWAP2 SWAP1 PUSH1 0x0 MSTORE PUSH1 0x20 PUSH1 0x0 KECCAK256 SWAP1 JUMPDEST DUP2 SLOAD DUP2 MSTORE SWAP1 PUSH1 0x1 ADD SWAP1 PUSH1 0x20 ADD DUP1 DUP4 GT PUSH2 0x43F JUMPI DUP3 SWAP1 SUB PUSH1 0x1F AND DUP3 ADD SWAP2 JUMPDEST POP POP POP POP POP SWAP1 DUP1 PUSH1 0x1 ADD SLOAD SWAP1 DUP1 PUSH1 0x2 ADD DUP1 SLOAD PUSH2 0x477 SWAP1 PUSH2 0xCD7 JUMP JUMPDEST DUP1 PUSH1 0x1F ADD PUSH1 0x20 DUP1 SWAP2 DIV MUL PUSH1 0x20 ADD PUSH1 0x40 MLOAD SWAP1 DUP2 ADD PUSH1 0x40 MSTORE DUP1 SWAP3 SWAP2 SWAP1 DUP2 DUP2 MSTORE PUSH1 0x20 ADD DUP3 DUP1 SLOAD PUSH2 0x4A3 SWAP1 PUSH2 0xCD7 JUMP JUMPDEST DUP1 ISZERO PUSH2 0x4F0 JUMPI DUP1 PUSH1 0x1F LT PUSH2 0x4C5 JUMPI PUSH2 0x100 DUP1 DUP4 SLOAD DIV MUL DUP4 MSTORE SWAP2 PUSH1 0x20 ADD SWAP2 PUSH2 0x4F0 JUMP JUMPDEST DUP3 ADD SWAP2 SWAP1 PUSH1 0x0 MSTORE PUSH1 0x20 PUSH1 0x0 KECCAK256 SWAP1 JUMPDEST DUP2 SLOAD DUP2 MSTORE SWAP1 PUSH1 0x1 ADD SWAP1 PUSH1 0x20 ADD DUP1 DUP4 GT PUSH2 0x4D3 JUMPI DUP3 SWAP1 SUB PUSH1 0x1F AND DUP3 ADD SWAP2 JUMPDEST POP POP POP POP POP SWAP1 DUP1 PUSH1 0x3 ADD SLOAD SWAP1 POP DUP5 JUMP JUMPDEST PUSH1 0x60 PUSH1 0x0 DUP1 PUSH1 0x0 JUMPDEST PUSH1 0x9 SLOAD DUP2 LT ISZERO PUSH2 0x555 JUMPI PUSH1 0x0 DUP2 DUP2 MSTORE PUSH1 0x4 PUSH1 0x20 MSTORE PUSH1 0x40 SWAP1 KECCAK256 PUSH1 0x3 ADD SLOAD DUP4 LT ISZERO PUSH2 0x543 JUMPI PUSH1 0x0 DUP2 DUP2 MSTORE PUSH1 0x4 PUSH1 0x20 MSTORE PUSH1 0x40 SWAP1 KECCAK256 PUSH1 0x3 ADD SLOAD SWAP3 POP SWAP1 POP DUP1 JUMPDEST DUP1 PUSH2 0x54D DUP2 PUSH2 0xD12 JUMP JUMPDEST SWAP2 POP POP PUSH2 0x508 JUMP JUMPDEST POP PUSH1 0x0 DUP2 DUP2 MSTORE PUSH1 0x4 PUSH1 0x20 MSTORE PUSH1 0x40 SWAP1 KECCAK256 DUP1 SLOAD PUSH1 0xA SWAP2 SWAP1 PUSH2 0x573 SWAP1 PUSH2 0xCD7 JUMP JUMPDEST PUSH2 0x57E SWAP3 SWAP2 SWAP1 PUSH2 0x913 JUMP JUMPDEST POP PUSH1 0xA DUP1 SLOAD PUSH2 0x58C SWAP1 PUSH2 0xCD7 JUMP JUMPDEST DUP1 PUSH1 0x1F ADD PUSH1 0x20 DUP1 SWAP2 DIV MUL PUSH1 0x20 ADD PUSH1 0x40 MLOAD SWAP1 DUP2 ADD PUSH1 0x40 MSTORE DUP1 SWAP3 SWAP2 SWAP1 DUP2 DUP2 MSTORE PUSH1 0x20 ADD DUP3 DUP1 SLOAD PUSH2 0x5B8 SWAP1 PUSH2 0xCD7 JUMP JUMPDEST DUP1 ISZERO PUSH2 0x605 JUMPI DUP1 PUSH1 0x1F LT PUSH2 0x5DA JUMPI PUSH2 0x100 DUP1 DUP4 SLOAD DIV MUL DUP4 MSTORE SWAP2 PUSH1 0x20 ADD SWAP2 PUSH2 0x605 JUMP JUMPDEST DUP3 ADD SWAP2 SWAP1 PUSH1 0x0 MSTORE PUSH1 0x20 PUSH1 0x0 KECCAK256 SWAP1 JUMPDEST DUP2 SLOAD DUP2 MSTORE SWAP1 PUSH1 0x1 ADD SWAP1 PUSH1 0x20 ADD DUP1 DUP4 GT PUSH2 0x5E8 JUMPI DUP3 SWAP1 SUB PUSH1 0x1F AND DUP3 ADD SWAP2 JUMPDEST POP POP POP POP POP SWAP3 POP POP POP SWAP1 JUMP JUMPDEST PUSH1 0x6 PUSH1 0x20 MSTORE PUSH1 0x0 SWAP1 DUP2 MSTORE PUSH1 0x40 SWAP1 KECCAK256 SLOAD PUSH1 0xFF AND DUP2 JUMP JUMPDEST PUSH1 0x8 SLOAD PUSH2 0x634 SWAP1 PUSH1 0x1 PUSH2 0xCBF JUMP JUMPDEST PUSH1 0x8 SSTORE PUSH1 0x40 MLOAD PUSH1 0x0 SWAP1 PUSH2 0x64B SWAP1 DUP5 SWAP1 PUSH1 0x20 ADD PUSH2 0xB36 JUMP JUMPDEST PUSH1 0x40 DUP1 MLOAD PUSH1 0x1F NOT DUP2 DUP5 SUB ADD DUP2 MSTORE SWAP2 DUP2 MSTORE DUP2 MLOAD PUSH1 0x20 SWAP3 DUP4 ADD KECCAK256 PUSH1 0x0 DUP2 DUP2 MSTORE PUSH1 0x5 SWAP1 SWAP4 MSTORE SWAP2 KECCAK256 SLOAD SWAP1 SWAP2 POP PUSH1 0xFF AND ISZERO PUSH2 0x693 JUMPI PUSH1 0x40 MLOAD PUSH3 0x461BCD PUSH1 0xE5 SHL DUP2 MSTORE PUSH1 0x4 ADD PUSH2 0x2AC SWAP1 PUSH2 0xC88 JUMP JUMPDEST PUSH1 0x9 SLOAD PUSH1 0x2 GT ISZERO PUSH2 0x6B6 JUMPI PUSH1 0x40 MLOAD PUSH3 0x461BCD PUSH1 0xE5 SHL DUP2 MSTORE PUSH1 0x4 ADD PUSH2 0x2AC SWAP1 PUSH2 0xC2B JUMP JUMPDEST PUSH1 0x0 DUP2 DUP2 MSTORE PUSH1 0x3 PUSH1 0x20 DUP2 DUP2 MSTORE PUSH1 0x40 DUP1 DUP5 KECCAK256 DUP1 SLOAD PUSH32 0xFFFFFFFFFFFFFFFFFFFFFFFF0000000000000000000000000000000000000000 AND PUSH1 0x1 PUSH1 0x1 PUSH1 0xA0 SHL SUB DUP11 AND OR DUP2 SSTORE PUSH1 0x1 SWAP1 DUP2 ADD DUP8 SWAP1 SSTORE DUP7 DUP6 MSTORE PUSH1 0x4 SWAP1 SWAP3 MSTORE DUP4 KECCAK256 SWAP1 SWAP2 ADD DUP1 SLOAD SWAP2 SWAP3 SWAP1 SWAP2 PUSH2 0x71E SWAP1 DUP5 SWAP1 PUSH2 0xCBF JUMP JUMPDEST SWAP1 SWAP2 SSTORE POP POP PUSH1 0x0 SWAP1 DUP2 MSTORE PUSH1 0x5 PUSH1 0x20 MSTORE PUSH1 0x40 SWAP1 KECCAK256 DUP1 SLOAD PUSH1 0xFF NOT AND PUSH1 0x1 OR SWAP1 SSTORE POP POP POP JUMP JUMPDEST PUSH1 0x0 DUP1 DUP3 PUSH1 0x40 MLOAD PUSH1 0x20 ADD PUSH2 0x755 SWAP2 SWAP1 PUSH2 0xB36 JUMP JUMPDEST PUSH1 0x40 DUP1 MLOAD DUP1 DUP4 SUB PUSH1 0x1F NOT ADD DUP2 MSTORE SWAP2 DUP2 MSTORE DUP2 MLOAD PUSH1 0x20 SWAP3 DUP4 ADD KECCAK256 PUSH1 0x0 SWAP1 DUP2 MSTORE PUSH1 0x6 SWAP1 SWAP3 MSTORE SWAP1 KECCAK256 SLOAD PUSH1 0xFF AND SWAP4 SWAP3 POP POP POP JUMP JUMPDEST PUSH1 0x0 SLOAD PUSH1 0x1 PUSH1 0x1 PUSH1 0xA0 SHL SUB AND DUP2 JUMP JUMPDEST PUSH1 0x0 DUP1 DUP3 PUSH1 0x40 MLOAD PUSH1 0x20 ADD PUSH2 0x7A7 SWAP2 SWAP1 PUSH2 0xB36 JUMP JUMPDEST PUSH1 0x40 DUP1 MLOAD DUP1 DUP4 SUB PUSH1 0x1F NOT ADD DUP2 MSTORE SWAP2 DUP2 MSTORE DUP2 MLOAD PUSH1 0x20 SWAP3 DUP4 ADD KECCAK256 PUSH1 0x0 SWAP1 DUP2 MSTORE PUSH1 0x5 SWAP1 SWAP3 MSTORE SWAP1 KECCAK256 SLOAD PUSH1 0xFF AND SWAP4 SWAP3 POP POP POP JUMP JUMPDEST PUSH1 0xA DUP1 SLOAD PUSH2 0x7E3 SWAP1 PUSH2 0xCD7 JUMP JUMPDEST DUP1 PUSH1 0x1F ADD PUSH1 0x20 DUP1 SWAP2 DIV MUL PUSH1 0x20 ADD PUSH1 0x40 MLOAD SWAP1 DUP2 ADD PUSH1 0x40 MSTORE DUP1 SWAP3 SWAP2 SWAP1 DUP2 DUP2 MSTORE PUSH1 0x20 ADD DUP3 DUP1 SLOAD PUSH2 0x80F SWAP1 PUSH2 0xCD7 JUMP JUMPDEST DUP1 ISZERO PUSH2 0x85C JUMPI DUP1 PUSH1 0x1F LT PUSH2 0x831 JUMPI PUSH2 0x100 DUP1 DUP4 SLOAD DIV MUL DUP4 MSTORE SWAP2 PUSH1 0x20 ADD SWAP2 PUSH2 0x85C JUMP JUMPDEST DUP3 ADD SWAP2 SWAP1 PUSH1 0x0 MSTORE PUSH1 0x20 PUSH1 0x0 KECCAK256 SWAP1 JUMPDEST DUP2 SLOAD DUP2 MSTORE SWAP1 PUSH1 0x1 ADD SWAP1 PUSH1 0x20 ADD DUP1 DUP4 GT PUSH2 0x83F JUMPI DUP3 SWAP1 SUB PUSH1 0x1F AND DUP3 ADD SWAP2 JUMPDEST POP POP POP POP POP DUP2 JUMP JUMPDEST PUSH1 0x9 DUP2 DUP2 SLOAD DUP2 LT PUSH2 0x874 JUMPI PUSH1 0x0 DUP1 REVERT JUMPDEST SWAP1 PUSH1 0x0 MSTORE PUSH1 0x20 PUSH1 0x0 KECCAK256 ADD PUSH1 0x0 SWAP2 POP SWAP1 POP DUP1 SLOAD PUSH2 0x7E3 SWAP1 PUSH2 0xCD7 JUMP JUMPDEST DUP3 DUP1 SLOAD PUSH2 0x89B SWAP1 PUSH2 0xCD7 JUMP JUMPDEST SWAP1 PUSH1 0x0 MSTORE PUSH1 0x20 PUSH1 0x0 KECCAK256 SWAP1 PUSH1 0x1F ADD PUSH1 0x20 SWAP1 DIV DUP2 ADD SWAP3 DUP3 PUSH2 0x8BD JUMPI PUSH1 0x0 DUP6 SSTORE PUSH2 0x903 JUMP JUMPDEST DUP3 PUSH1 0x1F LT PUSH2 0x8D6 JUMPI DUP1 MLOAD PUSH1 0xFF NOT AND DUP4 DUP1 ADD OR DUP6 SSTORE PUSH2 0x903 JUMP JUMPDEST DUP3 DUP1 ADD PUSH1 0x1 ADD DUP6 SSTORE DUP3 ISZERO PUSH2 0x903 JUMPI SWAP2 DUP3 ADD JUMPDEST DUP3 DUP2 GT ISZERO PUSH2 0x903 JUMPI DUP3 MLOAD DUP3 SSTORE SWAP2 PUSH1 0x20 ADD SWAP2 SWAP1 PUSH1 0x1 ADD SWAP1 PUSH2 0x8E8 JUMP JUMPDEST POP PUSH2 0x90F SWAP3 SWAP2 POP PUSH2 0x98E JUMP JUMPDEST POP SWAP1 JUMP JUMPDEST DUP3 DUP1 SLOAD PUSH2 0x91F SWAP1 PUSH2 0xCD7 JUMP JUMPDEST SWAP1 PUSH1 0x0 MSTORE PUSH1 0x20 PUSH1 0x0 KECCAK256 SWAP1 PUSH1 0x1F ADD PUSH1 0x20 SWAP1 DIV DUP2 ADD SWAP3 DUP3 PUSH2 0x941 JUMPI PUSH1 0x0 DUP6 SSTORE PUSH2 0x903 JUMP JUMPDEST DUP3 PUSH1 0x1F LT PUSH2 0x952 JUMPI DUP1 SLOAD DUP6 SSTORE PUSH2 0x903 JUMP JUMPDEST DUP3 DUP1 ADD PUSH1 0x1 ADD DUP6 SSTORE DUP3 ISZERO PUSH2 0x903 JUMPI PUSH1 0x0 MSTORE PUSH1 0x20 PUSH1 0x0 KECCAK256 SWAP2 PUSH1 0x1F ADD PUSH1 0x20 SWAP1 DIV DUP3 ADD JUMPDEST DUP3 DUP2 GT ISZERO PUSH2 0x903 JUMPI DUP3 SLOAD DUP3 SSTORE SWAP2 PUSH1 0x1 ADD SWAP2 SWAP1 PUSH1 0x1 ADD SWAP1 PUSH2 0x973 JUMP JUMPDEST JUMPDEST DUP1 DUP3 GT ISZERO PUSH2 0x90F JUMPI PUSH1 0x0 DUP2 SSTORE PUSH1 0x1 ADD PUSH2 0x98F JUMP JUMPDEST PUSH1 0x0 DUP3 PUSH1 0x1F DUP4 ADD SLT PUSH2 0x9B3 JUMPI DUP1 DUP2 REVERT JUMPDEST DUP2 CALLDATALOAD PUSH8 0xFFFFFFFFFFFFFFFF DUP1 DUP3 GT ISZERO PUSH2 0x9CE JUMPI PUSH2 0x9CE PUSH2 0xD43 JUMP JUMPDEST PUSH1 0x40 MLOAD PUSH1 0x1F DUP4 ADD PUSH1 0x1F NOT SWAP1 DUP2 AND PUSH1 0x3F ADD AND DUP2 ADD SWAP1 DUP3 DUP3 GT DUP2 DUP4 LT OR ISZERO PUSH2 0x9F6 JUMPI PUSH2 0x9F6 PUSH2 0xD43 JUMP JUMPDEST DUP2 PUSH1 0x40 MSTORE DUP4 DUP2 MSTORE DUP7 PUSH1 0x20 DUP6 DUP9 ADD ADD GT ISZERO PUSH2 0xA0E JUMPI DUP5 DUP6 REVERT JUMPDEST DUP4 PUSH1 0x20 DUP8 ADD PUSH1 0x20 DUP4 ADD CALLDATACOPY SWAP3 DUP4 ADD PUSH1 0x20 ADD SWAP4 SWAP1 SWAP4 MSTORE POP SWAP4 SWAP3 POP POP POP JUMP JUMPDEST PUSH1 0x0 DUP1 PUSH1 0x0 PUSH1 0x60 DUP5 DUP7 SUB SLT ISZERO PUSH2 0xA3E JUMPI DUP3 DUP4 REVERT JUMPDEST DUP4 CALLDATALOAD PUSH1 0x1 PUSH1 0x1 PUSH1 0xA0 SHL SUB DUP2 AND DUP2 EQ PUSH2 0xA54 JUMPI DUP4 DUP5 REVERT JUMPDEST SWAP6 PUSH1 0x20 DUP6 ADD CALLDATALOAD SWAP6 POP PUSH1 0x40 SWAP1 SWAP5 ADD CALLDATALOAD SWAP4 SWAP3 POP POP POP JUMP JUMPDEST PUSH1 0x0 PUSH1 0x20 DUP3 DUP5 SUB SLT ISZERO PUSH2 0xA7A JUMPI DUP1 DUP2 REVERT JUMPDEST POP CALLDATALOAD SWAP2 SWAP1 POP JUMP JUMPDEST PUSH1 0x0 DUP1 PUSH1 0x0 PUSH1 0x60 DUP5 DUP7 SUB SLT ISZERO PUSH2 0xA95 JUMPI DUP3 DUP4 REVERT JUMPDEST DUP4 CALLDATALOAD PUSH8 0xFFFFFFFFFFFFFFFF DUP1 DUP3 GT ISZERO PUSH2 0xAAC JUMPI DUP5 DUP6 REVERT JUMPDEST PUSH2 0xAB8 DUP8 DUP4 DUP9 ADD PUSH2 0x9A3 JUMP JUMPDEST SWAP5 POP PUSH1 0x20 DUP7 ADD CALLDATALOAD SWAP4 POP PUSH1 0x40 DUP7 ADD CALLDATALOAD SWAP2 POP DUP1 DUP3 GT ISZERO PUSH2 0xAD4 JUMPI DUP3 DUP4 REVERT JUMPDEST POP PUSH2 0xAE1 DUP7 DUP3 DUP8 ADD PUSH2 0x9A3 JUMP JUMPDEST SWAP2 POP POP SWAP3 POP SWAP3 POP SWAP3 JUMP JUMPDEST PUSH1 0x0 DUP2 MLOAD DUP1 DUP5 MSTORE DUP2 JUMPDEST DUP2 DUP2 LT ISZERO PUSH2 0xB10 JUMPI PUSH1 0x20 DUP2 DUP6 ADD DUP2 ADD MLOAD DUP7 DUP4 ADD DUP3 ADD MSTORE ADD PUSH2 0xAF4 JUMP JUMPDEST DUP2 DUP2 GT ISZERO PUSH2 0xB21 JUMPI DUP3 PUSH1 0x20 DUP4 DUP8 ADD ADD MSTORE JUMPDEST POP PUSH1 0x1F ADD PUSH1 0x1F NOT AND SWAP3 SWAP1 SWAP3 ADD PUSH1 0x20 ADD SWAP3 SWAP2 POP POP JUMP JUMPDEST SWAP1 DUP2 MSTORE PUSH1 0x20 ADD SWAP1 JUMP JUMPDEST PUSH1 0x1 PUSH1 0x1 PUSH1 0xA0 SHL SUB SWAP2 SWAP1 SWAP2 AND DUP2 MSTORE PUSH1 0x20 ADD SWAP1 JUMP JUMPDEST PUSH1 0x1 PUSH1 0x1 PUSH1 0xA0 SHL SUB SWAP3 SWAP1 SWAP3 AND DUP3 MSTORE PUSH1 0x20 DUP3 ADD MSTORE PUSH1 0x40 ADD SWAP1 JUMP JUMPDEST SWAP1 ISZERO ISZERO DUP2 MSTORE PUSH1 0x20 ADD SWAP1 JUMP JUMPDEST PUSH1 0x0 PUSH1 0x20 DUP3 MSTORE PUSH2 0xB8A PUSH1 0x20 DUP4 ADD DUP5 PUSH2 0xAEB JUMP JUMPDEST SWAP4 SWAP3 POP POP POP JUMP JUMPDEST PUSH1 0x0 PUSH1 0x80 DUP3 MSTORE PUSH2 0xBA4 PUSH1 0x80 DUP4 ADD DUP8 PUSH2 0xAEB JUMP JUMPDEST DUP6 PUSH1 0x20 DUP5 ADD MSTORE DUP3 DUP2 SUB PUSH1 0x40 DUP5 ADD MSTORE PUSH2 0xBBC DUP2 DUP7 PUSH2 0xAEB JUMP JUMPDEST SWAP2 POP POP DUP3 PUSH1 0x60 DUP4 ADD MSTORE SWAP6 SWAP5 POP POP POP POP POP JUMP JUMPDEST PUSH1 0x20 DUP1 DUP3 MSTORE PUSH1 0x25 SWAP1 DUP3 ADD MSTORE PUSH32 0x43616E6469646174652068617320616C7265616479206265656E207265676973 PUSH1 0x40 DUP3 ADD MSTORE PUSH32 0x7465726564000000000000000000000000000000000000000000000000000000 PUSH1 0x60 DUP3 ADD MSTORE PUSH1 0x80 ADD SWAP1 JUMP JUMPDEST PUSH1 0x20 DUP1 DUP3 MSTORE PUSH1 0x2B SWAP1 DUP3 ADD MSTORE PUSH32 0x54686572652063616E277420626520656C656374696F6E207769746820612073 PUSH1 0x40 DUP3 ADD MSTORE PUSH32 0x696E676C65207061727479000000000000000000000000000000000000000000 PUSH1 0x60 DUP3 ADD MSTORE PUSH1 0x80 ADD SWAP1 JUMP JUMPDEST PUSH1 0x20 DUP1 DUP3 MSTORE PUSH1 0x1B SWAP1 DUP3 ADD MSTORE PUSH32 0x43616E6469646174652068617320616C726561647920766F7465640000000000 PUSH1 0x40 DUP3 ADD MSTORE PUSH1 0x60 ADD SWAP1 JUMP JUMPDEST PUSH1 0x0 DUP3 NOT DUP3 GT ISZERO PUSH2 0xCD2 JUMPI PUSH2 0xCD2 PUSH2 0xD2D JUMP JUMPDEST POP ADD SWAP1 JUMP JUMPDEST PUSH1 0x2 DUP2 DIV PUSH1 0x1 DUP3 AND DUP1 PUSH2 0xCEB JUMPI PUSH1 0x7F DUP3 AND SWAP2 POP JUMPDEST PUSH1 0x20 DUP3 LT DUP2 EQ ISZERO PUSH2 0xD0C JUMPI PUSH4 0x4E487B71 PUSH1 0xE0 SHL PUSH1 0x0 MSTORE PUSH1 0x22 PUSH1 0x4 MSTORE PUSH1 0x24 PUSH1 0x0 REVERT JUMPDEST POP SWAP2 SWAP1 POP JUMP JUMPDEST PUSH1 0x0 PUSH1 0x0 NOT DUP3 EQ ISZERO PUSH2 0xD26 JUMPI PUSH2 0xD26 PUSH2 0xD2D JUMP JUMPDEST POP PUSH1 0x1 ADD SWAP1 JUMP JUMPDEST PUSH4 0x4E487B71 PUSH1 0xE0 SHL PUSH1 0x0 MSTORE PUSH1 0x11 PUSH1 0x4 MSTORE PUSH1 0x24 PUSH1 0x0 REVERT JUMPDEST PUSH4 0x4E487B71 PUSH1 0xE0 SHL PUSH1 0x0 MSTORE PUSH1 0x41 PUSH1 0x4 MSTORE PUSH1 0x24 PUSH1 0x0 REVERT INVALID LOG2 PUSH5 0x6970667358 0x22 SLT KECCAK256 DUP11 SWAP3 0xE4 CHAINID 0xC4 LOG2 TIMESTAMP PUSH4 0x16874DCA PUSH26 0x79A34C3E37116B767924911B6E2AF72A91ECDD64736F6C634300 ADDMOD ADD STOP CALLER "
		},
		"gasEstimates": {
			"creation": {
				"codeDepositCost": "694200",
				"executionCost": "728",
				"totalCost": "694928"
			},
			"external": {
				"addCandidateDetails(string,uint256,string)": "infinite",
				"addVoterDetails(address,uint256,uint256)": "infinite",
				"candidateDetails(uint256)": "infinite",
				"checkCandidateStatus(uint256)": "1452",
				"checkVoterStatus(uint256)": "1407",
				"hasRegistered(bytes32)": "1228",
				"hasVoted(bytes32)": "1273",
				"listOfParties(uint256)": "infinite",
				"myAddress()": "1115",
				"myUint()": "1074",
				"otherContractAddress()": "1092",
				"partyCounter()": "1052",
				"result()": "infinite",
				"voterCounter()": "1095",
				"voterDetails(bytes32)": "2078",
				"winner()": "infinite"
			}
		},
		"methodIdentifiers": {
			"addCandidateDetails(string,uint256,string)": "13732d79",
			"addVoterDetails(address,uint256,uint256)": "7a26dd31",
			"candidateDetails(uint256)": "6247e532",
			"checkCandidateStatus(uint256)": "b2fb8e37",
			"checkVoterStatus(uint256)": "c93346ab",
			"hasRegistered(bytes32)": "6b0eec1c",
			"hasVoted(bytes32)": "1b4613cb",
			"listOfParties(uint256)": "e9d729ae",
			"myAddress()": "26b85ee1",
			"myUint()": "06540f7e",
			"otherContractAddress()": "c0a15e99",
			"partyCounter()": "0500894d",
			"result()": "65372147",
			"voterCounter()": "4d50ba3a",
			"voterDetails(bytes32)": "1e51c9ea",
			"winner()": "dfbf53ae"
		}
	},
	"abi": [
		{
			"inputs": [
				{
					"internalType": "string",
					"name": "_nameOfCandidate",
					"type": "string"
				},
				{
					"internalType": "uint256",
					"name": "_voterCardNo",
					"type": "uint256"
				},
				{
					"internalType": "string",
					"name": "_partyName",
					"type": "string"
				}
			],
			"name": "addCandidateDetails",
			"outputs": [],
			"stateMutability": "nonpayable",
			"type": "function"
		},
		{
			"inputs": [
				{
					"internalType": "address",
					"name": "_voterAddress",
					"type": "address"
				},
				{
					"internalType": "uint256",
					"name": "_voterCardNo",
					"type": "uint256"
				},
				{
					"internalType": "uint256",
					"name": "_partyNumber",
					"type": "uint256"
				}
			],
			"name": "addVoterDetails",
			"outputs": [],
			"stateMutability": "nonpayable",
			"type": "function"
		},
		{
			"inputs": [
				{
					"internalType": "uint256",
					"name": "",
					"type": "uint256"
				}
			],
			"name": "candidateDetails",
			"outputs": [
				{
					"internalType": "string",
					"name": "nameOfCandidate",
					"type": "string"
				},
				{
					"internalType": "bytes32",
					"name": "voterCardNo",
					"type": "bytes32"
				},
				{
					"internalType": "string",
					"name": "partyName",
					"type": "string"
				},
				{
					"internalType": "uint256",
					"name": "totalVotes",
					"type": "uint256"
				}
			],
			"stateMutability": "view",
			"type": "function"
		},
		{
			"inputs": [
				{
					"internalType": "uint256",
					"name": "_voterCardNo",
					"type": "uint256"
				}
			],
			"name": "checkCandidateStatus",
			"outputs": [
				{
					"internalType": "bool",
					"name": "",
					"type": "bool"
				}
			],
			"stateMutability": "view",
			"type": "function"
		},
		{
			"inputs": [
				{
					"internalType": "uint256",
					"name": "_voterCardNo",
					"type": "uint256"
				}
			],
			"name": "checkVoterStatus",
			"outputs": [
				{
					"internalType": "bool",
					"name": "",
					"type": "bool"
				}
			],
			"stateMutability": "view",
			"type": "function"
		},
		{
			"inputs": [
				{
					"internalType": "bytes32",
					"name": "",
					"type": "bytes32"
				}
			],
			"name": "hasRegistered",
			"outputs": [
				{
					"internalType": "bool",
					"name": "",
					"type": "bool"
				}
			],
			"stateMutability": "view",
			"type": "function"
		},
		{
			"inputs": [
				{
					"internalType": "bytes32",
					"name": "",
					"type": "bytes32"
				}
			],
			"name": "hasVoted",
			"outputs": [
				{
					"internalType": "bool",
					"name": "",
					"type": "bool"
				}
			],
			"stateMutability": "view",
			"type": "function"
		},
		{
			"inputs": [
				{
					"internalType": "uint256",
					"name": "",
					"type": "uint256"
				}
			],
			"name": "listOfParties",
			"outputs": [
				{
					"internalType": "string",
					"name": "",
					"type": "string"
				}
			],
			"stateMutability": "view",
			"type": "function"
		},
		{
			"inputs": [],
			"name": "myAddress",
			"outputs": [
				{
					"internalType": "address",
					"name": "",
					"type": "address"
				}
			],
			"stateMutability": "view",
			"type": "function"
		},
		{
			"inputs": [],
			"name": "myUint",
			"outputs": [
				{
					"internalType": "uint256",
					"name": "",
					"type": "uint256"
				}
			],
			"stateMutability": "view",
			"type": "function"
		},
		{
			"inputs": [],
			"name": "otherContractAddress",
			"outputs": [
				{
					"internalType": "address",
					"name": "",
					"type": "address"
				}
			],
			"stateMutability": "view",
			"type": "function"
		},
		{
			"inputs": [],
			"name": "partyCounter",
			"outputs": [
				{
					"internalType": "uint256",
					"name": "",
					"type": "uint256"
				}
			],
			"stateMutability": "view",
			"type": "function"
		},
		{
			"inputs": [],
			"name": "result",
			"outputs": [
				{
					"internalType": "string",
					"name": "",
					"type": "string"
				}
			],
			"stateMutability": "nonpayable",
			"type": "function"
		},
		{
			"inputs": [],
			"name": "voterCounter",
			"outputs": [
				{
					"internalType": "uint256",
					"name": "",
					"type": "uint256"
				}
			],
			"stateMutability": "view",
			"type": "function"
		},
		{
			"inputs": [
				{
					"internalType": "bytes32",
					"name": "",
					"type": "bytes32"
				}
			],
			"name": "voterDetails",
			"outputs": [
				{
					"internalType": "address",
					"name": "voterAddress",
					"type": "address"
				},
				{
					"internalType": "uint256",
					"name": "partyNumber",
					"type": "uint256"
				}
			],
			"stateMutability": "view",
			"type": "function"
		},
		{
			"inputs": [],
			"name": "winner",
			"outputs": [
				{
					"internalType": "string",
					"name": "",
					"type": "string"
				}
			],
			"stateMutability": "view",
			"type": "function"
		}
	]
}