{
	"data": {
		"bytecode": {
			"linkReferences": {},
			"object": "608060405234801561000f575f80fd5b5060405161016738038061016783398101604081905261002e91610035565b5f5561004c565b5f60208284031215610045575f80fd5b5051919050565b61010e806100595f395ff3fe6080604052348015600e575f80fd5b50600436106030575f3560e01c8063a87d942c146034578063e5071b8e146048575b5f80fd5b5f5460405190815260200160405180910390f35b604e6050565b005b5f80549080605c83609c565b91905055507f420680a649b45cbb7e97b24365d8ed81598dce543f2a2014d48fe328aa47e8bb5f54604051609291815260200190565b60405180910390a1565b5f6001820160d1577f4e487b71000000000000000000000000000000000000000000000000000000005f52601160045260245ffd5b506001019056fea264697066735822122055f5da536b2fe231a7383f637edca1ecc39a6b8da23c1e17cf37c0a74ffa5a3564736f6c63430008180033",
			"opcodes": "PUSH1 0x80 PUSH1 0x40 MSTORE CALLVALUE DUP1 ISZERO PUSH2 0xF JUMPI PUSH0 DUP1 REVERT JUMPDEST POP PUSH1 0x40 MLOAD PUSH2 0x167 CODESIZE SUB DUP1 PUSH2 0x167 DUP4 CODECOPY DUP2 ADD PUSH1 0x40 DUP2 SWAP1 MSTORE PUSH2 0x2E SWAP2 PUSH2 0x35 JUMP JUMPDEST PUSH0 SSTORE PUSH2 0x4C JUMP JUMPDEST PUSH0 PUSH1 0x20 DUP3 DUP5 SUB SLT ISZERO PUSH2 0x45 JUMPI PUSH0 DUP1 REVERT JUMPDEST POP MLOAD SWAP2 SWAP1 POP JUMP JUMPDEST PUSH2 0x10E DUP1 PUSH2 0x59 PUSH0 CODECOPY PUSH0 RETURN INVALID PUSH1 0x80 PUSH1 0x40 MSTORE CALLVALUE DUP1 ISZERO PUSH1 0xE JUMPI PUSH0 DUP1 REVERT JUMPDEST POP PUSH1 0x4 CALLDATASIZE LT PUSH1 0x30 JUMPI PUSH0 CALLDATALOAD PUSH1 0xE0 SHR DUP1 PUSH4 0xA87D942C EQ PUSH1 0x34 JUMPI DUP1 PUSH4 0xE5071B8E EQ PUSH1 0x48 JUMPI JUMPDEST PUSH0 DUP1 REVERT JUMPDEST PUSH0 SLOAD PUSH1 0x40 MLOAD SWAP1 DUP2 MSTORE PUSH1 0x20 ADD PUSH1 0x40 MLOAD DUP1 SWAP2 SUB SWAP1 RETURN JUMPDEST PUSH1 0x4E PUSH1 0x50 JUMP JUMPDEST STOP JUMPDEST PUSH0 DUP1 SLOAD SWAP1 DUP1 PUSH1 0x5C DUP4 PUSH1 0x9C JUMP JUMPDEST SWAP2 SWAP1 POP SSTORE POP PUSH32 0x420680A649B45CBB7E97B24365D8ED81598DCE543F2A2014D48FE328AA47E8BB PUSH0 SLOAD PUSH1 0x40 MLOAD PUSH1 0x92 SWAP2 DUP2 MSTORE PUSH1 0x20 ADD SWAP1 JUMP JUMPDEST PUSH1 0x40 MLOAD DUP1 SWAP2 SUB SWAP1 LOG1 JUMP JUMPDEST PUSH0 PUSH1 0x1 DUP3 ADD PUSH1 0xD1 JUMPI PUSH32 0x4E487B7100000000000000000000000000000000000000000000000000000000 PUSH0 MSTORE PUSH1 0x11 PUSH1 0x4 MSTORE PUSH1 0x24 PUSH0 REVERT JUMPDEST POP PUSH1 0x1 ADD SWAP1 JUMP INVALID LOG2 PUSH5 0x6970667358 0x22 SLT KECCAK256 SSTORE CREATE2 0xDA MSTORE8 PUSH12 0x2FE231A7383F637EDCA1ECC3 SWAP11 PUSH12 0x8DA23C1E17CF37C0A74FFA5A CALLDATALOAD PUSH5 0x736F6C6343 STOP ADDMOD XOR STOP CALLER "
		},
		"gasEstimates": {
			"creation": {
				"codeDepositCost": "54000",
				"executionCost": "infinite",
				"totalCost": "infinite"
			},
			"external": {
				"getCount()": "2244",
				"incrementCount()": "27598"
			}
		},
		"methodIdentifiers": {
			"getCount()": "a87d942c",
			"incrementCount()": "e5071b8e"
		}
	},
	"abi": [
		{
			"inputs": [
				{
					"internalType": "uint256",
					"name": "initialValue",
					"type": "uint256"
				}
			],
			"stateMutability": "nonpayable",
			"type": "constructor"
		},
		{
			"anonymous": false,
			"inputs": [
				{
					"indexed": false,
					"internalType": "uint256",
					"name": "newValue",
					"type": "uint256"
				}
			],
			"name": "CountIncremented",
			"type": "event"
		},
		{
			"inputs": [],
			"name": "getCount",
			"outputs": [
				{
					"internalType": "uint256",
					"name": "",
					"type": "uint256"
				}
			],
			"stateMutability": "view",
			"type": "function"
		},
		{
			"inputs": [],
			"name": "incrementCount",
			"outputs": [],
			"stateMutability": "nonpayable",
			"type": "function"
		}
	]
}