{
	"data": {
		"bytecode": {
			"linkReferences": {},
			"object": "608060405234801561000f575f80fd5b506102318061001d5f395ff3fe60806040526004361061002c575f3560e01c80635c60da1b1461012c578063d784d4261461018357610033565b3661003357005b5f61005c7ff603533e14e17222e047634a2b3457fe346d27e294cedf9d21d74e5feea4a0465490565b90505f6100877ff603533e14e17222e047634a2b3457fe346d27e294cedf9d21d74e5feea4a0465490565b73ffffffffffffffffffffffffffffffffffffffff1603610108576040517f08c379a000000000000000000000000000000000000000000000000000000000815260206004820152601660248201527f496d706c656d656e746174696f6e206e6f742073657400000000000000000000604482015260640160405180910390fd5b604051365f82375f803683855af43d805f843e818015610126578184f35b8184fd5b005b348015610137575f80fd5b507ff603533e14e17222e047634a2b3457fe346d27e294cedf9d21d74e5feea4a0465460405173ffffffffffffffffffffffffffffffffffffffff909116815260200160405180910390f35b34801561018e575f80fd5b5061012a61019d3660046101c1565b7ff603533e14e17222e047634a2b3457fe346d27e294cedf9d21d74e5feea4a04655565b5f602082840312156101d1575f80fd5b813573ffffffffffffffffffffffffffffffffffffffff811681146101f4575f80fd5b939250505056fea2646970667358221220608d66a7b7f1b2c776ca1499db497610aa32079e4e6502dec96298c90322d94364736f6c63430008180033",
			"opcodes": "PUSH1 0x80 PUSH1 0x40 MSTORE CALLVALUE DUP1 ISZERO PUSH2 0xF JUMPI PUSH0 DUP1 REVERT JUMPDEST POP PUSH2 0x231 DUP1 PUSH2 0x1D PUSH0 CODECOPY PUSH0 RETURN INVALID PUSH1 0x80 PUSH1 0x40 MSTORE PUSH1 0x4 CALLDATASIZE LT PUSH2 0x2C JUMPI PUSH0 CALLDATALOAD PUSH1 0xE0 SHR DUP1 PUSH4 0x5C60DA1B EQ PUSH2 0x12C JUMPI DUP1 PUSH4 0xD784D426 EQ PUSH2 0x183 JUMPI PUSH2 0x33 JUMP JUMPDEST CALLDATASIZE PUSH2 0x33 JUMPI STOP JUMPDEST PUSH0 PUSH2 0x5C PUSH32 0xF603533E14E17222E047634A2B3457FE346D27E294CEDF9D21D74E5FEEA4A046 SLOAD SWAP1 JUMP JUMPDEST SWAP1 POP PUSH0 PUSH2 0x87 PUSH32 0xF603533E14E17222E047634A2B3457FE346D27E294CEDF9D21D74E5FEEA4A046 SLOAD SWAP1 JUMP JUMPDEST PUSH20 0xFFFFFFFFFFFFFFFFFFFFFFFFFFFFFFFFFFFFFFFF AND SUB PUSH2 0x108 JUMPI PUSH1 0x40 MLOAD PUSH32 0x8C379A000000000000000000000000000000000000000000000000000000000 DUP2 MSTORE PUSH1 0x20 PUSH1 0x4 DUP3 ADD MSTORE PUSH1 0x16 PUSH1 0x24 DUP3 ADD MSTORE PUSH32 0x496D706C656D656E746174696F6E206E6F742073657400000000000000000000 PUSH1 0x44 DUP3 ADD MSTORE PUSH1 0x64 ADD PUSH1 0x40 MLOAD DUP1 SWAP2 SUB SWAP1 REVERT JUMPDEST PUSH1 0x40 MLOAD CALLDATASIZE PUSH0 DUP3 CALLDATACOPY PUSH0 DUP1 CALLDATASIZE DUP4 DUP6 GAS DELEGATECALL RETURNDATASIZE DUP1 PUSH0 DUP5 RETURNDATACOPY DUP2 DUP1 ISZERO PUSH2 0x126 JUMPI DUP2 DUP5 RETURN JUMPDEST DUP2 DUP5 REVERT JUMPDEST STOP JUMPDEST CALLVALUE DUP1 ISZERO PUSH2 0x137 JUMPI PUSH0 DUP1 REVERT JUMPDEST POP PUSH32 0xF603533E14E17222E047634A2B3457FE346D27E294CEDF9D21D74E5FEEA4A046 SLOAD PUSH1 0x40 MLOAD PUSH20 0xFFFFFFFFFFFFFFFFFFFFFFFFFFFFFFFFFFFFFFFF SWAP1 SWAP2 AND DUP2 MSTORE PUSH1 0x20 ADD PUSH1 0x40 MLOAD DUP1 SWAP2 SUB SWAP1 RETURN JUMPDEST CALLVALUE DUP1 ISZERO PUSH2 0x18E JUMPI PUSH0 DUP1 REVERT JUMPDEST POP PUSH2 0x12A PUSH2 0x19D CALLDATASIZE PUSH1 0x4 PUSH2 0x1C1 JUMP JUMPDEST PUSH32 0xF603533E14E17222E047634A2B3457FE346D27E294CEDF9D21D74E5FEEA4A046 SSTORE JUMP JUMPDEST PUSH0 PUSH1 0x20 DUP3 DUP5 SUB SLT ISZERO PUSH2 0x1D1 JUMPI PUSH0 DUP1 REVERT JUMPDEST DUP2 CALLDATALOAD PUSH20 0xFFFFFFFFFFFFFFFFFFFFFFFFFFFFFFFFFFFFFFFF DUP2 AND DUP2 EQ PUSH2 0x1F4 JUMPI PUSH0 DUP1 REVERT JUMPDEST SWAP4 SWAP3 POP POP POP JUMP INVALID LOG2 PUSH5 0x6970667358 0x22 SLT KECCAK256 PUSH1 0x8D PUSH7 0xA7B7F1B2C776CA EQ SWAP10 0xDB BLOBHASH PUSH23 0x10AA32079E4E6502DEC96298C90322D94364736F6C6343 STOP ADDMOD XOR STOP CALLER "
		},
		"gasEstimates": {
			"creation": {
				"codeDepositCost": "112200",
				"executionCost": "157",
				"totalCost": "112357"
			},
			"external": {
				"": "infinite",
				"implementation()": "2254",
				"setImplementation(address)": "22344"
			}
		},
		"methodIdentifiers": {
			"implementation()": "5c60da1b",
			"setImplementation(address)": "d784d426"
		}
	},
	"abi": [
		{
			"stateMutability": "payable",
			"type": "fallback"
		},
		{
			"inputs": [],
			"name": "implementation",
			"outputs": [
				{
					"internalType": "address",
					"name": "",
					"type": "address"
				}
			],
			"stateMutability": "view",
			"type": "function"
		},
		{
			"inputs": [
				{
					"internalType": "address",
					"name": "newImplementation",
					"type": "address"
				}
			],
			"name": "setImplementation",
			"outputs": [],
			"stateMutability": "nonpayable",
			"type": "function"
		},
		{
			"stateMutability": "payable",
			"type": "receive"
		}
	]
}