{
	"data": {
		"bytecode": {
			"linkReferences": {},
			"object": "6080604052600080546001600160a01b031916600117905534801561002357600080fd5b50610321806100336000396000f3fe608060405234801561001057600080fd5b506004361061004c5760003560e01c80634695195414610051578063473be6041461006657806352d1902d1461006e5780638da5cb5b146100a1575b600080fd5b61006461005f3660046102a2565b6100cc565b005b61006461015d565b6040517fc5f16f0fcc639fa48a6947836d9850f504798523bf8c9a3a87d5876cf622bcf781526020015b60405180910390f35b6000546100b4906001600160a01b031681565b6040516001600160a01b039091168152602001610098565b6000546001600160a01b031633146101515760405162461bcd60e51b815260206004820152602c60248201527f4f6e6c79206f776e657220697320616c6c6f77656420746f20706572666f726d60448201527f207468697320616374696f6e000000000000000000000000000000000000000060648201526084015b60405180910390fd5b61015a8161019f565b50565b6000546001600160a01b03161561017357600080fd5b600080547fffffffffffffffffffffffff00000000000000000000000000000000000000001633179055565b806001600160a01b03166352d1902d6040518163ffffffff1660e01b815260040160206040518083038186803b1580156101d857600080fd5b505afa1580156101ec573d6000803e3d6000fd5b505050506040513d601f19601f8201168201806040525081019061021091906102d2565b7fc5f16f0fcc639fa48a6947836d9850f504798523bf8c9a3a87d5876cf622bcf71461027e5760405162461bcd60e51b815260206004820152600e60248201527f4e6f7420636f6d70617469626c650000000000000000000000000000000000006044820152606401610148565b7fc5f16f0fcc639fa48a6947836d9850f504798523bf8c9a3a87d5876cf622bcf755565b6000602082840312156102b457600080fd5b81356001600160a01b03811681146102cb57600080fd5b9392505050565b6000602082840312156102e457600080fd5b505191905056fea2646970667358221220c8abf20ae1a0b3761ef7edb4eb46b5206c474b5d6f5453d57f640f11400e461e64736f6c63430008090033",
			"opcodes": "PUSH1 0x80 PUSH1 0x40 MSTORE PUSH1 0x0 DUP1 SLOAD PUSH1 0x1 PUSH1 0x1 PUSH1 0xA0 SHL SUB NOT AND PUSH1 0x1 OR SWAP1 SSTORE CALLVALUE DUP1 ISZERO PUSH2 0x23 JUMPI PUSH1 0x0 DUP1 REVERT JUMPDEST POP PUSH2 0x321 DUP1 PUSH2 0x33 PUSH1 0x0 CODECOPY PUSH1 0x0 RETURN INVALID PUSH1 0x80 PUSH1 0x40 MSTORE CALLVALUE DUP1 ISZERO PUSH2 0x10 JUMPI PUSH1 0x0 DUP1 REVERT JUMPDEST POP PUSH1 0x4 CALLDATASIZE LT PUSH2 0x4C JUMPI PUSH1 0x0 CALLDATALOAD PUSH1 0xE0 SHR DUP1 PUSH4 0x46951954 EQ PUSH2 0x51 JUMPI DUP1 PUSH4 0x473BE604 EQ PUSH2 0x66 JUMPI DUP1 PUSH4 0x52D1902D EQ PUSH2 0x6E JUMPI DUP1 PUSH4 0x8DA5CB5B EQ PUSH2 0xA1 JUMPI JUMPDEST PUSH1 0x0 DUP1 REVERT JUMPDEST PUSH2 0x64 PUSH2 0x5F CALLDATASIZE PUSH1 0x4 PUSH2 0x2A2 JUMP JUMPDEST PUSH2 0xCC JUMP JUMPDEST STOP JUMPDEST PUSH2 0x64 PUSH2 0x15D JUMP JUMPDEST PUSH1 0x40 MLOAD PUSH32 0xC5F16F0FCC639FA48A6947836D9850F504798523BF8C9A3A87D5876CF622BCF7 DUP2 MSTORE PUSH1 0x20 ADD JUMPDEST PUSH1 0x40 MLOAD DUP1 SWAP2 SUB SWAP1 RETURN JUMPDEST PUSH1 0x0 SLOAD PUSH2 0xB4 SWAP1 PUSH1 0x1 PUSH1 0x1 PUSH1 0xA0 SHL SUB AND DUP2 JUMP JUMPDEST PUSH1 0x40 MLOAD PUSH1 0x1 PUSH1 0x1 PUSH1 0xA0 SHL SUB SWAP1 SWAP2 AND DUP2 MSTORE PUSH1 0x20 ADD PUSH2 0x98 JUMP JUMPDEST PUSH1 0x0 SLOAD PUSH1 0x1 PUSH1 0x1 PUSH1 0xA0 SHL SUB AND CALLER EQ PUSH2 0x151 JUMPI PUSH1 0x40 MLOAD PUSH3 0x461BCD PUSH1 0xE5 SHL DUP2 MSTORE PUSH1 0x20 PUSH1 0x4 DUP3 ADD MSTORE PUSH1 0x2C PUSH1 0x24 DUP3 ADD MSTORE PUSH32 0x4F6E6C79206F776E657220697320616C6C6F77656420746F20706572666F726D PUSH1 0x44 DUP3 ADD MSTORE PUSH32 0x207468697320616374696F6E0000000000000000000000000000000000000000 PUSH1 0x64 DUP3 ADD MSTORE PUSH1 0x84 ADD JUMPDEST PUSH1 0x40 MLOAD DUP1 SWAP2 SUB SWAP1 REVERT JUMPDEST PUSH2 0x15A DUP2 PUSH2 0x19F JUMP JUMPDEST POP JUMP JUMPDEST PUSH1 0x0 SLOAD PUSH1 0x1 PUSH1 0x1 PUSH1 0xA0 SHL SUB AND ISZERO PUSH2 0x173 JUMPI PUSH1 0x0 DUP1 REVERT JUMPDEST PUSH1 0x0 DUP1 SLOAD PUSH32 0xFFFFFFFFFFFFFFFFFFFFFFFF0000000000000000000000000000000000000000 AND CALLER OR SWAP1 SSTORE JUMP JUMPDEST DUP1 PUSH1 0x1 PUSH1 0x1 PUSH1 0xA0 SHL SUB AND PUSH4 0x52D1902D PUSH1 0x40 MLOAD DUP2 PUSH4 0xFFFFFFFF AND PUSH1 0xE0 SHL DUP2 MSTORE PUSH1 0x4 ADD PUSH1 0x20 PUSH1 0x40 MLOAD DUP1 DUP4 SUB DUP2 DUP7 DUP1 EXTCODESIZE ISZERO DUP1 ISZERO PUSH2 0x1D8 JUMPI PUSH1 0x0 DUP1 REVERT JUMPDEST POP GAS STATICCALL ISZERO DUP1 ISZERO PUSH2 0x1EC JUMPI RETURNDATASIZE PUSH1 0x0 DUP1 RETURNDATACOPY RETURNDATASIZE PUSH1 0x0 REVERT JUMPDEST POP POP POP POP PUSH1 0x40 MLOAD RETURNDATASIZE PUSH1 0x1F NOT PUSH1 0x1F DUP3 ADD AND DUP3 ADD DUP1 PUSH1 0x40 MSTORE POP DUP2 ADD SWAP1 PUSH2 0x210 SWAP2 SWAP1 PUSH2 0x2D2 JUMP JUMPDEST PUSH32 0xC5F16F0FCC639FA48A6947836D9850F504798523BF8C9A3A87D5876CF622BCF7 EQ PUSH2 0x27E JUMPI PUSH1 0x40 MLOAD PUSH3 0x461BCD PUSH1 0xE5 SHL DUP2 MSTORE PUSH1 0x20 PUSH1 0x4 DUP3 ADD MSTORE PUSH1 0xE PUSH1 0x24 DUP3 ADD MSTORE PUSH32 0x4E6F7420636F6D70617469626C65000000000000000000000000000000000000 PUSH1 0x44 DUP3 ADD MSTORE PUSH1 0x64 ADD PUSH2 0x148 JUMP JUMPDEST PUSH32 0xC5F16F0FCC639FA48A6947836D9850F504798523BF8C9A3A87D5876CF622BCF7 SSTORE JUMP JUMPDEST PUSH1 0x0 PUSH1 0x20 DUP3 DUP5 SUB SLT ISZERO PUSH2 0x2B4 JUMPI PUSH1 0x0 DUP1 REVERT JUMPDEST DUP2 CALLDATALOAD PUSH1 0x1 PUSH1 0x1 PUSH1 0xA0 SHL SUB DUP2 AND DUP2 EQ PUSH2 0x2CB JUMPI PUSH1 0x0 DUP1 REVERT JUMPDEST SWAP4 SWAP3 POP POP POP JUMP JUMPDEST PUSH1 0x0 PUSH1 0x20 DUP3 DUP5 SUB SLT ISZERO PUSH2 0x2E4 JUMPI PUSH1 0x0 DUP1 REVERT JUMPDEST POP MLOAD SWAP2 SWAP1 POP JUMP INVALID LOG2 PUSH5 0x6970667358 0x22 SLT KECCAK256 0xC8 0xAB CALLCODE EXP 0xE1 LOG0 0xB3 PUSH23 0x1EF7EDB4EB46B5206C474B5D6F5453D57F640F11400E46 0x1E PUSH5 0x736F6C6343 STOP ADDMOD MULMOD STOP CALLER "
		},
		"gasEstimates": {
			"creation": {
				"codeDepositCost": "160200",
				"executionCost": "24444",
				"totalCost": "184644"
			},
			"external": {
				"constructor1()": "26502",
				"owner()": "2381",
				"proxiableUUID()": "188",
				"updateCode(address)": "infinite"
			}
		},
		"methodIdentifiers": {
			"constructor1()": "473be604",
			"owner()": "8da5cb5b",
			"proxiableUUID()": "52d1902d",
			"updateCode(address)": "46951954"
		}
	},
	"abi": [
		{
			"inputs": [],
			"name": "constructor1",
			"outputs": [],
			"stateMutability": "nonpayable",
			"type": "function"
		},
		{
			"inputs": [],
			"name": "owner",
			"outputs": [
				{
					"internalType": "address",
					"name": "",
					"type": "address"
				}
			],
			"stateMutability": "view",
			"type": "function"
		},
		{
			"inputs": [],
			"name": "proxiableUUID",
			"outputs": [
				{
					"internalType": "bytes32",
					"name": "",
					"type": "bytes32"
				}
			],
			"stateMutability": "pure",
			"type": "function"
		},
		{
			"inputs": [
				{
					"internalType": "address",
					"name": "newCode",
					"type": "address"
				}
			],
			"name": "updateCode",
			"outputs": [],
			"stateMutability": "nonpayable",
			"type": "function"
		}
	]
}