{
	"data": {
		"bytecode": {
			"linkReferences": {},
			"object": "608060405234801561001057600080fd5b5061023d806100206000396000f3fe60806040526004361061002d5760003560e01c80635c60da1b14610131578063d784d4261461018957610034565b3661003457005b600061005e7ff603533e14e17222e047634a2b3457fe346d27e294cedf9d21d74e5feea4a0465490565b9050600061008a7ff603533e14e17222e047634a2b3457fe346d27e294cedf9d21d74e5feea4a0465490565b73ffffffffffffffffffffffffffffffffffffffff16141561010c576040517f08c379a000000000000000000000000000000000000000000000000000000000815260206004820152601660248201527f496d706c656d656e746174696f6e206e6f742073657400000000000000000000604482015260640160405180910390fd5b60405136600082376000803683855af43d806000843e81801561012d578184f35b8184fd5b34801561013d57600080fd5b507ff603533e14e17222e047634a2b3457fe346d27e294cedf9d21d74e5feea4a0465460405173ffffffffffffffffffffffffffffffffffffffff909116815260200160405180910390f35b34801561019557600080fd5b506101c86101a43660046101ca565b7ff603533e14e17222e047634a2b3457fe346d27e294cedf9d21d74e5feea4a04655565b005b6000602082840312156101dc57600080fd5b813573ffffffffffffffffffffffffffffffffffffffff8116811461020057600080fd5b939250505056fea2646970667358221220f0e916c7772afed7dd9db37f64b52235b761a071047cb1bb93e5d95ce7926f8e64736f6c63430008090033",
			"opcodes": "PUSH1 0x80 PUSH1 0x40 MSTORE CALLVALUE DUP1 ISZERO PUSH2 0x10 JUMPI PUSH1 0x0 DUP1 REVERT JUMPDEST POP PUSH2 0x23D DUP1 PUSH2 0x20 PUSH1 0x0 CODECOPY PUSH1 0x0 RETURN INVALID PUSH1 0x80 PUSH1 0x40 MSTORE PUSH1 0x4 CALLDATASIZE LT PUSH2 0x2D JUMPI PUSH1 0x0 CALLDATALOAD PUSH1 0xE0 SHR DUP1 PUSH4 0x5C60DA1B EQ PUSH2 0x131 JUMPI DUP1 PUSH4 0xD784D426 EQ PUSH2 0x189 JUMPI PUSH2 0x34 JUMP JUMPDEST CALLDATASIZE PUSH2 0x34 JUMPI STOP JUMPDEST PUSH1 0x0 PUSH2 0x5E PUSH32 0xF603533E14E17222E047634A2B3457FE346D27E294CEDF9D21D74E5FEEA4A046 SLOAD SWAP1 JUMP JUMPDEST SWAP1 POP PUSH1 0x0 PUSH2 0x8A PUSH32 0xF603533E14E17222E047634A2B3457FE346D27E294CEDF9D21D74E5FEEA4A046 SLOAD SWAP1 JUMP JUMPDEST PUSH20 0xFFFFFFFFFFFFFFFFFFFFFFFFFFFFFFFFFFFFFFFF AND EQ ISZERO PUSH2 0x10C JUMPI PUSH1 0x40 MLOAD PUSH32 0x8C379A000000000000000000000000000000000000000000000000000000000 DUP2 MSTORE PUSH1 0x20 PUSH1 0x4 DUP3 ADD MSTORE PUSH1 0x16 PUSH1 0x24 DUP3 ADD MSTORE PUSH32 0x496D706C656D656E746174696F6E206E6F742073657400000000000000000000 PUSH1 0x44 DUP3 ADD MSTORE PUSH1 0x64 ADD PUSH1 0x40 MLOAD DUP1 SWAP2 SUB SWAP1 REVERT JUMPDEST PUSH1 0x40 MLOAD CALLDATASIZE PUSH1 0x0 DUP3 CALLDATACOPY PUSH1 0x0 DUP1 CALLDATASIZE DUP4 DUP6 GAS DELEGATECALL RETURNDATASIZE DUP1 PUSH1 0x0 DUP5 RETURNDATACOPY DUP2 DUP1 ISZERO PUSH2 0x12D JUMPI DUP2 DUP5 RETURN JUMPDEST DUP2 DUP5 REVERT JUMPDEST CALLVALUE DUP1 ISZERO PUSH2 0x13D JUMPI PUSH1 0x0 DUP1 REVERT JUMPDEST POP PUSH32 0xF603533E14E17222E047634A2B3457FE346D27E294CEDF9D21D74E5FEEA4A046 SLOAD PUSH1 0x40 MLOAD PUSH20 0xFFFFFFFFFFFFFFFFFFFFFFFFFFFFFFFFFFFFFFFF SWAP1 SWAP2 AND DUP2 MSTORE PUSH1 0x20 ADD PUSH1 0x40 MLOAD DUP1 SWAP2 SUB SWAP1 RETURN JUMPDEST CALLVALUE DUP1 ISZERO PUSH2 0x195 JUMPI PUSH1 0x0 DUP1 REVERT JUMPDEST POP PUSH2 0x1C8 PUSH2 0x1A4 CALLDATASIZE PUSH1 0x4 PUSH2 0x1CA JUMP JUMPDEST PUSH32 0xF603533E14E17222E047634A2B3457FE346D27E294CEDF9D21D74E5FEEA4A046 SSTORE JUMP JUMPDEST STOP JUMPDEST PUSH1 0x0 PUSH1 0x20 DUP3 DUP5 SUB SLT ISZERO PUSH2 0x1DC JUMPI PUSH1 0x0 DUP1 REVERT JUMPDEST DUP2 CALLDATALOAD PUSH20 0xFFFFFFFFFFFFFFFFFFFFFFFFFFFFFFFFFFFFFFFF DUP2 AND DUP2 EQ PUSH2 0x200 JUMPI PUSH1 0x0 DUP1 REVERT JUMPDEST SWAP4 SWAP3 POP POP POP JUMP INVALID LOG2 PUSH5 0x6970667358 0x22 SLT KECCAK256 CREATE 0xE9 AND 0xC7 PUSH24 0x2AFED7DD9DB37F64B52235B761A071047CB1BB93E5D95CE7 SWAP3 PUSH16 0x8E64736F6C6343000809003300000000 "
		},
		"gasEstimates": {
			"creation": {
				"codeDepositCost": "114600",
				"executionCost": "159",
				"totalCost": "114759"
			},
			"external": {
				"": "infinite",
				"implementation()": "2255",
				"setImplementation(address)": "22346"
			}
		},
		"methodIdentifiers": {
			"implementation()": "5c60da1b",
			"setImplementation(address)": "d784d426"
		}
	},
	"abi": [
		{
			"stateMutability": "payable",
			"type": "fallback"
		},
		{
			"inputs": [],
			"name": "implementation",
			"outputs": [
				{
					"internalType": "address",
					"name": "",
					"type": "address"
				}
			],
			"stateMutability": "view",
			"type": "function"
		},
		{
			"inputs": [
				{
					"internalType": "address",
					"name": "newImplementation",
					"type": "address"
				}
			],
			"name": "setImplementation",
			"outputs": [],
			"stateMutability": "nonpayable",
			"type": "function"
		},
		{
			"stateMutability": "payable",
			"type": "receive"
		}
	]
}