{
	"data": {
		"bytecode": {
			"linkReferences": {},
			"object": "608060405234801561000f575f80fd5b5060eb8061001c5f395ff3fe6080604052348015600e575f80fd5b50600436106030575f3560e01c806354f6127f146034578063ee58e2ec146062575b5f80fd5b6050603f3660046080565b5f9081526020819052604090205490565b60405190815260200160405180910390f35b607e606d3660046096565b5f9182526020829052604090912055565b005b5f60208284031215608f575f80fd5b5035919050565b5f806040838503121560a6575f80fd5b5050803592602090910135915056fea264697066735822122093ca8c1f1a6487f5b4278424c913661e0615433ecc4923fb2f84273f3f342cda64736f6c63430008180033",
			"opcodes": "PUSH1 0x80 PUSH1 0x40 MSTORE CALLVALUE DUP1 ISZERO PUSH2 0xF JUMPI PUSH0 DUP1 REVERT JUMPDEST POP PUSH1 0xEB DUP1 PUSH2 0x1C PUSH0 CODECOPY PUSH0 RETURN INVALID PUSH1 0x80 PUSH1 0x40 MSTORE CALLVALUE DUP1 ISZERO PUSH1 0xE JUMPI PUSH0 DUP1 REVERT JUMPDEST POP PUSH1 0x4 CALLDATASIZE LT PUSH1 0x30 JUMPI PUSH0 CALLDATALOAD PUSH1 0xE0 SHR DUP1 PUSH4 0x54F6127F EQ PUSH1 0x34 JUMPI DUP1 PUSH4 0xEE58E2EC EQ PUSH1 0x62 JUMPI JUMPDEST PUSH0 DUP1 REVERT JUMPDEST PUSH1 0x50 PUSH1 0x3F CALLDATASIZE PUSH1 0x4 PUSH1 0x80 JUMP JUMPDEST PUSH0 SWAP1 DUP2 MSTORE PUSH1 0x20 DUP2 SWAP1 MSTORE PUSH1 0x40 SWAP1 KECCAK256 SLOAD SWAP1 JUMP JUMPDEST PUSH1 0x40 MLOAD SWAP1 DUP2 MSTORE PUSH1 0x20 ADD PUSH1 0x40 MLOAD DUP1 SWAP2 SUB SWAP1 RETURN JUMPDEST PUSH1 0x7E PUSH1 0x6D CALLDATASIZE PUSH1 0x4 PUSH1 0x96 JUMP JUMPDEST PUSH0 SWAP2 DUP3 MSTORE PUSH1 0x20 DUP3 SWAP1 MSTORE PUSH1 0x40 SWAP1 SWAP2 KECCAK256 SSTORE JUMP JUMPDEST STOP JUMPDEST PUSH0 PUSH1 0x20 DUP3 DUP5 SUB SLT ISZERO PUSH1 0x8F JUMPI PUSH0 DUP1 REVERT JUMPDEST POP CALLDATALOAD SWAP2 SWAP1 POP JUMP JUMPDEST PUSH0 DUP1 PUSH1 0x40 DUP4 DUP6 SUB SLT ISZERO PUSH1 0xA6 JUMPI PUSH0 DUP1 REVERT JUMPDEST POP POP DUP1 CALLDATALOAD SWAP3 PUSH1 0x20 SWAP1 SWAP2 ADD CALLDATALOAD SWAP2 POP JUMP INVALID LOG2 PUSH5 0x6970667358 0x22 SLT KECCAK256 SWAP4 0xCA DUP13 0x1F BYTE PUSH5 0x87F5B42784 0x24 0xC9 SGT PUSH7 0x1E0615433ECC49 0x23 0xFB 0x2F DUP5 0x27 EXTCODEHASH EXTCODEHASH CALLVALUE 0x2C 0xDA PUSH5 0x736F6C6343 STOP ADDMOD XOR STOP CALLER "
		},
		"gasEstimates": {
			"creation": {
				"codeDepositCost": "47000",
				"executionCost": "97",
				"totalCost": "47097"
			},
			"external": {
				"getData(bytes32)": "2404",
				"setData(bytes32,uint256)": "22404"
			}
		},
		"methodIdentifiers": {
			"getData(bytes32)": "54f6127f",
			"setData(bytes32,uint256)": "ee58e2ec"
		}
	},
	"abi": [
		{
			"inputs": [
				{
					"internalType": "bytes32",
					"name": "key",
					"type": "bytes32"
				}
			],
			"name": "getData",
			"outputs": [
				{
					"internalType": "uint256",
					"name": "",
					"type": "uint256"
				}
			],
			"stateMutability": "view",
			"type": "function"
		},
		{
			"inputs": [
				{
					"internalType": "bytes32",
					"name": "key",
					"type": "bytes32"
				},
				{
					"internalType": "uint256",
					"name": "value",
					"type": "uint256"
				}
			],
			"name": "setData",
			"outputs": [],
			"stateMutability": "nonpayable",
			"type": "function"
		}
	]
}