{
	"data": {
		"bytecode": {
			"linkReferences": {},
			"object": "608060405234801562000010575f80fd5b5060408051600c8082526101a082019092525f9160208201610180803683370190505090505f632c40805960e01b82826200004b8162000d1c565b93508151811062000060576200006062000d41565b6001600160e01b031990921660209283029190910190910152639142376560e01b82826200008e8162000d1c565b935081518110620000a357620000a362000d41565b6001600160e01b031990921660209283029190910190910152620000d0632f40adcf60e21b600162000477565b6307e4c70760e21b8282620000e58162000d1c565b935081518110620000fa57620000fa62000d41565b6001600160e01b031990921660209283029190910190910152620001276307e4c70760e21b600162000477565b637a0ed62760e01b82826200013c8162000d1c565b93508151811062000151576200015162000d41565b6001600160e01b0319909216602092830291909101909101526356fe50af60e11b82826200017f8162000d1c565b93508151811062000194576200019462000d41565b6001600160e01b0319909216602092830291909101909101526314bbdacb60e21b8282620001c28162000d1c565b935081518110620001d757620001d762000d41565b6001600160e01b0319909216602092830291909101909101526366ffd66360e11b8282620002058162000d1c565b9350815181106200021a576200021a62000d41565b6001600160e01b031990921660209283029190910190910152620002476348e2b09360e01b600162000477565b6301ffc9a760e01b82826200025c8162000d1c565b93508151811062000271576200027162000d41565b6001600160e01b0319909216602092830291909101909101526200029e6301ffc9a760e01b600162000477565b638da5cb5b60e01b8282620002b38162000d1c565b935081518110620002c857620002c862000d41565b6001600160e01b03199092166020928302919091019091015263455a8a8560e11b8282620002f68162000d1c565b9350815181106200030b576200030b62000d41565b6001600160e01b03199092166020928302919091019091015263f2fde38b60e01b8282620003398162000d1c565b9350815181106200034e576200034e62000d41565b6001600160e01b0319909216602092830291909101909101526379ba509760e01b82826200037c8162000d1c565b93508151811062000391576200039162000d41565b6001600160e01b031990921660209283029190910190910152620003be6307f5828d60e41b600162000477565b6040805160018082528183019092525f91816020015b60408051606080820183525f808352602083015291810191909152815260200190600190039081620003d4579050506040805160608101909152308152909150602081015f815260200184815250815f8151811062000437576200043762000d41565b602002602001018190525062000463815f60405180602001604052805f815250620004ed60201b60201c565b6200046e33620006e6565b50505062000edc565b6001600160e01b03198083169003620004a35760405163b0a19dd560e01b815260040160405180910390fd5b6001600160e01b0319919091165f9081527ffc606c433378e3a7e0a6a531deac289b66caa1b4aa8554fd4ab2c6f1570f92d860205260409020805460ff1916911515919091179055565b7f177481ac65e4292921c69f62d1cc7f57541261e5d61c8175cf4e36a01c9bfc94547f177481ac65e4292921c69f62d1cc7f57541261e5d61c8175cf4e36a01c9bfc939061ffff81169081905f90600716156200055b5750600381901c5f9081526002840160205260409020545b5f5b875181101562000655575f8882815181106200057d576200057d62000d41565b602002602001015190505f816020015190508160400151515f03620005b55760405163eb6c3aeb60e01b815260040160405180910390fd5b5f816002811115620005cb57620005cb62000d55565b03620005ea57620005df878686856200075f565b90955093506200064a565b600181600281111562000601576200060162000d55565b036200061957620006138783620008ce565b6200064a565b600281600281111562000630576200063062000d55565b036200064a57620006448786868562000a18565b90955093505b50506001016200055d565b50828214620006725760018401805461ffff191661ffff84161790555b60078216156200069457600382901c5f90815260028501602052604090208190555b7f8faa70878671ccd212d20771b795c50af8fd3ff6cf27f4bde57e5d4de0aeb673878787604051620006c99392919062000dba565b60405180910390a1620006dd868662000c35565b50505050505050565b7f8a22373512790c48b83a1fe2efdd2888d4a917bcdc24d0adf63e60f67168046080546040516001600160a01b038481169216907f8be0079c531659141344cd1fd0a4f28419497f9722a3daafe3b4186f6b6457e0905f90a380546001600160a01b0319166001600160a01b0392909216919091179055565b80515f9081906001600160a01b03163b15620007a8578251306001600160a01b0390911603620007a25760405163e983573160e01b815260040160405180910390fd5b620007d3565b82516001600160a01b03163014620007d357604051633ddc5cab60e21b815260040160405180910390fd5b5f5b836040015151811015620008c1575f84604001518281518110620007fd57620007fd62000d41565b6020908102919091018101516001600160e01b031981165f908152918a9052604090912054909150606081901c156200084957604051634923a77160e11b815260040160405180910390fd5b85516001600160e01b03198381165f81815260208d90526040902060609390931b6001600160601b0319168b1790925560058a901b60e090811692831c91831c19999099161797819003620008b157600389901c5f90815260028b0160205260408120989098555b50505060019586019501620007d5565b5093959294509192505050565b80516001600160a01b03163b620008f857604051633ddc5cab60e21b815260040160405180910390fd5b5f5b81604001515181101562000a13575f8260400151828151811062000922576200092262000d41565b6020908102919091018101516001600160e01b031981165f90815291869052604090912054909150606081901c806200096e576040516337e25a9760e11b815260040160405180910390fd5b306001600160a01b03821603620009985760405163e983573160e01b815260040160405180910390fd5b845f01516001600160a01b0316816001600160a01b031603620009ce576040516330baabf360e11b815260040160405180910390fd5b5083516001600160e01b0319929092165f90815260208690526040902060609290921b6001600160601b0319166001600160601b0391909116179055600101620008fa565b505050565b80515f9081906001600160a01b03161562000a4657604051633ab3490960e21b815260040160405180910390fd5b600385901c600786165f5b85604001515181101562000c21575f8660400151828151811062000a795762000a7962000d41565b6020908102919091018101516001600160e01b031981165f908152918c9052604090912054909150606081901c62000ac4576040516337e25a9760e11b815260040160405180910390fd5b30606082901c0362000ae95760405163e983573160e01b815260040160405180910390fd5b5f89900362000b14575f199094015f81815260028c0160205260409020549850936007935062000b1b565b5f19909301925b600584901b89901b5f806001600160e01b03198084169086161462000b6c576001600160e01b031983165f90815260208f90526040902080546001600160601b0319166001600160601b0386161790555b50506001600160e01b031983165f90815260208d90526040812055611fff600383901c1660e0600584901b1687821462000bcf575f82815260028f016020526040902080546001600160e01b031980841c19909116908516831c17905562000bf2565b80836001600160e01b031916901c816001600160e01b03195f1b901c198d16179b505b865f0362000c0f575f88815260028f01602052604081208190559b505b50506001909301925062000a51915050565b5060039190911b1796939550929350505050565b8051156001600160a01b038316151462000c62576040516326df4ccd60e01b815260040160405180910390fd5b6001600160a01b0382161562000d18576001600160a01b038216301462000cac576001600160a01b0382163b62000cac57604051633ddc5cab60e21b815260040160405180910390fd5b5f826001600160a01b03168260405162000cc7919062000ebf565b5f60405180830381855af49150503d805f811462000d01576040519150601f19603f3d011682016040523d82523d5f602084013e62000d06565b606091505b505090508062000a13573d5f803e3d5ffd5b5050565b5f6001820162000d3a57634e487b7160e01b5f52601160045260245ffd5b5060010190565b634e487b7160e01b5f52603260045260245ffd5b634e487b7160e01b5f52602160045260245ffd5b5f5b8381101562000d8557818101518382015260200162000d6b565b50505f910152565b5f815180845262000da681602086016020860162000d69565b601f01601f19169290920160200192915050565b5f6060808301606084528087518083526080925060808601915060808160051b8701016020808b015f5b8481101562000e8d57898403607f19018652815180516001600160a01b0316855283810151898601906003811062000e2a57634e487b7160e01b5f52602160045260245ffd5b868601526040918201519186018a9052815190819052908401905f90898701905b8083101562000e775783516001600160e01b031916825292860192600192909201919086019062000e4b565b5097850197955050509082019060010162000de4565b50506001600160a01b038a1690880152868103604088015262000eb1818962000d8d565b9a9950505050505050505050565b5f825162000ed281846020870162000d69565b9190910192915050565b611cdc8062000eea5f395ff3fe6080604052600436106100ca575f3560e01c80638ab5150a11610073578063adfca15e1161004d578063adfca15e14610259578063cdffacc614610285578063f2fde38b146102a4576100d1565b80638ab5150a146102125780638da5cb5b14610226578063914237651461023a576100d1565b806352ef6b2c116100a457806352ef6b2c146101bc57806379ba5097146101dd5780637a0ed627146101f1576100d1565b806301ffc9a71461013d5780631f931c1c146101715780632c40805914610190576100d1565b366100d157005b5f6100da6102c3565b90506001600160a01b0381163b61011d576040517f87c9fc3400000000000000000000000000000000000000000000000000000000815260040160405180910390fd5b365f80375f80365f845af43d5f803e808015610137573d5ff35b3d5ffd5b005b348015610148575f80fd5b5061015c6101573660046116c6565b6102d1565b60405190151581526020015b60405180910390f35b34801561017c575f80fd5b5061013b61018b366004611741565b610313565b34801561019b575f80fd5b506101a461039c565b6040516001600160a01b039091168152602001610168565b3480156101c7575f80fd5b506101d06103ce565b60405161016891906117ea565b3480156101e8575f80fd5b5061013b6103d8565b3480156101fc575f80fd5b50610205610434565b604051610168919061187a565b34801561021d575f80fd5b506101a461043e565b348015610231575f80fd5b506101a4610447565b348015610245575f80fd5b5061013b6102543660046118f7565b610450565b348015610264575f80fd5b506102786102733660046118f7565b6104d6565b6040516101689190611910565b348015610290575f80fd5b506101a461029f3660046116c6565b6104e1565b3480156102af575f80fd5b5061013b6102be3660046118f7565b610521565b5f6102cc610563565b905090565b6001600160e01b031981165f9081527ffc606c433378e3a7e0a6a531deac289b66caa1b4aa8554fd4ab2c6f1570f92d8602052604081205460ff165b92915050565b61031b6105d5565b6001600160a01b0316336001600160a01b03161461034c57604051632f7a8ee160e01b815260040160405180910390fd5b61039561035985876119e2565b8484848080601f0160208091040260200160405190810160405280939291908181526020018383808284375f9201919091525061060792505050565b5050505050565b5f6102cc7f177481ac65e4292921c69f62d1cc7f57541261e5d61c8175cf4e36a01c9bfc96546001600160a01b031690565b60606102cc6107f8565b6103e06109b6565b6001600160a01b0316336001600160a01b03161461042a576040517fefd1052d00000000000000000000000000000000000000000000000000000000815260040160405180910390fd5b6104326109dd565b565b60606102cc610a24565b5f6102cc6109b6565b5f6102cc6105d5565b6104586105d5565b6001600160a01b0316336001600160a01b03161461048957604051632f7a8ee160e01b815260040160405180910390fd5b7f177481ac65e4292921c69f62d1cc7f57541261e5d61c8175cf4e36a01c9bfc96805473ffffffffffffffffffffffffffffffffffffffff19166001600160a01b03831617905550565b50565b606061030d82610e54565b6001600160e01b031981165f9081527f177481ac65e4292921c69f62d1cc7f57541261e5d61c8175cf4e36a01c9bfc93602052604081205460601c61030d565b6105296105d5565b6001600160a01b0316336001600160a01b03161461055a57604051632f7a8ee160e01b815260040160405180910390fd5b6104d381610fc5565b5f80356001600160e01b03191681527f177481ac65e4292921c69f62d1cc7f57541261e5d61c8175cf4e36a01c9bfc93602052604090205460601c806105d257507f177481ac65e4292921c69f62d1cc7f57541261e5d61c8175cf4e36a01c9bfc96546001600160a01b031690565b90565b5f7f8a22373512790c48b83a1fe2efdd2888d4a917bcdc24d0adf63e60f6716804605b546001600160a01b0316919050565b7f177481ac65e4292921c69f62d1cc7f57541261e5d61c8175cf4e36a01c9bfc94547f177481ac65e4292921c69f62d1cc7f57541261e5d61c8175cf4e36a01c9bfc939061ffff81169081905f90600716156106745750600381901c5f9081526002840160205260409020545b5f5b875181101561076d575f88828151811061069257610692611b06565b602002602001015190505f816020015190508160400151515f036106e2576040517feb6c3aeb00000000000000000000000000000000000000000000000000000000815260040160405180910390fd5b5f8160028111156106f5576106f5611b1a565b036107105761070687868685611015565b9095509350610763565b600181600281111561072457610724611b1a565b03610738576107338783611197565b610763565b600281600281111561074c5761074c611b1a565b036107635761075d878686856112fb565b90955093505b5050600101610676565b508282146107895760018401805461ffff191661ffff84161790555b60078216156107aa57600382901c5f90815260028501602052604090208190555b7f8faa70878671ccd212d20771b795c50af8fd3ff6cf27f4bde57e5d4de0aeb6738787876040516107dd93929190611b7b565b60405180910390a16107ef868661152d565b50505050505050565b7f177481ac65e4292921c69f62d1cc7f57541261e5d61c8175cf4e36a01c9bfc94546060907f177481ac65e4292921c69f62d1cc7f57541261e5d61c8175cf4e36a01c9bfc939061ffff1667ffffffffffffffff81111561085b5761085b611951565b604051908082528060200260200182016040528015610884578160200160208202803683370190505b5091505f805f5b600184015461ffff168210156109ae575f818152600285016020526040812054905b600881101561099957836108c081611c55565b600188015490955061ffff168511905061099957600581901b82901b6001600160e01b031981165f9081526020889052604081205460601c90805b88811015610946578a818151811061091557610915611b06565b60200260200101516001600160a01b0316836001600160a01b03160361093e5760019150610946565b6001016108fb565b50801561095557505050610991565b818a898151811061096857610968611b06565b6001600160a01b03909216602092830291909101909101528761098a81611c55565b9850505050505b6001016108ad565b505080806109a690611c55565b91505061088b565b505082525090565b5f7f24aa1f7b31fd188a8d3ecfb06bc55c806040e59b03bd4396283442fce66178906105f8565b6109e633611624565b7f24aa1f7b31fd188a8d3ecfb06bc55c806040e59b03bd4396283442fce6617890805473ffffffffffffffffffffffffffffffffffffffff19169055565b7f177481ac65e4292921c69f62d1cc7f57541261e5d61c8175cf4e36a01c9bfc94546060907f177481ac65e4292921c69f62d1cc7f57541261e5d61c8175cf4e36a01c9bfc939061ffff1667ffffffffffffffff811115610a8757610a87611951565b604051908082528060200260200182016040528015610acc57816020015b604080518082019091525f815260606020820152815260200190600190039081610aa55790505b5060018201549092505f9061ffff1667ffffffffffffffff811115610af357610af3611951565b604051908082528060200260200182016040528015610b1c578160200160208202803683370190505b5090505f805f5b600185015461ffff16821015610df0575f818152600286016020526040812054905b6008811015610ddb5783610b5881611c55565b600189015490955061ffff1685119050610ddb57600581901b82901b6001600160e01b031981165f9081526020899052604081205460601c90805b88811015610ca457826001600160a01b03168c8281518110610bb757610bb7611b06565b60200260200101515f01516001600160a01b031603610c9c57838c8281518110610be357610be3611b06565b6020026020010151602001518b8381518110610c0157610c01611b06565b602002602001015160ff1681518110610c1c57610c1c611b06565b60200260200101906001600160e01b03191690816001600160e01b0319168152505060ff8a8281518110610c5257610c52611b06565b602002602001015160ff1610610c66575f80fd5b898181518110610c7857610c78611b06565b602002602001018051809190610c8d90611c6d565b60ff1690525060019150610ca4565b600101610b93565b508015610cb357505050610dd3565b818b8981518110610cc657610cc6611b06565b60209081029190910101516001600160a01b03909116905260018a015461ffff1667ffffffffffffffff811115610cff57610cff611951565b604051908082528060200260200182016040528015610d28578160200160208202803683370190505b508b8981518110610d3b57610d3b611b06565b602002602001015160200181905250828b8981518110610d5d57610d5d611b06565b6020026020010151602001515f81518110610d7a57610d7a611b06565b60200260200101906001600160e01b03191690816001600160e01b031916815250506001898981518110610db057610db0611b06565b60ff9092166020928302919091019091015287610dcc81611c55565b9850505050505b600101610b45565b50508080610de890611c55565b915050610b23565b505f5b82811015610e49575f848281518110610e0e57610e0e611b06565b602002602001015160ff1690505f878381518110610e2e57610e2e611b06565b60209081029190910181015101519190915250600101610df3565b508185525050505090565b7f177481ac65e4292921c69f62d1cc7f57541261e5d61c8175cf4e36a01c9bfc94546060907f177481ac65e4292921c69f62d1cc7f57541261e5d61c8175cf4e36a01c9bfc939061ffff1667ffffffffffffffff811115610eb757610eb7611951565b604051908082528060200260200182016040528015610ee0578160200160208202803683370190505b5091505f805f5b600184015461ffff16821015610fbb575f818152600285016020526040812054905b6008811015610fa65783610f1c81611c55565b600188015490955061ffff1685119050610fa657600581901b82901b6001600160e01b031981165f9081526020889052604090205460601c6001600160a01b038a1603610f9d5780888781518110610f7657610f76611b06565b6001600160e01b03199092166020928302919091019091015285610f9981611c55565b9650505b50600101610f09565b50508080610fb390611c55565b915050610ee7565b5050825250919050565b7f24aa1f7b31fd188a8d3ecfb06bc55c806040e59b03bd4396283442fce6617890805473ffffffffffffffffffffffffffffffffffffffff19166001600160a01b0383161790556104d381818181565b80515f9081906001600160a01b03163b1561105b578251306001600160a01b03909116036110565760405163e983573160e01b815260040160405180910390fd5b611085565b82516001600160a01b0316301461108557604051633ddc5cab60e21b815260040160405180910390fd5b5f5b83604001515181101561118a575f846040015182815181106110ab576110ab611b06565b6020908102919091018101516001600160e01b031981165f908152918a9052604090912054909150606081901c1561110f576040517f92474ee200000000000000000000000000000000000000000000000000000000815260040160405180910390fd5b85516001600160e01b03198381165f81815260208d90526040902060609390931b6bffffffffffffffffffffffff19168b1790925560058a901b60e090811692831c91831c1999909916179781900361117b57600389901c5f90815260028b0160205260408120989098555b50505060019586019501611087565b5093959294509192505050565b80516001600160a01b03163b6111c057604051633ddc5cab60e21b815260040160405180910390fd5b5f5b8160400151518110156112f6575f826040015182815181106111e6576111e6611b06565b6020908102919091018101516001600160e01b031981165f90815291869052604090912054909150606081901c80611231576040516337e25a9760e11b815260040160405180910390fd5b306001600160a01b0382160361125a5760405163e983573160e01b815260040160405180910390fd5b845f01516001600160a01b0316816001600160a01b0316036112a8576040517f617557e600000000000000000000000000000000000000000000000000000000815260040160405180910390fd5b5083516001600160e01b0319929092165f90815260208690526040902060609290921b6bffffffffffffffffffffffff19166bffffffffffffffffffffffff919091161790556001016111c2565b505050565b80515f9081906001600160a01b031615611341576040517feacd242400000000000000000000000000000000000000000000000000000000815260040160405180910390fd5b600385901c600786165f5b856040015151811015611519575f8660400151828151811061137057611370611b06565b6020908102919091018101516001600160e01b031981165f908152918c9052604090912054909150606081901c6113ba576040516337e25a9760e11b815260040160405180910390fd5b30606082901c036113de5760405163e983573160e01b815260040160405180910390fd5b5f899003611407575f199094015f81815260028c0160205260409020549850936007935061140e565b5f19909301925b600584901b89901b5f806001600160e01b031980841690861614611468576001600160e01b031983165f90815260208f90526040902080546bffffffffffffffffffffffff19166bffffffffffffffffffffffff86161790555b50506001600160e01b031983165f90815260208d90526040812055611fff600383901c1660e0600584901b168782146114c9575f82815260028f016020526040902080546001600160e01b031980841c19909116908516831c1790556114ec565b80836001600160e01b031916901c816001600160e01b03195f1b901c198d16179b505b865f03611508575f88815260028f01602052604081208190559b505b50506001909301925061134c915050565b5060039190911b1796939550929350505050565b8051156001600160a01b0383161514611572576040517f26df4ccd00000000000000000000000000000000000000000000000000000000815260040160405180910390fd5b6001600160a01b03821615611620576001600160a01b03821630146115b9576001600160a01b0382163b6115b957604051633ddc5cab60e21b815260040160405180910390fd5b5f826001600160a01b0316826040516115d29190611c8b565b5f60405180830381855af49150503d805f811461160a576040519150601f19603f3d011682016040523d82523d5f602084013e61160f565b606091505b50509050806112f6573d5f803e3d5ffd5b5050565b7f8a22373512790c48b83a1fe2efdd2888d4a917bcdc24d0adf63e60f67168046080546040516001600160a01b038481169216907f8be0079c531659141344cd1fd0a4f28419497f9722a3daafe3b4186f6b6457e0905f90a3805473ffffffffffffffffffffffffffffffffffffffff19166001600160a01b0392909216919091179055565b80356001600160e01b0319811681146116c1575f80fd5b919050565b5f602082840312156116d6575f80fd5b6116df826116aa565b9392505050565b80356001600160a01b03811681146116c1575f80fd5b5f8083601f84011261170c575f80fd5b50813567ffffffffffffffff811115611723575f80fd5b60208301915083602082850101111561173a575f80fd5b9250929050565b5f805f805f60608688031215611755575f80fd5b853567ffffffffffffffff8082111561176c575f80fd5b818801915088601f83011261177f575f80fd5b81358181111561178d575f80fd5b8960208260051b85010111156117a1575f80fd5b602083019750809650506117b7602089016116e6565b945060408801359150808211156117cc575f80fd5b506117d9888289016116fc565b969995985093965092949392505050565b602080825282518282018190525f9190848201906040850190845b8181101561182a5783516001600160a01b031683529284019291840191600101611805565b50909695505050505050565b5f815180845260208085019450602084015f5b8381101561186f5781516001600160e01b03191687529582019590820190600101611849565b509495945050505050565b5f60208083018184528085518083526040925060408601915060408160051b8701018488015f5b838110156118e957888303603f19018552815180516001600160a01b031684528701518784018790526118d687850182611836565b95880195935050908601906001016118a1565b509098975050505050505050565b5f60208284031215611907575f80fd5b6116df826116e6565b602080825282518282018190525f9190848201906040850190845b8181101561182a5783516001600160e01b0319168352928401929184019160010161192b565b634e487b7160e01b5f52604160045260245ffd5b6040516060810167ffffffffffffffff8111828210171561198857611988611951565b60405290565b604051601f8201601f1916810167ffffffffffffffff811182821017156119b7576119b7611951565b604052919050565b5f67ffffffffffffffff8211156119d8576119d8611951565b5060051b60200190565b5f6119f46119ef846119bf565b61198e565b83815260208082019190600586811b860136811115611a11575f80fd5b865b81811015611af957803567ffffffffffffffff80821115611a32575f80fd5b818a01915060608236031215611a46575f80fd5b611a4e611965565b611a57836116e6565b81528683013560038110611a69575f80fd5b8188015260408381013583811115611a7f575f80fd5b939093019236601f850112611a92575f80fd5b83359250611aa26119ef846119bf565b83815292871b84018801928881019036851115611abd575f80fd5b948901945b84861015611ae257611ad3866116aa565b82529489019490890190611ac2565b918301919091525088525050948301948301611a13565b5092979650505050505050565b634e487b7160e01b5f52603260045260245ffd5b634e487b7160e01b5f52602160045260245ffd5b5f5b83811015611b48578181015183820152602001611b30565b50505f910152565b5f8151808452611b67816020860160208601611b2e565b601f01601f19169290920160200192915050565b5f60608083016060845280875180835260808601915060808160051b87010192506020808a015f5b83811015611c1257888603607f19018552815180516001600160a01b031687528381015160038110611be357634e487b7160e01b5f52602160045260245ffd5b87850152604090810151908701889052611bff88880182611836565b9650509382019390820190600101611ba3565b50506001600160a01b0389169087015250508381036040850152611c368186611b50565b979650505050505050565b634e487b7160e01b5f52601160045260245ffd5b5f60018201611c6657611c66611c41565b5060010190565b5f60ff821660ff8103611c8257611c82611c41565b60010192915050565b5f8251611c9c818460208701611b2e565b919091019291505056fea2646970667358221220108036fc67eedb0d8efd6ae615d5a6b7a05bf9442126e5a9af8fb4a420a5fae764736f6c63430008180033",
			"opcodes": "PUSH1 0x80 PUSH1 0x40 MSTORE CALLVALUE DUP1 ISZERO PUSH3 0x10 JUMPI PUSH0 DUP1 REVERT JUMPDEST POP PUSH1 0x40 DUP1 MLOAD PUSH1 0xC DUP1 DUP3 MSTORE PUSH2 0x1A0 DUP3 ADD SWAP1 SWAP3 MSTORE PUSH0 SWAP2 PUSH1 0x20 DUP3 ADD PUSH2 0x180 DUP1 CALLDATASIZE DUP4 CALLDATACOPY ADD SWAP1 POP POP SWAP1 POP PUSH0 PUSH4 0x2C408059 PUSH1 0xE0 SHL DUP3 DUP3 PUSH3 0x4B DUP2 PUSH3 0xD1C JUMP JUMPDEST SWAP4 POP DUP2 MLOAD DUP2 LT PUSH3 0x60 JUMPI PUSH3 0x60 PUSH3 0xD41 JUMP JUMPDEST PUSH1 0x1 PUSH1 0x1 PUSH1 0xE0 SHL SUB NOT SWAP1 SWAP3 AND PUSH1 0x20 SWAP3 DUP4 MUL SWAP2 SWAP1 SWAP2 ADD SWAP1 SWAP2 ADD MSTORE PUSH4 0x91423765 PUSH1 0xE0 SHL DUP3 DUP3 PUSH3 0x8E DUP2 PUSH3 0xD1C JUMP JUMPDEST SWAP4 POP DUP2 MLOAD DUP2 LT PUSH3 0xA3 JUMPI PUSH3 0xA3 PUSH3 0xD41 JUMP JUMPDEST PUSH1 0x1 PUSH1 0x1 PUSH1 0xE0 SHL SUB NOT SWAP1 SWAP3 AND PUSH1 0x20 SWAP3 DUP4 MUL SWAP2 SWAP1 SWAP2 ADD SWAP1 SWAP2 ADD MSTORE PUSH3 0xD0 PUSH4 0x2F40ADCF PUSH1 0xE2 SHL PUSH1 0x1 PUSH3 0x477 JUMP JUMPDEST PUSH4 0x7E4C707 PUSH1 0xE2 SHL DUP3 DUP3 PUSH3 0xE5 DUP2 PUSH3 0xD1C JUMP JUMPDEST SWAP4 POP DUP2 MLOAD DUP2 LT PUSH3 0xFA JUMPI PUSH3 0xFA PUSH3 0xD41 JUMP JUMPDEST PUSH1 0x1 PUSH1 0x1 PUSH1 0xE0 SHL SUB NOT SWAP1 SWAP3 AND PUSH1 0x20 SWAP3 DUP4 MUL SWAP2 SWAP1 SWAP2 ADD SWAP1 SWAP2 ADD MSTORE PUSH3 0x127 PUSH4 0x7E4C707 PUSH1 0xE2 SHL PUSH1 0x1 PUSH3 0x477 JUMP JUMPDEST PUSH4 0x7A0ED627 PUSH1 0xE0 SHL DUP3 DUP3 PUSH3 0x13C DUP2 PUSH3 0xD1C JUMP JUMPDEST SWAP4 POP DUP2 MLOAD DUP2 LT PUSH3 0x151 JUMPI PUSH3 0x151 PUSH3 0xD41 JUMP JUMPDEST PUSH1 0x1 PUSH1 0x1 PUSH1 0xE0 SHL SUB NOT SWAP1 SWAP3 AND PUSH1 0x20 SWAP3 DUP4 MUL SWAP2 SWAP1 SWAP2 ADD SWAP1 SWAP2 ADD MSTORE PUSH4 0x56FE50AF PUSH1 0xE1 SHL DUP3 DUP3 PUSH3 0x17F DUP2 PUSH3 0xD1C JUMP JUMPDEST SWAP4 POP DUP2 MLOAD DUP2 LT PUSH3 0x194 JUMPI PUSH3 0x194 PUSH3 0xD41 JUMP JUMPDEST PUSH1 0x1 PUSH1 0x1 PUSH1 0xE0 SHL SUB NOT SWAP1 SWAP3 AND PUSH1 0x20 SWAP3 DUP4 MUL SWAP2 SWAP1 SWAP2 ADD SWAP1 SWAP2 ADD MSTORE PUSH4 0x14BBDACB PUSH1 0xE2 SHL DUP3 DUP3 PUSH3 0x1C2 DUP2 PUSH3 0xD1C JUMP JUMPDEST SWAP4 POP DUP2 MLOAD DUP2 LT PUSH3 0x1D7 JUMPI PUSH3 0x1D7 PUSH3 0xD41 JUMP JUMPDEST PUSH1 0x1 PUSH1 0x1 PUSH1 0xE0 SHL SUB NOT SWAP1 SWAP3 AND PUSH1 0x20 SWAP3 DUP4 MUL SWAP2 SWAP1 SWAP2 ADD SWAP1 SWAP2 ADD MSTORE PUSH4 0x66FFD663 PUSH1 0xE1 SHL DUP3 DUP3 PUSH3 0x205 DUP2 PUSH3 0xD1C JUMP JUMPDEST SWAP4 POP DUP2 MLOAD DUP2 LT PUSH3 0x21A JUMPI PUSH3 0x21A PUSH3 0xD41 JUMP JUMPDEST PUSH1 0x1 PUSH1 0x1 PUSH1 0xE0 SHL SUB NOT SWAP1 SWAP3 AND PUSH1 0x20 SWAP3 DUP4 MUL SWAP2 SWAP1 SWAP2 ADD SWAP1 SWAP2 ADD MSTORE PUSH3 0x247 PUSH4 0x48E2B093 PUSH1 0xE0 SHL PUSH1 0x1 PUSH3 0x477 JUMP JUMPDEST PUSH4 0x1FFC9A7 PUSH1 0xE0 SHL DUP3 DUP3 PUSH3 0x25C DUP2 PUSH3 0xD1C JUMP JUMPDEST SWAP4 POP DUP2 MLOAD DUP2 LT PUSH3 0x271 JUMPI PUSH3 0x271 PUSH3 0xD41 JUMP JUMPDEST PUSH1 0x1 PUSH1 0x1 PUSH1 0xE0 SHL SUB NOT SWAP1 SWAP3 AND PUSH1 0x20 SWAP3 DUP4 MUL SWAP2 SWAP1 SWAP2 ADD SWAP1 SWAP2 ADD MSTORE PUSH3 0x29E PUSH4 0x1FFC9A7 PUSH1 0xE0 SHL PUSH1 0x1 PUSH3 0x477 JUMP JUMPDEST PUSH4 0x8DA5CB5B PUSH1 0xE0 SHL DUP3 DUP3 PUSH3 0x2B3 DUP2 PUSH3 0xD1C JUMP JUMPDEST SWAP4 POP DUP2 MLOAD DUP2 LT PUSH3 0x2C8 JUMPI PUSH3 0x2C8 PUSH3 0xD41 JUMP JUMPDEST PUSH1 0x1 PUSH1 0x1 PUSH1 0xE0 SHL SUB NOT SWAP1 SWAP3 AND PUSH1 0x20 SWAP3 DUP4 MUL SWAP2 SWAP1 SWAP2 ADD SWAP1 SWAP2 ADD MSTORE PUSH4 0x455A8A85 PUSH1 0xE1 SHL DUP3 DUP3 PUSH3 0x2F6 DUP2 PUSH3 0xD1C JUMP JUMPDEST SWAP4 POP DUP2 MLOAD DUP2 LT PUSH3 0x30B JUMPI PUSH3 0x30B PUSH3 0xD41 JUMP JUMPDEST PUSH1 0x1 PUSH1 0x1 PUSH1 0xE0 SHL SUB NOT SWAP1 SWAP3 AND PUSH1 0x20 SWAP3 DUP4 MUL SWAP2 SWAP1 SWAP2 ADD SWAP1 SWAP2 ADD MSTORE PUSH4 0xF2FDE38B PUSH1 0xE0 SHL DUP3 DUP3 PUSH3 0x339 DUP2 PUSH3 0xD1C JUMP JUMPDEST SWAP4 POP DUP2 MLOAD DUP2 LT PUSH3 0x34E JUMPI PUSH3 0x34E PUSH3 0xD41 JUMP JUMPDEST PUSH1 0x1 PUSH1 0x1 PUSH1 0xE0 SHL SUB NOT SWAP1 SWAP3 AND PUSH1 0x20 SWAP3 DUP4 MUL SWAP2 SWAP1 SWAP2 ADD SWAP1 SWAP2 ADD MSTORE PUSH4 0x79BA5097 PUSH1 0xE0 SHL DUP3 DUP3 PUSH3 0x37C DUP2 PUSH3 0xD1C JUMP JUMPDEST SWAP4 POP DUP2 MLOAD DUP2 LT PUSH3 0x391 JUMPI PUSH3 0x391 PUSH3 0xD41 JUMP JUMPDEST PUSH1 0x1 PUSH1 0x1 PUSH1 0xE0 SHL SUB NOT SWAP1 SWAP3 AND PUSH1 0x20 SWAP3 DUP4 MUL SWAP2 SWAP1 SWAP2 ADD SWAP1 SWAP2 ADD MSTORE PUSH3 0x3BE PUSH4 0x7F5828D PUSH1 0xE4 SHL PUSH1 0x1 PUSH3 0x477 JUMP JUMPDEST PUSH1 0x40 DUP1 MLOAD PUSH1 0x1 DUP1 DUP3 MSTORE DUP2 DUP4 ADD SWAP1 SWAP3 MSTORE PUSH0 SWAP2 DUP2 PUSH1 0x20 ADD JUMPDEST PUSH1 0x40 DUP1 MLOAD PUSH1 0x60 DUP1 DUP3 ADD DUP4 MSTORE PUSH0 DUP1 DUP4 MSTORE PUSH1 0x20 DUP4 ADD MSTORE SWAP2 DUP2 ADD SWAP2 SWAP1 SWAP2 MSTORE DUP2 MSTORE PUSH1 0x20 ADD SWAP1 PUSH1 0x1 SWAP1 SUB SWAP1 DUP2 PUSH3 0x3D4 JUMPI SWAP1 POP POP PUSH1 0x40 DUP1 MLOAD PUSH1 0x60 DUP2 ADD SWAP1 SWAP2 MSTORE ADDRESS DUP2 MSTORE SWAP1 SWAP2 POP PUSH1 0x20 DUP2 ADD PUSH0 DUP2 MSTORE PUSH1 0x20 ADD DUP5 DUP2 MSTORE POP DUP2 PUSH0 DUP2 MLOAD DUP2 LT PUSH3 0x437 JUMPI PUSH3 0x437 PUSH3 0xD41 JUMP JUMPDEST PUSH1 0x20 MUL PUSH1 0x20 ADD ADD DUP2 SWAP1 MSTORE POP PUSH3 0x463 DUP2 PUSH0 PUSH1 0x40 MLOAD DUP1 PUSH1 0x20 ADD PUSH1 0x40 MSTORE DUP1 PUSH0 DUP2 MSTORE POP PUSH3 0x4ED PUSH1 0x20 SHL PUSH1 0x20 SHR JUMP JUMPDEST PUSH3 0x46E CALLER PUSH3 0x6E6 JUMP JUMPDEST POP POP POP PUSH3 0xEDC JUMP JUMPDEST PUSH1 0x1 PUSH1 0x1 PUSH1 0xE0 SHL SUB NOT DUP1 DUP4 AND SWAP1 SUB PUSH3 0x4A3 JUMPI PUSH1 0x40 MLOAD PUSH4 0xB0A19DD5 PUSH1 0xE0 SHL DUP2 MSTORE PUSH1 0x4 ADD PUSH1 0x40 MLOAD DUP1 SWAP2 SUB SWAP1 REVERT JUMPDEST PUSH1 0x1 PUSH1 0x1 PUSH1 0xE0 SHL SUB NOT SWAP2 SWAP1 SWAP2 AND PUSH0 SWAP1 DUP2 MSTORE PUSH32 0xFC606C433378E3A7E0A6A531DEAC289B66CAA1B4AA8554FD4AB2C6F1570F92D8 PUSH1 0x20 MSTORE PUSH1 0x40 SWAP1 KECCAK256 DUP1 SLOAD PUSH1 0xFF NOT AND SWAP2 ISZERO ISZERO SWAP2 SWAP1 SWAP2 OR SWAP1 SSTORE JUMP JUMPDEST PUSH32 0x177481AC65E4292921C69F62D1CC7F57541261E5D61C8175CF4E36A01C9BFC94 SLOAD PUSH32 0x177481AC65E4292921C69F62D1CC7F57541261E5D61C8175CF4E36A01C9BFC93 SWAP1 PUSH2 0xFFFF DUP2 AND SWAP1 DUP2 SWAP1 PUSH0 SWAP1 PUSH1 0x7 AND ISZERO PUSH3 0x55B JUMPI POP PUSH1 0x3 DUP2 SWAP1 SHR PUSH0 SWAP1 DUP2 MSTORE PUSH1 0x2 DUP5 ADD PUSH1 0x20 MSTORE PUSH1 0x40 SWAP1 KECCAK256 SLOAD JUMPDEST PUSH0 JUMPDEST DUP8 MLOAD DUP2 LT ISZERO PUSH3 0x655 JUMPI PUSH0 DUP9 DUP3 DUP2 MLOAD DUP2 LT PUSH3 0x57D JUMPI PUSH3 0x57D PUSH3 0xD41 JUMP JUMPDEST PUSH1 0x20 MUL PUSH1 0x20 ADD ADD MLOAD SWAP1 POP PUSH0 DUP2 PUSH1 0x20 ADD MLOAD SWAP1 POP DUP2 PUSH1 0x40 ADD MLOAD MLOAD PUSH0 SUB PUSH3 0x5B5 JUMPI PUSH1 0x40 MLOAD PUSH4 0xEB6C3AEB PUSH1 0xE0 SHL DUP2 MSTORE PUSH1 0x4 ADD PUSH1 0x40 MLOAD DUP1 SWAP2 SUB SWAP1 REVERT JUMPDEST PUSH0 DUP2 PUSH1 0x2 DUP2 GT ISZERO PUSH3 0x5CB JUMPI PUSH3 0x5CB PUSH3 0xD55 JUMP JUMPDEST SUB PUSH3 0x5EA JUMPI PUSH3 0x5DF DUP8 DUP7 DUP7 DUP6 PUSH3 0x75F JUMP JUMPDEST SWAP1 SWAP6 POP SWAP4 POP PUSH3 0x64A JUMP JUMPDEST PUSH1 0x1 DUP2 PUSH1 0x2 DUP2 GT ISZERO PUSH3 0x601 JUMPI PUSH3 0x601 PUSH3 0xD55 JUMP JUMPDEST SUB PUSH3 0x619 JUMPI PUSH3 0x613 DUP8 DUP4 PUSH3 0x8CE JUMP JUMPDEST PUSH3 0x64A JUMP JUMPDEST PUSH1 0x2 DUP2 PUSH1 0x2 DUP2 GT ISZERO PUSH3 0x630 JUMPI PUSH3 0x630 PUSH3 0xD55 JUMP JUMPDEST SUB PUSH3 0x64A JUMPI PUSH3 0x644 DUP8 DUP7 DUP7 DUP6 PUSH3 0xA18 JUMP JUMPDEST SWAP1 SWAP6 POP SWAP4 POP JUMPDEST POP POP PUSH1 0x1 ADD PUSH3 0x55D JUMP JUMPDEST POP DUP3 DUP3 EQ PUSH3 0x672 JUMPI PUSH1 0x1 DUP5 ADD DUP1 SLOAD PUSH2 0xFFFF NOT AND PUSH2 0xFFFF DUP5 AND OR SWAP1 SSTORE JUMPDEST PUSH1 0x7 DUP3 AND ISZERO PUSH3 0x694 JUMPI PUSH1 0x3 DUP3 SWAP1 SHR PUSH0 SWAP1 DUP2 MSTORE PUSH1 0x2 DUP6 ADD PUSH1 0x20 MSTORE PUSH1 0x40 SWAP1 KECCAK256 DUP2 SWAP1 SSTORE JUMPDEST PUSH32 0x8FAA70878671CCD212D20771B795C50AF8FD3FF6CF27F4BDE57E5D4DE0AEB673 DUP8 DUP8 DUP8 PUSH1 0x40 MLOAD PUSH3 0x6C9 SWAP4 SWAP3 SWAP2 SWAP1 PUSH3 0xDBA JUMP JUMPDEST PUSH1 0x40 MLOAD DUP1 SWAP2 SUB SWAP1 LOG1 PUSH3 0x6DD DUP7 DUP7 PUSH3 0xC35 JUMP JUMPDEST POP POP POP POP POP POP POP JUMP JUMPDEST PUSH32 0x8A22373512790C48B83A1FE2EFDD2888D4A917BCDC24D0ADF63E60F671680460 DUP1 SLOAD PUSH1 0x40 MLOAD PUSH1 0x1 PUSH1 0x1 PUSH1 0xA0 SHL SUB DUP5 DUP2 AND SWAP3 AND SWAP1 PUSH32 0x8BE0079C531659141344CD1FD0A4F28419497F9722A3DAAFE3B4186F6B6457E0 SWAP1 PUSH0 SWAP1 LOG3 DUP1 SLOAD PUSH1 0x1 PUSH1 0x1 PUSH1 0xA0 SHL SUB NOT AND PUSH1 0x1 PUSH1 0x1 PUSH1 0xA0 SHL SUB SWAP3 SWAP1 SWAP3 AND SWAP2 SWAP1 SWAP2 OR SWAP1 SSTORE JUMP JUMPDEST DUP1 MLOAD PUSH0 SWAP1 DUP2 SWAP1 PUSH1 0x1 PUSH1 0x1 PUSH1 0xA0 SHL SUB AND EXTCODESIZE ISZERO PUSH3 0x7A8 JUMPI DUP3 MLOAD ADDRESS PUSH1 0x1 PUSH1 0x1 PUSH1 0xA0 SHL SUB SWAP1 SWAP2 AND SUB PUSH3 0x7A2 JUMPI PUSH1 0x40 MLOAD PUSH4 0xE9835731 PUSH1 0xE0 SHL DUP2 MSTORE PUSH1 0x4 ADD PUSH1 0x40 MLOAD DUP1 SWAP2 SUB SWAP1 REVERT JUMPDEST PUSH3 0x7D3 JUMP JUMPDEST DUP3 MLOAD PUSH1 0x1 PUSH1 0x1 PUSH1 0xA0 SHL SUB AND ADDRESS EQ PUSH3 0x7D3 JUMPI PUSH1 0x40 MLOAD PUSH4 0x3DDC5CAB PUSH1 0xE2 SHL DUP2 MSTORE PUSH1 0x4 ADD PUSH1 0x40 MLOAD DUP1 SWAP2 SUB SWAP1 REVERT JUMPDEST PUSH0 JUMPDEST DUP4 PUSH1 0x40 ADD MLOAD MLOAD DUP2 LT ISZERO PUSH3 0x8C1 JUMPI PUSH0 DUP5 PUSH1 0x40 ADD MLOAD DUP3 DUP2 MLOAD DUP2 LT PUSH3 0x7FD JUMPI PUSH3 0x7FD PUSH3 0xD41 JUMP JUMPDEST PUSH1 0x20 SWAP1 DUP2 MUL SWAP2 SWAP1 SWAP2 ADD DUP2 ADD MLOAD PUSH1 0x1 PUSH1 0x1 PUSH1 0xE0 SHL SUB NOT DUP2 AND PUSH0 SWAP1 DUP2 MSTORE SWAP2 DUP11 SWAP1 MSTORE PUSH1 0x40 SWAP1 SWAP2 KECCAK256 SLOAD SWAP1 SWAP2 POP PUSH1 0x60 DUP2 SWAP1 SHR ISZERO PUSH3 0x849 JUMPI PUSH1 0x40 MLOAD PUSH4 0x4923A771 PUSH1 0xE1 SHL DUP2 MSTORE PUSH1 0x4 ADD PUSH1 0x40 MLOAD DUP1 SWAP2 SUB SWAP1 REVERT JUMPDEST DUP6 MLOAD PUSH1 0x1 PUSH1 0x1 PUSH1 0xE0 SHL SUB NOT DUP4 DUP2 AND PUSH0 DUP2 DUP2 MSTORE PUSH1 0x20 DUP14 SWAP1 MSTORE PUSH1 0x40 SWAP1 KECCAK256 PUSH1 0x60 SWAP4 SWAP1 SWAP4 SHL PUSH1 0x1 PUSH1 0x1 PUSH1 0x60 SHL SUB NOT AND DUP12 OR SWAP1 SWAP3 SSTORE PUSH1 0x5 DUP11 SWAP1 SHL PUSH1 0xE0 SWAP1 DUP2 AND SWAP3 DUP4 SHR SWAP2 DUP4 SHR NOT SWAP10 SWAP1 SWAP10 AND OR SWAP8 DUP2 SWAP1 SUB PUSH3 0x8B1 JUMPI PUSH1 0x3 DUP10 SWAP1 SHR PUSH0 SWAP1 DUP2 MSTORE PUSH1 0x2 DUP12 ADD PUSH1 0x20 MSTORE PUSH1 0x40 DUP2 KECCAK256 SWAP9 SWAP1 SWAP9 SSTORE JUMPDEST POP POP POP PUSH1 0x1 SWAP6 DUP7 ADD SWAP6 ADD PUSH3 0x7D5 JUMP JUMPDEST POP SWAP4 SWAP6 SWAP3 SWAP5 POP SWAP2 SWAP3 POP POP POP JUMP JUMPDEST DUP1 MLOAD PUSH1 0x1 PUSH1 0x1 PUSH1 0xA0 SHL SUB AND EXTCODESIZE PUSH3 0x8F8 JUMPI PUSH1 0x40 MLOAD PUSH4 0x3DDC5CAB PUSH1 0xE2 SHL DUP2 MSTORE PUSH1 0x4 ADD PUSH1 0x40 MLOAD DUP1 SWAP2 SUB SWAP1 REVERT JUMPDEST PUSH0 JUMPDEST DUP2 PUSH1 0x40 ADD MLOAD MLOAD DUP2 LT ISZERO PUSH3 0xA13 JUMPI PUSH0 DUP3 PUSH1 0x40 ADD MLOAD DUP3 DUP2 MLOAD DUP2 LT PUSH3 0x922 JUMPI PUSH3 0x922 PUSH3 0xD41 JUMP JUMPDEST PUSH1 0x20 SWAP1 DUP2 MUL SWAP2 SWAP1 SWAP2 ADD DUP2 ADD MLOAD PUSH1 0x1 PUSH1 0x1 PUSH1 0xE0 SHL SUB NOT DUP2 AND PUSH0 SWAP1 DUP2 MSTORE SWAP2 DUP7 SWAP1 MSTORE PUSH1 0x40 SWAP1 SWAP2 KECCAK256 SLOAD SWAP1 SWAP2 POP PUSH1 0x60 DUP2 SWAP1 SHR DUP1 PUSH3 0x96E JUMPI PUSH1 0x40 MLOAD PUSH4 0x37E25A97 PUSH1 0xE1 SHL DUP2 MSTORE PUSH1 0x4 ADD PUSH1 0x40 MLOAD DUP1 SWAP2 SUB SWAP1 REVERT JUMPDEST ADDRESS PUSH1 0x1 PUSH1 0x1 PUSH1 0xA0 SHL SUB DUP3 AND SUB PUSH3 0x998 JUMPI PUSH1 0x40 MLOAD PUSH4 0xE9835731 PUSH1 0xE0 SHL DUP2 MSTORE PUSH1 0x4 ADD PUSH1 0x40 MLOAD DUP1 SWAP2 SUB SWAP1 REVERT JUMPDEST DUP5 PUSH0 ADD MLOAD PUSH1 0x1 PUSH1 0x1 PUSH1 0xA0 SHL SUB AND DUP2 PUSH1 0x1 PUSH1 0x1 PUSH1 0xA0 SHL SUB AND SUB PUSH3 0x9CE JUMPI PUSH1 0x40 MLOAD PUSH4 0x30BAABF3 PUSH1 0xE1 SHL DUP2 MSTORE PUSH1 0x4 ADD PUSH1 0x40 MLOAD DUP1 SWAP2 SUB SWAP1 REVERT JUMPDEST POP DUP4 MLOAD PUSH1 0x1 PUSH1 0x1 PUSH1 0xE0 SHL SUB NOT SWAP3 SWAP1 SWAP3 AND PUSH0 SWAP1 DUP2 MSTORE PUSH1 0x20 DUP7 SWAP1 MSTORE PUSH1 0x40 SWAP1 KECCAK256 PUSH1 0x60 SWAP3 SWAP1 SWAP3 SHL PUSH1 0x1 PUSH1 0x1 PUSH1 0x60 SHL SUB NOT AND PUSH1 0x1 PUSH1 0x1 PUSH1 0x60 SHL SUB SWAP2 SWAP1 SWAP2 AND OR SWAP1 SSTORE PUSH1 0x1 ADD PUSH3 0x8FA JUMP JUMPDEST POP POP POP JUMP JUMPDEST DUP1 MLOAD PUSH0 SWAP1 DUP2 SWAP1 PUSH1 0x1 PUSH1 0x1 PUSH1 0xA0 SHL SUB AND ISZERO PUSH3 0xA46 JUMPI PUSH1 0x40 MLOAD PUSH4 0x3AB34909 PUSH1 0xE2 SHL DUP2 MSTORE PUSH1 0x4 ADD PUSH1 0x40 MLOAD DUP1 SWAP2 SUB SWAP1 REVERT JUMPDEST PUSH1 0x3 DUP6 SWAP1 SHR PUSH1 0x7 DUP7 AND PUSH0 JUMPDEST DUP6 PUSH1 0x40 ADD MLOAD MLOAD DUP2 LT ISZERO PUSH3 0xC21 JUMPI PUSH0 DUP7 PUSH1 0x40 ADD MLOAD DUP3 DUP2 MLOAD DUP2 LT PUSH3 0xA79 JUMPI PUSH3 0xA79 PUSH3 0xD41 JUMP JUMPDEST PUSH1 0x20 SWAP1 DUP2 MUL SWAP2 SWAP1 SWAP2 ADD DUP2 ADD MLOAD PUSH1 0x1 PUSH1 0x1 PUSH1 0xE0 SHL SUB NOT DUP2 AND PUSH0 SWAP1 DUP2 MSTORE SWAP2 DUP13 SWAP1 MSTORE PUSH1 0x40 SWAP1 SWAP2 KECCAK256 SLOAD SWAP1 SWAP2 POP PUSH1 0x60 DUP2 SWAP1 SHR PUSH3 0xAC4 JUMPI PUSH1 0x40 MLOAD PUSH4 0x37E25A97 PUSH1 0xE1 SHL DUP2 MSTORE PUSH1 0x4 ADD PUSH1 0x40 MLOAD DUP1 SWAP2 SUB SWAP1 REVERT JUMPDEST ADDRESS PUSH1 0x60 DUP3 SWAP1 SHR SUB PUSH3 0xAE9 JUMPI PUSH1 0x40 MLOAD PUSH4 0xE9835731 PUSH1 0xE0 SHL DUP2 MSTORE PUSH1 0x4 ADD PUSH1 0x40 MLOAD DUP1 SWAP2 SUB SWAP1 REVERT JUMPDEST PUSH0 DUP10 SWAP1 SUB PUSH3 0xB14 JUMPI PUSH0 NOT SWAP1 SWAP5 ADD PUSH0 DUP2 DUP2 MSTORE PUSH1 0x2 DUP13 ADD PUSH1 0x20 MSTORE PUSH1 0x40 SWAP1 KECCAK256 SLOAD SWAP9 POP SWAP4 PUSH1 0x7 SWAP4 POP PUSH3 0xB1B JUMP JUMPDEST PUSH0 NOT SWAP1 SWAP4 ADD SWAP3 JUMPDEST PUSH1 0x5 DUP5 SWAP1 SHL DUP10 SWAP1 SHL PUSH0 DUP1 PUSH1 0x1 PUSH1 0x1 PUSH1 0xE0 SHL SUB NOT DUP1 DUP5 AND SWAP1 DUP7 AND EQ PUSH3 0xB6C JUMPI PUSH1 0x1 PUSH1 0x1 PUSH1 0xE0 SHL SUB NOT DUP4 AND PUSH0 SWAP1 DUP2 MSTORE PUSH1 0x20 DUP16 SWAP1 MSTORE PUSH1 0x40 SWAP1 KECCAK256 DUP1 SLOAD PUSH1 0x1 PUSH1 0x1 PUSH1 0x60 SHL SUB NOT AND PUSH1 0x1 PUSH1 0x1 PUSH1 0x60 SHL SUB DUP7 AND OR SWAP1 SSTORE JUMPDEST POP POP PUSH1 0x1 PUSH1 0x1 PUSH1 0xE0 SHL SUB NOT DUP4 AND PUSH0 SWAP1 DUP2 MSTORE PUSH1 0x20 DUP14 SWAP1 MSTORE PUSH1 0x40 DUP2 KECCAK256 SSTORE PUSH2 0x1FFF PUSH1 0x3 DUP4 SWAP1 SHR AND PUSH1 0xE0 PUSH1 0x5 DUP5 SWAP1 SHL AND DUP8 DUP3 EQ PUSH3 0xBCF JUMPI PUSH0 DUP3 DUP2 MSTORE PUSH1 0x2 DUP16 ADD PUSH1 0x20 MSTORE PUSH1 0x40 SWAP1 KECCAK256 DUP1 SLOAD PUSH1 0x1 PUSH1 0x1 PUSH1 0xE0 SHL SUB NOT DUP1 DUP5 SHR NOT SWAP1 SWAP2 AND SWAP1 DUP6 AND DUP4 SHR OR SWAP1 SSTORE PUSH3 0xBF2 JUMP JUMPDEST DUP1 DUP4 PUSH1 0x1 PUSH1 0x1 PUSH1 0xE0 SHL SUB NOT AND SWAP1 SHR DUP2 PUSH1 0x1 PUSH1 0x1 PUSH1 0xE0 SHL SUB NOT PUSH0 SHL SWAP1 SHR NOT DUP14 AND OR SWAP12 POP JUMPDEST DUP7 PUSH0 SUB PUSH3 0xC0F JUMPI PUSH0 DUP9 DUP2 MSTORE PUSH1 0x2 DUP16 ADD PUSH1 0x20 MSTORE PUSH1 0x40 DUP2 KECCAK256 DUP2 SWAP1 SSTORE SWAP12 POP JUMPDEST POP POP PUSH1 0x1 SWAP1 SWAP4 ADD SWAP3 POP PUSH3 0xA51 SWAP2 POP POP JUMP JUMPDEST POP PUSH1 0x3 SWAP2 SWAP1 SWAP2 SHL OR SWAP7 SWAP4 SWAP6 POP SWAP3 SWAP4 POP POP POP POP JUMP JUMPDEST DUP1 MLOAD ISZERO PUSH1 0x1 PUSH1 0x1 PUSH1 0xA0 SHL SUB DUP4 AND ISZERO EQ PUSH3 0xC62 JUMPI PUSH1 0x40 MLOAD PUSH4 0x26DF4CCD PUSH1 0xE0 SHL DUP2 MSTORE PUSH1 0x4 ADD PUSH1 0x40 MLOAD DUP1 SWAP2 SUB SWAP1 REVERT JUMPDEST PUSH1 0x1 PUSH1 0x1 PUSH1 0xA0 SHL SUB DUP3 AND ISZERO PUSH3 0xD18 JUMPI PUSH1 0x1 PUSH1 0x1 PUSH1 0xA0 SHL SUB DUP3 AND ADDRESS EQ PUSH3 0xCAC JUMPI PUSH1 0x1 PUSH1 0x1 PUSH1 0xA0 SHL SUB DUP3 AND EXTCODESIZE PUSH3 0xCAC JUMPI PUSH1 0x40 MLOAD PUSH4 0x3DDC5CAB PUSH1 0xE2 SHL DUP2 MSTORE PUSH1 0x4 ADD PUSH1 0x40 MLOAD DUP1 SWAP2 SUB SWAP1 REVERT JUMPDEST PUSH0 DUP3 PUSH1 0x1 PUSH1 0x1 PUSH1 0xA0 SHL SUB AND DUP3 PUSH1 0x40 MLOAD PUSH3 0xCC7 SWAP2 SWAP1 PUSH3 0xEBF JUMP JUMPDEST PUSH0 PUSH1 0x40 MLOAD DUP1 DUP4 SUB DUP2 DUP6 GAS DELEGATECALL SWAP2 POP POP RETURNDATASIZE DUP1 PUSH0 DUP2 EQ PUSH3 0xD01 JUMPI PUSH1 0x40 MLOAD SWAP2 POP PUSH1 0x1F NOT PUSH1 0x3F RETURNDATASIZE ADD AND DUP3 ADD PUSH1 0x40 MSTORE RETURNDATASIZE DUP3 MSTORE RETURNDATASIZE PUSH0 PUSH1 0x20 DUP5 ADD RETURNDATACOPY PUSH3 0xD06 JUMP JUMPDEST PUSH1 0x60 SWAP2 POP JUMPDEST POP POP SWAP1 POP DUP1 PUSH3 0xA13 JUMPI RETURNDATASIZE PUSH0 DUP1 RETURNDATACOPY RETURNDATASIZE PUSH0 REVERT JUMPDEST POP POP JUMP JUMPDEST PUSH0 PUSH1 0x1 DUP3 ADD PUSH3 0xD3A JUMPI PUSH4 0x4E487B71 PUSH1 0xE0 SHL PUSH0 MSTORE PUSH1 0x11 PUSH1 0x4 MSTORE PUSH1 0x24 PUSH0 REVERT JUMPDEST POP PUSH1 0x1 ADD SWAP1 JUMP JUMPDEST PUSH4 0x4E487B71 PUSH1 0xE0 SHL PUSH0 MSTORE PUSH1 0x32 PUSH1 0x4 MSTORE PUSH1 0x24 PUSH0 REVERT JUMPDEST PUSH4 0x4E487B71 PUSH1 0xE0 SHL PUSH0 MSTORE PUSH1 0x21 PUSH1 0x4 MSTORE PUSH1 0x24 PUSH0 REVERT JUMPDEST PUSH0 JUMPDEST DUP4 DUP2 LT ISZERO PUSH3 0xD85 JUMPI DUP2 DUP2 ADD MLOAD DUP4 DUP3 ADD MSTORE PUSH1 0x20 ADD PUSH3 0xD6B JUMP JUMPDEST POP POP PUSH0 SWAP2 ADD MSTORE JUMP JUMPDEST PUSH0 DUP2 MLOAD DUP1 DUP5 MSTORE PUSH3 0xDA6 DUP2 PUSH1 0x20 DUP7 ADD PUSH1 0x20 DUP7 ADD PUSH3 0xD69 JUMP JUMPDEST PUSH1 0x1F ADD PUSH1 0x1F NOT AND SWAP3 SWAP1 SWAP3 ADD PUSH1 0x20 ADD SWAP3 SWAP2 POP POP JUMP JUMPDEST PUSH0 PUSH1 0x60 DUP1 DUP4 ADD PUSH1 0x60 DUP5 MSTORE DUP1 DUP8 MLOAD DUP1 DUP4 MSTORE PUSH1 0x80 SWAP3 POP PUSH1 0x80 DUP7 ADD SWAP2 POP PUSH1 0x80 DUP2 PUSH1 0x5 SHL DUP8 ADD ADD PUSH1 0x20 DUP1 DUP12 ADD PUSH0 JUMPDEST DUP5 DUP2 LT ISZERO PUSH3 0xE8D JUMPI DUP10 DUP5 SUB PUSH1 0x7F NOT ADD DUP7 MSTORE DUP2 MLOAD DUP1 MLOAD PUSH1 0x1 PUSH1 0x1 PUSH1 0xA0 SHL SUB AND DUP6 MSTORE DUP4 DUP2 ADD MLOAD DUP10 DUP7 ADD SWAP1 PUSH1 0x3 DUP2 LT PUSH3 0xE2A JUMPI PUSH4 0x4E487B71 PUSH1 0xE0 SHL PUSH0 MSTORE PUSH1 0x21 PUSH1 0x4 MSTORE PUSH1 0x24 PUSH0 REVERT JUMPDEST DUP7 DUP7 ADD MSTORE PUSH1 0x40 SWAP2 DUP3 ADD MLOAD SWAP2 DUP7 ADD DUP11 SWAP1 MSTORE DUP2 MLOAD SWAP1 DUP2 SWAP1 MSTORE SWAP1 DUP5 ADD SWAP1 PUSH0 SWAP1 DUP10 DUP8 ADD SWAP1 JUMPDEST DUP1 DUP4 LT ISZERO PUSH3 0xE77 JUMPI DUP4 MLOAD PUSH1 0x1 PUSH1 0x1 PUSH1 0xE0 SHL SUB NOT AND DUP3 MSTORE SWAP3 DUP7 ADD SWAP3 PUSH1 0x1 SWAP3 SWAP1 SWAP3 ADD SWAP2 SWAP1 DUP7 ADD SWAP1 PUSH3 0xE4B JUMP JUMPDEST POP SWAP8 DUP6 ADD SWAP8 SWAP6 POP POP POP SWAP1 DUP3 ADD SWAP1 PUSH1 0x1 ADD PUSH3 0xDE4 JUMP JUMPDEST POP POP PUSH1 0x1 PUSH1 0x1 PUSH1 0xA0 SHL SUB DUP11 AND SWAP1 DUP9 ADD MSTORE DUP7 DUP2 SUB PUSH1 0x40 DUP9 ADD MSTORE PUSH3 0xEB1 DUP2 DUP10 PUSH3 0xD8D JUMP JUMPDEST SWAP11 SWAP10 POP POP POP POP POP POP POP POP POP POP JUMP JUMPDEST PUSH0 DUP3 MLOAD PUSH3 0xED2 DUP2 DUP5 PUSH1 0x20 DUP8 ADD PUSH3 0xD69 JUMP JUMPDEST SWAP2 SWAP1 SWAP2 ADD SWAP3 SWAP2 POP POP JUMP JUMPDEST PUSH2 0x1CDC DUP1 PUSH3 0xEEA PUSH0 CODECOPY PUSH0 RETURN INVALID PUSH1 0x80 PUSH1 0x40 MSTORE PUSH1 0x4 CALLDATASIZE LT PUSH2 0xCA JUMPI PUSH0 CALLDATALOAD PUSH1 0xE0 SHR DUP1 PUSH4 0x8AB5150A GT PUSH2 0x73 JUMPI DUP1 PUSH4 0xADFCA15E GT PUSH2 0x4D JUMPI DUP1 PUSH4 0xADFCA15E EQ PUSH2 0x259 JUMPI DUP1 PUSH4 0xCDFFACC6 EQ PUSH2 0x285 JUMPI DUP1 PUSH4 0xF2FDE38B EQ PUSH2 0x2A4 JUMPI PUSH2 0xD1 JUMP JUMPDEST DUP1 PUSH4 0x8AB5150A EQ PUSH2 0x212 JUMPI DUP1 PUSH4 0x8DA5CB5B EQ PUSH2 0x226 JUMPI DUP1 PUSH4 0x91423765 EQ PUSH2 0x23A JUMPI PUSH2 0xD1 JUMP JUMPDEST DUP1 PUSH4 0x52EF6B2C GT PUSH2 0xA4 JUMPI DUP1 PUSH4 0x52EF6B2C EQ PUSH2 0x1BC JUMPI DUP1 PUSH4 0x79BA5097 EQ PUSH2 0x1DD JUMPI DUP1 PUSH4 0x7A0ED627 EQ PUSH2 0x1F1 JUMPI PUSH2 0xD1 JUMP JUMPDEST DUP1 PUSH4 0x1FFC9A7 EQ PUSH2 0x13D JUMPI DUP1 PUSH4 0x1F931C1C EQ PUSH2 0x171 JUMPI DUP1 PUSH4 0x2C408059 EQ PUSH2 0x190 JUMPI PUSH2 0xD1 JUMP JUMPDEST CALLDATASIZE PUSH2 0xD1 JUMPI STOP JUMPDEST PUSH0 PUSH2 0xDA PUSH2 0x2C3 JUMP JUMPDEST SWAP1 POP PUSH1 0x1 PUSH1 0x1 PUSH1 0xA0 SHL SUB DUP2 AND EXTCODESIZE PUSH2 0x11D JUMPI PUSH1 0x40 MLOAD PUSH32 0x87C9FC3400000000000000000000000000000000000000000000000000000000 DUP2 MSTORE PUSH1 0x4 ADD PUSH1 0x40 MLOAD DUP1 SWAP2 SUB SWAP1 REVERT JUMPDEST CALLDATASIZE PUSH0 DUP1 CALLDATACOPY PUSH0 DUP1 CALLDATASIZE PUSH0 DUP5 GAS DELEGATECALL RETURNDATASIZE PUSH0 DUP1 RETURNDATACOPY DUP1 DUP1 ISZERO PUSH2 0x137 JUMPI RETURNDATASIZE PUSH0 RETURN JUMPDEST RETURNDATASIZE PUSH0 REVERT JUMPDEST STOP JUMPDEST CALLVALUE DUP1 ISZERO PUSH2 0x148 JUMPI PUSH0 DUP1 REVERT JUMPDEST POP PUSH2 0x15C PUSH2 0x157 CALLDATASIZE PUSH1 0x4 PUSH2 0x16C6 JUMP JUMPDEST PUSH2 0x2D1 JUMP JUMPDEST PUSH1 0x40 MLOAD SWAP1 ISZERO ISZERO DUP2 MSTORE PUSH1 0x20 ADD JUMPDEST PUSH1 0x40 MLOAD DUP1 SWAP2 SUB SWAP1 RETURN JUMPDEST CALLVALUE DUP1 ISZERO PUSH2 0x17C JUMPI PUSH0 DUP1 REVERT JUMPDEST POP PUSH2 0x13B PUSH2 0x18B CALLDATASIZE PUSH1 0x4 PUSH2 0x1741 JUMP JUMPDEST PUSH2 0x313 JUMP JUMPDEST CALLVALUE DUP1 ISZERO PUSH2 0x19B JUMPI PUSH0 DUP1 REVERT JUMPDEST POP PUSH2 0x1A4 PUSH2 0x39C JUMP JUMPDEST PUSH1 0x40 MLOAD PUSH1 0x1 PUSH1 0x1 PUSH1 0xA0 SHL SUB SWAP1 SWAP2 AND DUP2 MSTORE PUSH1 0x20 ADD PUSH2 0x168 JUMP JUMPDEST CALLVALUE DUP1 ISZERO PUSH2 0x1C7 JUMPI PUSH0 DUP1 REVERT JUMPDEST POP PUSH2 0x1D0 PUSH2 0x3CE JUMP JUMPDEST PUSH1 0x40 MLOAD PUSH2 0x168 SWAP2 SWAP1 PUSH2 0x17EA JUMP JUMPDEST CALLVALUE DUP1 ISZERO PUSH2 0x1E8 JUMPI PUSH0 DUP1 REVERT JUMPDEST POP PUSH2 0x13B PUSH2 0x3D8 JUMP JUMPDEST CALLVALUE DUP1 ISZERO PUSH2 0x1FC JUMPI PUSH0 DUP1 REVERT JUMPDEST POP PUSH2 0x205 PUSH2 0x434 JUMP JUMPDEST PUSH1 0x40 MLOAD PUSH2 0x168 SWAP2 SWAP1 PUSH2 0x187A JUMP JUMPDEST CALLVALUE DUP1 ISZERO PUSH2 0x21D JUMPI PUSH0 DUP1 REVERT JUMPDEST POP PUSH2 0x1A4 PUSH2 0x43E JUMP JUMPDEST CALLVALUE DUP1 ISZERO PUSH2 0x231 JUMPI PUSH0 DUP1 REVERT JUMPDEST POP PUSH2 0x1A4 PUSH2 0x447 JUMP JUMPDEST CALLVALUE DUP1 ISZERO PUSH2 0x245 JUMPI PUSH0 DUP1 REVERT JUMPDEST POP PUSH2 0x13B PUSH2 0x254 CALLDATASIZE PUSH1 0x4 PUSH2 0x18F7 JUMP JUMPDEST PUSH2 0x450 JUMP JUMPDEST CALLVALUE DUP1 ISZERO PUSH2 0x264 JUMPI PUSH0 DUP1 REVERT JUMPDEST POP PUSH2 0x278 PUSH2 0x273 CALLDATASIZE PUSH1 0x4 PUSH2 0x18F7 JUMP JUMPDEST PUSH2 0x4D6 JUMP JUMPDEST PUSH1 0x40 MLOAD PUSH2 0x168 SWAP2 SWAP1 PUSH2 0x1910 JUMP JUMPDEST CALLVALUE DUP1 ISZERO PUSH2 0x290 JUMPI PUSH0 DUP1 REVERT JUMPDEST POP PUSH2 0x1A4 PUSH2 0x29F CALLDATASIZE PUSH1 0x4 PUSH2 0x16C6 JUMP JUMPDEST PUSH2 0x4E1 JUMP JUMPDEST CALLVALUE DUP1 ISZERO PUSH2 0x2AF JUMPI PUSH0 DUP1 REVERT JUMPDEST POP PUSH2 0x13B PUSH2 0x2BE CALLDATASIZE PUSH1 0x4 PUSH2 0x18F7 JUMP JUMPDEST PUSH2 0x521 JUMP JUMPDEST PUSH0 PUSH2 0x2CC PUSH2 0x563 JUMP JUMPDEST SWAP1 POP SWAP1 JUMP JUMPDEST PUSH1 0x1 PUSH1 0x1 PUSH1 0xE0 SHL SUB NOT DUP2 AND PUSH0 SWAP1 DUP2 MSTORE PUSH32 0xFC606C433378E3A7E0A6A531DEAC289B66CAA1B4AA8554FD4AB2C6F1570F92D8 PUSH1 0x20 MSTORE PUSH1 0x40 DUP2 KECCAK256 SLOAD PUSH1 0xFF AND JUMPDEST SWAP3 SWAP2 POP POP JUMP JUMPDEST PUSH2 0x31B PUSH2 0x5D5 JUMP JUMPDEST PUSH1 0x1 PUSH1 0x1 PUSH1 0xA0 SHL SUB AND CALLER PUSH1 0x1 PUSH1 0x1 PUSH1 0xA0 SHL SUB AND EQ PUSH2 0x34C JUMPI PUSH1 0x40 MLOAD PUSH4 0x2F7A8EE1 PUSH1 0xE0 SHL DUP2 MSTORE PUSH1 0x4 ADD PUSH1 0x40 MLOAD DUP1 SWAP2 SUB SWAP1 REVERT JUMPDEST PUSH2 0x395 PUSH2 0x359 DUP6 DUP8 PUSH2 0x19E2 JUMP JUMPDEST DUP5 DUP5 DUP5 DUP1 DUP1 PUSH1 0x1F ADD PUSH1 0x20 DUP1 SWAP2 DIV MUL PUSH1 0x20 ADD PUSH1 0x40 MLOAD SWAP1 DUP2 ADD PUSH1 0x40 MSTORE DUP1 SWAP4 SWAP3 SWAP2 SWAP1 DUP2 DUP2 MSTORE PUSH1 0x20 ADD DUP4 DUP4 DUP1 DUP3 DUP5 CALLDATACOPY PUSH0 SWAP3 ADD SWAP2 SWAP1 SWAP2 MSTORE POP PUSH2 0x607 SWAP3 POP POP POP JUMP JUMPDEST POP POP POP POP POP JUMP JUMPDEST PUSH0 PUSH2 0x2CC PUSH32 0x177481AC65E4292921C69F62D1CC7F57541261E5D61C8175CF4E36A01C9BFC96 SLOAD PUSH1 0x1 PUSH1 0x1 PUSH1 0xA0 SHL SUB AND SWAP1 JUMP JUMPDEST PUSH1 0x60 PUSH2 0x2CC PUSH2 0x7F8 JUMP JUMPDEST PUSH2 0x3E0 PUSH2 0x9B6 JUMP JUMPDEST PUSH1 0x1 PUSH1 0x1 PUSH1 0xA0 SHL SUB AND CALLER PUSH1 0x1 PUSH1 0x1 PUSH1 0xA0 SHL SUB AND EQ PUSH2 0x42A JUMPI PUSH1 0x40 MLOAD PUSH32 0xEFD1052D00000000000000000000000000000000000000000000000000000000 DUP2 MSTORE PUSH1 0x4 ADD PUSH1 0x40 MLOAD DUP1 SWAP2 SUB SWAP1 REVERT JUMPDEST PUSH2 0x432 PUSH2 0x9DD JUMP JUMPDEST JUMP JUMPDEST PUSH1 0x60 PUSH2 0x2CC PUSH2 0xA24 JUMP JUMPDEST PUSH0 PUSH2 0x2CC PUSH2 0x9B6 JUMP JUMPDEST PUSH0 PUSH2 0x2CC PUSH2 0x5D5 JUMP JUMPDEST PUSH2 0x458 PUSH2 0x5D5 JUMP JUMPDEST PUSH1 0x1 PUSH1 0x1 PUSH1 0xA0 SHL SUB AND CALLER PUSH1 0x1 PUSH1 0x1 PUSH1 0xA0 SHL SUB AND EQ PUSH2 0x489 JUMPI PUSH1 0x40 MLOAD PUSH4 0x2F7A8EE1 PUSH1 0xE0 SHL DUP2 MSTORE PUSH1 0x4 ADD PUSH1 0x40 MLOAD DUP1 SWAP2 SUB SWAP1 REVERT JUMPDEST PUSH32 0x177481AC65E4292921C69F62D1CC7F57541261E5D61C8175CF4E36A01C9BFC96 DUP1 SLOAD PUSH20 0xFFFFFFFFFFFFFFFFFFFFFFFFFFFFFFFFFFFFFFFF NOT AND PUSH1 0x1 PUSH1 0x1 PUSH1 0xA0 SHL SUB DUP4 AND OR SWAP1 SSTORE POP JUMP JUMPDEST POP JUMP JUMPDEST PUSH1 0x60 PUSH2 0x30D DUP3 PUSH2 0xE54 JUMP JUMPDEST PUSH1 0x1 PUSH1 0x1 PUSH1 0xE0 SHL SUB NOT DUP2 AND PUSH0 SWAP1 DUP2 MSTORE PUSH32 0x177481AC65E4292921C69F62D1CC7F57541261E5D61C8175CF4E36A01C9BFC93 PUSH1 0x20 MSTORE PUSH1 0x40 DUP2 KECCAK256 SLOAD PUSH1 0x60 SHR PUSH2 0x30D JUMP JUMPDEST PUSH2 0x529 PUSH2 0x5D5 JUMP JUMPDEST PUSH1 0x1 PUSH1 0x1 PUSH1 0xA0 SHL SUB AND CALLER PUSH1 0x1 PUSH1 0x1 PUSH1 0xA0 SHL SUB AND EQ PUSH2 0x55A JUMPI PUSH1 0x40 MLOAD PUSH4 0x2F7A8EE1 PUSH1 0xE0 SHL DUP2 MSTORE PUSH1 0x4 ADD PUSH1 0x40 MLOAD DUP1 SWAP2 SUB SWAP1 REVERT JUMPDEST PUSH2 0x4D3 DUP2 PUSH2 0xFC5 JUMP JUMPDEST PUSH0 DUP1 CALLDATALOAD PUSH1 0x1 PUSH1 0x1 PUSH1 0xE0 SHL SUB NOT AND DUP2 MSTORE PUSH32 0x177481AC65E4292921C69F62D1CC7F57541261E5D61C8175CF4E36A01C9BFC93 PUSH1 0x20 MSTORE PUSH1 0x40 SWAP1 KECCAK256 SLOAD PUSH1 0x60 SHR DUP1 PUSH2 0x5D2 JUMPI POP PUSH32 0x177481AC65E4292921C69F62D1CC7F57541261E5D61C8175CF4E36A01C9BFC96 SLOAD PUSH1 0x1 PUSH1 0x1 PUSH1 0xA0 SHL SUB AND SWAP1 JUMP JUMPDEST SWAP1 JUMP JUMPDEST PUSH0 PUSH32 0x8A22373512790C48B83A1FE2EFDD2888D4A917BCDC24D0ADF63E60F671680460 JUMPDEST SLOAD PUSH1 0x1 PUSH1 0x1 PUSH1 0xA0 SHL SUB AND SWAP2 SWAP1 POP JUMP JUMPDEST PUSH32 0x177481AC65E4292921C69F62D1CC7F57541261E5D61C8175CF4E36A01C9BFC94 SLOAD PUSH32 0x177481AC65E4292921C69F62D1CC7F57541261E5D61C8175CF4E36A01C9BFC93 SWAP1 PUSH2 0xFFFF DUP2 AND SWAP1 DUP2 SWAP1 PUSH0 SWAP1 PUSH1 0x7 AND ISZERO PUSH2 0x674 JUMPI POP PUSH1 0x3 DUP2 SWAP1 SHR PUSH0 SWAP1 DUP2 MSTORE PUSH1 0x2 DUP5 ADD PUSH1 0x20 MSTORE PUSH1 0x40 SWAP1 KECCAK256 SLOAD JUMPDEST PUSH0 JUMPDEST DUP8 MLOAD DUP2 LT ISZERO PUSH2 0x76D JUMPI PUSH0 DUP9 DUP3 DUP2 MLOAD DUP2 LT PUSH2 0x692 JUMPI PUSH2 0x692 PUSH2 0x1B06 JUMP JUMPDEST PUSH1 0x20 MUL PUSH1 0x20 ADD ADD MLOAD SWAP1 POP PUSH0 DUP2 PUSH1 0x20 ADD MLOAD SWAP1 POP DUP2 PUSH1 0x40 ADD MLOAD MLOAD PUSH0 SUB PUSH2 0x6E2 JUMPI PUSH1 0x40 MLOAD PUSH32 0xEB6C3AEB00000000000000000000000000000000000000000000000000000000 DUP2 MSTORE PUSH1 0x4 ADD PUSH1 0x40 MLOAD DUP1 SWAP2 SUB SWAP1 REVERT JUMPDEST PUSH0 DUP2 PUSH1 0x2 DUP2 GT ISZERO PUSH2 0x6F5 JUMPI PUSH2 0x6F5 PUSH2 0x1B1A JUMP JUMPDEST SUB PUSH2 0x710 JUMPI PUSH2 0x706 DUP8 DUP7 DUP7 DUP6 PUSH2 0x1015 JUMP JUMPDEST SWAP1 SWAP6 POP SWAP4 POP PUSH2 0x763 JUMP JUMPDEST PUSH1 0x1 DUP2 PUSH1 0x2 DUP2 GT ISZERO PUSH2 0x724 JUMPI PUSH2 0x724 PUSH2 0x1B1A JUMP JUMPDEST SUB PUSH2 0x738 JUMPI PUSH2 0x733 DUP8 DUP4 PUSH2 0x1197 JUMP JUMPDEST PUSH2 0x763 JUMP JUMPDEST PUSH1 0x2 DUP2 PUSH1 0x2 DUP2 GT ISZERO PUSH2 0x74C JUMPI PUSH2 0x74C PUSH2 0x1B1A JUMP JUMPDEST SUB PUSH2 0x763 JUMPI PUSH2 0x75D DUP8 DUP7 DUP7 DUP6 PUSH2 0x12FB JUMP JUMPDEST SWAP1 SWAP6 POP SWAP4 POP JUMPDEST POP POP PUSH1 0x1 ADD PUSH2 0x676 JUMP JUMPDEST POP DUP3 DUP3 EQ PUSH2 0x789 JUMPI PUSH1 0x1 DUP5 ADD DUP1 SLOAD PUSH2 0xFFFF NOT AND PUSH2 0xFFFF DUP5 AND OR SWAP1 SSTORE JUMPDEST PUSH1 0x7 DUP3 AND ISZERO PUSH2 0x7AA JUMPI PUSH1 0x3 DUP3 SWAP1 SHR PUSH0 SWAP1 DUP2 MSTORE PUSH1 0x2 DUP6 ADD PUSH1 0x20 MSTORE PUSH1 0x40 SWAP1 KECCAK256 DUP2 SWAP1 SSTORE JUMPDEST PUSH32 0x8FAA70878671CCD212D20771B795C50AF8FD3FF6CF27F4BDE57E5D4DE0AEB673 DUP8 DUP8 DUP8 PUSH1 0x40 MLOAD PUSH2 0x7DD SWAP4 SWAP3 SWAP2 SWAP1 PUSH2 0x1B7B JUMP JUMPDEST PUSH1 0x40 MLOAD DUP1 SWAP2 SUB SWAP1 LOG1 PUSH2 0x7EF DUP7 DUP7 PUSH2 0x152D JUMP JUMPDEST POP POP POP POP POP POP POP JUMP JUMPDEST PUSH32 0x177481AC65E4292921C69F62D1CC7F57541261E5D61C8175CF4E36A01C9BFC94 SLOAD PUSH1 0x60 SWAP1 PUSH32 0x177481AC65E4292921C69F62D1CC7F57541261E5D61C8175CF4E36A01C9BFC93 SWAP1 PUSH2 0xFFFF AND PUSH8 0xFFFFFFFFFFFFFFFF DUP2 GT ISZERO PUSH2 0x85B JUMPI PUSH2 0x85B PUSH2 0x1951 JUMP JUMPDEST PUSH1 0x40 MLOAD SWAP1 DUP1 DUP3 MSTORE DUP1 PUSH1 0x20 MUL PUSH1 0x20 ADD DUP3 ADD PUSH1 0x40 MSTORE DUP1 ISZERO PUSH2 0x884 JUMPI DUP2 PUSH1 0x20 ADD PUSH1 0x20 DUP3 MUL DUP1 CALLDATASIZE DUP4 CALLDATACOPY ADD SWAP1 POP JUMPDEST POP SWAP2 POP PUSH0 DUP1 PUSH0 JUMPDEST PUSH1 0x1 DUP5 ADD SLOAD PUSH2 0xFFFF AND DUP3 LT ISZERO PUSH2 0x9AE JUMPI PUSH0 DUP2 DUP2 MSTORE PUSH1 0x2 DUP6 ADD PUSH1 0x20 MSTORE PUSH1 0x40 DUP2 KECCAK256 SLOAD SWAP1 JUMPDEST PUSH1 0x8 DUP2 LT ISZERO PUSH2 0x999 JUMPI DUP4 PUSH2 0x8C0 DUP2 PUSH2 0x1C55 JUMP JUMPDEST PUSH1 0x1 DUP9 ADD SLOAD SWAP1 SWAP6 POP PUSH2 0xFFFF AND DUP6 GT SWAP1 POP PUSH2 0x999 JUMPI PUSH1 0x5 DUP2 SWAP1 SHL DUP3 SWAP1 SHL PUSH1 0x1 PUSH1 0x1 PUSH1 0xE0 SHL SUB NOT DUP2 AND PUSH0 SWAP1 DUP2 MSTORE PUSH1 0x20 DUP9 SWAP1 MSTORE PUSH1 0x40 DUP2 KECCAK256 SLOAD PUSH1 0x60 SHR SWAP1 DUP1 JUMPDEST DUP9 DUP2 LT ISZERO PUSH2 0x946 JUMPI DUP11 DUP2 DUP2 MLOAD DUP2 LT PUSH2 0x915 JUMPI PUSH2 0x915 PUSH2 0x1B06 JUMP JUMPDEST PUSH1 0x20 MUL PUSH1 0x20 ADD ADD MLOAD PUSH1 0x1 PUSH1 0x1 PUSH1 0xA0 SHL SUB AND DUP4 PUSH1 0x1 PUSH1 0x1 PUSH1 0xA0 SHL SUB AND SUB PUSH2 0x93E JUMPI PUSH1 0x1 SWAP2 POP PUSH2 0x946 JUMP JUMPDEST PUSH1 0x1 ADD PUSH2 0x8FB JUMP JUMPDEST POP DUP1 ISZERO PUSH2 0x955 JUMPI POP POP POP PUSH2 0x991 JUMP JUMPDEST DUP2 DUP11 DUP10 DUP2 MLOAD DUP2 LT PUSH2 0x968 JUMPI PUSH2 0x968 PUSH2 0x1B06 JUMP JUMPDEST PUSH1 0x1 PUSH1 0x1 PUSH1 0xA0 SHL SUB SWAP1 SWAP3 AND PUSH1 0x20 SWAP3 DUP4 MUL SWAP2 SWAP1 SWAP2 ADD SWAP1 SWAP2 ADD MSTORE DUP8 PUSH2 0x98A DUP2 PUSH2 0x1C55 JUMP JUMPDEST SWAP9 POP POP POP POP POP JUMPDEST PUSH1 0x1 ADD PUSH2 0x8AD JUMP JUMPDEST POP POP DUP1 DUP1 PUSH2 0x9A6 SWAP1 PUSH2 0x1C55 JUMP JUMPDEST SWAP2 POP POP PUSH2 0x88B JUMP JUMPDEST POP POP DUP3 MSTORE POP SWAP1 JUMP JUMPDEST PUSH0 PUSH32 0x24AA1F7B31FD188A8D3ECFB06BC55C806040E59B03BD4396283442FCE6617890 PUSH2 0x5F8 JUMP JUMPDEST PUSH2 0x9E6 CALLER PUSH2 0x1624 JUMP JUMPDEST PUSH32 0x24AA1F7B31FD188A8D3ECFB06BC55C806040E59B03BD4396283442FCE6617890 DUP1 SLOAD PUSH20 0xFFFFFFFFFFFFFFFFFFFFFFFFFFFFFFFFFFFFFFFF NOT AND SWAP1 SSTORE JUMP JUMPDEST PUSH32 0x177481AC65E4292921C69F62D1CC7F57541261E5D61C8175CF4E36A01C9BFC94 SLOAD PUSH1 0x60 SWAP1 PUSH32 0x177481AC65E4292921C69F62D1CC7F57541261E5D61C8175CF4E36A01C9BFC93 SWAP1 PUSH2 0xFFFF AND PUSH8 0xFFFFFFFFFFFFFFFF DUP2 GT ISZERO PUSH2 0xA87 JUMPI PUSH2 0xA87 PUSH2 0x1951 JUMP JUMPDEST PUSH1 0x40 MLOAD SWAP1 DUP1 DUP3 MSTORE DUP1 PUSH1 0x20 MUL PUSH1 0x20 ADD DUP3 ADD PUSH1 0x40 MSTORE DUP1 ISZERO PUSH2 0xACC JUMPI DUP2 PUSH1 0x20 ADD JUMPDEST PUSH1 0x40 DUP1 MLOAD DUP1 DUP3 ADD SWAP1 SWAP2 MSTORE PUSH0 DUP2 MSTORE PUSH1 0x60 PUSH1 0x20 DUP3 ADD MSTORE DUP2 MSTORE PUSH1 0x20 ADD SWAP1 PUSH1 0x1 SWAP1 SUB SWAP1 DUP2 PUSH2 0xAA5 JUMPI SWAP1 POP JUMPDEST POP PUSH1 0x1 DUP3 ADD SLOAD SWAP1 SWAP3 POP PUSH0 SWAP1 PUSH2 0xFFFF AND PUSH8 0xFFFFFFFFFFFFFFFF DUP2 GT ISZERO PUSH2 0xAF3 JUMPI PUSH2 0xAF3 PUSH2 0x1951 JUMP JUMPDEST PUSH1 0x40 MLOAD SWAP1 DUP1 DUP3 MSTORE DUP1 PUSH1 0x20 MUL PUSH1 0x20 ADD DUP3 ADD PUSH1 0x40 MSTORE DUP1 ISZERO PUSH2 0xB1C JUMPI DUP2 PUSH1 0x20 ADD PUSH1 0x20 DUP3 MUL DUP1 CALLDATASIZE DUP4 CALLDATACOPY ADD SWAP1 POP JUMPDEST POP SWAP1 POP PUSH0 DUP1 PUSH0 JUMPDEST PUSH1 0x1 DUP6 ADD SLOAD PUSH2 0xFFFF AND DUP3 LT ISZERO PUSH2 0xDF0 JUMPI PUSH0 DUP2 DUP2 MSTORE PUSH1 0x2 DUP7 ADD PUSH1 0x20 MSTORE PUSH1 0x40 DUP2 KECCAK256 SLOAD SWAP1 JUMPDEST PUSH1 0x8 DUP2 LT ISZERO PUSH2 0xDDB JUMPI DUP4 PUSH2 0xB58 DUP2 PUSH2 0x1C55 JUMP JUMPDEST PUSH1 0x1 DUP10 ADD SLOAD SWAP1 SWAP6 POP PUSH2 0xFFFF AND DUP6 GT SWAP1 POP PUSH2 0xDDB JUMPI PUSH1 0x5 DUP2 SWAP1 SHL DUP3 SWAP1 SHL PUSH1 0x1 PUSH1 0x1 PUSH1 0xE0 SHL SUB NOT DUP2 AND PUSH0 SWAP1 DUP2 MSTORE PUSH1 0x20 DUP10 SWAP1 MSTORE PUSH1 0x40 DUP2 KECCAK256 SLOAD PUSH1 0x60 SHR SWAP1 DUP1 JUMPDEST DUP9 DUP2 LT ISZERO PUSH2 0xCA4 JUMPI DUP3 PUSH1 0x1 PUSH1 0x1 PUSH1 0xA0 SHL SUB AND DUP13 DUP3 DUP2 MLOAD DUP2 LT PUSH2 0xBB7 JUMPI PUSH2 0xBB7 PUSH2 0x1B06 JUMP JUMPDEST PUSH1 0x20 MUL PUSH1 0x20 ADD ADD MLOAD PUSH0 ADD MLOAD PUSH1 0x1 PUSH1 0x1 PUSH1 0xA0 SHL SUB AND SUB PUSH2 0xC9C JUMPI DUP4 DUP13 DUP3 DUP2 MLOAD DUP2 LT PUSH2 0xBE3 JUMPI PUSH2 0xBE3 PUSH2 0x1B06 JUMP JUMPDEST PUSH1 0x20 MUL PUSH1 0x20 ADD ADD MLOAD PUSH1 0x20 ADD MLOAD DUP12 DUP4 DUP2 MLOAD DUP2 LT PUSH2 0xC01 JUMPI PUSH2 0xC01 PUSH2 0x1B06 JUMP JUMPDEST PUSH1 0x20 MUL PUSH1 0x20 ADD ADD MLOAD PUSH1 0xFF AND DUP2 MLOAD DUP2 LT PUSH2 0xC1C JUMPI PUSH2 0xC1C PUSH2 0x1B06 JUMP JUMPDEST PUSH1 0x20 MUL PUSH1 0x20 ADD ADD SWAP1 PUSH1 0x1 PUSH1 0x1 PUSH1 0xE0 SHL SUB NOT AND SWAP1 DUP2 PUSH1 0x1 PUSH1 0x1 PUSH1 0xE0 SHL SUB NOT AND DUP2 MSTORE POP POP PUSH1 0xFF DUP11 DUP3 DUP2 MLOAD DUP2 LT PUSH2 0xC52 JUMPI PUSH2 0xC52 PUSH2 0x1B06 JUMP JUMPDEST PUSH1 0x20 MUL PUSH1 0x20 ADD ADD MLOAD PUSH1 0xFF AND LT PUSH2 0xC66 JUMPI PUSH0 DUP1 REVERT JUMPDEST DUP10 DUP2 DUP2 MLOAD DUP2 LT PUSH2 0xC78 JUMPI PUSH2 0xC78 PUSH2 0x1B06 JUMP JUMPDEST PUSH1 0x20 MUL PUSH1 0x20 ADD ADD DUP1 MLOAD DUP1 SWAP2 SWAP1 PUSH2 0xC8D SWAP1 PUSH2 0x1C6D JUMP JUMPDEST PUSH1 0xFF AND SWAP1 MSTORE POP PUSH1 0x1 SWAP2 POP PUSH2 0xCA4 JUMP JUMPDEST PUSH1 0x1 ADD PUSH2 0xB93 JUMP JUMPDEST POP DUP1 ISZERO PUSH2 0xCB3 JUMPI POP POP POP PUSH2 0xDD3 JUMP JUMPDEST DUP2 DUP12 DUP10 DUP2 MLOAD DUP2 LT PUSH2 0xCC6 JUMPI PUSH2 0xCC6 PUSH2 0x1B06 JUMP JUMPDEST PUSH1 0x20 SWAP1 DUP2 MUL SWAP2 SWAP1 SWAP2 ADD ADD MLOAD PUSH1 0x1 PUSH1 0x1 PUSH1 0xA0 SHL SUB SWAP1 SWAP2 AND SWAP1 MSTORE PUSH1 0x1 DUP11 ADD SLOAD PUSH2 0xFFFF AND PUSH8 0xFFFFFFFFFFFFFFFF DUP2 GT ISZERO PUSH2 0xCFF JUMPI PUSH2 0xCFF PUSH2 0x1951 JUMP JUMPDEST PUSH1 0x40 MLOAD SWAP1 DUP1 DUP3 MSTORE DUP1 PUSH1 0x20 MUL PUSH1 0x20 ADD DUP3 ADD PUSH1 0x40 MSTORE DUP1 ISZERO PUSH2 0xD28 JUMPI DUP2 PUSH1 0x20 ADD PUSH1 0x20 DUP3 MUL DUP1 CALLDATASIZE DUP4 CALLDATACOPY ADD SWAP1 POP JUMPDEST POP DUP12 DUP10 DUP2 MLOAD DUP2 LT PUSH2 0xD3B JUMPI PUSH2 0xD3B PUSH2 0x1B06 JUMP JUMPDEST PUSH1 0x20 MUL PUSH1 0x20 ADD ADD MLOAD PUSH1 0x20 ADD DUP2 SWAP1 MSTORE POP DUP3 DUP12 DUP10 DUP2 MLOAD DUP2 LT PUSH2 0xD5D JUMPI PUSH2 0xD5D PUSH2 0x1B06 JUMP JUMPDEST PUSH1 0x20 MUL PUSH1 0x20 ADD ADD MLOAD PUSH1 0x20 ADD MLOAD PUSH0 DUP2 MLOAD DUP2 LT PUSH2 0xD7A JUMPI PUSH2 0xD7A PUSH2 0x1B06 JUMP JUMPDEST PUSH1 0x20 MUL PUSH1 0x20 ADD ADD SWAP1 PUSH1 0x1 PUSH1 0x1 PUSH1 0xE0 SHL SUB NOT AND SWAP1 DUP2 PUSH1 0x1 PUSH1 0x1 PUSH1 0xE0 SHL SUB NOT AND DUP2 MSTORE POP POP PUSH1 0x1 DUP10 DUP10 DUP2 MLOAD DUP2 LT PUSH2 0xDB0 JUMPI PUSH2 0xDB0 PUSH2 0x1B06 JUMP JUMPDEST PUSH1 0xFF SWAP1 SWAP3 AND PUSH1 0x20 SWAP3 DUP4 MUL SWAP2 SWAP1 SWAP2 ADD SWAP1 SWAP2 ADD MSTORE DUP8 PUSH2 0xDCC DUP2 PUSH2 0x1C55 JUMP JUMPDEST SWAP9 POP POP POP POP POP JUMPDEST PUSH1 0x1 ADD PUSH2 0xB45 JUMP JUMPDEST POP POP DUP1 DUP1 PUSH2 0xDE8 SWAP1 PUSH2 0x1C55 JUMP JUMPDEST SWAP2 POP POP PUSH2 0xB23 JUMP JUMPDEST POP PUSH0 JUMPDEST DUP3 DUP2 LT ISZERO PUSH2 0xE49 JUMPI PUSH0 DUP5 DUP3 DUP2 MLOAD DUP2 LT PUSH2 0xE0E JUMPI PUSH2 0xE0E PUSH2 0x1B06 JUMP JUMPDEST PUSH1 0x20 MUL PUSH1 0x20 ADD ADD MLOAD PUSH1 0xFF AND SWAP1 POP PUSH0 DUP8 DUP4 DUP2 MLOAD DUP2 LT PUSH2 0xE2E JUMPI PUSH2 0xE2E PUSH2 0x1B06 JUMP JUMPDEST PUSH1 0x20 SWAP1 DUP2 MUL SWAP2 SWAP1 SWAP2 ADD DUP2 ADD MLOAD ADD MLOAD SWAP2 SWAP1 SWAP2 MSTORE POP PUSH1 0x1 ADD PUSH2 0xDF3 JUMP JUMPDEST POP DUP2 DUP6 MSTORE POP POP POP POP SWAP1 JUMP JUMPDEST PUSH32 0x177481AC65E4292921C69F62D1CC7F57541261E5D61C8175CF4E36A01C9BFC94 SLOAD PUSH1 0x60 SWAP1 PUSH32 0x177481AC65E4292921C69F62D1CC7F57541261E5D61C8175CF4E36A01C9BFC93 SWAP1 PUSH2 0xFFFF AND PUSH8 0xFFFFFFFFFFFFFFFF DUP2 GT ISZERO PUSH2 0xEB7 JUMPI PUSH2 0xEB7 PUSH2 0x1951 JUMP JUMPDEST PUSH1 0x40 MLOAD SWAP1 DUP1 DUP3 MSTORE DUP1 PUSH1 0x20 MUL PUSH1 0x20 ADD DUP3 ADD PUSH1 0x40 MSTORE DUP1 ISZERO PUSH2 0xEE0 JUMPI DUP2 PUSH1 0x20 ADD PUSH1 0x20 DUP3 MUL DUP1 CALLDATASIZE DUP4 CALLDATACOPY ADD SWAP1 POP JUMPDEST POP SWAP2 POP PUSH0 DUP1 PUSH0 JUMPDEST PUSH1 0x1 DUP5 ADD SLOAD PUSH2 0xFFFF AND DUP3 LT ISZERO PUSH2 0xFBB JUMPI PUSH0 DUP2 DUP2 MSTORE PUSH1 0x2 DUP6 ADD PUSH1 0x20 MSTORE PUSH1 0x40 DUP2 KECCAK256 SLOAD SWAP1 JUMPDEST PUSH1 0x8 DUP2 LT ISZERO PUSH2 0xFA6 JUMPI DUP4 PUSH2 0xF1C DUP2 PUSH2 0x1C55 JUMP JUMPDEST PUSH1 0x1 DUP9 ADD SLOAD SWAP1 SWAP6 POP PUSH2 0xFFFF AND DUP6 GT SWAP1 POP PUSH2 0xFA6 JUMPI PUSH1 0x5 DUP2 SWAP1 SHL DUP3 SWAP1 SHL PUSH1 0x1 PUSH1 0x1 PUSH1 0xE0 SHL SUB NOT DUP2 AND PUSH0 SWAP1 DUP2 MSTORE PUSH1 0x20 DUP9 SWAP1 MSTORE PUSH1 0x40 SWAP1 KECCAK256 SLOAD PUSH1 0x60 SHR PUSH1 0x1 PUSH1 0x1 PUSH1 0xA0 SHL SUB DUP11 AND SUB PUSH2 0xF9D JUMPI DUP1 DUP9 DUP8 DUP2 MLOAD DUP2 LT PUSH2 0xF76 JUMPI PUSH2 0xF76 PUSH2 0x1B06 JUMP JUMPDEST PUSH1 0x1 PUSH1 0x1 PUSH1 0xE0 SHL SUB NOT SWAP1 SWAP3 AND PUSH1 0x20 SWAP3 DUP4 MUL SWAP2 SWAP1 SWAP2 ADD SWAP1 SWAP2 ADD MSTORE DUP6 PUSH2 0xF99 DUP2 PUSH2 0x1C55 JUMP JUMPDEST SWAP7 POP POP JUMPDEST POP PUSH1 0x1 ADD PUSH2 0xF09 JUMP JUMPDEST POP POP DUP1 DUP1 PUSH2 0xFB3 SWAP1 PUSH2 0x1C55 JUMP JUMPDEST SWAP2 POP POP PUSH2 0xEE7 JUMP JUMPDEST POP POP DUP3 MSTORE POP SWAP2 SWAP1 POP JUMP JUMPDEST PUSH32 0x24AA1F7B31FD188A8D3ECFB06BC55C806040E59B03BD4396283442FCE6617890 DUP1 SLOAD PUSH20 0xFFFFFFFFFFFFFFFFFFFFFFFFFFFFFFFFFFFFFFFF NOT AND PUSH1 0x1 PUSH1 0x1 PUSH1 0xA0 SHL SUB DUP4 AND OR SWAP1 SSTORE PUSH2 0x4D3 DUP2 DUP2 DUP2 DUP2 JUMP JUMPDEST DUP1 MLOAD PUSH0 SWAP1 DUP2 SWAP1 PUSH1 0x1 PUSH1 0x1 PUSH1 0xA0 SHL SUB AND EXTCODESIZE ISZERO PUSH2 0x105B JUMPI DUP3 MLOAD ADDRESS PUSH1 0x1 PUSH1 0x1 PUSH1 0xA0 SHL SUB SWAP1 SWAP2 AND SUB PUSH2 0x1056 JUMPI PUSH1 0x40 MLOAD PUSH4 0xE9835731 PUSH1 0xE0 SHL DUP2 MSTORE PUSH1 0x4 ADD PUSH1 0x40 MLOAD DUP1 SWAP2 SUB SWAP1 REVERT JUMPDEST PUSH2 0x1085 JUMP JUMPDEST DUP3 MLOAD PUSH1 0x1 PUSH1 0x1 PUSH1 0xA0 SHL SUB AND ADDRESS EQ PUSH2 0x1085 JUMPI PUSH1 0x40 MLOAD PUSH4 0x3DDC5CAB PUSH1 0xE2 SHL DUP2 MSTORE PUSH1 0x4 ADD PUSH1 0x40 MLOAD DUP1 SWAP2 SUB SWAP1 REVERT JUMPDEST PUSH0 JUMPDEST DUP4 PUSH1 0x40 ADD MLOAD MLOAD DUP2 LT ISZERO PUSH2 0x118A JUMPI PUSH0 DUP5 PUSH1 0x40 ADD MLOAD DUP3 DUP2 MLOAD DUP2 LT PUSH2 0x10AB JUMPI PUSH2 0x10AB PUSH2 0x1B06 JUMP JUMPDEST PUSH1 0x20 SWAP1 DUP2 MUL SWAP2 SWAP1 SWAP2 ADD DUP2 ADD MLOAD PUSH1 0x1 PUSH1 0x1 PUSH1 0xE0 SHL SUB NOT DUP2 AND PUSH0 SWAP1 DUP2 MSTORE SWAP2 DUP11 SWAP1 MSTORE PUSH1 0x40 SWAP1 SWAP2 KECCAK256 SLOAD SWAP1 SWAP2 POP PUSH1 0x60 DUP2 SWAP1 SHR ISZERO PUSH2 0x110F JUMPI PUSH1 0x40 MLOAD PUSH32 0x92474EE200000000000000000000000000000000000000000000000000000000 DUP2 MSTORE PUSH1 0x4 ADD PUSH1 0x40 MLOAD DUP1 SWAP2 SUB SWAP1 REVERT JUMPDEST DUP6 MLOAD PUSH1 0x1 PUSH1 0x1 PUSH1 0xE0 SHL SUB NOT DUP4 DUP2 AND PUSH0 DUP2 DUP2 MSTORE PUSH1 0x20 DUP14 SWAP1 MSTORE PUSH1 0x40 SWAP1 KECCAK256 PUSH1 0x60 SWAP4 SWAP1 SWAP4 SHL PUSH12 0xFFFFFFFFFFFFFFFFFFFFFFFF NOT AND DUP12 OR SWAP1 SWAP3 SSTORE PUSH1 0x5 DUP11 SWAP1 SHL PUSH1 0xE0 SWAP1 DUP2 AND SWAP3 DUP4 SHR SWAP2 DUP4 SHR NOT SWAP10 SWAP1 SWAP10 AND OR SWAP8 DUP2 SWAP1 SUB PUSH2 0x117B JUMPI PUSH1 0x3 DUP10 SWAP1 SHR PUSH0 SWAP1 DUP2 MSTORE PUSH1 0x2 DUP12 ADD PUSH1 0x20 MSTORE PUSH1 0x40 DUP2 KECCAK256 SWAP9 SWAP1 SWAP9 SSTORE JUMPDEST POP POP POP PUSH1 0x1 SWAP6 DUP7 ADD SWAP6 ADD PUSH2 0x1087 JUMP JUMPDEST POP SWAP4 SWAP6 SWAP3 SWAP5 POP SWAP2 SWAP3 POP POP POP JUMP JUMPDEST DUP1 MLOAD PUSH1 0x1 PUSH1 0x1 PUSH1 0xA0 SHL SUB AND EXTCODESIZE PUSH2 0x11C0 JUMPI PUSH1 0x40 MLOAD PUSH4 0x3DDC5CAB PUSH1 0xE2 SHL DUP2 MSTORE PUSH1 0x4 ADD PUSH1 0x40 MLOAD DUP1 SWAP2 SUB SWAP1 REVERT JUMPDEST PUSH0 JUMPDEST DUP2 PUSH1 0x40 ADD MLOAD MLOAD DUP2 LT ISZERO PUSH2 0x12F6 JUMPI PUSH0 DUP3 PUSH1 0x40 ADD MLOAD DUP3 DUP2 MLOAD DUP2 LT PUSH2 0x11E6 JUMPI PUSH2 0x11E6 PUSH2 0x1B06 JUMP JUMPDEST PUSH1 0x20 SWAP1 DUP2 MUL SWAP2 SWAP1 SWAP2 ADD DUP2 ADD MLOAD PUSH1 0x1 PUSH1 0x1 PUSH1 0xE0 SHL SUB NOT DUP2 AND PUSH0 SWAP1 DUP2 MSTORE SWAP2 DUP7 SWAP1 MSTORE PUSH1 0x40 SWAP1 SWAP2 KECCAK256 SLOAD SWAP1 SWAP2 POP PUSH1 0x60 DUP2 SWAP1 SHR DUP1 PUSH2 0x1231 JUMPI PUSH1 0x40 MLOAD PUSH4 0x37E25A97 PUSH1 0xE1 SHL DUP2 MSTORE PUSH1 0x4 ADD PUSH1 0x40 MLOAD DUP1 SWAP2 SUB SWAP1 REVERT JUMPDEST ADDRESS PUSH1 0x1 PUSH1 0x1 PUSH1 0xA0 SHL SUB DUP3 AND SUB PUSH2 0x125A JUMPI PUSH1 0x40 MLOAD PUSH4 0xE9835731 PUSH1 0xE0 SHL DUP2 MSTORE PUSH1 0x4 ADD PUSH1 0x40 MLOAD DUP1 SWAP2 SUB SWAP1 REVERT JUMPDEST DUP5 PUSH0 ADD MLOAD PUSH1 0x1 PUSH1 0x1 PUSH1 0xA0 SHL SUB AND DUP2 PUSH1 0x1 PUSH1 0x1 PUSH1 0xA0 SHL SUB AND SUB PUSH2 0x12A8 JUMPI PUSH1 0x40 MLOAD PUSH32 0x617557E600000000000000000000000000000000000000000000000000000000 DUP2 MSTORE PUSH1 0x4 ADD PUSH1 0x40 MLOAD DUP1 SWAP2 SUB SWAP1 REVERT JUMPDEST POP DUP4 MLOAD PUSH1 0x1 PUSH1 0x1 PUSH1 0xE0 SHL SUB NOT SWAP3 SWAP1 SWAP3 AND PUSH0 SWAP1 DUP2 MSTORE PUSH1 0x20 DUP7 SWAP1 MSTORE PUSH1 0x40 SWAP1 KECCAK256 PUSH1 0x60 SWAP3 SWAP1 SWAP3 SHL PUSH12 0xFFFFFFFFFFFFFFFFFFFFFFFF NOT AND PUSH12 0xFFFFFFFFFFFFFFFFFFFFFFFF SWAP2 SWAP1 SWAP2 AND OR SWAP1 SSTORE PUSH1 0x1 ADD PUSH2 0x11C2 JUMP JUMPDEST POP POP POP JUMP JUMPDEST DUP1 MLOAD PUSH0 SWAP1 DUP2 SWAP1 PUSH1 0x1 PUSH1 0x1 PUSH1 0xA0 SHL SUB AND ISZERO PUSH2 0x1341 JUMPI PUSH1 0x40 MLOAD PUSH32 0xEACD242400000000000000000000000000000000000000000000000000000000 DUP2 MSTORE PUSH1 0x4 ADD PUSH1 0x40 MLOAD DUP1 SWAP2 SUB SWAP1 REVERT JUMPDEST PUSH1 0x3 DUP6 SWAP1 SHR PUSH1 0x7 DUP7 AND PUSH0 JUMPDEST DUP6 PUSH1 0x40 ADD MLOAD MLOAD DUP2 LT ISZERO PUSH2 0x1519 JUMPI PUSH0 DUP7 PUSH1 0x40 ADD MLOAD DUP3 DUP2 MLOAD DUP2 LT PUSH2 0x1370 JUMPI PUSH2 0x1370 PUSH2 0x1B06 JUMP JUMPDEST PUSH1 0x20 SWAP1 DUP2 MUL SWAP2 SWAP1 SWAP2 ADD DUP2 ADD MLOAD PUSH1 0x1 PUSH1 0x1 PUSH1 0xE0 SHL SUB NOT DUP2 AND PUSH0 SWAP1 DUP2 MSTORE SWAP2 DUP13 SWAP1 MSTORE PUSH1 0x40 SWAP1 SWAP2 KECCAK256 SLOAD SWAP1 SWAP2 POP PUSH1 0x60 DUP2 SWAP1 SHR PUSH2 0x13BA JUMPI PUSH1 0x40 MLOAD PUSH4 0x37E25A97 PUSH1 0xE1 SHL DUP2 MSTORE PUSH1 0x4 ADD PUSH1 0x40 MLOAD DUP1 SWAP2 SUB SWAP1 REVERT JUMPDEST ADDRESS PUSH1 0x60 DUP3 SWAP1 SHR SUB PUSH2 0x13DE JUMPI PUSH1 0x40 MLOAD PUSH4 0xE9835731 PUSH1 0xE0 SHL DUP2 MSTORE PUSH1 0x4 ADD PUSH1 0x40 MLOAD DUP1 SWAP2 SUB SWAP1 REVERT JUMPDEST PUSH0 DUP10 SWAP1 SUB PUSH2 0x1407 JUMPI PUSH0 NOT SWAP1 SWAP5 ADD PUSH0 DUP2 DUP2 MSTORE PUSH1 0x2 DUP13 ADD PUSH1 0x20 MSTORE PUSH1 0x40 SWAP1 KECCAK256 SLOAD SWAP9 POP SWAP4 PUSH1 0x7 SWAP4 POP PUSH2 0x140E JUMP JUMPDEST PUSH0 NOT SWAP1 SWAP4 ADD SWAP3 JUMPDEST PUSH1 0x5 DUP5 SWAP1 SHL DUP10 SWAP1 SHL PUSH0 DUP1 PUSH1 0x1 PUSH1 0x1 PUSH1 0xE0 SHL SUB NOT DUP1 DUP5 AND SWAP1 DUP7 AND EQ PUSH2 0x1468 JUMPI PUSH1 0x1 PUSH1 0x1 PUSH1 0xE0 SHL SUB NOT DUP4 AND PUSH0 SWAP1 DUP2 MSTORE PUSH1 0x20 DUP16 SWAP1 MSTORE PUSH1 0x40 SWAP1 KECCAK256 DUP1 SLOAD PUSH12 0xFFFFFFFFFFFFFFFFFFFFFFFF NOT AND PUSH12 0xFFFFFFFFFFFFFFFFFFFFFFFF DUP7 AND OR SWAP1 SSTORE JUMPDEST POP POP PUSH1 0x1 PUSH1 0x1 PUSH1 0xE0 SHL SUB NOT DUP4 AND PUSH0 SWAP1 DUP2 MSTORE PUSH1 0x20 DUP14 SWAP1 MSTORE PUSH1 0x40 DUP2 KECCAK256 SSTORE PUSH2 0x1FFF PUSH1 0x3 DUP4 SWAP1 SHR AND PUSH1 0xE0 PUSH1 0x5 DUP5 SWAP1 SHL AND DUP8 DUP3 EQ PUSH2 0x14C9 JUMPI PUSH0 DUP3 DUP2 MSTORE PUSH1 0x2 DUP16 ADD PUSH1 0x20 MSTORE PUSH1 0x40 SWAP1 KECCAK256 DUP1 SLOAD PUSH1 0x1 PUSH1 0x1 PUSH1 0xE0 SHL SUB NOT DUP1 DUP5 SHR NOT SWAP1 SWAP2 AND SWAP1 DUP6 AND DUP4 SHR OR SWAP1 SSTORE PUSH2 0x14EC JUMP JUMPDEST DUP1 DUP4 PUSH1 0x1 PUSH1 0x1 PUSH1 0xE0 SHL SUB NOT AND SWAP1 SHR DUP2 PUSH1 0x1 PUSH1 0x1 PUSH1 0xE0 SHL SUB NOT PUSH0 SHL SWAP1 SHR NOT DUP14 AND OR SWAP12 POP JUMPDEST DUP7 PUSH0 SUB PUSH2 0x1508 JUMPI PUSH0 DUP9 DUP2 MSTORE PUSH1 0x2 DUP16 ADD PUSH1 0x20 MSTORE PUSH1 0x40 DUP2 KECCAK256 DUP2 SWAP1 SSTORE SWAP12 POP JUMPDEST POP POP PUSH1 0x1 SWAP1 SWAP4 ADD SWAP3 POP PUSH2 0x134C SWAP2 POP POP JUMP JUMPDEST POP PUSH1 0x3 SWAP2 SWAP1 SWAP2 SHL OR SWAP7 SWAP4 SWAP6 POP SWAP3 SWAP4 POP POP POP POP JUMP JUMPDEST DUP1 MLOAD ISZERO PUSH1 0x1 PUSH1 0x1 PUSH1 0xA0 SHL SUB DUP4 AND ISZERO EQ PUSH2 0x1572 JUMPI PUSH1 0x40 MLOAD PUSH32 0x26DF4CCD00000000000000000000000000000000000000000000000000000000 DUP2 MSTORE PUSH1 0x4 ADD PUSH1 0x40 MLOAD DUP1 SWAP2 SUB SWAP1 REVERT JUMPDEST PUSH1 0x1 PUSH1 0x1 PUSH1 0xA0 SHL SUB DUP3 AND ISZERO PUSH2 0x1620 JUMPI PUSH1 0x1 PUSH1 0x1 PUSH1 0xA0 SHL SUB DUP3 AND ADDRESS EQ PUSH2 0x15B9 JUMPI PUSH1 0x1 PUSH1 0x1 PUSH1 0xA0 SHL SUB DUP3 AND EXTCODESIZE PUSH2 0x15B9 JUMPI PUSH1 0x40 MLOAD PUSH4 0x3DDC5CAB PUSH1 0xE2 SHL DUP2 MSTORE PUSH1 0x4 ADD PUSH1 0x40 MLOAD DUP1 SWAP2 SUB SWAP1 REVERT JUMPDEST PUSH0 DUP3 PUSH1 0x1 PUSH1 0x1 PUSH1 0xA0 SHL SUB AND DUP3 PUSH1 0x40 MLOAD PUSH2 0x15D2 SWAP2 SWAP1 PUSH2 0x1C8B JUMP JUMPDEST PUSH0 PUSH1 0x40 MLOAD DUP1 DUP4 SUB DUP2 DUP6 GAS DELEGATECALL SWAP2 POP POP RETURNDATASIZE DUP1 PUSH0 DUP2 EQ PUSH2 0x160A JUMPI PUSH1 0x40 MLOAD SWAP2 POP PUSH1 0x1F NOT PUSH1 0x3F RETURNDATASIZE ADD AND DUP3 ADD PUSH1 0x40 MSTORE RETURNDATASIZE DUP3 MSTORE RETURNDATASIZE PUSH0 PUSH1 0x20 DUP5 ADD RETURNDATACOPY PUSH2 0x160F JUMP JUMPDEST PUSH1 0x60 SWAP2 POP JUMPDEST POP POP SWAP1 POP DUP1 PUSH2 0x12F6 JUMPI RETURNDATASIZE PUSH0 DUP1 RETURNDATACOPY RETURNDATASIZE PUSH0 REVERT JUMPDEST POP POP JUMP JUMPDEST PUSH32 0x8A22373512790C48B83A1FE2EFDD2888D4A917BCDC24D0ADF63E60F671680460 DUP1 SLOAD PUSH1 0x40 MLOAD PUSH1 0x1 PUSH1 0x1 PUSH1 0xA0 SHL SUB DUP5 DUP2 AND SWAP3 AND SWAP1 PUSH32 0x8BE0079C531659141344CD1FD0A4F28419497F9722A3DAAFE3B4186F6B6457E0 SWAP1 PUSH0 SWAP1 LOG3 DUP1 SLOAD PUSH20 0xFFFFFFFFFFFFFFFFFFFFFFFFFFFFFFFFFFFFFFFF NOT AND PUSH1 0x1 PUSH1 0x1 PUSH1 0xA0 SHL SUB SWAP3 SWAP1 SWAP3 AND SWAP2 SWAP1 SWAP2 OR SWAP1 SSTORE JUMP JUMPDEST DUP1 CALLDATALOAD PUSH1 0x1 PUSH1 0x1 PUSH1 0xE0 SHL SUB NOT DUP2 AND DUP2 EQ PUSH2 0x16C1 JUMPI PUSH0 DUP1 REVERT JUMPDEST SWAP2 SWAP1 POP JUMP JUMPDEST PUSH0 PUSH1 0x20 DUP3 DUP5 SUB SLT ISZERO PUSH2 0x16D6 JUMPI PUSH0 DUP1 REVERT JUMPDEST PUSH2 0x16DF DUP3 PUSH2 0x16AA JUMP JUMPDEST SWAP4 SWAP3 POP POP POP JUMP JUMPDEST DUP1 CALLDATALOAD PUSH1 0x1 PUSH1 0x1 PUSH1 0xA0 SHL SUB DUP2 AND DUP2 EQ PUSH2 0x16C1 JUMPI PUSH0 DUP1 REVERT JUMPDEST PUSH0 DUP1 DUP4 PUSH1 0x1F DUP5 ADD SLT PUSH2 0x170C JUMPI PUSH0 DUP1 REVERT JUMPDEST POP DUP2 CALLDATALOAD PUSH8 0xFFFFFFFFFFFFFFFF DUP2 GT ISZERO PUSH2 0x1723 JUMPI PUSH0 DUP1 REVERT JUMPDEST PUSH1 0x20 DUP4 ADD SWAP2 POP DUP4 PUSH1 0x20 DUP3 DUP6 ADD ADD GT ISZERO PUSH2 0x173A JUMPI PUSH0 DUP1 REVERT JUMPDEST SWAP3 POP SWAP3 SWAP1 POP JUMP JUMPDEST PUSH0 DUP1 PUSH0 DUP1 PUSH0 PUSH1 0x60 DUP7 DUP9 SUB SLT ISZERO PUSH2 0x1755 JUMPI PUSH0 DUP1 REVERT JUMPDEST DUP6 CALLDATALOAD PUSH8 0xFFFFFFFFFFFFFFFF DUP1 DUP3 GT ISZERO PUSH2 0x176C JUMPI PUSH0 DUP1 REVERT JUMPDEST DUP2 DUP9 ADD SWAP2 POP DUP9 PUSH1 0x1F DUP4 ADD SLT PUSH2 0x177F JUMPI PUSH0 DUP1 REVERT JUMPDEST DUP2 CALLDATALOAD DUP2 DUP2 GT ISZERO PUSH2 0x178D JUMPI PUSH0 DUP1 REVERT JUMPDEST DUP10 PUSH1 0x20 DUP3 PUSH1 0x5 SHL DUP6 ADD ADD GT ISZERO PUSH2 0x17A1 JUMPI PUSH0 DUP1 REVERT JUMPDEST PUSH1 0x20 DUP4 ADD SWAP8 POP DUP1 SWAP7 POP POP PUSH2 0x17B7 PUSH1 0x20 DUP10 ADD PUSH2 0x16E6 JUMP JUMPDEST SWAP5 POP PUSH1 0x40 DUP9 ADD CALLDATALOAD SWAP2 POP DUP1 DUP3 GT ISZERO PUSH2 0x17CC JUMPI PUSH0 DUP1 REVERT JUMPDEST POP PUSH2 0x17D9 DUP9 DUP3 DUP10 ADD PUSH2 0x16FC JUMP JUMPDEST SWAP7 SWAP10 SWAP6 SWAP9 POP SWAP4 SWAP7 POP SWAP3 SWAP5 SWAP4 SWAP3 POP POP POP JUMP JUMPDEST PUSH1 0x20 DUP1 DUP3 MSTORE DUP3 MLOAD DUP3 DUP3 ADD DUP2 SWAP1 MSTORE PUSH0 SWAP2 SWAP1 DUP5 DUP3 ADD SWAP1 PUSH1 0x40 DUP6 ADD SWAP1 DUP5 JUMPDEST DUP2 DUP2 LT ISZERO PUSH2 0x182A JUMPI DUP4 MLOAD PUSH1 0x1 PUSH1 0x1 PUSH1 0xA0 SHL SUB AND DUP4 MSTORE SWAP3 DUP5 ADD SWAP3 SWAP2 DUP5 ADD SWAP2 PUSH1 0x1 ADD PUSH2 0x1805 JUMP JUMPDEST POP SWAP1 SWAP7 SWAP6 POP POP POP POP POP POP JUMP JUMPDEST PUSH0 DUP2 MLOAD DUP1 DUP5 MSTORE PUSH1 0x20 DUP1 DUP6 ADD SWAP5 POP PUSH1 0x20 DUP5 ADD PUSH0 JUMPDEST DUP4 DUP2 LT ISZERO PUSH2 0x186F JUMPI DUP2 MLOAD PUSH1 0x1 PUSH1 0x1 PUSH1 0xE0 SHL SUB NOT AND DUP8 MSTORE SWAP6 DUP3 ADD SWAP6 SWAP1 DUP3 ADD SWAP1 PUSH1 0x1 ADD PUSH2 0x1849 JUMP JUMPDEST POP SWAP5 SWAP6 SWAP5 POP POP POP POP POP JUMP JUMPDEST PUSH0 PUSH1 0x20 DUP1 DUP4 ADD DUP2 DUP5 MSTORE DUP1 DUP6 MLOAD DUP1 DUP4 MSTORE PUSH1 0x40 SWAP3 POP PUSH1 0x40 DUP7 ADD SWAP2 POP PUSH1 0x40 DUP2 PUSH1 0x5 SHL DUP8 ADD ADD DUP5 DUP9 ADD PUSH0 JUMPDEST DUP4 DUP2 LT ISZERO PUSH2 0x18E9 JUMPI DUP9 DUP4 SUB PUSH1 0x3F NOT ADD DUP6 MSTORE DUP2 MLOAD DUP1 MLOAD PUSH1 0x1 PUSH1 0x1 PUSH1 0xA0 SHL SUB AND DUP5 MSTORE DUP8 ADD MLOAD DUP8 DUP5 ADD DUP8 SWAP1 MSTORE PUSH2 0x18D6 DUP8 DUP6 ADD DUP3 PUSH2 0x1836 JUMP JUMPDEST SWAP6 DUP9 ADD SWAP6 SWAP4 POP POP SWAP1 DUP7 ADD SWAP1 PUSH1 0x1 ADD PUSH2 0x18A1 JUMP JUMPDEST POP SWAP1 SWAP9 SWAP8 POP POP POP POP POP POP POP POP JUMP JUMPDEST PUSH0 PUSH1 0x20 DUP3 DUP5 SUB SLT ISZERO PUSH2 0x1907 JUMPI PUSH0 DUP1 REVERT JUMPDEST PUSH2 0x16DF DUP3 PUSH2 0x16E6 JUMP JUMPDEST PUSH1 0x20 DUP1 DUP3 MSTORE DUP3 MLOAD DUP3 DUP3 ADD DUP2 SWAP1 MSTORE PUSH0 SWAP2 SWAP1 DUP5 DUP3 ADD SWAP1 PUSH1 0x40 DUP6 ADD SWAP1 DUP5 JUMPDEST DUP2 DUP2 LT ISZERO PUSH2 0x182A JUMPI DUP4 MLOAD PUSH1 0x1 PUSH1 0x1 PUSH1 0xE0 SHL SUB NOT AND DUP4 MSTORE SWAP3 DUP5 ADD SWAP3 SWAP2 DUP5 ADD SWAP2 PUSH1 0x1 ADD PUSH2 0x192B JUMP JUMPDEST PUSH4 0x4E487B71 PUSH1 0xE0 SHL PUSH0 MSTORE PUSH1 0x41 PUSH1 0x4 MSTORE PUSH1 0x24 PUSH0 REVERT JUMPDEST PUSH1 0x40 MLOAD PUSH1 0x60 DUP2 ADD PUSH8 0xFFFFFFFFFFFFFFFF DUP2 GT DUP3 DUP3 LT OR ISZERO PUSH2 0x1988 JUMPI PUSH2 0x1988 PUSH2 0x1951 JUMP JUMPDEST PUSH1 0x40 MSTORE SWAP1 JUMP JUMPDEST PUSH1 0x40 MLOAD PUSH1 0x1F DUP3 ADD PUSH1 0x1F NOT AND DUP2 ADD PUSH8 0xFFFFFFFFFFFFFFFF DUP2 GT DUP3 DUP3 LT OR ISZERO PUSH2 0x19B7 JUMPI PUSH2 0x19B7 PUSH2 0x1951 JUMP JUMPDEST PUSH1 0x40 MSTORE SWAP2 SWAP1 POP JUMP JUMPDEST PUSH0 PUSH8 0xFFFFFFFFFFFFFFFF DUP3 GT ISZERO PUSH2 0x19D8 JUMPI PUSH2 0x19D8 PUSH2 0x1951 JUMP JUMPDEST POP PUSH1 0x5 SHL PUSH1 0x20 ADD SWAP1 JUMP JUMPDEST PUSH0 PUSH2 0x19F4 PUSH2 0x19EF DUP5 PUSH2 0x19BF JUMP JUMPDEST PUSH2 0x198E JUMP JUMPDEST DUP4 DUP2 MSTORE PUSH1 0x20 DUP1 DUP3 ADD SWAP2 SWAP1 PUSH1 0x5 DUP7 DUP2 SHL DUP7 ADD CALLDATASIZE DUP2 GT ISZERO PUSH2 0x1A11 JUMPI PUSH0 DUP1 REVERT JUMPDEST DUP7 JUMPDEST DUP2 DUP2 LT ISZERO PUSH2 0x1AF9 JUMPI DUP1 CALLDATALOAD PUSH8 0xFFFFFFFFFFFFFFFF DUP1 DUP3 GT ISZERO PUSH2 0x1A32 JUMPI PUSH0 DUP1 REVERT JUMPDEST DUP2 DUP11 ADD SWAP2 POP PUSH1 0x60 DUP3 CALLDATASIZE SUB SLT ISZERO PUSH2 0x1A46 JUMPI PUSH0 DUP1 REVERT JUMPDEST PUSH2 0x1A4E PUSH2 0x1965 JUMP JUMPDEST PUSH2 0x1A57 DUP4 PUSH2 0x16E6 JUMP JUMPDEST DUP2 MSTORE DUP7 DUP4 ADD CALLDATALOAD PUSH1 0x3 DUP2 LT PUSH2 0x1A69 JUMPI PUSH0 DUP1 REVERT JUMPDEST DUP2 DUP9 ADD MSTORE PUSH1 0x40 DUP4 DUP2 ADD CALLDATALOAD DUP4 DUP2 GT ISZERO PUSH2 0x1A7F JUMPI PUSH0 DUP1 REVERT JUMPDEST SWAP4 SWAP1 SWAP4 ADD SWAP3 CALLDATASIZE PUSH1 0x1F DUP6 ADD SLT PUSH2 0x1A92 JUMPI PUSH0 DUP1 REVERT JUMPDEST DUP4 CALLDATALOAD SWAP3 POP PUSH2 0x1AA2 PUSH2 0x19EF DUP5 PUSH2 0x19BF JUMP JUMPDEST DUP4 DUP2 MSTORE SWAP3 DUP8 SHL DUP5 ADD DUP9 ADD SWAP3 DUP9 DUP2 ADD SWAP1 CALLDATASIZE DUP6 GT ISZERO PUSH2 0x1ABD JUMPI PUSH0 DUP1 REVERT JUMPDEST SWAP5 DUP10 ADD SWAP5 JUMPDEST DUP5 DUP7 LT ISZERO PUSH2 0x1AE2 JUMPI PUSH2 0x1AD3 DUP7 PUSH2 0x16AA JUMP JUMPDEST DUP3 MSTORE SWAP5 DUP10 ADD SWAP5 SWAP1 DUP10 ADD SWAP1 PUSH2 0x1AC2 JUMP JUMPDEST SWAP2 DUP4 ADD SWAP2 SWAP1 SWAP2 MSTORE POP DUP9 MSTORE POP POP SWAP5 DUP4 ADD SWAP5 DUP4 ADD PUSH2 0x1A13 JUMP JUMPDEST POP SWAP3 SWAP8 SWAP7 POP POP POP POP POP POP POP JUMP JUMPDEST PUSH4 0x4E487B71 PUSH1 0xE0 SHL PUSH0 MSTORE PUSH1 0x32 PUSH1 0x4 MSTORE PUSH1 0x24 PUSH0 REVERT JUMPDEST PUSH4 0x4E487B71 PUSH1 0xE0 SHL PUSH0 MSTORE PUSH1 0x21 PUSH1 0x4 MSTORE PUSH1 0x24 PUSH0 REVERT JUMPDEST PUSH0 JUMPDEST DUP4 DUP2 LT ISZERO PUSH2 0x1B48 JUMPI DUP2 DUP2 ADD MLOAD DUP4 DUP3 ADD MSTORE PUSH1 0x20 ADD PUSH2 0x1B30 JUMP JUMPDEST POP POP PUSH0 SWAP2 ADD MSTORE JUMP JUMPDEST PUSH0 DUP2 MLOAD DUP1 DUP5 MSTORE PUSH2 0x1B67 DUP2 PUSH1 0x20 DUP7 ADD PUSH1 0x20 DUP7 ADD PUSH2 0x1B2E JUMP JUMPDEST PUSH1 0x1F ADD PUSH1 0x1F NOT AND SWAP3 SWAP1 SWAP3 ADD PUSH1 0x20 ADD SWAP3 SWAP2 POP POP JUMP JUMPDEST PUSH0 PUSH1 0x60 DUP1 DUP4 ADD PUSH1 0x60 DUP5 MSTORE DUP1 DUP8 MLOAD DUP1 DUP4 MSTORE PUSH1 0x80 DUP7 ADD SWAP2 POP PUSH1 0x80 DUP2 PUSH1 0x5 SHL DUP8 ADD ADD SWAP3 POP PUSH1 0x20 DUP1 DUP11 ADD PUSH0 JUMPDEST DUP4 DUP2 LT ISZERO PUSH2 0x1C12 JUMPI DUP9 DUP7 SUB PUSH1 0x7F NOT ADD DUP6 MSTORE DUP2 MLOAD DUP1 MLOAD PUSH1 0x1 PUSH1 0x1 PUSH1 0xA0 SHL SUB AND DUP8 MSTORE DUP4 DUP2 ADD MLOAD PUSH1 0x3 DUP2 LT PUSH2 0x1BE3 JUMPI PUSH4 0x4E487B71 PUSH1 0xE0 SHL PUSH0 MSTORE PUSH1 0x21 PUSH1 0x4 MSTORE PUSH1 0x24 PUSH0 REVERT JUMPDEST DUP8 DUP6 ADD MSTORE PUSH1 0x40 SWAP1 DUP2 ADD MLOAD SWAP1 DUP8 ADD DUP9 SWAP1 MSTORE PUSH2 0x1BFF DUP9 DUP9 ADD DUP3 PUSH2 0x1836 JUMP JUMPDEST SWAP7 POP POP SWAP4 DUP3 ADD SWAP4 SWAP1 DUP3 ADD SWAP1 PUSH1 0x1 ADD PUSH2 0x1BA3 JUMP JUMPDEST POP POP PUSH1 0x1 PUSH1 0x1 PUSH1 0xA0 SHL SUB DUP10 AND SWAP1 DUP8 ADD MSTORE POP POP DUP4 DUP2 SUB PUSH1 0x40 DUP6 ADD MSTORE PUSH2 0x1C36 DUP2 DUP7 PUSH2 0x1B50 JUMP JUMPDEST SWAP8 SWAP7 POP POP POP POP POP POP POP JUMP JUMPDEST PUSH4 0x4E487B71 PUSH1 0xE0 SHL PUSH0 MSTORE PUSH1 0x11 PUSH1 0x4 MSTORE PUSH1 0x24 PUSH0 REVERT JUMPDEST PUSH0 PUSH1 0x1 DUP3 ADD PUSH2 0x1C66 JUMPI PUSH2 0x1C66 PUSH2 0x1C41 JUMP JUMPDEST POP PUSH1 0x1 ADD SWAP1 JUMP JUMPDEST PUSH0 PUSH1 0xFF DUP3 AND PUSH1 0xFF DUP2 SUB PUSH2 0x1C82 JUMPI PUSH2 0x1C82 PUSH2 0x1C41 JUMP JUMPDEST PUSH1 0x1 ADD SWAP3 SWAP2 POP POP JUMP JUMPDEST PUSH0 DUP3 MLOAD PUSH2 0x1C9C DUP2 DUP5 PUSH1 0x20 DUP8 ADD PUSH2 0x1B2E JUMP JUMPDEST SWAP2 SWAP1 SWAP2 ADD SWAP3 SWAP2 POP POP JUMP INVALID LOG2 PUSH5 0x6970667358 0x22 SLT KECCAK256 LT DUP1 CALLDATASIZE 0xFC PUSH8 0xEEDB0D8EFD6AE615 0xD5 0xA6 0xB7 LOG0 JUMPDEST 0xF9 PREVRANDAO 0x21 0x26 0xE5 0xA9 0xAF DUP16 0xB4 LOG4 KECCAK256 0xA5 STATICCALL 0xE7 PUSH5 0x736F6C6343 STOP ADDMOD XOR STOP CALLER "
		},
		"gasEstimates": {
			"creation": {
				"codeDepositCost": "1477600",
				"executionCost": "infinite",
				"totalCost": "infinite"
			},
			"external": {
				"": "infinite",
				"acceptOwnership()": "54588",
				"diamondCut((address,uint8,bytes4[])[],address,bytes)": "infinite",
				"facetAddress(bytes4)": "2645",
				"facetAddresses()": "infinite",
				"facetFunctionSelectors(address)": "infinite",
				"facets()": "infinite",
				"getFallbackAddress()": "2435",
				"nomineeOwner()": "2421",
				"owner()": "2432",
				"setFallbackAddress(address)": "26822",
				"supportsInterface(bytes4)": "2588",
				"transferOwnership(address)": "infinite"
			}
		},
		"methodIdentifiers": {
			"acceptOwnership()": "79ba5097",
			"diamondCut((address,uint8,bytes4[])[],address,bytes)": "1f931c1c",
			"facetAddress(bytes4)": "cdffacc6",
			"facetAddresses()": "52ef6b2c",
			"facetFunctionSelectors(address)": "adfca15e",
			"facets()": "7a0ed627",
			"getFallbackAddress()": "2c408059",
			"nomineeOwner()": "8ab5150a",
			"owner()": "8da5cb5b",
			"setFallbackAddress(address)": "91423765",
			"supportsInterface(bytes4)": "01ffc9a7",
			"transferOwnership(address)": "f2fde38b"
		}
	},
	"abi": [
		{
			"inputs": [],
			"name": "DiamondWritable__InvalidInitializationParameters",
			"type": "error"
		},
		{
			"inputs": [],
			"name": "DiamondWritable__RemoveTargetNotZeroAddress",
			"type": "error"
		},
		{
			"inputs": [],
			"name": "DiamondWritable__ReplaceTargetIsIdentical",
			"type": "error"
		},
		{
			"inputs": [],
			"name": "DiamondWritable__SelectorAlreadyAdded",
			"type": "error"
		},
		{
			"inputs": [],
			"name": "DiamondWritable__SelectorIsImmutable",
			"type": "error"
		},
		{
			"inputs": [],
			"name": "DiamondWritable__SelectorNotFound",
			"type": "error"
		},
		{
			"inputs": [],
			"name": "DiamondWritable__SelectorNotSpecified",
			"type": "error"
		},
		{
			"inputs": [],
			"name": "DiamondWritable__TargetHasNoCode",
			"type": "error"
		},
		{
			"inputs": [],
			"name": "ERC165Base__InvalidInterfaceId",
			"type": "error"
		},
		{
			"inputs": [],
			"name": "Ownable__NotOwner",
			"type": "error"
		},
		{
			"inputs": [],
			"name": "Ownable__NotTransitiveOwner",
			"type": "error"
		},
		{
			"inputs": [],
			"name": "Proxy__ImplementationIsNotContract",
			"type": "error"
		},
		{
			"inputs": [],
			"name": "SafeOwnable__NotNomineeOwner",
			"type": "error"
		},
		{
			"anonymous": false,
			"inputs": [
				{
					"components": [
						{
							"internalType": "address",
							"name": "target",
							"type": "address"
						},
						{
							"internalType": "enum IERC2535DiamondCutInternal.FacetCutAction",
							"name": "action",
							"type": "uint8"
						},
						{
							"internalType": "bytes4[]",
							"name": "selectors",
							"type": "bytes4[]"
						}
					],
					"indexed": false,
					"internalType": "struct IERC2535DiamondCutInternal.FacetCut[]",
					"name": "facetCuts",
					"type": "tuple[]"
				},
				{
					"indexed": false,
					"internalType": "address",
					"name": "target",
					"type": "address"
				},
				{
					"indexed": false,
					"internalType": "bytes",
					"name": "data",
					"type": "bytes"
				}
			],
			"name": "DiamondCut",
			"type": "event"
		},
		{
			"anonymous": false,
			"inputs": [
				{
					"indexed": true,
					"internalType": "address",
					"name": "previousOwner",
					"type": "address"
				},
				{
					"indexed": true,
					"internalType": "address",
					"name": "newOwner",
					"type": "address"
				}
			],
			"name": "OwnershipTransferred",
			"type": "event"
		},
		{
			"stateMutability": "payable",
			"type": "fallback"
		},
		{
			"inputs": [],
			"name": "acceptOwnership",
			"outputs": [],
			"stateMutability": "nonpayable",
			"type": "function"
		},
		{
			"inputs": [
				{
					"components": [
						{
							"internalType": "address",
							"name": "target",
							"type": "address"
						},
						{
							"internalType": "enum IERC2535DiamondCutInternal.FacetCutAction",
							"name": "action",
							"type": "uint8"
						},
						{
							"internalType": "bytes4[]",
							"name": "selectors",
							"type": "bytes4[]"
						}
					],
					"internalType": "struct IERC2535DiamondCutInternal.FacetCut[]",
					"name": "facetCuts",
					"type": "tuple[]"
				},
				{
					"internalType": "address",
					"name": "target",
					"type": "address"
				},
				{
					"internalType": "bytes",
					"name": "data",
					"type": "bytes"
				}
			],
			"name": "diamondCut",
			"outputs": [],
			"stateMutability": "nonpayable",
			"type": "function"
		},
		{
			"inputs": [
				{
					"internalType": "bytes4",
					"name": "selector",
					"type": "bytes4"
				}
			],
			"name": "facetAddress",
			"outputs": [
				{
					"internalType": "address",
					"name": "facet",
					"type": "address"
				}
			],
			"stateMutability": "view",
			"type": "function"
		},
		{
			"inputs": [],
			"name": "facetAddresses",
			"outputs": [
				{
					"internalType": "address[]",
					"name": "addresses",
					"type": "address[]"
				}
			],
			"stateMutability": "view",
			"type": "function"
		},
		{
			"inputs": [
				{
					"internalType": "address",
					"name": "facet",
					"type": "address"
				}
			],
			"name": "facetFunctionSelectors",
			"outputs": [
				{
					"internalType": "bytes4[]",
					"name": "selectors",
					"type": "bytes4[]"
				}
			],
			"stateMutability": "view",
			"type": "function"
		},
		{
			"inputs": [],
			"name": "facets",
			"outputs": [
				{
					"components": [
						{
							"internalType": "address",
							"name": "target",
							"type": "address"
						},
						{
							"internalType": "bytes4[]",
							"name": "selectors",
							"type": "bytes4[]"
						}
					],
					"internalType": "struct IERC2535DiamondLoupeInternal.Facet[]",
					"name": "diamondFacets",
					"type": "tuple[]"
				}
			],
			"stateMutability": "view",
			"type": "function"
		},
		{
			"inputs": [],
			"name": "getFallbackAddress",
			"outputs": [
				{
					"internalType": "address",
					"name": "fallbackAddress",
					"type": "address"
				}
			],
			"stateMutability": "view",
			"type": "function"
		},
		{
			"inputs": [],
			"name": "nomineeOwner",
			"outputs": [
				{
					"internalType": "address",
					"name": "",
					"type": "address"
				}
			],
			"stateMutability": "view",
			"type": "function"
		},
		{
			"inputs": [],
			"name": "owner",
			"outputs": [
				{
					"internalType": "address",
					"name": "",
					"type": "address"
				}
			],
			"stateMutability": "view",
			"type": "function"
		},
		{
			"inputs": [
				{
					"internalType": "address",
					"name": "fallbackAddress",
					"type": "address"
				}
			],
			"name": "setFallbackAddress",
			"outputs": [],
			"stateMutability": "nonpayable",
			"type": "function"
		},
		{
			"inputs": [
				{
					"internalType": "bytes4",
					"name": "interfaceId",
					"type": "bytes4"
				}
			],
			"name": "supportsInterface",
			"outputs": [
				{
					"internalType": "bool",
					"name": "",
					"type": "bool"
				}
			],
			"stateMutability": "view",
			"type": "function"
		},
		{
			"inputs": [
				{
					"internalType": "address",
					"name": "account",
					"type": "address"
				}
			],
			"name": "transferOwnership",
			"outputs": [],
			"stateMutability": "nonpayable",
			"type": "function"
		},
		{
			"stateMutability": "payable",
			"type": "receive"
		}
	]
}